{
  "address": "0xdbEfc2E5eF462b4a9aa0dab7e24C46C8328CCE84",
  "abi": [
    {
      "inputs": [],
      "name": "CallerNotKeeper",
      "type": "error"
    },
    {
      "inputs": [],
      "name": "CallerNotVault",
      "type": "error"
    },
    {
      "inputs": [
        {
          "internalType": "uint256",
          "name": "balance",
          "type": "uint256"
        }
      ],
      "name": "InsufficientShares",
      "type": "error"
    },
    {
      "inputs": [
        {
          "internalType": "uint256",
          "name": "errorCode",
          "type": "uint256"
        }
      ],
      "name": "InvalidInput",
      "type": "error"
    },
    {
      "inputs": [
        {
          "internalType": "bool",
          "name": "currentValue",
          "type": "bool"
        }
      ],
      "name": "InvalidSetDepositPaused",
      "type": "error"
    },
    {
      "inputs": [
        {
          "internalType": "address",
          "name": "vault",
          "type": "address"
        }
      ],
      "name": "InvalidVault",
      "type": "error"
    },
    {
      "inputs": [],
      "name": "NoUsdcBalance",
      "type": "error"
    },
    {
      "inputs": [],
      "name": "VaultAlreadyAdded",
      "type": "error"
    },
    {
      "inputs": [],
      "name": "VaultsLimitExceeded",
      "type": "error"
    },
    {
      "inputs": [],
      "name": "ZeroBalance",
      "type": "error"
    },
    {
      "anonymous": false,
      "inputs": [
        {
          "indexed": true,
          "internalType": "uint256",
          "name": "round",
          "type": "uint256"
        },
        {
          "indexed": false,
          "internalType": "uint256",
          "name": "userUsdcAmount",
          "type": "uint256"
        },
        {
          "indexed": false,
          "internalType": "uint256",
          "name": "userGlpAmount",
          "type": "uint256"
        },
        {
          "indexed": false,
          "internalType": "uint256",
          "name": "userShareAmount",
          "type": "uint256"
        }
      ],
      "name": "BatchDeposit",
      "type": "event"
    },
    {
      "anonymous": false,
      "inputs": [
        {
          "indexed": true,
          "internalType": "uint256",
          "name": "round",
          "type": "uint256"
        },
        {
          "indexed": false,
          "internalType": "uint256",
          "name": "userUsdcAmount",
          "type": "uint256"
        },
        {
          "indexed": false,
          "internalType": "uint256",
          "name": "userGlpAmount",
          "type": "uint256"
        }
      ],
      "name": "BatchStake",
      "type": "event"
    },
    {
      "anonymous": false,
      "inputs": [
        {
          "indexed": true,
          "internalType": "uint256",
          "name": "round",
          "type": "uint256"
        },
        {
          "indexed": true,
          "internalType": "address",
          "name": "token",
          "type": "address"
        },
        {
          "indexed": true,
          "internalType": "address",
          "name": "receiver",
          "type": "address"
        },
        {
          "indexed": false,
          "internalType": "uint256",
          "name": "amount",
          "type": "uint256"
        },
        {
          "indexed": false,
          "internalType": "uint256",
          "name": "glpStaked",
          "type": "uint256"
        }
      ],
      "name": "DepositToken",
      "type": "event"
    },
    {
      "anonymous": false,
      "inputs": [
        {
          "indexed": false,
          "internalType": "uint8",
          "name": "version",
          "type": "uint8"
        }
      ],
      "name": "Initialized",
      "type": "event"
    },
    {
      "anonymous": false,
      "inputs": [
        {
          "indexed": false,
          "internalType": "address",
          "name": "newKeeper",
          "type": "address"
        }
      ],
      "name": "KeeperUpdated",
      "type": "event"
    },
    {
      "anonymous": false,
      "inputs": [
        {
          "indexed": true,
          "internalType": "address",
          "name": "previousOwner",
          "type": "address"
        },
        {
          "indexed": true,
          "internalType": "address",
          "name": "newOwner",
          "type": "address"
        }
      ],
      "name": "OwnershipTransferred",
      "type": "event"
    },
    {
      "anonymous": false,
      "inputs": [
        {
          "indexed": false,
          "internalType": "address",
          "name": "account",
          "type": "address"
        }
      ],
      "name": "Paused",
      "type": "event"
    },
    {
      "anonymous": false,
      "inputs": [
        {
          "indexed": true,
          "internalType": "address",
          "name": "from",
          "type": "address"
        },
        {
          "indexed": true,
          "internalType": "address",
          "name": "receiver",
          "type": "address"
        },
        {
          "indexed": false,
          "internalType": "uint256",
          "name": "claimAmount",
          "type": "uint256"
        }
      ],
      "name": "SharesClaimed",
      "type": "event"
    },
    {
      "anonymous": false,
      "inputs": [
        {
          "indexed": false,
          "internalType": "address",
          "name": "account",
          "type": "address"
        }
      ],
      "name": "Unpaused",
      "type": "event"
    },
    {
      "anonymous": false,
      "inputs": [
        {
          "indexed": false,
          "internalType": "address",
          "name": "vault",
          "type": "address"
        }
      ],
      "name": "VaultAdded",
      "type": "event"
    },
    {
      "anonymous": false,
      "inputs": [
        {
          "indexed": false,
          "internalType": "uint256",
          "name": "vaultGlpAmount",
          "type": "uint256"
        }
      ],
      "name": "VaultDeposit",
      "type": "event"
    },
    {
      "inputs": [
        {
          "internalType": "address",
          "name": "receiver",
          "type": "address"
        },
        {
          "internalType": "uint256",
          "name": "amount",
          "type": "uint256"
        }
      ],
      "name": "claim",
      "outputs": [],
      "stateMutability": "nonpayable",
      "type": "function"
    },
    {
      "inputs": [],
      "name": "currentRound",
      "outputs": [
        {
          "internalType": "uint256",
          "name": "",
          "type": "uint256"
        }
      ],
      "stateMutability": "view",
      "type": "function"
    },
    {
      "inputs": [
        {
          "internalType": "address",
          "name": "token",
          "type": "address"
        },
        {
          "internalType": "uint256",
          "name": "amount",
          "type": "uint256"
        },
        {
          "internalType": "uint256",
          "name": "minUSDG",
          "type": "uint256"
        }
      ],
      "name": "depositToken",
      "outputs": [
        {
          "internalType": "uint256",
          "name": "glpStaked",
          "type": "uint256"
        }
      ],
      "stateMutability": "nonpayable",
      "type": "function"
    },
    {
      "inputs": [
        {
          "internalType": "uint256",
          "name": "amount",
          "type": "uint256"
        },
        {
          "internalType": "address",
          "name": "receiver",
          "type": "address"
        }
      ],
      "name": "depositUsdc",
      "outputs": [
        {
          "internalType": "uint256",
          "name": "glpStaked",
          "type": "uint256"
        }
      ],
      "stateMutability": "nonpayable",
      "type": "function"
    },
    {
      "inputs": [],
      "name": "dnGmxJuniorVault",
      "outputs": [
        {
          "internalType": "contract IDnGmxJuniorVault",
          "name": "",
          "type": "address"
        }
      ],
      "stateMutability": "view",
      "type": "function"
    },
    {
      "inputs": [],
      "name": "dnGmxJuniorVaultGlpBalance",
      "outputs": [
        {
          "internalType": "uint256",
          "name": "",
          "type": "uint256"
        }
      ],
      "stateMutability": "view",
      "type": "function"
    },
    {
      "inputs": [],
      "name": "executeBatchDeposit",
      "outputs": [],
      "stateMutability": "nonpayable",
      "type": "function"
    },
    {
      "inputs": [],
      "name": "executeBatchStake",
      "outputs": [],
      "stateMutability": "nonpayable",
      "type": "function"
    },
    {
      "inputs": [],
      "name": "grantAllowances",
      "outputs": [],
      "stateMutability": "nonpayable",
      "type": "function"
    },
    {
      "inputs": [
        {
          "internalType": "contract IERC20",
          "name": "_sGlp",
          "type": "address"
        },
        {
          "internalType": "contract IERC20",
          "name": "_usdc",
          "type": "address"
        },
        {
          "internalType": "contract IRewardRouterV2",
          "name": "_rewardRouter",
          "type": "address"
        },
        {
          "internalType": "contract IGlpManager",
          "name": "_glpManager",
          "type": "address"
        },
        {
          "internalType": "address",
          "name": "_dnGmxJuniorVault",
          "type": "address"
        },
        {
          "internalType": "address",
          "name": "_keeper",
          "type": "address"
        }
      ],
      "name": "initialize",
      "outputs": [],
      "stateMutability": "nonpayable",
      "type": "function"
    },
    {
      "inputs": [],
      "name": "keeper",
      "outputs": [
        {
          "internalType": "address",
          "name": "",
          "type": "address"
        }
      ],
      "stateMutability": "view",
      "type": "function"
    },
    {
      "inputs": [],
      "name": "owner",
      "outputs": [
        {
          "internalType": "address",
          "name": "",
          "type": "address"
        }
      ],
      "stateMutability": "view",
      "type": "function"
    },
    {
      "inputs": [],
      "name": "pauseDeposit",
      "outputs": [],
      "stateMutability": "nonpayable",
      "type": "function"
    },
    {
      "inputs": [],
      "name": "paused",
      "outputs": [
        {
          "internalType": "bool",
          "name": "",
          "type": "bool"
        }
      ],
      "stateMutability": "view",
      "type": "function"
    },
    {
      "inputs": [],
      "name": "renounceOwnership",
      "outputs": [],
      "stateMutability": "nonpayable",
      "type": "function"
    },
    {
      "inputs": [
        {
          "internalType": "uint256",
          "name": "round",
          "type": "uint256"
        }
      ],
      "name": "roundDeposits",
      "outputs": [
        {
          "components": [
            {
              "internalType": "uint128",
              "name": "totalUsdc",
              "type": "uint128"
            },
            {
              "internalType": "uint128",
              "name": "totalShares",
              "type": "uint128"
            }
          ],
          "internalType": "struct IDnGmxBatchingManager.RoundDeposit",
          "name": "",
          "type": "tuple"
        }
      ],
      "stateMutability": "view",
      "type": "function"
    },
    {
      "inputs": [],
      "name": "roundGlpStaked",
      "outputs": [
        {
          "internalType": "uint256",
          "name": "",
          "type": "uint256"
        }
      ],
      "stateMutability": "view",
      "type": "function"
    },
    {
      "inputs": [],
      "name": "roundUsdcBalance",
      "outputs": [
        {
          "internalType": "uint256",
          "name": "",
          "type": "uint256"
        }
      ],
      "stateMutability": "view",
      "type": "function"
    },
    {
      "inputs": [
        {
          "internalType": "address",
          "name": "_keeper",
          "type": "address"
        }
      ],
      "name": "setKeeper",
      "outputs": [],
      "stateMutability": "nonpayable",
      "type": "function"
    },
    {
      "inputs": [
        {
          "internalType": "address",
          "name": "newOwner",
          "type": "address"
        }
      ],
      "name": "transferOwnership",
      "outputs": [],
      "stateMutability": "nonpayable",
      "type": "function"
    },
    {
      "inputs": [
        {
          "internalType": "address",
          "name": "account",
          "type": "address"
        }
      ],
      "name": "unclaimedShares",
      "outputs": [
        {
          "internalType": "uint256",
          "name": "shares",
          "type": "uint256"
        }
      ],
      "stateMutability": "view",
      "type": "function"
    },
    {
      "inputs": [],
      "name": "unpauseDeposit",
      "outputs": [],
      "stateMutability": "nonpayable",
      "type": "function"
    },
    {
      "inputs": [
        {
          "internalType": "address",
          "name": "account",
          "type": "address"
        }
      ],
      "name": "usdcBalance",
      "outputs": [
        {
          "internalType": "uint256",
          "name": "balance",
          "type": "uint256"
        }
      ],
      "stateMutability": "view",
      "type": "function"
    },
    {
      "inputs": [
        {
          "internalType": "address",
          "name": "account",
          "type": "address"
        }
      ],
      "name": "userDeposits",
      "outputs": [
        {
          "components": [
            {
              "internalType": "uint256",
              "name": "round",
              "type": "uint256"
            },
            {
              "internalType": "uint128",
              "name": "usdcBalance",
              "type": "uint128"
            },
            {
              "internalType": "uint128",
              "name": "unclaimedShares",
              "type": "uint128"
            }
          ],
          "internalType": "struct IDnGmxBatchingManager.UserDeposit",
          "name": "",
          "type": "tuple"
        }
      ],
      "stateMutability": "view",
      "type": "function"
    },
    {
      "inputs": [],
      "name": "vaultBatchingState",
      "outputs": [
        {
          "internalType": "uint256",
          "name": "currentRound",
          "type": "uint256"
        },
        {
          "internalType": "uint256",
          "name": "roundUsdcBalance",
          "type": "uint256"
        },
        {
          "internalType": "uint256",
          "name": "roundGlpStaked",
          "type": "uint256"
        }
      ],
      "stateMutability": "view",
      "type": "function"
    },
    {
      "inputs": [],
      "name": "vaultCount",
      "outputs": [
        {
          "internalType": "uint16",
          "name": "",
          "type": "uint16"
        }
      ],
      "stateMutability": "view",
      "type": "function"
    }
  ],
  "transactionHash": "0x7f7fc6e31404ac3a7db2d3d3ad77536c6ce1bff05949befc115cd0b46ba793eb",
  "args": [],
  "numDeployments": 1,
  "solcInputHash": "e0d26aef27973baeac03578e98c67ef9",
  "bytecode": "0x6080806040523461001657611ac7908161001c8239f35b600080fdfe60806040526004361015610013575b600080fd5b60003560e01c806301df331d1461021b5780630ba36dcd146102125780631068466714610209578063180282b3146102005780635157ced5146101f757806358415075146101ee5780635c7f3c71146101e55780635c975abb146101dc57806369026e88146101d3578063715018a6146101ca578063748747e6146101c15780638a19c8bc146101b85780638d100017146101af5780638da5cb5b146101a6578063958157881461019d57806399c6d2de14610194578063a7c6a1001461018b578063aa88fdc314610182578063aad3ec9614610179578063ab504ad514610170578063aced166114610167578063bf9571f11461015e578063ca0ede5014610155578063cc2a9a5b1461014c578063dae115f6146101435763f2fde38b1461013b57600080fd5b61000e611089565b5061000e61101d565b5061000e610ef1565b5061000e610ed1565b5061000e610e4a565b5061000e610e20565b5061000e610d23565b5061000e610b4e565b5061000e610b24565b5061000e610afe565b5061000e61099c565b5061000e61097c565b5061000e610952565b5061000e610924565b5061000e6108ee565b5061000e61088f565b5061000e61083c565b5061000e6107e9565b5061000e6107c5565b5061000e610705565b5061000e6106e6565b5061000e610647565b5061000e61054a565b5061000e610500565b5061000e610454565b5061000e610241565b6001600160a01b031690565b6001600160a01b0381160361000e57565b503461000e5760408060031936011261000e5760243560043561026382610230565b61026b611478565b8015610430576001600160a01b038281169283156104185761037d6102e5600080516020611a1b833981519152926102ac6102a760ff54610224565b610224565b6020895180926323b872dd60e01b8252816000816102cf8d3033600485016114e9565b03925af1801561040b575b6103dd575b50611555565b61032f60018201610329815460018060801b0394858216918154966101029788548110806103d4575b61038e575b5050508554905561032389611541565b90611581565b906115c1565b61035561034f61034661034188611541565b610448565b61010354611522565b61010355565b54926103656102a760ff54610224565b87519586526000602087015216939081906040820190565b0390a45160008152602090f35b0390f35b6103b56103c393926103c995966103a76103ba94611570565b549182169160801c9061164f565b611541565b9060801c611581565b8461159e565b600090388080610313565b5084151561030e565b6103fd9060203d8111610404575b6103f581836113e6565b810190611409565b50386102df565b503d6103eb565b61041361143c565b6102da565b845163b80480b160e01b815260226004820152602490fd5b825163b80480b160e01b815260216004820152602490fd5b6001600160801b031690565b503461000e57602036600319011261000e5761038a60043561047581610230565b60409060008280516104868161139a565b828152826020820152015260018060a01b0316600052610105602052806000209060018151926104b58461139a565b80548452015460018060801b038116602084015260801c81830152519182918291909160406060820193805183528160018060801b0391826020820151166020860152015116910152565b503461000e57602036600319011261000e5760043561051e81610230565b60018060a01b0316600052610105602052602060018060801b0360016040600020015416604051908152f35b503461000e57600036600319011261000e5760fd5480610583575b5061056e611732565b60655460ff1661057b575b005b6105796114bc565b6106137fabf360404ae6ccd945919fc14edb22686b6941aeee15d786c7047e4a0107eba5916105b2600060fd55565b6105f26020826105c66102a760fe54610224565b6105d46102a760fc54610224565b600060405180968195829463a9059cbb60e01b845260048401611421565b03925af1801561063a575b61061c575b506040519081529081906020820190565b0390a138610565565b6106339060203d8111610404576103f581836113e6565b5038610602565b61064261143c565b6105fd565b503461000e57600036600319011261000e5760fb546001600160a01b031633036106d45760655460ff8116156106985760ff1916606555600080516020611a3b8339815191526020604051338152a1005b60405162461bcd60e51b815260206004820152601460248201527314185d5cd8589b194e881b9bdd081c185d5cd95960621b6044820152606490fd5b6040516304e1fa9f60e01b8152600490fd5b503461000e57600036600319011261000e57602060fd54604051908152f35b503461000e57600036600319011261000e5761071f611478565b6101035480156107b05761075261074c610738836115e0565b836107476102a760ff54610224565b611908565b61010455565b610102546101045460408051938452602084019190915290917f48c3ff184c57818bf226589be0a871b387827c42b767756992efc70db2cd0edb9190a26107a261079e60655460ff1690565b1590565b6107a857005b610579611449565b604051600162541cc760e11b03198152600490fd5b503461000e57600036600319011261000e57602060ff606554166040519015158152f35b503461000e57600036600319011261000e5760fb546001600160a01b031633036106d457610815611478565b600160ff196065541617606555600080516020611a9b8339815191526020604051338152a1005b503461000e5760008060031936011261088c5761085761111b565b603380546001600160a01b031981169091556040519082906001600160a01b0316600080516020611a7b8339815191528284a3f35b80fd5b503461000e57602036600319011261000e57600080516020611a5b83398151915260206004356108be81610230565b6108c661111b565b60fb80546001600160a01b0319166001600160a01b03929092169182179055604051908152a1005b503461000e57600036600319011261000e57602061010254604051908152f35b6040919493926060820195825260208201520152565b503461000e57600036600319011261000e5761010254610103549061038a610104546040519384938461090e565b503461000e57600036600319011261000e576033546040516001600160a01b039091168152602090f35b503461000e57600036600319011261000e57602061010454604051908152f35b503461000e57606036600319011261000e576004356109ba81610230565b6024356109c5611478565b60fc546001600160a01b039081163303610aec578216908115610ad3578015610aba576040516323b872dd60e01b815261038a93610a2e9160208180610a10873033600485016114e9565b03816000895af18015610aad575b610a8f575b508260443591611908565b91610a4e610a49610a4161034186611541565b60fd54611522565b60fd55565b6000600080516020611a1b83398151915260405180610a7c8733978360209093929193604081019481520152565b0390a46040519081529081906020820190565b610aa69060203d8111610404576103f581836113e6565b5038610a23565b610ab561143c565b610a1e565b60405163b80480b160e01b815260316004820152602490fd5b60405163b80480b160e01b815260306004820152602490fd5b60405163edd7338f60e01b8152600490fd5b503461000e57600036600319011261000e57602061ffff60fc5460a01c16604051908152f35b503461000e57600036600319011261000e5760fc546040516001600160a01b039091168152602090f35b503461000e5760408060031936011261000e5760043590610b6e82610230565b6001600160a01b0382166024358115610d0b578015610cf357610b9033611555565b600181018054915461010254608084901c97936001600160801b039290831691811080610cea575b610cb0575b5050610bcb61034185611541565b90871610610c905782610c2492610bf9602093610bf360009a610bed86611541565b906118e4565b9061159e565b610c076102a760fc54610224565b9088885180968195829463a9059cbb60e01b845260048401611421565b03925af18015610c83575b610c65575b50825190815233907f5c88b328c5b2ad9ebdf6ff97006b8557bd45f26293da0252d9a34931c684007a90602090a351f35b610c7c9060203d8111610404576103f581836113e6565b5038610c34565b610c8b61143c565b610c2f565b84516307f885ff60e21b81526001600160801b0387166004820152602490fd5b6103b5610cd4939992610cc561032393611570565b54908b82169160801c9061164f565b81546001600160801b0319168255953880610bbd565b50811515610bb8565b825163b80480b160e01b815260116004820152602490fd5b825163b80480b160e01b815260106004820152602490fd5b503461000e57602036600319011261000e5761038a610d636040600435610d4981610230565b6001600160a01b031660009081526101056020522061188f565b610d736103416040830151610448565b90805161010254811080610e00575b610d99575b50506040519081529081906020820190565b6103416103b5610df99493610dc86103416020610dc0610dbb610df398611570565b6118bf565b930151610448565b610dea610dd86020840151610448565b92516001600160801b03918291610448565b1692169061164f565b90611522565b3880610d87565b5060208201516001600160801b0390610e1890610448565b161515610d82565b503461000e57600036600319011261000e5760fb546040516001600160a01b039091168152602090f35b503461000e57600036600319011261000e57610e6461111b565b60fe5460fc5460405163095ea7b360e01b81526001600160a01b03918216600482015260001960248201529160209183916044918391600091165af18015610ec4575b610ead57005b6105799060203d8111610404576103f581836113e6565b610ecc61143c565b610ea7565b503461000e57600036600319011261000e57602061010354604051908152f35b503461000e5760c036600319011261000e57600435610f0f81610230565b610f91602435610f1e81610230565b604435610f2a81610230565b606435610f3681610230565b60843591610f4383610230565b60a43593610f5085610230565b60005496610f7560ff8960081c16158099819a61100f575b8115610fef575b506111af565b87610f88600160ff196000541617600055565b610fd657611212565b610f9757005b610fa761ff001960005416600055565b604051600181527f7f26b83ff96e1f2b6a682f133852f6798a09c465da95921460cefb384740249890602090a1005b610fea61010061ff00196000541617600055565b611212565b303b15915081611001575b5038610f6f565b6001915060ff161438610ffa565b600160ff8216109150610f68565b503461000e57602036600319011261000e576000602060405161103f816113cb565b8281520152600435600052610106602052604080600020815190611062826113cb565b5460018060801b0390602082821693848152019060801c8152835192835251166020820152f35b503461000e57602036600319011261000e576004356110a781610230565b6110af61111b565b6001600160a01b038116156110c75761057990611173565b60405162461bcd60e51b815260206004820152602660248201527f4f776e61626c653a206e6577206f776e657220697320746865207a65726f206160448201526564647265737360d01b6064820152608490fd5b6033546001600160a01b0316330361112f57565b606460405162461bcd60e51b815260206004820152602060248201527f4f776e61626c653a2063616c6c6572206973206e6f7420746865206f776e65726044820152fd5b603380546001600160a01b039283166001600160a01b03198216811790925560405191921690600080516020611a7b83398151915290600090a3565b156111b657565b60405162461bcd60e51b815260206004820152602e60248201527f496e697469616c697a61626c653a20636f6e747261637420697320616c72656160448201526d191e481a5b9a5d1a585b1a5e995960921b6064820152608490fd5b936112d3600080516020611a5b83398151915296946112f5946113359761124960ff60005460081c166112448161133a565b61133a565b61125233611173565b61127f60ff60005460081c166112678161133a565b6112708161133a565b60ff196065541660655561133a565b60fe80546001600160a01b03199081166001600160a01b039384161790915560ff80548216978316979097179096556101018054871692821692909217909155610100805490951691811691909117909355565b60fc8054919092166001600160a01b03166001600160a01b0319909116179055565b60fb80546001600160a01b0319166001600160a01b03831617905561131b600161010255565b6040516001600160a01b0390911681529081906020820190565b0390a1565b1561134157565b60405162461bcd60e51b815260206004820152602b60248201527f496e697469616c697a61626c653a20636f6e7472616374206973206e6f74206960448201526a6e697469616c697a696e6760a81b6064820152608490fd5b606081019081106001600160401b038211176113b557604052565b634e487b7160e01b600052604160045260246000fd5b604081019081106001600160401b038211176113b557604052565b601f909101601f19168101906001600160401b038211908210176113b557604052565b9081602091031261000e5751801515810361000e5790565b6001600160a01b039091168152602081019190915260400190565b506040513d6000823e3d90fd5b611451611478565b600160ff196065541617606555600080516020611a9b8339815191526020604051338152a1565b60ff6065541661148457565b60405162461bcd60e51b815260206004820152601060248201526f14185d5cd8589b194e881c185d5cd95960821b6044820152606490fd5b60655460ff8116156106985760ff1916606555600080516020611a3b8339815191526020604051338152a1565b6001600160a01b03918216815291166020820152604081019190915260600190565b50634e487b7160e01b600052601160045260246000fd5b8119811161152e570190565b61153661150b565b0190565b1561000e57565b6001600160801b0381169190820361000e57565b6001600160a01b031660009081526101056020526040902090565b600052610106602052604060002090565b6001600160801b039182169190811690829003811161152e570190565b80546001600160801b031660809290921b6001600160801b031916919091179055565b80546001600160801b0319166001600160801b03909216919091179055565b66232bff5f46c0006000198183098183029182808310920391808303921461164457612710908282111561000e577fbc01a36e2eb1c432ca57a786c226809d495182a9930be0ded288ce703afb7e91940990828211900360fc1b910360041c170290565b505061271091500490565b909160001983830992808302928380861095039480860395146116c95790829161167a86841161153a565b0981806000031680920460028082600302188083028203028083028203028083028203028083028203028083028203028092029003029360018380600003040190848311900302920304170290565b505091506116d882151561153a565b0490565b9081602091031261000e575190565b604051906116f8826113cb565b565b81516116f8926001600160801b039160209190611719908416856115c1565b0151169061159e565b600190600019811461152e570190565b610104805480611740575050565b6116f8916000602061178861184e9461175d6102a760fc54610224565b604051636e553f6560e01b815260048101929092523060248301529093849283919082906044820190565b03925af1908115611882575b600091611854575b507fc69cec55f6364843f1bd00b1f28399f11345b53d1f2577e1048d34d216932c27610103916117cc8354611541565b936118036117d983611541565b6117f36117e46116eb565b6001600160801b039098168852565b6001600160801b03166020870152565b611819610102956118148754611570565b6116fa565b61182f855494549154926040519384938461090e565b0390a261183d600061010355565b611848600061010455565b54611722565b61010255565b611875915060203d811161187b575b61186d81836113e6565b8101906116dc565b3861179c565b503d611863565b61188a61143c565b611794565b9060405161189c8161139a565b825481526001909201546001600160801b038116602084015260801c6040830152565b906040516118cc816113cb565b91546001600160801b038116835260801c6020830152565b6001600160801b0391821691168181106118fc570390565b61190461150b565b0390565b90611941926119b292826119216102a761010054610224565b6040519063095ea7b360e01b825281806020998a98899460048401611421565b038160006001600160a01b0388165af18015611a0d575b6119f0575b50600061196f6102a761010154610224565b60405163364e231160e01b81526001600160a01b039094166004850152602484019290925260448301939093526000606483015290938492839182906084820190565b03925af19182156119e3575b6000926119ca57505090565b6119e09250803d1061187b5761186d81836113e6565b90565b6119eb61143c565b6119be565b611a0690853d8711610404576103f581836113e6565b503861195d565b611a1561143c565b61195856fe3b7ce5782971bc1c2a722cba69f6f8bccbe8dd1a68d213ea39f1b681726092d45db9ee0a495bf2e6ff9c91a7834c1ba4fdd244a5e8aa4e537bd38aeae4b073aa0425bcd291db1d48816f2a98edc7ecaf6dd5c64b973d9e4b3b6b750763dc6c2e8be0079c531659141344cd1fd0a4f28419497f9722a3daafe3b4186f6b6457e062e78cea01bee320cd4e420270b5ea74000d11b0c9f74754ebdbfc544b05a258a164736f6c634300080e000a",
  "devdoc": {
    "kind": "dev",
    "methods": {
      "claim(address,uint256)": {
        "params": {
          "amount": "amount of shares",
          "receiver": "address of receiver"
        }
      },
      "depositToken(address,uint256,uint256)": {
        "details": "this function should be only called by staking manager",
        "params": {
          "amount": "amount of token to be used",
          "minUSDG": "minimum output of swap in terms of USDG",
          "token": "address of input token (should be supported on gmx)"
        }
      },
      "grantAllowances()": {
        "details": "allowance is granted while vault is added via addVault, this is only failsafe if that allowance is exhausted"
      },
      "owner()": {
        "details": "Returns the address of the current owner."
      },
      "paused()": {
        "details": "Returns true if the contract is paused, and false otherwise."
      },
      "renounceOwnership()": {
        "details": "Leaves the contract without owner. It will not be possible to call `onlyOwner` functions anymore. Can only be called by the current owner. NOTE: Renouncing ownership will leave the contract without an owner, thereby removing any functionality that is only available to the owner."
      },
      "roundDeposits(uint256)": {
        "params": {
          "round": "address of user"
        }
      },
      "setKeeper(address)": {
        "params": {
          "_keeper": "address of keeper"
        }
      },
      "transferOwnership(address)": {
        "details": "Transfers ownership of the contract to a new account (`newOwner`). Can only be called by the current owner."
      },
      "unclaimedShares(address)": {
        "params": {
          "account": "address of user"
        }
      },
      "usdcBalance(address)": {
        "params": {
          "account": "address of user"
        }
      },
      "userDeposits(address)": {
        "params": {
          "account": "address of user"
        }
      }
    },
    "version": 1
  },
  "userdoc": {
    "kind": "user",
    "methods": {
      "claim(address,uint256)": {
        "notice": "claim the shares received from depositing batch"
      },
      "currentRound()": {
        "notice": "gets the current active round"
      },
      "depositToken(address,uint256,uint256)": {
        "notice": "convert the token into glp and obtain staked glp"
      },
      "executeBatchDeposit()": {
        "notice": "executes batch and deposits into appropriate vault with/without minting shares"
      },
      "executeBatchStake()": {
        "notice": "executes batch and deposits into appropriate vault with/without minting shares"
      },
      "grantAllowances()": {
        "notice": "grants the allowance to the vault to pull sGLP (via safeTransfer from in vault.deposit)"
      },
      "pauseDeposit()": {
        "notice": "pauses deposits (to prevent DOS due to GMX 15 min cooldown)"
      },
      "roundDeposits(uint256)": {
        "notice": "get the info for given vault and round"
      },
      "roundGlpStaked()": {
        "notice": "get the glp balance for current active round"
      },
      "roundUsdcBalance()": {
        "notice": "get the glp balance for current active round"
      },
      "setKeeper(address)": {
        "notice": "sets the keeper address (to pause & unpause deposits)"
      },
      "unclaimedShares(address)": {
        "notice": "get the unclaimed shares for a given vault and account address"
      },
      "unpauseDeposit()": {
        "notice": "unpauses the deposit function"
      },
      "usdcBalance(address)": {
        "notice": "get the glp balance for a given vault and account address"
      },
      "userDeposits(address)": {
        "notice": "get the vaultBatchingState of user deposits"
      }
    },
    "version": 1
  },
  "storageLayout": {
    "storage": [
      {
        "astId": 647,
        "contract": "contracts/vaults/DnGmxBatchingManager.sol:DnGmxBatchingManager",
        "label": "_initialized",
        "offset": 0,
        "slot": "0",
        "type": "t_uint8"
      },
      {
        "astId": 650,
        "contract": "contracts/vaults/DnGmxBatchingManager.sol:DnGmxBatchingManager",
        "label": "_initializing",
        "offset": 1,
        "slot": "0",
        "type": "t_bool"
      },
      {
        "astId": 1916,
        "contract": "contracts/vaults/DnGmxBatchingManager.sol:DnGmxBatchingManager",
        "label": "__gap",
        "offset": 0,
        "slot": "1",
        "type": "t_array(t_uint256)50_storage"
      },
      {
        "astId": 519,
        "contract": "contracts/vaults/DnGmxBatchingManager.sol:DnGmxBatchingManager",
        "label": "_owner",
        "offset": 0,
        "slot": "51",
        "type": "t_address"
      },
      {
        "astId": 639,
        "contract": "contracts/vaults/DnGmxBatchingManager.sol:DnGmxBatchingManager",
        "label": "__gap",
        "offset": 0,
        "slot": "52",
        "type": "t_array(t_uint256)49_storage"
      },
      {
        "astId": 812,
        "contract": "contracts/vaults/DnGmxBatchingManager.sol:DnGmxBatchingManager",
        "label": "_paused",
        "offset": 0,
        "slot": "101",
        "type": "t_bool"
      },
      {
        "astId": 917,
        "contract": "contracts/vaults/DnGmxBatchingManager.sol:DnGmxBatchingManager",
        "label": "__gap",
        "offset": 0,
        "slot": "102",
        "type": "t_array(t_uint256)49_storage"
      },
      {
        "astId": 15088,
        "contract": "contracts/vaults/DnGmxBatchingManager.sol:DnGmxBatchingManager",
        "label": "_gaps",
        "offset": 0,
        "slot": "151",
        "type": "t_array(t_uint256)100_storage"
      },
      {
        "astId": 15090,
        "contract": "contracts/vaults/DnGmxBatchingManager.sol:DnGmxBatchingManager",
        "label": "keeper",
        "offset": 0,
        "slot": "251",
        "type": "t_address"
      },
      {
        "astId": 15093,
        "contract": "contracts/vaults/DnGmxBatchingManager.sol:DnGmxBatchingManager",
        "label": "dnGmxJuniorVault",
        "offset": 0,
        "slot": "252",
        "type": "t_contract(IDnGmxJuniorVault)13184"
      },
      {
        "astId": 15095,
        "contract": "contracts/vaults/DnGmxBatchingManager.sol:DnGmxBatchingManager",
        "label": "vaultCount",
        "offset": 20,
        "slot": "252",
        "type": "t_uint16"
      },
      {
        "astId": 15097,
        "contract": "contracts/vaults/DnGmxBatchingManager.sol:DnGmxBatchingManager",
        "label": "dnGmxJuniorVaultGlpBalance",
        "offset": 0,
        "slot": "253",
        "type": "t_uint256"
      },
      {
        "astId": 15100,
        "contract": "contracts/vaults/DnGmxBatchingManager.sol:DnGmxBatchingManager",
        "label": "sGlp",
        "offset": 0,
        "slot": "254",
        "type": "t_contract(IERC20)1998"
      },
      {
        "astId": 15103,
        "contract": "contracts/vaults/DnGmxBatchingManager.sol:DnGmxBatchingManager",
        "label": "usdc",
        "offset": 0,
        "slot": "255",
        "type": "t_contract(IERC20)1998"
      },
      {
        "astId": 15106,
        "contract": "contracts/vaults/DnGmxBatchingManager.sol:DnGmxBatchingManager",
        "label": "glpManager",
        "offset": 0,
        "slot": "256",
        "type": "t_contract(IGlpManager)13798"
      },
      {
        "astId": 15109,
        "contract": "contracts/vaults/DnGmxBatchingManager.sol:DnGmxBatchingManager",
        "label": "rewardRouter",
        "offset": 0,
        "slot": "257",
        "type": "t_contract(IRewardRouterV2)13980"
      },
      {
        "astId": 15112,
        "contract": "contracts/vaults/DnGmxBatchingManager.sol:DnGmxBatchingManager",
        "label": "vaultBatchingState",
        "offset": 0,
        "slot": "258",
        "type": "t_struct(VaultBatchingState)15078_storage"
      },
      {
        "astId": 15116,
        "contract": "contracts/vaults/DnGmxBatchingManager.sol:DnGmxBatchingManager",
        "label": "_gaps2",
        "offset": 0,
        "slot": "263",
        "type": "t_array(t_uint256)100_storage"
      }
    ],
    "types": {
      "t_address": {
        "encoding": "inplace",
        "label": "address",
        "numberOfBytes": "20"
      },
      "t_array(t_uint256)100_storage": {
        "base": "t_uint256",
        "encoding": "inplace",
        "label": "uint256[100]",
        "numberOfBytes": "3200"
      },
      "t_array(t_uint256)49_storage": {
        "base": "t_uint256",
        "encoding": "inplace",
        "label": "uint256[49]",
        "numberOfBytes": "1568"
      },
      "t_array(t_uint256)50_storage": {
        "base": "t_uint256",
        "encoding": "inplace",
        "label": "uint256[50]",
        "numberOfBytes": "1600"
      },
      "t_bool": {
        "encoding": "inplace",
        "label": "bool",
        "numberOfBytes": "1"
      },
      "t_contract(IDnGmxJuniorVault)13184": {
        "encoding": "inplace",
        "label": "contract IDnGmxJuniorVault",
        "numberOfBytes": "20"
      },
      "t_contract(IERC20)1998": {
        "encoding": "inplace",
        "label": "contract IERC20",
        "numberOfBytes": "20"
      },
      "t_contract(IGlpManager)13798": {
        "encoding": "inplace",
        "label": "contract IGlpManager",
        "numberOfBytes": "20"
      },
      "t_contract(IRewardRouterV2)13980": {
        "encoding": "inplace",
        "label": "contract IRewardRouterV2",
        "numberOfBytes": "20"
      },
      "t_mapping(t_address,t_struct(UserDeposit)13077_storage)": {
        "encoding": "mapping",
        "key": "t_address",
        "label": "mapping(address => struct IDnGmxBatchingManager.UserDeposit)",
        "numberOfBytes": "32",
        "value": "t_struct(UserDeposit)13077_storage"
      },
      "t_mapping(t_uint256,t_struct(RoundDeposit)13082_storage)": {
        "encoding": "mapping",
        "key": "t_uint256",
        "label": "mapping(uint256 => struct IDnGmxBatchingManager.RoundDeposit)",
        "numberOfBytes": "32",
        "value": "t_struct(RoundDeposit)13082_storage"
      },
      "t_struct(RoundDeposit)13082_storage": {
        "encoding": "inplace",
        "label": "struct IDnGmxBatchingManager.RoundDeposit",
        "members": [
          {
            "astId": 13079,
            "contract": "contracts/vaults/DnGmxBatchingManager.sol:DnGmxBatchingManager",
            "label": "totalUsdc",
            "offset": 0,
            "slot": "0",
            "type": "t_uint128"
          },
          {
            "astId": 13081,
            "contract": "contracts/vaults/DnGmxBatchingManager.sol:DnGmxBatchingManager",
            "label": "totalShares",
            "offset": 16,
            "slot": "0",
            "type": "t_uint128"
          }
        ],
        "numberOfBytes": "32"
      },
      "t_struct(UserDeposit)13077_storage": {
        "encoding": "inplace",
        "label": "struct IDnGmxBatchingManager.UserDeposit",
        "members": [
          {
            "astId": 13072,
            "contract": "contracts/vaults/DnGmxBatchingManager.sol:DnGmxBatchingManager",
            "label": "round",
            "offset": 0,
            "slot": "0",
            "type": "t_uint256"
          },
          {
            "astId": 13074,
            "contract": "contracts/vaults/DnGmxBatchingManager.sol:DnGmxBatchingManager",
            "label": "usdcBalance",
            "offset": 0,
            "slot": "1",
            "type": "t_uint128"
          },
          {
            "astId": 13076,
            "contract": "contracts/vaults/DnGmxBatchingManager.sol:DnGmxBatchingManager",
            "label": "unclaimedShares",
            "offset": 16,
            "slot": "1",
            "type": "t_uint128"
          }
        ],
        "numberOfBytes": "64"
      },
      "t_struct(VaultBatchingState)15078_storage": {
        "encoding": "inplace",
        "label": "struct DnGmxBatchingManager.VaultBatchingState",
        "members": [
          {
            "astId": 15063,
            "contract": "contracts/vaults/DnGmxBatchingManager.sol:DnGmxBatchingManager",
            "label": "currentRound",
            "offset": 0,
            "slot": "0",
            "type": "t_uint256"
          },
          {
            "astId": 15065,
            "contract": "contracts/vaults/DnGmxBatchingManager.sol:DnGmxBatchingManager",
            "label": "roundUsdcBalance",
            "offset": 0,
            "slot": "1",
            "type": "t_uint256"
          },
          {
            "astId": 15067,
            "contract": "contracts/vaults/DnGmxBatchingManager.sol:DnGmxBatchingManager",
            "label": "roundGlpStaked",
            "offset": 0,
            "slot": "2",
            "type": "t_uint256"
          },
          {
            "astId": 15072,
            "contract": "contracts/vaults/DnGmxBatchingManager.sol:DnGmxBatchingManager",
            "label": "userDeposits",
            "offset": 0,
            "slot": "3",
            "type": "t_mapping(t_address,t_struct(UserDeposit)13077_storage)"
          },
          {
            "astId": 15077,
            "contract": "contracts/vaults/DnGmxBatchingManager.sol:DnGmxBatchingManager",
            "label": "roundDeposits",
            "offset": 0,
            "slot": "4",
            "type": "t_mapping(t_uint256,t_struct(RoundDeposit)13082_storage)"
          }
        ],
        "numberOfBytes": "160"
      },
      "t_uint128": {
        "encoding": "inplace",
        "label": "uint128",
        "numberOfBytes": "16"
      },
      "t_uint16": {
        "encoding": "inplace",
        "label": "uint16",
        "numberOfBytes": "2"
      },
      "t_uint256": {
        "encoding": "inplace",
        "label": "uint256",
        "numberOfBytes": "32"
      },
      "t_uint8": {
        "encoding": "inplace",
        "label": "uint8",
        "numberOfBytes": "1"
      }
    }
  }
}