{
  "address": "0xdb8C1c77027a52A523E425b7FB6F532cc04d05a7",
  "abi": [
    {
      "inputs": [],
      "name": "CallerNotKeeper",
      "type": "error"
    },
    {
      "inputs": [],
      "name": "CallerNotVault",
      "type": "error"
    },
    {
      "inputs": [],
      "name": "DepositCapBreached",
      "type": "error"
    },
    {
      "inputs": [
        {
          "internalType": "uint256",
          "name": "balance",
          "type": "uint256"
        }
      ],
      "name": "InsufficientShares",
      "type": "error"
    },
    {
      "inputs": [
        {
          "internalType": "uint256",
          "name": "errorCode",
          "type": "uint256"
        }
      ],
      "name": "InvalidInput",
      "type": "error"
    },
    {
      "inputs": [],
      "name": "NoUsdcBalance",
      "type": "error"
    },
    {
      "anonymous": false,
      "inputs": [
        {
          "indexed": true,
          "internalType": "uint256",
          "name": "round",
          "type": "uint256"
        },
        {
          "indexed": false,
          "internalType": "uint256",
          "name": "userUsdcAmount",
          "type": "uint256"
        },
        {
          "indexed": false,
          "internalType": "uint256",
          "name": "userGlpAmount",
          "type": "uint256"
        },
        {
          "indexed": false,
          "internalType": "uint256",
          "name": "userShareAmount",
          "type": "uint256"
        }
      ],
      "name": "BatchDeposit",
      "type": "event"
    },
    {
      "anonymous": false,
      "inputs": [
        {
          "indexed": true,
          "internalType": "uint256",
          "name": "round",
          "type": "uint256"
        },
        {
          "indexed": false,
          "internalType": "uint256",
          "name": "userUsdcAmount",
          "type": "uint256"
        },
        {
          "indexed": false,
          "internalType": "uint256",
          "name": "userGlpAmount",
          "type": "uint256"
        }
      ],
      "name": "BatchStake",
      "type": "event"
    },
    {
      "anonymous": false,
      "inputs": [
        {
          "indexed": true,
          "internalType": "address",
          "name": "claimer",
          "type": "address"
        },
        {
          "indexed": true,
          "internalType": "address",
          "name": "receiver",
          "type": "address"
        },
        {
          "indexed": false,
          "internalType": "uint256",
          "name": "shares",
          "type": "uint256"
        },
        {
          "indexed": false,
          "internalType": "uint256",
          "name": "assetsReceived",
          "type": "uint256"
        }
      ],
      "name": "ClaimedAndRedeemed",
      "type": "event"
    },
    {
      "anonymous": false,
      "inputs": [
        {
          "indexed": false,
          "internalType": "uint256",
          "name": "newDepositCap",
          "type": "uint256"
        }
      ],
      "name": "DepositCapUpdated",
      "type": "event"
    },
    {
      "anonymous": false,
      "inputs": [
        {
          "indexed": true,
          "internalType": "uint256",
          "name": "round",
          "type": "uint256"
        },
        {
          "indexed": true,
          "internalType": "address",
          "name": "token",
          "type": "address"
        },
        {
          "indexed": true,
          "internalType": "address",
          "name": "receiver",
          "type": "address"
        },
        {
          "indexed": false,
          "internalType": "uint256",
          "name": "amount",
          "type": "uint256"
        },
        {
          "indexed": false,
          "internalType": "uint256",
          "name": "glpStaked",
          "type": "uint256"
        }
      ],
      "name": "DepositToken",
      "type": "event"
    },
    {
      "anonymous": false,
      "inputs": [
        {
          "indexed": false,
          "internalType": "uint8",
          "name": "version",
          "type": "uint8"
        }
      ],
      "name": "Initialized",
      "type": "event"
    },
    {
      "anonymous": false,
      "inputs": [
        {
          "indexed": false,
          "internalType": "address",
          "name": "newKeeper",
          "type": "address"
        }
      ],
      "name": "KeeperUpdated",
      "type": "event"
    },
    {
      "anonymous": false,
      "inputs": [
        {
          "indexed": true,
          "internalType": "address",
          "name": "previousOwner",
          "type": "address"
        },
        {
          "indexed": true,
          "internalType": "address",
          "name": "newOwner",
          "type": "address"
        }
      ],
      "name": "OwnershipTransferred",
      "type": "event"
    },
    {
      "anonymous": false,
      "inputs": [
        {
          "indexed": true,
          "internalType": "uint256",
          "name": "round",
          "type": "uint256"
        },
        {
          "indexed": false,
          "internalType": "uint256",
          "name": "partialGlpAmount",
          "type": "uint256"
        },
        {
          "indexed": false,
          "internalType": "uint256",
          "name": "partialShareAmount",
          "type": "uint256"
        }
      ],
      "name": "PartialBatchDeposit",
      "type": "event"
    },
    {
      "anonymous": false,
      "inputs": [
        {
          "indexed": false,
          "internalType": "address",
          "name": "account",
          "type": "address"
        }
      ],
      "name": "Paused",
      "type": "event"
    },
    {
      "anonymous": false,
      "inputs": [
        {
          "indexed": true,
          "internalType": "address",
          "name": "from",
          "type": "address"
        },
        {
          "indexed": true,
          "internalType": "address",
          "name": "receiver",
          "type": "address"
        },
        {
          "indexed": false,
          "internalType": "uint256",
          "name": "claimAmount",
          "type": "uint256"
        }
      ],
      "name": "SharesClaimed",
      "type": "event"
    },
    {
      "anonymous": false,
      "inputs": [
        {
          "indexed": false,
          "internalType": "uint256",
          "name": "newSlippageThresholdGmx",
          "type": "uint256"
        },
        {
          "indexed": false,
          "internalType": "uint256",
          "name": "newGlpDepositPendingThreshold",
          "type": "uint256"
        }
      ],
      "name": "ThresholdsUpdated",
      "type": "event"
    },
    {
      "anonymous": false,
      "inputs": [
        {
          "indexed": false,
          "internalType": "address",
          "name": "account",
          "type": "address"
        }
      ],
      "name": "Unpaused",
      "type": "event"
    },
    {
      "anonymous": false,
      "inputs": [
        {
          "indexed": false,
          "internalType": "uint256",
          "name": "vaultGlpAmount",
          "type": "uint256"
        }
      ],
      "name": "VaultDeposit",
      "type": "event"
    },
    {
      "inputs": [
        {
          "internalType": "address",
          "name": "receiver",
          "type": "address"
        },
        {
          "internalType": "uint256",
          "name": "amount",
          "type": "uint256"
        }
      ],
      "name": "claim",
      "outputs": [],
      "stateMutability": "nonpayable",
      "type": "function"
    },
    {
      "inputs": [
        {
          "internalType": "address",
          "name": "receiver",
          "type": "address"
        }
      ],
      "name": "claimAndRedeem",
      "outputs": [
        {
          "internalType": "uint256",
          "name": "glpReceived",
          "type": "uint256"
        }
      ],
      "stateMutability": "nonpayable",
      "type": "function"
    },
    {
      "inputs": [],
      "name": "currentRound",
      "outputs": [
        {
          "internalType": "uint256",
          "name": "",
          "type": "uint256"
        }
      ],
      "stateMutability": "view",
      "type": "function"
    },
    {
      "inputs": [],
      "name": "depositCap",
      "outputs": [
        {
          "internalType": "uint256",
          "name": "",
          "type": "uint256"
        }
      ],
      "stateMutability": "view",
      "type": "function"
    },
    {
      "inputs": [
        {
          "internalType": "address",
          "name": "token",
          "type": "address"
        },
        {
          "internalType": "uint256",
          "name": "amount",
          "type": "uint256"
        },
        {
          "internalType": "uint256",
          "name": "minUSDG",
          "type": "uint256"
        }
      ],
      "name": "depositToken",
      "outputs": [
        {
          "internalType": "uint256",
          "name": "glpStaked",
          "type": "uint256"
        }
      ],
      "stateMutability": "nonpayable",
      "type": "function"
    },
    {
      "inputs": [
        {
          "internalType": "uint256",
          "name": "amount",
          "type": "uint256"
        },
        {
          "internalType": "address",
          "name": "receiver",
          "type": "address"
        }
      ],
      "name": "depositUsdc",
      "outputs": [],
      "stateMutability": "nonpayable",
      "type": "function"
    },
    {
      "inputs": [],
      "name": "dnGmxJuniorVault",
      "outputs": [
        {
          "internalType": "contract IDnGmxJuniorVault",
          "name": "",
          "type": "address"
        }
      ],
      "stateMutability": "view",
      "type": "function"
    },
    {
      "inputs": [],
      "name": "dnGmxJuniorVaultGlpBalance",
      "outputs": [
        {
          "internalType": "uint256",
          "name": "",
          "type": "uint256"
        }
      ],
      "stateMutability": "view",
      "type": "function"
    },
    {
      "inputs": [
        {
          "internalType": "uint256",
          "name": "depositAmount",
          "type": "uint256"
        }
      ],
      "name": "executeBatchDeposit",
      "outputs": [],
      "stateMutability": "nonpayable",
      "type": "function"
    },
    {
      "inputs": [],
      "name": "executeBatchStake",
      "outputs": [],
      "stateMutability": "nonpayable",
      "type": "function"
    },
    {
      "inputs": [],
      "name": "glpDepositPendingThreshold",
      "outputs": [
        {
          "internalType": "uint256",
          "name": "",
          "type": "uint256"
        }
      ],
      "stateMutability": "view",
      "type": "function"
    },
    {
      "inputs": [],
      "name": "grantAllowances",
      "outputs": [],
      "stateMutability": "nonpayable",
      "type": "function"
    },
    {
      "inputs": [
        {
          "internalType": "contract IERC20",
          "name": "_sGlp",
          "type": "address"
        },
        {
          "internalType": "contract IERC20",
          "name": "_usdc",
          "type": "address"
        },
        {
          "internalType": "contract IRewardRouterV2",
          "name": "_rewardRouter",
          "type": "address"
        },
        {
          "internalType": "contract IGlpManager",
          "name": "_glpManager",
          "type": "address"
        },
        {
          "internalType": "address",
          "name": "_dnGmxJuniorVault",
          "type": "address"
        },
        {
          "internalType": "address",
          "name": "_keeper",
          "type": "address"
        }
      ],
      "name": "initialize",
      "outputs": [],
      "stateMutability": "nonpayable",
      "type": "function"
    },
    {
      "inputs": [],
      "name": "keeper",
      "outputs": [
        {
          "internalType": "address",
          "name": "",
          "type": "address"
        }
      ],
      "stateMutability": "view",
      "type": "function"
    },
    {
      "inputs": [],
      "name": "owner",
      "outputs": [
        {
          "internalType": "address",
          "name": "",
          "type": "address"
        }
      ],
      "stateMutability": "view",
      "type": "function"
    },
    {
      "inputs": [],
      "name": "pauseDeposit",
      "outputs": [],
      "stateMutability": "nonpayable",
      "type": "function"
    },
    {
      "inputs": [],
      "name": "paused",
      "outputs": [
        {
          "internalType": "bool",
          "name": "",
          "type": "bool"
        }
      ],
      "stateMutability": "view",
      "type": "function"
    },
    {
      "inputs": [],
      "name": "renounceOwnership",
      "outputs": [],
      "stateMutability": "nonpayable",
      "type": "function"
    },
    {
      "inputs": [
        {
          "internalType": "uint256",
          "name": "round",
          "type": "uint256"
        }
      ],
      "name": "roundDeposits",
      "outputs": [
        {
          "components": [
            {
              "internalType": "uint128",
              "name": "totalUsdc",
              "type": "uint128"
            },
            {
              "internalType": "uint128",
              "name": "totalShares",
              "type": "uint128"
            }
          ],
          "internalType": "struct IDnGmxBatchingManager.RoundDeposit",
          "name": "",
          "type": "tuple"
        }
      ],
      "stateMutability": "view",
      "type": "function"
    },
    {
      "inputs": [],
      "name": "roundGlpDepositPending",
      "outputs": [
        {
          "internalType": "uint256",
          "name": "",
          "type": "uint256"
        }
      ],
      "stateMutability": "view",
      "type": "function"
    },
    {
      "inputs": [],
      "name": "roundGlpStaked",
      "outputs": [
        {
          "internalType": "uint256",
          "name": "",
          "type": "uint256"
        }
      ],
      "stateMutability": "view",
      "type": "function"
    },
    {
      "inputs": [],
      "name": "roundSharesMinted",
      "outputs": [
        {
          "internalType": "uint256",
          "name": "",
          "type": "uint256"
        }
      ],
      "stateMutability": "view",
      "type": "function"
    },
    {
      "inputs": [],
      "name": "roundUsdcBalance",
      "outputs": [
        {
          "internalType": "uint256",
          "name": "",
          "type": "uint256"
        }
      ],
      "stateMutability": "view",
      "type": "function"
    },
    {
      "inputs": [
        {
          "internalType": "contract IBatchingManagerBypass",
          "name": "_bypass",
          "type": "address"
        }
      ],
      "name": "setBypass",
      "outputs": [],
      "stateMutability": "nonpayable",
      "type": "function"
    },
    {
      "inputs": [
        {
          "internalType": "uint256",
          "name": "_depositCap",
          "type": "uint256"
        }
      ],
      "name": "setDepositCap",
      "outputs": [],
      "stateMutability": "nonpayable",
      "type": "function"
    },
    {
      "inputs": [
        {
          "internalType": "address",
          "name": "_keeper",
          "type": "address"
        }
      ],
      "name": "setKeeper",
      "outputs": [],
      "stateMutability": "nonpayable",
      "type": "function"
    },
    {
      "inputs": [
        {
          "internalType": "uint256",
          "name": "_slippageThresholdGmxBps",
          "type": "uint256"
        },
        {
          "internalType": "uint256",
          "name": "_glpDepositPendingThreshold",
          "type": "uint256"
        }
      ],
      "name": "setThresholds",
      "outputs": [],
      "stateMutability": "nonpayable",
      "type": "function"
    },
    {
      "inputs": [],
      "name": "slippageThresholdGmxBps",
      "outputs": [
        {
          "internalType": "uint256",
          "name": "",
          "type": "uint256"
        }
      ],
      "stateMutability": "view",
      "type": "function"
    },
    {
      "inputs": [
        {
          "internalType": "address",
          "name": "newOwner",
          "type": "address"
        }
      ],
      "name": "transferOwnership",
      "outputs": [],
      "stateMutability": "nonpayable",
      "type": "function"
    },
    {
      "inputs": [
        {
          "internalType": "address",
          "name": "account",
          "type": "address"
        }
      ],
      "name": "unclaimedShares",
      "outputs": [
        {
          "internalType": "uint256",
          "name": "shares",
          "type": "uint256"
        }
      ],
      "stateMutability": "view",
      "type": "function"
    },
    {
      "inputs": [],
      "name": "unpauseDeposit",
      "outputs": [],
      "stateMutability": "nonpayable",
      "type": "function"
    },
    {
      "inputs": [
        {
          "internalType": "address",
          "name": "account",
          "type": "address"
        }
      ],
      "name": "usdcBalance",
      "outputs": [
        {
          "internalType": "uint256",
          "name": "balance",
          "type": "uint256"
        }
      ],
      "stateMutability": "view",
      "type": "function"
    },
    {
      "inputs": [
        {
          "internalType": "address",
          "name": "account",
          "type": "address"
        }
      ],
      "name": "userDeposits",
      "outputs": [
        {
          "components": [
            {
              "internalType": "uint256",
              "name": "round",
              "type": "uint256"
            },
            {
              "internalType": "uint128",
              "name": "usdcBalance",
              "type": "uint128"
            },
            {
              "internalType": "uint128",
              "name": "unclaimedShares",
              "type": "uint128"
            }
          ],
          "internalType": "struct IDnGmxBatchingManager.UserDeposit",
          "name": "",
          "type": "tuple"
        }
      ],
      "stateMutability": "view",
      "type": "function"
    },
    {
      "inputs": [],
      "name": "vaultBatchingState",
      "outputs": [
        {
          "internalType": "uint256",
          "name": "currentRound",
          "type": "uint256"
        },
        {
          "internalType": "uint256",
          "name": "roundGlpDepositPending",
          "type": "uint256"
        },
        {
          "internalType": "uint256",
          "name": "roundSharesMinted",
          "type": "uint256"
        },
        {
          "internalType": "uint256",
          "name": "roundGlpStaked",
          "type": "uint256"
        },
        {
          "internalType": "uint256",
          "name": "roundUsdcBalance",
          "type": "uint256"
        }
      ],
      "stateMutability": "view",
      "type": "function"
    }
  ],
  "transactionHash": "0xbe7e508422deb7d26156006288f06f3c8de09df1e6be4c85ae25037e47f5922f",
  "args": [],
  "numDeployments": 1,
  "solcInputHash": "c967b4bb9cfbdf6c4c19cb2b1425a2f5",
  "bytecode": "0x608060405234801561001057600080fd5b50612033806100206000396000f3fe608060405234801561001057600080fd5b50600436106102065760003560e01c806395693f261161011a578063bf9571f1116100ad578063dae115f61161007c578063dae115f6146104b3578063dbd5edc714610535578063e3064a771461053e578063e966733614610551578063f2fde38b1461056457600080fd5b8063bf9571f11461047d578063c3e6ebc914610485578063ca0ede5014610498578063cc2a9a5b146104a057600080fd5b8063aad3ec96116100e9578063aad3ec961461043c578063ab504ad51461044f578063aced166114610462578063ae4127861461047557600080fd5b806395693f26146103fb578063958157881461040e57806399c6d2de14610416578063aa88fdc31461042957600080fd5b80635c7f3c711161019d578063748747e61161016c578063748747e61461036657806386651203146103795780638a19c8bc1461038c5780638d100017146103945780638da5cb5b146103d657600080fd5b80635c7f3c71146103385780635c975abb1461034057806369026e8814610356578063715018a61461035e57600080fd5b80631a80efd1116101d95780631a80efd1146103165780632eaa4c681461031f5780635157ced514610327578063584150751461032f57600080fd5b80630124b05a1461020b57806301df331d146102275780630ba36dcd1461023c57806310684667146102e1575b600080fd5b61021460995481565b6040519081526020015b60405180910390f35b61023a610235366004611d46565b610577565b005b6102ae61024a366004611d76565b6040805160608082018352600080835260208084018290529284018190526001600160a01b0394909416845260a88252928290208251938401835280548452600101546001600160801b0380821692850192909252600160801b9004169082015290565b60408051825181526020808401516001600160801b0390811691830191909152928201519092169082015260600161021e565b6102146102ef366004611d76565b6001600160a01b0316600090815260a860205260409020600101546001600160801b031690565b610214609c5481565b60a454610214565b61023a610814565b610214609a5481565b61023a610849565b60655460ff16604051901515815260200161021e565b61023a6108f4565b61023a61091f565b61023a610374366004611d76565b610931565b61023a610387366004611d93565b61098e565b60a354610214565b60a35460a45460a55460a65460a7546103ae949392919085565b604080519586526020860194909452928401919091526060830152608082015260a00161021e565b6033546001600160a01b03165b6040516001600160a01b03909116815260200161021e565b610214610409366004611d76565b6109cb565b60a654610214565b610214610424366004611dac565b610b29565b6098546103e3906001600160a01b031681565b61023a61044a366004611de1565b610ca6565b61021461045d366004611d76565b610cb5565b6097546103e3906001600160a01b031681565b60a554610214565b61023a610d97565b61023a610493366004611d93565b610e1c565b60a754610214565b61023a6104ae366004611e0d565b610f33565b61050e6104c1366004611d93565b604080518082019091526000808252602082015250600090815260a960209081526040918290208251808401909352546001600160801b038082168452600160801b909104169082015290565b6040805182516001600160801b03908116825260209384015116928101929092520161021e565b610214609b5481565b61023a61054c366004611e8f565b611060565b61023a61055f366004611d76565b6110af565b61023a610572366004611d76565b6110d9565b61057f61114f565b816105a55760405163b80480b160e01b8152602160048201526024015b60405180910390fd5b6001600160a01b0381166105cf5760405163b80480b160e01b81526022600482015260240161059c565b609b5460a7546105e0908490611ec7565b11156105ff576040516321af65c160e11b815260040160405180910390fd5b609e546040516323b872dd60e01b8152336004820152306024820152604481018490526001600160a01b03909116906323b872dd906064016020604051808303816000875af1158015610656573d6000803e3d6000fd5b505050506040513d601f19601f8201168201806040525081019061067a9190611edf565b506001600160a01b038116600090815260a8602052604090206001810154815460a3546001600160801b0390921691811080156106c057506000826001600160801b0316115b1561075157600081815260a96020526040902080546001850154610703916106fe916001600160801b0390811691600160801b810482169116611195565b611249565b600185018054601090610727908490600160801b90046001600160801b0316611f01565b92506101000a8154816001600160801b0302191690836001600160801b0316021790555060009250505b60a354835561075f85611249565b6107699083611f01565b6001840180546fffffffffffffffffffffffffffffffff19166001600160801b039290921691909117905561079d85611249565b6001600160801b031660a360040160008282546107ba9190611ec7565b9091555050609e5460a35460408051888152600060208201526001600160a01b03888116941692917f3b7ce5782971bc1c2a722cba69f6f8bccbe8dd1a68d213ea39f1b681726092d4910160405180910390a45050505050565b6097546001600160a01b0316331461083f576040516304e1fa9f60e01b815260040160405180910390fd5b610847611264565b565b61085161114f565b6097546001600160a01b0316331461087c576040516304e1fa9f60e01b815260040160405180910390fd5b609860009054906101000a90046001600160a01b03166001600160a01b031663138cc18f6040518163ffffffff1660e01b8152600401600060405180830381600087803b1580156108cc57600080fd5b505af11580156108e0573d6000803e3d6000fd5b505050506108ec6112b6565b610847611424565b6097546001600160a01b031633146108ec576040516304e1fa9f60e01b815260040160405180910390fd5b610927611461565b61084760006114bb565b610939611461565b609780546001600160a01b0319166001600160a01b0383169081179091556040519081527f0425bcd291db1d48816f2a98edc7ecaf6dd5c64b973d9e4b3b6b750763dc6c2e906020015b60405180910390a150565b610996611461565b609b8190556040518181527f333b26cca69716ad4680ddb07663f5bfb4f06045671f336af9a83690a3ae00f990602001610983565b60006109e033336109db33610cb5565b61150d565b6098546040516370a0823160e01b81523360048201526000916001600160a01b0316906370a0823190602401602060405180830381865afa158015610a29573d6000803e3d6000fd5b505050506040513d601f19601f82011682018060405250810190610a4d9190611f2c565b905080610a5d5750600092915050565b609854604051635d043b2960e11b8152600481018390526001600160a01b0385811660248301523360448301529091169063ba087652906064016020604051808303816000875af1158015610ab6573d6000803e3d6000fd5b505050506040513d601f19601f82011682018060405250810190610ada9190611f2c565b60408051838152602081018390529193506001600160a01b0385169133917f95534f7b5fe41df8a8d92f85b3ba5483590a5f2eff1ec5fb1e712e90846056c5910160405180910390a350919050565b6000610b3361114f565b6098546001600160a01b03163314610b5e5760405163edd7338f60e01b815260040160405180910390fd5b6001600160a01b038416610b885760405163b80480b160e01b81526030600482015260240161059c565b82610ba95760405163b80480b160e01b81526031600482015260240161059c565b6040516323b872dd60e01b8152336004820152306024820152604481018490526001600160a01b038516906323b872dd906064016020604051808303816000875af1158015610bfc573d6000803e3d6000fd5b505050506040513d601f19601f82011682018060405250810190610c209190611edf565b50610c2c84848461174f565b9050610c3781611249565b6001600160801b0316609a6000828254610c519190611ec7565b9091555050604080518481526020810183905233916001600160a01b038716916000917f3b7ce5782971bc1c2a722cba69f6f8bccbe8dd1a68d213ea39f1b681726092d4910160405180910390a49392505050565b610cb133838361150d565b5050565b6001600160a01b038116600090815260a86020908152604091829020825160608101845281548082526001909201546001600160801b0380821694830194909452600160801b900490921692820183905260a354118015610d235750600081602001516001600160801b0316115b15610d91578051600090815260a960209081526040918290208251808401909352546001600160801b03808216808552600160801b909204811684840181905292850151610d7a936106fe93919092169190611195565b610d8d906001600160801b031684611ec7565b9250505b50919050565b610d9f611461565b609d5460985460405163095ea7b360e01b81526001600160a01b039182166004820152600019602482015291169063095ea7b3906044016020604051808303816000875af1158015610df5573d6000803e3d6000fd5b505050506040513d601f19601f82011682018060405250810190610e199190611edf565b50565b6097546001600160a01b03163314610e47576040516304e1fa9f60e01b815260040160405180910390fd5b60655460ff1615610e5a57610e5a611264565b609a5415610f1a57609a80546000909155609d5460985460405163a9059cbb60e01b81526001600160a01b0391821660048201526024810184905291169063a9059cbb906044016020604051808303816000875af1158015610ec0573d6000803e3d6000fd5b505050506040513d601f19601f82011682018060405250810190610ee49190611edf565b506040518181527fabf360404ae6ccd945919fc14edb22686b6941aeee15d786c7047e4a0107eba59060200160405180910390a1505b610f2381611856565b60a45415610e1957610e19611424565b600054610100900460ff1615808015610f535750600054600160ff909116105b80610f6d5750303b158015610f6d575060005460ff166001145b610fd05760405162461bcd60e51b815260206004820152602e60248201527f496e697469616c697a61626c653a20636f6e747261637420697320616c72656160448201526d191e481a5b9a5d1a585b1a5e995960921b606482015260840161059c565b6000805460ff191660011790558015610ff3576000805461ff0019166101001790555b610ffb611ad2565b611003611b01565b611011878787878787611b30565b8015611057576000805461ff0019169055604051600181527f7f26b83ff96e1f2b6a682f133852f6798a09c465da95921460cefb38474024989060200160405180910390a15b50505050505050565b611068611461565b6099829055609c81905560408051838152602081018390527fd081f5afbf5e2859f2be3d6c573e1cdd6c8fb93b18ec6145427882fe51507b6a910160405180910390a15050565b6110b7611461565b60a280546001600160a01b0319166001600160a01b0392909216919091179055565b6110e1611461565b6001600160a01b0381166111465760405162461bcd60e51b815260206004820152602660248201527f4f776e61626c653a206e6577206f776e657220697320746865207a65726f206160448201526564647265737360d01b606482015260840161059c565b610e19816114bb565b60655460ff16156108475760405162461bcd60e51b815260206004820152601060248201526f14185d5cd8589b194e881c185d5cd95960821b604482015260640161059c565b6000808060001985870985870292508281108382030391505080600014156111cf57600084116111c457600080fd5b508290049050611242565b8084116111db57600080fd5b6000848688096000868103871696879004966002600389028118808a02820302808a02820302808a02820302808a02820302808a02820302808a02909103029181900381900460010186841190950394909402919094039290920491909117919091029150505b9392505050565b806001600160801b038116811461125f57600080fd5b919050565b61126c611c7c565b6065805460ff191690557f5db9ee0a495bf2e6ff9c91a7834c1ba4fdd244a5e8aa4e537bd38aeae4b073aa335b6040516001600160a01b03909116815260200160405180910390a1565b60a754806112f0576040517fff57c67200000000000000000000000000000000000000000000000000000000815260040160405180910390fd5b60a054609e546040516340d3096b60e11b81526001600160a01b03918216600482015260009291909116906381a612d690602401602060405180830381865afa158015611341573d6000803e3d6000fd5b505050506040513d601f19601f820116820180604052508101906113659190611f2c565b905060006113b660995461271061137c9190611f45565b61138b8464e8d4a51000611f5c565b6113959190611f5c565b6113ae6127106c0c9f2c9cd04674edea40000000611f5c565b859190611195565b609e549091506000906113d3906001600160a01b0316858461174f565b60a681905560a481905560a354604080518781526020810184905292935090917f48c3ff184c57818bf226589be0a871b387827c42b767756992efc70db2cd0edb910160405180910390a250505050565b61142c61114f565b6065805460ff191660011790557f62e78cea01bee320cd4e420270b5ea74000d11b0c9f74754ebdbfc544b05a2586112993390565b6033546001600160a01b031633146108475760405162461bcd60e51b815260206004820181905260248201527f4f776e61626c653a2063616c6c6572206973206e6f7420746865206f776e6572604482015260640161059c565b603380546001600160a01b038381166001600160a01b0319831681179093556040519116919082907f8be0079c531659141344cd1fd0a4f28419497f9722a3daafe3b4186f6b6457e090600090a35050565b6001600160a01b0382166115375760405163b80480b160e01b81526010600482015260240161059c565b806115585760405163b80480b160e01b81526011600482015260240161059c565b6001600160a01b038316600090815260a8602052604090206001810154815460a3546001600160801b0380841693600160801b9004169190811080156115a757506000836001600160801b0316115b1561160957600081815260a96020526040902080546115e0906106fe906001600160801b0387811691600160801b810482169116611195565b6115ea9084611f01565b6001860180546fffffffffffffffffffffffffffffffff191690559250505b5061161384611249565b6001600160801b0316816001600160801b03161015611650576040516307f885ff60e21b81526001600160801b038216600482015260240161059c565b61165984611249565b6116639082611f7b565b6001840180546001600160801b03928316600160801b02921691909117905560985460405163a9059cbb60e01b81526001600160a01b038781166004830152602482018790529091169063a9059cbb906044016020604051808303816000875af11580156116d5573d6000803e3d6000fd5b505050506040513d601f19601f820116820180604052508101906116f99190611edf565b50846001600160a01b0316866001600160a01b03167f5c88b328c5b2ad9ebdf6ff97006b8557bd45f26293da0252d9a34931c684007a8660405161173f91815260200190565b60405180910390a3505050505050565b609f5460405163095ea7b360e01b81526001600160a01b0391821660048201526024810184905260009185169063095ea7b3906044016020604051808303816000875af11580156117a4573d6000803e3d6000fd5b505050506040513d601f19601f820116820180604052508101906117c89190611edf565b5060a15460405163364e231160e01b81526001600160a01b0386811660048301526024820186905260448201859052600060648301529091169063364e2311906084016020604051808303816000875af115801561182a573d6000803e3d6000fd5b505050506040513d601f19601f8201168201806040525081019061184e9190611f2c565b949350505050565b60a6546118605750565b806118685750565b60a454609c546000919061187c9084611ec7565b81101561188b5780915061188f565b8291505b6118998282611f45565b60a4819055609d5460a25460405163a9059cbb60e01b81526001600160a01b03918216600482015260248101869052929350169063a9059cbb906044016020604051808303816000875af11580156118f5573d6000803e3d6000fd5b505050506040513d601f19601f820116820180604052508101906119199190611edf565b5060a254604051636e553f6560e01b8152600481018490523060248201526000916001600160a01b031690636e553f65906044016020604051808303816000875af115801561196c573d6000803e3d6000fd5b505050506040513d601f19601f820116820180604052508101906119909190611f2c565b90508060a360020160008282546119a79190611ec7565b909155505060a35460408051858152602081018490527f996c81bb856ed13ee8b426c49c5470c8182f6ec9ef1e06745504d5c60bcc65c1910160405180910390a281611acc576040518060400160405280611a0660a360040154611249565b6001600160801b03168152602001611a2260a360020154611249565b6001600160801b0390811690915260a38054600090815260a960209081526040918290208551958201518516600160801b0295909416949094179092555460a75460a654835191825293810193909352908201839052907fc69cec55f6364843f1bd00b1f28399f11345b53d1f2577e1048d34d216932c279060600160405180910390a2600060a781905560a681905560a581905560a38054909190611ac790611fa3565b909155505b50505050565b600054610100900460ff16611af95760405162461bcd60e51b815260040161059c90611fbe565b610847611cce565b600054610100900460ff16611b285760405162461bcd60e51b815260040161059c90611fbe565b610847611cfe565b600054610100900460ff16611b575760405162461bcd60e51b815260040161059c90611fbe565b609d80546001600160a01b038089166001600160a01b031992831617909255609e8054888416908316179055609f8054868416908316811790915560a18054938816939092169290921790556040805163fbfa77cf60e01b8152905163fbfa77cf916004808201926020929091908290030181865afa158015611bde573d6000803e3d6000fd5b505050506040513d601f19601f82011682018060405250810190611c029190612009565b60a080546001600160a01b03199081166001600160a01b03938416179091556098805482168584161790556097805490911691831691821790556040519081527f0425bcd291db1d48816f2a98edc7ecaf6dd5c64b973d9e4b3b6b750763dc6c2e9060200160405180910390a15050600160a35550505050565b60655460ff166108475760405162461bcd60e51b815260206004820152601460248201527f5061757361626c653a206e6f7420706175736564000000000000000000000000604482015260640161059c565b600054610100900460ff16611cf55760405162461bcd60e51b815260040161059c90611fbe565b610847336114bb565b600054610100900460ff16611d255760405162461bcd60e51b815260040161059c90611fbe565b6065805460ff19169055565b6001600160a01b0381168114610e1957600080fd5b60008060408385031215611d5957600080fd5b823591506020830135611d6b81611d31565b809150509250929050565b600060208284031215611d8857600080fd5b813561124281611d31565b600060208284031215611da557600080fd5b5035919050565b600080600060608486031215611dc157600080fd5b8335611dcc81611d31565b95602085013595506040909401359392505050565b60008060408385031215611df457600080fd5b8235611dff81611d31565b946020939093013593505050565b60008060008060008060c08789031215611e2657600080fd5b8635611e3181611d31565b95506020870135611e4181611d31565b94506040870135611e5181611d31565b93506060870135611e6181611d31565b92506080870135611e7181611d31565b915060a0870135611e8181611d31565b809150509295509295509295565b60008060408385031215611ea257600080fd5b50508035926020909101359150565b634e487b7160e01b600052601160045260246000fd5b60008219821115611eda57611eda611eb1565b500190565b600060208284031215611ef157600080fd5b8151801515811461124257600080fd5b60006001600160801b03808316818516808303821115611f2357611f23611eb1565b01949350505050565b600060208284031215611f3e57600080fd5b5051919050565b600082821015611f5757611f57611eb1565b500390565b6000816000190483118215151615611f7657611f76611eb1565b500290565b60006001600160801b0383811690831681811015611f9b57611f9b611eb1565b039392505050565b6000600019821415611fb757611fb7611eb1565b5060010190565b6020808252602b908201527f496e697469616c697a61626c653a20636f6e7472616374206973206e6f74206960408201526a6e697469616c697a696e6760a81b606082015260800190565b60006020828403121561201b57600080fd5b815161124281611d3156fea164736f6c634300080a000a",
  "devdoc": {
    "author": "RageTrade*",
    "kind": "dev",
    "methods": {
      "claim(address,uint256)": {
        "params": {
          "amount": "amount of shares",
          "receiver": "address of receiver"
        }
      },
      "depositToken(address,uint256,uint256)": {
        "details": "this function should be only called by junior vault",
        "params": {
          "amount": "amount of token to be used",
          "minUSDG": "minimum output of swap in terms of USDG",
          "token": "address of input token (should be supported on gmx)"
        }
      },
      "grantAllowances()": {
        "details": "allowance is granted while vault is added via addVault, this is only failsafe if that allowance is exhausted"
      },
      "initialize(address,address,address,address,address,address)": {
        "details": "this function is supposed to be called only once",
        "params": {
          "_dnGmxJuniorVault": "address of delta neutral junior tranche",
          "_rewardRouter": "gmx protocol's reward router v2",
          "_sGlp": "address of staked glp",
          "_usdc": "address of usdc"
        }
      },
      "owner()": {
        "details": "Returns the address of the current owner."
      },
      "paused()": {
        "details": "Returns true if the contract is paused, and false otherwise."
      },
      "renounceOwnership()": {
        "details": "Leaves the contract without owner. It will not be possible to call `onlyOwner` functions anymore. Can only be called by the current owner. NOTE: Renouncing ownership will leave the contract without an owner, thereby removing any functionality that is only available to the owner."
      },
      "roundDeposits(uint256)": {
        "params": {
          "round": "address of user"
        }
      },
      "setKeeper(address)": {
        "params": {
          "_keeper": "address of keeper"
        }
      },
      "setThresholds(uint256,uint256)": {
        "params": {
          "_slippageThresholdGmxBps": "slippage (in bps)"
        }
      },
      "transferOwnership(address)": {
        "details": "Transfers ownership of the contract to a new account (`newOwner`). Can only be called by the current owner."
      },
      "unclaimedShares(address)": {
        "params": {
          "account": "address of user"
        }
      },
      "usdcBalance(address)": {
        "params": {
          "account": "address of user"
        }
      },
      "userDeposits(address)": {
        "params": {
          "account": "address of user"
        }
      }
    },
    "title": "Batching Manager to avoid glp transfer cooldowm",
    "version": 1
  },
  "userdoc": {
    "kind": "user",
    "methods": {
      "claim(address,uint256)": {
        "notice": "claim the shares received from depositing batch"
      },
      "currentRound()": {
        "notice": "gets the current active round"
      },
      "depositToken(address,uint256,uint256)": {
        "notice": "convert the token into glp and obtain staked glp"
      },
      "executeBatchDeposit(uint256)": {
        "notice": "executes batch and deposits into appropriate vault with/without minting shares"
      },
      "executeBatchStake()": {
        "notice": "executes batch and deposits into appropriate vault with/without minting shares"
      },
      "grantAllowances()": {
        "notice": "grants the allowance to the vault to pull sGLP (via safeTransfer from in vault.deposit)"
      },
      "initialize(address,address,address,address,address,address)": {
        "notice": "initializes the proxy state"
      },
      "pauseDeposit()": {
        "notice": "pauses deposits (to prevent DOS due to GMX 15 min cooldown)"
      },
      "roundDeposits(uint256)": {
        "notice": "get the info for given vault and round"
      },
      "roundGlpStaked()": {
        "notice": "get the glp balance for current active round"
      },
      "roundUsdcBalance()": {
        "notice": "get the glp balance for current active round"
      },
      "setKeeper(address)": {
        "notice": "sets the keeper address (to pause & unpause deposits)"
      },
      "setThresholds(uint256,uint256)": {
        "notice": "sets the slippage (in bps) to use while staking on gmx"
      },
      "unclaimedShares(address)": {
        "notice": "get the unclaimed shares for a given vault and account address"
      },
      "unpauseDeposit()": {
        "notice": "unpauses the deposit function"
      },
      "usdcBalance(address)": {
        "notice": "get the glp balance for a given vault and account address"
      },
      "userDeposits(address)": {
        "notice": "get the vaultBatchingState of user deposits"
      }
    },
    "notice": "batches the incoming deposit token depoists after converting them to glpIt is upgradable contract (via TransparentUpgradeableProxy proxy owned by ProxyAdmin)",
    "version": 1
  },
  "storageLayout": {
    "storage": [
      {
        "astId": 4084,
        "contract": "contracts/vaults/DnGmxBatchingManager.sol:DnGmxBatchingManager",
        "label": "_initialized",
        "offset": 0,
        "slot": "0",
        "type": "t_uint8"
      },
      {
        "astId": 4087,
        "contract": "contracts/vaults/DnGmxBatchingManager.sol:DnGmxBatchingManager",
        "label": "_initializing",
        "offset": 1,
        "slot": "0",
        "type": "t_bool"
      },
      {
        "astId": 5353,
        "contract": "contracts/vaults/DnGmxBatchingManager.sol:DnGmxBatchingManager",
        "label": "__gap",
        "offset": 0,
        "slot": "1",
        "type": "t_array(t_uint256)50_storage"
      },
      {
        "astId": 3956,
        "contract": "contracts/vaults/DnGmxBatchingManager.sol:DnGmxBatchingManager",
        "label": "_owner",
        "offset": 0,
        "slot": "51",
        "type": "t_address"
      },
      {
        "astId": 4076,
        "contract": "contracts/vaults/DnGmxBatchingManager.sol:DnGmxBatchingManager",
        "label": "__gap",
        "offset": 0,
        "slot": "52",
        "type": "t_array(t_uint256)49_storage"
      },
      {
        "astId": 4249,
        "contract": "contracts/vaults/DnGmxBatchingManager.sol:DnGmxBatchingManager",
        "label": "_paused",
        "offset": 0,
        "slot": "101",
        "type": "t_bool"
      },
      {
        "astId": 4354,
        "contract": "contracts/vaults/DnGmxBatchingManager.sol:DnGmxBatchingManager",
        "label": "__gap",
        "offset": 0,
        "slot": "102",
        "type": "t_array(t_uint256)49_storage"
      },
      {
        "astId": 14219,
        "contract": "contracts/vaults/DnGmxBatchingManager.sol:DnGmxBatchingManager",
        "label": "keeper",
        "offset": 0,
        "slot": "151",
        "type": "t_address"
      },
      {
        "astId": 14222,
        "contract": "contracts/vaults/DnGmxBatchingManager.sol:DnGmxBatchingManager",
        "label": "dnGmxJuniorVault",
        "offset": 0,
        "slot": "152",
        "type": "t_contract(IDnGmxJuniorVault)7542"
      },
      {
        "astId": 14224,
        "contract": "contracts/vaults/DnGmxBatchingManager.sol:DnGmxBatchingManager",
        "label": "slippageThresholdGmxBps",
        "offset": 0,
        "slot": "153",
        "type": "t_uint256"
      },
      {
        "astId": 14226,
        "contract": "contracts/vaults/DnGmxBatchingManager.sol:DnGmxBatchingManager",
        "label": "dnGmxJuniorVaultGlpBalance",
        "offset": 0,
        "slot": "154",
        "type": "t_uint256"
      },
      {
        "astId": 14228,
        "contract": "contracts/vaults/DnGmxBatchingManager.sol:DnGmxBatchingManager",
        "label": "depositCap",
        "offset": 0,
        "slot": "155",
        "type": "t_uint256"
      },
      {
        "astId": 14230,
        "contract": "contracts/vaults/DnGmxBatchingManager.sol:DnGmxBatchingManager",
        "label": "glpDepositPendingThreshold",
        "offset": 0,
        "slot": "156",
        "type": "t_uint256"
      },
      {
        "astId": 14233,
        "contract": "contracts/vaults/DnGmxBatchingManager.sol:DnGmxBatchingManager",
        "label": "sGlp",
        "offset": 0,
        "slot": "157",
        "type": "t_contract(IERC20)5551"
      },
      {
        "astId": 14236,
        "contract": "contracts/vaults/DnGmxBatchingManager.sol:DnGmxBatchingManager",
        "label": "usdc",
        "offset": 0,
        "slot": "158",
        "type": "t_contract(IERC20)5551"
      },
      {
        "astId": 14239,
        "contract": "contracts/vaults/DnGmxBatchingManager.sol:DnGmxBatchingManager",
        "label": "glpManager",
        "offset": 0,
        "slot": "159",
        "type": "t_contract(IGlpManager)7930"
      },
      {
        "astId": 14242,
        "contract": "contracts/vaults/DnGmxBatchingManager.sol:DnGmxBatchingManager",
        "label": "gmxUnderlyingVault",
        "offset": 0,
        "slot": "160",
        "type": "t_contract(IVault)8779"
      },
      {
        "astId": 14245,
        "contract": "contracts/vaults/DnGmxBatchingManager.sol:DnGmxBatchingManager",
        "label": "rewardRouter",
        "offset": 0,
        "slot": "161",
        "type": "t_contract(IRewardRouterV2)8113"
      },
      {
        "astId": 14248,
        "contract": "contracts/vaults/DnGmxBatchingManager.sol:DnGmxBatchingManager",
        "label": "bypass",
        "offset": 0,
        "slot": "162",
        "type": "t_contract(IBatchingManagerBypass)7163"
      },
      {
        "astId": 14251,
        "contract": "contracts/vaults/DnGmxBatchingManager.sol:DnGmxBatchingManager",
        "label": "vaultBatchingState",
        "offset": 0,
        "slot": "163",
        "type": "t_struct(VaultBatchingState)14214_storage"
      },
      {
        "astId": 14255,
        "contract": "contracts/vaults/DnGmxBatchingManager.sol:DnGmxBatchingManager",
        "label": "__gaps",
        "offset": 0,
        "slot": "170",
        "type": "t_array(t_uint256)50_storage"
      }
    ],
    "types": {
      "t_address": {
        "encoding": "inplace",
        "label": "address",
        "numberOfBytes": "20"
      },
      "t_array(t_uint256)49_storage": {
        "base": "t_uint256",
        "encoding": "inplace",
        "label": "uint256[49]",
        "numberOfBytes": "1568"
      },
      "t_array(t_uint256)50_storage": {
        "base": "t_uint256",
        "encoding": "inplace",
        "label": "uint256[50]",
        "numberOfBytes": "1600"
      },
      "t_bool": {
        "encoding": "inplace",
        "label": "bool",
        "numberOfBytes": "1"
      },
      "t_contract(IBatchingManagerBypass)7163": {
        "encoding": "inplace",
        "label": "contract IBatchingManagerBypass",
        "numberOfBytes": "20"
      },
      "t_contract(IDnGmxJuniorVault)7542": {
        "encoding": "inplace",
        "label": "contract IDnGmxJuniorVault",
        "numberOfBytes": "20"
      },
      "t_contract(IERC20)5551": {
        "encoding": "inplace",
        "label": "contract IERC20",
        "numberOfBytes": "20"
      },
      "t_contract(IGlpManager)7930": {
        "encoding": "inplace",
        "label": "contract IGlpManager",
        "numberOfBytes": "20"
      },
      "t_contract(IRewardRouterV2)8113": {
        "encoding": "inplace",
        "label": "contract IRewardRouterV2",
        "numberOfBytes": "20"
      },
      "t_contract(IVault)8779": {
        "encoding": "inplace",
        "label": "contract IVault",
        "numberOfBytes": "20"
      },
      "t_mapping(t_address,t_struct(UserDeposit)7294_storage)": {
        "encoding": "mapping",
        "key": "t_address",
        "label": "mapping(address => struct IDnGmxBatchingManager.UserDeposit)",
        "numberOfBytes": "32",
        "value": "t_struct(UserDeposit)7294_storage"
      },
      "t_mapping(t_uint256,t_struct(RoundDeposit)7299_storage)": {
        "encoding": "mapping",
        "key": "t_uint256",
        "label": "mapping(uint256 => struct IDnGmxBatchingManager.RoundDeposit)",
        "numberOfBytes": "32",
        "value": "t_struct(RoundDeposit)7299_storage"
      },
      "t_struct(RoundDeposit)7299_storage": {
        "encoding": "inplace",
        "label": "struct IDnGmxBatchingManager.RoundDeposit",
        "members": [
          {
            "astId": 7296,
            "contract": "contracts/vaults/DnGmxBatchingManager.sol:DnGmxBatchingManager",
            "label": "totalUsdc",
            "offset": 0,
            "slot": "0",
            "type": "t_uint128"
          },
          {
            "astId": 7298,
            "contract": "contracts/vaults/DnGmxBatchingManager.sol:DnGmxBatchingManager",
            "label": "totalShares",
            "offset": 16,
            "slot": "0",
            "type": "t_uint128"
          }
        ],
        "numberOfBytes": "32"
      },
      "t_struct(UserDeposit)7294_storage": {
        "encoding": "inplace",
        "label": "struct IDnGmxBatchingManager.UserDeposit",
        "members": [
          {
            "astId": 7289,
            "contract": "contracts/vaults/DnGmxBatchingManager.sol:DnGmxBatchingManager",
            "label": "round",
            "offset": 0,
            "slot": "0",
            "type": "t_uint256"
          },
          {
            "astId": 7291,
            "contract": "contracts/vaults/DnGmxBatchingManager.sol:DnGmxBatchingManager",
            "label": "usdcBalance",
            "offset": 0,
            "slot": "1",
            "type": "t_uint128"
          },
          {
            "astId": 7293,
            "contract": "contracts/vaults/DnGmxBatchingManager.sol:DnGmxBatchingManager",
            "label": "unclaimedShares",
            "offset": 16,
            "slot": "1",
            "type": "t_uint128"
          }
        ],
        "numberOfBytes": "64"
      },
      "t_struct(VaultBatchingState)14214_storage": {
        "encoding": "inplace",
        "label": "struct DnGmxBatchingManager.VaultBatchingState",
        "members": [
          {
            "astId": 14195,
            "contract": "contracts/vaults/DnGmxBatchingManager.sol:DnGmxBatchingManager",
            "label": "currentRound",
            "offset": 0,
            "slot": "0",
            "type": "t_uint256"
          },
          {
            "astId": 14197,
            "contract": "contracts/vaults/DnGmxBatchingManager.sol:DnGmxBatchingManager",
            "label": "roundGlpDepositPending",
            "offset": 0,
            "slot": "1",
            "type": "t_uint256"
          },
          {
            "astId": 14199,
            "contract": "contracts/vaults/DnGmxBatchingManager.sol:DnGmxBatchingManager",
            "label": "roundSharesMinted",
            "offset": 0,
            "slot": "2",
            "type": "t_uint256"
          },
          {
            "astId": 14201,
            "contract": "contracts/vaults/DnGmxBatchingManager.sol:DnGmxBatchingManager",
            "label": "roundGlpStaked",
            "offset": 0,
            "slot": "3",
            "type": "t_uint256"
          },
          {
            "astId": 14203,
            "contract": "contracts/vaults/DnGmxBatchingManager.sol:DnGmxBatchingManager",
            "label": "roundUsdcBalance",
            "offset": 0,
            "slot": "4",
            "type": "t_uint256"
          },
          {
            "astId": 14208,
            "contract": "contracts/vaults/DnGmxBatchingManager.sol:DnGmxBatchingManager",
            "label": "userDeposits",
            "offset": 0,
            "slot": "5",
            "type": "t_mapping(t_address,t_struct(UserDeposit)7294_storage)"
          },
          {
            "astId": 14213,
            "contract": "contracts/vaults/DnGmxBatchingManager.sol:DnGmxBatchingManager",
            "label": "roundDeposits",
            "offset": 0,
            "slot": "6",
            "type": "t_mapping(t_uint256,t_struct(RoundDeposit)7299_storage)"
          }
        ],
        "numberOfBytes": "224"
      },
      "t_uint128": {
        "encoding": "inplace",
        "label": "uint128",
        "numberOfBytes": "16"
      },
      "t_uint256": {
        "encoding": "inplace",
        "label": "uint256",
        "numberOfBytes": "32"
      },
      "t_uint8": {
        "encoding": "inplace",
        "label": "uint8",
        "numberOfBytes": "1"
      }
    }
  }
}