{
  "address": "0x06c89eF14ED8D69044b3B04619a683828754F0d8",
  "abi": [
    {
      "inputs": [],
      "name": "ArraysLengthMismatch",
      "type": "error"
    },
    {
      "inputs": [],
      "name": "DepositCapExceeded",
      "type": "error"
    },
    {
      "inputs": [],
      "name": "FlashloanNotInitiated",
      "type": "error"
    },
    {
      "inputs": [],
      "name": "InvalidFeeRecipient",
      "type": "error"
    },
    {
      "inputs": [],
      "name": "InvalidRebalance",
      "type": "error"
    },
    {
      "inputs": [],
      "name": "NotBalancerVault",
      "type": "error"
    },
    {
      "inputs": [],
      "name": "NotDnGmxSeniorVault",
      "type": "error"
    },
    {
      "inputs": [
        {
          "internalType": "address",
          "name": "msgSender",
          "type": "address"
        },
        {
          "internalType": "address",
          "name": "authorisedKeeperAddress",
          "type": "address"
        }
      ],
      "name": "OnlyKeeperAllowed",
      "type": "error"
    },
    {
      "anonymous": false,
      "inputs": [],
      "name": "AllowancesGranted",
      "type": "event"
    },
    {
      "anonymous": false,
      "inputs": [
        {
          "indexed": true,
          "internalType": "address",
          "name": "owner",
          "type": "address"
        },
        {
          "indexed": true,
          "internalType": "address",
          "name": "spender",
          "type": "address"
        },
        {
          "indexed": false,
          "internalType": "uint256",
          "name": "value",
          "type": "uint256"
        }
      ],
      "name": "Approval",
      "type": "event"
    },
    {
      "anonymous": false,
      "inputs": [
        {
          "indexed": false,
          "internalType": "address",
          "name": "_batchingManager",
          "type": "address"
        }
      ],
      "name": "BatchingManagerUpdated",
      "type": "event"
    },
    {
      "anonymous": false,
      "inputs": [
        {
          "indexed": true,
          "internalType": "address",
          "name": "caller",
          "type": "address"
        },
        {
          "indexed": true,
          "internalType": "address",
          "name": "owner",
          "type": "address"
        },
        {
          "indexed": false,
          "internalType": "uint256",
          "name": "assets",
          "type": "uint256"
        },
        {
          "indexed": false,
          "internalType": "uint256",
          "name": "shares",
          "type": "uint256"
        }
      ],
      "name": "Deposit",
      "type": "event"
    },
    {
      "anonymous": false,
      "inputs": [
        {
          "indexed": false,
          "internalType": "uint256",
          "name": "_newDepositCap",
          "type": "uint256"
        }
      ],
      "name": "DepositCapUpdated",
      "type": "event"
    },
    {
      "anonymous": false,
      "inputs": [
        {
          "indexed": false,
          "internalType": "address",
          "name": "_dnGmxSeniorVault",
          "type": "address"
        }
      ],
      "name": "DnGmxSeniorVaultUpdated",
      "type": "event"
    },
    {
      "anonymous": false,
      "inputs": [
        {
          "indexed": false,
          "internalType": "address",
          "name": "_newFeeRecipient",
          "type": "address"
        }
      ],
      "name": "FeeRecipientUpdated",
      "type": "event"
    },
    {
      "anonymous": false,
      "inputs": [
        {
          "indexed": false,
          "internalType": "uint256",
          "name": "feeAmount",
          "type": "uint256"
        }
      ],
      "name": "FeesWithdrawn",
      "type": "event"
    },
    {
      "anonymous": false,
      "inputs": [
        {
          "indexed": false,
          "internalType": "uint8",
          "name": "version",
          "type": "uint8"
        }
      ],
      "name": "Initialized",
      "type": "event"
    },
    {
      "anonymous": false,
      "inputs": [
        {
          "indexed": false,
          "internalType": "address",
          "name": "_newKeeper",
          "type": "address"
        }
      ],
      "name": "KeeperUpdated",
      "type": "event"
    },
    {
      "anonymous": false,
      "inputs": [
        {
          "indexed": true,
          "internalType": "address",
          "name": "previousOwner",
          "type": "address"
        },
        {
          "indexed": true,
          "internalType": "address",
          "name": "newOwner",
          "type": "address"
        }
      ],
      "name": "OwnershipTransferred",
      "type": "event"
    },
    {
      "anonymous": false,
      "inputs": [
        {
          "indexed": true,
          "internalType": "uint32",
          "name": "rebalanceTimeThreshold",
          "type": "uint32"
        },
        {
          "indexed": true,
          "internalType": "uint16",
          "name": "rebalanceDeltaThreshold",
          "type": "uint16"
        }
      ],
      "name": "RebalanceParamsUpdated",
      "type": "event"
    },
    {
      "anonymous": false,
      "inputs": [],
      "name": "Rebalanced",
      "type": "event"
    },
    {
      "anonymous": false,
      "inputs": [
        {
          "indexed": false,
          "internalType": "uint256",
          "name": "totalEthAmount",
          "type": "uint256"
        },
        {
          "indexed": false,
          "internalType": "uint256",
          "name": "juniorVaultShare",
          "type": "uint256"
        }
      ],
      "name": "RewardsHarvested",
      "type": "event"
    },
    {
      "anonymous": false,
      "inputs": [
        {
          "indexed": true,
          "internalType": "address",
          "name": "from",
          "type": "address"
        },
        {
          "indexed": true,
          "internalType": "address",
          "name": "to",
          "type": "address"
        },
        {
          "indexed": false,
          "internalType": "uint256",
          "name": "value",
          "type": "uint256"
        }
      ],
      "name": "Transfer",
      "type": "event"
    },
    {
      "anonymous": false,
      "inputs": [
        {
          "indexed": true,
          "internalType": "address",
          "name": "caller",
          "type": "address"
        },
        {
          "indexed": true,
          "internalType": "address",
          "name": "receiver",
          "type": "address"
        },
        {
          "indexed": true,
          "internalType": "address",
          "name": "owner",
          "type": "address"
        },
        {
          "indexed": false,
          "internalType": "uint256",
          "name": "assets",
          "type": "uint256"
        },
        {
          "indexed": false,
          "internalType": "uint256",
          "name": "shares",
          "type": "uint256"
        }
      ],
      "name": "Withdraw",
      "type": "event"
    },
    {
      "anonymous": false,
      "inputs": [
        {
          "indexed": false,
          "internalType": "uint256",
          "name": "_withdrawFeeBps",
          "type": "uint256"
        }
      ],
      "name": "WithdrawFeeUpdated",
      "type": "event"
    },
    {
      "anonymous": false,
      "inputs": [
        {
          "indexed": true,
          "internalType": "uint16",
          "name": "usdcRedeemSlippage",
          "type": "uint16"
        },
        {
          "indexed": true,
          "internalType": "uint240",
          "name": "usdcConversionThreshold",
          "type": "uint240"
        },
        {
          "indexed": true,
          "internalType": "uint256",
          "name": "seniorVaultWethConversionThreshold",
          "type": "uint256"
        }
      ],
      "name": "YieldParamsUpdated",
      "type": "event"
    },
    {
      "inputs": [
        {
          "internalType": "address",
          "name": "owner",
          "type": "address"
        },
        {
          "internalType": "address",
          "name": "spender",
          "type": "address"
        }
      ],
      "name": "allowance",
      "outputs": [
        {
          "internalType": "uint256",
          "name": "",
          "type": "uint256"
        }
      ],
      "stateMutability": "view",
      "type": "function"
    },
    {
      "inputs": [
        {
          "internalType": "address",
          "name": "spender",
          "type": "address"
        },
        {
          "internalType": "uint256",
          "name": "amount",
          "type": "uint256"
        }
      ],
      "name": "approve",
      "outputs": [
        {
          "internalType": "bool",
          "name": "",
          "type": "bool"
        }
      ],
      "stateMutability": "nonpayable",
      "type": "function"
    },
    {
      "inputs": [],
      "name": "asset",
      "outputs": [
        {
          "internalType": "contract IERC20Metadata",
          "name": "",
          "type": "address"
        }
      ],
      "stateMutability": "view",
      "type": "function"
    },
    {
      "inputs": [
        {
          "internalType": "address",
          "name": "account",
          "type": "address"
        }
      ],
      "name": "balanceOf",
      "outputs": [
        {
          "internalType": "uint256",
          "name": "",
          "type": "uint256"
        }
      ],
      "stateMutability": "view",
      "type": "function"
    },
    {
      "inputs": [
        {
          "internalType": "uint256",
          "name": "shares",
          "type": "uint256"
        }
      ],
      "name": "convertToAssets",
      "outputs": [
        {
          "internalType": "uint256",
          "name": "",
          "type": "uint256"
        }
      ],
      "stateMutability": "view",
      "type": "function"
    },
    {
      "inputs": [
        {
          "internalType": "uint256",
          "name": "assets",
          "type": "uint256"
        }
      ],
      "name": "convertToShares",
      "outputs": [
        {
          "internalType": "uint256",
          "name": "",
          "type": "uint256"
        }
      ],
      "stateMutability": "view",
      "type": "function"
    },
    {
      "inputs": [],
      "name": "decimals",
      "outputs": [
        {
          "internalType": "uint8",
          "name": "",
          "type": "uint8"
        }
      ],
      "stateMutability": "view",
      "type": "function"
    },
    {
      "inputs": [
        {
          "internalType": "address",
          "name": "spender",
          "type": "address"
        },
        {
          "internalType": "uint256",
          "name": "subtractedValue",
          "type": "uint256"
        }
      ],
      "name": "decreaseAllowance",
      "outputs": [
        {
          "internalType": "bool",
          "name": "",
          "type": "bool"
        }
      ],
      "stateMutability": "nonpayable",
      "type": "function"
    },
    {
      "inputs": [
        {
          "internalType": "uint256",
          "name": "amount",
          "type": "uint256"
        },
        {
          "internalType": "address",
          "name": "to",
          "type": "address"
        }
      ],
      "name": "deposit",
      "outputs": [
        {
          "internalType": "uint256",
          "name": "shares",
          "type": "uint256"
        }
      ],
      "stateMutability": "nonpayable",
      "type": "function"
    },
    {
      "inputs": [
        {
          "internalType": "uint256",
          "name": "assetAmount",
          "type": "uint256"
        }
      ],
      "name": "getMarketValue",
      "outputs": [
        {
          "internalType": "uint256",
          "name": "marketValue",
          "type": "uint256"
        }
      ],
      "stateMutability": "view",
      "type": "function"
    },
    {
      "inputs": [],
      "name": "getPriceX128",
      "outputs": [
        {
          "internalType": "uint256",
          "name": "",
          "type": "uint256"
        }
      ],
      "stateMutability": "view",
      "type": "function"
    },
    {
      "inputs": [],
      "name": "getUsdcBorrowed",
      "outputs": [
        {
          "internalType": "uint256",
          "name": "usdcAmount",
          "type": "uint256"
        }
      ],
      "stateMutability": "view",
      "type": "function"
    },
    {
      "inputs": [],
      "name": "getVaultMarketValue",
      "outputs": [
        {
          "internalType": "int256",
          "name": "vaultMarketValue",
          "type": "int256"
        }
      ],
      "stateMutability": "view",
      "type": "function"
    },
    {
      "inputs": [],
      "name": "grantAllowances",
      "outputs": [],
      "stateMutability": "nonpayable",
      "type": "function"
    },
    {
      "inputs": [],
      "name": "harvestFees",
      "outputs": [],
      "stateMutability": "nonpayable",
      "type": "function"
    },
    {
      "inputs": [
        {
          "internalType": "address",
          "name": "spender",
          "type": "address"
        },
        {
          "internalType": "uint256",
          "name": "addedValue",
          "type": "uint256"
        }
      ],
      "name": "increaseAllowance",
      "outputs": [
        {
          "internalType": "bool",
          "name": "",
          "type": "bool"
        }
      ],
      "stateMutability": "nonpayable",
      "type": "function"
    },
    {
      "inputs": [
        {
          "internalType": "string",
          "name": "_name",
          "type": "string"
        },
        {
          "internalType": "string",
          "name": "_symbol",
          "type": "string"
        },
        {
          "internalType": "address",
          "name": "_swapRouter",
          "type": "address"
        },
        {
          "internalType": "address",
          "name": "_rewardRouter",
          "type": "address"
        },
        {
          "internalType": "address",
          "name": "_tricryptoPool",
          "type": "address"
        },
        {
          "components": [
            {
              "internalType": "contract IERC20Metadata",
              "name": "weth",
              "type": "address"
            },
            {
              "internalType": "contract IERC20Metadata",
              "name": "wbtc",
              "type": "address"
            },
            {
              "internalType": "contract IERC20Metadata",
              "name": "sGlp",
              "type": "address"
            },
            {
              "internalType": "contract IERC20Metadata",
              "name": "usdc",
              "type": "address"
            },
            {
              "internalType": "contract IERC20Metadata",
              "name": "usdt",
              "type": "address"
            }
          ],
          "internalType": "struct DnGmxJuniorVaultStorage.Tokens",
          "name": "_tokens",
          "type": "tuple"
        },
        {
          "internalType": "contract IPoolAddressesProvider",
          "name": "_poolAddressesProvider",
          "type": "address"
        }
      ],
      "name": "initialize",
      "outputs": [],
      "stateMutability": "nonpayable",
      "type": "function"
    },
    {
      "inputs": [],
      "name": "isValidRebalance",
      "outputs": [
        {
          "internalType": "bool",
          "name": "",
          "type": "bool"
        }
      ],
      "stateMutability": "view",
      "type": "function"
    },
    {
      "inputs": [
        {
          "internalType": "address",
          "name": "",
          "type": "address"
        }
      ],
      "name": "maxDeposit",
      "outputs": [
        {
          "internalType": "uint256",
          "name": "",
          "type": "uint256"
        }
      ],
      "stateMutability": "view",
      "type": "function"
    },
    {
      "inputs": [
        {
          "internalType": "address",
          "name": "",
          "type": "address"
        }
      ],
      "name": "maxMint",
      "outputs": [
        {
          "internalType": "uint256",
          "name": "",
          "type": "uint256"
        }
      ],
      "stateMutability": "view",
      "type": "function"
    },
    {
      "inputs": [
        {
          "internalType": "address",
          "name": "owner",
          "type": "address"
        }
      ],
      "name": "maxRedeem",
      "outputs": [
        {
          "internalType": "uint256",
          "name": "",
          "type": "uint256"
        }
      ],
      "stateMutability": "view",
      "type": "function"
    },
    {
      "inputs": [
        {
          "internalType": "address",
          "name": "owner",
          "type": "address"
        }
      ],
      "name": "maxWithdraw",
      "outputs": [
        {
          "internalType": "uint256",
          "name": "",
          "type": "uint256"
        }
      ],
      "stateMutability": "view",
      "type": "function"
    },
    {
      "inputs": [
        {
          "internalType": "uint256",
          "name": "shares",
          "type": "uint256"
        },
        {
          "internalType": "address",
          "name": "to",
          "type": "address"
        }
      ],
      "name": "mint",
      "outputs": [
        {
          "internalType": "uint256",
          "name": "amount",
          "type": "uint256"
        }
      ],
      "stateMutability": "nonpayable",
      "type": "function"
    },
    {
      "inputs": [],
      "name": "name",
      "outputs": [
        {
          "internalType": "string",
          "name": "",
          "type": "string"
        }
      ],
      "stateMutability": "view",
      "type": "function"
    },
    {
      "inputs": [],
      "name": "owner",
      "outputs": [
        {
          "internalType": "address",
          "name": "",
          "type": "address"
        }
      ],
      "stateMutability": "view",
      "type": "function"
    },
    {
      "inputs": [
        {
          "internalType": "uint256",
          "name": "assets",
          "type": "uint256"
        }
      ],
      "name": "previewDeposit",
      "outputs": [
        {
          "internalType": "uint256",
          "name": "",
          "type": "uint256"
        }
      ],
      "stateMutability": "view",
      "type": "function"
    },
    {
      "inputs": [
        {
          "internalType": "uint256",
          "name": "shares",
          "type": "uint256"
        }
      ],
      "name": "previewMint",
      "outputs": [
        {
          "internalType": "uint256",
          "name": "",
          "type": "uint256"
        }
      ],
      "stateMutability": "view",
      "type": "function"
    },
    {
      "inputs": [
        {
          "internalType": "uint256",
          "name": "shares",
          "type": "uint256"
        }
      ],
      "name": "previewRedeem",
      "outputs": [
        {
          "internalType": "uint256",
          "name": "",
          "type": "uint256"
        }
      ],
      "stateMutability": "view",
      "type": "function"
    },
    {
      "inputs": [
        {
          "internalType": "uint256",
          "name": "assets",
          "type": "uint256"
        }
      ],
      "name": "previewWithdraw",
      "outputs": [
        {
          "internalType": "uint256",
          "name": "",
          "type": "uint256"
        }
      ],
      "stateMutability": "view",
      "type": "function"
    },
    {
      "inputs": [],
      "name": "rebalance",
      "outputs": [],
      "stateMutability": "nonpayable",
      "type": "function"
    },
    {
      "inputs": [
        {
          "internalType": "contract IERC20[]",
          "name": "tokens",
          "type": "address[]"
        },
        {
          "internalType": "uint256[]",
          "name": "amounts",
          "type": "uint256[]"
        },
        {
          "internalType": "uint256[]",
          "name": "feeAmounts",
          "type": "uint256[]"
        },
        {
          "internalType": "bytes",
          "name": "userData",
          "type": "bytes"
        }
      ],
      "name": "receiveFlashLoan",
      "outputs": [],
      "stateMutability": "nonpayable",
      "type": "function"
    },
    {
      "inputs": [
        {
          "internalType": "uint256",
          "name": "shares",
          "type": "uint256"
        },
        {
          "internalType": "address",
          "name": "receiver",
          "type": "address"
        },
        {
          "internalType": "address",
          "name": "owner",
          "type": "address"
        }
      ],
      "name": "redeem",
      "outputs": [
        {
          "internalType": "uint256",
          "name": "assets",
          "type": "uint256"
        }
      ],
      "stateMutability": "nonpayable",
      "type": "function"
    },
    {
      "inputs": [],
      "name": "renounceOwnership",
      "outputs": [],
      "stateMutability": "nonpayable",
      "type": "function"
    },
    {
      "inputs": [
        {
          "internalType": "address",
          "name": "_batchingManager",
          "type": "address"
        }
      ],
      "name": "setBatchingManager",
      "outputs": [],
      "stateMutability": "nonpayable",
      "type": "function"
    },
    {
      "inputs": [
        {
          "internalType": "uint256",
          "name": "_newDepositCap",
          "type": "uint256"
        }
      ],
      "name": "setDepositCap",
      "outputs": [],
      "stateMutability": "nonpayable",
      "type": "function"
    },
    {
      "inputs": [
        {
          "internalType": "address",
          "name": "_dnGmxSeniorVault",
          "type": "address"
        }
      ],
      "name": "setDnGmxSeniorVault",
      "outputs": [],
      "stateMutability": "nonpayable",
      "type": "function"
    },
    {
      "inputs": [
        {
          "internalType": "address",
          "name": "_feeRecipient",
          "type": "address"
        }
      ],
      "name": "setFeeRecipient",
      "outputs": [],
      "stateMutability": "nonpayable",
      "type": "function"
    },
    {
      "inputs": [
        {
          "components": [
            {
              "internalType": "contract IBalancerVault",
              "name": "vault",
              "type": "address"
            },
            {
              "internalType": "contract ISwapRouter",
              "name": "swapRouter",
              "type": "address"
            },
            {
              "internalType": "uint256",
              "name": "targetHealthFactor",
              "type": "uint256"
            },
            {
              "internalType": "contract IRewardsController",
              "name": "aaveRewardsController",
              "type": "address"
            }
          ],
          "internalType": "struct DnGmxJuniorVaultStorage.HedgeStrategyParams",
          "name": "_hedgeParams",
          "type": "tuple"
        }
      ],
      "name": "setHedgeParams",
      "outputs": [],
      "stateMutability": "nonpayable",
      "type": "function"
    },
    {
      "inputs": [
        {
          "internalType": "address",
          "name": "_newKeeper",
          "type": "address"
        }
      ],
      "name": "setKeeper",
      "outputs": [],
      "stateMutability": "nonpayable",
      "type": "function"
    },
    {
      "inputs": [
        {
          "components": [
            {
              "internalType": "uint32",
              "name": "rebalanceTimeThreshold",
              "type": "uint32"
            },
            {
              "internalType": "uint16",
              "name": "rebalanceDeltaThreshold",
              "type": "uint16"
            }
          ],
          "internalType": "struct DnGmxJuniorVaultStorage.RebalanceStrategyParams",
          "name": "_rsParams",
          "type": "tuple"
        }
      ],
      "name": "setRebalanceParams",
      "outputs": [],
      "stateMutability": "nonpayable",
      "type": "function"
    },
    {
      "inputs": [
        {
          "components": [
            {
              "internalType": "uint16",
              "name": "usdcRedeemSlippage",
              "type": "uint16"
            },
            {
              "internalType": "uint240",
              "name": "usdcConversionThreshold",
              "type": "uint240"
            },
            {
              "internalType": "uint256",
              "name": "seniorVaultWethConversionThreshold",
              "type": "uint256"
            }
          ],
          "internalType": "struct DnGmxJuniorVaultStorage.YieldStrategyParams",
          "name": "_ysParams",
          "type": "tuple"
        }
      ],
      "name": "setThresholds",
      "outputs": [],
      "stateMutability": "nonpayable",
      "type": "function"
    },
    {
      "inputs": [
        {
          "internalType": "uint256",
          "name": "_withdrawFeeBps",
          "type": "uint256"
        }
      ],
      "name": "setWithdrawFee",
      "outputs": [],
      "stateMutability": "nonpayable",
      "type": "function"
    },
    {
      "inputs": [],
      "name": "symbol",
      "outputs": [
        {
          "internalType": "string",
          "name": "",
          "type": "string"
        }
      ],
      "stateMutability": "view",
      "type": "function"
    },
    {
      "inputs": [],
      "name": "totalAssets",
      "outputs": [
        {
          "internalType": "uint256",
          "name": "",
          "type": "uint256"
        }
      ],
      "stateMutability": "view",
      "type": "function"
    },
    {
      "inputs": [],
      "name": "totalSupply",
      "outputs": [
        {
          "internalType": "uint256",
          "name": "",
          "type": "uint256"
        }
      ],
      "stateMutability": "view",
      "type": "function"
    },
    {
      "inputs": [
        {
          "internalType": "address",
          "name": "to",
          "type": "address"
        },
        {
          "internalType": "uint256",
          "name": "amount",
          "type": "uint256"
        }
      ],
      "name": "transfer",
      "outputs": [
        {
          "internalType": "bool",
          "name": "",
          "type": "bool"
        }
      ],
      "stateMutability": "nonpayable",
      "type": "function"
    },
    {
      "inputs": [
        {
          "internalType": "address",
          "name": "from",
          "type": "address"
        },
        {
          "internalType": "address",
          "name": "to",
          "type": "address"
        },
        {
          "internalType": "uint256",
          "name": "amount",
          "type": "uint256"
        }
      ],
      "name": "transferFrom",
      "outputs": [
        {
          "internalType": "bool",
          "name": "",
          "type": "bool"
        }
      ],
      "stateMutability": "nonpayable",
      "type": "function"
    },
    {
      "inputs": [
        {
          "internalType": "address",
          "name": "newOwner",
          "type": "address"
        }
      ],
      "name": "transferOwnership",
      "outputs": [],
      "stateMutability": "nonpayable",
      "type": "function"
    },
    {
      "inputs": [
        {
          "internalType": "uint256",
          "name": "assets",
          "type": "uint256"
        },
        {
          "internalType": "address",
          "name": "receiver",
          "type": "address"
        },
        {
          "internalType": "address",
          "name": "owner",
          "type": "address"
        }
      ],
      "name": "withdraw",
      "outputs": [
        {
          "internalType": "uint256",
          "name": "shares",
          "type": "uint256"
        }
      ],
      "stateMutability": "nonpayable",
      "type": "function"
    }
  ],
  "transactionHash": "0x6b0d51a1038d0ed3fe5635315f7ac58de588071372158b132ef5c595e4d9400d",
  "args": [],
  "numDeployments": 1,
  "solcInputHash": "e3ead9d9b47cf5bb595297a5af6dff39",
  "bytecode": "0x60806040526103e860985534801561001657600080fd5b50615f8480620000276000396000f3fe608060405234801561001057600080fd5b506004361061032b5760003560e01c80638da5cb5b116101b2578063bf9571f1116100f9578063db021040116100a2578063ef8b30f71161007c578063ef8b30f714610676578063f04f270714610689578063f2fde38b1461069c578063f3a897c0146106af57600080fd5b8063db02104014610617578063dd62ed3e1461062a578063e74b981b1461066357600080fd5b8063ce96cb77116100d3578063ce96cb77146105e9578063d627b530146105fc578063d905777e1461060457600080fd5b8063bf9571f1146105ce578063c63d75b614610423578063c6e6f592146105d657600080fd5b8063b3d7f6b91161015b578063ba08765211610135578063ba08765214610595578063ba9e9a66146105a8578063bb594433146105bb57600080fd5b8063b3d7f6b914610558578063b460af941461056b578063b6ac642a1461058257600080fd5b806395e2da7c1161018c57806395e2da7c1461052a578063a457c2d714610532578063a9059cbb1461054557600080fd5b80638da5cb5b146104fe57806394bf804d1461050f57806395d89b411461052257600080fd5b8063402d267d11610276578063748747e61161021f57806386651203116101f957806386651203146104d05780638b229ba6146104e35780638d315d7b146104f657600080fd5b8063748747e6146104a2578063757f9396146104b55780637d7c2a1c146104c857600080fd5b80636e553f65116102505780636e553f651461045e57806370a0823114610471578063715018a61461049a57600080fd5b8063402d267d146104235780634cdad50614610438578063554070bc1461044b57600080fd5b806318160ddd116102d857806338d52e0f116102b257806338d52e0f146103dd57806339509351146104085780633d672a451461041b57600080fd5b806318160ddd146103b357806323b872dd146103bb578063313ce567146103ce57600080fd5b8063095ea7b311610309578063095ea7b3146103735780630a28a47714610396578063138cc18f146103a957600080fd5b806301e1d1141461033057806306fdde031461034b57806307a2d13a14610360575b600080fd5b6103386106c2565b6040519081526020015b60405180910390f35b6103536107ab565b60405161034291906152d7565b61033861036e3660046152ea565b61083d565b610386610381366004615318565b610872565b6040519015158152602001610342565b6103386103a43660046152ea565b61088c565b6103b16108b4565b005b603554610338565b6103866103c9366004615344565b610d26565b60405160128152602001610342565b6065546103f0906001600160a01b031681565b6040516001600160a01b039091168152602001610342565b610386610416366004615318565b610d4a565b610338610d89565b610338610431366004615385565b5060001990565b6103386104463660046152ea565b610ea3565b6103386104593660046152ea565b610eae565b61033861046c3660046153a2565b610ecf565b61033861047f366004615385565b6001600160a01b031660009081526033602052604090205490565b6103b1610ee3565b6103b16104b0366004615385565b610ef7565b6103b16104c33660046153d2565b610f54565b6103b1610ff4565b6103b16104de3660046152ea565b6110ee565b6103b16104f136600461543d565b61112b565b610338611865565b6066546001600160a01b03166103f0565b61033861051d3660046153a2565b6118bf565b6103536118d3565b6103386118e2565b610386610540366004615318565b611964565b610386610553366004615318565b6119f6565b6103386105663660046152ea565b611a04565b610338610579366004615512565b60009392505050565b6103b16105903660046152ea565b611a2b565b6103386105a3366004615512565b611a68565b6103b16105b6366004615385565b611ba7565b6103b16105c9366004615554565b611bfd565b6103b1611cdd565b6103386105e43660046152ea565b6123cb565b6103386105f7366004615385565b6123f3565b610386612415565b610338610612366004615385565b61242d565b6103b1610625366004615385565b61244b565b610338610638366004615566565b6001600160a01b03918216600090815260346020908152604080832093909416825291909152205490565b6103b1610671366004615385565b6124a1565b6103386106843660046152ea565b612530565b6103b1610697366004615704565b61253b565b6103b16106aa366004615385565b612756565b6103b16106bd36600461580f565b6127cc565b60b95460408051635841507560e01b815290516000926001600160a01b03169163584150759160048083019260209291908290030181865afa15801561070c573d6000803e3d6000fd5b505050506040513d601f19601f820116820180604052508101906107309190615821565b60b0546040516370a0823160e01b81523060048201526001600160a01b03909116906370a0823190602401602060405180830381865afa158015610778573d6000803e3d6000fd5b505050506040513d601f19601f8201168201806040525081019061079c9190615821565b6107a69190615850565b905090565b6060603680546107ba90615868565b80601f01602080910402602001604051908101604052809291908181526020018280546107e690615868565b80156108335780601f1061080857610100808354040283529160200191610833565b820191906000526020600020905b81548152906001019060200180831161081657829003601f168201915b5050505050905090565b60008061084960355490565b905080156108695761086461085c6106c2565b84908361289d565b61086b565b825b9392505050565b6000336108808185856128bc565b60019150505b92915050565b60008061089860355490565b9050801561086957610864816108ac6106c2565b8591906129e0565b60b85460405163185b800160e11b815260006004820181905260248201819052600160448301819052606483018190526084830181905260a483015260c48201526001600160a01b03909116906330b700029060e401600060405180830381600087803b15801561092457600080fd5b505af1158015610938573d6000803e3d6000fd5b5050609e54609d5460b4546040516370a0823160e01b81523060048201526000955092935090916001600160a01b03909116906370a0823190602401602060405180830381865afa158015610991573d6000803e3d6000fd5b505050506040513d601f19601f820116820180604052508101906109b59190615821565b6109bf919061589d565b6109c9919061589d565b905060a054811115610d2357609854600090612710906109e990846158b4565b6109f391906158e9565b905080609d6000828254610a079190615850565b9091555060009050610a19828461589d565b90506000610aaf826c0c9f2c9cd04674edea40000000609a60009054906101000a90046001600160a01b03166001600160a01b031663e3696edd6040518163ffffffff1660e01b81526004016020604051808303816000875af1158015610a84573d6000803e3d6000fd5b505050506040513d601f19601f82011682018060405250810190610aa89190615821565b9190612a0e565b90506000610abd828461589d565b9050600082609e54610acf9190615850565b60b65460b4546040516340d3096b60e11b81526001600160a01b0391821660048201529293506000929116906381a612d690602401602060405180830381865afa158015610b21573d6000803e3d6000fd5b505050506040513d601f19601f82011682018060405250810190610b459190615821565b90506000610b8a60a15461271061ffff16610b60919061589d565b610b6a90846158b4565b610b8261271068fc6f7c40458122964d601f1b6158b4565b869190612a0e565b9050610baf610b9b6012600a6159e1565b610ba76012600a6159e1565b839190612a0e565b60b95460b454604051634ce3696f60e11b81526001600160a01b039182166004820152602481018890526044810184905292935016906399c6d2de906064016020604051808303816000875af1158015610c0d573d6000803e3d6000fd5b505050506040513d601f19601f82011682018060405250810190610c319190615821565b50609f54831115610cdc5760ae54600090610c9a90610c5d90600160a01b900461ffff166127106159ed565b610c6b9061ffff16866158b4565b610c8368fc6f7c40458122964d601f1b6127106158b4565b60b454610aa8906001600160a01b03166001612ac1565b60b454909150600090610cb7906001600160a01b03168684612ccf565b60b254909150610cd0906001600160a01b031682612db6565b50506000609e55610ce2565b609e8390555b60408051878152602081018690527ffa5fc4e614ff1acb4e5e98dccf2a504cb9fb51a469dce5a5eca07ff5491a677b910160405180910390a1505050505050505b50565b600033610d34858285612e2e565b610d3f858585612ec0565b506001949350505050565b3360008181526034602090815260408083206001600160a01b03871684529091528120549091906108809082908690610d84908790615850565b6128bc565b60b75460405163019c8a3b60e11b81526000600482018190529182916001600160a01b0390911690630339147690602401602060405180830381865afa158015610dd7573d6000803e3d6000fd5b505050506040513d601f19601f82011682018060405250810190610dfb9190615821565b9050600060b160009054906101000a90046001600160a01b03166001600160a01b03166318160ddd6040518163ffffffff1660e01b8152600401602060405180830381865afa158015610e52573d6000803e3d6000fd5b505050506040513d601f19601f82011682018060405250810190610e769190615821565b9050610e9c600160801b610e948369d3c21bcecceda10000006158b4565b849190612a0e565b9250505090565b60006108868261083d565b6000610886610ebb61308e565b839068fc6f7c40458122964d601f1b612a0e565b6000610ed96131a1565b61086b83836131d4565b610eeb61328f565b610ef560006132e9565b565b610eff61328f565b609980546001600160a01b0319166001600160a01b0383169081179091556040519081527f0425bcd291db1d48816f2a98edc7ecaf6dd5c64b973d9e4b3b6b750763dc6c2e906020015b60405180910390a150565b610f5c61328f565b610f696020820182615385565b60ac80546001600160a01b0319166001600160a01b0392909216919091179055610f996040820160208301615385565b60ab80546001600160a01b0319166001600160a01b0392909216919091179055604081013560ad55610fd16080820160608301615385565b60ae80546001600160a01b0319166001600160a01b039290921691909117905550565b6099546001600160a01b03163314611039576099546040516329b7946d60e01b81523360048201526001600160a01b0390911660248201526044015b60405180910390fd5b611041612415565b61105e5760405163a039e79960e01b815260040160405180910390fd5b6110666108b4565b60008061107161333b565b9150915060006110818383613420565b905061108c8161349d565b61109e83836110996106c2565b613513565b60a4805468ffffffffffffffff0019166101004267ffffffffffffffff16021790556040517fc741dbaad15a4f298fe8d80943fa8e005e7bcb2f5b0a0c8dec1fc35be457f14690600090a1505050565b6110f661328f565b60a28190556040518181527f333b26cca69716ad4680ddb07663f5bfb4f06045671f336af9a83690a3ae00f990602001610f49565b600054610100900460ff161580801561114b5750600054600160ff909116105b806111655750303b158015611165575060005460ff166001145b6111c85760405162461bcd60e51b815260206004820152602e60248201527f496e697469616c697a61626c653a20636f6e747261637420697320616c72656160448201526d191e481a5b9a5d1a585b1a5e995960921b6064820152608401611030565b6000805460ff1916600117905580156111eb576000805461ff0019166101001790555b6111f36136b8565b6112766112066060850160408601615385565b8b8b8080601f01602080910402602001604051908101604052809392919081815260200183838082843760009201919091525050604080516020601f8f018190048102820181019092528d815292508d91508c90819084018382808284376000920191909152506136e792505050565b6112836020840184615385565b60b480546001600160a01b0319166001600160a01b03929092169190911790556112b36040840160208501615385565b60b580546001600160a01b0319166001600160a01b03929092169190911790556112e36080840160608501615385565b60b280546001600160a01b0319166001600160a01b039290921691909117905561131360a0840160808501615385565b60b380546001600160a01b03199081166001600160a01b039384161790915560ab8054821689841617905560b88054821688841617905560a7805490911684831617905560655460408051633c5103f760e11b8152905191909216916378a207ee9160048281019260209291908290030181865afa158015611399573d6000803e3d6000fd5b505050506040513d601f19601f820116820180604052508101906113bd9190615a1b565b60b180546001600160a01b0319166001600160a01b0392831617905560655460408051633e9b6c6f60e21b81529051919092169163fa6db1bc9160048083019260209291908290030181865afa15801561141b573d6000803e3d6000fd5b505050506040513d601f19601f8201168201806040525081019061143f9190615a1b565b60b780546001600160a01b0319166001600160a01b039283161790556065546040805162af394d60e81b81529051919092169163af394d009160048083019260209291908290030181865afa15801561149c573d6000803e3d6000fd5b505050506040513d601f19601f820116820180604052508101906114c09190615a1b565b60b080546001600160a01b0319166001600160a01b0392831617905560b7546040805163fbfa77cf60e01b81529051919092169163fbfa77cf9160048083019260209291908290030181865afa15801561151e573d6000803e3d6000fd5b505050506040513d601f19601f820116820180604052508101906115429190615a1b565b60b680546001600160a01b03199081166001600160a01b039384161790915560ba805490911686831617905560a7546040805163026b1d5f60e01b81529051919092169163026b1d5f9160048083019260209291908290030181865afa1580156115b0573d6000803e3d6000fd5b505050506040513d601f19601f820116820180604052508101906115d49190615a1b565b60a580546001600160a01b0319166001600160a01b0392831617905560a75460408051631f94a27560e31b81529051919092169163fca513a89160048083019260209291908290030181865afa158015611632573d6000803e3d6000fd5b505050506040513d601f19601f820116820180604052508101906116569190615a1b565b60a680546001600160a01b0319166001600160a01b0392831617905560a55460b2546040516335ea6a7560e01b815290831660048201529116906335ea6a75906024016101e060405180830381865afa1580156116b7573d6000803e3d6000fd5b505050506040513d601f19601f820116820180604052508101906116db9190615aca565b610100015160a880546001600160a01b0319166001600160a01b0392831617905560a55460b5546040516335ea6a7560e01b815290831660048201529116906335ea6a75906024016101e060405180830381865afa158015611741573d6000803e3d6000fd5b505050506040513d601f19601f820116820180604052508101906117659190615aca565b610140015160a980546001600160a01b0319166001600160a01b0392831617905560a55460b4546040516335ea6a7560e01b815290831660048201529116906335ea6a75906024016101e060405180830381865afa1580156117cb573d6000803e3d6000fd5b505050506040513d601f19601f820116820180604052508101906117ef9190615aca565b610140015160aa80546001600160a01b0319166001600160a01b039092169190911790558015611859576000805461ff0019169055604051600181527f7f26b83ff96e1f2b6a682f133852f6798a09c465da95921460cefb38474024989060200160405180910390a15b50505050505050505050565b600080600061187261333b565b9150915060006118828383613420565b905061188d81613715565b60a3546118a361189e6104596106c2565b613715565b6118ad9190615bed565b6118b79190615c2e565b935050505090565b60006118c96131a1565b61086b8383613759565b6060603780546107ba90615868565b60a35460a8546040516370a0823160e01b81523060048201526000929161195a916001600160a01b03909116906370a08231906024015b602060405180830381865afa158015611936573d6000803e3d6000fd5b505050506040513d601f19601f8201168201806040525081019061189e9190615821565b6107a69190615c2e565b3360008181526034602090815260408083206001600160a01b0387168452909152812054909190838110156119e95760405162461bcd60e51b815260206004820152602560248201527f45524332303a2064656372656173656420616c6c6f77616e63652062656c6f77604482015264207a65726f60d81b6064820152608401611030565b610d3f82868684036128bc565b600033610880818585612ec0565b600080611a1060355490565b9050801561086957610864611a236106c2565b8490836129e0565b611a3361328f565b609c8190556040518181527f9a1f74aeeb037eb3d45b22a56376dadd6ba6ded25ec3727e520415f6c76768a990602001610f49565b6000611a726131a1565b336001600160a01b03831614611ac0576001600160a01b03821660009081526034602090815260408083203384529091529020546000198114611abe57611abe8333610d84888561589d565b505b611ac984610ea3565b905080611b065760405162461bcd60e51b815260206004820152600b60248201526a5a45524f5f41535345545360a81b6044820152606401611030565b609c54600090611b2690611b1c9061271061589d565b8390612710612a0e565b9050611b338186866137da565b611b3d8386613808565b60408051828152602081018790526001600160a01b03808616929087169133917ffbde797d201c681b91056529119e0b02407c7bb96a4a2c75c01fc9667232c8db910160405180910390a4606554611b9f906001600160a01b03168583613956565b509392505050565b611baf61328f565b60b980546001600160a01b0319166001600160a01b0383169081179091556040519081527f9d2850ff561076853ce9dd9bf763580841b1e3a5ec11bc4d54736f793eeeb70190602001610f49565b611c0561328f565b611c126020820182615c6d565b60ae805461ffff92909216600160a01b0261ffff60a01b19909216919091179055611c436040820160208301615c8a565b60af80547fffff000000000000000000000000000000000000000000000000000000000000166001600160f01b0392909216919091179055604081018035609f81905590611c949060208401615c8a565b6001600160f01b0316611caa6020840184615c6d565b61ffff167f6f2f774175bcaf77f80c8a859de1a0c38c9e9e0367cff60dea1234233f14654d60405160405180910390a450565b611ce561328f565b60a55460ab5460ba5460b55460405163095ea7b360e01b81526001600160a01b039485166004820181905260001960248301529493841693928316929091169063095ea7b3906044016020604051808303816000875af1158015611d4d573d6000803e3d6000fd5b505050506040513d601f19601f82011682018060405250810190611d719190615cc3565b5060b55460405163095ea7b360e01b81526001600160a01b03838116600483015260001960248301529091169063095ea7b3906044016020604051808303816000875af1158015611dc6573d6000803e3d6000fd5b505050506040513d601f19601f82011682018060405250810190611dea9190615cc3565b5060b45460405163095ea7b360e01b81526001600160a01b03858116600483015260001960248301529091169063095ea7b3906044016020604051808303816000875af1158015611e3f573d6000803e3d6000fd5b505050506040513d601f19601f82011682018060405250810190611e639190615cc3565b5060b45460405163095ea7b360e01b81526001600160a01b03848116600483015260001960248301529091169063095ea7b3906044016020604051808303816000875af1158015611eb8573d6000803e3d6000fd5b505050506040513d601f19601f82011682018060405250810190611edc9190615cc3565b5060b45460b95460405163095ea7b360e01b81526001600160a01b039182166004820152600019602482015291169063095ea7b3906044016020604051808303816000875af1158015611f33573d6000803e3d6000fd5b505050506040513d601f19601f82011682018060405250810190611f579190615cc3565b5060b25460405163095ea7b360e01b81526001600160a01b03858116600483015260001960248301529091169063095ea7b3906044016020604051808303816000875af1158015611fac573d6000803e3d6000fd5b505050506040513d601f19601f82011682018060405250810190611fd09190615cc3565b5060b25460405163095ea7b360e01b81526001600160a01b03848116600483015260001960248301529091169063095ea7b3906044016020604051808303816000875af1158015612025573d6000803e3d6000fd5b505050506040513d601f19601f820116820180604052508101906120499190615cc3565b5060b25460b95460405163095ea7b360e01b81526001600160a01b039182166004820152600019602482015291169063095ea7b3906044016020604051808303816000875af11580156120a0573d6000803e3d6000fd5b505050506040513d601f19601f820116820180604052508101906120c49190615cc3565b5060b35460405163095ea7b360e01b81526001600160a01b038381166004830152600060248301529091169063095ea7b3906044016020604051808303816000875af1158015612118573d6000803e3d6000fd5b505050506040513d601f19601f8201168201806040525081019061213c9190615cc3565b5060b35460405163095ea7b360e01b81526001600160a01b038481166004830152600060248301529091169063095ea7b3906044016020604051808303816000875af1158015612190573d6000803e3d6000fd5b505050506040513d601f19601f820116820180604052508101906121b49190615cc3565b5060b35460405163095ea7b360e01b81526001600160a01b03838116600483015260001960248301529091169063095ea7b3906044016020604051808303816000875af1158015612209573d6000803e3d6000fd5b505050506040513d601f19601f8201168201806040525081019061222d9190615cc3565b5060b35460405163095ea7b360e01b81526001600160a01b03848116600483015260001960248301529091169063095ea7b3906044016020604051808303816000875af1158015612282573d6000803e3d6000fd5b505050506040513d601f19601f820116820180604052508101906122a69190615cc3565b5060a854609a5460405163095ea7b360e01b81526001600160a01b039182166004820152600019602482015291169063095ea7b3906044016020604051808303816000875af11580156122fd573d6000803e3d6000fd5b505050506040513d601f19601f820116820180604052508101906123219190615cc3565b5060655460b75460405163095ea7b360e01b81526001600160a01b039182166004820152600019602482015291169063095ea7b3906044016020604051808303816000875af1158015612378573d6000803e3d6000fd5b505050506040513d601f19601f8201168201806040525081019061239c9190615cc3565b506040517fba5bb3f899c7a3edcc9ff9d46c4e08449c6a608b6f8254132bc5af4898645cbc90600090a1505050565b6000806123d760355490565b9050801561086957610864816123eb6106c2565b85919061289d565b6001600160a01b0381166000908152603360205260408120546108869061083d565b600061241f6139b9565b806107a657506107a66139ec565b6001600160a01b038116600090815260336020526040812054610886565b61245361328f565b609a80546001600160a01b0319166001600160a01b0383169081179091556040519081527fb6c62db913ccc78e8f2bb453c48c439dc86445188f333c52fe0638a0e3ea1b1390602001610f49565b6124a961328f565b609b546001600160a01b038281169116146124de57609b80546001600160a01b0319166001600160a01b0383161790556124f7565b604051630ed1b8b360e31b815260040160405180910390fd5b6040516001600160a01b03821681527f7a7b5a0a132f9e0581eb8527f66eae9ee89c2a3e79d4ac7e41a1f1f4d48a7fc290602001610f49565b6000610886826123cb565b60ac546001600160a01b031633146125665760405163f4a8e62160e01b815260040160405180910390fd5b60a45460ff1661258957604051637869c16160e11b815260040160405180910390fd5b600080600080600080868060200190518101906125a69190615cde565b9550955095509550955095506000808380156125bf5750825b1561263c5761260d888c6000815181106125db576125db615d36565b60200260200101518c6000815181106125f6576125f6615d36565b6020026020010151612a0e9092919063ffffffff16565b9150818a60008151811061262357612623615d36565b6020026020010151612635919061589d565b9050612716565b60008461267c5760b5548d516001600160a01b03909116908e9060009061266557612665615d36565b60200260200101516001600160a01b0316146126b1565b60b2548d516001600160a01b03909116908e9060009061269e5761269e615d36565b60200260200101516001600160a01b0316145b156126ba575060015b8a816126c75760016126ca565b60005b60ff16815181106126dd576126dd615d36565b602002602001015192508a816126f45760006126f7565b60015b60ff168151811061270a5761270a615d36565b60200260200101519150505b60b55461272f906001600160a01b031689898588613a39565b60b454612748906001600160a01b031687878487613a39565b505050505050505050505050565b61275e61328f565b6001600160a01b0381166127c35760405162461bcd60e51b815260206004820152602660248201527f4f776e61626c653a206e6577206f776e657220697320746865207a65726f206160448201526564647265737360d01b6064820152608401611030565b610d23816132e9565b6127d461328f565b6127e16020820182615d4c565b60a4805463ffffffff92909216600160481b026cffffffff0000000000000000001990921691909117905561281c6040820160208301615c6d565b60a4805461ffff92909216600160681b026effff00000000000000000000000000199092169190911790556128576040820160208301615c6d565b61ffff166128686020830183615d4c565b63ffffffff167fb3afb3dd9d92356112ae0253f1ee685bfd20d80cfe8c50433c64dcf5ef9dcba260405160405180910390a350565b8282028115158415858304851417166128b557600080fd5b0492915050565b6001600160a01b03831661291e5760405162461bcd60e51b8152602060048201526024808201527f45524332303a20617070726f76652066726f6d20746865207a65726f206164646044820152637265737360e01b6064820152608401611030565b6001600160a01b03821661297f5760405162461bcd60e51b815260206004820152602260248201527f45524332303a20617070726f766520746f20746865207a65726f206164647265604482015261737360f01b6064820152608401611030565b6001600160a01b0383811660008181526034602090815260408083209487168084529482529182902085905590518481527f8c5be1e5ebec7d5bd14f71427d1e84f3dd0314c0f7b2291e5b200ac8c7c3b925910160405180910390a3505050565b8282028115158415858304851417166129f857600080fd5b6001826001830304018115150290509392505050565b600080806000198587098587029250828110838203039150508060001415612a485760008411612a3d57600080fd5b50829004905061086b565b808411612a5457600080fd5b6000848688096000868103871696879004966002600389028118808a02820302808a02820302808a02820302808a02820302808a02820302808a02909103029181900381900460010186841190950394909402919094039290920491909117919091029150509392505050565b600080836001600160a01b031663313ce5676040518163ffffffff1660e01b8152600401602060405180830381865afa158015612b02573d6000803e3d6000fd5b505050506040513d601f19601f82011682018060405250810190612b269190615d72565b60a65460405163b3596f0760e01b81526001600160a01b03878116600483015260ff9390931693506000929091169063b3596f0790602401602060405180830381865afa158015612b7b573d6000803e3d6000fd5b505050506040513d601f19601f82011682018060405250810190612b9f9190615821565b9050600084612c205760a65460b35460405163b3596f0760e01b81526001600160a01b03918216600482015291169063b3596f0790602401602060405180830381865afa158015612bf4573d6000803e3d6000fd5b505050506040513d601f19601f82011682018060405250810190612c189190615821565b905080612c94565b60a65460b25460405163b3596f0760e01b81526001600160a01b03918216600482015291169063b3596f0790602401602060405180830381865afa158015612c6c573d6000803e3d6000fd5b505050506040513d601f19601f82011682018060405250810190612c909190615821565b9050805b50612cc568fc6f7c40458122964d601f1b612cb060068661589d565b612cbb90600a6159e1565b610e9490846158b4565b9695505050505050565b60b5546000906001600160a01b0385811691161415612cf957612cf28383613c0f565b905061086b565b60408051610100810182526001600160a01b03808716825260b254811660208301526101f48284015230606083015242608083015260a0820186905260c08201859052600060e083015260ab54925163414bf38960e01b81529192169063414bf38990612d6a908490600401615d95565b6020604051808303816000875af1158015612d89573d6000803e3d6000fd5b505050506040513d601f19601f82011682018060405250810190612dad9190615821565b95945050505050565b60a55460405163617ba03760e01b81526001600160a01b03848116600483015260248201849052306044830152600060648301529091169063617ba037906084015b600060405180830381600087803b158015612e1257600080fd5b505af1158015612e26573d6000803e3d6000fd5b505050505050565b6001600160a01b038381166000908152603460209081526040808320938616835292905220546000198114612eba5781811015612ead5760405162461bcd60e51b815260206004820152601d60248201527f45524332303a20696e73756666696369656e7420616c6c6f77616e63650000006044820152606401611030565b612eba84848484036128bc565b50505050565b6001600160a01b038316612f245760405162461bcd60e51b815260206004820152602560248201527f45524332303a207472616e736665722066726f6d20746865207a65726f206164604482015264647265737360d81b6064820152608401611030565b6001600160a01b038216612f865760405162461bcd60e51b815260206004820152602360248201527f45524332303a207472616e7366657220746f20746865207a65726f206164647260448201526265737360e81b6064820152608401611030565b6001600160a01b03831660009081526033602052604090205481811015612ffe5760405162461bcd60e51b815260206004820152602660248201527f45524332303a207472616e7366657220616d6f756e7420657863656564732062604482015265616c616e636560d01b6064820152608401611030565b6001600160a01b03808516600090815260336020526040808220858503905591851681529081208054849290613035908490615850565b92505081905550826001600160a01b0316846001600160a01b03167fddf252ad1be2c89b69c2b068fc378daa952ba7f163c4a11628f55a4df523b3ef8460405161308191815260200190565b60405180910390a3612eba565b60b75460405163019c8a3b60e11b81526000600482018190529182916001600160a01b0390911690630339147690602401602060405180830381865afa1580156130dc573d6000803e3d6000fd5b505050506040513d601f19601f820116820180604052508101906131009190615821565b9050600060b160009054906101000a90046001600160a01b03166001600160a01b03166318160ddd6040518163ffffffff1660e01b8152600401602060405180830381865afa158015613157573d6000803e3d6000fd5b505050506040513d601f19601f8201168201806040525081019061317b9190615821565b9050610e9c68fc6f7c40458122964d601f1b610e948369d3c21bcecceda10000006158b4565b6131a96108b4565b6000806131b461333b565b9150915060006131c48383613420565b90506131cf8161349d565b505050565b60006131df83612530565b90508061321c5760405162461bcd60e51b815260206004820152600b60248201526a5a45524f5f53484152455360a81b6044820152606401611030565b606554613234906001600160a01b0316333086613d02565b61323e8282613d3a565b60408051848152602081018390526001600160a01b0384169133917fdcbc1c05240f31ff3ad067ef1ee35ce4997762752e3a095284754544f4c709d7910160405180910390a3610886838284613e19565b6066546001600160a01b03163314610ef55760405162461bcd60e51b815260206004820181905260248201527f4f776e61626c653a2063616c6c6572206973206e6f7420746865206f776e65726044820152606401611030565b606680546001600160a01b038381166001600160a01b0319831681179093556040519116919082907f8be0079c531659141344cd1fd0a4f28419497f9722a3daafe3b4186f6b6457e090600090a35050565b60a9546040516370a0823160e01b815230600482015260009182916001600160a01b03909116906370a0823190602401602060405180830381865afa158015613388573d6000803e3d6000fd5b505050506040513d601f19601f820116820180604052508101906133ac9190615821565b60aa546040516370a0823160e01b81523060048201526001600160a01b03909116906370a0823190602401602060405180830381865afa1580156133f4573d6000803e3d6000fd5b505050506040513d601f19601f820116820180604052508101906134189190615821565b915091509091565b60b45460009061343c90610ebb906001600160a01b0316613e5f565b60b55461346990613455906001600160a01b0316613e5f565b859068fc6f7c40458122964d601f1b612a0e565b6134739190615850565b60b25490915061086b9068fc6f7c40458122964d601f1b90610ba7906001600160a01b0316613e5f565b60006134a882613715565b905060a3548113156134e9576134cd61189e60a354836134c89190615c2e565b613f6d565b60a360008282546134de9190615bed565b9091555061350f9050565b60a35481121561350f576135098160a3546135049190615c2e565b614103565b60a38190555b5050565b60008061351f836142e2565b91509150600061352f8383613420565b60b25490915060009061354a906001600160a01b031661431d565b9050600061356183838460ad54610aa8919061589d565b60a35460a8546040516370a0823160e01b815230600482015292935060009261359c916001600160a01b0316906370a0823190602401611919565b6135a69190615c2e565b90508082111561362c57609a546001600160a01b031663c5ebeaec6135cb838561589d565b6040518263ffffffff1660e01b81526004016135e991815260200190565b600060405180830381600087803b15801561360357600080fd5b505af1158015613617573d6000803e3d6000fd5b50505050613627868a878b61439e565b6136ad565b613638868a878b61439e565b6136418461349d565b609a546001600160a01b031663371fd8e661365c848461589d565b6040518263ffffffff1660e01b815260040161367a91815260200190565b600060405180830381600087803b15801561369457600080fd5b505af11580156136a8573d6000803e3d6000fd5b505050505b505050505050505050565b600054610100900460ff166136df5760405162461bcd60e51b815260040161103090615e03565b610ef5614766565b6136f18282614796565b5050606580546001600160a01b0319166001600160a01b0392909216919091179055565b6000600160ff1b82106137555760405162461bcd60e51b81526020600482015260086024820152674f766572666c6f7760c01b6044820152606401611030565b5090565b600061376483611a04565b60655490915061377f906001600160a01b0316333084613d02565b6137898284613d3a565b60408051828152602081018590526001600160a01b0384169133917fdcbc1c05240f31ff3ad067ef1ee35ce4997762752e3a095284754544f4c709d7910160405180910390a3610886818484613e19565b6000806137e561333b565b915091506138018282876137f76106c2565b611099919061589d565b5050505050565b6001600160a01b0382166138685760405162461bcd60e51b815260206004820152602160248201527f45524332303a206275726e2066726f6d20746865207a65726f206164647265736044820152607360f81b6064820152608401611030565b6001600160a01b038216600090815260336020526040902054818110156138dc5760405162461bcd60e51b815260206004820152602260248201527f45524332303a206275726e20616d6f756e7420657863656564732062616c616e604482015261636560f01b6064820152608401611030565b6001600160a01b038316600090815260336020526040812083830390556035805484929061390b90849061589d565b90915550506040518281526000906001600160a01b038516907fddf252ad1be2c89b69c2b068fc378daa952ba7f163c4a11628f55a4df523b3ef9060200160405180910390a3505050565b6040516001600160a01b0383166024820152604481018290526131cf90849063a9059cbb60e01b906064015b60408051601f198184030181529190526020810180516001600160e01b03166001600160e01b0319909316929092179091526147c7565b60a454600090600160481b810463ffffffff16906139e690610100900467ffffffffffffffff164261589d565b11905090565b60008060006139f961333b565b91509150600080613a10613a0b6106c2565b6142e2565b91509150613a1e8285614899565b8015613a2f5750613a2f8184614899565b1594505050505090565b80613b1b576000613a4a8386615850565b90506000613a59878787612ccf565b60b254909150613a72906001600160a01b031682612db6565b613a7c87836148e2565b60ac5460405163a9059cbb60e01b81526001600160a01b039182166004820152602481018490529088169063a9059cbb906044016020604051808303816000875af1158015613acf573d6000803e3d6000fd5b505050506040513d601f19601f82011682018060405250810190613af39190615cc3565b50613afd81613715565b60a36000828254613b0e9190615bed565b9091555061380192505050565b600080613b2987878761492f565b90925090506000613b3a8584615850565b9050613b4581613715565b60a36000828254613b569190615c2e565b90915550613b6690508883614d0f565b60b254613b7d906001600160a01b03168230614d93565b60b25460ac546001600160a01b039182169163a9059cbb9116613ba0888a615850565b6040516001600160e01b031960e085901b1681526001600160a01b03909216600483015260248201526044016020604051808303816000875af1158015613beb573d6000803e3d6000fd5b505050506040513d601f19601f820116820180604052508101906136ad9190615cc3565b60ba5460405163394747c560e01b815260016004820152600060248201819052604482018590526064820181905260848201819052916001600160a01b03169063394747c59060a401600060405180830381600087803b158015613c7257600080fd5b505af1158015613c86573d6000803e3d6000fd5b505060b3546040516370a0823160e01b815230600482015261086b93506001600160a01b03909116915081906370a0823190602401602060405180830381865afa158015613cd8573d6000803e3d6000fd5b505050506040513d601f19601f82011682018060405250810190613cfc9190615821565b84612ccf565b6040516001600160a01b0380851660248301528316604482015260648101829052612eba9085906323b872dd60e01b90608401613982565b6001600160a01b038216613d905760405162461bcd60e51b815260206004820152601f60248201527f45524332303a206d696e7420746f20746865207a65726f2061646472657373006044820152606401611030565b8060356000828254613da29190615850565b90915550506001600160a01b03821660009081526033602052604081208054839290613dcf908490615850565b90915550506040518181526001600160a01b038316906000907fddf252ad1be2c89b69c2b068fc378daa952ba7f163c4a11628f55a4df523b3ef9060200160405180910390a35050565b60a254613e246106c2565b1115613e43576040516324d758c360e21b815260040160405180910390fd5b600080613e4e61333b565b9150915061380182826110996106c2565b600080826001600160a01b031663313ce5676040518163ffffffff1660e01b8152600401602060405180830381865afa158015613ea0573d6000803e3d6000fd5b505050506040513d601f19601f82011682018060405250810190613ec49190615d72565b60a65460405163b3596f0760e01b81526001600160a01b03868116600483015260ff9390931693506000929091169063b3596f0790602401602060405180830381865afa158015613f19573d6000803e3d6000fd5b505050506040513d601f19601f82011682018060405250810190613f3d9190615821565b9050613f6568fc6f7c40458122964d601f1b613f5a846002615850565b610ba790600a6159e1565b949350505050565b60af546000906001600160f01b0316821015613f8b57506000919050565b6000613fad68fc6f7c40458122964d601f1b613fa561308e565b859190612a0e565b60b85460b25460ae549293506001600160a01b0391821692630f3aa55492909116908490613ffa90613fec90600160a01b900461ffff166127106159ed565b889061ffff16612710612a0e565b6040516001600160e01b031960e086901b1681526001600160a01b039093166004840152602483019190915260448201523060648201526084016020604051808303816000875af1158015614053573d6000803e3d6000fd5b505050506040513d601f19601f820116820180604052508101906140779190615821565b5060b2546040516370a0823160e01b81523060048201526001600160a01b03909116906370a0823190602401602060405180830381865afa1580156140c0573d6000803e3d6000fd5b505050506040513d601f19601f820116820180604052508101906140e49190615821565b60b2549092506140fd906001600160a01b031683612db6565b50919050565b60b25461411a906001600160a01b03168230614d93565b60b65460b2546040516340d3096b60e11b81526001600160a01b03918216600482015260009291909116906381a612d690602401602060405180830381865afa15801561416b573d6000803e3d6000fd5b505050506040513d601f19601f8201168201806040525081019061418f9190615821565b905060006141cc60a15461271061ffff166141aa919061589d565b6141b490846158b4565b613fa561271068fc6f7c40458122964d601f1b6158b4565b905061425f6141dd6012600a6159e1565b60b260009054906101000a90046001600160a01b03166001600160a01b031663313ce5676040518163ffffffff1660e01b8152600401602060405180830381865afa158015614230573d6000803e3d6000fd5b505050506040513d601f19601f820116820180604052508101906142549190615d72565b610ba790600a615e4e565b60b95460b254604051634ce3696f60e11b81526001600160a01b039182166004820152602481018790526044810184905292935016906399c6d2de906064015b6020604051808303816000875af11580156142be573d6000803e3d6000fd5b505050506040513d601f19601f82011682018060405250810190612eba9190615821565b60b55460009081906142fd906001600160a01b031684614dd4565b60b454909250614316906001600160a01b031684614dd4565b9050915091565b60a55460405163c44b11f760e01b81526001600160a01b038381166004830152600092839291169063c44b11f790602401602060405180830381865afa15801561436b573d6000803e3d6000fd5b505050506040513d601f19601f8201168201806040525081019061438f9190615e5d565b5160101c61ffff169392505050565b60b5546060908190600090819081906143c1906001600160a01b03168a8a614efe565b60b4549295509093509150600090819081906143e7906001600160a01b03168b8b614efe565b9250925092508560001480156143fb575082155b1561440d575050505050505050612eba565b60008461441a578661441c565b855b905060008261442b578461442d565b835b90508580156144395750825b156144e45760408051600180825281830190925290602080830190803683375050604080516001808252818301909252929c50905060208083019080368337505060b2548c51929b506001600160a01b0316918c915060009061449e5761449e615d36565b6001600160a01b03909216602092830291909101909101526144c08183615850565b896000815181106144d3576144d3615d36565b602002602001018181525050614746565b60408051600280825260608201835290916020830190803683375050604080516002808252606082018352939d509291506020830190803683370190505098508561453a5760b5546001600160a01b0316614547565b60b2546001600160a01b03165b8a60008151811061455a5761455a615d36565b60200260200101906001600160a01b031690816001600160a01b031681525050826145905760b4546001600160a01b031661459d565b60b2546001600160a01b03165b8a6001815181106145b0576145b0615d36565b60200260200101906001600160a01b031690816001600160a01b031681525050896001815181106145e3576145e3615d36565b60200260200101516001600160a01b03168a60008151811061460757614607615d36565b60200260200101516001600160a01b031611156147055760008a60008151811061463357614633615d36565b602002602001015190508a60018151811061465057614650615d36565b60200260200101518b60008151811061466b5761466b615d36565b60200260200101906001600160a01b031690816001600160a01b031681525050808b60018151811061469f5761469f615d36565b60200260200101906001600160a01b031690816001600160a01b031681525050818a6000815181106146d3576146d3615d36565b602002602001018181525050828a6001815181106146f3576146f3615d36565b60200260200101818152505050614746565b818960008151811061471957614719615d36565b602002602001018181525050808960018151811061473957614739615d36565b6020026020010181815250505b6147568a8a8a8a89898c8a614fad565b5050505050505050505050505050565b600054610100900460ff1661478d5760405162461bcd60e51b815260040161103090615e03565b610ef5336132e9565b600054610100900460ff166147bd5760405162461bcd60e51b815260040161103090615e03565b61350f828261509d565b600061481c826040518060400160405280602081526020017f5361666545524332303a206c6f772d6c6576656c2063616c6c206661696c6564815250856001600160a01b03166150eb9092919063ffffffff16565b8051909150156131cf578080602001905181019061483a9190615cc3565b6131cf5760405162461bcd60e51b815260206004820152602a60248201527f5361666545524332303a204552433230206f7065726174696f6e20646964206e6044820152691bdd081cdd58d8d9595960b21b6064820152608401611030565b6000808284116148b2576148ad848461589d565b6148bc565b6148bc838561589d565b60a4549091506148da90600160681b900461ffff1684612710612a0e565b119392505050565b60a55460405163a415bcad60e01b81526001600160a01b0384811660048301526024820184905260026044830152600060648301523060848301529091169063a415bcad9060a401612df8565b60b55460009081906001600160a01b0386811691161415614c495760ae546000906149a89061496b90600290600160a01b900461ffff16615e79565b61497790612710615e9a565b6149859061ffff16876158b4565b61499d68fc6f7c40458122964d601f1b6127106158b4565b610aa8896000612ac1565b604080516101008101825260b2546001600160a01b03908116825260b354811660208301526101f48284015230606083015242608083015260a0820184905260c08201889052600060e083015260ab549251631b67c43360e31b8152939450909291169063db3e219890614a20908490600401615d95565b6020604051808303816000875af1158015614a3f573d6000803e3d6000fd5b505050506040513d601f19601f82011682018060405250810190614a639190615821565b60b5546040516370a0823160e01b81523060048201529195506000916001600160a01b03909116906370a0823190602401602060405180830381865afa158015614ab1573d6000803e3d6000fd5b505050506040513d601f19601f82011682018060405250810190614ad59190615821565b60ba5460b3546040516370a0823160e01b81523060048201529293506001600160a01b039182169263394747c5926000926001929116906370a0823190602401602060405180830381865afa158015614b32573d6000803e3d6000fd5b505050506040513d601f19601f82011682018060405250810190614b569190615821565b6040516001600160e01b031960e086901b168152600481019390935260248301919091526044820152600060648201819052608482015260a401600060405180830381600087803b158015614baa57600080fd5b505af1158015614bbe573d6000803e3d6000fd5b505060b5546040516370a0823160e01b8152306004820152600093508492506001600160a01b03909116906370a0823190602401602060405180830381865afa158015614c0f573d6000803e3d6000fd5b505050506040513d601f19601f82011682018060405250810190614c339190615821565b614c3d919061589d565b9450614d079350505050565b604080516101008101825260b2546001600160a01b03908116825260b454811660208301526101f48284015230606083015242608083015260a0820187905260c08201869052600060e083015260ab549251631b67c43360e31b81529192169063db3e219890614cbd908490600401615d95565b6020604051808303816000875af1158015614cdc573d6000803e3d6000fd5b505050506040513d601f19601f82011682018060405250810190614d009190615821565b9250849150505b935093915050565b60a55460405163573ade8160e01b81526001600160a01b03848116600483015260248201849052600260448301523060648301529091169063573ade81906084016020604051808303816000875af1158015614d6f573d6000803e3d6000fd5b505050506040513d601f19601f820116820180604052508101906131cf9190615821565b60a554604051631a4ca37b60e21b81526001600160a01b038581166004830152602482018590528381166044830152909116906369328dec9060640161429f565b60b654604051632acbceb560e21b81526001600160a01b038481166004830152600092839291169063ab2f3ad490602401602060405180830381865afa158015614e22573d6000803e3d6000fd5b505050506040513d601f19601f82011682018060405250810190614e469190615821565b9050600060b660009054906101000a90046001600160a01b03166001600160a01b031663dc8f5fac6040518163ffffffff1660e01b8152600401602060405180830381865afa158015614e9d573d6000803e3d6000fd5b505050506040513d601f19601f82011682018060405250810190614ec19190615821565b90506000614ecd61308e565b90506000614eda87613e5f565b9050614ef3614ee983886158b4565b610b8283866158b4565b979650505050505050565b600080600083851115614f7257614f15848661589d565b60ae54909350614f6790614f3690600160a01b900461ffff166127106159ed565b614f449061ffff16856158b4565b614f5c68fc6f7c40458122964d601f1b6127106158b4565b610aa8896001612ac1565b915060009050614fa4565b614f7c858561589d565b60ae54909350614f9d90614f3690600160a01b900461ffff16612710615e9a565b9150600190505b93509350939050565b8651885114614fcf576040516307e11acb60e51b815260040160405180910390fd5b60a4805460ff1916600117905560ac546040805160208101899052908101879052606081018690526080810185905283151560a082015282151560c08201526001600160a01b0390911690635c38449e9030908b908b9060e0016040516020818303038152906040526040518563ffffffff1660e01b81526004016150579493929190615ec0565b600060405180830381600087803b15801561507157600080fd5b505af1158015615085573d6000803e3d6000fd5b505060a4805460ff1916905550505050505050505050565b600054610100900460ff166150c45760405162461bcd60e51b815260040161103090615e03565b81516150d79060369060208501906151ef565b5080516131cf9060379060208401906151ef565b6060613f658484600085856001600160a01b0385163b61514d5760405162461bcd60e51b815260206004820152601d60248201527f416464726573733a2063616c6c20746f206e6f6e2d636f6e74726163740000006044820152606401611030565b600080866001600160a01b031685876040516151699190615f5b565b60006040518083038185875af1925050503d80600081146151a6576040519150601f19603f3d011682016040523d82523d6000602084013e6151ab565b606091505b5091509150614ef3828286606083156151c557508161086b565b8251156151d55782518084602001fd5b8160405162461bcd60e51b815260040161103091906152d7565b8280546151fb90615868565b90600052602060002090601f01602090048101928261521d5760008555615263565b82601f1061523657805160ff1916838001178555615263565b82800160010185558215615263579182015b82811115615263578251825591602001919060010190615248565b506137559291505b80821115613755576000815560010161526b565b60005b8381101561529a578181015183820152602001615282565b83811115612eba5750506000910152565b600081518084526152c381602086016020860161527f565b601f01601f19169290920160200192915050565b60208152600061086b60208301846152ab565b6000602082840312156152fc57600080fd5b5035919050565b6001600160a01b0381168114610d2357600080fd5b6000806040838503121561532b57600080fd5b823561533681615303565b946020939093013593505050565b60008060006060848603121561535957600080fd5b833561536481615303565b9250602084013561537481615303565b929592945050506040919091013590565b60006020828403121561539757600080fd5b813561086b81615303565b600080604083850312156153b557600080fd5b8235915060208301356153c781615303565b809150509250929050565b6000608082840312156140fd57600080fd5b60008083601f8401126153f657600080fd5b50813567ffffffffffffffff81111561540e57600080fd5b60208301915083602082850101111561542657600080fd5b9250929050565b803561543881615303565b919050565b6000806000806000806000806000898b0361016081121561545d57600080fd5b8a3567ffffffffffffffff8082111561547557600080fd5b6154818e838f016153e4565b909c509a5060208d013591508082111561549a57600080fd5b506154a78d828e016153e4565b90995097505060408b01356154bb81615303565b955060608b01356154cb81615303565b945060808b01356154db81615303565b935060a0609f19820112156154ef57600080fd5b5060a08a0191506155036101408b0161542d565b90509295985092959850929598565b60008060006060848603121561552757600080fd5b83359250602084013561553981615303565b9150604084013561554981615303565b809150509250925092565b6000606082840312156140fd57600080fd5b6000806040838503121561557957600080fd5b823561558481615303565b915060208301356153c781615303565b634e487b7160e01b600052604160045260246000fd5b6040516101e0810167ffffffffffffffff811182821017156155ce576155ce615594565b60405290565b604051601f8201601f1916810167ffffffffffffffff811182821017156155fd576155fd615594565b604052919050565b600067ffffffffffffffff82111561561f5761561f615594565b5060051b60200190565b600082601f83011261563a57600080fd5b8135602061564f61564a83615605565b6155d4565b82815260059290921b8401810191818101908684111561566e57600080fd5b8286015b848110156156895780358352918301918301615672565b509695505050505050565b600082601f8301126156a557600080fd5b813567ffffffffffffffff8111156156bf576156bf615594565b6156d2601f8201601f19166020016155d4565b8181528460208386010111156156e757600080fd5b816020850160208301376000918101602001919091529392505050565b6000806000806080858703121561571a57600080fd5b843567ffffffffffffffff8082111561573257600080fd5b818701915087601f83011261574657600080fd5b8135602061575661564a83615605565b82815260059290921b8401810191818101908b84111561577557600080fd5b948201945b8386101561579c57853561578d81615303565b8252948201949082019061577a565b985050880135925050808211156157b257600080fd5b6157be88838901615629565b945060408701359150808211156157d457600080fd5b6157e088838901615629565b935060608701359150808211156157f657600080fd5b5061580387828801615694565b91505092959194509250565b6000604082840312156140fd57600080fd5b60006020828403121561583357600080fd5b5051919050565b634e487b7160e01b600052601160045260246000fd5b600082198211156158635761586361583a565b500190565b600181811c9082168061587c57607f821691505b602082108114156140fd57634e487b7160e01b600052602260045260246000fd5b6000828210156158af576158af61583a565b500390565b60008160001904831182151516156158ce576158ce61583a565b500290565b634e487b7160e01b600052601260045260246000fd5b6000826158f8576158f86158d3565b500490565b600181815b8085111561593857816000190482111561591e5761591e61583a565b8085161561592b57918102915b93841c9390800290615902565b509250929050565b60008261594f57506001610886565b8161595c57506000610886565b8160018114615972576002811461597c57615998565b6001915050610886565b60ff84111561598d5761598d61583a565b50506001821b610886565b5060208310610133831016604e8410600b84101617156159bb575081810a610886565b6159c583836158fd565b80600019048211156159d9576159d961583a565b029392505050565b600061086b8383615940565b600061ffff83811690831681811015615a0857615a0861583a565b039392505050565b805161543881615303565b600060208284031215615a2d57600080fd5b815161086b81615303565b600060208284031215615a4a57600080fd5b6040516020810181811067ffffffffffffffff82111715615a6d57615a6d615594565b6040529151825250919050565b80516fffffffffffffffffffffffffffffffff8116811461543857600080fd5b805164ffffffffff8116811461543857600080fd5b61ffff81168114610d2357600080fd5b805161543881615aaf565b60006101e08284031215615add57600080fd5b615ae56155aa565b615aef8484615a38565b8152615afd60208401615a7a565b6020820152615b0e60408401615a7a565b6040820152615b1f60608401615a7a565b6060820152615b3060808401615a7a565b6080820152615b4160a08401615a7a565b60a0820152615b5260c08401615a9a565b60c0820152615b6360e08401615abf565b60e0820152610100615b76818501615a10565b90820152610120615b88848201615a10565b90820152610140615b9a848201615a10565b90820152610160615bac848201615a10565b90820152610180615bbe848201615a7a565b908201526101a0615bd0848201615a7a565b908201526101c0615be2848201615a7a565b908201529392505050565b600080821280156001600160ff1b0384900385131615615c0f57615c0f61583a565b600160ff1b8390038412811615615c2857615c2861583a565b50500190565b60008083128015600160ff1b850184121615615c4c57615c4c61583a565b6001600160ff1b0384018313811615615c6757615c6761583a565b50500390565b600060208284031215615c7f57600080fd5b813561086b81615aaf565b600060208284031215615c9c57600080fd5b81356001600160f01b038116811461086b57600080fd5b8051801515811461543857600080fd5b600060208284031215615cd557600080fd5b61086b82615cb3565b60008060008060008060c08789031215615cf757600080fd5b86519550602087015194506040870151935060608701519250615d1c60808801615cb3565b9150615d2a60a08801615cb3565b90509295509295509295565b634e487b7160e01b600052603260045260246000fd5b600060208284031215615d5e57600080fd5b813563ffffffff8116811461086b57600080fd5b600060208284031215615d8457600080fd5b815160ff8116811461086b57600080fd5b610100810161088682846001600160a01b0380825116835280602083015116602084015262ffffff60408301511660408401528060608301511660608401526080820151608084015260a082015160a084015260c082015160c08401528060e08301511660e0840152505050565b6020808252602b908201527f496e697469616c697a61626c653a20636f6e7472616374206973206e6f74206960408201526a6e697469616c697a696e6760a81b606082015260800190565b600061086b60ff841683615940565b600060208284031215615e6f57600080fd5b61086b8383615a38565b600061ffff80841680615e8e57615e8e6158d3565b92169190910492915050565b600061ffff808316818516808303821115615eb757615eb761583a565b01949350505050565b6000608082016001600160a01b038088168452602060808186015282885180855260a087019150828a01945060005b81811015615f0d578551851683529483019491830191600101615eef565b5050858103604087015287518082529082019350915080870160005b83811015615f4557815185529382019390820190600101615f29565b505050508281036060840152614ef381856152ab565b60008251615f6d81846020870161527f565b919091019291505056fea164736f6c634300080a000a",
  "devdoc": {
    "kind": "dev",
    "methods": {
      "allowance(address,address)": {
        "details": "See {IERC20-allowance}."
      },
      "approve(address,uint256)": {
        "details": "See {IERC20-approve}. NOTE: If `amount` is the maximum `uint256`, the allowance is not updated on `transferFrom`. This is semantically equivalent to an infinite approval. Requirements: - `spender` cannot be the zero address."
      },
      "balanceOf(address)": {
        "details": "See {IERC20-balanceOf}."
      },
      "decimals()": {
        "details": "Returns the number of decimals used to get its user representation. For example, if `decimals` equals `2`, a balance of `505` tokens should be displayed to a user as `5.05` (`505 / 10 ** 2`). Tokens usually opt for a value of 18, imitating the relationship between Ether and Wei. This is the value {ERC20} uses, unless this function is overridden; NOTE: This information is only used for _display_ purposes: it in no way affects any of the arithmetic of the contract, including {IERC20-balanceOf} and {IERC20-transfer}."
      },
      "decreaseAllowance(address,uint256)": {
        "details": "Atomically decreases the allowance granted to `spender` by the caller. This is an alternative to {approve} that can be used as a mitigation for problems described in {IERC20-approve}. Emits an {Approval} event indicating the updated allowance. Requirements: - `spender` cannot be the zero address. - `spender` must have allowance for the caller of at least `subtractedValue`."
      },
      "increaseAllowance(address,uint256)": {
        "details": "Atomically increases the allowance granted to `spender` by the caller. This is an alternative to {approve} that can be used as a mitigation for problems described in {IERC20-approve}. Emits an {Approval} event indicating the updated allowance. Requirements: - `spender` cannot be the zero address."
      },
      "name()": {
        "details": "Returns the name of the token."
      },
      "owner()": {
        "details": "Returns the address of the current owner."
      },
      "renounceOwnership()": {
        "details": "Leaves the contract without owner. It will not be possible to call `onlyOwner` functions anymore. Can only be called by the current owner. NOTE: Renouncing ownership will leave the contract without an owner, thereby removing any functionality that is only available to the owner."
      },
      "symbol()": {
        "details": "Returns the symbol of the token, usually a shorter version of the name."
      },
      "totalSupply()": {
        "details": "See {IERC20-totalSupply}."
      },
      "transfer(address,uint256)": {
        "details": "See {IERC20-transfer}. Requirements: - `to` cannot be the zero address. - the caller must have a balance of at least `amount`."
      },
      "transferFrom(address,address,uint256)": {
        "details": "See {IERC20-transferFrom}. Emits an {Approval} event indicating the updated allowance. This is not required by the EIP. See the note at the beginning of {ERC20}. NOTE: Does not update the allowance if the current allowance is the maximum `uint256`. Requirements: - `from` and `to` cannot be the zero address. - `from` must have a balance of at least `amount`. - the caller must have allowance for ``from``'s tokens of at least `amount`."
      },
      "transferOwnership(address)": {
        "details": "Transfers ownership of the contract to a new account (`newOwner`). Can only be called by the current owner."
      }
    },
    "version": 1
  },
  "userdoc": {
    "kind": "user",
    "methods": {
      "harvestFees()": {
        "notice": "stakes the rewards from the staked Glp and claims WETH to buy glp"
      }
    },
    "version": 1
  },
  "storageLayout": {
    "storage": [
      {
        "astId": 3997,
        "contract": "contracts/vaults/DnGmxJuniorVault.sol:DnGmxJuniorVault",
        "label": "_initialized",
        "offset": 0,
        "slot": "0",
        "type": "t_uint8"
      },
      {
        "astId": 4000,
        "contract": "contracts/vaults/DnGmxJuniorVault.sol:DnGmxJuniorVault",
        "label": "_initializing",
        "offset": 1,
        "slot": "0",
        "type": "t_bool"
      },
      {
        "astId": 5266,
        "contract": "contracts/vaults/DnGmxJuniorVault.sol:DnGmxJuniorVault",
        "label": "__gap",
        "offset": 0,
        "slot": "1",
        "type": "t_array(t_uint256)50_storage"
      },
      {
        "astId": 4287,
        "contract": "contracts/vaults/DnGmxJuniorVault.sol:DnGmxJuniorVault",
        "label": "_balances",
        "offset": 0,
        "slot": "51",
        "type": "t_mapping(t_address,t_uint256)"
      },
      {
        "astId": 4293,
        "contract": "contracts/vaults/DnGmxJuniorVault.sol:DnGmxJuniorVault",
        "label": "_allowances",
        "offset": 0,
        "slot": "52",
        "type": "t_mapping(t_address,t_mapping(t_address,t_uint256))"
      },
      {
        "astId": 4295,
        "contract": "contracts/vaults/DnGmxJuniorVault.sol:DnGmxJuniorVault",
        "label": "_totalSupply",
        "offset": 0,
        "slot": "53",
        "type": "t_uint256"
      },
      {
        "astId": 4297,
        "contract": "contracts/vaults/DnGmxJuniorVault.sol:DnGmxJuniorVault",
        "label": "_name",
        "offset": 0,
        "slot": "54",
        "type": "t_string_storage"
      },
      {
        "astId": 4299,
        "contract": "contracts/vaults/DnGmxJuniorVault.sol:DnGmxJuniorVault",
        "label": "_symbol",
        "offset": 0,
        "slot": "55",
        "type": "t_string_storage"
      },
      {
        "astId": 4878,
        "contract": "contracts/vaults/DnGmxJuniorVault.sol:DnGmxJuniorVault",
        "label": "__gap",
        "offset": 0,
        "slot": "56",
        "type": "t_array(t_uint256)45_storage"
      },
      {
        "astId": 6440,
        "contract": "contracts/vaults/DnGmxJuniorVault.sol:DnGmxJuniorVault",
        "label": "asset",
        "offset": 0,
        "slot": "101",
        "type": "t_contract(IERC20Metadata)5373"
      },
      {
        "astId": 3869,
        "contract": "contracts/vaults/DnGmxJuniorVault.sol:DnGmxJuniorVault",
        "label": "_owner",
        "offset": 0,
        "slot": "102",
        "type": "t_address"
      },
      {
        "astId": 3989,
        "contract": "contracts/vaults/DnGmxJuniorVault.sol:DnGmxJuniorVault",
        "label": "__gap",
        "offset": 0,
        "slot": "103",
        "type": "t_array(t_uint256)49_storage"
      },
      {
        "astId": 11975,
        "contract": "contracts/vaults/DnGmxJuniorVault.sol:DnGmxJuniorVault",
        "label": "FEE",
        "offset": 0,
        "slot": "152",
        "type": "t_uint256"
      },
      {
        "astId": 11977,
        "contract": "contracts/vaults/DnGmxJuniorVault.sol:DnGmxJuniorVault",
        "label": "keeper",
        "offset": 0,
        "slot": "153",
        "type": "t_address"
      },
      {
        "astId": 11980,
        "contract": "contracts/vaults/DnGmxJuniorVault.sol:DnGmxJuniorVault",
        "label": "dnGmxSeniorVault",
        "offset": 0,
        "slot": "154",
        "type": "t_contract(IDnGmxSeniorVault)7119"
      },
      {
        "astId": 11982,
        "contract": "contracts/vaults/DnGmxJuniorVault.sol:DnGmxJuniorVault",
        "label": "feeRecipient",
        "offset": 0,
        "slot": "155",
        "type": "t_address"
      },
      {
        "astId": 11984,
        "contract": "contracts/vaults/DnGmxJuniorVault.sol:DnGmxJuniorVault",
        "label": "withdrawFeeBps",
        "offset": 0,
        "slot": "156",
        "type": "t_uint256"
      },
      {
        "astId": 11986,
        "contract": "contracts/vaults/DnGmxJuniorVault.sol:DnGmxJuniorVault",
        "label": "protocolFee",
        "offset": 0,
        "slot": "157",
        "type": "t_uint256"
      },
      {
        "astId": 11988,
        "contract": "contracts/vaults/DnGmxJuniorVault.sol:DnGmxJuniorVault",
        "label": "seniorVaultWethRewards",
        "offset": 0,
        "slot": "158",
        "type": "t_uint256"
      },
      {
        "astId": 11990,
        "contract": "contracts/vaults/DnGmxJuniorVault.sol:DnGmxJuniorVault",
        "label": "seniorVaultWethConversionThreshold",
        "offset": 0,
        "slot": "159",
        "type": "t_uint256"
      },
      {
        "astId": 11992,
        "contract": "contracts/vaults/DnGmxJuniorVault.sol:DnGmxJuniorVault",
        "label": "wethThreshold",
        "offset": 0,
        "slot": "160",
        "type": "t_uint256"
      },
      {
        "astId": 11994,
        "contract": "contracts/vaults/DnGmxJuniorVault.sol:DnGmxJuniorVault",
        "label": "slippageThreshold",
        "offset": 0,
        "slot": "161",
        "type": "t_uint256"
      },
      {
        "astId": 11996,
        "contract": "contracts/vaults/DnGmxJuniorVault.sol:DnGmxJuniorVault",
        "label": "depositCap",
        "offset": 0,
        "slot": "162",
        "type": "t_uint256"
      },
      {
        "astId": 11998,
        "contract": "contracts/vaults/DnGmxJuniorVault.sol:DnGmxJuniorVault",
        "label": "dnUsdcDeposited",
        "offset": 0,
        "slot": "163",
        "type": "t_int256"
      },
      {
        "astId": 12000,
        "contract": "contracts/vaults/DnGmxJuniorVault.sol:DnGmxJuniorVault",
        "label": "_hasFlashloaned",
        "offset": 0,
        "slot": "164",
        "type": "t_bool"
      },
      {
        "astId": 12002,
        "contract": "contracts/vaults/DnGmxJuniorVault.sol:DnGmxJuniorVault",
        "label": "lastRebalanceTS",
        "offset": 1,
        "slot": "164",
        "type": "t_uint64"
      },
      {
        "astId": 12004,
        "contract": "contracts/vaults/DnGmxJuniorVault.sol:DnGmxJuniorVault",
        "label": "rebalanceTimeThreshold",
        "offset": 9,
        "slot": "164",
        "type": "t_uint32"
      },
      {
        "astId": 12006,
        "contract": "contracts/vaults/DnGmxJuniorVault.sol:DnGmxJuniorVault",
        "label": "rebalanceDeltaThreshold",
        "offset": 13,
        "slot": "164",
        "type": "t_uint16"
      },
      {
        "astId": 12010,
        "contract": "contracts/vaults/DnGmxJuniorVault.sol:DnGmxJuniorVault",
        "label": "pool",
        "offset": 0,
        "slot": "165",
        "type": "t_contract(IPool)1121"
      },
      {
        "astId": 12013,
        "contract": "contracts/vaults/DnGmxJuniorVault.sol:DnGmxJuniorVault",
        "label": "oracle",
        "offset": 0,
        "slot": "166",
        "type": "t_contract(IPriceOracle)1350"
      },
      {
        "astId": 12016,
        "contract": "contracts/vaults/DnGmxJuniorVault.sol:DnGmxJuniorVault",
        "label": "poolAddressProvider",
        "offset": 0,
        "slot": "167",
        "type": "t_contract(IPoolAddressesProvider)1330"
      },
      {
        "astId": 12019,
        "contract": "contracts/vaults/DnGmxJuniorVault.sol:DnGmxJuniorVault",
        "label": "aUsdc",
        "offset": 0,
        "slot": "168",
        "type": "t_contract(IAToken)218"
      },
      {
        "astId": 12022,
        "contract": "contracts/vaults/DnGmxJuniorVault.sol:DnGmxJuniorVault",
        "label": "vWbtc",
        "offset": 0,
        "slot": "169",
        "type": "t_contract(IDebtToken)11955"
      },
      {
        "astId": 12025,
        "contract": "contracts/vaults/DnGmxJuniorVault.sol:DnGmxJuniorVault",
        "label": "vWeth",
        "offset": 0,
        "slot": "170",
        "type": "t_contract(IDebtToken)11955"
      },
      {
        "astId": 12028,
        "contract": "contracts/vaults/DnGmxJuniorVault.sol:DnGmxJuniorVault",
        "label": "swapRouter",
        "offset": 0,
        "slot": "171",
        "type": "t_contract(ISwapRouter)6395"
      },
      {
        "astId": 12031,
        "contract": "contracts/vaults/DnGmxJuniorVault.sol:DnGmxJuniorVault",
        "label": "balancerVault",
        "offset": 0,
        "slot": "172",
        "type": "t_contract(IBalancerVault)7305"
      },
      {
        "astId": 12033,
        "contract": "contracts/vaults/DnGmxJuniorVault.sol:DnGmxJuniorVault",
        "label": "targetHealthFactor",
        "offset": 0,
        "slot": "173",
        "type": "t_uint256"
      },
      {
        "astId": 12036,
        "contract": "contracts/vaults/DnGmxJuniorVault.sol:DnGmxJuniorVault",
        "label": "aaveRewardsController",
        "offset": 0,
        "slot": "174",
        "type": "t_contract(IRewardsController)3570"
      },
      {
        "astId": 12039,
        "contract": "contracts/vaults/DnGmxJuniorVault.sol:DnGmxJuniorVault",
        "label": "usdcRedeemSlippage",
        "offset": 20,
        "slot": "174",
        "type": "t_uint16"
      },
      {
        "astId": 12041,
        "contract": "contracts/vaults/DnGmxJuniorVault.sol:DnGmxJuniorVault",
        "label": "usdcConversionThreshold",
        "offset": 0,
        "slot": "175",
        "type": "t_uint240"
      },
      {
        "astId": 12044,
        "contract": "contracts/vaults/DnGmxJuniorVault.sol:DnGmxJuniorVault",
        "label": "fsGlp",
        "offset": 0,
        "slot": "176",
        "type": "t_contract(IERC20)5348"
      },
      {
        "astId": 12047,
        "contract": "contracts/vaults/DnGmxJuniorVault.sol:DnGmxJuniorVault",
        "label": "glp",
        "offset": 0,
        "slot": "177",
        "type": "t_contract(IERC20Metadata)5373"
      },
      {
        "astId": 12050,
        "contract": "contracts/vaults/DnGmxJuniorVault.sol:DnGmxJuniorVault",
        "label": "usdc",
        "offset": 0,
        "slot": "178",
        "type": "t_contract(IERC20Metadata)5373"
      },
      {
        "astId": 12053,
        "contract": "contracts/vaults/DnGmxJuniorVault.sol:DnGmxJuniorVault",
        "label": "usdt",
        "offset": 0,
        "slot": "179",
        "type": "t_contract(IERC20Metadata)5373"
      },
      {
        "astId": 12056,
        "contract": "contracts/vaults/DnGmxJuniorVault.sol:DnGmxJuniorVault",
        "label": "weth",
        "offset": 0,
        "slot": "180",
        "type": "t_contract(IERC20Metadata)5373"
      },
      {
        "astId": 12059,
        "contract": "contracts/vaults/DnGmxJuniorVault.sol:DnGmxJuniorVault",
        "label": "wbtc",
        "offset": 0,
        "slot": "181",
        "type": "t_contract(IERC20Metadata)5373"
      },
      {
        "astId": 12062,
        "contract": "contracts/vaults/DnGmxJuniorVault.sol:DnGmxJuniorVault",
        "label": "gmxVault",
        "offset": 0,
        "slot": "182",
        "type": "t_contract(IVault)8205"
      },
      {
        "astId": 12065,
        "contract": "contracts/vaults/DnGmxJuniorVault.sol:DnGmxJuniorVault",
        "label": "glpManager",
        "offset": 0,
        "slot": "183",
        "type": "t_contract(IGlpManager)7480"
      },
      {
        "astId": 12068,
        "contract": "contracts/vaults/DnGmxJuniorVault.sol:DnGmxJuniorVault",
        "label": "rewardRouter",
        "offset": 0,
        "slot": "184",
        "type": "t_contract(IRewardRouterV2)7643"
      },
      {
        "astId": 12071,
        "contract": "contracts/vaults/DnGmxJuniorVault.sol:DnGmxJuniorVault",
        "label": "batchingManager",
        "offset": 0,
        "slot": "185",
        "type": "t_contract(IDnGmxBatchingManager)7082"
      },
      {
        "astId": 12074,
        "contract": "contracts/vaults/DnGmxJuniorVault.sol:DnGmxJuniorVault",
        "label": "tricryptoPool",
        "offset": 0,
        "slot": "186",
        "type": "t_contract(IStableSwap)7382"
      }
    ],
    "types": {
      "t_address": {
        "encoding": "inplace",
        "label": "address",
        "numberOfBytes": "20"
      },
      "t_array(t_uint256)45_storage": {
        "base": "t_uint256",
        "encoding": "inplace",
        "label": "uint256[45]",
        "numberOfBytes": "1440"
      },
      "t_array(t_uint256)49_storage": {
        "base": "t_uint256",
        "encoding": "inplace",
        "label": "uint256[49]",
        "numberOfBytes": "1568"
      },
      "t_array(t_uint256)50_storage": {
        "base": "t_uint256",
        "encoding": "inplace",
        "label": "uint256[50]",
        "numberOfBytes": "1600"
      },
      "t_bool": {
        "encoding": "inplace",
        "label": "bool",
        "numberOfBytes": "1"
      },
      "t_contract(IAToken)218": {
        "encoding": "inplace",
        "label": "contract IAToken",
        "numberOfBytes": "20"
      },
      "t_contract(IBalancerVault)7305": {
        "encoding": "inplace",
        "label": "contract IBalancerVault",
        "numberOfBytes": "20"
      },
      "t_contract(IDebtToken)11955": {
        "encoding": "inplace",
        "label": "contract IDebtToken",
        "numberOfBytes": "20"
      },
      "t_contract(IDnGmxBatchingManager)7082": {
        "encoding": "inplace",
        "label": "contract IDnGmxBatchingManager",
        "numberOfBytes": "20"
      },
      "t_contract(IDnGmxSeniorVault)7119": {
        "encoding": "inplace",
        "label": "contract IDnGmxSeniorVault",
        "numberOfBytes": "20"
      },
      "t_contract(IERC20)5348": {
        "encoding": "inplace",
        "label": "contract IERC20",
        "numberOfBytes": "20"
      },
      "t_contract(IERC20Metadata)5373": {
        "encoding": "inplace",
        "label": "contract IERC20Metadata",
        "numberOfBytes": "20"
      },
      "t_contract(IGlpManager)7480": {
        "encoding": "inplace",
        "label": "contract IGlpManager",
        "numberOfBytes": "20"
      },
      "t_contract(IPool)1121": {
        "encoding": "inplace",
        "label": "contract IPool",
        "numberOfBytes": "20"
      },
      "t_contract(IPoolAddressesProvider)1330": {
        "encoding": "inplace",
        "label": "contract IPoolAddressesProvider",
        "numberOfBytes": "20"
      },
      "t_contract(IPriceOracle)1350": {
        "encoding": "inplace",
        "label": "contract IPriceOracle",
        "numberOfBytes": "20"
      },
      "t_contract(IRewardRouterV2)7643": {
        "encoding": "inplace",
        "label": "contract IRewardRouterV2",
        "numberOfBytes": "20"
      },
      "t_contract(IRewardsController)3570": {
        "encoding": "inplace",
        "label": "contract IRewardsController",
        "numberOfBytes": "20"
      },
      "t_contract(IStableSwap)7382": {
        "encoding": "inplace",
        "label": "contract IStableSwap",
        "numberOfBytes": "20"
      },
      "t_contract(ISwapRouter)6395": {
        "encoding": "inplace",
        "label": "contract ISwapRouter",
        "numberOfBytes": "20"
      },
      "t_contract(IVault)8205": {
        "encoding": "inplace",
        "label": "contract IVault",
        "numberOfBytes": "20"
      },
      "t_int256": {
        "encoding": "inplace",
        "label": "int256",
        "numberOfBytes": "32"
      },
      "t_mapping(t_address,t_mapping(t_address,t_uint256))": {
        "encoding": "mapping",
        "key": "t_address",
        "label": "mapping(address => mapping(address => uint256))",
        "numberOfBytes": "32",
        "value": "t_mapping(t_address,t_uint256)"
      },
      "t_mapping(t_address,t_uint256)": {
        "encoding": "mapping",
        "key": "t_address",
        "label": "mapping(address => uint256)",
        "numberOfBytes": "32",
        "value": "t_uint256"
      },
      "t_string_storage": {
        "encoding": "bytes",
        "label": "string",
        "numberOfBytes": "32"
      },
      "t_uint16": {
        "encoding": "inplace",
        "label": "uint16",
        "numberOfBytes": "2"
      },
      "t_uint240": {
        "encoding": "inplace",
        "label": "uint240",
        "numberOfBytes": "30"
      },
      "t_uint256": {
        "encoding": "inplace",
        "label": "uint256",
        "numberOfBytes": "32"
      },
      "t_uint32": {
        "encoding": "inplace",
        "label": "uint32",
        "numberOfBytes": "4"
      },
      "t_uint64": {
        "encoding": "inplace",
        "label": "uint64",
        "numberOfBytes": "8"
      },
      "t_uint8": {
        "encoding": "inplace",
        "label": "uint8",
        "numberOfBytes": "1"
      }
    }
  }
}