{
  "address": "0x7784dA76DbEEd64Ef62C06E4e0FcbE92B8027A11",
  "abi": [
    {
      "inputs": [],
      "name": "CallerNotKeeper",
      "type": "error"
    },
    {
      "inputs": [],
      "name": "CallerNotVault",
      "type": "error"
    },
    {
      "inputs": [
        {
          "internalType": "uint256",
          "name": "balance",
          "type": "uint256"
        }
      ],
      "name": "InsufficientShares",
      "type": "error"
    },
    {
      "inputs": [
        {
          "internalType": "uint256",
          "name": "errorCode",
          "type": "uint256"
        }
      ],
      "name": "InvalidInput",
      "type": "error"
    },
    {
      "inputs": [
        {
          "internalType": "bool",
          "name": "currentValue",
          "type": "bool"
        }
      ],
      "name": "InvalidSetDepositPaused",
      "type": "error"
    },
    {
      "inputs": [
        {
          "internalType": "address",
          "name": "vault",
          "type": "address"
        }
      ],
      "name": "InvalidVault",
      "type": "error"
    },
    {
      "inputs": [],
      "name": "NoUsdcBalance",
      "type": "error"
    },
    {
      "inputs": [],
      "name": "VaultAlreadyAdded",
      "type": "error"
    },
    {
      "inputs": [],
      "name": "VaultsLimitExceeded",
      "type": "error"
    },
    {
      "inputs": [],
      "name": "ZeroBalance",
      "type": "error"
    },
    {
      "anonymous": false,
      "inputs": [
        {
          "indexed": true,
          "internalType": "uint256",
          "name": "round",
          "type": "uint256"
        },
        {
          "indexed": false,
          "internalType": "uint256",
          "name": "userUsdcAmount",
          "type": "uint256"
        },
        {
          "indexed": false,
          "internalType": "uint256",
          "name": "userGlpAmount",
          "type": "uint256"
        },
        {
          "indexed": false,
          "internalType": "uint256",
          "name": "userShareAmount",
          "type": "uint256"
        }
      ],
      "name": "BatchDeposit",
      "type": "event"
    },
    {
      "anonymous": false,
      "inputs": [
        {
          "indexed": true,
          "internalType": "uint256",
          "name": "round",
          "type": "uint256"
        },
        {
          "indexed": false,
          "internalType": "uint256",
          "name": "userUsdcAmount",
          "type": "uint256"
        },
        {
          "indexed": false,
          "internalType": "uint256",
          "name": "userGlpAmount",
          "type": "uint256"
        }
      ],
      "name": "BatchStake",
      "type": "event"
    },
    {
      "anonymous": false,
      "inputs": [
        {
          "indexed": true,
          "internalType": "uint256",
          "name": "round",
          "type": "uint256"
        },
        {
          "indexed": true,
          "internalType": "address",
          "name": "token",
          "type": "address"
        },
        {
          "indexed": true,
          "internalType": "address",
          "name": "receiver",
          "type": "address"
        },
        {
          "indexed": false,
          "internalType": "uint256",
          "name": "amount",
          "type": "uint256"
        },
        {
          "indexed": false,
          "internalType": "uint256",
          "name": "glpStaked",
          "type": "uint256"
        }
      ],
      "name": "DepositToken",
      "type": "event"
    },
    {
      "anonymous": false,
      "inputs": [
        {
          "indexed": false,
          "internalType": "uint8",
          "name": "version",
          "type": "uint8"
        }
      ],
      "name": "Initialized",
      "type": "event"
    },
    {
      "anonymous": false,
      "inputs": [
        {
          "indexed": false,
          "internalType": "address",
          "name": "newKeeper",
          "type": "address"
        }
      ],
      "name": "KeeperUpdated",
      "type": "event"
    },
    {
      "anonymous": false,
      "inputs": [
        {
          "indexed": true,
          "internalType": "address",
          "name": "previousOwner",
          "type": "address"
        },
        {
          "indexed": true,
          "internalType": "address",
          "name": "newOwner",
          "type": "address"
        }
      ],
      "name": "OwnershipTransferred",
      "type": "event"
    },
    {
      "anonymous": false,
      "inputs": [
        {
          "indexed": false,
          "internalType": "address",
          "name": "account",
          "type": "address"
        }
      ],
      "name": "Paused",
      "type": "event"
    },
    {
      "anonymous": false,
      "inputs": [
        {
          "indexed": true,
          "internalType": "address",
          "name": "from",
          "type": "address"
        },
        {
          "indexed": true,
          "internalType": "address",
          "name": "receiver",
          "type": "address"
        },
        {
          "indexed": false,
          "internalType": "uint256",
          "name": "claimAmount",
          "type": "uint256"
        }
      ],
      "name": "SharesClaimed",
      "type": "event"
    },
    {
      "anonymous": false,
      "inputs": [
        {
          "indexed": false,
          "internalType": "address",
          "name": "account",
          "type": "address"
        }
      ],
      "name": "Unpaused",
      "type": "event"
    },
    {
      "anonymous": false,
      "inputs": [
        {
          "indexed": false,
          "internalType": "address",
          "name": "vault",
          "type": "address"
        }
      ],
      "name": "VaultAdded",
      "type": "event"
    },
    {
      "anonymous": false,
      "inputs": [
        {
          "indexed": false,
          "internalType": "uint256",
          "name": "vaultGlpAmount",
          "type": "uint256"
        }
      ],
      "name": "VaultDeposit",
      "type": "event"
    },
    {
      "inputs": [
        {
          "internalType": "address",
          "name": "receiver",
          "type": "address"
        },
        {
          "internalType": "uint256",
          "name": "amount",
          "type": "uint256"
        }
      ],
      "name": "claim",
      "outputs": [],
      "stateMutability": "nonpayable",
      "type": "function"
    },
    {
      "inputs": [],
      "name": "currentRound",
      "outputs": [
        {
          "internalType": "uint256",
          "name": "",
          "type": "uint256"
        }
      ],
      "stateMutability": "view",
      "type": "function"
    },
    {
      "inputs": [
        {
          "internalType": "address",
          "name": "token",
          "type": "address"
        },
        {
          "internalType": "uint256",
          "name": "amount",
          "type": "uint256"
        },
        {
          "internalType": "uint256",
          "name": "minUSDG",
          "type": "uint256"
        }
      ],
      "name": "depositToken",
      "outputs": [
        {
          "internalType": "uint256",
          "name": "glpStaked",
          "type": "uint256"
        }
      ],
      "stateMutability": "nonpayable",
      "type": "function"
    },
    {
      "inputs": [
        {
          "internalType": "uint256",
          "name": "amount",
          "type": "uint256"
        },
        {
          "internalType": "address",
          "name": "receiver",
          "type": "address"
        }
      ],
      "name": "depositUsdc",
      "outputs": [
        {
          "internalType": "uint256",
          "name": "glpStaked",
          "type": "uint256"
        }
      ],
      "stateMutability": "nonpayable",
      "type": "function"
    },
    {
      "inputs": [],
      "name": "dnGmxJuniorVault",
      "outputs": [
        {
          "internalType": "contract IERC4626",
          "name": "",
          "type": "address"
        }
      ],
      "stateMutability": "view",
      "type": "function"
    },
    {
      "inputs": [],
      "name": "dnGmxJuniorVaultGlpBalance",
      "outputs": [
        {
          "internalType": "uint256",
          "name": "",
          "type": "uint256"
        }
      ],
      "stateMutability": "view",
      "type": "function"
    },
    {
      "inputs": [],
      "name": "executeBatchDeposit",
      "outputs": [],
      "stateMutability": "nonpayable",
      "type": "function"
    },
    {
      "inputs": [],
      "name": "executeBatchStake",
      "outputs": [],
      "stateMutability": "nonpayable",
      "type": "function"
    },
    {
      "inputs": [],
      "name": "grantAllowances",
      "outputs": [],
      "stateMutability": "nonpayable",
      "type": "function"
    },
    {
      "inputs": [
        {
          "internalType": "contract IERC20",
          "name": "_sGlp",
          "type": "address"
        },
        {
          "internalType": "contract IERC20",
          "name": "_usdc",
          "type": "address"
        },
        {
          "internalType": "contract IRewardRouterV2",
          "name": "_rewardRouter",
          "type": "address"
        },
        {
          "internalType": "contract IGlpManager",
          "name": "_glpManager",
          "type": "address"
        },
        {
          "internalType": "address",
          "name": "_dnGmxJuniorVault",
          "type": "address"
        },
        {
          "internalType": "address",
          "name": "_keeper",
          "type": "address"
        }
      ],
      "name": "initialize",
      "outputs": [],
      "stateMutability": "nonpayable",
      "type": "function"
    },
    {
      "inputs": [],
      "name": "keeper",
      "outputs": [
        {
          "internalType": "address",
          "name": "",
          "type": "address"
        }
      ],
      "stateMutability": "view",
      "type": "function"
    },
    {
      "inputs": [],
      "name": "owner",
      "outputs": [
        {
          "internalType": "address",
          "name": "",
          "type": "address"
        }
      ],
      "stateMutability": "view",
      "type": "function"
    },
    {
      "inputs": [],
      "name": "pauseDeposit",
      "outputs": [],
      "stateMutability": "nonpayable",
      "type": "function"
    },
    {
      "inputs": [],
      "name": "paused",
      "outputs": [
        {
          "internalType": "bool",
          "name": "",
          "type": "bool"
        }
      ],
      "stateMutability": "view",
      "type": "function"
    },
    {
      "inputs": [],
      "name": "renounceOwnership",
      "outputs": [],
      "stateMutability": "nonpayable",
      "type": "function"
    },
    {
      "inputs": [
        {
          "internalType": "uint256",
          "name": "round",
          "type": "uint256"
        }
      ],
      "name": "roundDeposits",
      "outputs": [
        {
          "components": [
            {
              "internalType": "uint128",
              "name": "totalUsdc",
              "type": "uint128"
            },
            {
              "internalType": "uint128",
              "name": "totalShares",
              "type": "uint128"
            }
          ],
          "internalType": "struct IDnGmxBatchingManager.RoundDeposit",
          "name": "",
          "type": "tuple"
        }
      ],
      "stateMutability": "view",
      "type": "function"
    },
    {
      "inputs": [],
      "name": "roundGlpStaked",
      "outputs": [
        {
          "internalType": "uint256",
          "name": "",
          "type": "uint256"
        }
      ],
      "stateMutability": "view",
      "type": "function"
    },
    {
      "inputs": [],
      "name": "roundUsdcBalance",
      "outputs": [
        {
          "internalType": "uint256",
          "name": "",
          "type": "uint256"
        }
      ],
      "stateMutability": "view",
      "type": "function"
    },
    {
      "inputs": [
        {
          "internalType": "address",
          "name": "_keeper",
          "type": "address"
        }
      ],
      "name": "setKeeper",
      "outputs": [],
      "stateMutability": "nonpayable",
      "type": "function"
    },
    {
      "inputs": [
        {
          "internalType": "address",
          "name": "newOwner",
          "type": "address"
        }
      ],
      "name": "transferOwnership",
      "outputs": [],
      "stateMutability": "nonpayable",
      "type": "function"
    },
    {
      "inputs": [
        {
          "internalType": "address",
          "name": "account",
          "type": "address"
        }
      ],
      "name": "unclaimedShares",
      "outputs": [
        {
          "internalType": "uint256",
          "name": "shares",
          "type": "uint256"
        }
      ],
      "stateMutability": "view",
      "type": "function"
    },
    {
      "inputs": [],
      "name": "unpauseDeposit",
      "outputs": [],
      "stateMutability": "nonpayable",
      "type": "function"
    },
    {
      "inputs": [
        {
          "internalType": "address",
          "name": "account",
          "type": "address"
        }
      ],
      "name": "usdcBalance",
      "outputs": [
        {
          "internalType": "uint256",
          "name": "balance",
          "type": "uint256"
        }
      ],
      "stateMutability": "view",
      "type": "function"
    },
    {
      "inputs": [
        {
          "internalType": "address",
          "name": "account",
          "type": "address"
        }
      ],
      "name": "userDeposits",
      "outputs": [
        {
          "components": [
            {
              "internalType": "uint256",
              "name": "round",
              "type": "uint256"
            },
            {
              "internalType": "uint128",
              "name": "usdcBalance",
              "type": "uint128"
            },
            {
              "internalType": "uint128",
              "name": "unclaimedShares",
              "type": "uint128"
            }
          ],
          "internalType": "struct IDnGmxBatchingManager.UserDeposit",
          "name": "",
          "type": "tuple"
        }
      ],
      "stateMutability": "view",
      "type": "function"
    },
    {
      "inputs": [],
      "name": "vaultBatchingState",
      "outputs": [
        {
          "internalType": "uint256",
          "name": "currentRound",
          "type": "uint256"
        },
        {
          "internalType": "uint256",
          "name": "roundUsdcBalance",
          "type": "uint256"
        },
        {
          "internalType": "uint256",
          "name": "roundGlpStaked",
          "type": "uint256"
        }
      ],
      "stateMutability": "view",
      "type": "function"
    },
    {
      "inputs": [],
      "name": "vaultCount",
      "outputs": [
        {
          "internalType": "uint16",
          "name": "",
          "type": "uint16"
        }
      ],
      "stateMutability": "view",
      "type": "function"
    }
  ],
  "transactionHash": "0xbd9e60b81a3b9538db90e5eea7dcab993a6d5e590c24d3c50593f23a6bfee571",
  "args": [],
  "numDeployments": 1,
  "solcInputHash": "9c6f6088484256b01f093d4f002b3dab",
  "bytecode": "0x608060405234801561001057600080fd5b506119d8806100206000396000f3fe608060405234801561001057600080fd5b50600436106101ae5760003560e01c80638da5cb5b116100ee578063ab504ad511610097578063ca0ede5011610071578063ca0ede5014610407578063cc2a9a5b14610410578063dae115f614610423578063f2fde38b146104a657600080fd5b8063ab504ad5146103d9578063aced1661146103ec578063bf9571f1146103ff57600080fd5b8063a7c6a100116100c8578063a7c6a1001461038b578063aa88fdc3146103b3578063aad3ec96146103c657600080fd5b80638da5cb5b1461034a578063958157881461036f57806399c6d2de1461037857600080fd5b80635c7f3c711161015b578063715018a611610135578063715018a6146102f6578063748747e6146102fe5780638a19c8bc146103115780638d1000171461031a57600080fd5b80635c7f3c71146102d05780635c975abb146102d857806369026e88146102ee57600080fd5b8063180282b31161018c578063180282b3146102b55780635157ced5146102bf57806358415075146102c757600080fd5b806301df331d146101b35780630ba36dcd146101d9578063106846671461027f575b600080fd5b6101c66101c1366004611743565b6104b9565b6040519081526020015b60405180910390f35b61024c6101e7366004611773565b6040805160608082018352600080835260208084018290529284018190526001600160a01b039490941684526101058252928290208251938401835280548452600101546001600160801b0380821692850192909252600160801b9004169082015290565b60408051825181526020808401516001600160801b039081169183019190915292820151909216908201526060016101d0565b6101c661028d366004611773565b6001600160a01b0316600090815261010560205260409020600101546001600160801b031690565b6102bd610733565b005b6102bd610810565b6101c660fd5481565b6102bd610843565b60655460ff1660405190151581526020016101d0565b6102bd610865565b6102bd610898565b6102bd61030c366004611773565b6108aa565b610102546101c6565b61010254610103546101045461032f92919083565b604080519384526020840192909252908201526060016101d0565b6033546001600160a01b03165b6040516001600160a01b0390911681526020016101d0565b610104546101c6565b6101c6610386366004611790565b610906565b60fc546103a090600160a01b900461ffff1681565b60405161ffff90911681526020016101d0565b60fc54610357906001600160a01b031681565b6102bd6103d43660046117c5565b610a86565b6101c66103e7366004611773565b610cb6565b60fb54610357906001600160a01b031681565b6102bd610d9b565b610103546101c6565b6102bd61041e3660046117f1565b610e20565b61047f610431366004611873565b604080518082019091526000808252602082015250600090815261010660209081526040918290208251808401909352546001600160801b038082168452600160801b909104169082015290565b6040805182516001600160801b0390811682526020938401511692810192909252016101d0565b6102bd6104b4366004611773565b610f4d565b60006104c3610fc3565b826000036104ec5760405163b80480b160e01b8152602160048201526024015b60405180910390fd5b6001600160a01b0382166105165760405163b80480b160e01b8152602260048201526024016104e3565b60ff546040516323b872dd60e01b8152336004820152306024820152604481018590526001600160a01b03909116906323b872dd906064016020604051808303816000875af115801561056d573d6000803e3d6000fd5b505050506040513d601f19601f82011682018060405250810190610591919061188c565b506001600160a01b03821660009081526101056020526040902060018101548154610102546001600160801b0390921691811080156105d957506000826001600160801b0316115b1561066b576000818152610106602052604090208054600185015461061d91610618916001600160801b0390811691600160801b810482169116611009565b6110bc565b600185018054601090610641908490600160801b90046001600160801b03166118c4565b92506101000a8154816001600160801b0302191690836001600160801b0316021790555060009250505b61010254835561067a866110bc565b61068490836118c4565b6001840180546fffffffffffffffffffffffffffffffff19166001600160801b03929092169190911790556106b8866110bc565b6001600160801b031661010260010160008282546106d691906118eb565b909155505060ff546101025460408051898152602081018890526001600160a01b03898116941692917f3b7ce5782971bc1c2a722cba69f6f8bccbe8dd1a68d213ea39f1b681726092d4910160405180910390a450505092915050565b60fd54156107f35760fd8054600090915560fe5460fc5460405163a9059cbb60e01b81526001600160a01b0391821660048201526024810184905291169063a9059cbb906044016020604051808303816000875af1158015610799573d6000803e3d6000fd5b505050506040513d601f19601f820116820180604052508101906107bd919061188c565b506040518181527fabf360404ae6ccd945919fc14edb22686b6941aeee15d786c7047e4a0107eba59060200160405180910390a1505b6107fb6110d7565b60655460ff161561080e5761080e61123c565b565b60fb546001600160a01b0316331461083b576040516304e1fa9f60e01b815260040160405180910390fd5b61080e61123c565b61084b610fc3565b61085361128e565b60655460ff1661080e5761080e61135e565b60fb546001600160a01b03163314610890576040516304e1fa9f60e01b815260040160405180910390fd5b61080e61135e565b6108a061139b565b61080e60006113f5565b6108b261139b565b60fb80546001600160a01b0319166001600160a01b0383169081179091556040519081527f0425bcd291db1d48816f2a98edc7ecaf6dd5c64b973d9e4b3b6b750763dc6c2e9060200160405180910390a150565b6000610910610fc3565b60fc546001600160a01b0316331461093b5760405163edd7338f60e01b815260040160405180910390fd5b6001600160a01b0384166109655760405163b80480b160e01b8152603060048201526024016104e3565b826000036109895760405163b80480b160e01b8152603160048201526024016104e3565b6040516323b872dd60e01b8152336004820152306024820152604481018490526001600160a01b038516906323b872dd906064016020604051808303816000875af11580156109dc573d6000803e3d6000fd5b505050506040513d601f19601f82011682018060405250810190610a00919061188c565b50610a0c848484611447565b9050610a17816110bc565b6001600160801b031660fd6000828254610a3191906118eb565b9091555050604080518481526020810183905233916001600160a01b038716916000917f3b7ce5782971bc1c2a722cba69f6f8bccbe8dd1a68d213ea39f1b681726092d4910160405180910390a49392505050565b6001600160a01b038216610ab05760405163b80480b160e01b8152601060048201526024016104e3565b80600003610ad45760405163b80480b160e01b8152601160048201526024016104e3565b3360009081526101056020526040902060018101548154610102546001600160801b03600160801b840481169316919081108015610b1b57506000826001600160801b0316115b15610b7e576000818152610106602052604090208054610b5590610618906001600160801b0386811691600160801b810482169116611009565b610b5f90856118c4565b6001860180546fffffffffffffffffffffffffffffffff191690559350505b50610b88846110bc565b6001600160801b0316826001600160801b03161015610bc5576040516307f885ff60e21b81526001600160801b03831660048201526024016104e3565b610bce846110bc565b610bd89083611904565b6001840180546001600160801b03928316600160801b02921691909117905560fc5460405163a9059cbb60e01b81526001600160a01b038781166004830152602482018790529091169063a9059cbb906044016020604051808303816000875af1158015610c4a573d6000803e3d6000fd5b505050506040513d601f19601f82011682018060405250810190610c6e919061188c565b506040518481526001600160a01b0386169033907f5c88b328c5b2ad9ebdf6ff97006b8557bd45f26293da0252d9a34931c684007a9060200160405180910390a35050505050565b6001600160a01b03811660009081526101056020908152604091829020825160608101845281548082526001909201546001600160801b0380821694830194909452600160801b900490921692820183905261010254118015610d265750600081602001516001600160801b0316115b15610d95578051600090815261010660209081526040918290208251808401909352546001600160801b03808216808552600160801b909204811684840181905292850151610d7e9361061893919092169190611009565b610d91906001600160801b0316846118eb565b9250505b50919050565b610da361139b565b60fe5460fc5460405163095ea7b360e01b81526001600160a01b039182166004820152600019602482015291169063095ea7b3906044016020604051808303816000875af1158015610df9573d6000803e3d6000fd5b505050506040513d601f19601f82011682018060405250810190610e1d919061188c565b50565b600054610100900460ff1615808015610e405750600054600160ff909116105b80610e5a5750303b158015610e5a575060005460ff166001145b610ebd5760405162461bcd60e51b815260206004820152602e60248201527f496e697469616c697a61626c653a20636f6e747261637420697320616c72656160448201526d191e481a5b9a5d1a585b1a5e995960921b60648201526084016104e3565b6000805460ff191660011790558015610ee0576000805461ff0019166101001790555b610ee8611550565b610ef061157f565b610efe8787878787876115ae565b8015610f44576000805461ff0019169055604051600181527f7f26b83ff96e1f2b6a682f133852f6798a09c465da95921460cefb38474024989060200160405180910390a15b50505050505050565b610f5561139b565b6001600160a01b038116610fba5760405162461bcd60e51b815260206004820152602660248201527f4f776e61626c653a206e6577206f776e657220697320746865207a65726f206160448201526564647265737360d01b60648201526084016104e3565b610e1d816113f5565b60655460ff161561080e5760405162461bcd60e51b815260206004820152601060248201526f14185d5cd8589b194e881c185d5cd95960821b60448201526064016104e3565b6000808060001985870985870292508281108382030391505080600003611042576000841161103757600080fd5b5082900490506110b5565b80841161104e57600080fd5b6000848688096000868103871696879004966002600389028118808a02820302808a02820302808a02820302808a02820302808a02820302808a02909103029181900381900460010186841190950394909402919094039290920491909117919091029150505b9392505050565b806001600160801b03811681146110d257600080fd5b919050565b610104541561080e5760fc5461010454604051636e553f6560e01b815260048101919091523060248201526000916001600160a01b031690636e553f65906044016020604051808303816000875af1158015611137573d6000803e3d6000fd5b505050506040513d601f19601f8201168201806040525081019061115b9190611924565b90506040518060400160405280611177610102600101546110bc565b6001600160801b0316815260200161118e836110bc565b6001600160801b039081169091526101028054600090815261010660209081526040918290208551958201518516600160801b029590941694909417909255546101035461010454835191825293810193909352908201839052907fc69cec55f6364843f1bd00b1f28399f11345b53d1f2577e1048d34d216932c279060600160405180910390a2600061010381905561010481905561010280549091906112359061193d565b9091555050565b611244611679565b6065805460ff191690557f5db9ee0a495bf2e6ff9c91a7834c1ba4fdd244a5e8aa4e537bd38aeae4b073aa335b6040516001600160a01b03909116815260200160405180910390a1565b61010354801561132c5760006112c36112aa6064612710611956565b6112b99064e8d4a51000611969565b8390612710611009565b60ff549091506112dd906001600160a01b03168383611447565b6101048190556101025460405190917f48c3ff184c57818bf226589be0a871b387827c42b767756992efc70db2cd0edb9161132091868252602082015260400190565b60405180910390a25050565b6040517fff57c67200000000000000000000000000000000000000000000000000000000815260040160405180910390fd5b611366610fc3565b6065805460ff191660011790557f62e78cea01bee320cd4e420270b5ea74000d11b0c9f74754ebdbfc544b05a2586112713390565b6033546001600160a01b0316331461080e5760405162461bcd60e51b815260206004820181905260248201527f4f776e61626c653a2063616c6c6572206973206e6f7420746865206f776e657260448201526064016104e3565b603380546001600160a01b038381166001600160a01b0319831681179093556040519116919082907f8be0079c531659141344cd1fd0a4f28419497f9722a3daafe3b4186f6b6457e090600090a35050565b6101005460405163095ea7b360e01b81526001600160a01b0391821660048201526024810184905260009185169063095ea7b3906044016020604051808303816000875af115801561149d573d6000803e3d6000fd5b505050506040513d601f19601f820116820180604052508101906114c1919061188c565b506101015460405163364e231160e01b81526001600160a01b0386811660048301526024820186905260448201859052600060648301529091169063364e2311906084016020604051808303816000875af1158015611524573d6000803e3d6000fd5b505050506040513d601f19601f820116820180604052508101906115489190611924565b949350505050565b600054610100900460ff166115775760405162461bcd60e51b81526004016104e390611980565b61080e6116cb565b600054610100900460ff166115a65760405162461bcd60e51b81526004016104e390611980565b61080e6116fb565b600054610100900460ff166115d55760405162461bcd60e51b81526004016104e390611980565b60fe80546001600160a01b03199081166001600160a01b038981169190911790925560ff80548216888416179055610101805482168784161790556101008054821686841617905560fc8054821685841617905560fb805490911691831691821790556001610102556040519081527f0425bcd291db1d48816f2a98edc7ecaf6dd5c64b973d9e4b3b6b750763dc6c2e9060200160405180910390a1505050505050565b60655460ff1661080e5760405162461bcd60e51b815260206004820152601460248201527f5061757361626c653a206e6f742070617573656400000000000000000000000060448201526064016104e3565b600054610100900460ff166116f25760405162461bcd60e51b81526004016104e390611980565b61080e336113f5565b600054610100900460ff166117225760405162461bcd60e51b81526004016104e390611980565b6065805460ff19169055565b6001600160a01b0381168114610e1d57600080fd5b6000806040838503121561175657600080fd5b8235915060208301356117688161172e565b809150509250929050565b60006020828403121561178557600080fd5b81356110b58161172e565b6000806000606084860312156117a557600080fd5b83356117b08161172e565b95602085013595506040909401359392505050565b600080604083850312156117d857600080fd5b82356117e38161172e565b946020939093013593505050565b60008060008060008060c0878903121561180a57600080fd5b86356118158161172e565b955060208701356118258161172e565b945060408701356118358161172e565b935060608701356118458161172e565b925060808701356118558161172e565b915060a08701356118658161172e565b809150509295509295509295565b60006020828403121561188557600080fd5b5035919050565b60006020828403121561189e57600080fd5b815180151581146110b557600080fd5b634e487b7160e01b600052601160045260246000fd5b6001600160801b038181168382160190808211156118e4576118e46118ae565b5092915050565b808201808211156118fe576118fe6118ae565b92915050565b6001600160801b038281168282160390808211156118e4576118e46118ae565b60006020828403121561193657600080fd5b5051919050565b60006001820161194f5761194f6118ae565b5060010190565b818103818111156118fe576118fe6118ae565b80820281158282048414176118fe576118fe6118ae565b6020808252602b908201527f496e697469616c697a61626c653a20636f6e7472616374206973206e6f74206960408201526a6e697469616c697a696e6760a81b60608201526080019056fea164736f6c6343000811000a",
  "devdoc": {
    "kind": "dev",
    "methods": {
      "claim(address,uint256)": {
        "params": {
          "amount": "amount of shares",
          "receiver": "address of receiver"
        }
      },
      "depositToken(address,uint256,uint256)": {
        "details": "this function should be only called by staking manager",
        "params": {
          "amount": "amount of token to be used",
          "minUSDG": "minimum output of swap in terms of USDG",
          "token": "address of input token (should be supported on gmx)"
        }
      },
      "grantAllowances()": {
        "details": "allowance is granted while vault is added via addVault, this is only failsafe if that allowance is exhausted"
      },
      "owner()": {
        "details": "Returns the address of the current owner."
      },
      "paused()": {
        "details": "Returns true if the contract is paused, and false otherwise."
      },
      "renounceOwnership()": {
        "details": "Leaves the contract without owner. It will not be possible to call `onlyOwner` functions anymore. Can only be called by the current owner. NOTE: Renouncing ownership will leave the contract without an owner, thereby removing any functionality that is only available to the owner."
      },
      "roundDeposits(uint256)": {
        "params": {
          "round": "address of user"
        }
      },
      "setKeeper(address)": {
        "params": {
          "_keeper": "address of keeper"
        }
      },
      "transferOwnership(address)": {
        "details": "Transfers ownership of the contract to a new account (`newOwner`). Can only be called by the current owner."
      },
      "unclaimedShares(address)": {
        "params": {
          "account": "address of user"
        }
      },
      "usdcBalance(address)": {
        "params": {
          "account": "address of user"
        }
      },
      "userDeposits(address)": {
        "params": {
          "account": "address of user"
        }
      }
    },
    "version": 1
  },
  "userdoc": {
    "kind": "user",
    "methods": {
      "claim(address,uint256)": {
        "notice": "claim the shares received from depositing batch"
      },
      "currentRound()": {
        "notice": "gets the current active round"
      },
      "depositToken(address,uint256,uint256)": {
        "notice": "convert the token into glp and obtain staked glp"
      },
      "executeBatchDeposit()": {
        "notice": "executes batch and deposits into appropriate vault with/without minting shares"
      },
      "executeBatchStake()": {
        "notice": "executes batch and deposits into appropriate vault with/without minting shares"
      },
      "grantAllowances()": {
        "notice": "grants the allowance to the vault to pull sGLP (via safeTransfer from in vault.deposit)"
      },
      "pauseDeposit()": {
        "notice": "pauses deposits (to prevent DOS due to GMX 15 min cooldown)"
      },
      "roundDeposits(uint256)": {
        "notice": "get the info for given vault and round"
      },
      "roundGlpStaked()": {
        "notice": "get the glp balance for current active round"
      },
      "roundUsdcBalance()": {
        "notice": "get the glp balance for current active round"
      },
      "setKeeper(address)": {
        "notice": "sets the keeper address (to pause & unpause deposits)"
      },
      "unclaimedShares(address)": {
        "notice": "get the unclaimed shares for a given vault and account address"
      },
      "unpauseDeposit()": {
        "notice": "unpauses the deposit function"
      },
      "usdcBalance(address)": {
        "notice": "get the glp balance for a given vault and account address"
      },
      "userDeposits(address)": {
        "notice": "get the vaultBatchingState of user deposits"
      }
    },
    "version": 1
  },
  "storageLayout": {
    "storage": [
      {
        "astId": 601,
        "contract": "contracts/vaults/DnGmxBatchingManager.sol:DnGmxBatchingManager",
        "label": "_initialized",
        "offset": 0,
        "slot": "0",
        "type": "t_uint8"
      },
      {
        "astId": 604,
        "contract": "contracts/vaults/DnGmxBatchingManager.sol:DnGmxBatchingManager",
        "label": "_initializing",
        "offset": 1,
        "slot": "0",
        "type": "t_bool"
      },
      {
        "astId": 1870,
        "contract": "contracts/vaults/DnGmxBatchingManager.sol:DnGmxBatchingManager",
        "label": "__gap",
        "offset": 0,
        "slot": "1",
        "type": "t_array(t_uint256)50_storage"
      },
      {
        "astId": 473,
        "contract": "contracts/vaults/DnGmxBatchingManager.sol:DnGmxBatchingManager",
        "label": "_owner",
        "offset": 0,
        "slot": "51",
        "type": "t_address"
      },
      {
        "astId": 593,
        "contract": "contracts/vaults/DnGmxBatchingManager.sol:DnGmxBatchingManager",
        "label": "__gap",
        "offset": 0,
        "slot": "52",
        "type": "t_array(t_uint256)49_storage"
      },
      {
        "astId": 766,
        "contract": "contracts/vaults/DnGmxBatchingManager.sol:DnGmxBatchingManager",
        "label": "_paused",
        "offset": 0,
        "slot": "101",
        "type": "t_bool"
      },
      {
        "astId": 871,
        "contract": "contracts/vaults/DnGmxBatchingManager.sol:DnGmxBatchingManager",
        "label": "__gap",
        "offset": 0,
        "slot": "102",
        "type": "t_array(t_uint256)49_storage"
      },
      {
        "astId": 6576,
        "contract": "contracts/vaults/DnGmxBatchingManager.sol:DnGmxBatchingManager",
        "label": "_gaps",
        "offset": 0,
        "slot": "151",
        "type": "t_array(t_uint256)100_storage"
      },
      {
        "astId": 6578,
        "contract": "contracts/vaults/DnGmxBatchingManager.sol:DnGmxBatchingManager",
        "label": "keeper",
        "offset": 0,
        "slot": "251",
        "type": "t_address"
      },
      {
        "astId": 6581,
        "contract": "contracts/vaults/DnGmxBatchingManager.sol:DnGmxBatchingManager",
        "label": "dnGmxJuniorVault",
        "offset": 0,
        "slot": "252",
        "type": "t_contract(IERC4626)4009"
      },
      {
        "astId": 6583,
        "contract": "contracts/vaults/DnGmxBatchingManager.sol:DnGmxBatchingManager",
        "label": "vaultCount",
        "offset": 20,
        "slot": "252",
        "type": "t_uint16"
      },
      {
        "astId": 6585,
        "contract": "contracts/vaults/DnGmxBatchingManager.sol:DnGmxBatchingManager",
        "label": "dnGmxJuniorVaultGlpBalance",
        "offset": 0,
        "slot": "253",
        "type": "t_uint256"
      },
      {
        "astId": 6588,
        "contract": "contracts/vaults/DnGmxBatchingManager.sol:DnGmxBatchingManager",
        "label": "sGlp",
        "offset": 0,
        "slot": "254",
        "type": "t_contract(IERC20)1952"
      },
      {
        "astId": 6591,
        "contract": "contracts/vaults/DnGmxBatchingManager.sol:DnGmxBatchingManager",
        "label": "usdc",
        "offset": 0,
        "slot": "255",
        "type": "t_contract(IERC20)1952"
      },
      {
        "astId": 6594,
        "contract": "contracts/vaults/DnGmxBatchingManager.sol:DnGmxBatchingManager",
        "label": "glpManager",
        "offset": 0,
        "slot": "256",
        "type": "t_contract(IGlpManager)4427"
      },
      {
        "astId": 6597,
        "contract": "contracts/vaults/DnGmxBatchingManager.sol:DnGmxBatchingManager",
        "label": "rewardRouter",
        "offset": 0,
        "slot": "257",
        "type": "t_contract(IRewardRouterV2)4629"
      },
      {
        "astId": 6600,
        "contract": "contracts/vaults/DnGmxBatchingManager.sol:DnGmxBatchingManager",
        "label": "vaultBatchingState",
        "offset": 0,
        "slot": "258",
        "type": "t_struct(VaultBatchingState)6566_storage"
      },
      {
        "astId": 6604,
        "contract": "contracts/vaults/DnGmxBatchingManager.sol:DnGmxBatchingManager",
        "label": "_gaps2",
        "offset": 0,
        "slot": "263",
        "type": "t_array(t_uint256)100_storage"
      }
    ],
    "types": {
      "t_address": {
        "encoding": "inplace",
        "label": "address",
        "numberOfBytes": "20"
      },
      "t_array(t_uint256)100_storage": {
        "base": "t_uint256",
        "encoding": "inplace",
        "label": "uint256[100]",
        "numberOfBytes": "3200"
      },
      "t_array(t_uint256)49_storage": {
        "base": "t_uint256",
        "encoding": "inplace",
        "label": "uint256[49]",
        "numberOfBytes": "1568"
      },
      "t_array(t_uint256)50_storage": {
        "base": "t_uint256",
        "encoding": "inplace",
        "label": "uint256[50]",
        "numberOfBytes": "1600"
      },
      "t_bool": {
        "encoding": "inplace",
        "label": "bool",
        "numberOfBytes": "1"
      },
      "t_contract(IERC20)1952": {
        "encoding": "inplace",
        "label": "contract IERC20",
        "numberOfBytes": "20"
      },
      "t_contract(IERC4626)4009": {
        "encoding": "inplace",
        "label": "contract IERC4626",
        "numberOfBytes": "20"
      },
      "t_contract(IGlpManager)4427": {
        "encoding": "inplace",
        "label": "contract IGlpManager",
        "numberOfBytes": "20"
      },
      "t_contract(IRewardRouterV2)4629": {
        "encoding": "inplace",
        "label": "contract IRewardRouterV2",
        "numberOfBytes": "20"
      },
      "t_mapping(t_address,t_struct(UserDeposit)3607_storage)": {
        "encoding": "mapping",
        "key": "t_address",
        "label": "mapping(address => struct IDnGmxBatchingManager.UserDeposit)",
        "numberOfBytes": "32",
        "value": "t_struct(UserDeposit)3607_storage"
      },
      "t_mapping(t_uint256,t_struct(RoundDeposit)3612_storage)": {
        "encoding": "mapping",
        "key": "t_uint256",
        "label": "mapping(uint256 => struct IDnGmxBatchingManager.RoundDeposit)",
        "numberOfBytes": "32",
        "value": "t_struct(RoundDeposit)3612_storage"
      },
      "t_struct(RoundDeposit)3612_storage": {
        "encoding": "inplace",
        "label": "struct IDnGmxBatchingManager.RoundDeposit",
        "members": [
          {
            "astId": 3609,
            "contract": "contracts/vaults/DnGmxBatchingManager.sol:DnGmxBatchingManager",
            "label": "totalUsdc",
            "offset": 0,
            "slot": "0",
            "type": "t_uint128"
          },
          {
            "astId": 3611,
            "contract": "contracts/vaults/DnGmxBatchingManager.sol:DnGmxBatchingManager",
            "label": "totalShares",
            "offset": 16,
            "slot": "0",
            "type": "t_uint128"
          }
        ],
        "numberOfBytes": "32"
      },
      "t_struct(UserDeposit)3607_storage": {
        "encoding": "inplace",
        "label": "struct IDnGmxBatchingManager.UserDeposit",
        "members": [
          {
            "astId": 3602,
            "contract": "contracts/vaults/DnGmxBatchingManager.sol:DnGmxBatchingManager",
            "label": "round",
            "offset": 0,
            "slot": "0",
            "type": "t_uint256"
          },
          {
            "astId": 3604,
            "contract": "contracts/vaults/DnGmxBatchingManager.sol:DnGmxBatchingManager",
            "label": "usdcBalance",
            "offset": 0,
            "slot": "1",
            "type": "t_uint128"
          },
          {
            "astId": 3606,
            "contract": "contracts/vaults/DnGmxBatchingManager.sol:DnGmxBatchingManager",
            "label": "unclaimedShares",
            "offset": 16,
            "slot": "1",
            "type": "t_uint128"
          }
        ],
        "numberOfBytes": "64"
      },
      "t_struct(VaultBatchingState)6566_storage": {
        "encoding": "inplace",
        "label": "struct DnGmxBatchingManager.VaultBatchingState",
        "members": [
          {
            "astId": 6551,
            "contract": "contracts/vaults/DnGmxBatchingManager.sol:DnGmxBatchingManager",
            "label": "currentRound",
            "offset": 0,
            "slot": "0",
            "type": "t_uint256"
          },
          {
            "astId": 6553,
            "contract": "contracts/vaults/DnGmxBatchingManager.sol:DnGmxBatchingManager",
            "label": "roundUsdcBalance",
            "offset": 0,
            "slot": "1",
            "type": "t_uint256"
          },
          {
            "astId": 6555,
            "contract": "contracts/vaults/DnGmxBatchingManager.sol:DnGmxBatchingManager",
            "label": "roundGlpStaked",
            "offset": 0,
            "slot": "2",
            "type": "t_uint256"
          },
          {
            "astId": 6560,
            "contract": "contracts/vaults/DnGmxBatchingManager.sol:DnGmxBatchingManager",
            "label": "userDeposits",
            "offset": 0,
            "slot": "3",
            "type": "t_mapping(t_address,t_struct(UserDeposit)3607_storage)"
          },
          {
            "astId": 6565,
            "contract": "contracts/vaults/DnGmxBatchingManager.sol:DnGmxBatchingManager",
            "label": "roundDeposits",
            "offset": 0,
            "slot": "4",
            "type": "t_mapping(t_uint256,t_struct(RoundDeposit)3612_storage)"
          }
        ],
        "numberOfBytes": "160"
      },
      "t_uint128": {
        "encoding": "inplace",
        "label": "uint128",
        "numberOfBytes": "16"
      },
      "t_uint16": {
        "encoding": "inplace",
        "label": "uint16",
        "numberOfBytes": "2"
      },
      "t_uint256": {
        "encoding": "inplace",
        "label": "uint256",
        "numberOfBytes": "32"
      },
      "t_uint8": {
        "encoding": "inplace",
        "label": "uint8",
        "numberOfBytes": "1"
      }
    }
  }
}