{
  "address": "0xA6dDd08915C429A90bf14FA8518FD1A6C8fe037b",
  "abi": [
    {
      "inputs": [],
      "name": "CallerNotBorrower",
      "type": "error"
    },
    {
      "inputs": [],
      "name": "DepositCapExceeded",
      "type": "error"
    },
    {
      "inputs": [],
      "name": "InvalidBorrowAmount",
      "type": "error"
    },
    {
      "inputs": [],
      "name": "InvalidBorrowerAddress",
      "type": "error"
    },
    {
      "inputs": [],
      "name": "InvalidCapUpdate",
      "type": "error"
    },
    {
      "inputs": [],
      "name": "MaxUtilizationBreached",
      "type": "error"
    },
    {
      "anonymous": false,
      "inputs": [],
      "name": "AllowancesGranted",
      "type": "event"
    },
    {
      "anonymous": false,
      "inputs": [
        {
          "indexed": true,
          "internalType": "address",
          "name": "owner",
          "type": "address"
        },
        {
          "indexed": true,
          "internalType": "address",
          "name": "spender",
          "type": "address"
        },
        {
          "indexed": false,
          "internalType": "uint256",
          "name": "value",
          "type": "uint256"
        }
      ],
      "name": "Approval",
      "type": "event"
    },
    {
      "anonymous": false,
      "inputs": [
        {
          "indexed": false,
          "internalType": "address",
          "name": "vault",
          "type": "address"
        },
        {
          "indexed": false,
          "internalType": "uint256",
          "name": "newCap",
          "type": "uint256"
        }
      ],
      "name": "BorrowCapUpdated",
      "type": "event"
    },
    {
      "anonymous": false,
      "inputs": [
        {
          "indexed": true,
          "internalType": "address",
          "name": "caller",
          "type": "address"
        },
        {
          "indexed": true,
          "internalType": "address",
          "name": "owner",
          "type": "address"
        },
        {
          "indexed": false,
          "internalType": "uint256",
          "name": "assets",
          "type": "uint256"
        },
        {
          "indexed": false,
          "internalType": "uint256",
          "name": "shares",
          "type": "uint256"
        }
      ],
      "name": "Deposit",
      "type": "event"
    },
    {
      "anonymous": false,
      "inputs": [
        {
          "indexed": false,
          "internalType": "uint256",
          "name": "_newDepositCap",
          "type": "uint256"
        }
      ],
      "name": "DepositCapUpdated",
      "type": "event"
    },
    {
      "anonymous": false,
      "inputs": [
        {
          "indexed": false,
          "internalType": "uint8",
          "name": "version",
          "type": "uint8"
        }
      ],
      "name": "Initialized",
      "type": "event"
    },
    {
      "anonymous": false,
      "inputs": [
        {
          "indexed": true,
          "internalType": "address",
          "name": "previousOwner",
          "type": "address"
        },
        {
          "indexed": true,
          "internalType": "address",
          "name": "newOwner",
          "type": "address"
        }
      ],
      "name": "OwnershipTransferred",
      "type": "event"
    },
    {
      "anonymous": false,
      "inputs": [
        {
          "indexed": false,
          "internalType": "address",
          "name": "account",
          "type": "address"
        }
      ],
      "name": "Paused",
      "type": "event"
    },
    {
      "anonymous": false,
      "inputs": [
        {
          "indexed": true,
          "internalType": "address",
          "name": "from",
          "type": "address"
        },
        {
          "indexed": true,
          "internalType": "address",
          "name": "to",
          "type": "address"
        },
        {
          "indexed": false,
          "internalType": "uint256",
          "name": "value",
          "type": "uint256"
        }
      ],
      "name": "Transfer",
      "type": "event"
    },
    {
      "anonymous": false,
      "inputs": [
        {
          "indexed": false,
          "internalType": "address",
          "name": "account",
          "type": "address"
        }
      ],
      "name": "Unpaused",
      "type": "event"
    },
    {
      "anonymous": false,
      "inputs": [
        {
          "indexed": true,
          "internalType": "address",
          "name": "caller",
          "type": "address"
        },
        {
          "indexed": true,
          "internalType": "address",
          "name": "receiver",
          "type": "address"
        },
        {
          "indexed": true,
          "internalType": "address",
          "name": "owner",
          "type": "address"
        },
        {
          "indexed": false,
          "internalType": "uint256",
          "name": "assets",
          "type": "uint256"
        },
        {
          "indexed": false,
          "internalType": "uint256",
          "name": "shares",
          "type": "uint256"
        }
      ],
      "name": "Withdraw",
      "type": "event"
    },
    {
      "inputs": [
        {
          "internalType": "address",
          "name": "owner",
          "type": "address"
        },
        {
          "internalType": "address",
          "name": "spender",
          "type": "address"
        }
      ],
      "name": "allowance",
      "outputs": [
        {
          "internalType": "uint256",
          "name": "",
          "type": "uint256"
        }
      ],
      "stateMutability": "view",
      "type": "function"
    },
    {
      "inputs": [
        {
          "internalType": "address",
          "name": "spender",
          "type": "address"
        },
        {
          "internalType": "uint256",
          "name": "amount",
          "type": "uint256"
        }
      ],
      "name": "approve",
      "outputs": [
        {
          "internalType": "bool",
          "name": "",
          "type": "bool"
        }
      ],
      "stateMutability": "nonpayable",
      "type": "function"
    },
    {
      "inputs": [],
      "name": "asset",
      "outputs": [
        {
          "internalType": "address",
          "name": "",
          "type": "address"
        }
      ],
      "stateMutability": "view",
      "type": "function"
    },
    {
      "inputs": [
        {
          "internalType": "address",
          "name": "borrower",
          "type": "address"
        }
      ],
      "name": "availableBorrow",
      "outputs": [
        {
          "internalType": "uint256",
          "name": "availableAUsdc",
          "type": "uint256"
        }
      ],
      "stateMutability": "view",
      "type": "function"
    },
    {
      "inputs": [
        {
          "internalType": "address",
          "name": "account",
          "type": "address"
        }
      ],
      "name": "balanceOf",
      "outputs": [
        {
          "internalType": "uint256",
          "name": "",
          "type": "uint256"
        }
      ],
      "stateMutability": "view",
      "type": "function"
    },
    {
      "inputs": [
        {
          "internalType": "uint256",
          "name": "amount",
          "type": "uint256"
        }
      ],
      "name": "borrow",
      "outputs": [],
      "stateMutability": "nonpayable",
      "type": "function"
    },
    {
      "inputs": [
        {
          "internalType": "address",
          "name": "",
          "type": "address"
        }
      ],
      "name": "borrowCaps",
      "outputs": [
        {
          "internalType": "uint256",
          "name": "",
          "type": "uint256"
        }
      ],
      "stateMutability": "view",
      "type": "function"
    },
    {
      "inputs": [
        {
          "internalType": "uint256",
          "name": "shares",
          "type": "uint256"
        }
      ],
      "name": "convertToAssets",
      "outputs": [
        {
          "internalType": "uint256",
          "name": "",
          "type": "uint256"
        }
      ],
      "stateMutability": "view",
      "type": "function"
    },
    {
      "inputs": [
        {
          "internalType": "uint256",
          "name": "assets",
          "type": "uint256"
        }
      ],
      "name": "convertToShares",
      "outputs": [
        {
          "internalType": "uint256",
          "name": "",
          "type": "uint256"
        }
      ],
      "stateMutability": "view",
      "type": "function"
    },
    {
      "inputs": [],
      "name": "decimals",
      "outputs": [
        {
          "internalType": "uint8",
          "name": "",
          "type": "uint8"
        }
      ],
      "stateMutability": "view",
      "type": "function"
    },
    {
      "inputs": [
        {
          "internalType": "address",
          "name": "spender",
          "type": "address"
        },
        {
          "internalType": "uint256",
          "name": "subtractedValue",
          "type": "uint256"
        }
      ],
      "name": "decreaseAllowance",
      "outputs": [
        {
          "internalType": "bool",
          "name": "",
          "type": "bool"
        }
      ],
      "stateMutability": "nonpayable",
      "type": "function"
    },
    {
      "inputs": [
        {
          "internalType": "uint256",
          "name": "amount",
          "type": "uint256"
        },
        {
          "internalType": "address",
          "name": "to",
          "type": "address"
        }
      ],
      "name": "deposit",
      "outputs": [
        {
          "internalType": "uint256",
          "name": "shares",
          "type": "uint256"
        }
      ],
      "stateMutability": "nonpayable",
      "type": "function"
    },
    {
      "inputs": [],
      "name": "depositCap",
      "outputs": [
        {
          "internalType": "uint256",
          "name": "",
          "type": "uint256"
        }
      ],
      "stateMutability": "view",
      "type": "function"
    },
    {
      "inputs": [],
      "name": "dnGmxJuniorVault",
      "outputs": [
        {
          "internalType": "contract IBorrower",
          "name": "",
          "type": "address"
        }
      ],
      "stateMutability": "view",
      "type": "function"
    },
    {
      "inputs": [],
      "name": "feeStrategy",
      "outputs": [
        {
          "internalType": "uint256",
          "name": "optimalUtilizationRate",
          "type": "uint256"
        },
        {
          "internalType": "uint256",
          "name": "baseVariableBorrowRate",
          "type": "uint256"
        },
        {
          "internalType": "uint256",
          "name": "variableRateSlope1",
          "type": "uint256"
        },
        {
          "internalType": "uint256",
          "name": "variableRateSlope2",
          "type": "uint256"
        }
      ],
      "stateMutability": "view",
      "type": "function"
    },
    {
      "inputs": [],
      "name": "getEthRewardsSplitRate",
      "outputs": [
        {
          "internalType": "uint256",
          "name": "feeSplitRate",
          "type": "uint256"
        }
      ],
      "stateMutability": "view",
      "type": "function"
    },
    {
      "inputs": [],
      "name": "getPriceX128",
      "outputs": [
        {
          "internalType": "uint256",
          "name": "",
          "type": "uint256"
        }
      ],
      "stateMutability": "view",
      "type": "function"
    },
    {
      "inputs": [],
      "name": "getVaultMarketValue",
      "outputs": [
        {
          "internalType": "uint256",
          "name": "",
          "type": "uint256"
        }
      ],
      "stateMutability": "view",
      "type": "function"
    },
    {
      "inputs": [],
      "name": "grantAllowances",
      "outputs": [],
      "stateMutability": "nonpayable",
      "type": "function"
    },
    {
      "inputs": [
        {
          "internalType": "address",
          "name": "spender",
          "type": "address"
        },
        {
          "internalType": "uint256",
          "name": "addedValue",
          "type": "uint256"
        }
      ],
      "name": "increaseAllowance",
      "outputs": [
        {
          "internalType": "bool",
          "name": "",
          "type": "bool"
        }
      ],
      "stateMutability": "nonpayable",
      "type": "function"
    },
    {
      "inputs": [
        {
          "internalType": "address",
          "name": "_usdc",
          "type": "address"
        },
        {
          "internalType": "string",
          "name": "_name",
          "type": "string"
        },
        {
          "internalType": "string",
          "name": "_symbol",
          "type": "string"
        },
        {
          "internalType": "address",
          "name": "_poolAddressesProvider",
          "type": "address"
        }
      ],
      "name": "initialize",
      "outputs": [],
      "stateMutability": "nonpayable",
      "type": "function"
    },
    {
      "inputs": [],
      "name": "leveragePool",
      "outputs": [
        {
          "internalType": "contract IBorrower",
          "name": "",
          "type": "address"
        }
      ],
      "stateMutability": "view",
      "type": "function"
    },
    {
      "inputs": [
        {
          "internalType": "address",
          "name": "",
          "type": "address"
        }
      ],
      "name": "maxDeposit",
      "outputs": [
        {
          "internalType": "uint256",
          "name": "",
          "type": "uint256"
        }
      ],
      "stateMutability": "view",
      "type": "function"
    },
    {
      "inputs": [
        {
          "internalType": "address",
          "name": "",
          "type": "address"
        }
      ],
      "name": "maxMint",
      "outputs": [
        {
          "internalType": "uint256",
          "name": "",
          "type": "uint256"
        }
      ],
      "stateMutability": "view",
      "type": "function"
    },
    {
      "inputs": [
        {
          "internalType": "address",
          "name": "owner",
          "type": "address"
        }
      ],
      "name": "maxRedeem",
      "outputs": [
        {
          "internalType": "uint256",
          "name": "",
          "type": "uint256"
        }
      ],
      "stateMutability": "view",
      "type": "function"
    },
    {
      "inputs": [],
      "name": "maxUtilizationBps",
      "outputs": [
        {
          "internalType": "uint256",
          "name": "",
          "type": "uint256"
        }
      ],
      "stateMutability": "view",
      "type": "function"
    },
    {
      "inputs": [
        {
          "internalType": "address",
          "name": "owner",
          "type": "address"
        }
      ],
      "name": "maxWithdraw",
      "outputs": [
        {
          "internalType": "uint256",
          "name": "",
          "type": "uint256"
        }
      ],
      "stateMutability": "view",
      "type": "function"
    },
    {
      "inputs": [
        {
          "internalType": "uint256",
          "name": "shares",
          "type": "uint256"
        },
        {
          "internalType": "address",
          "name": "to",
          "type": "address"
        }
      ],
      "name": "mint",
      "outputs": [
        {
          "internalType": "uint256",
          "name": "amount",
          "type": "uint256"
        }
      ],
      "stateMutability": "nonpayable",
      "type": "function"
    },
    {
      "inputs": [],
      "name": "name",
      "outputs": [
        {
          "internalType": "string",
          "name": "",
          "type": "string"
        }
      ],
      "stateMutability": "view",
      "type": "function"
    },
    {
      "inputs": [],
      "name": "owner",
      "outputs": [
        {
          "internalType": "address",
          "name": "",
          "type": "address"
        }
      ],
      "stateMutability": "view",
      "type": "function"
    },
    {
      "inputs": [],
      "name": "paused",
      "outputs": [
        {
          "internalType": "bool",
          "name": "",
          "type": "bool"
        }
      ],
      "stateMutability": "view",
      "type": "function"
    },
    {
      "inputs": [
        {
          "internalType": "uint256",
          "name": "assets",
          "type": "uint256"
        }
      ],
      "name": "previewDeposit",
      "outputs": [
        {
          "internalType": "uint256",
          "name": "",
          "type": "uint256"
        }
      ],
      "stateMutability": "view",
      "type": "function"
    },
    {
      "inputs": [
        {
          "internalType": "uint256",
          "name": "shares",
          "type": "uint256"
        }
      ],
      "name": "previewMint",
      "outputs": [
        {
          "internalType": "uint256",
          "name": "",
          "type": "uint256"
        }
      ],
      "stateMutability": "view",
      "type": "function"
    },
    {
      "inputs": [
        {
          "internalType": "uint256",
          "name": "shares",
          "type": "uint256"
        }
      ],
      "name": "previewRedeem",
      "outputs": [
        {
          "internalType": "uint256",
          "name": "",
          "type": "uint256"
        }
      ],
      "stateMutability": "view",
      "type": "function"
    },
    {
      "inputs": [
        {
          "internalType": "uint256",
          "name": "assets",
          "type": "uint256"
        }
      ],
      "name": "previewWithdraw",
      "outputs": [
        {
          "internalType": "uint256",
          "name": "",
          "type": "uint256"
        }
      ],
      "stateMutability": "view",
      "type": "function"
    },
    {
      "inputs": [
        {
          "internalType": "uint256",
          "name": "shares",
          "type": "uint256"
        },
        {
          "internalType": "address",
          "name": "receiver",
          "type": "address"
        },
        {
          "internalType": "address",
          "name": "owner",
          "type": "address"
        }
      ],
      "name": "redeem",
      "outputs": [
        {
          "internalType": "uint256",
          "name": "assets",
          "type": "uint256"
        }
      ],
      "stateMutability": "nonpayable",
      "type": "function"
    },
    {
      "inputs": [],
      "name": "renounceOwnership",
      "outputs": [],
      "stateMutability": "nonpayable",
      "type": "function"
    },
    {
      "inputs": [
        {
          "internalType": "uint256",
          "name": "amount",
          "type": "uint256"
        }
      ],
      "name": "repay",
      "outputs": [],
      "stateMutability": "nonpayable",
      "type": "function"
    },
    {
      "inputs": [
        {
          "internalType": "uint256",
          "name": "_newDepositCap",
          "type": "uint256"
        }
      ],
      "name": "setDepositCap",
      "outputs": [],
      "stateMutability": "nonpayable",
      "type": "function"
    },
    {
      "inputs": [
        {
          "internalType": "contract IBorrower",
          "name": "_dnGmxJuniorVault",
          "type": "address"
        }
      ],
      "name": "setDnGmxJuniorVault",
      "outputs": [],
      "stateMutability": "nonpayable",
      "type": "function"
    },
    {
      "inputs": [
        {
          "internalType": "contract IBorrower",
          "name": "_leveragePool",
          "type": "address"
        }
      ],
      "name": "setLeveragePool",
      "outputs": [],
      "stateMutability": "nonpayable",
      "type": "function"
    },
    {
      "inputs": [
        {
          "internalType": "uint256",
          "name": "_maxUtilizationBps",
          "type": "uint256"
        }
      ],
      "name": "setMaxUtilizationBps",
      "outputs": [],
      "stateMutability": "nonpayable",
      "type": "function"
    },
    {
      "inputs": [],
      "name": "symbol",
      "outputs": [
        {
          "internalType": "string",
          "name": "",
          "type": "string"
        }
      ],
      "stateMutability": "view",
      "type": "function"
    },
    {
      "inputs": [],
      "name": "totalAssets",
      "outputs": [
        {
          "internalType": "uint256",
          "name": "amount",
          "type": "uint256"
        }
      ],
      "stateMutability": "view",
      "type": "function"
    },
    {
      "inputs": [],
      "name": "totalSupply",
      "outputs": [
        {
          "internalType": "uint256",
          "name": "",
          "type": "uint256"
        }
      ],
      "stateMutability": "view",
      "type": "function"
    },
    {
      "inputs": [],
      "name": "totalUsdcBorrowed",
      "outputs": [
        {
          "internalType": "uint256",
          "name": "usdcBorrowed",
          "type": "uint256"
        }
      ],
      "stateMutability": "view",
      "type": "function"
    },
    {
      "inputs": [
        {
          "internalType": "address",
          "name": "to",
          "type": "address"
        },
        {
          "internalType": "uint256",
          "name": "amount",
          "type": "uint256"
        }
      ],
      "name": "transfer",
      "outputs": [
        {
          "internalType": "bool",
          "name": "",
          "type": "bool"
        }
      ],
      "stateMutability": "nonpayable",
      "type": "function"
    },
    {
      "inputs": [
        {
          "internalType": "address",
          "name": "from",
          "type": "address"
        },
        {
          "internalType": "address",
          "name": "to",
          "type": "address"
        },
        {
          "internalType": "uint256",
          "name": "amount",
          "type": "uint256"
        }
      ],
      "name": "transferFrom",
      "outputs": [
        {
          "internalType": "bool",
          "name": "",
          "type": "bool"
        }
      ],
      "stateMutability": "nonpayable",
      "type": "function"
    },
    {
      "inputs": [
        {
          "internalType": "address",
          "name": "newOwner",
          "type": "address"
        }
      ],
      "name": "transferOwnership",
      "outputs": [],
      "stateMutability": "nonpayable",
      "type": "function"
    },
    {
      "inputs": [
        {
          "internalType": "address",
          "name": "borrowerAddress",
          "type": "address"
        },
        {
          "internalType": "uint256",
          "name": "cap",
          "type": "uint256"
        }
      ],
      "name": "updateBorrowCap",
      "outputs": [],
      "stateMutability": "nonpayable",
      "type": "function"
    },
    {
      "inputs": [
        {
          "components": [
            {
              "internalType": "uint256",
              "name": "optimalUtilizationRate",
              "type": "uint256"
            },
            {
              "internalType": "uint256",
              "name": "baseVariableBorrowRate",
              "type": "uint256"
            },
            {
              "internalType": "uint256",
              "name": "variableRateSlope1",
              "type": "uint256"
            },
            {
              "internalType": "uint256",
              "name": "variableRateSlope2",
              "type": "uint256"
            }
          ],
          "internalType": "struct FeeSplitStrategy.Info",
          "name": "_feeStrategy",
          "type": "tuple"
        }
      ],
      "name": "updateFeeStrategyParams",
      "outputs": [],
      "stateMutability": "nonpayable",
      "type": "function"
    },
    {
      "inputs": [
        {
          "internalType": "uint256",
          "name": "assets",
          "type": "uint256"
        },
        {
          "internalType": "address",
          "name": "receiver",
          "type": "address"
        },
        {
          "internalType": "address",
          "name": "owner",
          "type": "address"
        }
      ],
      "name": "withdraw",
      "outputs": [
        {
          "internalType": "uint256",
          "name": "shares",
          "type": "uint256"
        }
      ],
      "stateMutability": "nonpayable",
      "type": "function"
    }
  ],
  "transactionHash": "0xd9dfce7f85121394d7d96476860c84d0eaabe8b68125dd10d202c74b3f557132",
  "args": [],
  "numDeployments": 1,
  "solcInputHash": "8a91c9589b5917bfafffbd9aad6f1d59",
  "bytecode": "0x608060405234801561001057600080fd5b506132df806100206000396000f3fe608060405234801561001057600080fd5b506004361061034c5760003560e01c80638301d55a116101bd578063bf9571f1116100f9578063d905777e116100a2578063dd62ed3e1161007c578063dd62ed3e146106db578063e3696edd14610714578063ef8b30f71461071c578063f2fde38b1461072f57600080fd5b8063d905777e146106ac578063db2d9c3a146106bf578063dbd5edc7146106d257600080fd5b8063c6e6f592116100d3578063c6e6f59214610673578063ce96cb7714610686578063d026c1231461069957600080fd5b8063bf9571f114610658578063c5ebeaec14610660578063c63d75b61461045857600080fd5b806395d89b4111610166578063aa88fdc311610140578063aa88fdc31461060c578063b3d7f6b91461061f578063b460af9414610632578063ba0876521461064557600080fd5b806395d89b41146105de578063a457c2d7146105e6578063a9059cbb146105f957600080fd5b80638da5cb5b116101975780638da5cb5b14610584578063949b22ae1461059557806394bf804d146105cb57600080fd5b80638301d55a1461055657806386651203146105695780638d315d7b1461057c57600080fd5b8063402d267d1161028c578063613d25bb11610235578063715018a61161020f578063715018a614610520578063768e66d31461052857806377c718ae1461053b5780638224f4e81461054357600080fd5b8063613d25bb146104d15780636e553f65146104e457806370a08231146104f757600080fd5b8063543bc98411610266578063543bc984146104a057806356ab92b3146104b35780635c975abb146104c657600080fd5b8063402d267d146104585780634a5844321461046d5780634cdad5061461048d57600080fd5b806323b872dd116102f9578063371fd8e6116102d3578063371fd8e6146103fd57806338d52e0f14610412578063395093511461043d5780633d672a451461045057600080fd5b806323b872dd146103d2578063304ea9cb146103e5578063313ce567146103ee57600080fd5b8063095ea7b31161032a578063095ea7b3146103945780630a28a477146103b757806318160ddd146103ca57600080fd5b806301e1d1141461035157806306fdde031461036c57806307a2d13a14610381575b600080fd5b610359610742565b6040519081526020015b60405180910390f35b6103746107c8565b6040516103639190612cd5565b61035961038f366004612d08565b61085a565b6103a76103a2366004612d36565b61088f565b6040519015158152602001610363565b6103596103c5366004612d08565b6108a9565b603554610359565b6103a76103e0366004612d62565b6108d1565b61035960cb5481565b60405160068152602001610363565b61041061040b366004612d08565b6108f5565b005b606554610425906001600160a01b031681565b6040516001600160a01b039091168152602001610363565b6103a761044b366004612d36565b610a21565b610359610a60565b610359610466366004612da3565b5060001990565b61035961047b366004612da3565b60d66020526000908152604090205481565b61035961049b366004612d08565b610aef565b6103596104ae366004612da3565b610afa565b6104106104c1366004612d08565b610c0d565b60985460ff166103a7565b6104106104df366004612e09565b610c1a565b6103596104f2366004612e9e565b611040565b610359610505366004612da3565b6001600160a01b031660009081526033602052604090205490565b6104106110bc565b610410610536366004612d36565b6110d0565b610359611276565b60cc54610425906001600160a01b031681565b610410610564366004612ece565b611399565b610410610577366004612d08565b6113c4565b610359611407565b6066546001600160a01b0316610425565b60ce5460cf5460d05460d1546105ab9392919084565b604080519485526020850193909352918301526060820152608001610363565b6103596105d9366004612e9e565b611495565b610374611511565b6103a76105f4366004612d36565b611520565b6103a7610607366004612d36565b6115b2565b60cd54610425906001600160a01b031681565b61035961062d366004612d08565b6115c0565b610359610640366004612ee6565b6115e7565b610359610653366004612ee6565b611664565b6104106116e1565b61041061066e366004612d08565b61180d565b610359610681366004612d08565b611922565b610359610694366004612da3565b61194a565b6104106106a7366004612da3565b61196c565b6103596106ba366004612da3565b611996565b6104106106cd366004612da3565b6119b4565b61035960ca5481565b6103596106e9366004612f28565b6001600160a01b03918216600090815260346020908152604080832093909416825291909152205490565b6103596119de565b61035961072a366004612d08565b611a62565b61041061073d366004612da3565b611a6d565b60d3546040516370a0823160e01b81523060048201526000916001600160a01b0316906370a0823190602401602060405180830381865afa15801561078b573d6000803e3d6000fd5b505050506040513d601f19601f820116820180604052508101906107af9190612f56565b90506107b9611276565b6107c39082612f85565b905090565b6060603680546107d790612f9d565b80601f016020809104026020016040519081016040528092919081815260200182805461080390612f9d565b80156108505780601f1061082557610100808354040283529160200191610850565b820191906000526020600020905b81548152906001019060200180831161083357829003601f168201915b5050505050905090565b60008061086660355490565b9050801561088657610881610879610742565b849083611ae6565b610888565b825b9392505050565b60003361089d818585611b05565b60019150505b92915050565b6000806108b560355490565b9050801561088657610881816108c9610742565b859190611c29565b6000336108df858285611c57565b6108ea858585611ce9565b506001949350505050565b60cd546001600160a01b0316331480159061091b575060cc546001600160a01b03163314155b1561093957604051633c698d7960e01b815260040160405180910390fd5b60cd60009054906101000a90046001600160a01b03166001600160a01b031663138cc18f6040518163ffffffff1660e01b8152600401600060405180830381600087803b15801561098957600080fd5b505af115801561099d573d6000803e3d6000fd5b505060d3546040516323b872dd60e01b8152336004820152306024820152604481018590526001600160a01b0390911692506323b872dd91506064015b6020604051808303816000875af11580156109f9573d6000803e3d6000fd5b505050506040513d601f19601f82011682018060405250810190610a1d9190612fd2565b5050565b3360008181526034602090815260408083206001600160a01b038716845290915281205490919061089d9082908690610a5b908790612f85565b611b05565b60d45460655460405163b3596f0760e01b81526001600160a01b0391821660048201526000928392169063b3596f0790602401602060405180830381865afa158015610ab0573d6000803e3d6000fd5b505050506040513d601f19601f82011682018060405250810190610ad49190612f56565b9050610ae981600160801b6305f5e100611eb7565b91505090565b60006108a38261085a565b600080826001600160a01b03166395e2da7c6040518163ffffffff1660e01b8152600401602060405180830381865afa158015610b3b573d6000803e3d6000fd5b505050506040513d601f19601f82011682018060405250810190610b5f9190612f56565b6001600160a01b038416600090815260d66020526040902054610b829190612ff4565b60d3546040516370a0823160e01b81523060048201529192506000916001600160a01b03909116906370a0823190602401602060405180830381865afa158015610bd0573d6000803e3d6000fd5b505050506040513d601f19601f82011682018060405250810190610bf49190612f56565b9050808210610c035780610c05565b815b949350505050565b610c15611f6a565b60cb55565b600054610100900460ff1615808015610c3a5750600054600160ff909116105b80610c545750303b158015610c54575060005460ff166001145b610cbc5760405162461bcd60e51b815260206004820152602e60248201527f496e697469616c697a61626c653a20636f6e747261637420697320616c72656160448201526d191e481a5b9a5d1a585b1a5e995960921b60648201526084015b60405180910390fd5b6000805460ff191660011790558015610cdf576000805461ff0019166101001790555b610ce7611fc4565b610cef611ff3565b610d638787878080601f01602080910402602001604051908101604052809392919081815260200183838082843760009201919091525050604080516020601f8b01819004810282018101909252898152925089915088908190840183828082843760009201919091525061202292505050565b60d580546001600160a01b0319166001600160a01b0384169081179091556040805163026b1d5f60e01b8152905163026b1d5f916004808201926020929091908290030181865afa158015610dbc573d6000803e3d6000fd5b505050506040513d601f19601f82011682018060405250810190610de0919061301b565b60d280546001600160a01b0319166001600160a01b039283169081179091556040516335ea6a7560e01b81529189166004830152906335ea6a75906024016101e060405180830381865afa158015610e3c573d6000803e3d6000fd5b505050506040513d601f19601f82011682018060405250810190610e609190613107565b610100015160d380546001600160a01b0319166001600160a01b0392831617905560d55460408051631f94a27560e31b81529051919092169163fca513a89160048083019260209291908290030181865afa158015610ec3573d6000803e3d6000fd5b505050506040513d601f19601f82011682018060405250810190610ee7919061301b565b60d480546001600160a01b0319166001600160a01b0392831617905560d35460d25460405163095ea7b360e01b81529083166004820152600019602482015291169063095ea7b3906044016020604051808303816000875af1158015610f51573d6000803e3d6000fd5b505050506040513d601f19601f82011682018060405250810190610f759190612fd2565b5060655460d25460405163095ea7b360e01b81526001600160a01b039182166004820152600019602482015291169063095ea7b3906044016020604051808303816000875af1158015610fcc573d6000803e3d6000fd5b505050506040513d601f19601f82011682018060405250810190610ff09190612fd2565b508015611037576000805461ff0019169055604051600181527f7f26b83ff96e1f2b6a682f133852f6798a09c465da95921460cefb38474024989060200160405180910390a15b50505050505050565b600061104a612050565b60cd60009054906101000a90046001600160a01b03166001600160a01b031663138cc18f6040518163ffffffff1660e01b8152600401600060405180830381600087803b15801561109a57600080fd5b505af11580156110ae573d6000803e3d6000fd5b505050506108888383612096565b6110c4611f6a565b6110ce6000612151565b565b6110d8611f6a565b60cd546001600160a01b03838116911614801590611104575060cc546001600160a01b03838116911614155b15611122576040516348b905b160e01b815260040160405180910390fd5b80826001600160a01b03166395e2da7c6040518163ffffffff1660e01b8152600401602060405180830381865afa158015611161573d6000803e3d6000fd5b505050506040513d601f19601f820116820180604052508101906111859190612f56565b106111a357604051633a020d0160e11b815260040160405180910390fd5b6001600160a01b03828116600081815260d660205260409081902084905560d354905163095ea7b360e01b81526004810192909252602482018490529091169063095ea7b3906044016020604051808303816000875af115801561120b573d6000803e3d6000fd5b505050506040513d601f19601f8201168201806040525081019061122f9190612fd2565b50604080516001600160a01b0384168152602081018390527f84d2db42497fc6f1882756be420935d982025ad8a2a903dfb83638a09e49a775910160405180910390a15050565b60cc546000906001600160a01b03161561130e5760cc60009054906101000a90046001600160a01b03166001600160a01b03166395e2da7c6040518163ffffffff1660e01b8152600401602060405180830381865afa1580156112dd573d6000803e3d6000fd5b505050506040513d601f19601f820116820180604052508101906113019190612f56565b61130b9082612f85565b90505b60cd546001600160a01b0316156113965760cd60009054906101000a90046001600160a01b03166001600160a01b03166395e2da7c6040518163ffffffff1660e01b8152600401602060405180830381865afa158015611372573d6000803e3d6000fd5b505050506040513d601f19601f820116820180604052508101906107b99190612f56565b90565b6113a1611f6a565b803560ce55602081013560cf55604081013560d0556060013560d155565b505050565b6113cc611f6a565b60ca8190556040518181527f333b26cca69716ad4680ddb07663f5bfb4f06045671f336af9a83690a3ae00f99060200160405180910390a150565b60d45460655460405163b3596f0760e01b81526001600160a01b0391821660048201526000928392169063b3596f0790602401602060405180830381865afa158015611457573d6000803e3d6000fd5b505050506040513d601f19601f8201168201806040525081019061147b9190612f56565b9050610ae9816305f5e10061148e610742565b9190611eb7565b600061149f612050565b60cd60009054906101000a90046001600160a01b03166001600160a01b031663138cc18f6040518163ffffffff1660e01b8152600401600060405180830381600087803b1580156114ef57600080fd5b505af1158015611503573d6000803e3d6000fd5b5050505061088883836121a3565b6060603780546107d790612f9d565b3360008181526034602090815260408083206001600160a01b0387168452909152812054909190838110156115a55760405162461bcd60e51b815260206004820152602560248201527f45524332303a2064656372656173656420616c6c6f77616e63652062656c6f77604482015264207a65726f60d81b6064820152608401610cb3565b6108ea8286868403611b05565b60003361089d818585611ce9565b6000806115cc60355490565b90508015610886576108816115df610742565b849083611c29565b60006115f1612050565b60cd60009054906101000a90046001600160a01b03166001600160a01b031663138cc18f6040518163ffffffff1660e01b8152600401600060405180830381600087803b15801561164157600080fd5b505af1158015611655573d6000803e3d6000fd5b50505050610c05848484612224565b600061166e612050565b60cd60009054906101000a90046001600160a01b03166001600160a01b031663138cc18f6040518163ffffffff1660e01b8152600401600060405180830381600087803b1580156116be57600080fd5b505af11580156116d2573d6000803e3d6000fd5b50505050610c058484846122f6565b6116e9611f6a565b60d25460655460405163095ea7b360e01b81526001600160a01b03928316600482018190526000196024830152929091169063095ea7b3906044016020604051808303816000875af1158015611743573d6000803e3d6000fd5b505050506040513d601f19601f820116820180604052508101906117679190612fd2565b5060d35460405163095ea7b360e01b81526001600160a01b03838116600483015260001960248301529091169063095ea7b3906044016020604051808303816000875af11580156117bc573d6000803e3d6000fd5b505050506040513d601f19601f820116820180604052508101906117e09190612fd2565b506040517fba5bb3f899c7a3edcc9ff9d46c4e08449c6a608b6f8254132bc5af4898645cbc90600090a150565b60cd546001600160a01b03163314801590611833575060cc546001600160a01b03163314155b1561185157604051633c698d7960e01b815260040160405180910390fd5b801580611865575061186233610afa565b81115b1561188357604051630e25379960e21b815260040160405180910390fd5b60cd60009054906101000a90046001600160a01b03166001600160a01b031663138cc18f6040518163ffffffff1660e01b8152600401600060405180830381600087803b1580156118d357600080fd5b505af11580156118e7573d6000803e3d6000fd5b505060d35460405163a9059cbb60e01b8152336004820152602481018590526001600160a01b03909116925063a9059cbb91506044016109da565b60008061192e60355490565b905080156108865761088181611942610742565b859190611ae6565b6001600160a01b0381166000908152603360205260408120546108a39061085a565b611974611f6a565b60cd80546001600160a01b0319166001600160a01b0392909216919091179055565b6001600160a01b0381166000908152603360205260408120546108a3565b6119bc611f6a565b60cc80546001600160a01b0319166001600160a01b0392909216919091179055565b60d3546040516370a0823160e01b81523060048201526000916107c3916001600160a01b03909116906370a0823190602401602060405180830381865afa158015611a2d573d6000803e3d6000fd5b505050506040513d601f19601f82011682018060405250810190611a519190612f56565b611a59611276565b60ce9190612403565b60006108a382611922565b611a75611f6a565b6001600160a01b038116611ada5760405162461bcd60e51b815260206004820152602660248201527f4f776e61626c653a206e6577206f776e657220697320746865207a65726f206160448201526564647265737360d01b6064820152608401610cb3565b611ae381612151565b50565b828202811515841585830485141716611afe57600080fd5b0492915050565b6001600160a01b038316611b675760405162461bcd60e51b8152602060048201526024808201527f45524332303a20617070726f76652066726f6d20746865207a65726f206164646044820152637265737360e01b6064820152608401610cb3565b6001600160a01b038216611bc85760405162461bcd60e51b815260206004820152602260248201527f45524332303a20617070726f766520746f20746865207a65726f206164647265604482015261737360f01b6064820152608401610cb3565b6001600160a01b0383811660008181526034602090815260408083209487168084529482529182902085905590518481527f8c5be1e5ebec7d5bd14f71427d1e84f3dd0314c0f7b2291e5b200ac8c7c3b925910160405180910390a3505050565b828202811515841585830485141716611c4157600080fd5b6001826001830304018115150290509392505050565b6001600160a01b038381166000908152603460209081526040808320938616835292905220546000198114611ce35781811015611cd65760405162461bcd60e51b815260206004820152601d60248201527f45524332303a20696e73756666696369656e7420616c6c6f77616e63650000006044820152606401610cb3565b611ce38484848403611b05565b50505050565b6001600160a01b038316611d4d5760405162461bcd60e51b815260206004820152602560248201527f45524332303a207472616e736665722066726f6d20746865207a65726f206164604482015264647265737360d81b6064820152608401610cb3565b6001600160a01b038216611daf5760405162461bcd60e51b815260206004820152602360248201527f45524332303a207472616e7366657220746f20746865207a65726f206164647260448201526265737360e81b6064820152608401610cb3565b6001600160a01b03831660009081526033602052604090205481811015611e275760405162461bcd60e51b815260206004820152602660248201527f45524332303a207472616e7366657220616d6f756e7420657863656564732062604482015265616c616e636560d01b6064820152608401610cb3565b6001600160a01b03808516600090815260336020526040808220858503905591851681529081208054849290611e5e908490612f85565b92505081905550826001600160a01b0316846001600160a01b03167fddf252ad1be2c89b69c2b068fc378daa952ba7f163c4a11628f55a4df523b3ef84604051611eaa91815260200190565b60405180910390a3611ce3565b600080806000198587098587029250828110838203039150508060001415611ef15760008411611ee657600080fd5b508290049050610888565b808411611efd57600080fd5b6000848688096000868103871696879004966002600389028118808a02820302808a02820302808a02820302808a02820302808a02820302808a02909103029181900381900460010186841190950394909402919094039290920491909117919091029150509392505050565b6066546001600160a01b031633146110ce5760405162461bcd60e51b815260206004820181905260248201527f4f776e61626c653a2063616c6c6572206973206e6f7420746865206f776e65726044820152606401610cb3565b600054610100900460ff16611feb5760405162461bcd60e51b8152600401610cb39061322a565b6110ce6124f9565b600054610100900460ff1661201a5760405162461bcd60e51b8152600401610cb39061322a565b6110ce612529565b61202c828261255c565b5050606580546001600160a01b0319166001600160a01b0392909216919091179055565b60985460ff16156110ce5760405162461bcd60e51b815260206004820152601060248201526f14185d5cd8589b194e881c185d5cd95960821b6044820152606401610cb3565b60006120a183611a62565b9050806120de5760405162461bcd60e51b815260206004820152600b60248201526a5a45524f5f53484152455360a81b6044820152606401610cb3565b6065546120f6906001600160a01b031633308661258d565b6121008282612610565b60408051848152602081018390526001600160a01b0384169133917fdcbc1c05240f31ff3ad067ef1ee35ce4997762752e3a095284754544f4c709d7910160405180910390a36108a38382846126ef565b606680546001600160a01b038381166001600160a01b0319831681179093556040519116919082907f8be0079c531659141344cd1fd0a4f28419497f9722a3daafe3b4186f6b6457e090600090a35050565b60006121ae836115c0565b6065549091506121c9906001600160a01b031633308461258d565b6121d38284612610565b60408051828152602081018590526001600160a01b0384169133917fdcbc1c05240f31ff3ad067ef1ee35ce4997762752e3a095284754544f4c709d7910160405180910390a36108a38184846126ef565b600061222f846108a9565b9050336001600160a01b0383161461227f576001600160a01b0382166000908152603460209081526040808320338452909152902054600019811461227d5761227d8333610a5b8585612ff4565b505b61228a84828561278a565b612294828261285e565b60408051858152602081018390526001600160a01b03808516929086169133917ffbde797d201c681b91056529119e0b02407c7bb96a4a2c75c01fc9667232c8db910160405180910390a4606554610888906001600160a01b031684866129ac565b6000336001600160a01b03831614612346576001600160a01b03821660009081526034602090815260408083203384529091529020546000198114612344576123448333610a5b8885612ff4565b505b61234f84610aef565b90508061238c5760405162461bcd60e51b815260206004820152600b60248201526a5a45524f5f41535345545360a81b6044820152606401610cb3565b61239781858561278a565b6123a1828561285e565b60408051828152602081018690526001600160a01b03808516929086169133917ffbde797d201c681b91056529119e0b02407c7bb96a4a2c75c01fc9667232c8db910160405180910390a4606554610888906001600160a01b031684836129ac565b60008082156124345761242f6c0c9f2c9cd04674edea400000006124278587612f85565b859190611eb7565b612437565b60005b8554909150600090612456906c0c9f2c9cd04674edea40000000612ff4565b86549091508211156124cc5760006124866c0c9f2c9cd04674edea400000008389600001548661148e9190612ff4565b60038801549091506124a690826c0c9f2c9cd04674edea40000000611eb7565b876002015488600101546124ba9190612f85565b6124c49190612f85565b9350506124f0565b600286015486546124de918491611eb7565b86600101546124ed9190612f85565b92505b50509392505050565b600054610100900460ff166125205760405162461bcd60e51b8152600401610cb39061322a565b6110ce33612151565b600054610100900460ff166125505760405162461bcd60e51b8152600401610cb39061322a565b6098805460ff19169055565b600054610100900460ff166125835760405162461bcd60e51b8152600401610cb39061322a565b610a1d82826129dc565b6040516001600160a01b0380851660248301528316604482015260648101829052611ce39085906323b872dd60e01b906084015b60408051601f198184030181529190526020810180516001600160e01b03167fffffffff0000000000000000000000000000000000000000000000000000000090931692909217909152612a2a565b6001600160a01b0382166126665760405162461bcd60e51b815260206004820152601f60248201527f45524332303a206d696e7420746f20746865207a65726f2061646472657373006044820152606401610cb3565b80603560008282546126789190612f85565b90915550506001600160a01b038216600090815260336020526040812080548392906126a5908490612f85565b90915550506040518181526001600160a01b038316906000907fddf252ad1be2c89b69c2b068fc378daa952ba7f163c4a11628f55a4df523b3ef9060200160405180910390a35050565b60ca546126fa610742565b1115612719576040516324d758c360e21b815260040160405180910390fd5b60d25460655460405163617ba03760e01b81526001600160a01b039182166004820152602481018690523060448201526000606482015291169063617ba03790608401600060405180830381600087803b15801561277657600080fd5b505af1158015611037573d6000803e3d6000fd5b60cb54612710908461279a610742565b6127a49190612ff4565b6127ae9190613275565b6127b89190613294565b6127c0611276565b11156127df57604051635276dbb960e01b815260040160405180910390fd5b60d254606554604051631a4ca37b60e21b81526001600160a01b039182166004820152602481018690523060448201529116906369328dec906064016020604051808303816000875af115801561283a573d6000803e3d6000fd5b505050506040513d601f19601f82011682018060405250810190611ce39190612f56565b6001600160a01b0382166128be5760405162461bcd60e51b815260206004820152602160248201527f45524332303a206275726e2066726f6d20746865207a65726f206164647265736044820152607360f81b6064820152608401610cb3565b6001600160a01b038216600090815260336020526040902054818110156129325760405162461bcd60e51b815260206004820152602260248201527f45524332303a206275726e20616d6f756e7420657863656564732062616c616e604482015261636560f01b6064820152608401610cb3565b6001600160a01b0383166000908152603360205260408120838303905560358054849290612961908490612ff4565b90915550506040518281526000906001600160a01b038516907fddf252ad1be2c89b69c2b068fc378daa952ba7f163c4a11628f55a4df523b3ef9060200160405180910390a3505050565b6040516001600160a01b0383166024820152604481018290526113bf90849063a9059cbb60e01b906064016125c1565b600054610100900460ff16612a035760405162461bcd60e51b8152600401610cb39061322a565b8151612a16906036906020850190612c10565b5080516113bf906037906020840190612c10565b6000612a7f826040518060400160405280602081526020017f5361666545524332303a206c6f772d6c6576656c2063616c6c206661696c6564815250856001600160a01b0316612afc9092919063ffffffff16565b8051909150156113bf5780806020019051810190612a9d9190612fd2565b6113bf5760405162461bcd60e51b815260206004820152602a60248201527f5361666545524332303a204552433230206f7065726174696f6e20646964206e6044820152691bdd081cdd58d8d9595960b21b6064820152608401610cb3565b6060610c058484600085856001600160a01b0385163b612b5e5760405162461bcd60e51b815260206004820152601d60248201527f416464726573733a2063616c6c20746f206e6f6e2d636f6e74726163740000006044820152606401610cb3565b600080866001600160a01b03168587604051612b7a91906132b6565b60006040518083038185875af1925050503d8060008114612bb7576040519150601f19603f3d011682016040523d82523d6000602084013e612bbc565b606091505b5091509150612bcc828286612bd7565b979650505050505050565b60608315612be6575081610888565b825115612bf65782518084602001fd5b8160405162461bcd60e51b8152600401610cb39190612cd5565b828054612c1c90612f9d565b90600052602060002090601f016020900481019282612c3e5760008555612c84565b82601f10612c5757805160ff1916838001178555612c84565b82800160010185558215612c84579182015b82811115612c84578251825591602001919060010190612c69565b50612c90929150612c94565b5090565b5b80821115612c905760008155600101612c95565b60005b83811015612cc4578181015183820152602001612cac565b83811115611ce35750506000910152565b6020815260008251806020840152612cf4816040850160208701612ca9565b601f01601f19169190910160400192915050565b600060208284031215612d1a57600080fd5b5035919050565b6001600160a01b0381168114611ae357600080fd5b60008060408385031215612d4957600080fd5b8235612d5481612d21565b946020939093013593505050565b600080600060608486031215612d7757600080fd5b8335612d8281612d21565b92506020840135612d9281612d21565b929592945050506040919091013590565b600060208284031215612db557600080fd5b813561088881612d21565b60008083601f840112612dd257600080fd5b50813567ffffffffffffffff811115612dea57600080fd5b602083019150836020828501011115612e0257600080fd5b9250929050565b60008060008060008060808789031215612e2257600080fd5b8635612e2d81612d21565b9550602087013567ffffffffffffffff80821115612e4a57600080fd5b612e568a838b01612dc0565b90975095506040890135915080821115612e6f57600080fd5b50612e7c89828a01612dc0565b9094509250506060870135612e9081612d21565b809150509295509295509295565b60008060408385031215612eb157600080fd5b823591506020830135612ec381612d21565b809150509250929050565b600060808284031215612ee057600080fd5b50919050565b600080600060608486031215612efb57600080fd5b833592506020840135612f0d81612d21565b91506040840135612f1d81612d21565b809150509250925092565b60008060408385031215612f3b57600080fd5b8235612f4681612d21565b91506020830135612ec381612d21565b600060208284031215612f6857600080fd5b5051919050565b634e487b7160e01b600052601160045260246000fd5b60008219821115612f9857612f98612f6f565b500190565b600181811c90821680612fb157607f821691505b60208210811415612ee057634e487b7160e01b600052602260045260246000fd5b600060208284031215612fe457600080fd5b8151801515811461088857600080fd5b60008282101561300657613006612f6f565b500390565b805161301681612d21565b919050565b60006020828403121561302d57600080fd5b815161088881612d21565b6040516101e0810167ffffffffffffffff8111828210171561306a57634e487b7160e01b600052604160045260246000fd5b60405290565b60006020828403121561308257600080fd5b6040516020810181811067ffffffffffffffff821117156130b357634e487b7160e01b600052604160045260246000fd5b6040529151825250919050565b80516fffffffffffffffffffffffffffffffff8116811461301657600080fd5b805164ffffffffff8116811461301657600080fd5b805161ffff8116811461301657600080fd5b60006101e0828403121561311a57600080fd5b613122613038565b61312c8484613070565b815261313a602084016130c0565b602082015261314b604084016130c0565b604082015261315c606084016130c0565b606082015261316d608084016130c0565b608082015261317e60a084016130c0565b60a082015261318f60c084016130e0565b60c08201526131a060e084016130f5565b60e08201526101006131b381850161300b565b908201526101206131c584820161300b565b908201526101406131d784820161300b565b908201526101606131e984820161300b565b908201526101806131fb8482016130c0565b908201526101a061320d8482016130c0565b908201526101c061321f8482016130c0565b908201529392505050565b6020808252602b908201527f496e697469616c697a61626c653a20636f6e7472616374206973206e6f74206960408201526a6e697469616c697a696e6760a81b606082015260800190565b600081600019048311821515161561328f5761328f612f6f565b500290565b6000826132b157634e487b7160e01b600052601260045260246000fd5b500490565b600082516132c8818460208701612ca9565b919091019291505056fea164736f6c634300080a000a",
  "devdoc": {
    "kind": "dev",
    "methods": {
      "allowance(address,address)": {
        "details": "See {IERC20-allowance}."
      },
      "approve(address,uint256)": {
        "details": "See {IERC20-approve}. NOTE: If `amount` is the maximum `uint256`, the allowance is not updated on `transferFrom`. This is semantically equivalent to an infinite approval. Requirements: - `spender` cannot be the zero address."
      },
      "balanceOf(address)": {
        "details": "See {IERC20-balanceOf}."
      },
      "convertToAssets(uint256)": {
        "details": "Returns the amount of assets that the Vault would exchange for the amount of shares provided, in an ideal scenario where all the conditions are met. - MUST NOT be inclusive of any fees that are charged against assets in the Vault. - MUST NOT show any variations depending on the caller. - MUST NOT reflect slippage or other on-chain conditions, when performing the actual exchange. - MUST NOT revert. NOTE: This calculation MAY NOT reflect the per-user price-per-share, and instead should reflect the average-users price-per-share, meaning what the average user should expect to see when exchanging to and from."
      },
      "convertToShares(uint256)": {
        "details": "Returns the amount of shares that the Vault would exchange for the amount of assets provided, in an ideal scenario where all the conditions are met. - MUST NOT be inclusive of any fees that are charged against assets in the Vault. - MUST NOT show any variations depending on the caller. - MUST NOT reflect slippage or other on-chain conditions, when performing the actual exchange. - MUST NOT revert. NOTE: This calculation MAY NOT reflect the per-user price-per-share, and instead should reflect the average-users price-per-share, meaning what the average user should expect to see when exchanging to and from."
      },
      "decimals()": {
        "details": "Returns the number of decimals used to get its user representation. For example, if `decimals` equals `2`, a balance of `505` tokens should be displayed to a user as `5.05` (`505 / 10 ** 2`). Tokens usually opt for a value of 18, imitating the relationship between Ether and Wei. This is the value {ERC20} uses, unless this function is overridden; NOTE: This information is only used for _display_ purposes: it in no way affects any of the arithmetic of the contract, including {IERC20-balanceOf} and {IERC20-transfer}."
      },
      "decreaseAllowance(address,uint256)": {
        "details": "Atomically decreases the allowance granted to `spender` by the caller. This is an alternative to {approve} that can be used as a mitigation for problems described in {IERC20-approve}. Emits an {Approval} event indicating the updated allowance. Requirements: - `spender` cannot be the zero address. - `spender` must have allowance for the caller of at least `subtractedValue`."
      },
      "increaseAllowance(address,uint256)": {
        "details": "Atomically increases the allowance granted to `spender` by the caller. This is an alternative to {approve} that can be used as a mitigation for problems described in {IERC20-approve}. Emits an {Approval} event indicating the updated allowance. Requirements: - `spender` cannot be the zero address."
      },
      "maxRedeem(address)": {
        "details": "Returns the maximum amount of Vault shares that can be redeemed from the owner balance in the Vault, through a redeem call. - MUST return a limited value if owner is subject to some withdrawal limit or timelock. - MUST return balanceOf(owner) if owner is not subject to any withdrawal limit or timelock. - MUST NOT revert."
      },
      "maxWithdraw(address)": {
        "details": "Returns the maximum amount of the underlying asset that can be withdrawn from the owner balance in the Vault, through a withdraw call. - MUST return a limited value if owner is subject to some withdrawal limit or timelock. - MUST NOT revert."
      },
      "name()": {
        "details": "Returns the name of the token."
      },
      "owner()": {
        "details": "Returns the address of the current owner."
      },
      "paused()": {
        "details": "Returns true if the contract is paused, and false otherwise."
      },
      "previewDeposit(uint256)": {
        "details": "Allows an on-chain or off-chain user to simulate the effects of their deposit at the current block, given current on-chain conditions. - MUST return as close to and no more than the exact amount of Vault shares that would be minted in a deposit   call in the same transaction. I.e. deposit should return the same or more shares as previewDeposit if called   in the same transaction. - MUST NOT account for deposit limits like those returned from maxDeposit and should always act as though the   deposit would be accepted, regardless if the user has enough tokens approved, etc. - MUST be inclusive of deposit fees. Integrators should be aware of the existence of deposit fees. - MUST NOT revert. NOTE: any unfavorable discrepancy between convertToShares and previewDeposit SHOULD be considered slippage in share price or some other type of condition, meaning the depositor will lose assets by depositing."
      },
      "previewMint(uint256)": {
        "details": "Allows an on-chain or off-chain user to simulate the effects of their mint at the current block, given current on-chain conditions. - MUST return as close to and no fewer than the exact amount of assets that would be deposited in a mint call   in the same transaction. I.e. mint should return the same or fewer assets as previewMint if called in the   same transaction. - MUST NOT account for mint limits like those returned from maxMint and should always act as though the mint   would be accepted, regardless if the user has enough tokens approved, etc. - MUST be inclusive of deposit fees. Integrators should be aware of the existence of deposit fees. - MUST NOT revert. NOTE: any unfavorable discrepancy between convertToAssets and previewMint SHOULD be considered slippage in share price or some other type of condition, meaning the depositor will lose assets by minting."
      },
      "previewRedeem(uint256)": {
        "details": "Allows an on-chain or off-chain user to simulate the effects of their redeemption at the current block, given current on-chain conditions. - MUST return as close to and no more than the exact amount of assets that would be withdrawn in a redeem call   in the same transaction. I.e. redeem should return the same or more assets as previewRedeem if called in the   same transaction. - MUST NOT account for redemption limits like those returned from maxRedeem and should always act as though the   redemption would be accepted, regardless if the user has enough shares, etc. - MUST be inclusive of withdrawal fees. Integrators should be aware of the existence of withdrawal fees. - MUST NOT revert. NOTE: any unfavorable discrepancy between convertToAssets and previewRedeem SHOULD be considered slippage in share price or some other type of condition, meaning the depositor will lose assets by redeeming."
      },
      "previewWithdraw(uint256)": {
        "details": "Allows an on-chain or off-chain user to simulate the effects of their withdrawal at the current block, given current on-chain conditions. - MUST return as close to and no fewer than the exact amount of Vault shares that would be burned in a withdraw   call in the same transaction. I.e. withdraw should return the same or fewer shares as previewWithdraw if   called   in the same transaction. - MUST NOT account for withdrawal limits like those returned from maxWithdraw and should always act as though   the withdrawal would be accepted, regardless if the user has enough shares, etc. - MUST be inclusive of withdrawal fees. Integrators should be aware of the existence of withdrawal fees. - MUST NOT revert. NOTE: any unfavorable discrepancy between convertToShares and previewWithdraw SHOULD be considered slippage in share price or some other type of condition, meaning the depositor will lose assets by depositing."
      },
      "renounceOwnership()": {
        "details": "Leaves the contract without owner. It will not be possible to call `onlyOwner` functions anymore. Can only be called by the current owner. NOTE: Renouncing ownership will leave the contract without an owner, thereby removing any functionality that is only available to the owner."
      },
      "symbol()": {
        "details": "Returns the symbol of the token, usually a shorter version of the name."
      },
      "totalSupply()": {
        "details": "See {IERC20-totalSupply}."
      },
      "transfer(address,uint256)": {
        "details": "See {IERC20-transfer}. Requirements: - `to` cannot be the zero address. - the caller must have a balance of at least `amount`."
      },
      "transferFrom(address,address,uint256)": {
        "details": "See {IERC20-transferFrom}. Emits an {Approval} event indicating the updated allowance. This is not required by the EIP. See the note at the beginning of {ERC20}. NOTE: Does not update the allowance if the current allowance is the maximum `uint256`. Requirements: - `from` and `to` cannot be the zero address. - `from` must have a balance of at least `amount`. - the caller must have allowance for ``from``'s tokens of at least `amount`."
      },
      "transferOwnership(address)": {
        "details": "Transfers ownership of the contract to a new account (`newOwner`). Can only be called by the current owner."
      }
    },
    "version": 1
  },
  "userdoc": {
    "kind": "user",
    "methods": {},
    "version": 1
  },
  "storageLayout": {
    "storage": [
      {
        "astId": 4084,
        "contract": "contracts/vaults/DnGmxSeniorVault.sol:DnGmxSeniorVault",
        "label": "_initialized",
        "offset": 0,
        "slot": "0",
        "type": "t_uint8"
      },
      {
        "astId": 4087,
        "contract": "contracts/vaults/DnGmxSeniorVault.sol:DnGmxSeniorVault",
        "label": "_initializing",
        "offset": 1,
        "slot": "0",
        "type": "t_bool"
      },
      {
        "astId": 5353,
        "contract": "contracts/vaults/DnGmxSeniorVault.sol:DnGmxSeniorVault",
        "label": "__gap",
        "offset": 0,
        "slot": "1",
        "type": "t_array(t_uint256)50_storage"
      },
      {
        "astId": 4374,
        "contract": "contracts/vaults/DnGmxSeniorVault.sol:DnGmxSeniorVault",
        "label": "_balances",
        "offset": 0,
        "slot": "51",
        "type": "t_mapping(t_address,t_uint256)"
      },
      {
        "astId": 4380,
        "contract": "contracts/vaults/DnGmxSeniorVault.sol:DnGmxSeniorVault",
        "label": "_allowances",
        "offset": 0,
        "slot": "52",
        "type": "t_mapping(t_address,t_mapping(t_address,t_uint256))"
      },
      {
        "astId": 4382,
        "contract": "contracts/vaults/DnGmxSeniorVault.sol:DnGmxSeniorVault",
        "label": "_totalSupply",
        "offset": 0,
        "slot": "53",
        "type": "t_uint256"
      },
      {
        "astId": 4384,
        "contract": "contracts/vaults/DnGmxSeniorVault.sol:DnGmxSeniorVault",
        "label": "_name",
        "offset": 0,
        "slot": "54",
        "type": "t_string_storage"
      },
      {
        "astId": 4386,
        "contract": "contracts/vaults/DnGmxSeniorVault.sol:DnGmxSeniorVault",
        "label": "_symbol",
        "offset": 0,
        "slot": "55",
        "type": "t_string_storage"
      },
      {
        "astId": 4965,
        "contract": "contracts/vaults/DnGmxSeniorVault.sol:DnGmxSeniorVault",
        "label": "__gap",
        "offset": 0,
        "slot": "56",
        "type": "t_array(t_uint256)45_storage"
      },
      {
        "astId": 6508,
        "contract": "contracts/vaults/DnGmxSeniorVault.sol:DnGmxSeniorVault",
        "label": "asset",
        "offset": 0,
        "slot": "101",
        "type": "t_address"
      },
      {
        "astId": 3956,
        "contract": "contracts/vaults/DnGmxSeniorVault.sol:DnGmxSeniorVault",
        "label": "_owner",
        "offset": 0,
        "slot": "102",
        "type": "t_address"
      },
      {
        "astId": 4076,
        "contract": "contracts/vaults/DnGmxSeniorVault.sol:DnGmxSeniorVault",
        "label": "__gap",
        "offset": 0,
        "slot": "103",
        "type": "t_array(t_uint256)49_storage"
      },
      {
        "astId": 4249,
        "contract": "contracts/vaults/DnGmxSeniorVault.sol:DnGmxSeniorVault",
        "label": "_paused",
        "offset": 0,
        "slot": "152",
        "type": "t_bool"
      },
      {
        "astId": 4354,
        "contract": "contracts/vaults/DnGmxSeniorVault.sol:DnGmxSeniorVault",
        "label": "__gap",
        "offset": 0,
        "slot": "153",
        "type": "t_array(t_uint256)49_storage"
      },
      {
        "astId": 14970,
        "contract": "contracts/vaults/DnGmxSeniorVault.sol:DnGmxSeniorVault",
        "label": "depositCap",
        "offset": 0,
        "slot": "202",
        "type": "t_uint256"
      },
      {
        "astId": 14972,
        "contract": "contracts/vaults/DnGmxSeniorVault.sol:DnGmxSeniorVault",
        "label": "maxUtilizationBps",
        "offset": 0,
        "slot": "203",
        "type": "t_uint256"
      },
      {
        "astId": 14975,
        "contract": "contracts/vaults/DnGmxSeniorVault.sol:DnGmxSeniorVault",
        "label": "leveragePool",
        "offset": 0,
        "slot": "204",
        "type": "t_contract(IBorrower)7004"
      },
      {
        "astId": 14978,
        "contract": "contracts/vaults/DnGmxSeniorVault.sol:DnGmxSeniorVault",
        "label": "dnGmxJuniorVault",
        "offset": 0,
        "slot": "205",
        "type": "t_contract(IBorrower)7004"
      },
      {
        "astId": 14981,
        "contract": "contracts/vaults/DnGmxSeniorVault.sol:DnGmxSeniorVault",
        "label": "feeStrategy",
        "offset": 0,
        "slot": "206",
        "type": "t_struct(Info)11345_storage"
      },
      {
        "astId": 14984,
        "contract": "contracts/vaults/DnGmxSeniorVault.sol:DnGmxSeniorVault",
        "label": "pool",
        "offset": 0,
        "slot": "210",
        "type": "t_contract(IPool)1121"
      },
      {
        "astId": 14987,
        "contract": "contracts/vaults/DnGmxSeniorVault.sol:DnGmxSeniorVault",
        "label": "aUsdc",
        "offset": 0,
        "slot": "211",
        "type": "t_contract(IAToken)218"
      },
      {
        "astId": 14990,
        "contract": "contracts/vaults/DnGmxSeniorVault.sol:DnGmxSeniorVault",
        "label": "oracle",
        "offset": 0,
        "slot": "212",
        "type": "t_contract(IPriceOracle)1350"
      },
      {
        "astId": 14993,
        "contract": "contracts/vaults/DnGmxSeniorVault.sol:DnGmxSeniorVault",
        "label": "poolAddressProvider",
        "offset": 0,
        "slot": "213",
        "type": "t_contract(IPoolAddressesProvider)1330"
      },
      {
        "astId": 14997,
        "contract": "contracts/vaults/DnGmxSeniorVault.sol:DnGmxSeniorVault",
        "label": "borrowCaps",
        "offset": 0,
        "slot": "214",
        "type": "t_mapping(t_address,t_uint256)"
      }
    ],
    "types": {
      "t_address": {
        "encoding": "inplace",
        "label": "address",
        "numberOfBytes": "20"
      },
      "t_array(t_uint256)45_storage": {
        "base": "t_uint256",
        "encoding": "inplace",
        "label": "uint256[45]",
        "numberOfBytes": "1440"
      },
      "t_array(t_uint256)49_storage": {
        "base": "t_uint256",
        "encoding": "inplace",
        "label": "uint256[49]",
        "numberOfBytes": "1568"
      },
      "t_array(t_uint256)50_storage": {
        "base": "t_uint256",
        "encoding": "inplace",
        "label": "uint256[50]",
        "numberOfBytes": "1600"
      },
      "t_bool": {
        "encoding": "inplace",
        "label": "bool",
        "numberOfBytes": "1"
      },
      "t_contract(IAToken)218": {
        "encoding": "inplace",
        "label": "contract IAToken",
        "numberOfBytes": "20"
      },
      "t_contract(IBorrower)7004": {
        "encoding": "inplace",
        "label": "contract IBorrower",
        "numberOfBytes": "20"
      },
      "t_contract(IPool)1121": {
        "encoding": "inplace",
        "label": "contract IPool",
        "numberOfBytes": "20"
      },
      "t_contract(IPoolAddressesProvider)1330": {
        "encoding": "inplace",
        "label": "contract IPoolAddressesProvider",
        "numberOfBytes": "20"
      },
      "t_contract(IPriceOracle)1350": {
        "encoding": "inplace",
        "label": "contract IPriceOracle",
        "numberOfBytes": "20"
      },
      "t_mapping(t_address,t_mapping(t_address,t_uint256))": {
        "encoding": "mapping",
        "key": "t_address",
        "label": "mapping(address => mapping(address => uint256))",
        "numberOfBytes": "32",
        "value": "t_mapping(t_address,t_uint256)"
      },
      "t_mapping(t_address,t_uint256)": {
        "encoding": "mapping",
        "key": "t_address",
        "label": "mapping(address => uint256)",
        "numberOfBytes": "32",
        "value": "t_uint256"
      },
      "t_string_storage": {
        "encoding": "bytes",
        "label": "string",
        "numberOfBytes": "32"
      },
      "t_struct(Info)11345_storage": {
        "encoding": "inplace",
        "label": "struct FeeSplitStrategy.Info",
        "members": [
          {
            "astId": 11338,
            "contract": "contracts/vaults/DnGmxSeniorVault.sol:DnGmxSeniorVault",
            "label": "optimalUtilizationRate",
            "offset": 0,
            "slot": "0",
            "type": "t_uint256"
          },
          {
            "astId": 11340,
            "contract": "contracts/vaults/DnGmxSeniorVault.sol:DnGmxSeniorVault",
            "label": "baseVariableBorrowRate",
            "offset": 0,
            "slot": "1",
            "type": "t_uint256"
          },
          {
            "astId": 11342,
            "contract": "contracts/vaults/DnGmxSeniorVault.sol:DnGmxSeniorVault",
            "label": "variableRateSlope1",
            "offset": 0,
            "slot": "2",
            "type": "t_uint256"
          },
          {
            "astId": 11344,
            "contract": "contracts/vaults/DnGmxSeniorVault.sol:DnGmxSeniorVault",
            "label": "variableRateSlope2",
            "offset": 0,
            "slot": "3",
            "type": "t_uint256"
          }
        ],
        "numberOfBytes": "128"
      },
      "t_uint256": {
        "encoding": "inplace",
        "label": "uint256",
        "numberOfBytes": "32"
      },
      "t_uint8": {
        "encoding": "inplace",
        "label": "uint8",
        "numberOfBytes": "1"
      }
    }
  }
}