{
  "address": "0xef50d59f1F39f059d379Ce3F3BA88Ef8e23EEdf9",
  "abi": [
    {
      "inputs": [],
      "name": "CallerNotBorrower",
      "type": "error"
    },
    {
      "inputs": [],
      "name": "DepositCapExceeded",
      "type": "error"
    },
    {
      "inputs": [],
      "name": "InvalidBorrowerAddress",
      "type": "error"
    },
    {
      "inputs": [],
      "name": "InvalidCapUpdate",
      "type": "error"
    },
    {
      "inputs": [],
      "name": "MaxUtilizationBreached",
      "type": "error"
    },
    {
      "inputs": [],
      "name": "UsageCapExceeded",
      "type": "error"
    },
    {
      "anonymous": false,
      "inputs": [],
      "name": "AllowancesGranted",
      "type": "event"
    },
    {
      "anonymous": false,
      "inputs": [
        {
          "indexed": true,
          "internalType": "address",
          "name": "owner",
          "type": "address"
        },
        {
          "indexed": true,
          "internalType": "address",
          "name": "spender",
          "type": "address"
        },
        {
          "indexed": false,
          "internalType": "uint256",
          "name": "value",
          "type": "uint256"
        }
      ],
      "name": "Approval",
      "type": "event"
    },
    {
      "anonymous": false,
      "inputs": [
        {
          "indexed": false,
          "internalType": "address",
          "name": "vault",
          "type": "address"
        },
        {
          "indexed": false,
          "internalType": "uint256",
          "name": "newCap",
          "type": "uint256"
        }
      ],
      "name": "BorrowCapUpdated",
      "type": "event"
    },
    {
      "anonymous": false,
      "inputs": [
        {
          "indexed": true,
          "internalType": "address",
          "name": "caller",
          "type": "address"
        },
        {
          "indexed": true,
          "internalType": "address",
          "name": "owner",
          "type": "address"
        },
        {
          "indexed": false,
          "internalType": "uint256",
          "name": "assets",
          "type": "uint256"
        },
        {
          "indexed": false,
          "internalType": "uint256",
          "name": "shares",
          "type": "uint256"
        }
      ],
      "name": "Deposit",
      "type": "event"
    },
    {
      "anonymous": false,
      "inputs": [
        {
          "indexed": false,
          "internalType": "uint256",
          "name": "_newDepositCap",
          "type": "uint256"
        }
      ],
      "name": "DepositCapUpdated",
      "type": "event"
    },
    {
      "anonymous": false,
      "inputs": [
        {
          "indexed": false,
          "internalType": "uint8",
          "name": "version",
          "type": "uint8"
        }
      ],
      "name": "Initialized",
      "type": "event"
    },
    {
      "anonymous": false,
      "inputs": [
        {
          "indexed": true,
          "internalType": "address",
          "name": "previousOwner",
          "type": "address"
        },
        {
          "indexed": true,
          "internalType": "address",
          "name": "newOwner",
          "type": "address"
        }
      ],
      "name": "OwnershipTransferred",
      "type": "event"
    },
    {
      "anonymous": false,
      "inputs": [
        {
          "indexed": false,
          "internalType": "address",
          "name": "account",
          "type": "address"
        }
      ],
      "name": "Paused",
      "type": "event"
    },
    {
      "anonymous": false,
      "inputs": [
        {
          "indexed": true,
          "internalType": "address",
          "name": "from",
          "type": "address"
        },
        {
          "indexed": true,
          "internalType": "address",
          "name": "to",
          "type": "address"
        },
        {
          "indexed": false,
          "internalType": "uint256",
          "name": "value",
          "type": "uint256"
        }
      ],
      "name": "Transfer",
      "type": "event"
    },
    {
      "anonymous": false,
      "inputs": [
        {
          "indexed": false,
          "internalType": "address",
          "name": "account",
          "type": "address"
        }
      ],
      "name": "Unpaused",
      "type": "event"
    },
    {
      "anonymous": false,
      "inputs": [
        {
          "indexed": true,
          "internalType": "address",
          "name": "caller",
          "type": "address"
        },
        {
          "indexed": true,
          "internalType": "address",
          "name": "receiver",
          "type": "address"
        },
        {
          "indexed": true,
          "internalType": "address",
          "name": "owner",
          "type": "address"
        },
        {
          "indexed": false,
          "internalType": "uint256",
          "name": "assets",
          "type": "uint256"
        },
        {
          "indexed": false,
          "internalType": "uint256",
          "name": "shares",
          "type": "uint256"
        }
      ],
      "name": "Withdraw",
      "type": "event"
    },
    {
      "inputs": [
        {
          "internalType": "address",
          "name": "owner",
          "type": "address"
        },
        {
          "internalType": "address",
          "name": "spender",
          "type": "address"
        }
      ],
      "name": "allowance",
      "outputs": [
        {
          "internalType": "uint256",
          "name": "",
          "type": "uint256"
        }
      ],
      "stateMutability": "view",
      "type": "function"
    },
    {
      "inputs": [
        {
          "internalType": "address",
          "name": "spender",
          "type": "address"
        },
        {
          "internalType": "uint256",
          "name": "amount",
          "type": "uint256"
        }
      ],
      "name": "approve",
      "outputs": [
        {
          "internalType": "bool",
          "name": "",
          "type": "bool"
        }
      ],
      "stateMutability": "nonpayable",
      "type": "function"
    },
    {
      "inputs": [],
      "name": "asset",
      "outputs": [
        {
          "internalType": "contract IERC20Metadata",
          "name": "",
          "type": "address"
        }
      ],
      "stateMutability": "view",
      "type": "function"
    },
    {
      "inputs": [
        {
          "internalType": "address",
          "name": "account",
          "type": "address"
        }
      ],
      "name": "balanceOf",
      "outputs": [
        {
          "internalType": "uint256",
          "name": "",
          "type": "uint256"
        }
      ],
      "stateMutability": "view",
      "type": "function"
    },
    {
      "inputs": [
        {
          "internalType": "uint256",
          "name": "amount",
          "type": "uint256"
        }
      ],
      "name": "borrow",
      "outputs": [],
      "stateMutability": "nonpayable",
      "type": "function"
    },
    {
      "inputs": [
        {
          "internalType": "uint256",
          "name": "shares",
          "type": "uint256"
        }
      ],
      "name": "convertToAssets",
      "outputs": [
        {
          "internalType": "uint256",
          "name": "",
          "type": "uint256"
        }
      ],
      "stateMutability": "view",
      "type": "function"
    },
    {
      "inputs": [
        {
          "internalType": "uint256",
          "name": "assets",
          "type": "uint256"
        }
      ],
      "name": "convertToShares",
      "outputs": [
        {
          "internalType": "uint256",
          "name": "",
          "type": "uint256"
        }
      ],
      "stateMutability": "view",
      "type": "function"
    },
    {
      "inputs": [],
      "name": "decimals",
      "outputs": [
        {
          "internalType": "uint8",
          "name": "",
          "type": "uint8"
        }
      ],
      "stateMutability": "view",
      "type": "function"
    },
    {
      "inputs": [
        {
          "internalType": "address",
          "name": "spender",
          "type": "address"
        },
        {
          "internalType": "uint256",
          "name": "subtractedValue",
          "type": "uint256"
        }
      ],
      "name": "decreaseAllowance",
      "outputs": [
        {
          "internalType": "bool",
          "name": "",
          "type": "bool"
        }
      ],
      "stateMutability": "nonpayable",
      "type": "function"
    },
    {
      "inputs": [
        {
          "internalType": "uint256",
          "name": "amount",
          "type": "uint256"
        },
        {
          "internalType": "address",
          "name": "to",
          "type": "address"
        }
      ],
      "name": "deposit",
      "outputs": [
        {
          "internalType": "uint256",
          "name": "shares",
          "type": "uint256"
        }
      ],
      "stateMutability": "nonpayable",
      "type": "function"
    },
    {
      "inputs": [],
      "name": "depositCap",
      "outputs": [
        {
          "internalType": "uint256",
          "name": "",
          "type": "uint256"
        }
      ],
      "stateMutability": "view",
      "type": "function"
    },
    {
      "inputs": [],
      "name": "dnGmxJuniorVault",
      "outputs": [
        {
          "internalType": "contract IDnGmxJuniorVault",
          "name": "",
          "type": "address"
        }
      ],
      "stateMutability": "view",
      "type": "function"
    },
    {
      "inputs": [],
      "name": "feeStrategy",
      "outputs": [
        {
          "internalType": "uint256",
          "name": "optimalUtilizationRate",
          "type": "uint256"
        },
        {
          "internalType": "uint256",
          "name": "baseVariableBorrowRate",
          "type": "uint256"
        },
        {
          "internalType": "uint256",
          "name": "variableRateSlope1",
          "type": "uint256"
        },
        {
          "internalType": "uint256",
          "name": "variableRateSlope2",
          "type": "uint256"
        }
      ],
      "stateMutability": "view",
      "type": "function"
    },
    {
      "inputs": [],
      "name": "getEthRewardsSplitRate",
      "outputs": [
        {
          "internalType": "uint256",
          "name": "feeSplitRate",
          "type": "uint256"
        }
      ],
      "stateMutability": "view",
      "type": "function"
    },
    {
      "inputs": [],
      "name": "getPriceX128",
      "outputs": [
        {
          "internalType": "uint256",
          "name": "",
          "type": "uint256"
        }
      ],
      "stateMutability": "view",
      "type": "function"
    },
    {
      "inputs": [],
      "name": "getVaultMarketValue",
      "outputs": [
        {
          "internalType": "uint256",
          "name": "",
          "type": "uint256"
        }
      ],
      "stateMutability": "view",
      "type": "function"
    },
    {
      "inputs": [],
      "name": "grantAllowances",
      "outputs": [],
      "stateMutability": "nonpayable",
      "type": "function"
    },
    {
      "inputs": [
        {
          "internalType": "address",
          "name": "spender",
          "type": "address"
        },
        {
          "internalType": "uint256",
          "name": "addedValue",
          "type": "uint256"
        }
      ],
      "name": "increaseAllowance",
      "outputs": [
        {
          "internalType": "bool",
          "name": "",
          "type": "bool"
        }
      ],
      "stateMutability": "nonpayable",
      "type": "function"
    },
    {
      "inputs": [
        {
          "internalType": "address",
          "name": "_usdc",
          "type": "address"
        },
        {
          "internalType": "string",
          "name": "_name",
          "type": "string"
        },
        {
          "internalType": "string",
          "name": "_symbol",
          "type": "string"
        },
        {
          "internalType": "address",
          "name": "_poolAddressesProvider",
          "type": "address"
        }
      ],
      "name": "initialize",
      "outputs": [],
      "stateMutability": "nonpayable",
      "type": "function"
    },
    {
      "inputs": [],
      "name": "leveragePool",
      "outputs": [
        {
          "internalType": "contract ILeveragePool",
          "name": "",
          "type": "address"
        }
      ],
      "stateMutability": "view",
      "type": "function"
    },
    {
      "inputs": [
        {
          "internalType": "address",
          "name": "",
          "type": "address"
        }
      ],
      "name": "maxDeposit",
      "outputs": [
        {
          "internalType": "uint256",
          "name": "",
          "type": "uint256"
        }
      ],
      "stateMutability": "view",
      "type": "function"
    },
    {
      "inputs": [
        {
          "internalType": "address",
          "name": "",
          "type": "address"
        }
      ],
      "name": "maxMint",
      "outputs": [
        {
          "internalType": "uint256",
          "name": "",
          "type": "uint256"
        }
      ],
      "stateMutability": "view",
      "type": "function"
    },
    {
      "inputs": [
        {
          "internalType": "address",
          "name": "owner",
          "type": "address"
        }
      ],
      "name": "maxRedeem",
      "outputs": [
        {
          "internalType": "uint256",
          "name": "",
          "type": "uint256"
        }
      ],
      "stateMutability": "view",
      "type": "function"
    },
    {
      "inputs": [],
      "name": "maxUtilizationBps",
      "outputs": [
        {
          "internalType": "uint16",
          "name": "",
          "type": "uint16"
        }
      ],
      "stateMutability": "view",
      "type": "function"
    },
    {
      "inputs": [
        {
          "internalType": "address",
          "name": "owner",
          "type": "address"
        }
      ],
      "name": "maxWithdraw",
      "outputs": [
        {
          "internalType": "uint256",
          "name": "",
          "type": "uint256"
        }
      ],
      "stateMutability": "view",
      "type": "function"
    },
    {
      "inputs": [
        {
          "internalType": "uint256",
          "name": "shares",
          "type": "uint256"
        },
        {
          "internalType": "address",
          "name": "to",
          "type": "address"
        }
      ],
      "name": "mint",
      "outputs": [
        {
          "internalType": "uint256",
          "name": "amount",
          "type": "uint256"
        }
      ],
      "stateMutability": "nonpayable",
      "type": "function"
    },
    {
      "inputs": [],
      "name": "name",
      "outputs": [
        {
          "internalType": "string",
          "name": "",
          "type": "string"
        }
      ],
      "stateMutability": "view",
      "type": "function"
    },
    {
      "inputs": [],
      "name": "owner",
      "outputs": [
        {
          "internalType": "address",
          "name": "",
          "type": "address"
        }
      ],
      "stateMutability": "view",
      "type": "function"
    },
    {
      "inputs": [],
      "name": "paused",
      "outputs": [
        {
          "internalType": "bool",
          "name": "",
          "type": "bool"
        }
      ],
      "stateMutability": "view",
      "type": "function"
    },
    {
      "inputs": [
        {
          "internalType": "uint256",
          "name": "assets",
          "type": "uint256"
        }
      ],
      "name": "previewDeposit",
      "outputs": [
        {
          "internalType": "uint256",
          "name": "",
          "type": "uint256"
        }
      ],
      "stateMutability": "view",
      "type": "function"
    },
    {
      "inputs": [
        {
          "internalType": "uint256",
          "name": "shares",
          "type": "uint256"
        }
      ],
      "name": "previewMint",
      "outputs": [
        {
          "internalType": "uint256",
          "name": "",
          "type": "uint256"
        }
      ],
      "stateMutability": "view",
      "type": "function"
    },
    {
      "inputs": [
        {
          "internalType": "uint256",
          "name": "shares",
          "type": "uint256"
        }
      ],
      "name": "previewRedeem",
      "outputs": [
        {
          "internalType": "uint256",
          "name": "",
          "type": "uint256"
        }
      ],
      "stateMutability": "view",
      "type": "function"
    },
    {
      "inputs": [
        {
          "internalType": "uint256",
          "name": "assets",
          "type": "uint256"
        }
      ],
      "name": "previewWithdraw",
      "outputs": [
        {
          "internalType": "uint256",
          "name": "",
          "type": "uint256"
        }
      ],
      "stateMutability": "view",
      "type": "function"
    },
    {
      "inputs": [
        {
          "internalType": "uint256",
          "name": "shares",
          "type": "uint256"
        },
        {
          "internalType": "address",
          "name": "receiver",
          "type": "address"
        },
        {
          "internalType": "address",
          "name": "owner",
          "type": "address"
        }
      ],
      "name": "redeem",
      "outputs": [
        {
          "internalType": "uint256",
          "name": "assets",
          "type": "uint256"
        }
      ],
      "stateMutability": "nonpayable",
      "type": "function"
    },
    {
      "inputs": [],
      "name": "renounceOwnership",
      "outputs": [],
      "stateMutability": "nonpayable",
      "type": "function"
    },
    {
      "inputs": [
        {
          "internalType": "uint256",
          "name": "amount",
          "type": "uint256"
        }
      ],
      "name": "repay",
      "outputs": [],
      "stateMutability": "nonpayable",
      "type": "function"
    },
    {
      "inputs": [
        {
          "internalType": "uint256",
          "name": "_newDepositCap",
          "type": "uint256"
        }
      ],
      "name": "setDepositCap",
      "outputs": [],
      "stateMutability": "nonpayable",
      "type": "function"
    },
    {
      "inputs": [
        {
          "internalType": "address",
          "name": "_dnGmxJuniorVault",
          "type": "address"
        }
      ],
      "name": "setDnGmxJuniorVault",
      "outputs": [],
      "stateMutability": "nonpayable",
      "type": "function"
    },
    {
      "inputs": [
        {
          "internalType": "uint16",
          "name": "_maxUtilizationBps",
          "type": "uint16"
        }
      ],
      "name": "setMaxUtilizationBps",
      "outputs": [],
      "stateMutability": "nonpayable",
      "type": "function"
    },
    {
      "inputs": [],
      "name": "symbol",
      "outputs": [
        {
          "internalType": "string",
          "name": "",
          "type": "string"
        }
      ],
      "stateMutability": "view",
      "type": "function"
    },
    {
      "inputs": [],
      "name": "totalAssets",
      "outputs": [
        {
          "internalType": "uint256",
          "name": "amount",
          "type": "uint256"
        }
      ],
      "stateMutability": "view",
      "type": "function"
    },
    {
      "inputs": [],
      "name": "totalSupply",
      "outputs": [
        {
          "internalType": "uint256",
          "name": "",
          "type": "uint256"
        }
      ],
      "stateMutability": "view",
      "type": "function"
    },
    {
      "inputs": [],
      "name": "totalUsdcBorrowed",
      "outputs": [
        {
          "internalType": "uint256",
          "name": "usdcBorrowed",
          "type": "uint256"
        }
      ],
      "stateMutability": "view",
      "type": "function"
    },
    {
      "inputs": [
        {
          "internalType": "address",
          "name": "to",
          "type": "address"
        },
        {
          "internalType": "uint256",
          "name": "amount",
          "type": "uint256"
        }
      ],
      "name": "transfer",
      "outputs": [
        {
          "internalType": "bool",
          "name": "",
          "type": "bool"
        }
      ],
      "stateMutability": "nonpayable",
      "type": "function"
    },
    {
      "inputs": [
        {
          "internalType": "address",
          "name": "from",
          "type": "address"
        },
        {
          "internalType": "address",
          "name": "to",
          "type": "address"
        },
        {
          "internalType": "uint256",
          "name": "amount",
          "type": "uint256"
        }
      ],
      "name": "transferFrom",
      "outputs": [
        {
          "internalType": "bool",
          "name": "",
          "type": "bool"
        }
      ],
      "stateMutability": "nonpayable",
      "type": "function"
    },
    {
      "inputs": [
        {
          "internalType": "address",
          "name": "newOwner",
          "type": "address"
        }
      ],
      "name": "transferOwnership",
      "outputs": [],
      "stateMutability": "nonpayable",
      "type": "function"
    },
    {
      "inputs": [
        {
          "internalType": "address",
          "name": "borrowerAddress",
          "type": "address"
        },
        {
          "internalType": "uint256",
          "name": "cap",
          "type": "uint256"
        }
      ],
      "name": "updateBorrowCap",
      "outputs": [],
      "stateMutability": "nonpayable",
      "type": "function"
    },
    {
      "inputs": [
        {
          "components": [
            {
              "internalType": "uint256",
              "name": "optimalUtilizationRate",
              "type": "uint256"
            },
            {
              "internalType": "uint256",
              "name": "baseVariableBorrowRate",
              "type": "uint256"
            },
            {
              "internalType": "uint256",
              "name": "variableRateSlope1",
              "type": "uint256"
            },
            {
              "internalType": "uint256",
              "name": "variableRateSlope2",
              "type": "uint256"
            }
          ],
          "internalType": "struct FeeSplitStrategy.Info",
          "name": "_feeStrategy",
          "type": "tuple"
        }
      ],
      "name": "updateFeeStrategyParams",
      "outputs": [],
      "stateMutability": "nonpayable",
      "type": "function"
    },
    {
      "inputs": [
        {
          "internalType": "address",
          "name": "",
          "type": "address"
        }
      ],
      "name": "vaultCaps",
      "outputs": [
        {
          "internalType": "uint256",
          "name": "",
          "type": "uint256"
        }
      ],
      "stateMutability": "view",
      "type": "function"
    },
    {
      "inputs": [
        {
          "internalType": "uint256",
          "name": "assets",
          "type": "uint256"
        },
        {
          "internalType": "address",
          "name": "receiver",
          "type": "address"
        },
        {
          "internalType": "address",
          "name": "owner",
          "type": "address"
        }
      ],
      "name": "withdraw",
      "outputs": [
        {
          "internalType": "uint256",
          "name": "shares",
          "type": "uint256"
        }
      ],
      "stateMutability": "nonpayable",
      "type": "function"
    }
  ],
  "transactionHash": "0x65cde5eeece89c0b7b0528b43a94169b9193ac8f56abeae396973a0865f8e726",
  "args": [],
  "numDeployments": 1,
  "solcInputHash": "e545b194c4c8c506af7f004878424d0e",
  "bytecode": "0x608060405234801561001057600080fd5b5061328b806100206000396000f3fe608060405234801561001057600080fd5b50600436106103365760003560e01c806386651203116101b2578063ba087652116100f9578063d026c123116100a2578063dd62ed3e1161007c578063dd62ed3e146106be578063e3696edd146106f7578063ef8b30f7146106ff578063f2fde38b1461071257600080fd5b8063d026c1231461068f578063d905777e146106a2578063dbd5edc7146106b557600080fd5b8063c63d75b6116100d3578063c63d75b614610481578063c6e6f59214610669578063ce96cb771461067c57600080fd5b8063ba0876521461063b578063bf9571f11461064e578063c5ebeaec1461065657600080fd5b8063a31e553d1161015b578063aa88fdc311610135578063aa88fdc314610602578063b3d7f6b914610615578063b460af941461062857600080fd5b8063a31e553d146105c9578063a457c2d7146105dc578063a9059cbb146105ef57600080fd5b8063949b22ae1161018c578063949b22ae1461057857806394bf804d146105ae57806395d89b41146105c157600080fd5b8063866512031461054c5780638d315d7b1461055f5780638da5cb5b1461056757600080fd5b806339509351116102815780636e553f651161022a578063768e66d311610204578063768e66d31461050b57806377c718ae1461051e5780638224f4e8146105265780638301d55a1461053957600080fd5b80636e553f65146104c757806370a08231146104da578063715018a61461050357600080fd5b80634cdad5061161025b5780634cdad506146104965780635c975abb146104a9578063613d25bb146104b457600080fd5b806339509351146104665780633d672a4514610479578063402d267d1461048157600080fd5b806323b872dd116102e3578063313ce567116102bd578063313ce56714610417578063371fd8e61461042657806338d52e0f1461043b57600080fd5b806323b872dd146103bc5780632e66de26146103cf578063304ea9cb146103ef57600080fd5b8063095ea7b311610314578063095ea7b31461037e5780630a28a477146103a157806318160ddd146103b457600080fd5b806301e1d1141461033b57806306fdde031461035657806307a2d13a1461036b575b600080fd5b610343610725565b6040519081526020015b60405180910390f35b61035e6107ab565b60405161034d9190612c5b565b610343610379366004612c8e565b61083d565b61039161038c366004612cbc565b610872565b604051901515815260200161034d565b6103436103af366004612c8e565b61088c565b603554610343565b6103916103ca366004612ce8565b6108b4565b6103436103dd366004612d29565b60d56020526000908152604090205481565b60d35461040490600160a01b900461ffff1681565b60405161ffff909116815260200161034d565b6040516012815260200161034d565b610439610434366004612c8e565b6108d8565b005b60655461044e906001600160a01b031681565b6040516001600160a01b03909116815260200161034d565b610391610474366004612cbc565b610a03565b610343610a42565b61034361048f366004612d29565b5060001990565b6103436104a4366004612c8e565b610ad1565b60985460ff16610391565b6104396104c2366004612d8f565b610adc565b6103436104d5366004612e24565b610f02565b6103436104e8366004612d29565b6001600160a01b031660009081526033602052604090205490565b610439610f7e565b610439610519366004612cbc565b610f92565b610343611139565b60d25461044e906001600160a01b031681565b610439610547366004612e54565b61125c565b61043961055a366004612c8e565b611287565b6103436112ca565b6066546001600160a01b031661044e565b60cd5460ce5460cf5460d05461058e9392919084565b60408051948552602085019390935291830152606082015260800161034d565b6103436105bc366004612e24565b611358565b61035e6113d4565b6104396105d7366004612e7c565b6113e3565b6103916105ea366004612cbc565b61140d565b6103916105fd366004612cbc565b61149f565b60d15461044e906001600160a01b031681565b610343610623366004612c8e565b6114ad565b610343610636366004612e99565b6114d4565b610343610649366004612e99565b611559565b6104396115d6565b610439610664366004612c8e565b611702565b610343610677366004612c8e565b6118c3565b61034361068a366004612d29565b6118eb565b61043961069d366004612d29565b61190d565b6103436106b0366004612d29565b611937565b61034360d45481565b6103436106cc366004612edb565b6001600160a01b03918216600090815260346020908152604080832093909416825291909152205490565b610343611955565b61034361070d366004612c8e565b6119d9565b610439610720366004612d29565b6119e4565b60cb546040516370a0823160e01b81523060048201526000916001600160a01b0316906370a0823190602401602060405180830381865afa15801561076e573d6000803e3d6000fd5b505050506040513d601f19601f820116820180604052508101906107929190612f09565b905061079c611139565b6107a69082612f38565b905090565b6060603680546107ba90612f50565b80601f01602080910402602001604051908101604052809291908181526020018280546107e690612f50565b80156108335780601f1061080857610100808354040283529160200191610833565b820191906000526020600020905b81548152906001019060200180831161081657829003601f168201915b5050505050905090565b60008061084960355490565b905080156108695761086461085c610725565b849083611a5d565b61086b565b825b9392505050565b600033610880818585611a7c565b60019150505b92915050565b60008061089860355490565b9050801561086957610864816108ac610725565b859190611ba0565b6000336108c2858285611bce565b6108cd858585611c60565b506001949350505050565b60d1546001600160a01b031633148015906108fe575060d2546001600160a01b03163314155b1561091c57604051633c698d7960e01b815260040160405180910390fd5b60d160009054906101000a90046001600160a01b03166001600160a01b031663138cc18f6040518163ffffffff1660e01b8152600401600060405180830381600087803b15801561096c57600080fd5b505af1158015610980573d6000803e3d6000fd5b505060cb546040516323b872dd60e01b8152336004820152306024820152604481018590526001600160a01b0390911692506323b872dd91506064016020604051808303816000875af11580156109db573d6000803e3d6000fd5b505050506040513d601f19601f820116820180604052508101906109ff9190612f85565b5050565b3360008181526034602090815260408083206001600160a01b03871684529091528120549091906108809082908690610a3d908790612f38565b611a7c565b60d35460655460405163b3596f0760e01b81526001600160a01b0391821660048201526000928392169063b3596f0790602401602060405180830381865afa158015610a92573d6000803e3d6000fd5b505050506040513d601f19601f82011682018060405250810190610ab69190612f09565b9050610acb81600160801b6305f5e100611e2e565b91505090565b60006108868261083d565b600054610100900460ff1615808015610afc5750600054600160ff909116105b80610b165750303b158015610b16575060005460ff166001145b610b7e5760405162461bcd60e51b815260206004820152602e60248201527f496e697469616c697a61626c653a20636f6e747261637420697320616c72656160448201526d191e481a5b9a5d1a585b1a5e995960921b60648201526084015b60405180910390fd5b6000805460ff191660011790558015610ba1576000805461ff0019166101001790555b610ba9611ee1565b610bb1611f10565b610c258787878080601f01602080910402602001604051908101604052809392919081815260200183838082843760009201919091525050604080516020601f8b018190048102820181019092528981529250899150889081908401838280828437600092019190915250611f3f92505050565b60cc80546001600160a01b0319166001600160a01b0384169081179091556040805163026b1d5f60e01b8152905163026b1d5f916004808201926020929091908290030181865afa158015610c7e573d6000803e3d6000fd5b505050506040513d601f19601f82011682018060405250810190610ca29190612fb7565b60ca80546001600160a01b0319166001600160a01b039283169081179091556040516335ea6a7560e01b81529189166004830152906335ea6a75906024016101e060405180830381865afa158015610cfe573d6000803e3d6000fd5b505050506040513d601f19601f82011682018060405250810190610d22919061309c565b610100015160cb80546001600160a01b0319166001600160a01b0392831617905560cc5460408051631f94a27560e31b81529051919092169163fca513a89160048083019260209291908290030181865afa158015610d85573d6000803e3d6000fd5b505050506040513d601f19601f82011682018060405250810190610da99190612fb7565b60d380546001600160a01b0319166001600160a01b0392831617905560cb5460ca5460405163095ea7b360e01b81529083166004820152600019602482015291169063095ea7b3906044016020604051808303816000875af1158015610e13573d6000803e3d6000fd5b505050506040513d601f19601f82011682018060405250810190610e379190612f85565b5060655460ca5460405163095ea7b360e01b81526001600160a01b039182166004820152600019602482015291169063095ea7b3906044016020604051808303816000875af1158015610e8e573d6000803e3d6000fd5b505050506040513d601f19601f82011682018060405250810190610eb29190612f85565b508015610ef9576000805461ff0019169055604051600181527f7f26b83ff96e1f2b6a682f133852f6798a09c465da95921460cefb38474024989060200160405180910390a15b50505050505050565b6000610f0c611f6d565b60d160009054906101000a90046001600160a01b03166001600160a01b031663138cc18f6040518163ffffffff1660e01b8152600401600060405180830381600087803b158015610f5c57600080fd5b505af1158015610f70573d6000803e3d6000fd5b5050505061086b8383611fb3565b610f8661206e565b610f9060006120c8565b565b610f9a61206e565b60d1546001600160a01b03838116911614801590610fc6575060d2546001600160a01b03838116911614155b15610fe4576040516348b905b160e01b815260040160405180910390fd5b80826001600160a01b03166395e2da7c6040518163ffffffff1660e01b8152600401602060405180830381865afa158015611023573d6000803e3d6000fd5b505050506040513d601f19601f820116820180604052508101906110479190612f09565b1015611120576001600160a01b03828116600081815260d560205260409081902084905560cb54905163095ea7b360e01b81526004810192909252602482018490529091169063095ea7b3906044016020604051808303816000875af11580156110b5573d6000803e3d6000fd5b505050506040513d601f19601f820116820180604052508101906110d99190612f85565b50604080516001600160a01b0384168152602081018390527f84d2db42497fc6f1882756be420935d982025ad8a2a903dfb83638a09e49a775910160405180910390a15050565b604051633a020d0160e11b815260040160405180910390fd5b60d1546000906001600160a01b0316156111d15760d160009054906101000a90046001600160a01b03166001600160a01b03166395e2da7c6040518163ffffffff1660e01b8152600401602060405180830381865afa1580156111a0573d6000803e3d6000fd5b505050506040513d601f19601f820116820180604052508101906111c49190612f09565b6111ce9082612f38565b90505b60d2546001600160a01b0316156112595760d260009054906101000a90046001600160a01b03166001600160a01b03166395e2da7c6040518163ffffffff1660e01b8152600401602060405180830381865afa158015611235573d6000803e3d6000fd5b505050506040513d601f19601f8201168201806040525081019061079c9190612f09565b90565b61126461206e565b803560cd55602081013560ce55604081013560cf556060013560d055565b505050565b61128f61206e565b60d48190556040518181527f333b26cca69716ad4680ddb07663f5bfb4f06045671f336af9a83690a3ae00f99060200160405180910390a150565b60d35460655460405163b3596f0760e01b81526001600160a01b0391821660048201526000928392169063b3596f0790602401602060405180830381865afa15801561131a573d6000803e3d6000fd5b505050506040513d601f19601f8201168201806040525081019061133e9190612f09565b9050610acb816305f5e100611351610725565b9190611e2e565b6000611362611f6d565b60d160009054906101000a90046001600160a01b03166001600160a01b031663138cc18f6040518163ffffffff1660e01b8152600401600060405180830381600087803b1580156113b257600080fd5b505af11580156113c6573d6000803e3d6000fd5b5050505061086b838361211a565b6060603780546107ba90612f50565b6113eb61206e565b60d3805461ffff909216600160a01b0261ffff60a01b19909216919091179055565b3360008181526034602090815260408083206001600160a01b0387168452909152812054909190838110156114925760405162461bcd60e51b815260206004820152602560248201527f45524332303a2064656372656173656420616c6c6f77616e63652062656c6f77604482015264207a65726f60d81b6064820152608401610b75565b6108cd8286868403611a7c565b600033610880818585611c60565b6000806114b960355490565b90508015610869576108646114cc610725565b849083611ba0565b60006114de611f6d565b60d160009054906101000a90046001600160a01b03166001600160a01b031663138cc18f6040518163ffffffff1660e01b8152600401600060405180830381600087803b15801561152e57600080fd5b505af1158015611542573d6000803e3d6000fd5b5050505061155184848461219b565b949350505050565b6000611563611f6d565b60d160009054906101000a90046001600160a01b03166001600160a01b031663138cc18f6040518163ffffffff1660e01b8152600401600060405180830381600087803b1580156115b357600080fd5b505af11580156115c7573d6000803e3d6000fd5b5050505061155184848461226d565b6115de61206e565b60ca5460655460405163095ea7b360e01b81526001600160a01b03928316600482018190526000196024830152929091169063095ea7b3906044016020604051808303816000875af1158015611638573d6000803e3d6000fd5b505050506040513d601f19601f8201168201806040525081019061165c9190612f85565b5060cb5460405163095ea7b360e01b81526001600160a01b03838116600483015260001960248301529091169063095ea7b3906044016020604051808303816000875af11580156116b1573d6000803e3d6000fd5b505050506040513d601f19601f820116820180604052508101906116d59190612f85565b506040517fba5bb3f899c7a3edcc9ff9d46c4e08449c6a608b6f8254132bc5af4898645cbc90600090a150565b60d1546001600160a01b03163314801590611728575060d2546001600160a01b03163314155b1561174657604051633c698d7960e01b815260040160405180910390fd5b60d160009054906101000a90046001600160a01b03166001600160a01b031663138cc18f6040518163ffffffff1660e01b8152600401600060405180830381600087803b15801561179657600080fd5b505af11580156117aa573d6000803e3d6000fd5b505050506000336001600160a01b03166395e2da7c6040518163ffffffff1660e01b8152600401602060405180830381865afa1580156117ee573d6000803e3d6000fd5b505050506040513d601f19601f820116820180604052508101906118129190612f09565b33600090815260d5602052604090205490915061182f8383612f38565b10156118aa5760cb5460405163a9059cbb60e01b8152336004820152602481018490526001600160a01b039091169063a9059cbb906044016020604051808303816000875af1158015611886573d6000803e3d6000fd5b505050506040513d601f19601f820116820180604052508101906112829190612f85565b60405163676edded60e01b815260040160405180910390fd5b6000806118cf60355490565b9050801561086957610864816118e3610725565b859190611a5d565b6001600160a01b0381166000908152603360205260408120546108869061083d565b61191561206e565b60d180546001600160a01b0319166001600160a01b0392909216919091179055565b6001600160a01b038116600090815260336020526040812054610886565b60cb546040516370a0823160e01b81523060048201526000916107a6916001600160a01b03909116906370a0823190602401602060405180830381865afa1580156119a4573d6000803e3d6000fd5b505050506040513d601f19601f820116820180604052508101906119c89190612f09565b6119d0611139565b60cd919061237a565b6000610886826118c3565b6119ec61206e565b6001600160a01b038116611a515760405162461bcd60e51b815260206004820152602660248201527f4f776e61626c653a206e6577206f776e657220697320746865207a65726f206160448201526564647265737360d01b6064820152608401610b75565b611a5a816120c8565b50565b828202811515841585830485141716611a7557600080fd5b0492915050565b6001600160a01b038316611ade5760405162461bcd60e51b8152602060048201526024808201527f45524332303a20617070726f76652066726f6d20746865207a65726f206164646044820152637265737360e01b6064820152608401610b75565b6001600160a01b038216611b3f5760405162461bcd60e51b815260206004820152602260248201527f45524332303a20617070726f766520746f20746865207a65726f206164647265604482015261737360f01b6064820152608401610b75565b6001600160a01b0383811660008181526034602090815260408083209487168084529482529182902085905590518481527f8c5be1e5ebec7d5bd14f71427d1e84f3dd0314c0f7b2291e5b200ac8c7c3b925910160405180910390a3505050565b828202811515841585830485141716611bb857600080fd5b6001826001830304018115150290509392505050565b6001600160a01b038381166000908152603460209081526040808320938616835292905220546000198114611c5a5781811015611c4d5760405162461bcd60e51b815260206004820152601d60248201527f45524332303a20696e73756666696369656e7420616c6c6f77616e63650000006044820152606401610b75565b611c5a8484848403611a7c565b50505050565b6001600160a01b038316611cc45760405162461bcd60e51b815260206004820152602560248201527f45524332303a207472616e736665722066726f6d20746865207a65726f206164604482015264647265737360d81b6064820152608401610b75565b6001600160a01b038216611d265760405162461bcd60e51b815260206004820152602360248201527f45524332303a207472616e7366657220746f20746865207a65726f206164647260448201526265737360e81b6064820152608401610b75565b6001600160a01b03831660009081526033602052604090205481811015611d9e5760405162461bcd60e51b815260206004820152602660248201527f45524332303a207472616e7366657220616d6f756e7420657863656564732062604482015265616c616e636560d01b6064820152608401610b75565b6001600160a01b03808516600090815260336020526040808220858503905591851681529081208054849290611dd5908490612f38565b92505081905550826001600160a01b0316846001600160a01b03167fddf252ad1be2c89b69c2b068fc378daa952ba7f163c4a11628f55a4df523b3ef84604051611e2191815260200190565b60405180910390a3611c5a565b600080806000198587098587029250828110838203039150508060001415611e685760008411611e5d57600080fd5b50829004905061086b565b808411611e7457600080fd5b6000848688096000868103871696879004966002600389028118808a02820302808a02820302808a02820302808a02820302808a02820302808a02909103029181900381900460010186841190950394909402919094039290920491909117919091029150509392505050565b600054610100900460ff16611f085760405162461bcd60e51b8152600401610b75906131bf565b610f90612470565b600054610100900460ff16611f375760405162461bcd60e51b8152600401610b75906131bf565b610f906124a0565b611f4982826124d3565b5050606580546001600160a01b0319166001600160a01b0392909216919091179055565b60985460ff1615610f905760405162461bcd60e51b815260206004820152601060248201526f14185d5cd8589b194e881c185d5cd95960821b6044820152606401610b75565b6000611fbe836119d9565b905080611ffb5760405162461bcd60e51b815260206004820152600b60248201526a5a45524f5f53484152455360a81b6044820152606401610b75565b606554612013906001600160a01b0316333086612504565b61201d8282612587565b60408051848152602081018390526001600160a01b0384169133917fdcbc1c05240f31ff3ad067ef1ee35ce4997762752e3a095284754544f4c709d7910160405180910390a3610886838284612666565b6066546001600160a01b03163314610f905760405162461bcd60e51b815260206004820181905260248201527f4f776e61626c653a2063616c6c6572206973206e6f7420746865206f776e65726044820152606401610b75565b606680546001600160a01b038381166001600160a01b0319831681179093556040519116919082907f8be0079c531659141344cd1fd0a4f28419497f9722a3daafe3b4186f6b6457e090600090a35050565b6000612125836114ad565b606554909150612140906001600160a01b0316333084612504565b61214a8284612587565b60408051828152602081018590526001600160a01b0384169133917fdcbc1c05240f31ff3ad067ef1ee35ce4997762752e3a095284754544f4c709d7910160405180910390a3610886818484612666565b60006121a68461088c565b9050336001600160a01b038316146121f6576001600160a01b038216600090815260346020908152604080832033845290915290205460001981146121f4576121f48333610a3d858561320a565b505b612201848285612705565b61220b82826127e4565b60408051858152602081018390526001600160a01b03808516929086169133917ffbde797d201c681b91056529119e0b02407c7bb96a4a2c75c01fc9667232c8db910160405180910390a460655461086b906001600160a01b03168486612932565b6000336001600160a01b038316146122bd576001600160a01b038216600090815260346020908152604080832033845290915290205460001981146122bb576122bb8333610a3d888561320a565b505b6122c684610ad1565b9050806123035760405162461bcd60e51b815260206004820152600b60248201526a5a45524f5f41535345545360a81b6044820152606401610b75565b61230e818585612705565b61231882856127e4565b60408051828152602081018690526001600160a01b03808516929086169133917ffbde797d201c681b91056529119e0b02407c7bb96a4a2c75c01fc9667232c8db910160405180910390a460655461086b906001600160a01b03168483612932565b60008082156123ab576123a66c0c9f2c9cd04674edea4000000061239e8587612f38565b859190611e2e565b6123ae565b60005b85549091506000906123cd906c0c9f2c9cd04674edea4000000061320a565b86549091508211156124435760006123fd6c0c9f2c9cd04674edea4000000083896000015486611351919061320a565b600388015490915061241d90826c0c9f2c9cd04674edea40000000611e2e565b876002015488600101546124319190612f38565b61243b9190612f38565b935050612467565b60028601548654612455918491611e2e565b86600101546124649190612f38565b92505b50509392505050565b600054610100900460ff166124975760405162461bcd60e51b8152600401610b75906131bf565b610f90336120c8565b600054610100900460ff166124c75760405162461bcd60e51b8152600401610b75906131bf565b6098805460ff19169055565b600054610100900460ff166124fa5760405162461bcd60e51b8152600401610b75906131bf565b6109ff8282612962565b6040516001600160a01b0380851660248301528316604482015260648101829052611c5a9085906323b872dd60e01b906084015b60408051601f198184030181529190526020810180516001600160e01b03167fffffffff00000000000000000000000000000000000000000000000000000000909316929092179091526129b0565b6001600160a01b0382166125dd5760405162461bcd60e51b815260206004820152601f60248201527f45524332303a206d696e7420746f20746865207a65726f2061646472657373006044820152606401610b75565b80603560008282546125ef9190612f38565b90915550506001600160a01b0382166000908152603360205260408120805483929061261c908490612f38565b90915550506040518181526001600160a01b038316906000907fddf252ad1be2c89b69c2b068fc378daa952ba7f163c4a11628f55a4df523b3ef9060200160405180910390a35050565b60ca5460655460405163617ba03760e01b81526001600160a01b039182166004820152602481018690523060448201526000606482015291169063617ba03790608401600060405180830381600087803b1580156126c357600080fd5b505af11580156126d7573d6000803e3d6000fd5b5050505060d4546126e6610725565b1115611282576040516324d758c360e21b815260040160405180910390fd5b60d35461271090600160a01b900461ffff1684612720610725565b61272a919061320a565b6127349190613221565b61273e9190613240565b612746611139565b111561276557604051635276dbb960e01b815260040160405180910390fd5b60ca54606554604051631a4ca37b60e21b81526001600160a01b039182166004820152602481018690523060448201529116906369328dec906064016020604051808303816000875af11580156127c0573d6000803e3d6000fd5b505050506040513d601f19601f82011682018060405250810190611c5a9190612f09565b6001600160a01b0382166128445760405162461bcd60e51b815260206004820152602160248201527f45524332303a206275726e2066726f6d20746865207a65726f206164647265736044820152607360f81b6064820152608401610b75565b6001600160a01b038216600090815260336020526040902054818110156128b85760405162461bcd60e51b815260206004820152602260248201527f45524332303a206275726e20616d6f756e7420657863656564732062616c616e604482015261636560f01b6064820152608401610b75565b6001600160a01b03831660009081526033602052604081208383039055603580548492906128e790849061320a565b90915550506040518281526000906001600160a01b038516907fddf252ad1be2c89b69c2b068fc378daa952ba7f163c4a11628f55a4df523b3ef9060200160405180910390a3505050565b6040516001600160a01b03831660248201526044810182905261128290849063a9059cbb60e01b90606401612538565b600054610100900460ff166129895760405162461bcd60e51b8152600401610b75906131bf565b815161299c906036906020850190612b96565b508051611282906037906020840190612b96565b6000612a05826040518060400160405280602081526020017f5361666545524332303a206c6f772d6c6576656c2063616c6c206661696c6564815250856001600160a01b0316612a829092919063ffffffff16565b8051909150156112825780806020019051810190612a239190612f85565b6112825760405162461bcd60e51b815260206004820152602a60248201527f5361666545524332303a204552433230206f7065726174696f6e20646964206e6044820152691bdd081cdd58d8d9595960b21b6064820152608401610b75565b60606115518484600085856001600160a01b0385163b612ae45760405162461bcd60e51b815260206004820152601d60248201527f416464726573733a2063616c6c20746f206e6f6e2d636f6e74726163740000006044820152606401610b75565b600080866001600160a01b03168587604051612b009190613262565b60006040518083038185875af1925050503d8060008114612b3d576040519150601f19603f3d011682016040523d82523d6000602084013e612b42565b606091505b5091509150612b52828286612b5d565b979650505050505050565b60608315612b6c57508161086b565b825115612b7c5782518084602001fd5b8160405162461bcd60e51b8152600401610b759190612c5b565b828054612ba290612f50565b90600052602060002090601f016020900481019282612bc45760008555612c0a565b82601f10612bdd57805160ff1916838001178555612c0a565b82800160010185558215612c0a579182015b82811115612c0a578251825591602001919060010190612bef565b50612c16929150612c1a565b5090565b5b80821115612c165760008155600101612c1b565b60005b83811015612c4a578181015183820152602001612c32565b83811115611c5a5750506000910152565b6020815260008251806020840152612c7a816040850160208701612c2f565b601f01601f19169190910160400192915050565b600060208284031215612ca057600080fd5b5035919050565b6001600160a01b0381168114611a5a57600080fd5b60008060408385031215612ccf57600080fd5b8235612cda81612ca7565b946020939093013593505050565b600080600060608486031215612cfd57600080fd5b8335612d0881612ca7565b92506020840135612d1881612ca7565b929592945050506040919091013590565b600060208284031215612d3b57600080fd5b813561086b81612ca7565b60008083601f840112612d5857600080fd5b50813567ffffffffffffffff811115612d7057600080fd5b602083019150836020828501011115612d8857600080fd5b9250929050565b60008060008060008060808789031215612da857600080fd5b8635612db381612ca7565b9550602087013567ffffffffffffffff80821115612dd057600080fd5b612ddc8a838b01612d46565b90975095506040890135915080821115612df557600080fd5b50612e0289828a01612d46565b9094509250506060870135612e1681612ca7565b809150509295509295509295565b60008060408385031215612e3757600080fd5b823591506020830135612e4981612ca7565b809150509250929050565b600060808284031215612e6657600080fd5b50919050565b61ffff81168114611a5a57600080fd5b600060208284031215612e8e57600080fd5b813561086b81612e6c565b600080600060608486031215612eae57600080fd5b833592506020840135612ec081612ca7565b91506040840135612ed081612ca7565b809150509250925092565b60008060408385031215612eee57600080fd5b8235612ef981612ca7565b91506020830135612e4981612ca7565b600060208284031215612f1b57600080fd5b5051919050565b634e487b7160e01b600052601160045260246000fd5b60008219821115612f4b57612f4b612f22565b500190565b600181811c90821680612f6457607f821691505b60208210811415612e6657634e487b7160e01b600052602260045260246000fd5b600060208284031215612f9757600080fd5b8151801515811461086b57600080fd5b8051612fb281612ca7565b919050565b600060208284031215612fc957600080fd5b815161086b81612ca7565b6040516101e0810167ffffffffffffffff8111828210171561300657634e487b7160e01b600052604160045260246000fd5b60405290565b60006020828403121561301e57600080fd5b6040516020810181811067ffffffffffffffff8211171561304f57634e487b7160e01b600052604160045260246000fd5b6040529151825250919050565b80516fffffffffffffffffffffffffffffffff81168114612fb257600080fd5b805164ffffffffff81168114612fb257600080fd5b8051612fb281612e6c565b60006101e082840312156130af57600080fd5b6130b7612fd4565b6130c1848461300c565b81526130cf6020840161305c565b60208201526130e06040840161305c565b60408201526130f16060840161305c565b60608201526131026080840161305c565b608082015261311360a0840161305c565b60a082015261312460c0840161307c565b60c082015261313560e08401613091565b60e0820152610100613148818501612fa7565b9082015261012061315a848201612fa7565b9082015261014061316c848201612fa7565b9082015261016061317e848201612fa7565b9082015261018061319084820161305c565b908201526101a06131a284820161305c565b908201526101c06131b484820161305c565b908201529392505050565b6020808252602b908201527f496e697469616c697a61626c653a20636f6e7472616374206973206e6f74206960408201526a6e697469616c697a696e6760a81b606082015260800190565b60008282101561321c5761321c612f22565b500390565b600081600019048311821515161561323b5761323b612f22565b500290565b60008261325d57634e487b7160e01b600052601260045260246000fd5b500490565b60008251613274818460208701612c2f565b919091019291505056fea164736f6c634300080a000a",
  "devdoc": {
    "kind": "dev",
    "methods": {
      "allowance(address,address)": {
        "details": "See {IERC20-allowance}."
      },
      "approve(address,uint256)": {
        "details": "See {IERC20-approve}. NOTE: If `amount` is the maximum `uint256`, the allowance is not updated on `transferFrom`. This is semantically equivalent to an infinite approval. Requirements: - `spender` cannot be the zero address."
      },
      "balanceOf(address)": {
        "details": "See {IERC20-balanceOf}."
      },
      "decimals()": {
        "details": "Returns the number of decimals used to get its user representation. For example, if `decimals` equals `2`, a balance of `505` tokens should be displayed to a user as `5.05` (`505 / 10 ** 2`). Tokens usually opt for a value of 18, imitating the relationship between Ether and Wei. This is the value {ERC20} uses, unless this function is overridden; NOTE: This information is only used for _display_ purposes: it in no way affects any of the arithmetic of the contract, including {IERC20-balanceOf} and {IERC20-transfer}."
      },
      "decreaseAllowance(address,uint256)": {
        "details": "Atomically decreases the allowance granted to `spender` by the caller. This is an alternative to {approve} that can be used as a mitigation for problems described in {IERC20-approve}. Emits an {Approval} event indicating the updated allowance. Requirements: - `spender` cannot be the zero address. - `spender` must have allowance for the caller of at least `subtractedValue`."
      },
      "increaseAllowance(address,uint256)": {
        "details": "Atomically increases the allowance granted to `spender` by the caller. This is an alternative to {approve} that can be used as a mitigation for problems described in {IERC20-approve}. Emits an {Approval} event indicating the updated allowance. Requirements: - `spender` cannot be the zero address."
      },
      "name()": {
        "details": "Returns the name of the token."
      },
      "owner()": {
        "details": "Returns the address of the current owner."
      },
      "paused()": {
        "details": "Returns true if the contract is paused, and false otherwise."
      },
      "renounceOwnership()": {
        "details": "Leaves the contract without owner. It will not be possible to call `onlyOwner` functions anymore. Can only be called by the current owner. NOTE: Renouncing ownership will leave the contract without an owner, thereby removing any functionality that is only available to the owner."
      },
      "symbol()": {
        "details": "Returns the symbol of the token, usually a shorter version of the name."
      },
      "totalSupply()": {
        "details": "See {IERC20-totalSupply}."
      },
      "transfer(address,uint256)": {
        "details": "See {IERC20-transfer}. Requirements: - `to` cannot be the zero address. - the caller must have a balance of at least `amount`."
      },
      "transferFrom(address,address,uint256)": {
        "details": "See {IERC20-transferFrom}. Emits an {Approval} event indicating the updated allowance. This is not required by the EIP. See the note at the beginning of {ERC20}. NOTE: Does not update the allowance if the current allowance is the maximum `uint256`. Requirements: - `from` and `to` cannot be the zero address. - `from` must have a balance of at least `amount`. - the caller must have allowance for ``from``'s tokens of at least `amount`."
      },
      "transferOwnership(address)": {
        "details": "Transfers ownership of the contract to a new account (`newOwner`). Can only be called by the current owner."
      }
    },
    "version": 1
  },
  "userdoc": {
    "kind": "user",
    "methods": {},
    "version": 1
  },
  "storageLayout": {
    "storage": [
      {
        "astId": 3997,
        "contract": "contracts/vaults/DnGmxSeniorVault.sol:DnGmxSeniorVault",
        "label": "_initialized",
        "offset": 0,
        "slot": "0",
        "type": "t_uint8"
      },
      {
        "astId": 4000,
        "contract": "contracts/vaults/DnGmxSeniorVault.sol:DnGmxSeniorVault",
        "label": "_initializing",
        "offset": 1,
        "slot": "0",
        "type": "t_bool"
      },
      {
        "astId": 5266,
        "contract": "contracts/vaults/DnGmxSeniorVault.sol:DnGmxSeniorVault",
        "label": "__gap",
        "offset": 0,
        "slot": "1",
        "type": "t_array(t_uint256)50_storage"
      },
      {
        "astId": 4287,
        "contract": "contracts/vaults/DnGmxSeniorVault.sol:DnGmxSeniorVault",
        "label": "_balances",
        "offset": 0,
        "slot": "51",
        "type": "t_mapping(t_address,t_uint256)"
      },
      {
        "astId": 4293,
        "contract": "contracts/vaults/DnGmxSeniorVault.sol:DnGmxSeniorVault",
        "label": "_allowances",
        "offset": 0,
        "slot": "52",
        "type": "t_mapping(t_address,t_mapping(t_address,t_uint256))"
      },
      {
        "astId": 4295,
        "contract": "contracts/vaults/DnGmxSeniorVault.sol:DnGmxSeniorVault",
        "label": "_totalSupply",
        "offset": 0,
        "slot": "53",
        "type": "t_uint256"
      },
      {
        "astId": 4297,
        "contract": "contracts/vaults/DnGmxSeniorVault.sol:DnGmxSeniorVault",
        "label": "_name",
        "offset": 0,
        "slot": "54",
        "type": "t_string_storage"
      },
      {
        "astId": 4299,
        "contract": "contracts/vaults/DnGmxSeniorVault.sol:DnGmxSeniorVault",
        "label": "_symbol",
        "offset": 0,
        "slot": "55",
        "type": "t_string_storage"
      },
      {
        "astId": 4878,
        "contract": "contracts/vaults/DnGmxSeniorVault.sol:DnGmxSeniorVault",
        "label": "__gap",
        "offset": 0,
        "slot": "56",
        "type": "t_array(t_uint256)45_storage"
      },
      {
        "astId": 6440,
        "contract": "contracts/vaults/DnGmxSeniorVault.sol:DnGmxSeniorVault",
        "label": "asset",
        "offset": 0,
        "slot": "101",
        "type": "t_contract(IERC20Metadata)5373"
      },
      {
        "astId": 3869,
        "contract": "contracts/vaults/DnGmxSeniorVault.sol:DnGmxSeniorVault",
        "label": "_owner",
        "offset": 0,
        "slot": "102",
        "type": "t_address"
      },
      {
        "astId": 3989,
        "contract": "contracts/vaults/DnGmxSeniorVault.sol:DnGmxSeniorVault",
        "label": "__gap",
        "offset": 0,
        "slot": "103",
        "type": "t_array(t_uint256)49_storage"
      },
      {
        "astId": 4162,
        "contract": "contracts/vaults/DnGmxSeniorVault.sol:DnGmxSeniorVault",
        "label": "_paused",
        "offset": 0,
        "slot": "152",
        "type": "t_bool"
      },
      {
        "astId": 4267,
        "contract": "contracts/vaults/DnGmxSeniorVault.sol:DnGmxSeniorVault",
        "label": "__gap",
        "offset": 0,
        "slot": "153",
        "type": "t_array(t_uint256)49_storage"
      },
      {
        "astId": 12548,
        "contract": "contracts/vaults/DnGmxSeniorVault.sol:DnGmxSeniorVault",
        "label": "pool",
        "offset": 0,
        "slot": "202",
        "type": "t_contract(IPool)1121"
      },
      {
        "astId": 12551,
        "contract": "contracts/vaults/DnGmxSeniorVault.sol:DnGmxSeniorVault",
        "label": "aUsdc",
        "offset": 0,
        "slot": "203",
        "type": "t_contract(IAToken)218"
      },
      {
        "astId": 12554,
        "contract": "contracts/vaults/DnGmxSeniorVault.sol:DnGmxSeniorVault",
        "label": "poolAddressProvider",
        "offset": 0,
        "slot": "204",
        "type": "t_contract(IPoolAddressesProvider)1330"
      },
      {
        "astId": 12557,
        "contract": "contracts/vaults/DnGmxSeniorVault.sol:DnGmxSeniorVault",
        "label": "feeStrategy",
        "offset": 0,
        "slot": "205",
        "type": "t_struct(Info)8470_storage"
      },
      {
        "astId": 12560,
        "contract": "contracts/vaults/DnGmxSeniorVault.sol:DnGmxSeniorVault",
        "label": "dnGmxJuniorVault",
        "offset": 0,
        "slot": "209",
        "type": "t_contract(IDnGmxJuniorVault)7126"
      },
      {
        "astId": 12563,
        "contract": "contracts/vaults/DnGmxSeniorVault.sol:DnGmxSeniorVault",
        "label": "leveragePool",
        "offset": 0,
        "slot": "210",
        "type": "t_contract(ILeveragePool)7339"
      },
      {
        "astId": 12566,
        "contract": "contracts/vaults/DnGmxSeniorVault.sol:DnGmxSeniorVault",
        "label": "oracle",
        "offset": 0,
        "slot": "211",
        "type": "t_contract(IPriceOracle)1350"
      },
      {
        "astId": 12568,
        "contract": "contracts/vaults/DnGmxSeniorVault.sol:DnGmxSeniorVault",
        "label": "maxUtilizationBps",
        "offset": 20,
        "slot": "211",
        "type": "t_uint16"
      },
      {
        "astId": 12570,
        "contract": "contracts/vaults/DnGmxSeniorVault.sol:DnGmxSeniorVault",
        "label": "depositCap",
        "offset": 0,
        "slot": "212",
        "type": "t_uint256"
      },
      {
        "astId": 12574,
        "contract": "contracts/vaults/DnGmxSeniorVault.sol:DnGmxSeniorVault",
        "label": "vaultCaps",
        "offset": 0,
        "slot": "213",
        "type": "t_mapping(t_address,t_uint256)"
      }
    ],
    "types": {
      "t_address": {
        "encoding": "inplace",
        "label": "address",
        "numberOfBytes": "20"
      },
      "t_array(t_uint256)45_storage": {
        "base": "t_uint256",
        "encoding": "inplace",
        "label": "uint256[45]",
        "numberOfBytes": "1440"
      },
      "t_array(t_uint256)49_storage": {
        "base": "t_uint256",
        "encoding": "inplace",
        "label": "uint256[49]",
        "numberOfBytes": "1568"
      },
      "t_array(t_uint256)50_storage": {
        "base": "t_uint256",
        "encoding": "inplace",
        "label": "uint256[50]",
        "numberOfBytes": "1600"
      },
      "t_bool": {
        "encoding": "inplace",
        "label": "bool",
        "numberOfBytes": "1"
      },
      "t_contract(IAToken)218": {
        "encoding": "inplace",
        "label": "contract IAToken",
        "numberOfBytes": "20"
      },
      "t_contract(IDnGmxJuniorVault)7126": {
        "encoding": "inplace",
        "label": "contract IDnGmxJuniorVault",
        "numberOfBytes": "20"
      },
      "t_contract(IERC20Metadata)5373": {
        "encoding": "inplace",
        "label": "contract IERC20Metadata",
        "numberOfBytes": "20"
      },
      "t_contract(ILeveragePool)7339": {
        "encoding": "inplace",
        "label": "contract ILeveragePool",
        "numberOfBytes": "20"
      },
      "t_contract(IPool)1121": {
        "encoding": "inplace",
        "label": "contract IPool",
        "numberOfBytes": "20"
      },
      "t_contract(IPoolAddressesProvider)1330": {
        "encoding": "inplace",
        "label": "contract IPoolAddressesProvider",
        "numberOfBytes": "20"
      },
      "t_contract(IPriceOracle)1350": {
        "encoding": "inplace",
        "label": "contract IPriceOracle",
        "numberOfBytes": "20"
      },
      "t_mapping(t_address,t_mapping(t_address,t_uint256))": {
        "encoding": "mapping",
        "key": "t_address",
        "label": "mapping(address => mapping(address => uint256))",
        "numberOfBytes": "32",
        "value": "t_mapping(t_address,t_uint256)"
      },
      "t_mapping(t_address,t_uint256)": {
        "encoding": "mapping",
        "key": "t_address",
        "label": "mapping(address => uint256)",
        "numberOfBytes": "32",
        "value": "t_uint256"
      },
      "t_string_storage": {
        "encoding": "bytes",
        "label": "string",
        "numberOfBytes": "32"
      },
      "t_struct(Info)8470_storage": {
        "encoding": "inplace",
        "label": "struct FeeSplitStrategy.Info",
        "members": [
          {
            "astId": 8463,
            "contract": "contracts/vaults/DnGmxSeniorVault.sol:DnGmxSeniorVault",
            "label": "optimalUtilizationRate",
            "offset": 0,
            "slot": "0",
            "type": "t_uint256"
          },
          {
            "astId": 8465,
            "contract": "contracts/vaults/DnGmxSeniorVault.sol:DnGmxSeniorVault",
            "label": "baseVariableBorrowRate",
            "offset": 0,
            "slot": "1",
            "type": "t_uint256"
          },
          {
            "astId": 8467,
            "contract": "contracts/vaults/DnGmxSeniorVault.sol:DnGmxSeniorVault",
            "label": "variableRateSlope1",
            "offset": 0,
            "slot": "2",
            "type": "t_uint256"
          },
          {
            "astId": 8469,
            "contract": "contracts/vaults/DnGmxSeniorVault.sol:DnGmxSeniorVault",
            "label": "variableRateSlope2",
            "offset": 0,
            "slot": "3",
            "type": "t_uint256"
          }
        ],
        "numberOfBytes": "128"
      },
      "t_uint16": {
        "encoding": "inplace",
        "label": "uint16",
        "numberOfBytes": "2"
      },
      "t_uint256": {
        "encoding": "inplace",
        "label": "uint256",
        "numberOfBytes": "32"
      },
      "t_uint8": {
        "encoding": "inplace",
        "label": "uint8",
        "numberOfBytes": "1"
      }
    }
  }
}