{
  "address": "0x1637c91Dbb18d29B0394D6ed2FbCfC77D3b4f0a4",
  "abi": [
    {
      "inputs": [],
      "name": "ArraysLengthMismatch",
      "type": "error"
    },
    {
      "inputs": [],
      "name": "DepositCapExceeded",
      "type": "error"
    },
    {
      "inputs": [],
      "name": "FlashloanNotInitiated",
      "type": "error"
    },
    {
      "inputs": [],
      "name": "InvalidFeeRecipient",
      "type": "error"
    },
    {
      "inputs": [],
      "name": "InvalidRebalance",
      "type": "error"
    },
    {
      "inputs": [],
      "name": "NotBalancerVault",
      "type": "error"
    },
    {
      "inputs": [],
      "name": "NotDnGmxSeniorVault",
      "type": "error"
    },
    {
      "inputs": [
        {
          "internalType": "address",
          "name": "msgSender",
          "type": "address"
        },
        {
          "internalType": "address",
          "name": "authorisedKeeperAddress",
          "type": "address"
        }
      ],
      "name": "OnlyKeeperAllowed",
      "type": "error"
    },
    {
      "anonymous": false,
      "inputs": [],
      "name": "AllowancesGranted",
      "type": "event"
    },
    {
      "anonymous": false,
      "inputs": [
        {
          "indexed": true,
          "internalType": "address",
          "name": "owner",
          "type": "address"
        },
        {
          "indexed": true,
          "internalType": "address",
          "name": "spender",
          "type": "address"
        },
        {
          "indexed": false,
          "internalType": "uint256",
          "name": "value",
          "type": "uint256"
        }
      ],
      "name": "Approval",
      "type": "event"
    },
    {
      "anonymous": false,
      "inputs": [
        {
          "indexed": false,
          "internalType": "address",
          "name": "_batchingManager",
          "type": "address"
        }
      ],
      "name": "BatchingManagerUpdated",
      "type": "event"
    },
    {
      "anonymous": false,
      "inputs": [
        {
          "indexed": true,
          "internalType": "address",
          "name": "caller",
          "type": "address"
        },
        {
          "indexed": true,
          "internalType": "address",
          "name": "owner",
          "type": "address"
        },
        {
          "indexed": false,
          "internalType": "uint256",
          "name": "assets",
          "type": "uint256"
        },
        {
          "indexed": false,
          "internalType": "uint256",
          "name": "shares",
          "type": "uint256"
        }
      ],
      "name": "Deposit",
      "type": "event"
    },
    {
      "anonymous": false,
      "inputs": [
        {
          "indexed": false,
          "internalType": "uint256",
          "name": "_newDepositCap",
          "type": "uint256"
        }
      ],
      "name": "DepositCapUpdated",
      "type": "event"
    },
    {
      "anonymous": false,
      "inputs": [
        {
          "indexed": false,
          "internalType": "address",
          "name": "_dnGmxSeniorVault",
          "type": "address"
        }
      ],
      "name": "DnGmxSeniorVaultUpdated",
      "type": "event"
    },
    {
      "anonymous": false,
      "inputs": [
        {
          "indexed": false,
          "internalType": "address",
          "name": "_newFeeRecipient",
          "type": "address"
        }
      ],
      "name": "FeeRecipientUpdated",
      "type": "event"
    },
    {
      "anonymous": false,
      "inputs": [
        {
          "indexed": false,
          "internalType": "uint256",
          "name": "feeAmount",
          "type": "uint256"
        }
      ],
      "name": "FeesWithdrawn",
      "type": "event"
    },
    {
      "anonymous": false,
      "inputs": [
        {
          "indexed": false,
          "internalType": "uint8",
          "name": "version",
          "type": "uint8"
        }
      ],
      "name": "Initialized",
      "type": "event"
    },
    {
      "anonymous": false,
      "inputs": [
        {
          "indexed": false,
          "internalType": "address",
          "name": "_newKeeper",
          "type": "address"
        }
      ],
      "name": "KeeperUpdated",
      "type": "event"
    },
    {
      "anonymous": false,
      "inputs": [
        {
          "indexed": true,
          "internalType": "address",
          "name": "previousOwner",
          "type": "address"
        },
        {
          "indexed": true,
          "internalType": "address",
          "name": "newOwner",
          "type": "address"
        }
      ],
      "name": "OwnershipTransferred",
      "type": "event"
    },
    {
      "anonymous": false,
      "inputs": [
        {
          "indexed": false,
          "internalType": "address",
          "name": "account",
          "type": "address"
        }
      ],
      "name": "Paused",
      "type": "event"
    },
    {
      "anonymous": false,
      "inputs": [
        {
          "indexed": true,
          "internalType": "uint32",
          "name": "rebalanceTimeThreshold",
          "type": "uint32"
        },
        {
          "indexed": true,
          "internalType": "uint16",
          "name": "rebalanceDeltaThreshold",
          "type": "uint16"
        }
      ],
      "name": "RebalanceParamsUpdated",
      "type": "event"
    },
    {
      "anonymous": false,
      "inputs": [],
      "name": "Rebalanced",
      "type": "event"
    },
    {
      "anonymous": false,
      "inputs": [
        {
          "indexed": false,
          "internalType": "uint256",
          "name": "wethHarvested",
          "type": "uint256"
        },
        {
          "indexed": false,
          "internalType": "uint256",
          "name": "esGmxStaked",
          "type": "uint256"
        },
        {
          "indexed": false,
          "internalType": "uint256",
          "name": "juniorVaultWeth",
          "type": "uint256"
        },
        {
          "indexed": false,
          "internalType": "uint256",
          "name": "seniorVaultWeth",
          "type": "uint256"
        },
        {
          "indexed": false,
          "internalType": "uint256",
          "name": "juniorVaultGlp",
          "type": "uint256"
        },
        {
          "indexed": false,
          "internalType": "uint256",
          "name": "seniorVaultAUsdc",
          "type": "uint256"
        }
      ],
      "name": "RewardsHarvested",
      "type": "event"
    },
    {
      "anonymous": false,
      "inputs": [
        {
          "indexed": true,
          "internalType": "address",
          "name": "from",
          "type": "address"
        },
        {
          "indexed": true,
          "internalType": "address",
          "name": "to",
          "type": "address"
        },
        {
          "indexed": false,
          "internalType": "uint256",
          "name": "value",
          "type": "uint256"
        }
      ],
      "name": "Transfer",
      "type": "event"
    },
    {
      "anonymous": false,
      "inputs": [
        {
          "indexed": false,
          "internalType": "address",
          "name": "account",
          "type": "address"
        }
      ],
      "name": "Unpaused",
      "type": "event"
    },
    {
      "anonymous": false,
      "inputs": [
        {
          "indexed": true,
          "internalType": "address",
          "name": "caller",
          "type": "address"
        },
        {
          "indexed": true,
          "internalType": "address",
          "name": "receiver",
          "type": "address"
        },
        {
          "indexed": true,
          "internalType": "address",
          "name": "owner",
          "type": "address"
        },
        {
          "indexed": false,
          "internalType": "uint256",
          "name": "assets",
          "type": "uint256"
        },
        {
          "indexed": false,
          "internalType": "uint256",
          "name": "shares",
          "type": "uint256"
        }
      ],
      "name": "Withdraw",
      "type": "event"
    },
    {
      "anonymous": false,
      "inputs": [
        {
          "indexed": false,
          "internalType": "uint256",
          "name": "_withdrawFeeBps",
          "type": "uint256"
        }
      ],
      "name": "WithdrawFeeUpdated",
      "type": "event"
    },
    {
      "anonymous": false,
      "inputs": [
        {
          "indexed": false,
          "internalType": "uint16",
          "name": "slippageThresholdGmx",
          "type": "uint16"
        },
        {
          "indexed": false,
          "internalType": "uint240",
          "name": "usdcConversionThreshold",
          "type": "uint240"
        },
        {
          "indexed": false,
          "internalType": "uint256",
          "name": "wethConversionThreshold",
          "type": "uint256"
        },
        {
          "indexed": false,
          "internalType": "uint256",
          "name": "hedgeUsdcAmountThreshold",
          "type": "uint256"
        },
        {
          "indexed": false,
          "internalType": "uint256",
          "name": "hfThreshold",
          "type": "uint256"
        }
      ],
      "name": "YieldParamsUpdated",
      "type": "event"
    },
    {
      "inputs": [
        {
          "internalType": "address",
          "name": "owner",
          "type": "address"
        },
        {
          "internalType": "address",
          "name": "spender",
          "type": "address"
        }
      ],
      "name": "allowance",
      "outputs": [
        {
          "internalType": "uint256",
          "name": "",
          "type": "uint256"
        }
      ],
      "stateMutability": "view",
      "type": "function"
    },
    {
      "inputs": [
        {
          "internalType": "address",
          "name": "spender",
          "type": "address"
        },
        {
          "internalType": "uint256",
          "name": "amount",
          "type": "uint256"
        }
      ],
      "name": "approve",
      "outputs": [
        {
          "internalType": "bool",
          "name": "",
          "type": "bool"
        }
      ],
      "stateMutability": "nonpayable",
      "type": "function"
    },
    {
      "inputs": [],
      "name": "asset",
      "outputs": [
        {
          "internalType": "address",
          "name": "",
          "type": "address"
        }
      ],
      "stateMutability": "view",
      "type": "function"
    },
    {
      "inputs": [
        {
          "internalType": "address",
          "name": "account",
          "type": "address"
        }
      ],
      "name": "balanceOf",
      "outputs": [
        {
          "internalType": "uint256",
          "name": "",
          "type": "uint256"
        }
      ],
      "stateMutability": "view",
      "type": "function"
    },
    {
      "inputs": [],
      "name": "claimVestedGmx",
      "outputs": [],
      "stateMutability": "nonpayable",
      "type": "function"
    },
    {
      "inputs": [
        {
          "internalType": "uint256",
          "name": "shares",
          "type": "uint256"
        }
      ],
      "name": "convertToAssets",
      "outputs": [
        {
          "internalType": "uint256",
          "name": "",
          "type": "uint256"
        }
      ],
      "stateMutability": "view",
      "type": "function"
    },
    {
      "inputs": [
        {
          "internalType": "uint256",
          "name": "assets",
          "type": "uint256"
        }
      ],
      "name": "convertToShares",
      "outputs": [
        {
          "internalType": "uint256",
          "name": "",
          "type": "uint256"
        }
      ],
      "stateMutability": "view",
      "type": "function"
    },
    {
      "inputs": [],
      "name": "decimals",
      "outputs": [
        {
          "internalType": "uint8",
          "name": "",
          "type": "uint8"
        }
      ],
      "stateMutability": "view",
      "type": "function"
    },
    {
      "inputs": [
        {
          "internalType": "address",
          "name": "spender",
          "type": "address"
        },
        {
          "internalType": "uint256",
          "name": "subtractedValue",
          "type": "uint256"
        }
      ],
      "name": "decreaseAllowance",
      "outputs": [
        {
          "internalType": "bool",
          "name": "",
          "type": "bool"
        }
      ],
      "stateMutability": "nonpayable",
      "type": "function"
    },
    {
      "inputs": [
        {
          "internalType": "uint256",
          "name": "amount",
          "type": "uint256"
        },
        {
          "internalType": "address",
          "name": "to",
          "type": "address"
        }
      ],
      "name": "deposit",
      "outputs": [
        {
          "internalType": "uint256",
          "name": "shares",
          "type": "uint256"
        }
      ],
      "stateMutability": "nonpayable",
      "type": "function"
    },
    {
      "inputs": [],
      "name": "depositCap",
      "outputs": [
        {
          "internalType": "uint256",
          "name": "",
          "type": "uint256"
        }
      ],
      "stateMutability": "view",
      "type": "function"
    },
    {
      "inputs": [
        {
          "internalType": "uint256",
          "name": "assetAmount",
          "type": "uint256"
        }
      ],
      "name": "getMarketValue",
      "outputs": [
        {
          "internalType": "uint256",
          "name": "marketValue",
          "type": "uint256"
        }
      ],
      "stateMutability": "view",
      "type": "function"
    },
    {
      "inputs": [
        {
          "internalType": "bool",
          "name": "maximize",
          "type": "bool"
        }
      ],
      "name": "getPrice",
      "outputs": [
        {
          "internalType": "uint256",
          "name": "",
          "type": "uint256"
        }
      ],
      "stateMutability": "view",
      "type": "function"
    },
    {
      "inputs": [],
      "name": "getPriceX128",
      "outputs": [
        {
          "internalType": "uint256",
          "name": "",
          "type": "uint256"
        }
      ],
      "stateMutability": "view",
      "type": "function"
    },
    {
      "inputs": [],
      "name": "getUsdcBorrowed",
      "outputs": [
        {
          "internalType": "uint256",
          "name": "usdcAmount",
          "type": "uint256"
        }
      ],
      "stateMutability": "view",
      "type": "function"
    },
    {
      "inputs": [],
      "name": "getVaultMarketValue",
      "outputs": [
        {
          "internalType": "int256",
          "name": "vaultMarketValue",
          "type": "int256"
        }
      ],
      "stateMutability": "view",
      "type": "function"
    },
    {
      "inputs": [],
      "name": "grantAllowances",
      "outputs": [],
      "stateMutability": "nonpayable",
      "type": "function"
    },
    {
      "inputs": [],
      "name": "harvestFees",
      "outputs": [],
      "stateMutability": "nonpayable",
      "type": "function"
    },
    {
      "inputs": [
        {
          "internalType": "address",
          "name": "spender",
          "type": "address"
        },
        {
          "internalType": "uint256",
          "name": "addedValue",
          "type": "uint256"
        }
      ],
      "name": "increaseAllowance",
      "outputs": [
        {
          "internalType": "bool",
          "name": "",
          "type": "bool"
        }
      ],
      "stateMutability": "nonpayable",
      "type": "function"
    },
    {
      "inputs": [
        {
          "internalType": "string",
          "name": "_name",
          "type": "string"
        },
        {
          "internalType": "string",
          "name": "_symbol",
          "type": "string"
        },
        {
          "internalType": "address",
          "name": "_swapRouter",
          "type": "address"
        },
        {
          "internalType": "address",
          "name": "_rewardRouter",
          "type": "address"
        },
        {
          "components": [
            {
              "internalType": "contract IERC20Metadata",
              "name": "weth",
              "type": "address"
            },
            {
              "internalType": "contract IERC20Metadata",
              "name": "wbtc",
              "type": "address"
            },
            {
              "internalType": "contract IERC20Metadata",
              "name": "sGlp",
              "type": "address"
            },
            {
              "internalType": "contract IERC20Metadata",
              "name": "usdc",
              "type": "address"
            },
            {
              "internalType": "contract IERC20Metadata",
              "name": "usdt",
              "type": "address"
            }
          ],
          "internalType": "struct DnGmxJuniorVault.Tokens",
          "name": "_tokens",
          "type": "tuple"
        },
        {
          "internalType": "contract IPoolAddressesProvider",
          "name": "_poolAddressesProvider",
          "type": "address"
        }
      ],
      "name": "initialize",
      "outputs": [],
      "stateMutability": "nonpayable",
      "type": "function"
    },
    {
      "inputs": [],
      "name": "isValidRebalance",
      "outputs": [
        {
          "internalType": "bool",
          "name": "",
          "type": "bool"
        }
      ],
      "stateMutability": "view",
      "type": "function"
    },
    {
      "inputs": [
        {
          "internalType": "address",
          "name": "",
          "type": "address"
        }
      ],
      "name": "maxDeposit",
      "outputs": [
        {
          "internalType": "uint256",
          "name": "",
          "type": "uint256"
        }
      ],
      "stateMutability": "view",
      "type": "function"
    },
    {
      "inputs": [
        {
          "internalType": "address",
          "name": "receiver",
          "type": "address"
        }
      ],
      "name": "maxMint",
      "outputs": [
        {
          "internalType": "uint256",
          "name": "",
          "type": "uint256"
        }
      ],
      "stateMutability": "view",
      "type": "function"
    },
    {
      "inputs": [
        {
          "internalType": "address",
          "name": "owner",
          "type": "address"
        }
      ],
      "name": "maxRedeem",
      "outputs": [
        {
          "internalType": "uint256",
          "name": "",
          "type": "uint256"
        }
      ],
      "stateMutability": "view",
      "type": "function"
    },
    {
      "inputs": [
        {
          "internalType": "address",
          "name": "owner",
          "type": "address"
        }
      ],
      "name": "maxWithdraw",
      "outputs": [
        {
          "internalType": "uint256",
          "name": "",
          "type": "uint256"
        }
      ],
      "stateMutability": "view",
      "type": "function"
    },
    {
      "inputs": [
        {
          "internalType": "uint256",
          "name": "shares",
          "type": "uint256"
        },
        {
          "internalType": "address",
          "name": "to",
          "type": "address"
        }
      ],
      "name": "mint",
      "outputs": [
        {
          "internalType": "uint256",
          "name": "amount",
          "type": "uint256"
        }
      ],
      "stateMutability": "nonpayable",
      "type": "function"
    },
    {
      "inputs": [],
      "name": "name",
      "outputs": [
        {
          "internalType": "string",
          "name": "",
          "type": "string"
        }
      ],
      "stateMutability": "view",
      "type": "function"
    },
    {
      "inputs": [],
      "name": "owner",
      "outputs": [
        {
          "internalType": "address",
          "name": "",
          "type": "address"
        }
      ],
      "stateMutability": "view",
      "type": "function"
    },
    {
      "inputs": [],
      "name": "pause",
      "outputs": [],
      "stateMutability": "nonpayable",
      "type": "function"
    },
    {
      "inputs": [],
      "name": "paused",
      "outputs": [
        {
          "internalType": "bool",
          "name": "",
          "type": "bool"
        }
      ],
      "stateMutability": "view",
      "type": "function"
    },
    {
      "inputs": [
        {
          "internalType": "uint256",
          "name": "assets",
          "type": "uint256"
        }
      ],
      "name": "previewDeposit",
      "outputs": [
        {
          "internalType": "uint256",
          "name": "",
          "type": "uint256"
        }
      ],
      "stateMutability": "view",
      "type": "function"
    },
    {
      "inputs": [
        {
          "internalType": "uint256",
          "name": "shares",
          "type": "uint256"
        }
      ],
      "name": "previewMint",
      "outputs": [
        {
          "internalType": "uint256",
          "name": "",
          "type": "uint256"
        }
      ],
      "stateMutability": "view",
      "type": "function"
    },
    {
      "inputs": [
        {
          "internalType": "uint256",
          "name": "shares",
          "type": "uint256"
        }
      ],
      "name": "previewRedeem",
      "outputs": [
        {
          "internalType": "uint256",
          "name": "",
          "type": "uint256"
        }
      ],
      "stateMutability": "view",
      "type": "function"
    },
    {
      "inputs": [
        {
          "internalType": "uint256",
          "name": "assets",
          "type": "uint256"
        }
      ],
      "name": "previewWithdraw",
      "outputs": [
        {
          "internalType": "uint256",
          "name": "",
          "type": "uint256"
        }
      ],
      "stateMutability": "view",
      "type": "function"
    },
    {
      "inputs": [],
      "name": "rebalance",
      "outputs": [],
      "stateMutability": "nonpayable",
      "type": "function"
    },
    {
      "inputs": [
        {
          "internalType": "contract IERC20[]",
          "name": "tokens",
          "type": "address[]"
        },
        {
          "internalType": "uint256[]",
          "name": "amounts",
          "type": "uint256[]"
        },
        {
          "internalType": "uint256[]",
          "name": "feeAmounts",
          "type": "uint256[]"
        },
        {
          "internalType": "bytes",
          "name": "userData",
          "type": "bytes"
        }
      ],
      "name": "receiveFlashLoan",
      "outputs": [],
      "stateMutability": "nonpayable",
      "type": "function"
    },
    {
      "inputs": [
        {
          "internalType": "uint256",
          "name": "shares",
          "type": "uint256"
        },
        {
          "internalType": "address",
          "name": "receiver",
          "type": "address"
        },
        {
          "internalType": "address",
          "name": "owner",
          "type": "address"
        }
      ],
      "name": "redeem",
      "outputs": [
        {
          "internalType": "uint256",
          "name": "assets",
          "type": "uint256"
        }
      ],
      "stateMutability": "nonpayable",
      "type": "function"
    },
    {
      "inputs": [],
      "name": "renounceOwnership",
      "outputs": [],
      "stateMutability": "nonpayable",
      "type": "function"
    },
    {
      "inputs": [
        {
          "internalType": "address",
          "name": "_newKeeper",
          "type": "address"
        },
        {
          "internalType": "address",
          "name": "_dnGmxSeniorVault",
          "type": "address"
        },
        {
          "internalType": "uint256",
          "name": "_newDepositCap",
          "type": "uint256"
        },
        {
          "internalType": "address",
          "name": "_batchingManager",
          "type": "address"
        },
        {
          "internalType": "uint256",
          "name": "_withdrawFeeBps",
          "type": "uint256"
        }
      ],
      "name": "setAdminParams",
      "outputs": [],
      "stateMutability": "nonpayable",
      "type": "function"
    },
    {
      "inputs": [
        {
          "internalType": "address",
          "name": "_feeRecipient",
          "type": "address"
        }
      ],
      "name": "setFeeRecipient",
      "outputs": [],
      "stateMutability": "nonpayable",
      "type": "function"
    },
    {
      "inputs": [
        {
          "internalType": "contract IBalancerVault",
          "name": "_vault",
          "type": "address"
        },
        {
          "internalType": "contract ISwapRouter",
          "name": "_swapRouter",
          "type": "address"
        },
        {
          "internalType": "uint256",
          "name": "_targetHealthFactor",
          "type": "uint256"
        },
        {
          "internalType": "contract IRewardsController",
          "name": "_aaveRewardsController",
          "type": "address"
        }
      ],
      "name": "setHedgeParams",
      "outputs": [],
      "stateMutability": "nonpayable",
      "type": "function"
    },
    {
      "inputs": [
        {
          "internalType": "uint32",
          "name": "_rebalanceTimeThreshold",
          "type": "uint32"
        },
        {
          "internalType": "uint16",
          "name": "_rebalanceDeltaThreshold",
          "type": "uint16"
        }
      ],
      "name": "setRebalanceParams",
      "outputs": [],
      "stateMutability": "nonpayable",
      "type": "function"
    },
    {
      "inputs": [
        {
          "internalType": "uint16",
          "name": "_slippageThresholdSwap",
          "type": "uint16"
        },
        {
          "internalType": "uint16",
          "name": "_slippageThresholdGmx",
          "type": "uint16"
        },
        {
          "internalType": "uint208",
          "name": "_usdcConversionThreshold",
          "type": "uint208"
        },
        {
          "internalType": "uint256",
          "name": "_hfThreshold",
          "type": "uint256"
        },
        {
          "internalType": "uint256",
          "name": "_wethConversionThreshold",
          "type": "uint256"
        },
        {
          "internalType": "uint256",
          "name": "_hedgeUsdcAmountThreshold",
          "type": "uint256"
        }
      ],
      "name": "setThresholds",
      "outputs": [],
      "stateMutability": "nonpayable",
      "type": "function"
    },
    {
      "inputs": [],
      "name": "stopVestAndStakeEsGmx",
      "outputs": [],
      "stateMutability": "nonpayable",
      "type": "function"
    },
    {
      "inputs": [],
      "name": "symbol",
      "outputs": [
        {
          "internalType": "string",
          "name": "",
          "type": "string"
        }
      ],
      "stateMutability": "view",
      "type": "function"
    },
    {
      "inputs": [],
      "name": "totalAssets",
      "outputs": [
        {
          "internalType": "uint256",
          "name": "",
          "type": "uint256"
        }
      ],
      "stateMutability": "view",
      "type": "function"
    },
    {
      "inputs": [],
      "name": "totalSupply",
      "outputs": [
        {
          "internalType": "uint256",
          "name": "",
          "type": "uint256"
        }
      ],
      "stateMutability": "view",
      "type": "function"
    },
    {
      "inputs": [
        {
          "internalType": "address",
          "name": "to",
          "type": "address"
        },
        {
          "internalType": "uint256",
          "name": "amount",
          "type": "uint256"
        }
      ],
      "name": "transfer",
      "outputs": [
        {
          "internalType": "bool",
          "name": "",
          "type": "bool"
        }
      ],
      "stateMutability": "nonpayable",
      "type": "function"
    },
    {
      "inputs": [
        {
          "internalType": "address",
          "name": "from",
          "type": "address"
        },
        {
          "internalType": "address",
          "name": "to",
          "type": "address"
        },
        {
          "internalType": "uint256",
          "name": "amount",
          "type": "uint256"
        }
      ],
      "name": "transferFrom",
      "outputs": [
        {
          "internalType": "bool",
          "name": "",
          "type": "bool"
        }
      ],
      "stateMutability": "nonpayable",
      "type": "function"
    },
    {
      "inputs": [
        {
          "internalType": "address",
          "name": "newOwner",
          "type": "address"
        }
      ],
      "name": "transferOwnership",
      "outputs": [],
      "stateMutability": "nonpayable",
      "type": "function"
    },
    {
      "inputs": [],
      "name": "unpause",
      "outputs": [],
      "stateMutability": "nonpayable",
      "type": "function"
    },
    {
      "inputs": [],
      "name": "unstakeAndVestEsGmx",
      "outputs": [],
      "stateMutability": "nonpayable",
      "type": "function"
    },
    {
      "inputs": [
        {
          "internalType": "uint256",
          "name": "assets",
          "type": "uint256"
        },
        {
          "internalType": "address",
          "name": "receiver",
          "type": "address"
        },
        {
          "internalType": "address",
          "name": "owner",
          "type": "address"
        }
      ],
      "name": "withdraw",
      "outputs": [
        {
          "internalType": "uint256",
          "name": "shares",
          "type": "uint256"
        }
      ],
      "stateMutability": "nonpayable",
      "type": "function"
    },
    {
      "inputs": [],
      "name": "withdrawFees",
      "outputs": [],
      "stateMutability": "nonpayable",
      "type": "function"
    }
  ],
  "transactionHash": "0x650420b565077205688041b53d778ec3bb739bd1fe08595137eab2b93555045c",
  "args": [],
  "numDeployments": 1,
  "solcInputHash": "07330335c049b8b9367e6892ce9313ad",
  "bytecode": "0x608060405234801561001057600080fd5b50615a3c80620000216000396000f3fe608060405234801561001057600080fd5b50600436106103625760003560e01c80638044ddeb116101c8578063ba08765211610104578063dbd5edc7116100a2578063e74b981b1161007c578063e74b981b146106c4578063ef8b30f7146106d7578063f04f2707146106ea578063f2fde38b146106fd57600080fd5b8063dbd5edc714610670578063dd62ed3e14610678578063e245b5af146106b157600080fd5b8063c6e6f592116100de578063c6e6f5921461062f578063ce96cb7714610642578063d627b53014610655578063d905777e1461065d57600080fd5b8063ba08765214610601578063bf9571f114610614578063c63d75b61461061c57600080fd5b806395d89b4111610171578063a9059cbb1161014b578063a9059cbb146105b5578063af4d66c8146105c8578063b3d7f6b9146105db578063b460af94146105ee57600080fd5b806395d89b411461059257806395e2da7c1461059a578063a457c2d7146105a257600080fd5b80638da5cb5b116101a25780638da5cb5b1461056657806394bf804d1461057757806395956cc11461058a57600080fd5b80638044ddeb146105435780638456cb59146105565780638d315d7b1461055e57600080fd5b80633d672a45116102a25780635c9a9b55116102405780636f2067211161021a5780636f206721146104f757806370a082311461050a578063715018a6146105335780637d7c2a1c1461053b57600080fd5b80635c9a9b55146104c957806365eda557146104dc5780636e553f65146104e457600080fd5b8063476343ee1161027c578063476343ee146104905780634cdad50614610498578063554070bc146104ab5780635c975abb146104be57600080fd5b80633d672a451461046d5780633f4ba83a14610475578063402d267d1461047d57600080fd5b8063160d62191161030f57806323b872dd116102e957806323b872dd1461040d578063313ce5671461042057806338d52e0f1461042f578063395093511461045a57600080fd5b8063160d6219146103ea57806318160ddd146103fd5780631f5edd8d1461040557600080fd5b8063095ea7b311610340578063095ea7b3146103aa5780630a28a477146103cd578063138cc18f146103e057600080fd5b806301e1d1141461036757806306fdde031461038257806307a2d13a14610397575b600080fd5b61036f610710565b6040519081526020015b60405180910390f35b61038a61078c565b6040516103799190614e2c565b61036f6103a5366004614e5f565b61081e565b6103bd6103b8366004614e8d565b6108c7565b6040519015158152602001610379565b61036f6103db366004614e5f565b6108e1565b6103e861097e565b005b6103e86103f8366004614ec9565b6111b8565b60355461036f565b6103e8611223565b6103bd61041b366004614f0b565b61138a565b60405160128152602001610379565b606554610442906001600160a01b031681565b6040516001600160a01b039091168152602001610379565b6103bd610468366004614e8d565b6113ae565b61036f6113ed565b6103e861150a565b61036f61048b366004614f4c565b61151c565b6103e86115a7565b61036f6104a6366004614e5f565b611661565b61036f6104b9366004614e5f565b61166c565b60985460ff166103bd565b6103e86104d7366004614f69565b611690565b6103e86116dd565b61036f6104f2366004614fbc565b6118fb565b6103e861050536600461502a565b611917565b61036f610518366004614f4c565b6001600160a01b031660009081526033602052604090205490565b6103e861204d565b6103e861205f565b6103e86105513660046150f1565b612314565b6103e8612365565b61036f612375565b6066546001600160a01b0316610442565b61036f610585366004614fbc565b6125bf565b6103e86125db565b61038a612724565b61036f612733565b6103bd6105b0366004614e8d565b6127c8565b6103bd6105c3366004614e8d565b61285a565b6103e86105d636600461514c565b612868565b61036f6105e9366004614e5f565b6128f1565b61036f6105fc3660046151bd565b61298c565b61036f61060f3660046151bd565b612a99565b6103e8612bbe565b61036f61062a366004614f4c565b6130c2565b61036f61063d366004614e5f565b6130d0565b61036f610650366004614f4c565b61316d565b6103bd61318f565b61036f61066b366004614f4c565b6132fa565b60d65461036f565b61036f6106863660046151ff565b6001600160a01b03918216600090815260346020908152604080832093909416825291909152205490565b61036f6106bf36600461523b565b613318565b6103e86106d2366004614f4c565b613438565b61036f6106e5366004614e5f565b6134c7565b6103e86106f83660046153c8565b6134d2565b6103e861070b366004614f4c565b613756565b604051637343773360e11b815260ca60048201526000907301759Fa78950D071E606C8C25eB0cD34e4D40E7C9063e686ee6690602401602060405180830381865af4158015610763573d6000803e3d6000fd5b505050506040513d601f19601f8201168201806040525081019061078791906154d3565b905090565b60606036805461079b906154ec565b80601f01602080910402602001604051908101604052809291908181526020018280546107c7906154ec565b80156108145780601f106107e957610100808354040283529160200191610814565b820191906000526020600020905b8154815290600101906020018083116107f757829003601f168201915b5050505050905090565b60008061082a60355490565b905080156108be57604051635a69be9d60e01b815260ca6004820152600060248201526108b9907301759Fa78950D071E606C8C25eB0cD34e4D40E7C90635a69be9d90604401602060405180830381865af415801561088d573d6000803e3d6000fd5b505050506040513d601f19601f820116820180604052508101906108b191906154d3565b8490836137cc565b6108c0565b825b9392505050565b6000336108d58185856137eb565b60019150505b92915050565b6000806108ed60355490565b905080156108be57604051635a69be9d60e01b815260ca6004820152600060248201526108b99082907301759Fa78950D071E606C8C25eB0cD34e4D40E7C90635a69be9d90604401602060405180830381865af4158015610952573d6000803e3d6000fd5b505050506040513d601f19601f8201168201806040525081019061097691906154d3565b85919061390f565b60ed5460408051630d43254f60e31b815290516000926001600160a01b031691636a192a789160048083019260209291908290030181865afa1580156109c8573d6000803e3d6000fd5b505050506040513d601f19601f820116820180604052508101906109ec9190615537565b9050600060ca60230160009054906101000a90046001600160a01b03166001600160a01b0316630ce4018a6040518163ffffffff1660e01b8152600401602060405180830381865afa158015610a46573d6000803e3d6000fd5b505050506040513d601f19601f82011682018060405250810190610a6a9190615537565b604051637aeceb1f60e11b81523060048201526001600160a01b03848116602483015291925060009183169063f5d9d63e90604401602060405180830381865afa158015610abc573d6000803e3d6000fd5b505050506040513d601f19601f82011682018060405250810190610ae091906154d3565b60ed5460405163185b800160e11b815260006004820181905260248201819052600160448301819052606483018190526084830181905260a483015260c48201529192506001600160a01b0316906330b700029060e401600060405180830381600087803b158015610b5157600080fd5b505af1158015610b65573d6000803e3d6000fd5b5050604051637aeceb1f60e11b81523060048201526001600160a01b0386811660248301526000935084925085169063f5d9d63e90604401602060405180830381865afa158015610bba573d6000803e3d6000fd5b505050506040513d601f19601f82011682018060405250810190610bde91906154d3565b610be8919061556a565b60ca54909150610bfc9082906127106137cc565b60d08054600090610c0e908490615581565b909155505060d25460cf5460e9546040516370a0823160e01b815230600482015260009392916001600160a01b0316906370a0823190602401602060405180830381865afa158015610c64573d6000803e3d6000fd5b505050506040513d601f19601f82011682018060405250810190610c8891906154d3565b610c92919061556a565b610c9c919061556a565b60d35490915081111561115b5760ca5460009061271090610cbd9084615599565b610cc791906155b8565b90508060ca6005016000828254610cde9190615581565b9091555060009050610cf0828461556a565b90506000610d89826c0c9f2c9cd04674edea4000000060ca60020160009054906101000a90046001600160a01b03166001600160a01b031663e3696edd6040518163ffffffff1660e01b81526004016020604051808303816000875af1158015610d5e573d6000803e3d6000fd5b505050506040513d601f19601f82011682018060405250810190610d8291906154d3565b91906137cc565b90506000610d97828461556a565b905060008260ca60080154610dac9190615581565b60eb5460e9546040516340d3096b60e11b81526001600160a01b0391821660048201529293506000929116906381a612d690602401602060405180830381865afa158015610dfe573d6000803e3d6000fd5b505050506040513d601f19601f82011682018060405250810190610e2291906154d3565b60e254909150600090610e7590610e4690600160b01b900461ffff166127106155da565b610e549061ffff1684615599565b610e6d6127106c0c9f2c9cd04674edea40000000615599565b8691906137cc565b9050610e9a610e866012600a6156e1565b610e926012600a6156e1565b8391906137cc565b60ee5460e954604051634ce3696f60e11b81526001600160a01b03918216600482015260248101889052604481018490529293506000929116906399c6d2de906064016020604051808303816000875af1158015610efc573d6000803e3d6000fd5b505050506040513d601f19601f82011682018060405250810190610f2091906154d3565b60d3549091508411156110f25760e254600090610fdf90610f4e90600160b01b900461ffff166127106155da565b610f5c9061ffff1687615599565b610f756c0c9f2c9cd04674edea40000000612710615599565b60e95460405163439c755d60e11b815260ca60048201526001600160a01b039091166024820152600160448201527301759Fa78950D071E606C8C25eB0cD34e4D40E7C90638738eaba90606401602060405180830381865af4158015610d5e573d6000803e3d6000fd5b60e954604051631c9862ab60e21b81526001600160a01b039091166004820152602481018790526044810182905290915060009081907323A4AbF9AcA2242Ca698AA839E72419Ae4b11024906372618aac906064016040805180830381865af4158015611050573d6000803e3d6000fd5b505050506040513d601f19601f8201168201806040525081019061107491906156ed565b60e754919350915061108f906001600160a01b03168361393d565b600060d255604080518d8152602081018f9052908101899052606081018a90526080810185905260a081018390527f158c029cea1e3fee2bbf8bd978c70589b9698ea9c382e6ce92bb481622a06db49060c00160405180910390a150505061114e565b60d2849055604080518a8152602081018c90529081018690526060810187905260808101829052600060a08201527f158c029cea1e3fee2bbf8bd978c70589b9698ea9c382e6ce92bb481622a06db49060c00160405180910390a15b50505050505050506111b1565b60408051828152602081018490526000818301819052606082018190526080820181905260a082015290517f158c029cea1e3fee2bbf8bd978c70589b9698ea9c382e6ce92bb481622a06db49181900360c00190a15b5050505050565b6111c06139b5565b60d8805461ffff9092166d0100000000000000000000000000026effff000000000000000000000000001963ffffffff909416690100000000000000000002939093166effffffffffff0000000000000000001990921691909117919091179055565b61122b6139b5565b60ed5460408051633671df2560e01b815290516000926001600160a01b031691633671df259160048083019260209291908290030181865afa158015611275573d6000803e3d6000fd5b505050506040513d601f19601f820116820180604052508101906112999190615537565b6001600160a01b0316634e71d92d6040518163ffffffff1660e01b81526004016020604051808303816000875af11580156112d8573d6000803e3d6000fd5b505050506040513d601f19601f820116820180604052508101906112fc91906154d3565b60cd5460ed54604080516331e67c7160e01b81529051939450611387936001600160a01b0393841693869316916331e67c719160048083019260209291908290030181865afa158015611353573d6000803e3d6000fd5b505050506040513d601f19601f820116820180604052508101906113779190615537565b6001600160a01b03169190613a0f565b50565b600033611398858285613a77565b6113a3858585613b09565b506001949350505050565b3360008181526034602090815260408083206001600160a01b03871684529091528120549091906108d590829086906113e8908790615581565b6137eb565b60ec5460405163019c8a3b60e11b81526000600482018190529182916001600160a01b0390911690630339147690602401602060405180830381865afa15801561143b573d6000803e3d6000fd5b505050506040513d601f19601f8201168201806040525081019061145f91906154d3565b9050600060ca601c0160009054906101000a90046001600160a01b03166001600160a01b03166318160ddd6040518163ffffffff1660e01b8152600401602060405180830381865afa1580156114b9573d6000803e3d6000fd5b505050506040513d601f19601f820116820180604052508101906114dd91906154d3565b9050611503600160801b6114fb8369d3c21bcecceda1000000615599565b8491906137cc565b9250505090565b6115126139b5565b61151a613cd7565b565b604051635a69be9d60e01b815260ca6004820152600160248201526000907301759Fa78950D071E606C8C25eB0cD34e4D40E7C90635a69be9d90604401602060405180830381865af4158015611576573d6000803e3d6000fd5b505050506040513d601f19601f8201168201806040525081019061159a91906154d3565b60d6546108db919061556a565b60cf8054600090915560e95460cd5460405163a9059cbb60e01b81526001600160a01b0391821660048201526024810184905291169063a9059cbb906044016020604051808303816000875af1158015611605573d6000803e3d6000fd5b505050506040513d601f19601f820116820180604052508101906116299190615711565b506040518181527f9800e6f57aeb4360eaa72295a820a4293e1e66fbfcabcd8874ae141304a76deb906020015b60405180910390a150565b60006108db8261081e565b60006108db61167b6000613318565b83906c0c9f2c9cd04674edea400000006137cc565b6116986139b5565b60e080546001600160a01b039586166001600160a01b03199182161790915560df80549486169482169490941790935560e19190915560e28054919093169116179055565b6116e56139b5565b60ed5460408051633671df2560e01b815290516001600160a01b0390921691633671df25916004808201926020929091908290030181865afa15801561172f573d6000803e3d6000fd5b505050506040513d601f19601f820116820180604052508101906117539190615537565b6001600160a01b0316633ccfd60b6040518163ffffffff1660e01b8152600401600060405180830381600087803b15801561178d57600080fd5b505af11580156117a1573d6000803e3d6000fd5b505060ed5460408051630d43254f60e31b81529051600094506001600160a01b039092169250636a192a789160048083019260209291908290030181865afa1580156117f1573d6000803e3d6000fd5b505050506040513d601f19601f820116820180604052508101906118159190615537565b6040516370a0823160e01b81523060048201526001600160a01b0391909116906370a0823190602401602060405180830381865afa15801561185b573d6000803e3d6000fd5b505050506040513d601f19601f8201168201806040525081019061187f91906154d3565b60ed54604051633be3166560e21b8152600481018390529192506001600160a01b03169063ef8c599490602401600060405180830381600087803b1580156118c657600080fd5b505af11580156118da573d6000803e3d6000fd5b505050508060ca60060160008282546118f39190615581565b909155505050565b6000611905613d29565b61190d613d6f565b6108c08383613eeb565b600054610100900460ff16158080156119375750600054600160ff909116105b806119515750303b158015611951575060005460ff166001145b6119b95760405162461bcd60e51b815260206004820152602e60248201527f496e697469616c697a61626c653a20636f6e747261637420697320616c72656160448201526d191e481a5b9a5d1a585b1a5e995960921b60648201526084015b60405180910390fd5b6000805460ff1916600117905580156119dc576000805461ff0019166101001790555b6119e4613fa6565b6119ec613fd5565b611a6f6119ff6060850160408601614f4c565b8a8a8080601f01602080910402602001604051908101604052809392919081815260200183838082843760009201919091525050604080516020601f8e018190048102820181019092528c815292508c91508b908190840183828082843760009201919091525061400492505050565b611a7c6020840184614f4c565b60e980546001600160a01b0319166001600160a01b0392909216919091179055611aac6040840160208501614f4c565b60ea80546001600160a01b0319166001600160a01b0392909216919091179055611adc6080840160608501614f4c565b60e780546001600160a01b0319166001600160a01b0392909216919091179055611b0c60a0840160808501614f4c565b60e880546001600160a01b03199081166001600160a01b039384161790915560df8054821688841617905560ed8054821687841617905560db805490911684831617905560655460408051633c5103f760e11b8152905191909216916378a207ee9160048281019260209291908290030181865afa158015611b92573d6000803e3d6000fd5b505050506040513d601f19601f82011682018060405250810190611bb69190615537565b60e680546001600160a01b0319166001600160a01b0392831617905560655460408051633e9b6c6f60e21b81529051919092169163fa6db1bc9160048083019260209291908290030181865afa158015611c14573d6000803e3d6000fd5b505050506040513d601f19601f82011682018060405250810190611c389190615537565b60ec80546001600160a01b0319166001600160a01b039283161790556065546040805162af394d60e81b81529051919092169163af394d009160048083019260209291908290030181865afa158015611c95573d6000803e3d6000fd5b505050506040513d601f19601f82011682018060405250810190611cb99190615537565b60e480546001600160a01b0319166001600160a01b0392831617905560ec546040805163fbfa77cf60e01b81529051919092169163fbfa77cf9160048083019260209291908290030181865afa158015611d17573d6000803e3d6000fd5b505050506040513d601f19601f82011682018060405250810190611d3b9190615537565b60eb80546001600160a01b0319166001600160a01b0392831617905560db546040805163026b1d5f60e01b81529051919092169163026b1d5f9160048083019260209291908290030181865afa158015611d99573d6000803e3d6000fd5b505050506040513d601f19601f82011682018060405250810190611dbd9190615537565b60d980546001600160a01b0319166001600160a01b0392831617905560db5460408051631f94a27560e31b81529051919092169163fca513a89160048083019260209291908290030181865afa158015611e1b573d6000803e3d6000fd5b505050506040513d601f19601f82011682018060405250810190611e3f9190615537565b60da80546001600160a01b0319166001600160a01b0392831617905560d95460e7546040516335ea6a7560e01b815290831660048201529116906335ea6a75906024016101e060405180830381865afa158015611ea0573d6000803e3d6000fd5b505050506040513d601f19601f82011682018060405250810190611ec491906157b0565b610100015160dc80546001600160a01b0319166001600160a01b0392831617905560d95460ea546040516335ea6a7560e01b815290831660048201529116906335ea6a75906024016101e060405180830381865afa158015611f2a573d6000803e3d6000fd5b505050506040513d601f19601f82011682018060405250810190611f4e91906157b0565b610140015160dd80546001600160a01b0319166001600160a01b0392831617905560d95460e9546040516335ea6a7560e01b815290831660048201529116906335ea6a75906024016101e060405180830381865afa158015611fb4573d6000803e3d6000fd5b505050506040513d601f19601f82011682018060405250810190611fd891906157b0565b610140015160de80546001600160a01b0319166001600160a01b039092169190911790558015612042576000805461ff0019169055604051600181527f7f26b83ff96e1f2b6a682f133852f6798a09c465da95921460cefb38474024989060200160405180910390a15b505050505050505050565b6120556139b5565b61151a6000614032565b60cb546001600160a01b0316331461209f5760cb546040516329b7946d60e01b81523360048201526001600160a01b0390911660248201526044016119b0565b6120a761318f565b6120c45760405163a039e79960e01b815260040160405180910390fd5b6120cc61097e565b6040516321b16f2160e11b815260ca600482015260009081907301759Fa78950D071E606C8C25eB0cD34e4D40E7C90634362de42906024016040805180830381865af4158015612120573d6000803e3d6000fd5b505050506040513d601f19601f8201168201806040525081019061214491906156ed565b604051633e72ca6960e11b815260ca6004820152602481018390526044810182905291935091506000907301759Fa78950D071E606C8C25eB0cD34e4D40E7C90637ce594d290606401602060405180830381865af41580156121aa573d6000803e3d6000fd5b505050506040513d601f19601f820116820180604052508101906121ce91906154d3565b604051638684b69760e01b815260ca6004820152602481018290529091507301759Fa78950D071E606C8C25eB0cD34e4D40E7C90638684b6979060440160006040518083038186803b15801561222357600080fd5b505af4158015612237573d6000803e3d6000fd5b5050505060ca7301759Fa78950D071E606C8C25eB0cD34e4D40E7C633cb6767590918585612263610710565b6040516001600160e01b031960e087901b168152600481019490945260248401929092526044830152606482015260840160006040518083038186803b1580156122ac57600080fd5b505af41580156122c0573d6000803e3d6000fd5b505060d8805468ffffffffffffffff0019166101004267ffffffffffffffff160217905550506040517fc741dbaad15a4f298fe8d80943fa8e005e7bcb2f5b0a0c8dec1fc35be457f14690600090a1505050565b61231c6139b5565b60cb80546001600160a01b03199081166001600160a01b039788161790915560cc805482169587169590951790945560d69290925560ee8054909316931692909217905560ce55565b61236d6139b5565b61151a614084565b6040516321b16f2160e11b815260ca6004820152600090819081907301759Fa78950D071E606C8C25eB0cD34e4D40E7C90634362de42906024016040805180830381865af41580156123cb573d6000803e3d6000fd5b505050506040513d601f19601f820116820180604052508101906123ef91906156ed565b604051633e72ca6960e11b815260ca6004820152602481018390526044810182905291935091506000907301759Fa78950D071E606C8C25eB0cD34e4D40E7C90637ce594d290606401602060405180830381865af4158015612455573d6000803e3d6000fd5b505050506040513d601f19601f8201168201806040525081019061247991906154d3565b9050600060ca60240160009054906101000a90046001600160a01b03166001600160a01b031663584150756040518163ffffffff1660e01b8152600401602060405180830381865afa1580156124d3573d6000803e3d6000fd5b505050506040513d601f19601f820116820180604052508101906124f791906154d3565b60e4546040516370a0823160e01b81523060048201526001600160a01b03909116906370a0823190602401602060405180830381865afa15801561253f573d6000803e3d6000fd5b505050506040513d601f19601f8201168201806040525081019061256391906154d3565b61256d9190615581565b9050612578826140c1565b60d154612584906140c1565b60d7546125986125938561166c565b6140c1565b6125a291906158d3565b6125ac91906158d3565b6125b69190615914565b94505050505090565b60006125c9613d29565b6125d1613d6f565b6108c08383614105565b6125e36139b5565b60ed5460d0546040516364f6446760e01b81526001600160a01b03909216916364f64467916126189160040190815260200190565b600060405180830381600087803b15801561263257600080fd5b505af1158015612646573d6000803e3d6000fd5b505060ed5460408051633671df2560e01b815290516001600160a01b039092169350633671df2592506004808201926020929091908290030181865afa158015612694573d6000803e3d6000fd5b505050506040513d601f19601f820116820180604052508101906126b89190615537565b60d05460405163b6b55f2560e01b81526001600160a01b03929092169163b6b55f25916126eb9160040190815260200190565b600060405180830381600087803b15801561270557600080fd5b505af1158015612719573d6000803e3d6000fd5b5050600060d0555050565b60606037805461079b906154ec565b600061274360ca600701546140c1565b60d75460dc546040516370a0823160e01b81523060048201526127b4916001600160a01b0316906370a0823190602401602060405180830381865afa158015612790573d6000803e3d6000fd5b505050506040513d601f19601f8201168201806040525081019061259391906154d3565b6127be9190615914565b6107879190615914565b3360008181526034602090815260408083206001600160a01b03871684529091528120549091908381101561284d5760405162461bcd60e51b815260206004820152602560248201527f45524332303a2064656372656173656420616c6c6f77616e63652062656c6f77604482015264207a65726f60d81b60648201526084016119b0565b6113a382868684036137eb565b6000336108d5818585613b09565b6128706139b5565b60e2805463ffffffff60a01b1916600160b01b61ffff9889160261ffff60a01b191617600160a01b96909716959095029590951790935560e380547fffffffffffff0000000000000000000000000000000000000000000000000000166001600160d01b03939093169290921790915560d39190915560d49190915560d555565b6000806128fd60355490565b905080156108be57604051635a69be9d60e01b815260ca6004820152600160248201526108b9907301759Fa78950D071E606C8C25eB0cD34e4D40E7C90635a69be9d90604401602060405180830381865af4158015612960573d6000803e3d6000fd5b505050506040513d601f19601f8201168201806040525081019061298491906154d3565b84908361390f565b6000612996613d29565b61299e613d6f565b6129a7846108e1565b9050336001600160a01b038316146129f7576001600160a01b038216600090815260346020908152604080832033845290915290205460001981146129f5576129f583336113e8858561556a565b505b60ce54600090612a1790612a0d9061271061556a565b86906127106137cc565b9050612a24818386614186565b612a2e8383614291565b60408051828152602081018490526001600160a01b03808616929087169133917ffbde797d201c681b91056529119e0b02407c7bb96a4a2c75c01fc9667232c8db91015b60405180910390a4606554612a91906001600160a01b03168583613a0f565b509392505050565b6000612aa3613d29565b612aab613d6f565b336001600160a01b03831614612af9576001600160a01b03821660009081526034602090815260408083203384529091529020546000198114612af757612af783336113e8888561556a565b505b612b0284611661565b905080612b3f5760405162461bcd60e51b815260206004820152600b60248201526a5a45524f5f41535345545360a81b60448201526064016119b0565b60ce54600090612b5f90612b559061271061556a565b83906127106137cc565b9050612b6c818686614186565b612b768386614291565b60408051828152602081018790526001600160a01b03808616929087169133917ffbde797d201c681b91056529119e0b02407c7bb96a4a2c75c01fc9667232c8db9101612a72565b612bc66139b5565b60d95460df5460ea5460405163095ea7b360e01b81526001600160a01b0393841660048201819052600019602483015293928316929091169063095ea7b3906044016020604051808303816000875af1158015612c27573d6000803e3d6000fd5b505050506040513d601f19601f82011682018060405250810190612c4b9190615711565b5060ea5460405163095ea7b360e01b81526001600160a01b03838116600483015260001960248301529091169063095ea7b3906044016020604051808303816000875af1158015612ca0573d6000803e3d6000fd5b505050506040513d601f19601f82011682018060405250810190612cc49190615711565b5060e95460405163095ea7b360e01b81526001600160a01b03848116600483015260001960248301529091169063095ea7b3906044016020604051808303816000875af1158015612d19573d6000803e3d6000fd5b505050506040513d601f19601f82011682018060405250810190612d3d9190615711565b5060e95460405163095ea7b360e01b81526001600160a01b03838116600483015260001960248301529091169063095ea7b3906044016020604051808303816000875af1158015612d92573d6000803e3d6000fd5b505050506040513d601f19601f82011682018060405250810190612db69190615711565b5060e95460ee5460405163095ea7b360e01b81526001600160a01b039182166004820152600019602482015291169063095ea7b3906044016020604051808303816000875af1158015612e0d573d6000803e3d6000fd5b505050506040513d601f19601f82011682018060405250810190612e319190615711565b5060e75460405163095ea7b360e01b81526001600160a01b03848116600483015260001960248301529091169063095ea7b3906044016020604051808303816000875af1158015612e86573d6000803e3d6000fd5b505050506040513d601f19601f82011682018060405250810190612eaa9190615711565b5060e75460405163095ea7b360e01b81526001600160a01b03838116600483015260001960248301529091169063095ea7b3906044016020604051808303816000875af1158015612eff573d6000803e3d6000fd5b505050506040513d601f19601f82011682018060405250810190612f239190615711565b5060e75460ee5460405163095ea7b360e01b81526001600160a01b039182166004820152600019602482015291169063095ea7b3906044016020604051808303816000875af1158015612f7a573d6000803e3d6000fd5b505050506040513d601f19601f82011682018060405250810190612f9e9190615711565b5060dc5460cc5460405163095ea7b360e01b81526001600160a01b039182166004820152600019602482015291169063095ea7b3906044016020604051808303816000875af1158015612ff5573d6000803e3d6000fd5b505050506040513d601f19601f820116820180604052508101906130199190615711565b5060655460ec5460405163095ea7b360e01b81526001600160a01b039182166004820152600019602482015291169063095ea7b3906044016020604051808303816000875af1158015613070573d6000803e3d6000fd5b505050506040513d601f19601f820116820180604052508101906130949190615711565b506040517fba5bb3f899c7a3edcc9ff9d46c4e08449c6a608b6f8254132bc5af4898645cbc90600090a15050565b60006108db61063d8361151c565b6000806130dc60355490565b905080156108be57604051635a69be9d60e01b815260ca6004820152600160248201526108b99082907301759Fa78950D071E606C8C25eB0cD34e4D40E7C90635a69be9d90604401602060405180830381865af4158015613141573d6000803e3d6000fd5b505050506040513d601f19601f8201168201806040525081019061316591906154d3565b8591906137cc565b6001600160a01b0381166000908152603360205260408120546108db9061081e565b604051630d0d70b960e11b815260ca60048201526000907301759Fa78950D071E606C8C25eB0cD34e4D40E7C90631a1ae17290602401602060405180830381865af41580156131e2573d6000803e3d6000fd5b505050506040513d601f19601f820116820180604052508101906132069190615711565b806132805750604051633925aae560e21b815260ca60048201527301759Fa78950D071E606C8C25eB0cD34e4D40E7C9063e496ab9490602401602060405180830381865af415801561325c573d6000803e3d6000fd5b505050506040513d601f19601f820116820180604052508101906132809190615711565b8061078757506040516355b51a6d60e01b815260ca60048201527301759Fa78950D071E606C8C25eB0cD34e4D40E7C906355b51a6d90602401602060405180830381865af41580156132d6573d6000803e3d6000fd5b505050506040513d601f19601f820116820180604052508101906107879190615711565b6001600160a01b0381166000908152603360205260408120546108db565b60ec5460405163019c8a3b60e11b8152821515600482015260009182916001600160a01b0390911690630339147690602401602060405180830381865afa158015613367573d6000803e3d6000fd5b505050506040513d601f19601f8201168201806040525081019061338b91906154d3565b9050600060ca601c0160009054906101000a90046001600160a01b03166001600160a01b03166318160ddd6040518163ffffffff1660e01b8152600401602060405180830381865afa1580156133e5573d6000803e3d6000fd5b505050506040513d601f19601f8201168201806040525081019061340991906154d3565b90506134306c0c9f2c9cd04674edea400000006114fb8369d3c21bcecceda1000000615599565b949350505050565b6134406139b5565b60cd546001600160a01b038281169116146134755760cd80546001600160a01b0319166001600160a01b03831617905561348e565b604051630ed1b8b360e31b815260040160405180910390fd5b6040516001600160a01b03821681527f7a7b5a0a132f9e0581eb8527f66eae9ee89c2a3e79d4ac7e41a1f1f4d48a7fc290602001611656565b60006108db826130d0565b60e0546001600160a01b031633146134fd5760405163f4a8e62160e01b815260040160405180910390fd5b60d85460ff1661352057604051637869c16160e11b815260040160405180910390fd5b6000806000806000808680602001905181019061353d9190615953565b9550955095509550955095506000808380156135565750825b156135d3576135a4878c600081518110613572576135726159b2565b60200260200101518c60008151811061358d5761358d6159b2565b60200260200101516137cc9092919063ffffffff16565b9150818a6000815181106135ba576135ba6159b2565b60200260200101516135cc919061556a565b905061370a565b87158015906135e157508515155b156136c4576000846136265760ea548d516001600160a01b03909116908e9060009061360f5761360f6159b2565b60200260200101516001600160a01b03161461365b565b60e7548d516001600160a01b03909116908e90600090613648576136486159b2565b60200260200101516001600160a01b0316145b15613664575060015b8a81613671576001613674565b60005b60ff1681518110613687576136876159b2565b602002602001015192508a8161369e5760006136a1565b60015b60ff16815181106136b4576136b46159b2565b602002602001015191505061370a565b87156136ec57896000815181106136dd576136dd6159b2565b6020026020010151915061370a565b896000815181106136ff576136ff6159b2565b602002602001015190505b87156137295760ea54613729906001600160a01b0316898985886143df565b85156137485760e954613748906001600160a01b0316878784876143df565b505050505050505050505050565b61375e6139b5565b6001600160a01b0381166137c35760405162461bcd60e51b815260206004820152602660248201527f4f776e61626c653a206e6577206f776e657220697320746865207a65726f206160448201526564647265737360d01b60648201526084016119b0565b61138781614032565b8282028115158415858304851417166137e457600080fd5b0492915050565b6001600160a01b03831661384d5760405162461bcd60e51b8152602060048201526024808201527f45524332303a20617070726f76652066726f6d20746865207a65726f206164646044820152637265737360e01b60648201526084016119b0565b6001600160a01b0382166138ae5760405162461bcd60e51b815260206004820152602260248201527f45524332303a20617070726f766520746f20746865207a65726f206164647265604482015261737360f01b60648201526084016119b0565b6001600160a01b0383811660008181526034602090815260408083209487168084529482529182902085905590518481527f8c5be1e5ebec7d5bd14f71427d1e84f3dd0314c0f7b2291e5b200ac8c7c3b925910160405180910390a3505050565b82820281151584158583048514171661392757600080fd5b6001826001830304018115150290509392505050565b60d95460405163617ba03760e01b81526001600160a01b03848116600483015260248201849052306044830152600060648301529091169063617ba037906084015b600060405180830381600087803b15801561399957600080fd5b505af11580156139ad573d6000803e3d6000fd5b505050505050565b6066546001600160a01b0316331461151a5760405162461bcd60e51b815260206004820181905260248201527f4f776e61626c653a2063616c6c6572206973206e6f7420746865206f776e657260448201526064016119b0565b6040516001600160a01b038316602482015260448101829052613a7290849063a9059cbb60e01b906064015b60408051601f198184030181529190526020810180516001600160e01b03166001600160e01b0319909316929092179091526146bc565b505050565b6001600160a01b038381166000908152603460209081526040808320938616835292905220546000198114613b035781811015613af65760405162461bcd60e51b815260206004820152601d60248201527f45524332303a20696e73756666696369656e7420616c6c6f77616e636500000060448201526064016119b0565b613b0384848484036137eb565b50505050565b6001600160a01b038316613b6d5760405162461bcd60e51b815260206004820152602560248201527f45524332303a207472616e736665722066726f6d20746865207a65726f206164604482015264647265737360d81b60648201526084016119b0565b6001600160a01b038216613bcf5760405162461bcd60e51b815260206004820152602360248201527f45524332303a207472616e7366657220746f20746865207a65726f206164647260448201526265737360e81b60648201526084016119b0565b6001600160a01b03831660009081526033602052604090205481811015613c475760405162461bcd60e51b815260206004820152602660248201527f45524332303a207472616e7366657220616d6f756e7420657863656564732062604482015265616c616e636560d01b60648201526084016119b0565b6001600160a01b03808516600090815260336020526040808220858503905591851681529081208054849290613c7e908490615581565b92505081905550826001600160a01b0316846001600160a01b03167fddf252ad1be2c89b69c2b068fc378daa952ba7f163c4a11628f55a4df523b3ef84604051613cca91815260200190565b60405180910390a3613b03565b613cdf61478e565b6098805460ff191690557f5db9ee0a495bf2e6ff9c91a7834c1ba4fdd244a5e8aa4e537bd38aeae4b073aa335b6040516001600160a01b03909116815260200160405180910390a1565b60985460ff161561151a5760405162461bcd60e51b815260206004820152601060248201526f14185d5cd8589b194e881c185d5cd95960821b60448201526064016119b0565b613d7761097e565b6040516321b16f2160e11b815260ca600482015260009081907301759Fa78950D071E606C8C25eB0cD34e4D40E7C90634362de42906024016040805180830381865af4158015613dcb573d6000803e3d6000fd5b505050506040513d601f19601f82011682018060405250810190613def91906156ed565b604051633e72ca6960e11b815260ca6004820152602481018390526044810182905291935091506000907301759Fa78950D071E606C8C25eB0cD34e4D40E7C90637ce594d290606401602060405180830381865af4158015613e55573d6000803e3d6000fd5b505050506040513d601f19601f82011682018060405250810190613e7991906154d3565b604051638684b69760e01b815260ca6004820152602481018290529091507301759Fa78950D071E606C8C25eB0cD34e4D40E7C90638684b6979060440160006040518083038186803b158015613ece57600080fd5b505af4158015613ee2573d6000803e3d6000fd5b50505050505050565b6000613ef6836134c7565b905080613f335760405162461bcd60e51b815260206004820152600b60248201526a5a45524f5f53484152455360a81b60448201526064016119b0565b606554613f4b906001600160a01b03163330866147e0565b613f558282614818565b60408051848152602081018390526001600160a01b0384169133917fdcbc1c05240f31ff3ad067ef1ee35ce4997762752e3a095284754544f4c709d7910160405180910390a36108db8382846148f8565b600054610100900460ff16613fcd5760405162461bcd60e51b81526004016119b0906159c8565b61151a6149c5565b600054610100900460ff16613ffc5760405162461bcd60e51b81526004016119b0906159c8565b61151a6149f5565b61400e8282614a28565b5050606580546001600160a01b0319166001600160a01b0392909216919091179055565b606680546001600160a01b038381166001600160a01b0319831681179093556040519116919082907f8be0079c531659141344cd1fd0a4f28419497f9722a3daafe3b4186f6b6457e090600090a35050565b61408c613d29565b6098805460ff191660011790557f62e78cea01bee320cd4e420270b5ea74000d11b0c9f74754ebdbfc544b05a258613d0c3390565b6000600160ff1b82106141015760405162461bcd60e51b81526020600482015260086024820152674f766572666c6f7760c01b60448201526064016119b0565b5090565b6000614110836128f1565b60655490915061412b906001600160a01b03163330846147e0565b6141358284614818565b60408051828152602081018590526001600160a01b0384169133917fdcbc1c05240f31ff3ad067ef1ee35ce4997762752e3a095284754544f4c709d7910160405180910390a36108db8184846148f8565b6040516321b16f2160e11b815260ca600482015260009081907301759Fa78950D071E606C8C25eB0cD34e4D40E7C90634362de42906024016040805180830381865af41580156141da573d6000803e3d6000fd5b505050506040513d601f19601f820116820180604052508101906141fe91906156ed565b90925090507301759Fa78950D071E606C8C25eB0cD34e4D40E7C633cb6767560ca84848961422a610710565b614234919061556a565b6040516001600160e01b031960e087901b168152600481019490945260248401929092526044830152606482015260840160006040518083038186803b15801561427d57600080fd5b505af4158015612042573d6000803e3d6000fd5b6001600160a01b0382166142f15760405162461bcd60e51b815260206004820152602160248201527f45524332303a206275726e2066726f6d20746865207a65726f206164647265736044820152607360f81b60648201526084016119b0565b6001600160a01b038216600090815260336020526040902054818110156143655760405162461bcd60e51b815260206004820152602260248201527f45524332303a206275726e20616d6f756e7420657863656564732062616c616e604482015261636560f01b60648201526084016119b0565b6001600160a01b038316600090815260336020526040812083830390556035805484929061439490849061556a565b90915550506040518281526000906001600160a01b038516907fddf252ad1be2c89b69c2b068fc378daa952ba7f163c4a11628f55a4df523b3ef9060200160405180910390a3505050565b806145475760006143f08386615581565b604051631c9862ab60e21b81526001600160a01b0388166004820152602481018790526044810186905290915060009081907323A4AbF9AcA2242Ca698AA839E72419Ae4b11024906372618aac906064016040805180830381865af415801561445d573d6000803e3d6000fd5b505050506040513d601f19601f8201168201806040525081019061448191906156ed565b60e754919350915061449c906001600160a01b03168361393d565b6144a68884614a59565b60e05460405163a9059cbb60e01b81526001600160a01b039182166004820152602481018590529089169063a9059cbb906044016020604051808303816000875af11580156144f9573d6000803e3d6000fd5b505050506040513d601f19601f8201168201806040525081019061451d9190615711565b50614527826140c1565b60d780546000906145399084906158d3565b909155506111b19350505050565b604051632ea82dd560e21b81526001600160a01b0386166004820152602481018590526044810184905260009081907323A4AbF9AcA2242Ca698AA839E72419Ae4b110249063baa0b754906064016040805180830381865af41580156145b1573d6000803e3d6000fd5b505050506040513d601f19601f820116820180604052508101906145d591906156ed565b909250905060006145e68584615581565b90506145f1816140c1565b60d78054600090614603908490615914565b9091555061461390508883614aa6565b60e75461462a906001600160a01b03168230614b2a565b60e75460e0546001600160a01b039182169163a9059cbb911661464d888a615581565b6040516001600160e01b031960e085901b1681526001600160a01b03909216600483015260248201526044016020604051808303816000875af1158015614698573d6000803e3d6000fd5b505050506040513d601f19601f820116820180604052508101906120429190615711565b6000614711826040518060400160405280602081526020017f5361666545524332303a206c6f772d6c6576656c2063616c6c206661696c6564815250856001600160a01b0316614ba99092919063ffffffff16565b805190915015613a72578080602001905181019061472f9190615711565b613a725760405162461bcd60e51b815260206004820152602a60248201527f5361666545524332303a204552433230206f7065726174696f6e20646964206e6044820152691bdd081cdd58d8d9595960b21b60648201526084016119b0565b60985460ff1661151a5760405162461bcd60e51b815260206004820152601460248201527f5061757361626c653a206e6f742070617573656400000000000000000000000060448201526064016119b0565b6040516001600160a01b0380851660248301528316604482015260648101829052613b039085906323b872dd60e01b90608401613a3b565b6001600160a01b03821661486e5760405162461bcd60e51b815260206004820152601f60248201527f45524332303a206d696e7420746f20746865207a65726f20616464726573730060448201526064016119b0565b80603560008282546148809190615581565b90915550506001600160a01b038216600090815260336020526040812080548392906148ad908490615581565b90915550506040518181526001600160a01b038316906000907fddf252ad1be2c89b69c2b068fc378daa952ba7f163c4a11628f55a4df523b3ef9060200160405180910390a35b5050565b60d654614903610710565b1115614922576040516324d758c360e21b815260040160405180910390fd5b6040516321b16f2160e11b815260ca600482015260009081907301759Fa78950D071E606C8C25eB0cD34e4D40E7C90634362de42906024016040805180830381865af4158015614976573d6000803e3d6000fd5b505050506040513d601f19601f8201168201806040525081019061499a91906156ed565b90925090507301759Fa78950D071E606C8C25eB0cD34e4D40E7C633cb6767560ca8484614234610710565b600054610100900460ff166149ec5760405162461bcd60e51b81526004016119b0906159c8565b61151a33614032565b600054610100900460ff16614a1c5760405162461bcd60e51b81526004016119b0906159c8565b6098805460ff19169055565b600054610100900460ff16614a4f5760405162461bcd60e51b81526004016119b0906159c8565b6148f48282614bb8565b60d95460405163a415bcad60e01b81526001600160a01b0384811660048301526024820184905260026044830152600060648301523060848301529091169063a415bcad9060a40161397f565b60d95460405163573ade8160e01b81526001600160a01b03848116600483015260248201849052600260448301523060648301529091169063573ade81906084016020604051808303816000875af1158015614b06573d6000803e3d6000fd5b505050506040513d601f19601f82011682018060405250810190613a7291906154d3565b60d954604051631a4ca37b60e21b81526001600160a01b038581166004830152602482018590528381166044830152909116906369328dec906064016020604051808303816000875af1158015614b85573d6000803e3d6000fd5b505050506040513d601f19601f82011682018060405250810190613b0391906154d3565b60606134308484600085614c06565b600054610100900460ff16614bdf5760405162461bcd60e51b81526004016119b0906159c8565b8151614bf2906036906020850190614d70565b508051613a72906037906020840190614d70565b606082471015614c675760405162461bcd60e51b815260206004820152602660248201527f416464726573733a20696e73756666696369656e742062616c616e636520666f6044820152651c8818d85b1b60d21b60648201526084016119b0565b6001600160a01b0385163b614cbe5760405162461bcd60e51b815260206004820152601d60248201527f416464726573733a2063616c6c20746f206e6f6e2d636f6e747261637400000060448201526064016119b0565b600080866001600160a01b03168587604051614cda9190615a13565b60006040518083038185875af1925050503d8060008114614d17576040519150601f19603f3d011682016040523d82523d6000602084013e614d1c565b606091505b5091509150614d2c828286614d37565b979650505050505050565b60608315614d465750816108c0565b825115614d565782518084602001fd5b8160405162461bcd60e51b81526004016119b09190614e2c565b828054614d7c906154ec565b90600052602060002090601f016020900481019282614d9e5760008555614de4565b82601f10614db757805160ff1916838001178555614de4565b82800160010185558215614de4579182015b82811115614de4578251825591602001919060010190614dc9565b506141019291505b808211156141015760008155600101614dec565b60005b83811015614e1b578181015183820152602001614e03565b83811115613b035750506000910152565b6020815260008251806020840152614e4b816040850160208701614e00565b601f01601f19169190910160400192915050565b600060208284031215614e7157600080fd5b5035919050565b6001600160a01b038116811461138757600080fd5b60008060408385031215614ea057600080fd5b8235614eab81614e78565b946020939093013593505050565b61ffff8116811461138757600080fd5b60008060408385031215614edc57600080fd5b823563ffffffff81168114614ef057600080fd5b91506020830135614f0081614eb9565b809150509250929050565b600080600060608486031215614f2057600080fd5b8335614f2b81614e78565b92506020840135614f3b81614e78565b929592945050506040919091013590565b600060208284031215614f5e57600080fd5b81356108c081614e78565b60008060008060808587031215614f7f57600080fd5b8435614f8a81614e78565b93506020850135614f9a81614e78565b9250604085013591506060850135614fb181614e78565b939692955090935050565b60008060408385031215614fcf57600080fd5b823591506020830135614f0081614e78565b60008083601f840112614ff357600080fd5b50813567ffffffffffffffff81111561500b57600080fd5b60208301915083602082850101111561502357600080fd5b9250929050565b600080600080600080600080888a0361014081121561504857600080fd5b893567ffffffffffffffff8082111561506057600080fd5b61506c8d838e01614fe1565b909b50995060208c013591508082111561508557600080fd5b506150928c828d01614fe1565b90985096505060408a01356150a681614e78565b945060608a01356150b681614e78565b935060a0607f19820112156150ca57600080fd5b506080890191506101208901356150e081614e78565b809150509295985092959890939650565b600080600080600060a0868803121561510957600080fd5b853561511481614e78565b9450602086013561512481614e78565b935060408601359250606086013561513b81614e78565b949793965091946080013592915050565b60008060008060008060c0878903121561516557600080fd5b863561517081614eb9565b9550602087013561518081614eb9565b945060408701356001600160d01b038116811461519c57600080fd5b959894975094956060810135955060808101359460a0909101359350915050565b6000806000606084860312156151d257600080fd5b8335925060208401356151e481614e78565b915060408401356151f481614e78565b809150509250925092565b6000806040838503121561521257600080fd5b823561521d81614e78565b91506020830135614f0081614e78565b801515811461138757600080fd5b60006020828403121561524d57600080fd5b81356108c08161522d565b634e487b7160e01b600052604160045260246000fd5b6040516101e0810167ffffffffffffffff8111828210171561529257615292615258565b60405290565b604051601f8201601f1916810167ffffffffffffffff811182821017156152c1576152c1615258565b604052919050565b600067ffffffffffffffff8211156152e3576152e3615258565b5060051b60200190565b600082601f8301126152fe57600080fd5b8135602061531361530e836152c9565b615298565b82815260059290921b8401810191818101908684111561533257600080fd5b8286015b8481101561534d5780358352918301918301615336565b509695505050505050565b600082601f83011261536957600080fd5b813567ffffffffffffffff81111561538357615383615258565b615396601f8201601f1916602001615298565b8181528460208386010111156153ab57600080fd5b816020850160208301376000918101602001919091529392505050565b600080600080608085870312156153de57600080fd5b843567ffffffffffffffff808211156153f657600080fd5b818701915087601f83011261540a57600080fd5b8135602061541a61530e836152c9565b82815260059290921b8401810191818101908b84111561543957600080fd5b948201945b8386101561546057853561545181614e78565b8252948201949082019061543e565b9850508801359250508082111561547657600080fd5b615482888389016152ed565b9450604087013591508082111561549857600080fd5b6154a4888389016152ed565b935060608701359150808211156154ba57600080fd5b506154c787828801615358565b91505092959194509250565b6000602082840312156154e557600080fd5b5051919050565b600181811c9082168061550057607f821691505b6020821081141561552157634e487b7160e01b600052602260045260246000fd5b50919050565b805161553281614e78565b919050565b60006020828403121561554957600080fd5b81516108c081614e78565b634e487b7160e01b600052601160045260246000fd5b60008282101561557c5761557c615554565b500390565b6000821982111561559457615594615554565b500190565b60008160001904831182151516156155b3576155b3615554565b500290565b6000826155d557634e487b7160e01b600052601260045260246000fd5b500490565b600061ffff838116908316818110156155f5576155f5615554565b039392505050565b600181815b8085111561563857816000190482111561561e5761561e615554565b8085161561562b57918102915b93841c9390800290615602565b509250929050565b60008261564f575060016108db565b8161565c575060006108db565b8160018114615672576002811461567c57615698565b60019150506108db565b60ff84111561568d5761568d615554565b50506001821b6108db565b5060208310610133831016604e8410600b84101617156156bb575081810a6108db565b6156c583836155fd565b80600019048211156156d9576156d9615554565b029392505050565b60006108c08383615640565b6000806040838503121561570057600080fd5b505080516020909101519092909150565b60006020828403121561572357600080fd5b81516108c08161522d565b60006020828403121561574057600080fd5b6040516020810181811067ffffffffffffffff8211171561576357615763615258565b6040529151825250919050565b80516fffffffffffffffffffffffffffffffff8116811461553257600080fd5b805164ffffffffff8116811461553257600080fd5b805161553281614eb9565b60006101e082840312156157c357600080fd5b6157cb61526e565b6157d5848461572e565b81526157e360208401615770565b60208201526157f460408401615770565b604082015261580560608401615770565b606082015261581660808401615770565b608082015261582760a08401615770565b60a082015261583860c08401615790565b60c082015261584960e084016157a5565b60e082015261010061585c818501615527565b9082015261012061586e848201615527565b90820152610140615880848201615527565b90820152610160615892848201615527565b908201526101806158a4848201615770565b908201526101a06158b6848201615770565b908201526101c06158c8848201615770565b908201529392505050565b600080821280156001600160ff1b03849003851316156158f5576158f5615554565b600160ff1b839003841281161561590e5761590e615554565b50500190565b60008083128015600160ff1b85018412161561593257615932615554565b6001600160ff1b038401831381161561594d5761594d615554565b50500390565b60008060008060008060c0878903121561596c57600080fd5b8651955060208701519450604087015193506060870151925060808701516159938161522d565b60a08801519092506159a48161522d565b809150509295509295509295565b634e487b7160e01b600052603260045260246000fd5b6020808252602b908201527f496e697469616c697a61626c653a20636f6e7472616374206973206e6f74206960408201526a6e697469616c697a696e6760a81b606082015260800190565b60008251615a25818460208701614e00565b919091019291505056fea164736f6c634300080a000a",
  "deployedBytecode": "0x608060405234801561001057600080fd5b50600436106103625760003560e01c80638044ddeb116101c8578063ba08765211610104578063dbd5edc7116100a2578063e74b981b1161007c578063e74b981b146106c4578063ef8b30f7146106d7578063f04f2707146106ea578063f2fde38b146106fd57600080fd5b8063dbd5edc714610670578063dd62ed3e14610678578063e245b5af146106b157600080fd5b8063c6e6f592116100de578063c6e6f5921461062f578063ce96cb7714610642578063d627b53014610655578063d905777e1461065d57600080fd5b8063ba08765214610601578063bf9571f114610614578063c63d75b61461061c57600080fd5b806395d89b4111610171578063a9059cbb1161014b578063a9059cbb146105b5578063af4d66c8146105c8578063b3d7f6b9146105db578063b460af94146105ee57600080fd5b806395d89b411461059257806395e2da7c1461059a578063a457c2d7146105a257600080fd5b80638da5cb5b116101a25780638da5cb5b1461056657806394bf804d1461057757806395956cc11461058a57600080fd5b80638044ddeb146105435780638456cb59146105565780638d315d7b1461055e57600080fd5b80633d672a45116102a25780635c9a9b55116102405780636f2067211161021a5780636f206721146104f757806370a082311461050a578063715018a6146105335780637d7c2a1c1461053b57600080fd5b80635c9a9b55146104c957806365eda557146104dc5780636e553f65146104e457600080fd5b8063476343ee1161027c578063476343ee146104905780634cdad50614610498578063554070bc146104ab5780635c975abb146104be57600080fd5b80633d672a451461046d5780633f4ba83a14610475578063402d267d1461047d57600080fd5b8063160d62191161030f57806323b872dd116102e957806323b872dd1461040d578063313ce5671461042057806338d52e0f1461042f578063395093511461045a57600080fd5b8063160d6219146103ea57806318160ddd146103fd5780631f5edd8d1461040557600080fd5b8063095ea7b311610340578063095ea7b3146103aa5780630a28a477146103cd578063138cc18f146103e057600080fd5b806301e1d1141461036757806306fdde031461038257806307a2d13a14610397575b600080fd5b61036f610710565b6040519081526020015b60405180910390f35b61038a61078c565b6040516103799190614e2c565b61036f6103a5366004614e5f565b61081e565b6103bd6103b8366004614e8d565b6108c7565b6040519015158152602001610379565b61036f6103db366004614e5f565b6108e1565b6103e861097e565b005b6103e86103f8366004614ec9565b6111b8565b60355461036f565b6103e8611223565b6103bd61041b366004614f0b565b61138a565b60405160128152602001610379565b606554610442906001600160a01b031681565b6040516001600160a01b039091168152602001610379565b6103bd610468366004614e8d565b6113ae565b61036f6113ed565b6103e861150a565b61036f61048b366004614f4c565b61151c565b6103e86115a7565b61036f6104a6366004614e5f565b611661565b61036f6104b9366004614e5f565b61166c565b60985460ff166103bd565b6103e86104d7366004614f69565b611690565b6103e86116dd565b61036f6104f2366004614fbc565b6118fb565b6103e861050536600461502a565b611917565b61036f610518366004614f4c565b6001600160a01b031660009081526033602052604090205490565b6103e861204d565b6103e861205f565b6103e86105513660046150f1565b612314565b6103e8612365565b61036f612375565b6066546001600160a01b0316610442565b61036f610585366004614fbc565b6125bf565b6103e86125db565b61038a612724565b61036f612733565b6103bd6105b0366004614e8d565b6127c8565b6103bd6105c3366004614e8d565b61285a565b6103e86105d636600461514c565b612868565b61036f6105e9366004614e5f565b6128f1565b61036f6105fc3660046151bd565b61298c565b61036f61060f3660046151bd565b612a99565b6103e8612bbe565b61036f61062a366004614f4c565b6130c2565b61036f61063d366004614e5f565b6130d0565b61036f610650366004614f4c565b61316d565b6103bd61318f565b61036f61066b366004614f4c565b6132fa565b60d65461036f565b61036f6106863660046151ff565b6001600160a01b03918216600090815260346020908152604080832093909416825291909152205490565b61036f6106bf36600461523b565b613318565b6103e86106d2366004614f4c565b613438565b61036f6106e5366004614e5f565b6134c7565b6103e86106f83660046153c8565b6134d2565b6103e861070b366004614f4c565b613756565b604051637343773360e11b815260ca600482015260009073__$e69b62c1cd9e88f96bb775811e046ce5a9$__9063e686ee6690602401602060405180830381865af4158015610763573d6000803e3d6000fd5b505050506040513d601f19601f8201168201806040525081019061078791906154d3565b905090565b60606036805461079b906154ec565b80601f01602080910402602001604051908101604052809291908181526020018280546107c7906154ec565b80156108145780601f106107e957610100808354040283529160200191610814565b820191906000526020600020905b8154815290600101906020018083116107f757829003601f168201915b5050505050905090565b60008061082a60355490565b905080156108be57604051635a69be9d60e01b815260ca6004820152600060248201526108b99073__$e69b62c1cd9e88f96bb775811e046ce5a9$__90635a69be9d90604401602060405180830381865af415801561088d573d6000803e3d6000fd5b505050506040513d601f19601f820116820180604052508101906108b191906154d3565b8490836137cc565b6108c0565b825b9392505050565b6000336108d58185856137eb565b60019150505b92915050565b6000806108ed60355490565b905080156108be57604051635a69be9d60e01b815260ca6004820152600060248201526108b990829073__$e69b62c1cd9e88f96bb775811e046ce5a9$__90635a69be9d90604401602060405180830381865af4158015610952573d6000803e3d6000fd5b505050506040513d601f19601f8201168201806040525081019061097691906154d3565b85919061390f565b60ed5460408051630d43254f60e31b815290516000926001600160a01b031691636a192a789160048083019260209291908290030181865afa1580156109c8573d6000803e3d6000fd5b505050506040513d601f19601f820116820180604052508101906109ec9190615537565b9050600060ca60230160009054906101000a90046001600160a01b03166001600160a01b0316630ce4018a6040518163ffffffff1660e01b8152600401602060405180830381865afa158015610a46573d6000803e3d6000fd5b505050506040513d601f19601f82011682018060405250810190610a6a9190615537565b604051637aeceb1f60e11b81523060048201526001600160a01b03848116602483015291925060009183169063f5d9d63e90604401602060405180830381865afa158015610abc573d6000803e3d6000fd5b505050506040513d601f19601f82011682018060405250810190610ae091906154d3565b60ed5460405163185b800160e11b815260006004820181905260248201819052600160448301819052606483018190526084830181905260a483015260c48201529192506001600160a01b0316906330b700029060e401600060405180830381600087803b158015610b5157600080fd5b505af1158015610b65573d6000803e3d6000fd5b5050604051637aeceb1f60e11b81523060048201526001600160a01b0386811660248301526000935084925085169063f5d9d63e90604401602060405180830381865afa158015610bba573d6000803e3d6000fd5b505050506040513d601f19601f82011682018060405250810190610bde91906154d3565b610be8919061556a565b60ca54909150610bfc9082906127106137cc565b60d08054600090610c0e908490615581565b909155505060d25460cf5460e9546040516370a0823160e01b815230600482015260009392916001600160a01b0316906370a0823190602401602060405180830381865afa158015610c64573d6000803e3d6000fd5b505050506040513d601f19601f82011682018060405250810190610c8891906154d3565b610c92919061556a565b610c9c919061556a565b60d35490915081111561115b5760ca5460009061271090610cbd9084615599565b610cc791906155b8565b90508060ca6005016000828254610cde9190615581565b9091555060009050610cf0828461556a565b90506000610d89826c0c9f2c9cd04674edea4000000060ca60020160009054906101000a90046001600160a01b03166001600160a01b031663e3696edd6040518163ffffffff1660e01b81526004016020604051808303816000875af1158015610d5e573d6000803e3d6000fd5b505050506040513d601f19601f82011682018060405250810190610d8291906154d3565b91906137cc565b90506000610d97828461556a565b905060008260ca60080154610dac9190615581565b60eb5460e9546040516340d3096b60e11b81526001600160a01b0391821660048201529293506000929116906381a612d690602401602060405180830381865afa158015610dfe573d6000803e3d6000fd5b505050506040513d601f19601f82011682018060405250810190610e2291906154d3565b60e254909150600090610e7590610e4690600160b01b900461ffff166127106155da565b610e549061ffff1684615599565b610e6d6127106c0c9f2c9cd04674edea40000000615599565b8691906137cc565b9050610e9a610e866012600a6156e1565b610e926012600a6156e1565b8391906137cc565b60ee5460e954604051634ce3696f60e11b81526001600160a01b03918216600482015260248101889052604481018490529293506000929116906399c6d2de906064016020604051808303816000875af1158015610efc573d6000803e3d6000fd5b505050506040513d601f19601f82011682018060405250810190610f2091906154d3565b60d3549091508411156110f25760e254600090610fdf90610f4e90600160b01b900461ffff166127106155da565b610f5c9061ffff1687615599565b610f756c0c9f2c9cd04674edea40000000612710615599565b60e95460405163439c755d60e11b815260ca60048201526001600160a01b0390911660248201526001604482015273__$e69b62c1cd9e88f96bb775811e046ce5a9$__90638738eaba90606401602060405180830381865af4158015610d5e573d6000803e3d6000fd5b60e954604051631c9862ab60e21b81526001600160a01b0390911660048201526024810187905260448101829052909150600090819073__$f09208ef53137b379b85ea4a8d399069d8$__906372618aac906064016040805180830381865af4158015611050573d6000803e3d6000fd5b505050506040513d601f19601f8201168201806040525081019061107491906156ed565b60e754919350915061108f906001600160a01b03168361393d565b600060d255604080518d8152602081018f9052908101899052606081018a90526080810185905260a081018390527f158c029cea1e3fee2bbf8bd978c70589b9698ea9c382e6ce92bb481622a06db49060c00160405180910390a150505061114e565b60d2849055604080518a8152602081018c90529081018690526060810187905260808101829052600060a08201527f158c029cea1e3fee2bbf8bd978c70589b9698ea9c382e6ce92bb481622a06db49060c00160405180910390a15b50505050505050506111b1565b60408051828152602081018490526000818301819052606082018190526080820181905260a082015290517f158c029cea1e3fee2bbf8bd978c70589b9698ea9c382e6ce92bb481622a06db49181900360c00190a15b5050505050565b6111c06139b5565b60d8805461ffff9092166d0100000000000000000000000000026effff000000000000000000000000001963ffffffff909416690100000000000000000002939093166effffffffffff0000000000000000001990921691909117919091179055565b61122b6139b5565b60ed5460408051633671df2560e01b815290516000926001600160a01b031691633671df259160048083019260209291908290030181865afa158015611275573d6000803e3d6000fd5b505050506040513d601f19601f820116820180604052508101906112999190615537565b6001600160a01b0316634e71d92d6040518163ffffffff1660e01b81526004016020604051808303816000875af11580156112d8573d6000803e3d6000fd5b505050506040513d601f19601f820116820180604052508101906112fc91906154d3565b60cd5460ed54604080516331e67c7160e01b81529051939450611387936001600160a01b0393841693869316916331e67c719160048083019260209291908290030181865afa158015611353573d6000803e3d6000fd5b505050506040513d601f19601f820116820180604052508101906113779190615537565b6001600160a01b03169190613a0f565b50565b600033611398858285613a77565b6113a3858585613b09565b506001949350505050565b3360008181526034602090815260408083206001600160a01b03871684529091528120549091906108d590829086906113e8908790615581565b6137eb565b60ec5460405163019c8a3b60e11b81526000600482018190529182916001600160a01b0390911690630339147690602401602060405180830381865afa15801561143b573d6000803e3d6000fd5b505050506040513d601f19601f8201168201806040525081019061145f91906154d3565b9050600060ca601c0160009054906101000a90046001600160a01b03166001600160a01b03166318160ddd6040518163ffffffff1660e01b8152600401602060405180830381865afa1580156114b9573d6000803e3d6000fd5b505050506040513d601f19601f820116820180604052508101906114dd91906154d3565b9050611503600160801b6114fb8369d3c21bcecceda1000000615599565b8491906137cc565b9250505090565b6115126139b5565b61151a613cd7565b565b604051635a69be9d60e01b815260ca60048201526001602482015260009073__$e69b62c1cd9e88f96bb775811e046ce5a9$__90635a69be9d90604401602060405180830381865af4158015611576573d6000803e3d6000fd5b505050506040513d601f19601f8201168201806040525081019061159a91906154d3565b60d6546108db919061556a565b60cf8054600090915560e95460cd5460405163a9059cbb60e01b81526001600160a01b0391821660048201526024810184905291169063a9059cbb906044016020604051808303816000875af1158015611605573d6000803e3d6000fd5b505050506040513d601f19601f820116820180604052508101906116299190615711565b506040518181527f9800e6f57aeb4360eaa72295a820a4293e1e66fbfcabcd8874ae141304a76deb906020015b60405180910390a150565b60006108db8261081e565b60006108db61167b6000613318565b83906c0c9f2c9cd04674edea400000006137cc565b6116986139b5565b60e080546001600160a01b039586166001600160a01b03199182161790915560df80549486169482169490941790935560e19190915560e28054919093169116179055565b6116e56139b5565b60ed5460408051633671df2560e01b815290516001600160a01b0390921691633671df25916004808201926020929091908290030181865afa15801561172f573d6000803e3d6000fd5b505050506040513d601f19601f820116820180604052508101906117539190615537565b6001600160a01b0316633ccfd60b6040518163ffffffff1660e01b8152600401600060405180830381600087803b15801561178d57600080fd5b505af11580156117a1573d6000803e3d6000fd5b505060ed5460408051630d43254f60e31b81529051600094506001600160a01b039092169250636a192a789160048083019260209291908290030181865afa1580156117f1573d6000803e3d6000fd5b505050506040513d601f19601f820116820180604052508101906118159190615537565b6040516370a0823160e01b81523060048201526001600160a01b0391909116906370a0823190602401602060405180830381865afa15801561185b573d6000803e3d6000fd5b505050506040513d601f19601f8201168201806040525081019061187f91906154d3565b60ed54604051633be3166560e21b8152600481018390529192506001600160a01b03169063ef8c599490602401600060405180830381600087803b1580156118c657600080fd5b505af11580156118da573d6000803e3d6000fd5b505050508060ca60060160008282546118f39190615581565b909155505050565b6000611905613d29565b61190d613d6f565b6108c08383613eeb565b600054610100900460ff16158080156119375750600054600160ff909116105b806119515750303b158015611951575060005460ff166001145b6119b95760405162461bcd60e51b815260206004820152602e60248201527f496e697469616c697a61626c653a20636f6e747261637420697320616c72656160448201526d191e481a5b9a5d1a585b1a5e995960921b60648201526084015b60405180910390fd5b6000805460ff1916600117905580156119dc576000805461ff0019166101001790555b6119e4613fa6565b6119ec613fd5565b611a6f6119ff6060850160408601614f4c565b8a8a8080601f01602080910402602001604051908101604052809392919081815260200183838082843760009201919091525050604080516020601f8e018190048102820181019092528c815292508c91508b908190840183828082843760009201919091525061400492505050565b611a7c6020840184614f4c565b60e980546001600160a01b0319166001600160a01b0392909216919091179055611aac6040840160208501614f4c565b60ea80546001600160a01b0319166001600160a01b0392909216919091179055611adc6080840160608501614f4c565b60e780546001600160a01b0319166001600160a01b0392909216919091179055611b0c60a0840160808501614f4c565b60e880546001600160a01b03199081166001600160a01b039384161790915560df8054821688841617905560ed8054821687841617905560db805490911684831617905560655460408051633c5103f760e11b8152905191909216916378a207ee9160048281019260209291908290030181865afa158015611b92573d6000803e3d6000fd5b505050506040513d601f19601f82011682018060405250810190611bb69190615537565b60e680546001600160a01b0319166001600160a01b0392831617905560655460408051633e9b6c6f60e21b81529051919092169163fa6db1bc9160048083019260209291908290030181865afa158015611c14573d6000803e3d6000fd5b505050506040513d601f19601f82011682018060405250810190611c389190615537565b60ec80546001600160a01b0319166001600160a01b039283161790556065546040805162af394d60e81b81529051919092169163af394d009160048083019260209291908290030181865afa158015611c95573d6000803e3d6000fd5b505050506040513d601f19601f82011682018060405250810190611cb99190615537565b60e480546001600160a01b0319166001600160a01b0392831617905560ec546040805163fbfa77cf60e01b81529051919092169163fbfa77cf9160048083019260209291908290030181865afa158015611d17573d6000803e3d6000fd5b505050506040513d601f19601f82011682018060405250810190611d3b9190615537565b60eb80546001600160a01b0319166001600160a01b0392831617905560db546040805163026b1d5f60e01b81529051919092169163026b1d5f9160048083019260209291908290030181865afa158015611d99573d6000803e3d6000fd5b505050506040513d601f19601f82011682018060405250810190611dbd9190615537565b60d980546001600160a01b0319166001600160a01b0392831617905560db5460408051631f94a27560e31b81529051919092169163fca513a89160048083019260209291908290030181865afa158015611e1b573d6000803e3d6000fd5b505050506040513d601f19601f82011682018060405250810190611e3f9190615537565b60da80546001600160a01b0319166001600160a01b0392831617905560d95460e7546040516335ea6a7560e01b815290831660048201529116906335ea6a75906024016101e060405180830381865afa158015611ea0573d6000803e3d6000fd5b505050506040513d601f19601f82011682018060405250810190611ec491906157b0565b610100015160dc80546001600160a01b0319166001600160a01b0392831617905560d95460ea546040516335ea6a7560e01b815290831660048201529116906335ea6a75906024016101e060405180830381865afa158015611f2a573d6000803e3d6000fd5b505050506040513d601f19601f82011682018060405250810190611f4e91906157b0565b610140015160dd80546001600160a01b0319166001600160a01b0392831617905560d95460e9546040516335ea6a7560e01b815290831660048201529116906335ea6a75906024016101e060405180830381865afa158015611fb4573d6000803e3d6000fd5b505050506040513d601f19601f82011682018060405250810190611fd891906157b0565b610140015160de80546001600160a01b0319166001600160a01b039092169190911790558015612042576000805461ff0019169055604051600181527f7f26b83ff96e1f2b6a682f133852f6798a09c465da95921460cefb38474024989060200160405180910390a15b505050505050505050565b6120556139b5565b61151a6000614032565b60cb546001600160a01b0316331461209f5760cb546040516329b7946d60e01b81523360048201526001600160a01b0390911660248201526044016119b0565b6120a761318f565b6120c45760405163a039e79960e01b815260040160405180910390fd5b6120cc61097e565b6040516321b16f2160e11b815260ca6004820152600090819073__$e69b62c1cd9e88f96bb775811e046ce5a9$__90634362de42906024016040805180830381865af4158015612120573d6000803e3d6000fd5b505050506040513d601f19601f8201168201806040525081019061214491906156ed565b604051633e72ca6960e11b815260ca60048201526024810183905260448101829052919350915060009073__$e69b62c1cd9e88f96bb775811e046ce5a9$__90637ce594d290606401602060405180830381865af41580156121aa573d6000803e3d6000fd5b505050506040513d601f19601f820116820180604052508101906121ce91906154d3565b604051638684b69760e01b815260ca60048201526024810182905290915073__$e69b62c1cd9e88f96bb775811e046ce5a9$__90638684b6979060440160006040518083038186803b15801561222357600080fd5b505af4158015612237573d6000803e3d6000fd5b5050505060ca73__$e69b62c1cd9e88f96bb775811e046ce5a9$__633cb6767590918585612263610710565b6040516001600160e01b031960e087901b168152600481019490945260248401929092526044830152606482015260840160006040518083038186803b1580156122ac57600080fd5b505af41580156122c0573d6000803e3d6000fd5b505060d8805468ffffffffffffffff0019166101004267ffffffffffffffff160217905550506040517fc741dbaad15a4f298fe8d80943fa8e005e7bcb2f5b0a0c8dec1fc35be457f14690600090a1505050565b61231c6139b5565b60cb80546001600160a01b03199081166001600160a01b039788161790915560cc805482169587169590951790945560d69290925560ee8054909316931692909217905560ce55565b61236d6139b5565b61151a614084565b6040516321b16f2160e11b815260ca60048201526000908190819073__$e69b62c1cd9e88f96bb775811e046ce5a9$__90634362de42906024016040805180830381865af41580156123cb573d6000803e3d6000fd5b505050506040513d601f19601f820116820180604052508101906123ef91906156ed565b604051633e72ca6960e11b815260ca60048201526024810183905260448101829052919350915060009073__$e69b62c1cd9e88f96bb775811e046ce5a9$__90637ce594d290606401602060405180830381865af4158015612455573d6000803e3d6000fd5b505050506040513d601f19601f8201168201806040525081019061247991906154d3565b9050600060ca60240160009054906101000a90046001600160a01b03166001600160a01b031663584150756040518163ffffffff1660e01b8152600401602060405180830381865afa1580156124d3573d6000803e3d6000fd5b505050506040513d601f19601f820116820180604052508101906124f791906154d3565b60e4546040516370a0823160e01b81523060048201526001600160a01b03909116906370a0823190602401602060405180830381865afa15801561253f573d6000803e3d6000fd5b505050506040513d601f19601f8201168201806040525081019061256391906154d3565b61256d9190615581565b9050612578826140c1565b60d154612584906140c1565b60d7546125986125938561166c565b6140c1565b6125a291906158d3565b6125ac91906158d3565b6125b69190615914565b94505050505090565b60006125c9613d29565b6125d1613d6f565b6108c08383614105565b6125e36139b5565b60ed5460d0546040516364f6446760e01b81526001600160a01b03909216916364f64467916126189160040190815260200190565b600060405180830381600087803b15801561263257600080fd5b505af1158015612646573d6000803e3d6000fd5b505060ed5460408051633671df2560e01b815290516001600160a01b039092169350633671df2592506004808201926020929091908290030181865afa158015612694573d6000803e3d6000fd5b505050506040513d601f19601f820116820180604052508101906126b89190615537565b60d05460405163b6b55f2560e01b81526001600160a01b03929092169163b6b55f25916126eb9160040190815260200190565b600060405180830381600087803b15801561270557600080fd5b505af1158015612719573d6000803e3d6000fd5b5050600060d0555050565b60606037805461079b906154ec565b600061274360ca600701546140c1565b60d75460dc546040516370a0823160e01b81523060048201526127b4916001600160a01b0316906370a0823190602401602060405180830381865afa158015612790573d6000803e3d6000fd5b505050506040513d601f19601f8201168201806040525081019061259391906154d3565b6127be9190615914565b6107879190615914565b3360008181526034602090815260408083206001600160a01b03871684529091528120549091908381101561284d5760405162461bcd60e51b815260206004820152602560248201527f45524332303a2064656372656173656420616c6c6f77616e63652062656c6f77604482015264207a65726f60d81b60648201526084016119b0565b6113a382868684036137eb565b6000336108d5818585613b09565b6128706139b5565b60e2805463ffffffff60a01b1916600160b01b61ffff9889160261ffff60a01b191617600160a01b96909716959095029590951790935560e380547fffffffffffff0000000000000000000000000000000000000000000000000000166001600160d01b03939093169290921790915560d39190915560d49190915560d555565b6000806128fd60355490565b905080156108be57604051635a69be9d60e01b815260ca6004820152600160248201526108b99073__$e69b62c1cd9e88f96bb775811e046ce5a9$__90635a69be9d90604401602060405180830381865af4158015612960573d6000803e3d6000fd5b505050506040513d601f19601f8201168201806040525081019061298491906154d3565b84908361390f565b6000612996613d29565b61299e613d6f565b6129a7846108e1565b9050336001600160a01b038316146129f7576001600160a01b038216600090815260346020908152604080832033845290915290205460001981146129f5576129f583336113e8858561556a565b505b60ce54600090612a1790612a0d9061271061556a565b86906127106137cc565b9050612a24818386614186565b612a2e8383614291565b60408051828152602081018490526001600160a01b03808616929087169133917ffbde797d201c681b91056529119e0b02407c7bb96a4a2c75c01fc9667232c8db91015b60405180910390a4606554612a91906001600160a01b03168583613a0f565b509392505050565b6000612aa3613d29565b612aab613d6f565b336001600160a01b03831614612af9576001600160a01b03821660009081526034602090815260408083203384529091529020546000198114612af757612af783336113e8888561556a565b505b612b0284611661565b905080612b3f5760405162461bcd60e51b815260206004820152600b60248201526a5a45524f5f41535345545360a81b60448201526064016119b0565b60ce54600090612b5f90612b559061271061556a565b83906127106137cc565b9050612b6c818686614186565b612b768386614291565b60408051828152602081018790526001600160a01b03808616929087169133917ffbde797d201c681b91056529119e0b02407c7bb96a4a2c75c01fc9667232c8db9101612a72565b612bc66139b5565b60d95460df5460ea5460405163095ea7b360e01b81526001600160a01b0393841660048201819052600019602483015293928316929091169063095ea7b3906044016020604051808303816000875af1158015612c27573d6000803e3d6000fd5b505050506040513d601f19601f82011682018060405250810190612c4b9190615711565b5060ea5460405163095ea7b360e01b81526001600160a01b03838116600483015260001960248301529091169063095ea7b3906044016020604051808303816000875af1158015612ca0573d6000803e3d6000fd5b505050506040513d601f19601f82011682018060405250810190612cc49190615711565b5060e95460405163095ea7b360e01b81526001600160a01b03848116600483015260001960248301529091169063095ea7b3906044016020604051808303816000875af1158015612d19573d6000803e3d6000fd5b505050506040513d601f19601f82011682018060405250810190612d3d9190615711565b5060e95460405163095ea7b360e01b81526001600160a01b03838116600483015260001960248301529091169063095ea7b3906044016020604051808303816000875af1158015612d92573d6000803e3d6000fd5b505050506040513d601f19601f82011682018060405250810190612db69190615711565b5060e95460ee5460405163095ea7b360e01b81526001600160a01b039182166004820152600019602482015291169063095ea7b3906044016020604051808303816000875af1158015612e0d573d6000803e3d6000fd5b505050506040513d601f19601f82011682018060405250810190612e319190615711565b5060e75460405163095ea7b360e01b81526001600160a01b03848116600483015260001960248301529091169063095ea7b3906044016020604051808303816000875af1158015612e86573d6000803e3d6000fd5b505050506040513d601f19601f82011682018060405250810190612eaa9190615711565b5060e75460405163095ea7b360e01b81526001600160a01b03838116600483015260001960248301529091169063095ea7b3906044016020604051808303816000875af1158015612eff573d6000803e3d6000fd5b505050506040513d601f19601f82011682018060405250810190612f239190615711565b5060e75460ee5460405163095ea7b360e01b81526001600160a01b039182166004820152600019602482015291169063095ea7b3906044016020604051808303816000875af1158015612f7a573d6000803e3d6000fd5b505050506040513d601f19601f82011682018060405250810190612f9e9190615711565b5060dc5460cc5460405163095ea7b360e01b81526001600160a01b039182166004820152600019602482015291169063095ea7b3906044016020604051808303816000875af1158015612ff5573d6000803e3d6000fd5b505050506040513d601f19601f820116820180604052508101906130199190615711565b5060655460ec5460405163095ea7b360e01b81526001600160a01b039182166004820152600019602482015291169063095ea7b3906044016020604051808303816000875af1158015613070573d6000803e3d6000fd5b505050506040513d601f19601f820116820180604052508101906130949190615711565b506040517fba5bb3f899c7a3edcc9ff9d46c4e08449c6a608b6f8254132bc5af4898645cbc90600090a15050565b60006108db61063d8361151c565b6000806130dc60355490565b905080156108be57604051635a69be9d60e01b815260ca6004820152600160248201526108b990829073__$e69b62c1cd9e88f96bb775811e046ce5a9$__90635a69be9d90604401602060405180830381865af4158015613141573d6000803e3d6000fd5b505050506040513d601f19601f8201168201806040525081019061316591906154d3565b8591906137cc565b6001600160a01b0381166000908152603360205260408120546108db9061081e565b604051630d0d70b960e11b815260ca600482015260009073__$e69b62c1cd9e88f96bb775811e046ce5a9$__90631a1ae17290602401602060405180830381865af41580156131e2573d6000803e3d6000fd5b505050506040513d601f19601f820116820180604052508101906132069190615711565b806132805750604051633925aae560e21b815260ca600482015273__$e69b62c1cd9e88f96bb775811e046ce5a9$__9063e496ab9490602401602060405180830381865af415801561325c573d6000803e3d6000fd5b505050506040513d601f19601f820116820180604052508101906132809190615711565b8061078757506040516355b51a6d60e01b815260ca600482015273__$e69b62c1cd9e88f96bb775811e046ce5a9$__906355b51a6d90602401602060405180830381865af41580156132d6573d6000803e3d6000fd5b505050506040513d601f19601f820116820180604052508101906107879190615711565b6001600160a01b0381166000908152603360205260408120546108db565b60ec5460405163019c8a3b60e11b8152821515600482015260009182916001600160a01b0390911690630339147690602401602060405180830381865afa158015613367573d6000803e3d6000fd5b505050506040513d601f19601f8201168201806040525081019061338b91906154d3565b9050600060ca601c0160009054906101000a90046001600160a01b03166001600160a01b03166318160ddd6040518163ffffffff1660e01b8152600401602060405180830381865afa1580156133e5573d6000803e3d6000fd5b505050506040513d601f19601f8201168201806040525081019061340991906154d3565b90506134306c0c9f2c9cd04674edea400000006114fb8369d3c21bcecceda1000000615599565b949350505050565b6134406139b5565b60cd546001600160a01b038281169116146134755760cd80546001600160a01b0319166001600160a01b03831617905561348e565b604051630ed1b8b360e31b815260040160405180910390fd5b6040516001600160a01b03821681527f7a7b5a0a132f9e0581eb8527f66eae9ee89c2a3e79d4ac7e41a1f1f4d48a7fc290602001611656565b60006108db826130d0565b60e0546001600160a01b031633146134fd5760405163f4a8e62160e01b815260040160405180910390fd5b60d85460ff1661352057604051637869c16160e11b815260040160405180910390fd5b6000806000806000808680602001905181019061353d9190615953565b9550955095509550955095506000808380156135565750825b156135d3576135a4878c600081518110613572576135726159b2565b60200260200101518c60008151811061358d5761358d6159b2565b60200260200101516137cc9092919063ffffffff16565b9150818a6000815181106135ba576135ba6159b2565b60200260200101516135cc919061556a565b905061370a565b87158015906135e157508515155b156136c4576000846136265760ea548d516001600160a01b03909116908e9060009061360f5761360f6159b2565b60200260200101516001600160a01b03161461365b565b60e7548d516001600160a01b03909116908e90600090613648576136486159b2565b60200260200101516001600160a01b0316145b15613664575060015b8a81613671576001613674565b60005b60ff1681518110613687576136876159b2565b602002602001015192508a8161369e5760006136a1565b60015b60ff16815181106136b4576136b46159b2565b602002602001015191505061370a565b87156136ec57896000815181106136dd576136dd6159b2565b6020026020010151915061370a565b896000815181106136ff576136ff6159b2565b602002602001015190505b87156137295760ea54613729906001600160a01b0316898985886143df565b85156137485760e954613748906001600160a01b0316878784876143df565b505050505050505050505050565b61375e6139b5565b6001600160a01b0381166137c35760405162461bcd60e51b815260206004820152602660248201527f4f776e61626c653a206e6577206f776e657220697320746865207a65726f206160448201526564647265737360d01b60648201526084016119b0565b61138781614032565b8282028115158415858304851417166137e457600080fd5b0492915050565b6001600160a01b03831661384d5760405162461bcd60e51b8152602060048201526024808201527f45524332303a20617070726f76652066726f6d20746865207a65726f206164646044820152637265737360e01b60648201526084016119b0565b6001600160a01b0382166138ae5760405162461bcd60e51b815260206004820152602260248201527f45524332303a20617070726f766520746f20746865207a65726f206164647265604482015261737360f01b60648201526084016119b0565b6001600160a01b0383811660008181526034602090815260408083209487168084529482529182902085905590518481527f8c5be1e5ebec7d5bd14f71427d1e84f3dd0314c0f7b2291e5b200ac8c7c3b925910160405180910390a3505050565b82820281151584158583048514171661392757600080fd5b6001826001830304018115150290509392505050565b60d95460405163617ba03760e01b81526001600160a01b03848116600483015260248201849052306044830152600060648301529091169063617ba037906084015b600060405180830381600087803b15801561399957600080fd5b505af11580156139ad573d6000803e3d6000fd5b505050505050565b6066546001600160a01b0316331461151a5760405162461bcd60e51b815260206004820181905260248201527f4f776e61626c653a2063616c6c6572206973206e6f7420746865206f776e657260448201526064016119b0565b6040516001600160a01b038316602482015260448101829052613a7290849063a9059cbb60e01b906064015b60408051601f198184030181529190526020810180516001600160e01b03166001600160e01b0319909316929092179091526146bc565b505050565b6001600160a01b038381166000908152603460209081526040808320938616835292905220546000198114613b035781811015613af65760405162461bcd60e51b815260206004820152601d60248201527f45524332303a20696e73756666696369656e7420616c6c6f77616e636500000060448201526064016119b0565b613b0384848484036137eb565b50505050565b6001600160a01b038316613b6d5760405162461bcd60e51b815260206004820152602560248201527f45524332303a207472616e736665722066726f6d20746865207a65726f206164604482015264647265737360d81b60648201526084016119b0565b6001600160a01b038216613bcf5760405162461bcd60e51b815260206004820152602360248201527f45524332303a207472616e7366657220746f20746865207a65726f206164647260448201526265737360e81b60648201526084016119b0565b6001600160a01b03831660009081526033602052604090205481811015613c475760405162461bcd60e51b815260206004820152602660248201527f45524332303a207472616e7366657220616d6f756e7420657863656564732062604482015265616c616e636560d01b60648201526084016119b0565b6001600160a01b03808516600090815260336020526040808220858503905591851681529081208054849290613c7e908490615581565b92505081905550826001600160a01b0316846001600160a01b03167fddf252ad1be2c89b69c2b068fc378daa952ba7f163c4a11628f55a4df523b3ef84604051613cca91815260200190565b60405180910390a3613b03565b613cdf61478e565b6098805460ff191690557f5db9ee0a495bf2e6ff9c91a7834c1ba4fdd244a5e8aa4e537bd38aeae4b073aa335b6040516001600160a01b03909116815260200160405180910390a1565b60985460ff161561151a5760405162461bcd60e51b815260206004820152601060248201526f14185d5cd8589b194e881c185d5cd95960821b60448201526064016119b0565b613d7761097e565b6040516321b16f2160e11b815260ca6004820152600090819073__$e69b62c1cd9e88f96bb775811e046ce5a9$__90634362de42906024016040805180830381865af4158015613dcb573d6000803e3d6000fd5b505050506040513d601f19601f82011682018060405250810190613def91906156ed565b604051633e72ca6960e11b815260ca60048201526024810183905260448101829052919350915060009073__$e69b62c1cd9e88f96bb775811e046ce5a9$__90637ce594d290606401602060405180830381865af4158015613e55573d6000803e3d6000fd5b505050506040513d601f19601f82011682018060405250810190613e7991906154d3565b604051638684b69760e01b815260ca60048201526024810182905290915073__$e69b62c1cd9e88f96bb775811e046ce5a9$__90638684b6979060440160006040518083038186803b158015613ece57600080fd5b505af4158015613ee2573d6000803e3d6000fd5b50505050505050565b6000613ef6836134c7565b905080613f335760405162461bcd60e51b815260206004820152600b60248201526a5a45524f5f53484152455360a81b60448201526064016119b0565b606554613f4b906001600160a01b03163330866147e0565b613f558282614818565b60408051848152602081018390526001600160a01b0384169133917fdcbc1c05240f31ff3ad067ef1ee35ce4997762752e3a095284754544f4c709d7910160405180910390a36108db8382846148f8565b600054610100900460ff16613fcd5760405162461bcd60e51b81526004016119b0906159c8565b61151a6149c5565b600054610100900460ff16613ffc5760405162461bcd60e51b81526004016119b0906159c8565b61151a6149f5565b61400e8282614a28565b5050606580546001600160a01b0319166001600160a01b0392909216919091179055565b606680546001600160a01b038381166001600160a01b0319831681179093556040519116919082907f8be0079c531659141344cd1fd0a4f28419497f9722a3daafe3b4186f6b6457e090600090a35050565b61408c613d29565b6098805460ff191660011790557f62e78cea01bee320cd4e420270b5ea74000d11b0c9f74754ebdbfc544b05a258613d0c3390565b6000600160ff1b82106141015760405162461bcd60e51b81526020600482015260086024820152674f766572666c6f7760c01b60448201526064016119b0565b5090565b6000614110836128f1565b60655490915061412b906001600160a01b03163330846147e0565b6141358284614818565b60408051828152602081018590526001600160a01b0384169133917fdcbc1c05240f31ff3ad067ef1ee35ce4997762752e3a095284754544f4c709d7910160405180910390a36108db8184846148f8565b6040516321b16f2160e11b815260ca6004820152600090819073__$e69b62c1cd9e88f96bb775811e046ce5a9$__90634362de42906024016040805180830381865af41580156141da573d6000803e3d6000fd5b505050506040513d601f19601f820116820180604052508101906141fe91906156ed565b909250905073__$e69b62c1cd9e88f96bb775811e046ce5a9$__633cb6767560ca84848961422a610710565b614234919061556a565b6040516001600160e01b031960e087901b168152600481019490945260248401929092526044830152606482015260840160006040518083038186803b15801561427d57600080fd5b505af4158015612042573d6000803e3d6000fd5b6001600160a01b0382166142f15760405162461bcd60e51b815260206004820152602160248201527f45524332303a206275726e2066726f6d20746865207a65726f206164647265736044820152607360f81b60648201526084016119b0565b6001600160a01b038216600090815260336020526040902054818110156143655760405162461bcd60e51b815260206004820152602260248201527f45524332303a206275726e20616d6f756e7420657863656564732062616c616e604482015261636560f01b60648201526084016119b0565b6001600160a01b038316600090815260336020526040812083830390556035805484929061439490849061556a565b90915550506040518281526000906001600160a01b038516907fddf252ad1be2c89b69c2b068fc378daa952ba7f163c4a11628f55a4df523b3ef9060200160405180910390a3505050565b806145475760006143f08386615581565b604051631c9862ab60e21b81526001600160a01b03881660048201526024810187905260448101869052909150600090819073__$f09208ef53137b379b85ea4a8d399069d8$__906372618aac906064016040805180830381865af415801561445d573d6000803e3d6000fd5b505050506040513d601f19601f8201168201806040525081019061448191906156ed565b60e754919350915061449c906001600160a01b03168361393d565b6144a68884614a59565b60e05460405163a9059cbb60e01b81526001600160a01b039182166004820152602481018590529089169063a9059cbb906044016020604051808303816000875af11580156144f9573d6000803e3d6000fd5b505050506040513d601f19601f8201168201806040525081019061451d9190615711565b50614527826140c1565b60d780546000906145399084906158d3565b909155506111b19350505050565b604051632ea82dd560e21b81526001600160a01b03861660048201526024810185905260448101849052600090819073__$f09208ef53137b379b85ea4a8d399069d8$__9063baa0b754906064016040805180830381865af41580156145b1573d6000803e3d6000fd5b505050506040513d601f19601f820116820180604052508101906145d591906156ed565b909250905060006145e68584615581565b90506145f1816140c1565b60d78054600090614603908490615914565b9091555061461390508883614aa6565b60e75461462a906001600160a01b03168230614b2a565b60e75460e0546001600160a01b039182169163a9059cbb911661464d888a615581565b6040516001600160e01b031960e085901b1681526001600160a01b03909216600483015260248201526044016020604051808303816000875af1158015614698573d6000803e3d6000fd5b505050506040513d601f19601f820116820180604052508101906120429190615711565b6000614711826040518060400160405280602081526020017f5361666545524332303a206c6f772d6c6576656c2063616c6c206661696c6564815250856001600160a01b0316614ba99092919063ffffffff16565b805190915015613a72578080602001905181019061472f9190615711565b613a725760405162461bcd60e51b815260206004820152602a60248201527f5361666545524332303a204552433230206f7065726174696f6e20646964206e6044820152691bdd081cdd58d8d9595960b21b60648201526084016119b0565b60985460ff1661151a5760405162461bcd60e51b815260206004820152601460248201527f5061757361626c653a206e6f742070617573656400000000000000000000000060448201526064016119b0565b6040516001600160a01b0380851660248301528316604482015260648101829052613b039085906323b872dd60e01b90608401613a3b565b6001600160a01b03821661486e5760405162461bcd60e51b815260206004820152601f60248201527f45524332303a206d696e7420746f20746865207a65726f20616464726573730060448201526064016119b0565b80603560008282546148809190615581565b90915550506001600160a01b038216600090815260336020526040812080548392906148ad908490615581565b90915550506040518181526001600160a01b038316906000907fddf252ad1be2c89b69c2b068fc378daa952ba7f163c4a11628f55a4df523b3ef9060200160405180910390a35b5050565b60d654614903610710565b1115614922576040516324d758c360e21b815260040160405180910390fd5b6040516321b16f2160e11b815260ca6004820152600090819073__$e69b62c1cd9e88f96bb775811e046ce5a9$__90634362de42906024016040805180830381865af4158015614976573d6000803e3d6000fd5b505050506040513d601f19601f8201168201806040525081019061499a91906156ed565b909250905073__$e69b62c1cd9e88f96bb775811e046ce5a9$__633cb6767560ca8484614234610710565b600054610100900460ff166149ec5760405162461bcd60e51b81526004016119b0906159c8565b61151a33614032565b600054610100900460ff16614a1c5760405162461bcd60e51b81526004016119b0906159c8565b6098805460ff19169055565b600054610100900460ff16614a4f5760405162461bcd60e51b81526004016119b0906159c8565b6148f48282614bb8565b60d95460405163a415bcad60e01b81526001600160a01b0384811660048301526024820184905260026044830152600060648301523060848301529091169063a415bcad9060a40161397f565b60d95460405163573ade8160e01b81526001600160a01b03848116600483015260248201849052600260448301523060648301529091169063573ade81906084016020604051808303816000875af1158015614b06573d6000803e3d6000fd5b505050506040513d601f19601f82011682018060405250810190613a7291906154d3565b60d954604051631a4ca37b60e21b81526001600160a01b038581166004830152602482018590528381166044830152909116906369328dec906064016020604051808303816000875af1158015614b85573d6000803e3d6000fd5b505050506040513d601f19601f82011682018060405250810190613b0391906154d3565b60606134308484600085614c06565b600054610100900460ff16614bdf5760405162461bcd60e51b81526004016119b0906159c8565b8151614bf2906036906020850190614d70565b508051613a72906037906020840190614d70565b606082471015614c675760405162461bcd60e51b815260206004820152602660248201527f416464726573733a20696e73756666696369656e742062616c616e636520666f6044820152651c8818d85b1b60d21b60648201526084016119b0565b6001600160a01b0385163b614cbe5760405162461bcd60e51b815260206004820152601d60248201527f416464726573733a2063616c6c20746f206e6f6e2d636f6e747261637400000060448201526064016119b0565b600080866001600160a01b03168587604051614cda9190615a13565b60006040518083038185875af1925050503d8060008114614d17576040519150601f19603f3d011682016040523d82523d6000602084013e614d1c565b606091505b5091509150614d2c828286614d37565b979650505050505050565b60608315614d465750816108c0565b825115614d565782518084602001fd5b8160405162461bcd60e51b81526004016119b09190614e2c565b828054614d7c906154ec565b90600052602060002090601f016020900481019282614d9e5760008555614de4565b82601f10614db757805160ff1916838001178555614de4565b82800160010185558215614de4579182015b82811115614de4578251825591602001919060010190614dc9565b506141019291505b808211156141015760008155600101614dec565b60005b83811015614e1b578181015183820152602001614e03565b83811115613b035750506000910152565b6020815260008251806020840152614e4b816040850160208701614e00565b601f01601f19169190910160400192915050565b600060208284031215614e7157600080fd5b5035919050565b6001600160a01b038116811461138757600080fd5b60008060408385031215614ea057600080fd5b8235614eab81614e78565b946020939093013593505050565b61ffff8116811461138757600080fd5b60008060408385031215614edc57600080fd5b823563ffffffff81168114614ef057600080fd5b91506020830135614f0081614eb9565b809150509250929050565b600080600060608486031215614f2057600080fd5b8335614f2b81614e78565b92506020840135614f3b81614e78565b929592945050506040919091013590565b600060208284031215614f5e57600080fd5b81356108c081614e78565b60008060008060808587031215614f7f57600080fd5b8435614f8a81614e78565b93506020850135614f9a81614e78565b9250604085013591506060850135614fb181614e78565b939692955090935050565b60008060408385031215614fcf57600080fd5b823591506020830135614f0081614e78565b60008083601f840112614ff357600080fd5b50813567ffffffffffffffff81111561500b57600080fd5b60208301915083602082850101111561502357600080fd5b9250929050565b600080600080600080600080888a0361014081121561504857600080fd5b893567ffffffffffffffff8082111561506057600080fd5b61506c8d838e01614fe1565b909b50995060208c013591508082111561508557600080fd5b506150928c828d01614fe1565b90985096505060408a01356150a681614e78565b945060608a01356150b681614e78565b935060a0607f19820112156150ca57600080fd5b506080890191506101208901356150e081614e78565b809150509295985092959890939650565b600080600080600060a0868803121561510957600080fd5b853561511481614e78565b9450602086013561512481614e78565b935060408601359250606086013561513b81614e78565b949793965091946080013592915050565b60008060008060008060c0878903121561516557600080fd5b863561517081614eb9565b9550602087013561518081614eb9565b945060408701356001600160d01b038116811461519c57600080fd5b959894975094956060810135955060808101359460a0909101359350915050565b6000806000606084860312156151d257600080fd5b8335925060208401356151e481614e78565b915060408401356151f481614e78565b809150509250925092565b6000806040838503121561521257600080fd5b823561521d81614e78565b91506020830135614f0081614e78565b801515811461138757600080fd5b60006020828403121561524d57600080fd5b81356108c08161522d565b634e487b7160e01b600052604160045260246000fd5b6040516101e0810167ffffffffffffffff8111828210171561529257615292615258565b60405290565b604051601f8201601f1916810167ffffffffffffffff811182821017156152c1576152c1615258565b604052919050565b600067ffffffffffffffff8211156152e3576152e3615258565b5060051b60200190565b600082601f8301126152fe57600080fd5b8135602061531361530e836152c9565b615298565b82815260059290921b8401810191818101908684111561533257600080fd5b8286015b8481101561534d5780358352918301918301615336565b509695505050505050565b600082601f83011261536957600080fd5b813567ffffffffffffffff81111561538357615383615258565b615396601f8201601f1916602001615298565b8181528460208386010111156153ab57600080fd5b816020850160208301376000918101602001919091529392505050565b600080600080608085870312156153de57600080fd5b843567ffffffffffffffff808211156153f657600080fd5b818701915087601f83011261540a57600080fd5b8135602061541a61530e836152c9565b82815260059290921b8401810191818101908b84111561543957600080fd5b948201945b8386101561546057853561545181614e78565b8252948201949082019061543e565b9850508801359250508082111561547657600080fd5b615482888389016152ed565b9450604087013591508082111561549857600080fd5b6154a4888389016152ed565b935060608701359150808211156154ba57600080fd5b506154c787828801615358565b91505092959194509250565b6000602082840312156154e557600080fd5b5051919050565b600181811c9082168061550057607f821691505b6020821081141561552157634e487b7160e01b600052602260045260246000fd5b50919050565b805161553281614e78565b919050565b60006020828403121561554957600080fd5b81516108c081614e78565b634e487b7160e01b600052601160045260246000fd5b60008282101561557c5761557c615554565b500390565b6000821982111561559457615594615554565b500190565b60008160001904831182151516156155b3576155b3615554565b500290565b6000826155d557634e487b7160e01b600052601260045260246000fd5b500490565b600061ffff838116908316818110156155f5576155f5615554565b039392505050565b600181815b8085111561563857816000190482111561561e5761561e615554565b8085161561562b57918102915b93841c9390800290615602565b509250929050565b60008261564f575060016108db565b8161565c575060006108db565b8160018114615672576002811461567c57615698565b60019150506108db565b60ff84111561568d5761568d615554565b50506001821b6108db565b5060208310610133831016604e8410600b84101617156156bb575081810a6108db565b6156c583836155fd565b80600019048211156156d9576156d9615554565b029392505050565b60006108c08383615640565b6000806040838503121561570057600080fd5b505080516020909101519092909150565b60006020828403121561572357600080fd5b81516108c08161522d565b60006020828403121561574057600080fd5b6040516020810181811067ffffffffffffffff8211171561576357615763615258565b6040529151825250919050565b80516fffffffffffffffffffffffffffffffff8116811461553257600080fd5b805164ffffffffff8116811461553257600080fd5b805161553281614eb9565b60006101e082840312156157c357600080fd5b6157cb61526e565b6157d5848461572e565b81526157e360208401615770565b60208201526157f460408401615770565b604082015261580560608401615770565b606082015261581660808401615770565b608082015261582760a08401615770565b60a082015261583860c08401615790565b60c082015261584960e084016157a5565b60e082015261010061585c818501615527565b9082015261012061586e848201615527565b90820152610140615880848201615527565b90820152610160615892848201615527565b908201526101806158a4848201615770565b908201526101a06158b6848201615770565b908201526101c06158c8848201615770565b908201529392505050565b600080821280156001600160ff1b03849003851316156158f5576158f5615554565b600160ff1b839003841281161561590e5761590e615554565b50500190565b60008083128015600160ff1b85018412161561593257615932615554565b6001600160ff1b038401831381161561594d5761594d615554565b50500390565b60008060008060008060c0878903121561596c57600080fd5b8651955060208701519450604087015193506060870151925060808701516159938161522d565b60a08801519092506159a48161522d565b809150509295509295509295565b634e487b7160e01b600052603260045260246000fd5b6020808252602b908201527f496e697469616c697a61626c653a20636f6e7472616374206973206e6f74206960408201526a6e697469616c697a696e6760a81b606082015260800190565b60008251615a25818460208701614e00565b919091019291505056fea164736f6c634300080a000a",
  "libraries": {
    "SwapManager": "0x23A4AbF9AcA2242Ca698AA839E72419Ae4b11024",
    "DnGmxJuniorVaultHelpers": "0x01759Fa78950D071E606C8C25eB0cD34e4D40E7C"
  },
  "devdoc": {
    "kind": "dev",
    "methods": {
      "allowance(address,address)": {
        "details": "See {IERC20-allowance}."
      },
      "approve(address,uint256)": {
        "details": "See {IERC20-approve}. NOTE: If `amount` is the maximum `uint256`, the allowance is not updated on `transferFrom`. This is semantically equivalent to an infinite approval. Requirements: - `spender` cannot be the zero address."
      },
      "balanceOf(address)": {
        "details": "See {IERC20-balanceOf}."
      },
      "decimals()": {
        "details": "Returns the number of decimals used to get its user representation. For example, if `decimals` equals `2`, a balance of `505` tokens should be displayed to a user as `5.05` (`505 / 10 ** 2`). Tokens usually opt for a value of 18, imitating the relationship between Ether and Wei. This is the value {ERC20} uses, unless this function is overridden; NOTE: This information is only used for _display_ purposes: it in no way affects any of the arithmetic of the contract, including {IERC20-balanceOf} and {IERC20-transfer}."
      },
      "decreaseAllowance(address,uint256)": {
        "details": "Atomically decreases the allowance granted to `spender` by the caller. This is an alternative to {approve} that can be used as a mitigation for problems described in {IERC20-approve}. Emits an {Approval} event indicating the updated allowance. Requirements: - `spender` cannot be the zero address. - `spender` must have allowance for the caller of at least `subtractedValue`."
      },
      "increaseAllowance(address,uint256)": {
        "details": "Atomically increases the allowance granted to `spender` by the caller. This is an alternative to {approve} that can be used as a mitigation for problems described in {IERC20-approve}. Emits an {Approval} event indicating the updated allowance. Requirements: - `spender` cannot be the zero address."
      },
      "maxRedeem(address)": {
        "details": "Returns the maximum amount of Vault shares that can be redeemed from the owner balance in the Vault, through a redeem call. - MUST return a limited value if owner is subject to some withdrawal limit or timelock. - MUST return balanceOf(owner) if owner is not subject to any withdrawal limit or timelock. - MUST NOT revert."
      },
      "maxWithdraw(address)": {
        "details": "Returns the maximum amount of the underlying asset that can be withdrawn from the owner balance in the Vault, through a withdraw call. - MUST return a limited value if owner is subject to some withdrawal limit or timelock. - MUST NOT revert."
      },
      "name()": {
        "details": "Returns the name of the token."
      },
      "owner()": {
        "details": "Returns the address of the current owner."
      },
      "paused()": {
        "details": "Returns true if the contract is paused, and false otherwise."
      },
      "previewDeposit(uint256)": {
        "details": "Allows an on-chain or off-chain user to simulate the effects of their deposit at the current block, given current on-chain conditions. - MUST return as close to and no more than the exact amount of Vault shares that would be minted in a deposit   call in the same transaction. I.e. deposit should return the same or more shares as previewDeposit if called   in the same transaction. - MUST NOT account for deposit limits like those returned from maxDeposit and should always act as though the   deposit would be accepted, regardless if the user has enough tokens approved, etc. - MUST be inclusive of deposit fees. Integrators should be aware of the existence of deposit fees. - MUST NOT revert. NOTE: any unfavorable discrepancy between convertToShares and previewDeposit SHOULD be considered slippage in share price or some other type of condition, meaning the depositor will lose assets by depositing."
      },
      "previewRedeem(uint256)": {
        "details": "Allows an on-chain or off-chain user to simulate the effects of their redeemption at the current block, given current on-chain conditions. - MUST return as close to and no more than the exact amount of assets that would be withdrawn in a redeem call   in the same transaction. I.e. redeem should return the same or more assets as previewRedeem if called in the   same transaction. - MUST NOT account for redemption limits like those returned from maxRedeem and should always act as though the   redemption would be accepted, regardless if the user has enough shares, etc. - MUST be inclusive of withdrawal fees. Integrators should be aware of the existence of withdrawal fees. - MUST NOT revert. NOTE: any unfavorable discrepancy between convertToAssets and previewRedeem SHOULD be considered slippage in share price or some other type of condition, meaning the depositor will lose assets by redeeming."
      },
      "renounceOwnership()": {
        "details": "Leaves the contract without owner. It will not be possible to call `onlyOwner` functions anymore. Can only be called by the current owner. NOTE: Renouncing ownership will leave the contract without an owner, thereby removing any functionality that is only available to the owner."
      },
      "symbol()": {
        "details": "Returns the symbol of the token, usually a shorter version of the name."
      },
      "totalSupply()": {
        "details": "See {IERC20-totalSupply}."
      },
      "transfer(address,uint256)": {
        "details": "See {IERC20-transfer}. Requirements: - `to` cannot be the zero address. - the caller must have a balance of at least `amount`."
      },
      "transferFrom(address,address,uint256)": {
        "details": "See {IERC20-transferFrom}. Emits an {Approval} event indicating the updated allowance. This is not required by the EIP. See the note at the beginning of {ERC20}. NOTE: Does not update the allowance if the current allowance is the maximum `uint256`. Requirements: - `from` and `to` cannot be the zero address. - `from` must have a balance of at least `amount`. - the caller must have allowance for ``from``'s tokens of at least `amount`."
      },
      "transferOwnership(address)": {
        "details": "Transfers ownership of the contract to a new account (`newOwner`). Can only be called by the current owner."
      }
    },
    "version": 1
  },
  "userdoc": {
    "kind": "user",
    "methods": {
      "harvestFees()": {
        "notice": "stakes the rewards from the staked Glp and claims WETH to buy glp"
      },
      "withdrawFees()": {
        "notice": "withdraw accumulated WETH fees"
      }
    },
    "version": 1
  },
  "storageLayout": {
    "storage": [
      {
        "astId": 4084,
        "contract": "contracts/vaults/DnGmxJuniorVault.sol:DnGmxJuniorVault",
        "label": "_initialized",
        "offset": 0,
        "slot": "0",
        "type": "t_uint8"
      },
      {
        "astId": 4087,
        "contract": "contracts/vaults/DnGmxJuniorVault.sol:DnGmxJuniorVault",
        "label": "_initializing",
        "offset": 1,
        "slot": "0",
        "type": "t_bool"
      },
      {
        "astId": 5353,
        "contract": "contracts/vaults/DnGmxJuniorVault.sol:DnGmxJuniorVault",
        "label": "__gap",
        "offset": 0,
        "slot": "1",
        "type": "t_array(t_uint256)50_storage"
      },
      {
        "astId": 4374,
        "contract": "contracts/vaults/DnGmxJuniorVault.sol:DnGmxJuniorVault",
        "label": "_balances",
        "offset": 0,
        "slot": "51",
        "type": "t_mapping(t_address,t_uint256)"
      },
      {
        "astId": 4380,
        "contract": "contracts/vaults/DnGmxJuniorVault.sol:DnGmxJuniorVault",
        "label": "_allowances",
        "offset": 0,
        "slot": "52",
        "type": "t_mapping(t_address,t_mapping(t_address,t_uint256))"
      },
      {
        "astId": 4382,
        "contract": "contracts/vaults/DnGmxJuniorVault.sol:DnGmxJuniorVault",
        "label": "_totalSupply",
        "offset": 0,
        "slot": "53",
        "type": "t_uint256"
      },
      {
        "astId": 4384,
        "contract": "contracts/vaults/DnGmxJuniorVault.sol:DnGmxJuniorVault",
        "label": "_name",
        "offset": 0,
        "slot": "54",
        "type": "t_string_storage"
      },
      {
        "astId": 4386,
        "contract": "contracts/vaults/DnGmxJuniorVault.sol:DnGmxJuniorVault",
        "label": "_symbol",
        "offset": 0,
        "slot": "55",
        "type": "t_string_storage"
      },
      {
        "astId": 4965,
        "contract": "contracts/vaults/DnGmxJuniorVault.sol:DnGmxJuniorVault",
        "label": "__gap",
        "offset": 0,
        "slot": "56",
        "type": "t_array(t_uint256)45_storage"
      },
      {
        "astId": 6508,
        "contract": "contracts/vaults/DnGmxJuniorVault.sol:DnGmxJuniorVault",
        "label": "asset",
        "offset": 0,
        "slot": "101",
        "type": "t_address"
      },
      {
        "astId": 3956,
        "contract": "contracts/vaults/DnGmxJuniorVault.sol:DnGmxJuniorVault",
        "label": "_owner",
        "offset": 0,
        "slot": "102",
        "type": "t_address"
      },
      {
        "astId": 4076,
        "contract": "contracts/vaults/DnGmxJuniorVault.sol:DnGmxJuniorVault",
        "label": "__gap",
        "offset": 0,
        "slot": "103",
        "type": "t_array(t_uint256)49_storage"
      },
      {
        "astId": 4249,
        "contract": "contracts/vaults/DnGmxJuniorVault.sol:DnGmxJuniorVault",
        "label": "_paused",
        "offset": 0,
        "slot": "152",
        "type": "t_bool"
      },
      {
        "astId": 4354,
        "contract": "contracts/vaults/DnGmxJuniorVault.sol:DnGmxJuniorVault",
        "label": "__gap",
        "offset": 0,
        "slot": "153",
        "type": "t_array(t_uint256)49_storage"
      },
      {
        "astId": 12303,
        "contract": "contracts/vaults/DnGmxJuniorVault.sol:DnGmxJuniorVault",
        "label": "state",
        "offset": 0,
        "slot": "202",
        "type": "t_struct(State)9035_storage"
      }
    ],
    "types": {
      "t_address": {
        "encoding": "inplace",
        "label": "address",
        "numberOfBytes": "20"
      },
      "t_array(t_uint256)45_storage": {
        "base": "t_uint256",
        "encoding": "inplace",
        "label": "uint256[45]",
        "numberOfBytes": "1440"
      },
      "t_array(t_uint256)49_storage": {
        "base": "t_uint256",
        "encoding": "inplace",
        "label": "uint256[49]",
        "numberOfBytes": "1568"
      },
      "t_array(t_uint256)50_storage": {
        "base": "t_uint256",
        "encoding": "inplace",
        "label": "uint256[50]",
        "numberOfBytes": "1600"
      },
      "t_bool": {
        "encoding": "inplace",
        "label": "bool",
        "numberOfBytes": "1"
      },
      "t_contract(IAToken)218": {
        "encoding": "inplace",
        "label": "contract IAToken",
        "numberOfBytes": "20"
      },
      "t_contract(IBalancerVault)7540": {
        "encoding": "inplace",
        "label": "contract IBalancerVault",
        "numberOfBytes": "20"
      },
      "t_contract(IDebtToken)7015": {
        "encoding": "inplace",
        "label": "contract IDebtToken",
        "numberOfBytes": "20"
      },
      "t_contract(IDnGmxBatchingManager)7175": {
        "encoding": "inplace",
        "label": "contract IDnGmxBatchingManager",
        "numberOfBytes": "20"
      },
      "t_contract(IDnGmxSeniorVault)7339": {
        "encoding": "inplace",
        "label": "contract IDnGmxSeniorVault",
        "numberOfBytes": "20"
      },
      "t_contract(IERC20)5435": {
        "encoding": "inplace",
        "label": "contract IERC20",
        "numberOfBytes": "20"
      },
      "t_contract(IERC20Metadata)5460": {
        "encoding": "inplace",
        "label": "contract IERC20Metadata",
        "numberOfBytes": "20"
      },
      "t_contract(IGlpManager)7841": {
        "encoding": "inplace",
        "label": "contract IGlpManager",
        "numberOfBytes": "20"
      },
      "t_contract(IPool)1121": {
        "encoding": "inplace",
        "label": "contract IPool",
        "numberOfBytes": "20"
      },
      "t_contract(IPoolAddressesProvider)1330": {
        "encoding": "inplace",
        "label": "contract IPoolAddressesProvider",
        "numberOfBytes": "20"
      },
      "t_contract(IPriceOracle)1350": {
        "encoding": "inplace",
        "label": "contract IPriceOracle",
        "numberOfBytes": "20"
      },
      "t_contract(IRewardRouterV2)8043": {
        "encoding": "inplace",
        "label": "contract IRewardRouterV2",
        "numberOfBytes": "20"
      },
      "t_contract(IRewardTracker)8143": {
        "encoding": "inplace",
        "label": "contract IRewardTracker",
        "numberOfBytes": "20"
      },
      "t_contract(IRewardsController)3657": {
        "encoding": "inplace",
        "label": "contract IRewardsController",
        "numberOfBytes": "20"
      },
      "t_contract(ISwapRouter)6482": {
        "encoding": "inplace",
        "label": "contract ISwapRouter",
        "numberOfBytes": "20"
      },
      "t_contract(IVault)8705": {
        "encoding": "inplace",
        "label": "contract IVault",
        "numberOfBytes": "20"
      },
      "t_int256": {
        "encoding": "inplace",
        "label": "int256",
        "numberOfBytes": "32"
      },
      "t_mapping(t_address,t_mapping(t_address,t_uint256))": {
        "encoding": "mapping",
        "key": "t_address",
        "label": "mapping(address => mapping(address => uint256))",
        "numberOfBytes": "32",
        "value": "t_mapping(t_address,t_uint256)"
      },
      "t_mapping(t_address,t_uint256)": {
        "encoding": "mapping",
        "key": "t_address",
        "label": "mapping(address => uint256)",
        "numberOfBytes": "32",
        "value": "t_uint256"
      },
      "t_string_storage": {
        "encoding": "bytes",
        "label": "string",
        "numberOfBytes": "32"
      },
      "t_struct(State)9035_storage": {
        "encoding": "inplace",
        "label": "struct DnGmxJuniorVaultHelpers.State",
        "members": [
          {
            "astId": 8929,
            "contract": "contracts/vaults/DnGmxJuniorVault.sol:DnGmxJuniorVault",
            "label": "FEE",
            "offset": 0,
            "slot": "0",
            "type": "t_uint256"
          },
          {
            "astId": 8931,
            "contract": "contracts/vaults/DnGmxJuniorVault.sol:DnGmxJuniorVault",
            "label": "keeper",
            "offset": 0,
            "slot": "1",
            "type": "t_address"
          },
          {
            "astId": 8934,
            "contract": "contracts/vaults/DnGmxJuniorVault.sol:DnGmxJuniorVault",
            "label": "dnGmxSeniorVault",
            "offset": 0,
            "slot": "2",
            "type": "t_contract(IDnGmxSeniorVault)7339"
          },
          {
            "astId": 8936,
            "contract": "contracts/vaults/DnGmxJuniorVault.sol:DnGmxJuniorVault",
            "label": "feeRecipient",
            "offset": 0,
            "slot": "3",
            "type": "t_address"
          },
          {
            "astId": 8938,
            "contract": "contracts/vaults/DnGmxJuniorVault.sol:DnGmxJuniorVault",
            "label": "withdrawFeeBps",
            "offset": 0,
            "slot": "4",
            "type": "t_uint256"
          },
          {
            "astId": 8940,
            "contract": "contracts/vaults/DnGmxJuniorVault.sol:DnGmxJuniorVault",
            "label": "protocolFee",
            "offset": 0,
            "slot": "5",
            "type": "t_uint256"
          },
          {
            "astId": 8942,
            "contract": "contracts/vaults/DnGmxJuniorVault.sol:DnGmxJuniorVault",
            "label": "protocolEsGmx",
            "offset": 0,
            "slot": "6",
            "type": "t_uint256"
          },
          {
            "astId": 8944,
            "contract": "contracts/vaults/DnGmxJuniorVault.sol:DnGmxJuniorVault",
            "label": "unhedgedGlpInUsdc",
            "offset": 0,
            "slot": "7",
            "type": "t_uint256"
          },
          {
            "astId": 8946,
            "contract": "contracts/vaults/DnGmxJuniorVault.sol:DnGmxJuniorVault",
            "label": "seniorVaultWethRewards",
            "offset": 0,
            "slot": "8",
            "type": "t_uint256"
          },
          {
            "astId": 8948,
            "contract": "contracts/vaults/DnGmxJuniorVault.sol:DnGmxJuniorVault",
            "label": "wethConversionThreshold",
            "offset": 0,
            "slot": "9",
            "type": "t_uint256"
          },
          {
            "astId": 8950,
            "contract": "contracts/vaults/DnGmxJuniorVault.sol:DnGmxJuniorVault",
            "label": "hedgeUsdcAmountThreshold",
            "offset": 0,
            "slot": "10",
            "type": "t_uint256"
          },
          {
            "astId": 8952,
            "contract": "contracts/vaults/DnGmxJuniorVault.sol:DnGmxJuniorVault",
            "label": "hfThreshold",
            "offset": 0,
            "slot": "11",
            "type": "t_uint256"
          },
          {
            "astId": 8954,
            "contract": "contracts/vaults/DnGmxJuniorVault.sol:DnGmxJuniorVault",
            "label": "depositCap",
            "offset": 0,
            "slot": "12",
            "type": "t_uint256"
          },
          {
            "astId": 8956,
            "contract": "contracts/vaults/DnGmxJuniorVault.sol:DnGmxJuniorVault",
            "label": "dnUsdcDeposited",
            "offset": 0,
            "slot": "13",
            "type": "t_int256"
          },
          {
            "astId": 8958,
            "contract": "contracts/vaults/DnGmxJuniorVault.sol:DnGmxJuniorVault",
            "label": "_hasFlashloaned",
            "offset": 0,
            "slot": "14",
            "type": "t_bool"
          },
          {
            "astId": 8960,
            "contract": "contracts/vaults/DnGmxJuniorVault.sol:DnGmxJuniorVault",
            "label": "lastRebalanceTS",
            "offset": 1,
            "slot": "14",
            "type": "t_uint64"
          },
          {
            "astId": 8962,
            "contract": "contracts/vaults/DnGmxJuniorVault.sol:DnGmxJuniorVault",
            "label": "rebalanceTimeThreshold",
            "offset": 9,
            "slot": "14",
            "type": "t_uint32"
          },
          {
            "astId": 8964,
            "contract": "contracts/vaults/DnGmxJuniorVault.sol:DnGmxJuniorVault",
            "label": "rebalanceDeltaThreshold",
            "offset": 13,
            "slot": "14",
            "type": "t_uint16"
          },
          {
            "astId": 8968,
            "contract": "contracts/vaults/DnGmxJuniorVault.sol:DnGmxJuniorVault",
            "label": "pool",
            "offset": 0,
            "slot": "15",
            "type": "t_contract(IPool)1121"
          },
          {
            "astId": 8971,
            "contract": "contracts/vaults/DnGmxJuniorVault.sol:DnGmxJuniorVault",
            "label": "oracle",
            "offset": 0,
            "slot": "16",
            "type": "t_contract(IPriceOracle)1350"
          },
          {
            "astId": 8974,
            "contract": "contracts/vaults/DnGmxJuniorVault.sol:DnGmxJuniorVault",
            "label": "poolAddressProvider",
            "offset": 0,
            "slot": "17",
            "type": "t_contract(IPoolAddressesProvider)1330"
          },
          {
            "astId": 8977,
            "contract": "contracts/vaults/DnGmxJuniorVault.sol:DnGmxJuniorVault",
            "label": "aUsdc",
            "offset": 0,
            "slot": "18",
            "type": "t_contract(IAToken)218"
          },
          {
            "astId": 8980,
            "contract": "contracts/vaults/DnGmxJuniorVault.sol:DnGmxJuniorVault",
            "label": "vWbtc",
            "offset": 0,
            "slot": "19",
            "type": "t_contract(IDebtToken)7015"
          },
          {
            "astId": 8983,
            "contract": "contracts/vaults/DnGmxJuniorVault.sol:DnGmxJuniorVault",
            "label": "vWeth",
            "offset": 0,
            "slot": "20",
            "type": "t_contract(IDebtToken)7015"
          },
          {
            "astId": 8986,
            "contract": "contracts/vaults/DnGmxJuniorVault.sol:DnGmxJuniorVault",
            "label": "swapRouter",
            "offset": 0,
            "slot": "21",
            "type": "t_contract(ISwapRouter)6482"
          },
          {
            "astId": 8989,
            "contract": "contracts/vaults/DnGmxJuniorVault.sol:DnGmxJuniorVault",
            "label": "balancerVault",
            "offset": 0,
            "slot": "22",
            "type": "t_contract(IBalancerVault)7540"
          },
          {
            "astId": 8991,
            "contract": "contracts/vaults/DnGmxJuniorVault.sol:DnGmxJuniorVault",
            "label": "targetHealthFactor",
            "offset": 0,
            "slot": "23",
            "type": "t_uint256"
          },
          {
            "astId": 8994,
            "contract": "contracts/vaults/DnGmxJuniorVault.sol:DnGmxJuniorVault",
            "label": "aaveRewardsController",
            "offset": 0,
            "slot": "24",
            "type": "t_contract(IRewardsController)3657"
          },
          {
            "astId": 8997,
            "contract": "contracts/vaults/DnGmxJuniorVault.sol:DnGmxJuniorVault",
            "label": "slippageThresholdGmx",
            "offset": 20,
            "slot": "24",
            "type": "t_uint16"
          },
          {
            "astId": 8999,
            "contract": "contracts/vaults/DnGmxJuniorVault.sol:DnGmxJuniorVault",
            "label": "slippageThresholdSwap",
            "offset": 22,
            "slot": "24",
            "type": "t_uint16"
          },
          {
            "astId": 9001,
            "contract": "contracts/vaults/DnGmxJuniorVault.sol:DnGmxJuniorVault",
            "label": "usdcConversionThreshold",
            "offset": 0,
            "slot": "25",
            "type": "t_uint208"
          },
          {
            "astId": 9004,
            "contract": "contracts/vaults/DnGmxJuniorVault.sol:DnGmxJuniorVault",
            "label": "fsGlp",
            "offset": 0,
            "slot": "26",
            "type": "t_contract(IERC20)5435"
          },
          {
            "astId": 9007,
            "contract": "contracts/vaults/DnGmxJuniorVault.sol:DnGmxJuniorVault",
            "label": "sGmx",
            "offset": 0,
            "slot": "27",
            "type": "t_contract(IRewardTracker)8143"
          },
          {
            "astId": 9010,
            "contract": "contracts/vaults/DnGmxJuniorVault.sol:DnGmxJuniorVault",
            "label": "glp",
            "offset": 0,
            "slot": "28",
            "type": "t_contract(IERC20Metadata)5460"
          },
          {
            "astId": 9013,
            "contract": "contracts/vaults/DnGmxJuniorVault.sol:DnGmxJuniorVault",
            "label": "usdc",
            "offset": 0,
            "slot": "29",
            "type": "t_contract(IERC20Metadata)5460"
          },
          {
            "astId": 9016,
            "contract": "contracts/vaults/DnGmxJuniorVault.sol:DnGmxJuniorVault",
            "label": "usdt",
            "offset": 0,
            "slot": "30",
            "type": "t_contract(IERC20Metadata)5460"
          },
          {
            "astId": 9019,
            "contract": "contracts/vaults/DnGmxJuniorVault.sol:DnGmxJuniorVault",
            "label": "weth",
            "offset": 0,
            "slot": "31",
            "type": "t_contract(IERC20Metadata)5460"
          },
          {
            "astId": 9022,
            "contract": "contracts/vaults/DnGmxJuniorVault.sol:DnGmxJuniorVault",
            "label": "wbtc",
            "offset": 0,
            "slot": "32",
            "type": "t_contract(IERC20Metadata)5460"
          },
          {
            "astId": 9025,
            "contract": "contracts/vaults/DnGmxJuniorVault.sol:DnGmxJuniorVault",
            "label": "gmxVault",
            "offset": 0,
            "slot": "33",
            "type": "t_contract(IVault)8705"
          },
          {
            "astId": 9028,
            "contract": "contracts/vaults/DnGmxJuniorVault.sol:DnGmxJuniorVault",
            "label": "glpManager",
            "offset": 0,
            "slot": "34",
            "type": "t_contract(IGlpManager)7841"
          },
          {
            "astId": 9031,
            "contract": "contracts/vaults/DnGmxJuniorVault.sol:DnGmxJuniorVault",
            "label": "rewardRouter",
            "offset": 0,
            "slot": "35",
            "type": "t_contract(IRewardRouterV2)8043"
          },
          {
            "astId": 9034,
            "contract": "contracts/vaults/DnGmxJuniorVault.sol:DnGmxJuniorVault",
            "label": "batchingManager",
            "offset": 0,
            "slot": "36",
            "type": "t_contract(IDnGmxBatchingManager)7175"
          }
        ],
        "numberOfBytes": "1184"
      },
      "t_uint16": {
        "encoding": "inplace",
        "label": "uint16",
        "numberOfBytes": "2"
      },
      "t_uint208": {
        "encoding": "inplace",
        "label": "uint208",
        "numberOfBytes": "26"
      },
      "t_uint256": {
        "encoding": "inplace",
        "label": "uint256",
        "numberOfBytes": "32"
      },
      "t_uint32": {
        "encoding": "inplace",
        "label": "uint32",
        "numberOfBytes": "4"
      },
      "t_uint64": {
        "encoding": "inplace",
        "label": "uint64",
        "numberOfBytes": "8"
      },
      "t_uint8": {
        "encoding": "inplace",
        "label": "uint8",
        "numberOfBytes": "1"
      }
    }
  }
}