{
  "address": "0x9B381A96FD6fb410Fb9Fd60eFcf71B95ac58f3A7",
  "abi": [
    {
      "anonymous": false,
      "inputs": [
        {
          "indexed": false,
          "internalType": "address",
          "name": "juniorVault",
          "type": "address"
        },
        {
          "indexed": false,
          "internalType": "address",
          "name": "rewardRouter",
          "type": "address"
        }
      ],
      "name": "AddressesUpdated",
      "type": "event"
    },
    {
      "anonymous": false,
      "inputs": [
        {
          "indexed": true,
          "internalType": "address",
          "name": "previousOwner",
          "type": "address"
        },
        {
          "indexed": true,
          "internalType": "address",
          "name": "newOwner",
          "type": "address"
        }
      ],
      "name": "OwnershipTransferred",
      "type": "event"
    },
    {
      "anonymous": false,
      "inputs": [
        {
          "indexed": false,
          "internalType": "uint256",
          "name": "newSlippageThreshold",
          "type": "uint256"
        }
      ],
      "name": "SlippageThresholdUpdated",
      "type": "event"
    },
    {
      "anonymous": false,
      "inputs": [
        {
          "indexed": true,
          "internalType": "address",
          "name": "from",
          "type": "address"
        },
        {
          "indexed": true,
          "internalType": "address",
          "name": "receiver",
          "type": "address"
        },
        {
          "indexed": false,
          "internalType": "address",
          "name": "token",
          "type": "address"
        },
        {
          "indexed": false,
          "internalType": "uint256",
          "name": "assets",
          "type": "uint256"
        },
        {
          "indexed": false,
          "internalType": "uint256",
          "name": "shares",
          "type": "uint256"
        },
        {
          "indexed": false,
          "internalType": "uint256",
          "name": "tokensSpent",
          "type": "uint256"
        }
      ],
      "name": "TokenDeposited",
      "type": "event"
    },
    {
      "inputs": [
        {
          "internalType": "address",
          "name": "token",
          "type": "address"
        },
        {
          "internalType": "address",
          "name": "receiver",
          "type": "address"
        },
        {
          "internalType": "uint256",
          "name": "tokenAmount",
          "type": "uint256"
        }
      ],
      "name": "depositToken",
      "outputs": [
        {
          "internalType": "uint256",
          "name": "sharesReceived",
          "type": "uint256"
        }
      ],
      "stateMutability": "nonpayable",
      "type": "function"
    },
    {
      "inputs": [],
      "name": "owner",
      "outputs": [
        {
          "internalType": "address",
          "name": "",
          "type": "address"
        }
      ],
      "stateMutability": "view",
      "type": "function"
    },
    {
      "inputs": [],
      "name": "renounceOwnership",
      "outputs": [],
      "stateMutability": "nonpayable",
      "type": "function"
    },
    {
      "inputs": [
        {
          "internalType": "contract IDnGmxJuniorVault",
          "name": "_dnGmxJuniorVault",
          "type": "address"
        },
        {
          "internalType": "contract IRewardRouterV2",
          "name": "_rewardRouter",
          "type": "address"
        },
        {
          "internalType": "contract IGlpManager",
          "name": "_glpManager",
          "type": "address"
        }
      ],
      "name": "setAddresses",
      "outputs": [],
      "stateMutability": "nonpayable",
      "type": "function"
    },
    {
      "inputs": [
        {
          "internalType": "uint256",
          "name": "_slippageThreshold",
          "type": "uint256"
        }
      ],
      "name": "setSlippageThreshold",
      "outputs": [],
      "stateMutability": "nonpayable",
      "type": "function"
    },
    {
      "inputs": [],
      "name": "slippageThreshold",
      "outputs": [
        {
          "internalType": "uint256",
          "name": "",
          "type": "uint256"
        }
      ],
      "stateMutability": "view",
      "type": "function"
    },
    {
      "inputs": [
        {
          "internalType": "address",
          "name": "newOwner",
          "type": "address"
        }
      ],
      "name": "transferOwnership",
      "outputs": [],
      "stateMutability": "nonpayable",
      "type": "function"
    }
  ],
  "transactionHash": "0xba2b1858b759e622e8c964cfe8d7cd6c6e0295281f647df3aa23d127f6fa95fe",
  "args": [],
  "numDeployments": 1,
  "solcInputHash": "4cf8a12f6f399894abac84825f83b0aa",
  "bytecode": "0x608060405234801561001057600080fd5b5061001a3361001f565b61006f565b600080546001600160a01b038381166001600160a01b0319831681178455604051919092169283917f8be0079c531659141344cd1fd0a4f28419497f9722a3daafe3b4186f6b6457e09190a35050565b610ba28061007e6000396000f3fe608060405234801561001057600080fd5b506004361061007d5760003560e01c80638da5cb5b1161005b5780638da5cb5b146100b25780639024350b146100d2578063f2fde38b146100e9578063fb0f97a8146100fc57600080fd5b8063363bf964146100825780634146043614610097578063715018a6146100aa575b600080fd5b6100956100903660046108f4565b61010f565b005b6100956100a536600461093f565b610302565b610095610345565b6000546040516001600160a01b0390911681526020015b60405180910390f35b6100db60015481565b6040519081526020016100c9565b6100956100f7366004610958565b610359565b6100db61010a366004610975565b6103d7565b610117610539565b600580546001600160a01b038085166001600160a01b031992831617909255600680549286169290911682179055604080516338d52e0f60e01b815290516338d52e0f916004808201926020929091908290030181865afa158015610180573d6000803e3d6000fd5b505050506040513d601f19601f820116820180604052508101906101a491906109b6565b600280546001600160a01b039283166001600160a01b0319918216179091556004805492841692909116821781556040805163fbfa77cf60e01b8152905163fbfa77cf928281019260209291908290030181865afa15801561020a573d6000803e3d6000fd5b505050506040513d601f19601f8201168201806040525081019061022e91906109b6565b600380546001600160a01b0319166001600160a01b0392831617905560025460405163095ea7b360e01b81528583166004820152600019602482015291169063095ea7b3906044016020604051808303816000875af1158015610295573d6000803e3d6000fd5b505050506040513d601f19601f820116820180604052508101906102b991906109d3565b50604080516001600160a01b038086168252841660208201527fc651c70f44278e4b6b346230d2fcc09308ad801d6dc8b9c055f45581b3609075910160405180910390a1505050565b61030a610539565b60018190556040518181527fad3d2e36d644de683c6608bea35a9e25bef4ded83b5939c6d8f9c5ab390d89fc9060200160405180910390a150565b61034d610539565b6103576000610593565b565b610361610539565b6001600160a01b0381166103cb5760405162461bcd60e51b815260206004820152602660248201527f4f776e61626c653a206e6577206f776e657220697320746865207a65726f206160448201526564647265737360d01b60648201526084015b60405180910390fd5b6103d481610593565b50565b6040516323b872dd60e01b8152336004820152306024820152604481018290526000906001600160a01b038516906323b872dd906064016020604051808303816000875af115801561042d573d6000803e3d6000fd5b505050506040513d601f19601f8201168201806040525081019061045191906109d3565b50600061045e85846105e3565b600654604051636e553f6560e01b8152600481018390526001600160a01b038781166024830152929350911690636e553f65906044016020604051808303816000875af11580156104b3573d6000803e3d6000fd5b505050506040513d601f19601f820116820180604052508101906104d791906109f5565b604080516001600160a01b038881168252602082018590529181018390526060810186905291935085169033907fcd7273033338c741bc7651b85c11e4eaf8d79f9839640944d59ce1e49bebaffc9060800160405180910390a3509392505050565b6000546001600160a01b031633146103575760405162461bcd60e51b815260206004820181905260248201527f4f776e61626c653a2063616c6c6572206973206e6f7420746865206f776e657260448201526064016103c2565b600080546001600160a01b038381166001600160a01b0319831681178455604051919092169283917f8be0079c531659141344cd1fd0a4f28419497f9722a3daafe3b4186f6b6457e09190a35050565b6004805460405163095ea7b360e01b81526001600160a01b0391821692810192909252602482018390526000919084169063095ea7b3906044016020604051808303816000875af115801561063c573d6000803e3d6000fd5b505050506040513d601f19601f8201168201806040525081019061066091906109d3565b506000836001600160a01b031663313ce5676040518163ffffffff1660e01b8152600401602060405180830381865afa1580156106a1573d6000803e3d6000fd5b505050506040513d601f19601f820116820180604052508101906106c59190610a0e565b6003546040516340d3096b60e11b81526001600160a01b038781166004830152929350600092909116906381a612d690602401602060405180830381865afa158015610715573d6000803e3d6000fd5b505050506040513d601f19601f8201168201806040525081019061073991906109f5565b9050600061079a61074b846012610a47565b61075690600a610b50565b60015461076590612710610b5f565b61076f9085610b76565b6107799190610b76565b6107926127106c0c9f2c9cd04674edea40000000610b76565b87919061082b565b60055460405163364e231160e01b81526001600160a01b03898116600483015260248201899052604482018490526000606483015292935091169063364e2311906084016020604051808303816000875af11580156107fd573d6000803e3d6000fd5b505050506040513d601f19601f8201168201806040525081019061082191906109f5565b9695505050505050565b600080806000198587098587029250828110838203039150508060001415610865576000841161085a57600080fd5b5082900490506108d8565b80841161087157600080fd5b6000848688096000868103871696879004966002600389028118808a02820302808a02820302808a02820302808a02820302808a02820302808a02909103029181900381900460010186841190950394909402919094039290920491909117919091029150505b9392505050565b6001600160a01b03811681146103d457600080fd5b60008060006060848603121561090957600080fd5b8335610914816108df565b92506020840135610924816108df565b91506040840135610934816108df565b809150509250925092565b60006020828403121561095157600080fd5b5035919050565b60006020828403121561096a57600080fd5b81356108d8816108df565b60008060006060848603121561098a57600080fd5b8335610995816108df565b925060208401356109a5816108df565b929592945050506040919091013590565b6000602082840312156109c857600080fd5b81516108d8816108df565b6000602082840312156109e557600080fd5b815180151581146108d857600080fd5b600060208284031215610a0757600080fd5b5051919050565b600060208284031215610a2057600080fd5b815160ff811681146108d857600080fd5b634e487b7160e01b600052601160045260246000fd5b600060ff821660ff841680821015610a6157610a61610a31565b90039392505050565b600181815b80851115610aa5578160001904821115610a8b57610a8b610a31565b80851615610a9857918102915b93841c9390800290610a6f565b509250929050565b600082610abc57506001610b4a565b81610ac957506000610b4a565b8160018114610adf5760028114610ae957610b05565b6001915050610b4a565b60ff841115610afa57610afa610a31565b50506001821b610b4a565b5060208310610133831016604e8410600b8410161715610b28575081810a610b4a565b610b328383610a6a565b8060001904821115610b4657610b46610a31565b0290505b92915050565b60006108d860ff841683610aad565b600082821015610b7157610b71610a31565b500390565b6000816000190483118215151615610b9057610b90610a31565b50029056fea164736f6c634300080a000a",
  "devdoc": {
    "author": "RageTrade*",
    "kind": "dev",
    "methods": {
      "depositToken(address,address,uint256)": {
        "params": {
          "receiver": "address of the receiver",
          "token": "input token",
          "tokenAmount": "amount of token to deposit"
        },
        "returns": {
          "sharesReceived": "shares received in exchange of token"
        }
      },
      "owner()": {
        "details": "Returns the address of the current owner."
      },
      "renounceOwnership()": {
        "details": "Leaves the contract without owner. It will not be possible to call `onlyOwner` functions anymore. Can only be called by the current owner. NOTE: Renouncing ownership will leave the contract without an owner, thereby removing any functionality that is only available to the owner."
      },
      "setAddresses(address,address,address)": {
        "details": "only owner call this setter function",
        "params": {
          "_dnGmxJuniorVault": "junior tranche of delta neutral vault",
          "_glpManager": "glp manager of gmx protocol",
          "_rewardRouter": "reward router v2 of gmx protocol"
        }
      },
      "setSlippageThreshold(uint256)": {
        "params": {
          "_slippageThreshold": "slippage threshold value in bps"
        }
      },
      "transferOwnership(address)": {
        "details": "Transfers ownership of the contract to a new account (`newOwner`). Can only be called by the current owner."
      }
    },
    "title": "Periphery to convert tokens to junior vault shares",
    "version": 1
  },
  "userdoc": {
    "kind": "user",
    "methods": {
      "depositToken(address,address,uint256)": {
        "notice": "allows to use tokens to deposit into junior vault"
      },
      "setAddresses(address,address,address)": {
        "notice": "sets the required external contract address in order to swap glp for tokens"
      },
      "setSlippageThreshold(uint256)": {
        "notice": "sets the maximum slippage threshold to be used for converting glp for asset"
      }
    },
    "notice": "uses a fixed max slippage thresholdprimarily constructed to be used from frontend",
    "version": 1
  },
  "storageLayout": {
    "storage": [
      {
        "astId": 5362,
        "contract": "contracts/periphery/DepositPeriphery.sol:DepositPeriphery",
        "label": "_owner",
        "offset": 0,
        "slot": "0",
        "type": "t_address"
      },
      {
        "astId": 13548,
        "contract": "contracts/periphery/DepositPeriphery.sol:DepositPeriphery",
        "label": "slippageThreshold",
        "offset": 0,
        "slot": "1",
        "type": "t_uint256"
      },
      {
        "astId": 13551,
        "contract": "contracts/periphery/DepositPeriphery.sol:DepositPeriphery",
        "label": "sGlp",
        "offset": 0,
        "slot": "2",
        "type": "t_contract(ISglpExtended)8245"
      },
      {
        "astId": 13554,
        "contract": "contracts/periphery/DepositPeriphery.sol:DepositPeriphery",
        "label": "gmxVault",
        "offset": 0,
        "slot": "3",
        "type": "t_contract(IVault)8784"
      },
      {
        "astId": 13557,
        "contract": "contracts/periphery/DepositPeriphery.sol:DepositPeriphery",
        "label": "glpManager",
        "offset": 0,
        "slot": "4",
        "type": "t_contract(IGlpManager)7930"
      },
      {
        "astId": 13560,
        "contract": "contracts/periphery/DepositPeriphery.sol:DepositPeriphery",
        "label": "rewardRouter",
        "offset": 0,
        "slot": "5",
        "type": "t_contract(IRewardRouterV2)8118"
      },
      {
        "astId": 13563,
        "contract": "contracts/periphery/DepositPeriphery.sol:DepositPeriphery",
        "label": "dnGmxJuniorVault",
        "offset": 0,
        "slot": "6",
        "type": "t_contract(IDnGmxJuniorVault)7542"
      }
    ],
    "types": {
      "t_address": {
        "encoding": "inplace",
        "label": "address",
        "numberOfBytes": "20"
      },
      "t_contract(IDnGmxJuniorVault)7542": {
        "encoding": "inplace",
        "label": "contract IDnGmxJuniorVault",
        "numberOfBytes": "20"
      },
      "t_contract(IGlpManager)7930": {
        "encoding": "inplace",
        "label": "contract IGlpManager",
        "numberOfBytes": "20"
      },
      "t_contract(IRewardRouterV2)8118": {
        "encoding": "inplace",
        "label": "contract IRewardRouterV2",
        "numberOfBytes": "20"
      },
      "t_contract(ISglpExtended)8245": {
        "encoding": "inplace",
        "label": "contract ISglpExtended",
        "numberOfBytes": "20"
      },
      "t_contract(IVault)8784": {
        "encoding": "inplace",
        "label": "contract IVault",
        "numberOfBytes": "20"
      },
      "t_uint256": {
        "encoding": "inplace",
        "label": "uint256",
        "numberOfBytes": "32"
      }
    }
  }
}