{
  "address": "0x48a0B5825C190eec7b85Ec4095c2Ad94beF5d9d1",
  "abi": [
    {
      "inputs": [],
      "name": "ArraysLengthMismatch",
      "type": "error"
    },
    {
      "inputs": [],
      "name": "DepositCapExceeded",
      "type": "error"
    },
    {
      "inputs": [],
      "name": "FlashloanNotInitiated",
      "type": "error"
    },
    {
      "inputs": [],
      "name": "InvalidFeeBps",
      "type": "error"
    },
    {
      "inputs": [],
      "name": "InvalidFeeRecipient",
      "type": "error"
    },
    {
      "inputs": [],
      "name": "InvalidRebalance",
      "type": "error"
    },
    {
      "inputs": [],
      "name": "InvalidRebalanceDeltaThresholdBps",
      "type": "error"
    },
    {
      "inputs": [],
      "name": "InvalidRebalanceHfThresholdBps",
      "type": "error"
    },
    {
      "inputs": [],
      "name": "InvalidRebalanceTimeThreshold",
      "type": "error"
    },
    {
      "inputs": [],
      "name": "InvalidSlippageThresholdGmx",
      "type": "error"
    },
    {
      "inputs": [],
      "name": "InvalidSlippageThresholdSwapBtc",
      "type": "error"
    },
    {
      "inputs": [],
      "name": "InvalidSlippageThresholdSwapEth",
      "type": "error"
    },
    {
      "inputs": [],
      "name": "InvalidTargetHealthFactor",
      "type": "error"
    },
    {
      "inputs": [
        {
          "internalType": "int128",
          "name": "btcTraderOIHedge",
          "type": "int128"
        },
        {
          "internalType": "int128",
          "name": "ethTraderOIHedge",
          "type": "int128"
        }
      ],
      "name": "InvalidTraderOIHedges",
      "type": "error"
    },
    {
      "inputs": [],
      "name": "InvalidWithdrawFeeBps",
      "type": "error"
    },
    {
      "inputs": [],
      "name": "NotBalancerVault",
      "type": "error"
    },
    {
      "inputs": [],
      "name": "NotDnGmxSeniorVault",
      "type": "error"
    },
    {
      "inputs": [
        {
          "internalType": "address",
          "name": "msgSender",
          "type": "address"
        },
        {
          "internalType": "address",
          "name": "authorisedKeeperAddress",
          "type": "address"
        }
      ],
      "name": "OnlyKeeperAllowed",
      "type": "error"
    },
    {
      "inputs": [
        {
          "internalType": "address",
          "name": "msgSender",
          "type": "address"
        },
        {
          "internalType": "address",
          "name": "authorisedKeeperAddress",
          "type": "address"
        }
      ],
      "name": "OnlyTraderHedgeStrategyAllowed",
      "type": "error"
    },
    {
      "inputs": [
        {
          "internalType": "uint256",
          "name": "netSlippage",
          "type": "uint256"
        },
        {
          "internalType": "uint256",
          "name": "assets",
          "type": "uint256"
        }
      ],
      "name": "TooMuchSlippage",
      "type": "error"
    },
    {
      "anonymous": false,
      "inputs": [
        {
          "indexed": false,
          "internalType": "address",
          "name": "newKeeper",
          "type": "address"
        },
        {
          "indexed": false,
          "internalType": "address",
          "name": "dnGmxSeniorVault",
          "type": "address"
        },
        {
          "indexed": false,
          "internalType": "uint256",
          "name": "newDepositCap",
          "type": "uint256"
        },
        {
          "indexed": false,
          "internalType": "address",
          "name": "batchingManager",
          "type": "address"
        },
        {
          "indexed": false,
          "internalType": "uint16",
          "name": "withdrawFeeBps",
          "type": "uint16"
        }
      ],
      "name": "AdminParamsUpdated",
      "type": "event"
    },
    {
      "anonymous": false,
      "inputs": [],
      "name": "AllowancesGranted",
      "type": "event"
    },
    {
      "anonymous": false,
      "inputs": [
        {
          "indexed": true,
          "internalType": "address",
          "name": "owner",
          "type": "address"
        },
        {
          "indexed": true,
          "internalType": "address",
          "name": "spender",
          "type": "address"
        },
        {
          "indexed": false,
          "internalType": "uint256",
          "name": "value",
          "type": "uint256"
        }
      ],
      "name": "Approval",
      "type": "event"
    },
    {
      "anonymous": false,
      "inputs": [
        {
          "indexed": true,
          "internalType": "address",
          "name": "user",
          "type": "address"
        },
        {
          "indexed": false,
          "internalType": "uint256",
          "name": "slippage",
          "type": "uint256"
        }
      ],
      "name": "AssetSlippage",
      "type": "event"
    },
    {
      "anonymous": false,
      "inputs": [
        {
          "indexed": true,
          "internalType": "address",
          "name": "caller",
          "type": "address"
        },
        {
          "indexed": true,
          "internalType": "address",
          "name": "owner",
          "type": "address"
        },
        {
          "indexed": false,
          "internalType": "uint256",
          "name": "assets",
          "type": "uint256"
        },
        {
          "indexed": false,
          "internalType": "uint256",
          "name": "shares",
          "type": "uint256"
        }
      ],
      "name": "Deposit",
      "type": "event"
    },
    {
      "anonymous": false,
      "inputs": [
        {
          "indexed": false,
          "internalType": "uint256",
          "name": "_newDepositCap",
          "type": "uint256"
        }
      ],
      "name": "DepositCapUpdated",
      "type": "event"
    },
    {
      "anonymous": false,
      "inputs": [
        {
          "indexed": false,
          "internalType": "address",
          "name": "_dnGmxSeniorVault",
          "type": "address"
        }
      ],
      "name": "DnGmxSeniorVaultUpdated",
      "type": "event"
    },
    {
      "anonymous": false,
      "inputs": [
        {
          "indexed": false,
          "internalType": "uint256",
          "name": "amount",
          "type": "uint256"
        }
      ],
      "name": "EsGmxStaked",
      "type": "event"
    },
    {
      "anonymous": false,
      "inputs": [
        {
          "indexed": false,
          "internalType": "uint256",
          "name": "amount",
          "type": "uint256"
        }
      ],
      "name": "EsGmxVested",
      "type": "event"
    },
    {
      "anonymous": false,
      "inputs": [
        {
          "indexed": false,
          "internalType": "uint256",
          "name": "feeBps",
          "type": "uint256"
        },
        {
          "indexed": false,
          "internalType": "address",
          "name": "_newFeeRecipient",
          "type": "address"
        }
      ],
      "name": "FeeParamsUpdated",
      "type": "event"
    },
    {
      "anonymous": false,
      "inputs": [
        {
          "indexed": false,
          "internalType": "uint256",
          "name": "feeAmount",
          "type": "uint256"
        }
      ],
      "name": "FeesWithdrawn",
      "type": "event"
    },
    {
      "anonymous": false,
      "inputs": [
        {
          "indexed": false,
          "internalType": "uint256",
          "name": "amount",
          "type": "uint256"
        }
      ],
      "name": "GmxClaimed",
      "type": "event"
    },
    {
      "anonymous": false,
      "inputs": [
        {
          "indexed": false,
          "internalType": "contract IBalancerVault",
          "name": "vault",
          "type": "address"
        },
        {
          "indexed": false,
          "internalType": "contract ISwapRouter",
          "name": "swapRouter",
          "type": "address"
        },
        {
          "indexed": false,
          "internalType": "uint256",
          "name": "targetHealthFactor",
          "type": "uint256"
        },
        {
          "indexed": false,
          "internalType": "contract IRewardsController",
          "name": "aaveRewardsController",
          "type": "address"
        },
        {
          "indexed": false,
          "internalType": "contract IPool",
          "name": "pool",
          "type": "address"
        },
        {
          "indexed": false,
          "internalType": "contract IPriceOracle",
          "name": "oracle",
          "type": "address"
        }
      ],
      "name": "HedgeParamsUpdated",
      "type": "event"
    },
    {
      "anonymous": false,
      "inputs": [
        {
          "indexed": false,
          "internalType": "uint8",
          "name": "version",
          "type": "uint8"
        }
      ],
      "name": "Initialized",
      "type": "event"
    },
    {
      "anonymous": false,
      "inputs": [
        {
          "indexed": false,
          "internalType": "address",
          "name": "_newKeeper",
          "type": "address"
        }
      ],
      "name": "KeeperUpdated",
      "type": "event"
    },
    {
      "anonymous": false,
      "inputs": [
        {
          "indexed": true,
          "internalType": "address",
          "name": "previousOwner",
          "type": "address"
        },
        {
          "indexed": true,
          "internalType": "address",
          "name": "newOwner",
          "type": "address"
        }
      ],
      "name": "OwnershipTransferred",
      "type": "event"
    },
    {
      "anonymous": false,
      "inputs": [
        {
          "indexed": false,
          "internalType": "uint128",
          "name": "rebalanceProfitUsdcAmountThreshold",
          "type": "uint128"
        },
        {
          "indexed": false,
          "internalType": "contract IDnGmxTraderHedgeStrategy",
          "name": "dnGmxTraderHedgeStrategy",
          "type": "address"
        }
      ],
      "name": "ParamsV1Updated",
      "type": "event"
    },
    {
      "anonymous": false,
      "inputs": [
        {
          "indexed": false,
          "internalType": "address",
          "name": "account",
          "type": "address"
        }
      ],
      "name": "Paused",
      "type": "event"
    },
    {
      "anonymous": false,
      "inputs": [
        {
          "indexed": false,
          "internalType": "uint32",
          "name": "rebalanceTimeThreshold",
          "type": "uint32"
        },
        {
          "indexed": false,
          "internalType": "uint16",
          "name": "rebalanceDeltaThresholdBps",
          "type": "uint16"
        },
        {
          "indexed": false,
          "internalType": "uint16",
          "name": "rebalanceHfThresholdBps",
          "type": "uint16"
        }
      ],
      "name": "RebalanceParamsUpdated",
      "type": "event"
    },
    {
      "anonymous": false,
      "inputs": [],
      "name": "Rebalanced",
      "type": "event"
    },
    {
      "anonymous": false,
      "inputs": [
        {
          "indexed": false,
          "internalType": "uint16",
          "name": "slippageThresholdSwapBtcBps",
          "type": "uint16"
        },
        {
          "indexed": false,
          "internalType": "uint16",
          "name": "slippageThresholdSwapEthBps",
          "type": "uint16"
        },
        {
          "indexed": false,
          "internalType": "uint16",
          "name": "slippageThresholdGmxBps",
          "type": "uint16"
        },
        {
          "indexed": false,
          "internalType": "uint128",
          "name": "usdcConversionThreshold",
          "type": "uint128"
        },
        {
          "indexed": false,
          "internalType": "uint128",
          "name": "wethConversionThreshold",
          "type": "uint128"
        },
        {
          "indexed": false,
          "internalType": "uint128",
          "name": "hedgeUsdcAmountThreshold",
          "type": "uint128"
        },
        {
          "indexed": false,
          "internalType": "uint128",
          "name": "partialBtcHedgeUsdcAmountThreshold",
          "type": "uint128"
        },
        {
          "indexed": false,
          "internalType": "uint128",
          "name": "partialEthHedgeUsdcAmountThreshold",
          "type": "uint128"
        }
      ],
      "name": "ThresholdsUpdated",
      "type": "event"
    },
    {
      "anonymous": false,
      "inputs": [
        {
          "indexed": false,
          "internalType": "int256",
          "name": "btcTraderOIHedge",
          "type": "int256"
        },
        {
          "indexed": false,
          "internalType": "int256",
          "name": "ethTraderOIHedge",
          "type": "int256"
        }
      ],
      "name": "TraderOIHedgesUpdated",
      "type": "event"
    },
    {
      "anonymous": false,
      "inputs": [
        {
          "indexed": true,
          "internalType": "address",
          "name": "from",
          "type": "address"
        },
        {
          "indexed": true,
          "internalType": "address",
          "name": "to",
          "type": "address"
        },
        {
          "indexed": false,
          "internalType": "uint256",
          "name": "value",
          "type": "uint256"
        }
      ],
      "name": "Transfer",
      "type": "event"
    },
    {
      "anonymous": false,
      "inputs": [
        {
          "indexed": false,
          "internalType": "address",
          "name": "account",
          "type": "address"
        }
      ],
      "name": "Unpaused",
      "type": "event"
    },
    {
      "anonymous": false,
      "inputs": [
        {
          "indexed": true,
          "internalType": "address",
          "name": "caller",
          "type": "address"
        },
        {
          "indexed": true,
          "internalType": "address",
          "name": "receiver",
          "type": "address"
        },
        {
          "indexed": true,
          "internalType": "address",
          "name": "owner",
          "type": "address"
        },
        {
          "indexed": false,
          "internalType": "uint256",
          "name": "assets",
          "type": "uint256"
        },
        {
          "indexed": false,
          "internalType": "uint256",
          "name": "shares",
          "type": "uint256"
        }
      ],
      "name": "Withdraw",
      "type": "event"
    },
    {
      "anonymous": false,
      "inputs": [
        {
          "indexed": false,
          "internalType": "uint256",
          "name": "_withdrawFeeBps",
          "type": "uint256"
        }
      ],
      "name": "WithdrawFeeUpdated",
      "type": "event"
    },
    {
      "inputs": [
        {
          "internalType": "address",
          "name": "owner",
          "type": "address"
        },
        {
          "internalType": "address",
          "name": "spender",
          "type": "address"
        }
      ],
      "name": "allowance",
      "outputs": [
        {
          "internalType": "uint256",
          "name": "",
          "type": "uint256"
        }
      ],
      "stateMutability": "view",
      "type": "function"
    },
    {
      "inputs": [
        {
          "internalType": "address",
          "name": "spender",
          "type": "address"
        },
        {
          "internalType": "uint256",
          "name": "amount",
          "type": "uint256"
        }
      ],
      "name": "approve",
      "outputs": [
        {
          "internalType": "bool",
          "name": "",
          "type": "bool"
        }
      ],
      "stateMutability": "nonpayable",
      "type": "function"
    },
    {
      "inputs": [],
      "name": "asset",
      "outputs": [
        {
          "internalType": "address",
          "name": "",
          "type": "address"
        }
      ],
      "stateMutability": "view",
      "type": "function"
    },
    {
      "inputs": [
        {
          "internalType": "address",
          "name": "account",
          "type": "address"
        }
      ],
      "name": "balanceOf",
      "outputs": [
        {
          "internalType": "uint256",
          "name": "",
          "type": "uint256"
        }
      ],
      "stateMutability": "view",
      "type": "function"
    },
    {
      "inputs": [],
      "name": "claimVestedGmx",
      "outputs": [],
      "stateMutability": "nonpayable",
      "type": "function"
    },
    {
      "inputs": [
        {
          "internalType": "uint256",
          "name": "shares",
          "type": "uint256"
        }
      ],
      "name": "convertToAssets",
      "outputs": [
        {
          "internalType": "uint256",
          "name": "",
          "type": "uint256"
        }
      ],
      "stateMutability": "view",
      "type": "function"
    },
    {
      "inputs": [
        {
          "internalType": "uint256",
          "name": "assets",
          "type": "uint256"
        }
      ],
      "name": "convertToShares",
      "outputs": [
        {
          "internalType": "uint256",
          "name": "",
          "type": "uint256"
        }
      ],
      "stateMutability": "view",
      "type": "function"
    },
    {
      "inputs": [],
      "name": "decimals",
      "outputs": [
        {
          "internalType": "uint8",
          "name": "",
          "type": "uint8"
        }
      ],
      "stateMutability": "view",
      "type": "function"
    },
    {
      "inputs": [
        {
          "internalType": "address",
          "name": "spender",
          "type": "address"
        },
        {
          "internalType": "uint256",
          "name": "subtractedValue",
          "type": "uint256"
        }
      ],
      "name": "decreaseAllowance",
      "outputs": [
        {
          "internalType": "bool",
          "name": "",
          "type": "bool"
        }
      ],
      "stateMutability": "nonpayable",
      "type": "function"
    },
    {
      "inputs": [
        {
          "internalType": "uint256",
          "name": "amount",
          "type": "uint256"
        },
        {
          "internalType": "address",
          "name": "to",
          "type": "address"
        }
      ],
      "name": "deposit",
      "outputs": [
        {
          "internalType": "uint256",
          "name": "shares",
          "type": "uint256"
        }
      ],
      "stateMutability": "nonpayable",
      "type": "function"
    },
    {
      "inputs": [],
      "name": "depositCap",
      "outputs": [
        {
          "internalType": "uint256",
          "name": "",
          "type": "uint256"
        }
      ],
      "stateMutability": "view",
      "type": "function"
    },
    {
      "inputs": [],
      "name": "dnUsdcDeposited",
      "outputs": [
        {
          "internalType": "int256",
          "name": "",
          "type": "int256"
        }
      ],
      "stateMutability": "view",
      "type": "function"
    },
    {
      "inputs": [],
      "name": "getAdminParams",
      "outputs": [
        {
          "internalType": "address",
          "name": "keeper",
          "type": "address"
        },
        {
          "internalType": "contract IDnGmxSeniorVault",
          "name": "dnGmxSeniorVault",
          "type": "address"
        },
        {
          "internalType": "uint256",
          "name": "depositCap_",
          "type": "uint256"
        },
        {
          "internalType": "uint16",
          "name": "withdrawFeeBps",
          "type": "uint16"
        },
        {
          "internalType": "uint24",
          "name": "feeTierWethWbtcPool",
          "type": "uint24"
        }
      ],
      "stateMutability": "view",
      "type": "function"
    },
    {
      "inputs": [],
      "name": "getCurrentBorrows",
      "outputs": [
        {
          "internalType": "uint256",
          "name": "currentBtcBorrow",
          "type": "uint256"
        },
        {
          "internalType": "uint256",
          "name": "currentEthBorrow",
          "type": "uint256"
        }
      ],
      "stateMutability": "view",
      "type": "function"
    },
    {
      "inputs": [],
      "name": "getHedgeParams",
      "outputs": [
        {
          "internalType": "contract IBalancerVault",
          "name": "balancerVault",
          "type": "address"
        },
        {
          "internalType": "contract ISwapRouter",
          "name": "swapRouter",
          "type": "address"
        },
        {
          "internalType": "uint256",
          "name": "targetHealthFactor",
          "type": "uint256"
        },
        {
          "internalType": "contract IRewardsController",
          "name": "aaveRewardsController",
          "type": "address"
        }
      ],
      "stateMutability": "view",
      "type": "function"
    },
    {
      "inputs": [
        {
          "internalType": "uint256",
          "name": "assetAmount",
          "type": "uint256"
        }
      ],
      "name": "getMarketValue",
      "outputs": [
        {
          "internalType": "uint256",
          "name": "marketValue",
          "type": "uint256"
        }
      ],
      "stateMutability": "view",
      "type": "function"
    },
    {
      "inputs": [
        {
          "internalType": "uint256",
          "name": "glpDeposited",
          "type": "uint256"
        },
        {
          "internalType": "bool",
          "name": "withUpdatedPoolAmounts",
          "type": "bool"
        }
      ],
      "name": "getOptimalBorrows",
      "outputs": [
        {
          "internalType": "uint256",
          "name": "optimalBtcBorrow",
          "type": "uint256"
        },
        {
          "internalType": "uint256",
          "name": "optimalEthBorrow",
          "type": "uint256"
        }
      ],
      "stateMutability": "view",
      "type": "function"
    },
    {
      "inputs": [
        {
          "internalType": "bool",
          "name": "maximize",
          "type": "bool"
        }
      ],
      "name": "getPrice",
      "outputs": [
        {
          "internalType": "uint256",
          "name": "",
          "type": "uint256"
        }
      ],
      "stateMutability": "view",
      "type": "function"
    },
    {
      "inputs": [],
      "name": "getPriceX128",
      "outputs": [
        {
          "internalType": "uint256",
          "name": "",
          "type": "uint256"
        }
      ],
      "stateMutability": "view",
      "type": "function"
    },
    {
      "inputs": [],
      "name": "getRebalanceParams",
      "outputs": [
        {
          "internalType": "uint32",
          "name": "rebalanceTimeThreshold",
          "type": "uint32"
        },
        {
          "internalType": "uint16",
          "name": "rebalanceDeltaThresholdBps",
          "type": "uint16"
        },
        {
          "internalType": "uint16",
          "name": "rebalanceHfThresholdBps",
          "type": "uint16"
        }
      ],
      "stateMutability": "view",
      "type": "function"
    },
    {
      "inputs": [],
      "name": "getThresholds",
      "outputs": [
        {
          "internalType": "uint16",
          "name": "slippageThresholdSwapBtcBps",
          "type": "uint16"
        },
        {
          "internalType": "uint16",
          "name": "slippageThresholdSwapEthBps",
          "type": "uint16"
        },
        {
          "internalType": "uint16",
          "name": "slippageThresholdGmxBps",
          "type": "uint16"
        },
        {
          "internalType": "uint128",
          "name": "usdcConversionThreshold",
          "type": "uint128"
        },
        {
          "internalType": "uint128",
          "name": "wethConversionThreshold",
          "type": "uint128"
        },
        {
          "internalType": "uint128",
          "name": "hedgeUsdcAmountThreshold",
          "type": "uint128"
        },
        {
          "internalType": "uint128",
          "name": "partialBtcHedgeUsdcAmountThreshold",
          "type": "uint128"
        },
        {
          "internalType": "uint128",
          "name": "partialEthHedgeUsdcAmountThreshold",
          "type": "uint128"
        }
      ],
      "stateMutability": "view",
      "type": "function"
    },
    {
      "inputs": [],
      "name": "getUsdcBorrowed",
      "outputs": [
        {
          "internalType": "uint256",
          "name": "usdcAmount",
          "type": "uint256"
        }
      ],
      "stateMutability": "view",
      "type": "function"
    },
    {
      "inputs": [],
      "name": "getVaultMarketValue",
      "outputs": [
        {
          "internalType": "int256",
          "name": "vaultMarketValue",
          "type": "int256"
        }
      ],
      "stateMutability": "view",
      "type": "function"
    },
    {
      "inputs": [],
      "name": "grantAllowances",
      "outputs": [],
      "stateMutability": "nonpayable",
      "type": "function"
    },
    {
      "inputs": [],
      "name": "harvestFees",
      "outputs": [],
      "stateMutability": "nonpayable",
      "type": "function"
    },
    {
      "inputs": [
        {
          "internalType": "address",
          "name": "spender",
          "type": "address"
        },
        {
          "internalType": "uint256",
          "name": "addedValue",
          "type": "uint256"
        }
      ],
      "name": "increaseAllowance",
      "outputs": [
        {
          "internalType": "bool",
          "name": "",
          "type": "bool"
        }
      ],
      "stateMutability": "nonpayable",
      "type": "function"
    },
    {
      "inputs": [
        {
          "internalType": "string",
          "name": "_name",
          "type": "string"
        },
        {
          "internalType": "string",
          "name": "_symbol",
          "type": "string"
        },
        {
          "internalType": "address",
          "name": "_swapRouter",
          "type": "address"
        },
        {
          "internalType": "address",
          "name": "_rewardRouter",
          "type": "address"
        },
        {
          "internalType": "address",
          "name": "_mintBurnRewardRouter",
          "type": "address"
        },
        {
          "components": [
            {
              "internalType": "contract IERC20Metadata",
              "name": "weth",
              "type": "address"
            },
            {
              "internalType": "contract IERC20Metadata",
              "name": "wbtc",
              "type": "address"
            },
            {
              "internalType": "contract IERC20Metadata",
              "name": "sGlp",
              "type": "address"
            },
            {
              "internalType": "contract IERC20Metadata",
              "name": "usdc",
              "type": "address"
            }
          ],
          "internalType": "struct DnGmxJuniorVaultManager.Tokens",
          "name": "_tokens",
          "type": "tuple"
        },
        {
          "internalType": "contract IPoolAddressesProvider",
          "name": "_poolAddressesProvider",
          "type": "address"
        }
      ],
      "name": "initialize",
      "outputs": [],
      "stateMutability": "nonpayable",
      "type": "function"
    },
    {
      "inputs": [],
      "name": "isValidRebalance",
      "outputs": [
        {
          "internalType": "bool",
          "name": "",
          "type": "bool"
        }
      ],
      "stateMutability": "view",
      "type": "function"
    },
    {
      "inputs": [
        {
          "internalType": "address",
          "name": "",
          "type": "address"
        }
      ],
      "name": "maxDeposit",
      "outputs": [
        {
          "internalType": "uint256",
          "name": "",
          "type": "uint256"
        }
      ],
      "stateMutability": "view",
      "type": "function"
    },
    {
      "inputs": [
        {
          "internalType": "address",
          "name": "receiver",
          "type": "address"
        }
      ],
      "name": "maxMint",
      "outputs": [
        {
          "internalType": "uint256",
          "name": "",
          "type": "uint256"
        }
      ],
      "stateMutability": "view",
      "type": "function"
    },
    {
      "inputs": [
        {
          "internalType": "address",
          "name": "owner",
          "type": "address"
        }
      ],
      "name": "maxRedeem",
      "outputs": [
        {
          "internalType": "uint256",
          "name": "",
          "type": "uint256"
        }
      ],
      "stateMutability": "view",
      "type": "function"
    },
    {
      "inputs": [
        {
          "internalType": "address",
          "name": "owner",
          "type": "address"
        }
      ],
      "name": "maxWithdraw",
      "outputs": [
        {
          "internalType": "uint256",
          "name": "",
          "type": "uint256"
        }
      ],
      "stateMutability": "view",
      "type": "function"
    },
    {
      "inputs": [
        {
          "internalType": "uint256",
          "name": "shares",
          "type": "uint256"
        },
        {
          "internalType": "address",
          "name": "to",
          "type": "address"
        }
      ],
      "name": "mint",
      "outputs": [
        {
          "internalType": "uint256",
          "name": "amount",
          "type": "uint256"
        }
      ],
      "stateMutability": "nonpayable",
      "type": "function"
    },
    {
      "inputs": [],
      "name": "name",
      "outputs": [
        {
          "internalType": "string",
          "name": "",
          "type": "string"
        }
      ],
      "stateMutability": "view",
      "type": "function"
    },
    {
      "inputs": [],
      "name": "owner",
      "outputs": [
        {
          "internalType": "address",
          "name": "",
          "type": "address"
        }
      ],
      "stateMutability": "view",
      "type": "function"
    },
    {
      "inputs": [],
      "name": "pause",
      "outputs": [],
      "stateMutability": "nonpayable",
      "type": "function"
    },
    {
      "inputs": [],
      "name": "paused",
      "outputs": [
        {
          "internalType": "bool",
          "name": "",
          "type": "bool"
        }
      ],
      "stateMutability": "view",
      "type": "function"
    },
    {
      "inputs": [
        {
          "internalType": "uint256",
          "name": "assets",
          "type": "uint256"
        }
      ],
      "name": "previewDeposit",
      "outputs": [
        {
          "internalType": "uint256",
          "name": "",
          "type": "uint256"
        }
      ],
      "stateMutability": "view",
      "type": "function"
    },
    {
      "inputs": [
        {
          "internalType": "uint256",
          "name": "shares",
          "type": "uint256"
        }
      ],
      "name": "previewMint",
      "outputs": [
        {
          "internalType": "uint256",
          "name": "",
          "type": "uint256"
        }
      ],
      "stateMutability": "view",
      "type": "function"
    },
    {
      "inputs": [
        {
          "internalType": "uint256",
          "name": "shares",
          "type": "uint256"
        }
      ],
      "name": "previewRedeem",
      "outputs": [
        {
          "internalType": "uint256",
          "name": "",
          "type": "uint256"
        }
      ],
      "stateMutability": "view",
      "type": "function"
    },
    {
      "inputs": [
        {
          "internalType": "uint256",
          "name": "assets",
          "type": "uint256"
        }
      ],
      "name": "previewWithdraw",
      "outputs": [
        {
          "internalType": "uint256",
          "name": "",
          "type": "uint256"
        }
      ],
      "stateMutability": "view",
      "type": "function"
    },
    {
      "inputs": [],
      "name": "rebalance",
      "outputs": [],
      "stateMutability": "nonpayable",
      "type": "function"
    },
    {
      "inputs": [],
      "name": "rebalanceProfit",
      "outputs": [],
      "stateMutability": "nonpayable",
      "type": "function"
    },
    {
      "inputs": [
        {
          "internalType": "contract IERC20[]",
          "name": "tokens",
          "type": "address[]"
        },
        {
          "internalType": "uint256[]",
          "name": "amounts",
          "type": "uint256[]"
        },
        {
          "internalType": "uint256[]",
          "name": "feeAmounts",
          "type": "uint256[]"
        },
        {
          "internalType": "bytes",
          "name": "userData",
          "type": "bytes"
        }
      ],
      "name": "receiveFlashLoan",
      "outputs": [],
      "stateMutability": "nonpayable",
      "type": "function"
    },
    {
      "inputs": [
        {
          "internalType": "uint256",
          "name": "shares",
          "type": "uint256"
        },
        {
          "internalType": "address",
          "name": "receiver",
          "type": "address"
        },
        {
          "internalType": "address",
          "name": "owner",
          "type": "address"
        }
      ],
      "name": "redeem",
      "outputs": [
        {
          "internalType": "uint256",
          "name": "assets",
          "type": "uint256"
        }
      ],
      "stateMutability": "nonpayable",
      "type": "function"
    },
    {
      "inputs": [],
      "name": "renounceOwnership",
      "outputs": [],
      "stateMutability": "nonpayable",
      "type": "function"
    },
    {
      "inputs": [],
      "name": "repay",
      "outputs": [],
      "stateMutability": "nonpayable",
      "type": "function"
    },
    {
      "inputs": [
        {
          "internalType": "address",
          "name": "newKeeper",
          "type": "address"
        },
        {
          "internalType": "address",
          "name": "dnGmxSeniorVault",
          "type": "address"
        },
        {
          "internalType": "uint256",
          "name": "newDepositCap",
          "type": "uint256"
        },
        {
          "internalType": "uint16",
          "name": "withdrawFeeBps",
          "type": "uint16"
        },
        {
          "internalType": "uint24",
          "name": "feeTierWethWbtcPool",
          "type": "uint24"
        }
      ],
      "name": "setAdminParams",
      "outputs": [],
      "stateMutability": "nonpayable",
      "type": "function"
    },
    {
      "inputs": [
        {
          "internalType": "bool",
          "name": "_useDirectConversionBurn",
          "type": "bool"
        },
        {
          "internalType": "bool",
          "name": "_useDirectConversionMint",
          "type": "bool"
        }
      ],
      "name": "setDirectConversion",
      "outputs": [],
      "stateMutability": "nonpayable",
      "type": "function"
    },
    {
      "inputs": [
        {
          "internalType": "uint16",
          "name": "_feeBps",
          "type": "uint16"
        },
        {
          "internalType": "address",
          "name": "_feeRecipient",
          "type": "address"
        }
      ],
      "name": "setFeeParams",
      "outputs": [],
      "stateMutability": "nonpayable",
      "type": "function"
    },
    {
      "inputs": [
        {
          "internalType": "contract IGlpManager",
          "name": "_glpManager",
          "type": "address"
        }
      ],
      "name": "setGmxParams",
      "outputs": [],
      "stateMutability": "nonpayable",
      "type": "function"
    },
    {
      "inputs": [
        {
          "internalType": "contract IBalancerVault",
          "name": "vault",
          "type": "address"
        },
        {
          "internalType": "contract ISwapRouter",
          "name": "swapRouter",
          "type": "address"
        },
        {
          "internalType": "uint256",
          "name": "targetHealthFactor",
          "type": "uint256"
        },
        {
          "internalType": "contract IRewardsController",
          "name": "aaveRewardsController",
          "type": "address"
        }
      ],
      "name": "setHedgeParams",
      "outputs": [],
      "stateMutability": "nonpayable",
      "type": "function"
    },
    {
      "inputs": [
        {
          "internalType": "uint128",
          "name": "rebalanceProfitUsdcAmountThreshold",
          "type": "uint128"
        },
        {
          "internalType": "contract IDnGmxTraderHedgeStrategy",
          "name": "dnGmxTraderHedgeStrategy",
          "type": "address"
        }
      ],
      "name": "setParamsV1",
      "outputs": [],
      "stateMutability": "nonpayable",
      "type": "function"
    },
    {
      "inputs": [
        {
          "internalType": "uint32",
          "name": "rebalanceTimeThreshold",
          "type": "uint32"
        },
        {
          "internalType": "uint16",
          "name": "rebalanceDeltaThresholdBps",
          "type": "uint16"
        },
        {
          "internalType": "uint16",
          "name": "rebalanceHfThresholdBps",
          "type": "uint16"
        }
      ],
      "name": "setRebalanceParams",
      "outputs": [],
      "stateMutability": "nonpayable",
      "type": "function"
    },
    {
      "inputs": [
        {
          "internalType": "uint16",
          "name": "slippageThresholdSwapBtcBps",
          "type": "uint16"
        },
        {
          "internalType": "uint16",
          "name": "slippageThresholdSwapEthBps",
          "type": "uint16"
        },
        {
          "internalType": "uint16",
          "name": "slippageThresholdGmxBps",
          "type": "uint16"
        },
        {
          "internalType": "uint128",
          "name": "usdcConversionThreshold",
          "type": "uint128"
        },
        {
          "internalType": "uint128",
          "name": "wethConversionThreshold",
          "type": "uint128"
        },
        {
          "internalType": "uint128",
          "name": "hedgeUsdcAmountThreshold",
          "type": "uint128"
        },
        {
          "internalType": "uint128",
          "name": "partialBtcHedgeUsdcAmountThreshold",
          "type": "uint128"
        },
        {
          "internalType": "uint128",
          "name": "partialEthHedgeUsdcAmountThreshold",
          "type": "uint128"
        }
      ],
      "name": "setThresholds",
      "outputs": [],
      "stateMutability": "nonpayable",
      "type": "function"
    },
    {
      "inputs": [],
      "name": "stopVestAndStakeEsGmx",
      "outputs": [],
      "stateMutability": "nonpayable",
      "type": "function"
    },
    {
      "inputs": [],
      "name": "symbol",
      "outputs": [
        {
          "internalType": "string",
          "name": "",
          "type": "string"
        }
      ],
      "stateMutability": "view",
      "type": "function"
    },
    {
      "inputs": [],
      "name": "totalAssets",
      "outputs": [
        {
          "internalType": "uint256",
          "name": "",
          "type": "uint256"
        }
      ],
      "stateMutability": "view",
      "type": "function"
    },
    {
      "inputs": [],
      "name": "totalSupply",
      "outputs": [
        {
          "internalType": "uint256",
          "name": "",
          "type": "uint256"
        }
      ],
      "stateMutability": "view",
      "type": "function"
    },
    {
      "inputs": [
        {
          "internalType": "address",
          "name": "to",
          "type": "address"
        },
        {
          "internalType": "uint256",
          "name": "amount",
          "type": "uint256"
        }
      ],
      "name": "transfer",
      "outputs": [
        {
          "internalType": "bool",
          "name": "",
          "type": "bool"
        }
      ],
      "stateMutability": "nonpayable",
      "type": "function"
    },
    {
      "inputs": [
        {
          "internalType": "address",
          "name": "from",
          "type": "address"
        },
        {
          "internalType": "address",
          "name": "to",
          "type": "address"
        },
        {
          "internalType": "uint256",
          "name": "amount",
          "type": "uint256"
        }
      ],
      "name": "transferFrom",
      "outputs": [
        {
          "internalType": "bool",
          "name": "",
          "type": "bool"
        }
      ],
      "stateMutability": "nonpayable",
      "type": "function"
    },
    {
      "inputs": [
        {
          "internalType": "address",
          "name": "newOwner",
          "type": "address"
        }
      ],
      "name": "transferOwnership",
      "outputs": [],
      "stateMutability": "nonpayable",
      "type": "function"
    },
    {
      "inputs": [],
      "name": "unpause",
      "outputs": [],
      "stateMutability": "nonpayable",
      "type": "function"
    },
    {
      "inputs": [],
      "name": "unstakeAndVestEsGmx",
      "outputs": [],
      "stateMutability": "nonpayable",
      "type": "function"
    },
    {
      "inputs": [
        {
          "internalType": "uint256",
          "name": "assets",
          "type": "uint256"
        },
        {
          "internalType": "address",
          "name": "receiver",
          "type": "address"
        },
        {
          "internalType": "address",
          "name": "owner",
          "type": "address"
        }
      ],
      "name": "withdraw",
      "outputs": [
        {
          "internalType": "uint256",
          "name": "shares",
          "type": "uint256"
        }
      ],
      "stateMutability": "nonpayable",
      "type": "function"
    },
    {
      "inputs": [],
      "name": "withdrawFees",
      "outputs": [],
      "stateMutability": "nonpayable",
      "type": "function"
    },
    {
      "anonymous": false,
      "inputs": [
        {
          "indexed": false,
          "internalType": "uint256",
          "name": "glpQuantity",
          "type": "uint256"
        },
        {
          "indexed": false,
          "internalType": "uint256",
          "name": "usdcQuantity",
          "type": "uint256"
        },
        {
          "indexed": false,
          "internalType": "bool",
          "name": "fromGlpToUsdc",
          "type": "bool"
        }
      ],
      "name": "GlpSwapped",
      "type": "event"
    },
    {
      "anonymous": false,
      "inputs": [
        {
          "indexed": false,
          "internalType": "uint256",
          "name": "fees",
          "type": "uint256"
        }
      ],
      "name": "ProtocolFeeAccrued",
      "type": "event"
    },
    {
      "anonymous": false,
      "inputs": [
        {
          "indexed": false,
          "internalType": "uint256",
          "name": "wethHarvested",
          "type": "uint256"
        },
        {
          "indexed": false,
          "internalType": "uint256",
          "name": "esGmxStaked",
          "type": "uint256"
        },
        {
          "indexed": false,
          "internalType": "uint256",
          "name": "juniorVaultWeth",
          "type": "uint256"
        },
        {
          "indexed": false,
          "internalType": "uint256",
          "name": "seniorVaultWeth",
          "type": "uint256"
        },
        {
          "indexed": false,
          "internalType": "uint256",
          "name": "juniorVaultGlp",
          "type": "uint256"
        },
        {
          "indexed": false,
          "internalType": "uint256",
          "name": "seniorVaultAUsdc",
          "type": "uint256"
        }
      ],
      "name": "RewardsHarvested",
      "type": "event"
    },
    {
      "anonymous": false,
      "inputs": [
        {
          "indexed": true,
          "internalType": "address",
          "name": "fromToken",
          "type": "address"
        },
        {
          "indexed": true,
          "internalType": "address",
          "name": "toToken",
          "type": "address"
        },
        {
          "indexed": false,
          "internalType": "uint256",
          "name": "fromQuantity",
          "type": "uint256"
        },
        {
          "indexed": false,
          "internalType": "uint256",
          "name": "toQuantity",
          "type": "uint256"
        }
      ],
      "name": "TokenSwapped",
      "type": "event"
    },
    {
      "anonymous": false,
      "inputs": [
        {
          "indexed": true,
          "internalType": "uint256",
          "name": "eventType",
          "type": "uint256"
        },
        {
          "indexed": false,
          "internalType": "uint256",
          "name": "btcBorrows",
          "type": "uint256"
        },
        {
          "indexed": false,
          "internalType": "uint256",
          "name": "ethBorrows",
          "type": "uint256"
        },
        {
          "indexed": false,
          "internalType": "uint256",
          "name": "btcPoolAmount",
          "type": "uint256"
        },
        {
          "indexed": false,
          "internalType": "uint256",
          "name": "ethPoolAmount",
          "type": "uint256"
        },
        {
          "indexed": false,
          "internalType": "int256",
          "name": "btcTraderOIHedge",
          "type": "int256"
        },
        {
          "indexed": false,
          "internalType": "int256",
          "name": "ethTraderOIHedge",
          "type": "int256"
        },
        {
          "indexed": false,
          "internalType": "uint256",
          "name": "glpPrice",
          "type": "uint256"
        },
        {
          "indexed": false,
          "internalType": "uint256",
          "name": "glpBalance",
          "type": "uint256"
        },
        {
          "indexed": false,
          "internalType": "uint256",
          "name": "totalAssets",
          "type": "uint256"
        },
        {
          "indexed": false,
          "internalType": "int256",
          "name": "dnUsdcDeposited",
          "type": "int256"
        },
        {
          "indexed": false,
          "internalType": "uint256",
          "name": "unhedgedGlpInUsdc",
          "type": "uint256"
        },
        {
          "indexed": false,
          "internalType": "uint256",
          "name": "juniorVaultAusdc",
          "type": "uint256"
        },
        {
          "indexed": false,
          "internalType": "uint256",
          "name": "seniorVaultAusdc",
          "type": "uint256"
        }
      ],
      "name": "VaultState",
      "type": "event"
    }
  ],
  "transactionHash": "0x1f94311aa5b284de4952e9396324077c3c2a6dd5f497215abb23a22e0e8a5457",
  "args": [],
  "numDeployments": 2,
  "solcInputHash": "639266974493e92e157d7c6011d86eac",
  "bytecode": "0x6080806040523461001757615d1990816200001d8239f35b600080fdfe6080604052600436101561001257600080fd5b60003560e01c80624ec12b1461043157806301e1d1141461042c57806306fdde031461042757806307a2d13a14610422578063095ea7b31461041d5780630a28a477146104185780630ee31e9414610413578063138cc18f1461040e57806318160ddd146104095780631f5edd8d1461040457806323b872dd146103ff57806330af302d146103fa578063313ce567146103f557806338d52e0f146103f057806339509351146103eb5780633d672a45146103e65780633f4ba83a146103e1578063402d267d146103dc578063402d8883146103d7578063476343ee146103d257806347f24f4b146103cd5780634cdad506146103c8578063520c5fd9146103c3578063554070bc146103be57806359f3fe22146103b95780635c975abb146103b45780635c9a9b55146103af57806365eda557146103aa5780636e553f65146103a557806370a082311461031e578063715018a6146103a05780637d7c2a1c1461039b57806382100a50146103965780638456cb59146103915780638d315d7b1461038c5780638da5cb5b1461038757806394bf804d1461038257806395956cc11461037d57806395d89b411461037857806395e2da7c146103735780639c3977b51461036e578063a457c2d714610369578063a9059cbb14610364578063b3d7f6b91461035f578063b460af941461035a578063b811ad7014610355578063ba08765214610350578063ba7cc8d11461034b578063bb8234d114610346578063bf9571f114610341578063c63d75b61461033c578063c6e6f59214610337578063cad42dca14610332578063ce96cb771461032d578063d12f13b714610328578063d627b53014610323578063d905777e1461031e578063dbd5edc714610319578063dd62ed3e14610314578063e0120cf81461030f578063e245b5af1461030a578063ec279a1814610305578063edbcc59914610300578063ef8b30f7146102fb578063f04f2707146102f65763f2fde38b146102f157600080fd5b6136b7565b6135d9565b613449565b613406565b6133e8565b613306565b613208565b6131a3565b613184565b611883565b61315f565b6130c2565b613084565b613021565b613003565b612fd5565b612ac6565b612a21565b612991565b612861565b612731565b6125ee565b6125a7565b61257d565b6124ca565b61246c565b612402565b61235b565b6121ff565b611fd0565b611fa9565b611e1c565b611dc2565b611d77565b61191f565b6118c1565b611757565b611558565b611354565b611331565b6112d6565b6112b8565b611270565b611252565b6110ab565b610fa4565b610f3d565b610f17565b610e83565b610d8b565b610d28565b610d01565b610ce5565b610b7b565b610a99565b6108f4565b6108d6565b61086a565b6107d8565b610773565b61073e565b610720565b61063b565b6105c4565b610458565b6001600160a01b0381160361044757565b600080fd5b61ffff81160361044757565b346104475760a03660031901126104475760043561047581610436565b60243561048181610436565b604435916064356104918161044c565b6084359062ffffff82168203610447576104a9613748565b61271061ffff8216116105a75760fc80546001600160a01b0319166001600160a01b038581169190911790915561010586905561010480546dffffffffff0000000000000000001916604884901b6affff000000000000000000161760589490941b62ffffff60581b16939093179092557fe15ba51cde2870a515ffc9834f5ac1bb010e259ba47eda16968c5bc5be83cbf6946105a2926105669086166001600160a01b0361011c91166001600160601b0360a01b825416179055565b604051948594859293608092959461ffff9260a08601976001600160a01b03809216875216602086015260408501526000606085015216910152565b0390a1005b6040516312ee160b60e11b8152600490fd5b600091031261044757565b346104475760003660031901126104475760206105df615116565b604051908152f35b919082519283825260005b848110610613575050826000602080949584010152601f8019910116010190565b6020818301810151848301820152016105f2565b9060206106389281815201906105e7565b90565b346104475760008060031936011261071d57604051908060365461065e816137ea565b808552916001918083169081156106f35750600114610698575b61069485610688818703826134b2565b60405191829182610627565b0390f35b9250603683527f4a11f94e20a93c79f6ec743a1954ec4fc2c08429ae2122118bf234b2185c81b85b8284106106db57505050810160200161068882610694610678565b805460208587018101919091529093019281016106c0565b8695506106949693506020925061068894915060ff191682840152151560051b8201019293610678565b80fd5b346104475760203660031901126104475760206105df600435615519565b346104475760403660031901126104475761076860043561075e81610436565b6024359033613a1e565b602060405160018152f35b346104475760203660031901126104475760206107916004356156b9565b50604051908152f35b9181601f840112156104475782359167ffffffffffffffff8311610447576020838186019501011161044757565b61012435906107d682610436565b565b34610447576101403660031901126104475767ffffffffffffffff6004358181116104475761080b90369060040161079a565b916024359081116104475761082490369060040161079a565b60443561083081610436565b6064359161083d83610436565b6084359361084a85610436565b60803660a319011261044757610868966108626107c8565b96613b4b565b005b346104475760008060031936011261071d577367D1aB726403935814Ea0E3A0364BB739810f5D481813b1561071d5760405163a07ae7bb60e01b815260fc600482015291829060249082905af480156108d1576108c5575080f35b6108ce9061347d565b80f35b613cce565b34610447576000366003190112610447576020603554604051908152f35b346104475760008060031936011261071d5761090e613748565b61011861093161092582546001600160a01b031690565b6001600160a01b031690565b906040518092633671df2560e01b825281600460209586935afa9081156108d1578491610a7c575b5060405190634e71d92d60e01b82528382600481886001600160a01b038096165af19182156108d15784908693610a44575b506109da610925600494957f0124e1b96155213f77e0118f51f6173eb3606f76d89ba9dfc6a00fc629cb7dee604051806109ca8a829190602083019252565b0390a1546001600160a01b031690565b6040516331e67c7160e01b815293849182905afa9182156108d1576108ce948693610a15575b505060fd546001600160a01b03169116614983565b610a35929350803d10610a3d575b610a2d81836134b2565b810190613cb9565b903880610a00565b503d610a23565b60049350610925610a6d6109da92843d8611610a75575b610a6581836134b2565b810190614974565b94505061098b565b503d610a5b565b610a939150833d8511610a3d57610a2d81836134b2565b38610959565b3461044757606036600319011261044757600435610ab681610436565b602435610ac281610436565b604435906001600160a01b0383166000526034602052610af9336040600020906001600160a01b0316600052602052604060002090565b549260018401610b1a575b610b0e93506138fa565b60405160018152602090f35b828410610b3657610b3183610b0e95033383613a1e565b610b04565b60405162461bcd60e51b815260206004820152601d60248201527f45524332303a20696e73756666696369656e7420616c6c6f77616e63650000006044820152606490fd5b346104475760603660031901126104475760043563ffffffff8116908181036104475760243590610bab8261044c565b6203f48060443593610bbc8561044c565b610bc4613748565b11610cd45761271061ffff8181851611610cc2578416908110908115610cb5575b50610ca35761010680546bffffffff00000000000000001916604083901b6bffffffff0000000000000000161790557f74666b2773815375e6daaf777fe5b0b6f04a4a15373485cfaf2cf48251b21d9e926105a290610106805461ffff60601b1916606086901b61ffff60601b16179055610106805467ffff0000000000001916603083901b67ffff000000000000161790556040519384938491604091949363ffffffff606085019616845261ffff809216602085015216910152565b60405163149d3c7560e21b8152600490fd5b9050610100541038610be5565b60405163fd24448b60e01b8152600490fd5b6040516228254960e21b8152600490fd5b3461044757600036600319011261044757602060405160128152f35b346104475760003660031901126104475760206001600160a01b0360655416604051908152f35b3461044757604036600319011261044757600435610d4581610436565b336000526034602052610d6f816040600020906001600160a01b0316600052602052604060002090565b546024358101809111610d86576107689133613a1e565b613824565b3461044757600036600319011261044757610db2610925610117546001600160a01b031690565b60405163019c8a3b60e11b8152600060048201526020918290829060249082905afa80156108d157600491600091610e66575b5082610dfd61092561010a546001600160a01b031690565b6040516318160ddd60e01b815293849182905afa9283156108d15761069493610e3993610e3392600092610e49575b5050615171565b90615200565b6040519081529081906020820190565b610e5f9250803d10610a7557610a6581836134b2565b3880610e2c565b610e7d9150833d8511610a7557610a6581836134b2565b38610de5565b3461044757600036600319011261044757610e9c613748565b60ca5460ff811615610edb5760ff191660ca557f5db9ee0a495bf2e6ff9c91a7834c1ba4fdd244a5e8aa4e537bd38aeae4b073aa6020604051338152a1005b60405162461bcd60e51b815260206004820152601460248201527314185d5cd8589b194e881b9bdd081c185d5cd95960621b6044820152606490fd5b3461044757602036600319011261044757610f33600435610436565b60206105df615410565b346104475760008060031936011261071d57610f57613748565b806001600160a01b0361011c5416610f6d615395565b90803b15610fa057602483926040519485938492631b8fec7360e11b845260048401525af180156108d1576108c5575080f35b5050fd5b346104475760008060031936011261071d5761101f6101018281549155602081610fe06001600160a01b0361010c54166001600160a01b031690565b60fd546001600160a01b03168660405180978195829463a9059cbb60e01b845260048401602090939291936001600160a01b0360408201951681520152565b03925af19081156108d1577f9800e6f57aeb4360eaa72295a820a4293e1e66fbfcabcd8874ae141304a76deb926110669261106c575b506040519081529081906020820190565b0390a180f35b61108c9060203d8111611093575b61108481836134b2565b81019061489b565b5038611055565b503d61107a565b6001600160801b0381160361044757565b3461044757610100366003190112610447576004356110c98161044c565b6024356110d58161044c565b604435916110e28361044c565b606435926110ef8461109a565b6084356110fb8161109a565b60a4356111078161109a565b60c435906111148261109a565b60e435926111218461109a565b611129613748565b61271061ffff81818916116112405781818a161161122e5786161161121c5761010680546fffffffffffffffffffffffffffffffff60701b607084901b167fffff00000000000000000000000000000000ffffffffffffffff00000000000090911663ffff000060108a901b161765ffff0000000060208b901b161761ffff881617179055608082901b6001600160801b0319166001600160801b03891617610107557f8405afe6e9767f91c282339dc75edd776ddeda3e9aad8e1bb15471db89f8d867976105a295608086901b6001600160801b0319166001600160801b03861617610108556040519889988961241d565b6040516378fd03f760e01b8152600490fd5b604051632722719960e21b8152600490fd5b60405163669169e560e01b8152600490fd5b34610447576020366003190112610447576020610791600435615808565b346104475760203660031901126104475760043561128d81610436565b611295613748565b6001600160a01b0361011791166001600160601b0360a01b825416179055600080f35b346104475760203660031901126104475760206105df600435615292565b346104475760003660031901126104475760a06001600160a01b0362ffffff8160fc54169161011c54166101055461010454916040519485526020850152604084015261ffff8160481c16606084015260581c166080820152f35b3461044757600036600319011261044757602060ff60ca54166040519015158152f35b346104475760803660031901126104475760043561137181610436565b60243561137d81610436565b6044359160643561138d81610436565b611395613748565b614e2084116115465761011b80546001600160a01b0319166001600160a01b03841617905561011a80546001600160a01b0319166001600160a01b0385161790556113e08461010055565b61011380546001600160a01b0319166001600160a01b038316179055611412610925610114546001600160a01b031690565b936040519463026b1d5f60e01b86526020928387600481855afa80156108d157600497600091611529575b5061010e80546001600160a01b0319166001600160a01b03928316908117909155928590604051631f94a27560e31b8152998a9182905afa80156108d1577f04a2e4917e8cf09fc5f74a42cb8b240cb288a69c78dbf02719e5c7bf9ca1561e986105a29660009261150c575b505016926114d1846001600160a01b0361011291166001600160601b0360a01b825416179055565b604080516001600160a01b0397881681529787166020890152870152841660608601528316608085015290911660a0830152819060c0820190565b6115229250803d10610a3d57610a2d81836134b2565b38806114a9565b6115409150853d8711610a3d57610a2d81836134b2565b3861143d565b60405163361804a960e21b8152600490fd5b346104475760008060031936011261071d57611572613748565b61011861158961092582546001600160a01b031690565b9060409182518091633671df2560e01b825281600460209485935afa9283156108d15785918294611738575b506001600160a01b03809416803b156117345782906004875180958193633ccfd60b60e01b83525af19081156108d1576116009261092592611721575b50546001600160a01b031690565b918351630d43254f60e31b81528281600481875afa9182156108d15783918793611702575b5085516370a0823160e01b81523060048201529283916024918391165afa9182156108d15785926116e5575b5050813b156116e1578251633be3166560e21b8152600481018290529184908390602490829084905af180156108d1576108ce936116c2937f5663ef0eef5f33e3884097c3ec29a0bfbc957992d83512d046b5fc3d35bd8f3e926116c8575b5051828152602090a16101025461383a565b61010255565b806116d56116db9261347d565b806105b9565b386116b0565b8380fd5b6116fb9250803d10610a7557610a6581836134b2565b3880611651565b61171a919350823d8411610a3d57610a2d81836134b2565b9138611625565b806116d561172e9261347d565b386115f2565b8280fd5b611750919450833d8511610a3d57610a2d81836134b2565b92386115b5565b346104475760403660031901126104475760243560043561177782610436565b61177f6148f1565b611787615969565b602061179282615599565b90507f77439e914e0fa88dfd909bd08c755cb526ba370acd4f08f8f9b353581a0177596001600160a01b038516928392604051908152a26117d282615599565b509182156118505761180c8361069495611807846117fe6109256109256065546001600160a01b031690565b30903390614ddd565b614d19565b604080519182526020820184905233917fdcbc1c05240f31ff3ad067ef1ee35ce4997762752e3a095284754544f4c709d79190a3611848615beb565b610e396158c3565b60405162461bcd60e51b815260206004820152600b60248201526a5a45524f5f53484152455360a81b6044820152606490fd5b34610447576020366003190112610447576001600160a01b036004356118a881610436565b1660005260336020526020604060002054604051908152f35b346104475760008060031936011261071d576118db613748565b806001600160a01b036098546001600160601b0360a01b8116609855167f8be0079c531659141344cd1fd0a4f28419497f9722a3daafe3b4186f6b6457e08280a380f35b346104475760008060031936011261071d576001600160a01b0360fc5416803303611d595750611954611950614b80565b1590565b611d4757604080517fc741dbaad15a4f298fe8d80943fa8e005e7bcb2f5b0a0c8dec1fc35be457f1468380a17367D1aB726403935814Ea0E3A0364BB739810f5D46322b3d72160e11b82526004918381806119b68682019060fc602083019252565b0381855af480156108d157611a199186908792611d15575b506119f29061011f906001600160801b0319825416906001600160801b0316179055565b61011f805490916001600160801b0390911660809190911b6001600160801b031916179055565b8251916373c2549d60e11b91828452848480611a3c8582019060fc602083019252565b0381845af49283156108d15786948794611cf0575b50855163199aa16760e21b815260fc8482019081526020818101889052604082018790529591908690829081906060010381875af49081156108d1578991611cd3575b50611a9d61591b565b833b15611ccf57875163a07ae7bb60e01b8152898180611ac48982019060fc602083019252565b0381885af480156108d157611cbc575b5088843b1561071d578851635941106d60e01b815260fc878201908152602081019390935291829081906040010381875af480156108d157611ca9575b50865195633859f9b960e21b8752858780611b3a8882019060006020604084019360fc81520152565b0381875af49687156108d1578997611c86575b50908591611b8c8951988993849363a999987d60e01b8552898501608091949360019360a083019660fc84526020840152604083015260608201520152565b0381855af480156108d157611be79587958992611c69575b505015611c3757610104805466ffffffffffff0019169055611bcb61195060ca5460ff1690565b611c2a575b8351809581948293835282019060fc602083019252565b03915af480156108d157611bff575b826108ce6158c3565b81611c1e92903d10611c23575b611c1681836134b2565b810190614b6a565b611bf6565b503d611c0c565b611c326148b0565b611bd0565b610104805466ffffffffffff0019164260081b66ffffffffffff001617905560ca5460ff1615611bd057611c32614935565b611c7f9250803d106110935761108481836134b2565b3880611ba4565b8692919750611ca190833d8511610a7557610a6581836134b2565b969091611b4d565b806116d5611cb69261347d565b38611b11565b806116d5611cc99261347d565b38611ad4565b8880fd5b611cea9150863d8811610a7557610a6581836134b2565b38611a94565b909350611d0b919450853d8711611c2357611c1681836134b2565b9390939238611a51565b6119f29250611d3a9150863d8811611d40575b611d3281836134b2565b810190614cf8565b916119ce565b503d611d28565b60405163a039e79960e01b8152600490fd5b604490604051906329b7946d60e01b82523360048301526024820152fd5b346104475760003660031901126104475760806001600160a01b038061011b5416908061011a5416906101005490610113541691604051938452602084015260408301526060820152f35b3461044757600036600319011261044757611ddb613748565b611de36148f1565b600160ff1960ca54161760ca557f62e78cea01bee320cd4e420270b5ea74000d11b0c9f74754ebdbfc544b05a2586020604051338152a1005b346104475760008060031936011261071d57604080516373c2549d60e11b815260fc60048201527367D1aB726403935814Ea0E3A0364BB739810f5D48282602481845af49182156108d15784908593611f87575b50835163199aa16760e21b815260fc600482015260248101919091526044810192909252602091908290829060649082905af49081156108d1578491611f6a575b50611ec8610925610109546001600160a01b031690565b83516370a0823160e01b815230600482015294908390869060249082905afa80156108d157611f21611f18611f13611f329361069499611f3e98611f389792611f4d575b5050615292565b615356565b60fe5490615321565b611f2c60ff54615356565b90615321565b91615356565b9061533d565b90519081529081906020820190565b611f639250803d10610a7557610a6581836134b2565b3880611f0c565b611f819150823d8411610a7557610a6581836134b2565b38611eb1565b9050611fa1919250833d8511611c2357611c1681836134b2565b919038611e70565b346104475760003660031901126104475760206001600160a01b0360985416604051908152f35b34610447576040806003193601126104475760043560243591611ff283610436565b611ffa6148f1565b612002615969565b61200b8261561d565b9390506001600160a01b039261206781858416938551978852847f77439e914e0fa88dfd909bd08c755cb526ba370acd4f08f8f9b353581a0177596020809aa26118076120578361561d565b5080986065541630903390614ddd565b8251848152602081019190915233907fdcbc1c05240f31ff3ad067ef1ee35ce4997762752e3a095284754544f4c709d790604090a36120a4615116565b61010554106121ef5780516373c2549d60e11b815260fc6004820152927367D1aB726403935814Ea0E3A0364BB739810f5D48285602481845af480156108d15760009586916121cc575b508351633859f9b960e21b815260fc600482015260006024820152918383604481845af49182156108d1576121639785946000946121ad575b5086519889948593849363a999987d60e01b855260048501608091949360009360a083019660fc84526020840152604083015260608201520152565b03915af49384156108d1576106949461218f575b50506121816158c3565b519081529081906020820190565b816121a592903d106110935761108481836134b2565b503880612177565b6121c5919450853d8711610a7557610a6581836134b2565b9238612127565b90506121e6919550833d8511611c2357611c1681836134b2565b949094386120ee565b516324d758c360e21b8152600490fd5b346104475760008060031936011261071d57612219613748565b6101025461011861223461092582546001600160a01b031690565b90813b156116e1576040516364f6446760e01b8152600481018490529184908390602490829084905af19182156108d157610925602092612284926004956117215750546001600160a01b031690565b604051633671df2560e01b815292839182905afa80156108d1576001600160a01b0391849161233d575b501690813b156117345760405163b6b55f2560e01b8152600481018290529183908390602490829084905af19081156108d1577f275563740cc51fbb46511cec625978872b9c5093b106db5ce55e071e57f249619261231c9261232a57506040519081529081906020820190565b0390a16108ce600061010255565b806116d56123379261347d565b38611055565b612355915060203d8111610a3d57610a2d81836134b2565b386122ae565b346104475760008060031936011261071d57604051908060375461237e816137ea565b808552916001918083169081156106f357506001146123a75761069485610688818703826134b2565b9250603783527f42a7b7dd785cd69714a189dffb3fd7d7174edc9ece837694ce50f7078f7c31ae5b8284106123ea57505050810160200161068882610694610678565b805460208587018101919091529093019281016123cf565b346104475760003660031901126104475760206105df615395565b61ffff9182168152918116602083015290911660408201526001600160801b039182166060820152918116608083015291821660a082015291811660c083015290911660e08201526101000190565b34610447576000366003190112610447576101065461010754610694610108546040519384936001600160801b039061ffff92828560801c9516938260801c93808360701c1693169181811691808260201c169160101c168961241d565b34610447576040366003190112610447576004356124e781610436565b60243590336000526034602052612515816040600020906001600160a01b0316600052602052604060002090565b549180831061252a57610b0e92039033613a1e565b60405162461bcd60e51b815260206004820152602560248201527f45524332303a2064656372656173656420616c6c6f77616e63652062656c6f77604482015264207a65726f60d81b6064820152608490fd5b346104475760403660031901126104475761076860043561259d81610436565b60243590336138fa565b3461044757602036600319011261044757602061079160043561561d565b606090600319011261044757600435906024356125e181610436565b9060443561063881610436565b3461044757610694611848612602366125c5565b92919061260d6148f1565b612615615969565b6020612620836156b9565b90506001600160a01b03907f77439e914e0fa88dfd909bd08c755cb526ba370acd4f08f8f9b353581a017759828816938492604051908152a261267e612665856156b9565b5080978433036126da575b61267987615ab5565b614e50565b60408051858152602081018890529184169133917ffbde797d201c681b91056529119e0b02407c7bb96a4a2c75c01fc9667232c8db9190819081015b0390a46126d56109256109256065546001600160a01b031690565b614983565b84600052603460205281612705336040600020906001600160a01b0316600052602052604060002090565b5460018101612716575b5050612670565b61272a9161272391614e43565b3383613a1e565b813861270f565b346104475760008060031936011261071d5761274b613748565b604080516373c2549d60e11b815260fc60048201527367D1aB726403935814Ea0E3A0364BB739810f5D48282602481845af49182156108d1576127c49260209186908792612841575b50855163199aa16760e21b815260fc60048201526024810191909152604481019190915292839081906064820190565b0381845af49081156108d15784928392612821575b50803b15611734579251635941106d60e01b815260fc6004820152602481019190915291829060449082905af480156108d157612814575080f35b806116d56108ce9261347d565b61283a91925060203d8111610a7557610a6581836134b2565b90386127d9565b905061285a9150853d8711611c2357611c1681836134b2565b9038612794565b3461044757610694611848612875366125c5565b906128819392936148f1565b612889615969565b602061289485615808565b90506001600160a01b03907f77439e914e0fa88dfd909bd08c755cb526ba370acd4f08f8f9b353581a017759828616938492604051908152a281330361293a575b856128fa6128e282615808565b509788966128f1881515614f82565b61267988615ab5565b6040805186815260208101929092529184169133917ffbde797d201c681b91056529119e0b02407c7bb96a4a2c75c01fc9667232c8db91819081016126ba565b81600052603460205285612965336040600020906001600160a01b0316600052602052604060002090565b5460018101612976575b50506128d5565b61298a9161298391614e43565b3386613a1e565b853861296f565b3461044757600036600319011261044757604080516373c2549d60e11b815260fc600482015290816024817367D1aB726403935814Ea0E3A0364BB739810f5D45af49081156108d15760009081926129f6575b50604080519182526020820192909252f35b9050612a10915060403d8111611c2357611c1681836134b2565b90386129e4565b8015150361044757565b346104475760408060031936011261044757602435612a3f81612a17565b8151906303f7ab5160e61b825260fc600483015260043560248301521515604482015281816064817367D1aB726403935814Ea0E3A0364BB739810f5D45af49182156108d1576000918293612aa1575b50519081526020810191909152604090f35b81612abe92945061069493503d8511611c2357611c1681836134b2565b929091612a8f565b346104475760008060031936011261071d57612ae0613748565b612af661092561010e546001600160a01b031690565b612b0c61092561011a546001600160a01b031690565b9061010d91612b2561092584546001600160a01b031690565b9160409081519363095ea7b360e01b948581526020968782600494818c81612b678a8a83019190916001600160a01b0360408201931681526020600019910152565b03925af19081156108d157612b8c9261092592612f855750546001600160a01b031690565b8684518092888252818b81612bbb8b8983019190916001600160a01b0360408201931681526020600019910152565b03925af180156108d157612fb8575b5061010c612be261092582546001600160a01b031690565b8785518092898252818c81612c118a8a83019190916001600160a01b0360408201931681526020600019910152565b03925af180156108d157612f9b575b50612c3561092582546001600160a01b031690565b908785518093898252818c81612c658c8a83019190916001600160a01b0360408201931681526020600019910152565b03925af19081156108d157612c8a9261092592612f855750546001600160a01b031690565b91612cd48761011794612ca761092587546001600160a01b031690565b90898c895180968195829483528a83019190916001600160a01b0360408201931681526020600019910152565b03925af180156108d157612f68575b50612d2c8761010b92612d0061092585546001600160a01b031690565b898c895180968195829483528a83019190916001600160a01b0360408201931681526020600019910152565b03925af180156108d15789968992612d8492612f4b575b50612d5861092585546001600160a01b031690565b9087519889809481938d83528983019190916001600160a01b0360408201931681526020600019910152565b03925af19081156108d157612daf610925612dee928b988b95612f2e5750546001600160a01b031690565b612dc361092586546001600160a01b031690565b86519788809481938c83528883019190916001600160a01b0360408201931681526020600019910152565b03925af19384156108d1578794612f11575b5085612e31612e1b61092561010f546001600160a01b031690565b612dc361092561011c546001600160a01b031690565b03925af180156108d157612e9f9587958992612ef4575b50612e75610925612e676109256109256065546001600160a01b031690565b95546001600160a01b031690565b945196879586948593845283019190916001600160a01b0360408201931681526020600019910152565b03925af180156108d157612ed6575b827fba5bb3f899c7a3edcc9ff9d46c4e08449c6a608b6f8254132bc5af4898645cbc8180a180f35b81612eec92903d106110935761108481836134b2565b503880612eae565b612f0a90873d89116110935761108481836134b2565b5038612e48565b612f2790873d89116110935761108481836134b2565b5038612e00565b612f4490863d88116110935761108481836134b2565b50386115f2565b612f6190843d86116110935761108481836134b2565b5038612d43565b612f7e90883d8a116110935761108481836134b2565b5038612ce3565b612f44908a3d8c116110935761108481836134b2565b612fb190883d8a116110935761108481836134b2565b5038612c20565b612fce90873d89116110935761108481836134b2565b5038612bca565b3461044757602036600319011261044757612ff1600435610436565b60206105df612ffe615410565b615497565b346104475760203660031901126104475760206105df600435615497565b346104475760403660031901126104475760043561303e81612a17565b6024359061304b82612a17565b613053613748565b61011d805461ffff60a01b191691151560a01b60ff60a01b169190911791151560a81b60ff60a81b16919091179055005b34610447576020366003190112610447576001600160a01b036004356130a981610436565b16600052603360205260206105df604060002054615519565b34610447576040366003190112610447577f0ad868c06d6009b56f49b7d8396d0a6fc92a3474593d2bab6c0382dff84e9d4c60406004356131028161109a565b6001600160a01b036001600160801b036024359261311f84610436565b613127613748565b1691610121836001600160801b031982541617905516610120816001600160601b0360a01b82541617905582519182526020820152a1005b3461044757600036600319011261044757602061317a614b80565b6040519015158152f35b3461044757600036600319011261044757602061010554604051908152f35b346104475760403660031901126104475760206131ff6004356131c581610436565b6001600160a01b03602435916131da83610436565b16600052603483526040600020906001600160a01b0316600052602052604060002090565b54604051908152f35b34610447576040366003190112610447576004356132258161044c565b60243561323181610436565b613239613748565b60fd546001600160a01b038281169116146132f45760fd80546001600160a01b0319166001600160a01b038316179055610bb861ffff8316116132e257610104805468ffff000000000000001916603884901b68ffff00000000000000161790557feecc969cd8da3140016e16b0603215de782af59713abfc5055d917b88f4a7b91916040805161ffff90921682526001600160a01b03909216602082015290819081016105a2565b604051638bff87cf60e01b8152600490fd5b604051630ed1b8b360e31b8152600490fd5b3461044757602080600319360112610447576133638160043561332881612a17565b61333e610925610117546001600160a01b031690565b60405163019c8a3b60e11b815291151560048301529092839190829081906024820190565b03915afa80156108d1576004916000916133cb575b508261339061092561010a546001600160a01b031690565b6040516318160ddd60e01b815293849182905afa9283156108d15761069493610e39936133c592600092610e49575050615171565b906151ba565b6133e29150833d8511610a7557610a6581836134b2565b38613378565b3461044757600036600319011261044757602060fe54604051908152f35b3461044757600036600319011261044757610106546040805163ffffffff83831c16815261ffff606084811c8216602084015260309490941c1691810191909152f35b34610447576020366003190112610447576020610791600435615599565b634e487b7160e01b600052604160045260246000fd5b67ffffffffffffffff811161349157604052565b613467565b6040810190811067ffffffffffffffff82111761349157604052565b90601f8019910116810190811067ffffffffffffffff82111761349157604052565b604051906101e0820182811067ffffffffffffffff82111761349157604052565b67ffffffffffffffff81116134915760051b60200190565b81601f8201121561044757803591613524836134f5565b9261353260405194856134b2565b808452602092838086019260051b820101928311610447578301905b82821061355c575050505090565b8135815290830190830161354e565b67ffffffffffffffff811161349157601f01601f191660200190565b9291926135938261356b565b916135a160405193846134b2565b829481845281830111610447578281602093846000960137010152565b9080601f830112156104475781602061063893359101613587565b346104475760803660031901126104475767ffffffffffffffff6004358181116104475736602382011215610447578060040135613616816134f5565b9161362460405193846134b2565b81835260209160248385019160051b8301019136831161044757602401905b82821061369e5785856024358281116104475761366490369060040161350d565b6044358381116104475761367c90369060040161350d565b90606435938411610447576136986108689436906004016135be565b92614fbc565b83809183356136ac81610436565b815201910190613643565b34610447576020366003190112610447576004356136d481610436565b6136dc613748565b6001600160a01b038116156136f457610868906137a0565b60405162461bcd60e51b815260206004820152602660248201527f4f776e61626c653a206e6577206f776e657220697320746865207a65726f206160448201526564647265737360d01b6064820152608490fd5b6001600160a01b0360985416330361375c57565b606460405162461bcd60e51b815260206004820152602060248201527f4f776e61626c653a2063616c6c6572206973206e6f7420746865206f776e65726044820152fd5b609854906001600160a01b0380911691826001600160601b0360a01b821617609855167f8be0079c531659141344cd1fd0a4f28419497f9722a3daafe3b4186f6b6457e0600080a3565b90600182811c9216801561381a575b602083101461380457565b634e487b7160e01b600052602260045260246000fd5b91607f16916137f9565b634e487b7160e01b600052601160045260246000fd5b91908201809211610d8657565b1561384e57565b60405162461bcd60e51b815260206004820152602360248201527f45524332303a207472616e7366657220746f20746865207a65726f206164647260448201526265737360e81b6064820152608490fd5b156138a657565b60405162461bcd60e51b815260206004820152602660248201527f45524332303a207472616e7366657220616d6f756e7420657863656564732062604482015265616c616e636560d01b6064820152608490fd5b91906001600160a01b03908184169283156139cb576139a9827fddf252ad1be2c89b69c2b068fc378daa952ba7f163c4a11628f55a4df523b3ef946139c6941696613946881515613847565b61398f84613967836001600160a01b03166000526033602052604060002090565b546139748282101561389f565b03916001600160a01b03166000526033602052604060002090565b556001600160a01b03166000526033602052604060002090565b6139b482825461383a565b90556040519081529081906020820190565b0390a3565b60405162461bcd60e51b815260206004820152602560248201527f45524332303a207472616e736665722066726f6d20746865207a65726f206164604482015264647265737360d81b6064820152608490fd5b906001600160a01b0391828116928315613afa578216938415613aaa5780613a997f8c5be1e5ebec7d5bd14f71427d1e84f3dd0314c0f7b2291e5b200ac8c7c3b92594613a816139c6956001600160a01b03166000526034602052604060002090565b906001600160a01b0316600052602052604060002090565b556040519081529081906020820190565b60405162461bcd60e51b815260206004820152602260248201527f45524332303a20617070726f766520746f20746865207a65726f206164647265604482015261737360f01b6064820152608490fd5b60405162461bcd60e51b8152602060048201526024808201527f45524332303a20617070726f76652066726f6d20746865207a65726f206164646044820152637265737360e01b6064820152608490fd5b95939196949290966000549760ff8960081c16158099819a613c6f575b8115613c4f575b5015613bf357613b959789613b8c600160ff196000541617600055565b613bda57613e48565b613b9b57565b613bab61ff001960005416600055565b604051600181527f7f26b83ff96e1f2b6a682f133852f6798a09c465da95921460cefb384740249890602090a1565b613bee61010061ff00196000541617600055565b613e48565b60405162461bcd60e51b815260206004820152602e60248201527f496e697469616c697a61626c653a20636f6e747261637420697320616c72656160448201526d191e481a5b9a5d1a585b1a5e995960921b6064820152608490fd5b303b15915081613c61575b5038613b6f565b6001915060ff161438613c5a565b600160ff8216109150613b68565b60e43561063881610436565b60a43561063881610436565b60c43561063881610436565b6101043561063881610436565b51906107d682610436565b90816020910312610447575161063881610436565b6040513d6000823e3d90fd5b9190826020910312610447576040516020810181811067ffffffffffffffff8211176134915760405291518252565b51906107d68261109a565b519064ffffffffff8216820361044757565b51906107d68261044c565b6101e08183031261044757613d4e613d476134d4565b9282613cda565b8252613d5c60208201613d09565b6020830152613d6d60408201613d09565b6040830152613d7e60608201613d09565b6060830152613d8f60808201613d09565b6080830152613da060a08201613d09565b60a0830152613db160c08201613d14565b60c0830152613dc260e08201613d26565b60e0830152610100613dd5818301613cae565b90830152610120613de7818301613cae565b90830152610140613df9818301613cae565b90830152610160613e0b818301613cae565b90830152610180613e1d818301613d09565b908301526101a0613e2f818301613d09565b90830152613e416101c0809201613d09565b9082015290565b613f399491613fa096989794613e8d613f5a95613e85613e9395613e6a614552565b613e72614575565b613e7d610925613c7d565b953691613587565b923691613587565b91614596565b613ebe613e9e613c89565b6001600160a01b0361010c91166001600160601b0360a01b825416179055565b613ee9613ec9613c95565b6001600160a01b0361010d91166001600160601b0360a01b825416179055565b613f14613ef4613ca1565b6001600160a01b0361010b91166001600160601b0360a01b825416179055565b61011a80546001600160a01b0319166001600160a01b03928316179055958693849190565b166001600160a01b0361011891166001600160601b0360a01b825416179055565b1691613f80836001600160a01b0361011991166001600160601b0360a01b825416179055565b6001600160a01b0361011491166001600160601b0360a01b825416179055565b613fb86109256109256065546001600160a01b031690565b604092835192838093633c5103f760e11b8252602094859160049788915afa9182156108d15761401084879487946000916144d5575b50166001600160a01b0361010a91166001600160601b0360a01b825416179055565b8651633e9b6c6f60e21b815292839182905afa9081156108d15761405a9183916000916144b8575b50166001600160a01b0361011791166001600160601b0360a01b825416179055565b82826140746109256109256065546001600160a01b031690565b865162af394d60e81b815292839182905afa9081156108d1576140bd91839160009161449b575b50166001600160a01b0361010991166001600160601b0360a01b825416179055565b82826140d5610925610117546001600160a01b031690565b865163fbfa77cf60e01b815292839182905afa9081156108d15761411f91839160009161447e575b50166001600160a01b0361011591166001600160601b0360a01b825416179055565b826101148361413861092583546001600160a01b031690565b875163026b1d5f60e01b815293849182905afa80156108d157610925859261418a86614197948a97600091614461575b50166001600160a01b0361010e91166001600160601b0360a01b825416179055565b546001600160a01b031690565b8651631f94a27560e31b815292839182905afa9081156108d1576141e093600092614444575b5050166001600160a01b0361011291166001600160601b0360a01b825416179055565b61424261010e926141fb61092585546001600160a01b031690565b61421161092561010b546001600160a01b031690565b93825194856335ea6a7560e01b9384825281806101e09889958783019190916001600160a01b036020820193169052565b03915afa80156108d157614274610925610100614294936142e299600091614427575b5001516001600160a01b031690565b6001600160a01b0361010f91166001600160601b0360a01b825416179055565b836142a961092588546001600160a01b031690565b6142bf61092561010d546001600160a01b031690565b90855180809981948883528783019190916001600160a01b036020820193169052565b03915afa9485156108d1576000956143f6575b509083929161434161092561437a979861418a614321610925610140809d01516001600160a01b031690565b6001600160a01b0361011091166001600160601b0360a01b825416179055565b9161435861092561010c546001600160a01b031690565b935196879485938493845283019190916001600160a01b036020820193169052565b03915afa9283156108d1576107d6936143a993610925936000926143c9575b505001516001600160a01b031690565b6001600160a01b0361011191166001600160601b0360a01b825416179055565b6143e89250803d106143ef575b6143e081836134b2565b810190613d31565b3880614399565b503d6143d6565b61437a95509061434161092561441b87969594873d89116143ef576143e081836134b2565b975050509091926142f5565b61443e9150893d8b116143ef576143e081836134b2565b38614265565b61445a9250803d10610a3d57610a2d81836134b2565b38806141bd565b6144789150873d8911610a3d57610a2d81836134b2565b38614168565b6144959150853d8711610a3d57610a2d81836134b2565b386140fd565b6144b29150853d8711610a3d57610a2d81836134b2565b3861409b565b6144cf9150853d8711610a3d57610a2d81836134b2565b38614038565b6144ec9150853d8711610a3d57610a2d81836134b2565b38613fee565b156144f957565b60405162461bcd60e51b815260206004820152602b60248201527f496e697469616c697a61626c653a20636f6e7472616374206973206e6f74206960448201526a6e697469616c697a696e6760a81b6064820152608490fd5b61456c60ff60005460081c16614567816144f2565b6144f2565b6107d6336137a0565b61458a60ff60005460081c16614567816144f2565b60ff1960ca541660ca55565b9092916145ae60ff60005460081c16614567816144f2565b835167ffffffffffffffff8111613491576145d3816145ce6036546137ea565b6146cf565b602080601f83116001146146395750908061461093926107d6969760009261462e575b50508160011b916000199060031b1c1916176036556147b1565b6001600160a01b03166001600160601b0360a01b6065541617606555565b0151905038806145f6565b90601f1983169661466c60366000527f4a11f94e20a93c79f6ec743a1954ec4fc2c08429ae2122118bf234b2185c81b890565b926000905b8982106146b757505091839160019361461096956107d6999a1061469e575b505050811b016036556147b1565b015160001960f88460031b161c19169055388080614690565b80600185968294968601518155019501930190614671565b601f81116146db575050565b600090603682527f4a11f94e20a93c79f6ec743a1954ec4fc2c08429ae2122118bf234b2185c81b8906020601f850160051c83019410614736575b601f0160051c01915b82811061472b57505050565b81815560010161471f565b9092508290614716565b601f811161474c575050565b600090603782527f42a7b7dd785cd69714a189dffb3fd7d7174edc9ece837694ce50f7078f7c31ae906020601f850160051c830194106147a7575b601f0160051c01915b82811061479c57505050565b818155600101614790565b9092508290614787565b90815167ffffffffffffffff8111613491576147d7816147d26037546137ea565b614740565b602080601f83116001146148135750819293600092614808575b50508160011b916000199060031b1c191617603755565b0151905038806147f1565b90601f1983169461484660376000527f42a7b7dd785cd69714a189dffb3fd7d7174edc9ece837694ce50f7078f7c31ae90565b926000905b87821061488357505083600195961061486a575b505050811b01603755565b015160001960f88460031b161c1916905538808061485f565b8060018596829496860151815501950193019061484b565b90816020910312610447575161063881612a17565b6148b86148f1565b600160ff1960ca54161760ca557f62e78cea01bee320cd4e420270b5ea74000d11b0c9f74754ebdbfc544b05a2586020604051338152a1565b60ff60ca54166148fd57565b60405162461bcd60e51b815260206004820152601060248201526f14185d5cd8589b194e881c185d5cd95960821b6044820152606490fd5b60ca5460ff811615610edb5760ff191660ca557f5db9ee0a495bf2e6ff9c91a7834c1ba4fdd244a5e8aa4e537bd38aeae4b073aa6020604051338152a1565b90816020910312610447575190565b60405163a9059cbb60e01b60208201526001600160a01b039290921660248301526044808301939093529181526107d6916149bf6064836134b2565b614a23565b156149cb57565b60405162461bcd60e51b815260206004820152602a60248201527f5361666545524332303a204552433230206f7065726174696f6e20646964206e6044820152691bdd081cdd58d8d9595960b21b6064820152608490fd5b6001600160a01b03169060405190614a3a82613496565b6020928383527f5361666545524332303a206c6f772d6c6576656c2063616c6c206661696c656484840152803b15614ab15760008281928287614a8c9796519301915af1614a86614af6565b90614b26565b80519081614a9957505050565b826107d693614aac93830101910161489b565b6149c4565b60405162461bcd60e51b815260048101859052601d60248201527f416464726573733a2063616c6c20746f206e6f6e2d636f6e74726163740000006044820152606490fd5b3d15614b21573d90614b078261356b565b91614b1560405193846134b2565b82523d6000602084013e565b606090565b90919015614b32575090565b815115614b425750805190602001fd5b60405162461bcd60e51b815260206004820152908190614b669060248301906105e7565b0390fd5b9190826040910312610447576020825192015190565b6040516335c5382560e01b815260fc600482015260207367D1aB726403935814Ea0E3A0364BB739810f5D48183602481845af49283156108d157600093614ccb575b508215614c79575b8215614c27575b8215614bdc57505090565b6040516368b47bdd60e01b815260fc60048201529192508290829060249082905af49182156108d157600092614c1157505090565b6106389250803d106110935761108481836134b2565b604051634ea6949160e01b815260fc60048201529092508181602481865af49081156108d157600091614c5c575b5091614bd1565b614c739150823d84116110935761108481836134b2565b38614c55565b60405163e01baf4f60e01b815260fc60048201529092508181602481865af49081156108d157600091614cae575b5091614bca565b614cc59150823d84116110935761108481836134b2565b38614ca7565b614ce3919350823d84116110935761108481836134b2565b9138614bc2565b519081600f0b820361044757565b9190826040910312610447576106386020614d1284614cea565b9301614cea565b906001600160a01b038216918215614d985760355490828201809211610d8657614d59916035556001600160a01b03166000526033602052604060002090565b805490828201809211610d86576000927fddf252ad1be2c89b69c2b068fc378daa952ba7f163c4a11628f55a4df523b3ef9260209255604051908152a3565b60405162461bcd60e51b815260206004820152601f60248201527f45524332303a206d696e7420746f20746865207a65726f2061646472657373006044820152606490fd5b9290604051926323b872dd60e01b60208501526001600160a01b03809216602485015216604483015260648201526064815260a081019181831067ffffffffffffffff841117613491576107d692604052614a23565b90612710918203918211610d8657565b91908203918211610d8657565b6001600160a01b038116908115614f3357614e7e816001600160a01b03166000526033602052604060002090565b54838110614ee357837fddf252ad1be2c89b69c2b068fc378daa952ba7f163c4a11628f55a4df523b3ef92614ece6000966139c69403916001600160a01b03166000526033602052604060002090565b55610e39614ede82603554614e43565b603555565b60405162461bcd60e51b815260206004820152602260248201527f45524332303a206275726e20616d6f756e7420657863656564732062616c616e604482015261636560f01b6064820152608490fd5b60405162461bcd60e51b815260206004820152602160248201527f45524332303a206275726e2066726f6d20746865207a65726f206164647265736044820152607360f81b6064820152608490fd5b15614f8957565b60405162461bcd60e51b815260206004820152600b60248201526a5a45524f5f41535345545360a81b6044820152606490fd5b926001600160a01b03928361011b541633036150d05760ff6101045416156150be577367D1aB726403935814Ea0E3A0364BB739810f5D493843b1561044757929190604051958694628453fd60e51b865260a4860160fc600488015260a06024880152825180915260c48701926020809101926000905b8382106150a157505050505060009593859361507485946150646150839560031995868983030160448a01526150e2565b90848783030160648801526150e2565b918483030160848501526105e7565b03915af480156108d1576150945750565b806116d56107d69261347d565b8451811686528b9950948201949382019360019190910190615033565b604051637869c16160e11b8152600490fd5b60405163f4a8e62160e01b8152600490fd5b90815180825260208080930193019160005b828110615102575050505090565b8351855293810193928101926001016150f4565b60405163ab42ed5760e01b815260fc60048201526020816024817367D1aB726403935814Ea0E3A0364BB739810f5D45af49081156108d157600091615159575090565b610638915060203d8111610a7557610a6581836134b2565b9069d3c21bcecceda100000091828102928184041490151715610d8657565b9061271091828102928184041490151715610d8657565b81810292918115918404141715610d8657565b6c0c9f2c9cd04674edea400000009081810291818304149015178215151615610447570490565b81810291818304149015178215151615610447570490565b1561044757565b600160801b91600019838309928260801b9283808610950394808603951461527f579082916152308684116151f9565b0981806000031680920460028082600302188083028203028083028203028083028203028083028203028083028203028092029003029360018380600003040190848311900302920304170290565b5050915061528e8215156151f9565b0490565b604051631acd643160e11b815260fc600482015260006024820152906020826044817367D1aB726403935814Ea0E3A0364BB739810f5D45af49182156108d157600092615301575b50818102918183041490151760011615610447576c0c9f2c9cd04674edea40000000900490565b61531a91925060203d8111610a7557610a6581836134b2565b90386152da565b91909160008382019384129112908015821691151617610d8657565b81810392916000138015828513169184121617610d8657565b600160ff1b8110156153655790565b60405162461bcd60e51b81526020600482015260086024820152674f766572666c6f7760c01b6044820152606490fd5b602460206001600160a01b0361010f5416604051928380926370a0823160e01b82523060048301525afa80156108d1576153de6153e791610638936000916153f2575b50615356565b60fe549061533d565b611f3860ff54615356565b61540a915060203d8111610a7557610a6581836134b2565b386153d8565b61010554604051631b22edb960e01b815260fc6004820152600160248201526020816044817367D1aB726403935814Ea0E3A0364BB739810f5D45af49081156108d157600091615479575b5060008183111561547357508103908111610d865790565b91505090565b615491915060203d8111610a7557610a6581836134b2565b3861545b565b60355460009190806154a95750905090565b604051631b22edb960e01b815260fc600482015260016024820152916020836044817367D1aB726403935814Ea0E3A0364BB739810f5D45af49283156108d15761063894936154f9575b506151e1565b61551291935060203d8111610a7557610a6581836134b2565b91386154f3565b6035546000908061552957505090565b909160405190631b22edb960e01b825260fc60048301528360248301526020826044817367D1aB726403935814Ea0E3A0364BB739810f5D45af49182156108d157610638949261557957506151e1565b61559291925060203d8111610a7557610a6581836134b2565b90386154f3565b9060405163011e1eed60e71b815260fc6004820152826024820152600160448201526020816064817367D1aB726403935814Ea0E3A0364BB739810f5D45af49081156108d1576000916155ff575b506155f181615497565b908303928311610d86579190565b615617915060203d8111610a7557610a6581836134b2565b386155e7565b603554156156b35761562e90615519565b9060405163011e1eed60e71b815260fc6004820152826024820152600160448201526020816064817367D1aB726403935814Ea0E3A0364BB739810f5D45af49081156108d157600091615695575b50820391808311610d8657826156919161383a565b9190565b6156ad915060203d8111610a7557610a6581836134b2565b3861567c565b90600090565b9060355480156157da5760405163011e1eed60e71b815260fc600482015260248101849052600060448201526020917367D1aB726403935814Ea0E3A0364BB739810f5D4908383606481855af49283156108d1576000936157b7575b5061571f90615190565b604051631b22edb960e01b815260fc600482015260006024820152918490839060449082905af49384156108d157610638946157949361578d9260009261579a575b505061578761578261577b6101045461ffff9060481c1690565b61ffff1690565b614e33565b906151a7565b90836157e0565b93614e43565b6157b09250803d10610a7557610a6581836134b2565b3880615761565b61571f9193506157d390853d8711610a7557610a6581836134b2565b9290615715565b50600090565b9190918281029281840414901517811515161561044757600190600019830104019015150290565b603554156156b35761581990615519565b60405163011e1eed60e71b815260fc600482015260248101829052600060448201529091906020816064817367D1aB726403935814Ea0E3A0364BB739810f5D45af49081156108d1576000916158a5575b5061587e61ffff6101045460481c16614e33565b92838202938285041482151760011615610447576127109161589f91614e43565b92049190565b6158bd915060203d8111610a7557610a6581836134b2565b3861586a565b7367D1aB726403935814Ea0E3A0364BB739810f5D4803b1561044757600060449160405192838092638331458760e01b825260fc6004830152600160248301525af480156108d1576159125750565b6107d69061347d565b7367D1aB726403935814Ea0E3A0364BB739810f5D4803b1561044757600060449160405192838092638331458760e01b825260fc60048301528460248301525af480156108d1576159125750565b604080516373c2549d60e11b815260fc60048201527367D1aB726403935814Ea0E3A0364BB739810f5D491908181602481865af49081156108d1576159e5916020916000908192615a95575b50845163199aa16760e21b815260fc60048201526024810191909152604481019190915291829081906064820190565b0381865af49081156108d157600091615a77575b50615a0261591b565b823b1561044757815163a07ae7bb60e01b815260fc6004820152600081602481875af480156108d157615a64575b50823b15610447579051635941106d60e01b815260fc60048201526024810191909152906000908290818060448101615083565b806116d5615a719261347d565b38615a30565b615a8f915060203d8111610a7557610a6581836134b2565b386159f9565b9050615aae9150843d8611611c2357611c1681836134b2565b90386159b5565b604080516373c2549d60e11b815260fc600482015291907367D1aB726403935814Ea0E3A0364BB739810f5D4908084602481855af49182156108d1576000948593615bc6575b508151633859f9b960e21b815260fc6004820152600060248201526020959093908685604481865af49485156108d157615b7e968896615b4392600091615ba9575b50614e43565b93519586948593849363a999987d60e01b855260048501608091949360009360a083019660fc84526020840152604083015260608201520152565b03915af480156108d157615b90575050565b81615ba692903d106110935761108481836134b2565b50565b615bc09150883d8a11610a7557610a6581836134b2565b38615b3d565b90925081615be19295503d8611611c2357611c1681836134b2565b9390939138615afb565b615bf3615116565b6101055410615cfa57604080516373c2549d60e11b815260fc6004820152907367D1aB726403935814Ea0E3A0364BB739810f5D48183602481845af49283156108d1576000908194615cd8575b508251633859f9b960e21b815260fc6004820152600060248201526020949092908584604481855af49283156108d157615b7e958795600095615cb9575b50519586948593849363a999987d60e01b855260048501608091949360009360a083019660fc84526020840152604083015260608201520152565b615cd1919550863d8811610a7557610a6581836134b2565b9338615c7e565b9050615cf2919350823d8411611c2357611c1681836134b2565b929038615c40565b6040516324d758c360e21b8152600490fdfea164736f6c6343000812000a",
  "deployedBytecode": "0x6080604052600436101561001257600080fd5b60003560e01c80624ec12b1461043157806301e1d1141461042c57806306fdde031461042757806307a2d13a14610422578063095ea7b31461041d5780630a28a477146104185780630ee31e9414610413578063138cc18f1461040e57806318160ddd146104095780631f5edd8d1461040457806323b872dd146103ff57806330af302d146103fa578063313ce567146103f557806338d52e0f146103f057806339509351146103eb5780633d672a45146103e65780633f4ba83a146103e1578063402d267d146103dc578063402d8883146103d7578063476343ee146103d257806347f24f4b146103cd5780634cdad506146103c8578063520c5fd9146103c3578063554070bc146103be57806359f3fe22146103b95780635c975abb146103b45780635c9a9b55146103af57806365eda557146103aa5780636e553f65146103a557806370a082311461031e578063715018a6146103a05780637d7c2a1c1461039b57806382100a50146103965780638456cb59146103915780638d315d7b1461038c5780638da5cb5b1461038757806394bf804d1461038257806395956cc11461037d57806395d89b411461037857806395e2da7c146103735780639c3977b51461036e578063a457c2d714610369578063a9059cbb14610364578063b3d7f6b91461035f578063b460af941461035a578063b811ad7014610355578063ba08765214610350578063ba7cc8d11461034b578063bb8234d114610346578063bf9571f114610341578063c63d75b61461033c578063c6e6f59214610337578063cad42dca14610332578063ce96cb771461032d578063d12f13b714610328578063d627b53014610323578063d905777e1461031e578063dbd5edc714610319578063dd62ed3e14610314578063e0120cf81461030f578063e245b5af1461030a578063ec279a1814610305578063edbcc59914610300578063ef8b30f7146102fb578063f04f2707146102f65763f2fde38b146102f157600080fd5b6136b7565b6135d9565b613449565b613406565b6133e8565b613306565b613208565b6131a3565b613184565b611883565b61315f565b6130c2565b613084565b613021565b613003565b612fd5565b612ac6565b612a21565b612991565b612861565b612731565b6125ee565b6125a7565b61257d565b6124ca565b61246c565b612402565b61235b565b6121ff565b611fd0565b611fa9565b611e1c565b611dc2565b611d77565b61191f565b6118c1565b611757565b611558565b611354565b611331565b6112d6565b6112b8565b611270565b611252565b6110ab565b610fa4565b610f3d565b610f17565b610e83565b610d8b565b610d28565b610d01565b610ce5565b610b7b565b610a99565b6108f4565b6108d6565b61086a565b6107d8565b610773565b61073e565b610720565b61063b565b6105c4565b610458565b6001600160a01b0381160361044757565b600080fd5b61ffff81160361044757565b346104475760a03660031901126104475760043561047581610436565b60243561048181610436565b604435916064356104918161044c565b6084359062ffffff82168203610447576104a9613748565b61271061ffff8216116105a75760fc80546001600160a01b0319166001600160a01b038581169190911790915561010586905561010480546dffffffffff0000000000000000001916604884901b6affff000000000000000000161760589490941b62ffffff60581b16939093179092557fe15ba51cde2870a515ffc9834f5ac1bb010e259ba47eda16968c5bc5be83cbf6946105a2926105669086166001600160a01b0361011c91166001600160601b0360a01b825416179055565b604051948594859293608092959461ffff9260a08601976001600160a01b03809216875216602086015260408501526000606085015216910152565b0390a1005b6040516312ee160b60e11b8152600490fd5b600091031261044757565b346104475760003660031901126104475760206105df615116565b604051908152f35b919082519283825260005b848110610613575050826000602080949584010152601f8019910116010190565b6020818301810151848301820152016105f2565b9060206106389281815201906105e7565b90565b346104475760008060031936011261071d57604051908060365461065e816137ea565b808552916001918083169081156106f35750600114610698575b61069485610688818703826134b2565b60405191829182610627565b0390f35b9250603683527f4a11f94e20a93c79f6ec743a1954ec4fc2c08429ae2122118bf234b2185c81b85b8284106106db57505050810160200161068882610694610678565b805460208587018101919091529093019281016106c0565b8695506106949693506020925061068894915060ff191682840152151560051b8201019293610678565b80fd5b346104475760203660031901126104475760206105df600435615519565b346104475760403660031901126104475761076860043561075e81610436565b6024359033613a1e565b602060405160018152f35b346104475760203660031901126104475760206107916004356156b9565b50604051908152f35b9181601f840112156104475782359167ffffffffffffffff8311610447576020838186019501011161044757565b61012435906107d682610436565b565b34610447576101403660031901126104475767ffffffffffffffff6004358181116104475761080b90369060040161079a565b916024359081116104475761082490369060040161079a565b60443561083081610436565b6064359161083d83610436565b6084359361084a85610436565b60803660a319011261044757610868966108626107c8565b96613b4b565b005b346104475760008060031936011261071d5773__$2af743edc7b1c16cb7d679fc921122aeb9$__81813b1561071d5760405163a07ae7bb60e01b815260fc600482015291829060249082905af480156108d1576108c5575080f35b6108ce9061347d565b80f35b613cce565b34610447576000366003190112610447576020603554604051908152f35b346104475760008060031936011261071d5761090e613748565b61011861093161092582546001600160a01b031690565b6001600160a01b031690565b906040518092633671df2560e01b825281600460209586935afa9081156108d1578491610a7c575b5060405190634e71d92d60e01b82528382600481886001600160a01b038096165af19182156108d15784908693610a44575b506109da610925600494957f0124e1b96155213f77e0118f51f6173eb3606f76d89ba9dfc6a00fc629cb7dee604051806109ca8a829190602083019252565b0390a1546001600160a01b031690565b6040516331e67c7160e01b815293849182905afa9182156108d1576108ce948693610a15575b505060fd546001600160a01b03169116614983565b610a35929350803d10610a3d575b610a2d81836134b2565b810190613cb9565b903880610a00565b503d610a23565b60049350610925610a6d6109da92843d8611610a75575b610a6581836134b2565b810190614974565b94505061098b565b503d610a5b565b610a939150833d8511610a3d57610a2d81836134b2565b38610959565b3461044757606036600319011261044757600435610ab681610436565b602435610ac281610436565b604435906001600160a01b0383166000526034602052610af9336040600020906001600160a01b0316600052602052604060002090565b549260018401610b1a575b610b0e93506138fa565b60405160018152602090f35b828410610b3657610b3183610b0e95033383613a1e565b610b04565b60405162461bcd60e51b815260206004820152601d60248201527f45524332303a20696e73756666696369656e7420616c6c6f77616e63650000006044820152606490fd5b346104475760603660031901126104475760043563ffffffff8116908181036104475760243590610bab8261044c565b6203f48060443593610bbc8561044c565b610bc4613748565b11610cd45761271061ffff8181851611610cc2578416908110908115610cb5575b50610ca35761010680546bffffffff00000000000000001916604083901b6bffffffff0000000000000000161790557f74666b2773815375e6daaf777fe5b0b6f04a4a15373485cfaf2cf48251b21d9e926105a290610106805461ffff60601b1916606086901b61ffff60601b16179055610106805467ffff0000000000001916603083901b67ffff000000000000161790556040519384938491604091949363ffffffff606085019616845261ffff809216602085015216910152565b60405163149d3c7560e21b8152600490fd5b9050610100541038610be5565b60405163fd24448b60e01b8152600490fd5b6040516228254960e21b8152600490fd5b3461044757600036600319011261044757602060405160128152f35b346104475760003660031901126104475760206001600160a01b0360655416604051908152f35b3461044757604036600319011261044757600435610d4581610436565b336000526034602052610d6f816040600020906001600160a01b0316600052602052604060002090565b546024358101809111610d86576107689133613a1e565b613824565b3461044757600036600319011261044757610db2610925610117546001600160a01b031690565b60405163019c8a3b60e11b8152600060048201526020918290829060249082905afa80156108d157600491600091610e66575b5082610dfd61092561010a546001600160a01b031690565b6040516318160ddd60e01b815293849182905afa9283156108d15761069493610e3993610e3392600092610e49575b5050615171565b90615200565b6040519081529081906020820190565b610e5f9250803d10610a7557610a6581836134b2565b3880610e2c565b610e7d9150833d8511610a7557610a6581836134b2565b38610de5565b3461044757600036600319011261044757610e9c613748565b60ca5460ff811615610edb5760ff191660ca557f5db9ee0a495bf2e6ff9c91a7834c1ba4fdd244a5e8aa4e537bd38aeae4b073aa6020604051338152a1005b60405162461bcd60e51b815260206004820152601460248201527314185d5cd8589b194e881b9bdd081c185d5cd95960621b6044820152606490fd5b3461044757602036600319011261044757610f33600435610436565b60206105df615410565b346104475760008060031936011261071d57610f57613748565b806001600160a01b0361011c5416610f6d615395565b90803b15610fa057602483926040519485938492631b8fec7360e11b845260048401525af180156108d1576108c5575080f35b5050fd5b346104475760008060031936011261071d5761101f6101018281549155602081610fe06001600160a01b0361010c54166001600160a01b031690565b60fd546001600160a01b03168660405180978195829463a9059cbb60e01b845260048401602090939291936001600160a01b0360408201951681520152565b03925af19081156108d1577f9800e6f57aeb4360eaa72295a820a4293e1e66fbfcabcd8874ae141304a76deb926110669261106c575b506040519081529081906020820190565b0390a180f35b61108c9060203d8111611093575b61108481836134b2565b81019061489b565b5038611055565b503d61107a565b6001600160801b0381160361044757565b3461044757610100366003190112610447576004356110c98161044c565b6024356110d58161044c565b604435916110e28361044c565b606435926110ef8461109a565b6084356110fb8161109a565b60a4356111078161109a565b60c435906111148261109a565b60e435926111218461109a565b611129613748565b61271061ffff81818916116112405781818a161161122e5786161161121c5761010680546fffffffffffffffffffffffffffffffff60701b607084901b167fffff00000000000000000000000000000000ffffffffffffffff00000000000090911663ffff000060108a901b161765ffff0000000060208b901b161761ffff881617179055608082901b6001600160801b0319166001600160801b03891617610107557f8405afe6e9767f91c282339dc75edd776ddeda3e9aad8e1bb15471db89f8d867976105a295608086901b6001600160801b0319166001600160801b03861617610108556040519889988961241d565b6040516378fd03f760e01b8152600490fd5b604051632722719960e21b8152600490fd5b60405163669169e560e01b8152600490fd5b34610447576020366003190112610447576020610791600435615808565b346104475760203660031901126104475760043561128d81610436565b611295613748565b6001600160a01b0361011791166001600160601b0360a01b825416179055600080f35b346104475760203660031901126104475760206105df600435615292565b346104475760003660031901126104475760a06001600160a01b0362ffffff8160fc54169161011c54166101055461010454916040519485526020850152604084015261ffff8160481c16606084015260581c166080820152f35b3461044757600036600319011261044757602060ff60ca54166040519015158152f35b346104475760803660031901126104475760043561137181610436565b60243561137d81610436565b6044359160643561138d81610436565b611395613748565b614e2084116115465761011b80546001600160a01b0319166001600160a01b03841617905561011a80546001600160a01b0319166001600160a01b0385161790556113e08461010055565b61011380546001600160a01b0319166001600160a01b038316179055611412610925610114546001600160a01b031690565b936040519463026b1d5f60e01b86526020928387600481855afa80156108d157600497600091611529575b5061010e80546001600160a01b0319166001600160a01b03928316908117909155928590604051631f94a27560e31b8152998a9182905afa80156108d1577f04a2e4917e8cf09fc5f74a42cb8b240cb288a69c78dbf02719e5c7bf9ca1561e986105a29660009261150c575b505016926114d1846001600160a01b0361011291166001600160601b0360a01b825416179055565b604080516001600160a01b0397881681529787166020890152870152841660608601528316608085015290911660a0830152819060c0820190565b6115229250803d10610a3d57610a2d81836134b2565b38806114a9565b6115409150853d8711610a3d57610a2d81836134b2565b3861143d565b60405163361804a960e21b8152600490fd5b346104475760008060031936011261071d57611572613748565b61011861158961092582546001600160a01b031690565b9060409182518091633671df2560e01b825281600460209485935afa9283156108d15785918294611738575b506001600160a01b03809416803b156117345782906004875180958193633ccfd60b60e01b83525af19081156108d1576116009261092592611721575b50546001600160a01b031690565b918351630d43254f60e31b81528281600481875afa9182156108d15783918793611702575b5085516370a0823160e01b81523060048201529283916024918391165afa9182156108d15785926116e5575b5050813b156116e1578251633be3166560e21b8152600481018290529184908390602490829084905af180156108d1576108ce936116c2937f5663ef0eef5f33e3884097c3ec29a0bfbc957992d83512d046b5fc3d35bd8f3e926116c8575b5051828152602090a16101025461383a565b61010255565b806116d56116db9261347d565b806105b9565b386116b0565b8380fd5b6116fb9250803d10610a7557610a6581836134b2565b3880611651565b61171a919350823d8411610a3d57610a2d81836134b2565b9138611625565b806116d561172e9261347d565b386115f2565b8280fd5b611750919450833d8511610a3d57610a2d81836134b2565b92386115b5565b346104475760403660031901126104475760243560043561177782610436565b61177f6148f1565b611787615969565b602061179282615599565b90507f77439e914e0fa88dfd909bd08c755cb526ba370acd4f08f8f9b353581a0177596001600160a01b038516928392604051908152a26117d282615599565b509182156118505761180c8361069495611807846117fe6109256109256065546001600160a01b031690565b30903390614ddd565b614d19565b604080519182526020820184905233917fdcbc1c05240f31ff3ad067ef1ee35ce4997762752e3a095284754544f4c709d79190a3611848615beb565b610e396158c3565b60405162461bcd60e51b815260206004820152600b60248201526a5a45524f5f53484152455360a81b6044820152606490fd5b34610447576020366003190112610447576001600160a01b036004356118a881610436565b1660005260336020526020604060002054604051908152f35b346104475760008060031936011261071d576118db613748565b806001600160a01b036098546001600160601b0360a01b8116609855167f8be0079c531659141344cd1fd0a4f28419497f9722a3daafe3b4186f6b6457e08280a380f35b346104475760008060031936011261071d576001600160a01b0360fc5416803303611d595750611954611950614b80565b1590565b611d4757604080517fc741dbaad15a4f298fe8d80943fa8e005e7bcb2f5b0a0c8dec1fc35be457f1468380a173__$2af743edc7b1c16cb7d679fc921122aeb9$__6322b3d72160e11b82526004918381806119b68682019060fc602083019252565b0381855af480156108d157611a199186908792611d15575b506119f29061011f906001600160801b0319825416906001600160801b0316179055565b61011f805490916001600160801b0390911660809190911b6001600160801b031916179055565b8251916373c2549d60e11b91828452848480611a3c8582019060fc602083019252565b0381845af49283156108d15786948794611cf0575b50855163199aa16760e21b815260fc8482019081526020818101889052604082018790529591908690829081906060010381875af49081156108d1578991611cd3575b50611a9d61591b565b833b15611ccf57875163a07ae7bb60e01b8152898180611ac48982019060fc602083019252565b0381885af480156108d157611cbc575b5088843b1561071d578851635941106d60e01b815260fc878201908152602081019390935291829081906040010381875af480156108d157611ca9575b50865195633859f9b960e21b8752858780611b3a8882019060006020604084019360fc81520152565b0381875af49687156108d1578997611c86575b50908591611b8c8951988993849363a999987d60e01b8552898501608091949360019360a083019660fc84526020840152604083015260608201520152565b0381855af480156108d157611be79587958992611c69575b505015611c3757610104805466ffffffffffff0019169055611bcb61195060ca5460ff1690565b611c2a575b8351809581948293835282019060fc602083019252565b03915af480156108d157611bff575b826108ce6158c3565b81611c1e92903d10611c23575b611c1681836134b2565b810190614b6a565b611bf6565b503d611c0c565b611c326148b0565b611bd0565b610104805466ffffffffffff0019164260081b66ffffffffffff001617905560ca5460ff1615611bd057611c32614935565b611c7f9250803d106110935761108481836134b2565b3880611ba4565b8692919750611ca190833d8511610a7557610a6581836134b2565b969091611b4d565b806116d5611cb69261347d565b38611b11565b806116d5611cc99261347d565b38611ad4565b8880fd5b611cea9150863d8811610a7557610a6581836134b2565b38611a94565b909350611d0b919450853d8711611c2357611c1681836134b2565b9390939238611a51565b6119f29250611d3a9150863d8811611d40575b611d3281836134b2565b810190614cf8565b916119ce565b503d611d28565b60405163a039e79960e01b8152600490fd5b604490604051906329b7946d60e01b82523360048301526024820152fd5b346104475760003660031901126104475760806001600160a01b038061011b5416908061011a5416906101005490610113541691604051938452602084015260408301526060820152f35b3461044757600036600319011261044757611ddb613748565b611de36148f1565b600160ff1960ca54161760ca557f62e78cea01bee320cd4e420270b5ea74000d11b0c9f74754ebdbfc544b05a2586020604051338152a1005b346104475760008060031936011261071d57604080516373c2549d60e11b815260fc600482015273__$2af743edc7b1c16cb7d679fc921122aeb9$__8282602481845af49182156108d15784908593611f87575b50835163199aa16760e21b815260fc600482015260248101919091526044810192909252602091908290829060649082905af49081156108d1578491611f6a575b50611ec8610925610109546001600160a01b031690565b83516370a0823160e01b815230600482015294908390869060249082905afa80156108d157611f21611f18611f13611f329361069499611f3e98611f389792611f4d575b5050615292565b615356565b60fe5490615321565b611f2c60ff54615356565b90615321565b91615356565b9061533d565b90519081529081906020820190565b611f639250803d10610a7557610a6581836134b2565b3880611f0c565b611f819150823d8411610a7557610a6581836134b2565b38611eb1565b9050611fa1919250833d8511611c2357611c1681836134b2565b919038611e70565b346104475760003660031901126104475760206001600160a01b0360985416604051908152f35b34610447576040806003193601126104475760043560243591611ff283610436565b611ffa6148f1565b612002615969565b61200b8261561d565b9390506001600160a01b039261206781858416938551978852847f77439e914e0fa88dfd909bd08c755cb526ba370acd4f08f8f9b353581a0177596020809aa26118076120578361561d565b5080986065541630903390614ddd565b8251848152602081019190915233907fdcbc1c05240f31ff3ad067ef1ee35ce4997762752e3a095284754544f4c709d790604090a36120a4615116565b61010554106121ef5780516373c2549d60e11b815260fc60048201529273__$2af743edc7b1c16cb7d679fc921122aeb9$__8285602481845af480156108d15760009586916121cc575b508351633859f9b960e21b815260fc600482015260006024820152918383604481845af49182156108d1576121639785946000946121ad575b5086519889948593849363a999987d60e01b855260048501608091949360009360a083019660fc84526020840152604083015260608201520152565b03915af49384156108d1576106949461218f575b50506121816158c3565b519081529081906020820190565b816121a592903d106110935761108481836134b2565b503880612177565b6121c5919450853d8711610a7557610a6581836134b2565b9238612127565b90506121e6919550833d8511611c2357611c1681836134b2565b949094386120ee565b516324d758c360e21b8152600490fd5b346104475760008060031936011261071d57612219613748565b6101025461011861223461092582546001600160a01b031690565b90813b156116e1576040516364f6446760e01b8152600481018490529184908390602490829084905af19182156108d157610925602092612284926004956117215750546001600160a01b031690565b604051633671df2560e01b815292839182905afa80156108d1576001600160a01b0391849161233d575b501690813b156117345760405163b6b55f2560e01b8152600481018290529183908390602490829084905af19081156108d1577f275563740cc51fbb46511cec625978872b9c5093b106db5ce55e071e57f249619261231c9261232a57506040519081529081906020820190565b0390a16108ce600061010255565b806116d56123379261347d565b38611055565b612355915060203d8111610a3d57610a2d81836134b2565b386122ae565b346104475760008060031936011261071d57604051908060375461237e816137ea565b808552916001918083169081156106f357506001146123a75761069485610688818703826134b2565b9250603783527f42a7b7dd785cd69714a189dffb3fd7d7174edc9ece837694ce50f7078f7c31ae5b8284106123ea57505050810160200161068882610694610678565b805460208587018101919091529093019281016123cf565b346104475760003660031901126104475760206105df615395565b61ffff9182168152918116602083015290911660408201526001600160801b039182166060820152918116608083015291821660a082015291811660c083015290911660e08201526101000190565b34610447576000366003190112610447576101065461010754610694610108546040519384936001600160801b039061ffff92828560801c9516938260801c93808360701c1693169181811691808260201c169160101c168961241d565b34610447576040366003190112610447576004356124e781610436565b60243590336000526034602052612515816040600020906001600160a01b0316600052602052604060002090565b549180831061252a57610b0e92039033613a1e565b60405162461bcd60e51b815260206004820152602560248201527f45524332303a2064656372656173656420616c6c6f77616e63652062656c6f77604482015264207a65726f60d81b6064820152608490fd5b346104475760403660031901126104475761076860043561259d81610436565b60243590336138fa565b3461044757602036600319011261044757602061079160043561561d565b606090600319011261044757600435906024356125e181610436565b9060443561063881610436565b3461044757610694611848612602366125c5565b92919061260d6148f1565b612615615969565b6020612620836156b9565b90506001600160a01b03907f77439e914e0fa88dfd909bd08c755cb526ba370acd4f08f8f9b353581a017759828816938492604051908152a261267e612665856156b9565b5080978433036126da575b61267987615ab5565b614e50565b60408051858152602081018890529184169133917ffbde797d201c681b91056529119e0b02407c7bb96a4a2c75c01fc9667232c8db9190819081015b0390a46126d56109256109256065546001600160a01b031690565b614983565b84600052603460205281612705336040600020906001600160a01b0316600052602052604060002090565b5460018101612716575b5050612670565b61272a9161272391614e43565b3383613a1e565b813861270f565b346104475760008060031936011261071d5761274b613748565b604080516373c2549d60e11b815260fc600482015273__$2af743edc7b1c16cb7d679fc921122aeb9$__8282602481845af49182156108d1576127c49260209186908792612841575b50855163199aa16760e21b815260fc60048201526024810191909152604481019190915292839081906064820190565b0381845af49081156108d15784928392612821575b50803b15611734579251635941106d60e01b815260fc6004820152602481019190915291829060449082905af480156108d157612814575080f35b806116d56108ce9261347d565b61283a91925060203d8111610a7557610a6581836134b2565b90386127d9565b905061285a9150853d8711611c2357611c1681836134b2565b9038612794565b3461044757610694611848612875366125c5565b906128819392936148f1565b612889615969565b602061289485615808565b90506001600160a01b03907f77439e914e0fa88dfd909bd08c755cb526ba370acd4f08f8f9b353581a017759828616938492604051908152a281330361293a575b856128fa6128e282615808565b509788966128f1881515614f82565b61267988615ab5565b6040805186815260208101929092529184169133917ffbde797d201c681b91056529119e0b02407c7bb96a4a2c75c01fc9667232c8db91819081016126ba565b81600052603460205285612965336040600020906001600160a01b0316600052602052604060002090565b5460018101612976575b50506128d5565b61298a9161298391614e43565b3386613a1e565b853861296f565b3461044757600036600319011261044757604080516373c2549d60e11b815260fc6004820152908160248173__$2af743edc7b1c16cb7d679fc921122aeb9$__5af49081156108d15760009081926129f6575b50604080519182526020820192909252f35b9050612a10915060403d8111611c2357611c1681836134b2565b90386129e4565b8015150361044757565b346104475760408060031936011261044757602435612a3f81612a17565b8151906303f7ab5160e61b825260fc6004830152600435602483015215156044820152818160648173__$2af743edc7b1c16cb7d679fc921122aeb9$__5af49182156108d1576000918293612aa1575b50519081526020810191909152604090f35b81612abe92945061069493503d8511611c2357611c1681836134b2565b929091612a8f565b346104475760008060031936011261071d57612ae0613748565b612af661092561010e546001600160a01b031690565b612b0c61092561011a546001600160a01b031690565b9061010d91612b2561092584546001600160a01b031690565b9160409081519363095ea7b360e01b948581526020968782600494818c81612b678a8a83019190916001600160a01b0360408201931681526020600019910152565b03925af19081156108d157612b8c9261092592612f855750546001600160a01b031690565b8684518092888252818b81612bbb8b8983019190916001600160a01b0360408201931681526020600019910152565b03925af180156108d157612fb8575b5061010c612be261092582546001600160a01b031690565b8785518092898252818c81612c118a8a83019190916001600160a01b0360408201931681526020600019910152565b03925af180156108d157612f9b575b50612c3561092582546001600160a01b031690565b908785518093898252818c81612c658c8a83019190916001600160a01b0360408201931681526020600019910152565b03925af19081156108d157612c8a9261092592612f855750546001600160a01b031690565b91612cd48761011794612ca761092587546001600160a01b031690565b90898c895180968195829483528a83019190916001600160a01b0360408201931681526020600019910152565b03925af180156108d157612f68575b50612d2c8761010b92612d0061092585546001600160a01b031690565b898c895180968195829483528a83019190916001600160a01b0360408201931681526020600019910152565b03925af180156108d15789968992612d8492612f4b575b50612d5861092585546001600160a01b031690565b9087519889809481938d83528983019190916001600160a01b0360408201931681526020600019910152565b03925af19081156108d157612daf610925612dee928b988b95612f2e5750546001600160a01b031690565b612dc361092586546001600160a01b031690565b86519788809481938c83528883019190916001600160a01b0360408201931681526020600019910152565b03925af19384156108d1578794612f11575b5085612e31612e1b61092561010f546001600160a01b031690565b612dc361092561011c546001600160a01b031690565b03925af180156108d157612e9f9587958992612ef4575b50612e75610925612e676109256109256065546001600160a01b031690565b95546001600160a01b031690565b945196879586948593845283019190916001600160a01b0360408201931681526020600019910152565b03925af180156108d157612ed6575b827fba5bb3f899c7a3edcc9ff9d46c4e08449c6a608b6f8254132bc5af4898645cbc8180a180f35b81612eec92903d106110935761108481836134b2565b503880612eae565b612f0a90873d89116110935761108481836134b2565b5038612e48565b612f2790873d89116110935761108481836134b2565b5038612e00565b612f4490863d88116110935761108481836134b2565b50386115f2565b612f6190843d86116110935761108481836134b2565b5038612d43565b612f7e90883d8a116110935761108481836134b2565b5038612ce3565b612f44908a3d8c116110935761108481836134b2565b612fb190883d8a116110935761108481836134b2565b5038612c20565b612fce90873d89116110935761108481836134b2565b5038612bca565b3461044757602036600319011261044757612ff1600435610436565b60206105df612ffe615410565b615497565b346104475760203660031901126104475760206105df600435615497565b346104475760403660031901126104475760043561303e81612a17565b6024359061304b82612a17565b613053613748565b61011d805461ffff60a01b191691151560a01b60ff60a01b169190911791151560a81b60ff60a81b16919091179055005b34610447576020366003190112610447576001600160a01b036004356130a981610436565b16600052603360205260206105df604060002054615519565b34610447576040366003190112610447577f0ad868c06d6009b56f49b7d8396d0a6fc92a3474593d2bab6c0382dff84e9d4c60406004356131028161109a565b6001600160a01b036001600160801b036024359261311f84610436565b613127613748565b1691610121836001600160801b031982541617905516610120816001600160601b0360a01b82541617905582519182526020820152a1005b3461044757600036600319011261044757602061317a614b80565b6040519015158152f35b3461044757600036600319011261044757602061010554604051908152f35b346104475760403660031901126104475760206131ff6004356131c581610436565b6001600160a01b03602435916131da83610436565b16600052603483526040600020906001600160a01b0316600052602052604060002090565b54604051908152f35b34610447576040366003190112610447576004356132258161044c565b60243561323181610436565b613239613748565b60fd546001600160a01b038281169116146132f45760fd80546001600160a01b0319166001600160a01b038316179055610bb861ffff8316116132e257610104805468ffff000000000000001916603884901b68ffff00000000000000161790557feecc969cd8da3140016e16b0603215de782af59713abfc5055d917b88f4a7b91916040805161ffff90921682526001600160a01b03909216602082015290819081016105a2565b604051638bff87cf60e01b8152600490fd5b604051630ed1b8b360e31b8152600490fd5b3461044757602080600319360112610447576133638160043561332881612a17565b61333e610925610117546001600160a01b031690565b60405163019c8a3b60e11b815291151560048301529092839190829081906024820190565b03915afa80156108d1576004916000916133cb575b508261339061092561010a546001600160a01b031690565b6040516318160ddd60e01b815293849182905afa9283156108d15761069493610e39936133c592600092610e49575050615171565b906151ba565b6133e29150833d8511610a7557610a6581836134b2565b38613378565b3461044757600036600319011261044757602060fe54604051908152f35b3461044757600036600319011261044757610106546040805163ffffffff83831c16815261ffff606084811c8216602084015260309490941c1691810191909152f35b34610447576020366003190112610447576020610791600435615599565b634e487b7160e01b600052604160045260246000fd5b67ffffffffffffffff811161349157604052565b613467565b6040810190811067ffffffffffffffff82111761349157604052565b90601f8019910116810190811067ffffffffffffffff82111761349157604052565b604051906101e0820182811067ffffffffffffffff82111761349157604052565b67ffffffffffffffff81116134915760051b60200190565b81601f8201121561044757803591613524836134f5565b9261353260405194856134b2565b808452602092838086019260051b820101928311610447578301905b82821061355c575050505090565b8135815290830190830161354e565b67ffffffffffffffff811161349157601f01601f191660200190565b9291926135938261356b565b916135a160405193846134b2565b829481845281830111610447578281602093846000960137010152565b9080601f830112156104475781602061063893359101613587565b346104475760803660031901126104475767ffffffffffffffff6004358181116104475736602382011215610447578060040135613616816134f5565b9161362460405193846134b2565b81835260209160248385019160051b8301019136831161044757602401905b82821061369e5785856024358281116104475761366490369060040161350d565b6044358381116104475761367c90369060040161350d565b90606435938411610447576136986108689436906004016135be565b92614fbc565b83809183356136ac81610436565b815201910190613643565b34610447576020366003190112610447576004356136d481610436565b6136dc613748565b6001600160a01b038116156136f457610868906137a0565b60405162461bcd60e51b815260206004820152602660248201527f4f776e61626c653a206e6577206f776e657220697320746865207a65726f206160448201526564647265737360d01b6064820152608490fd5b6001600160a01b0360985416330361375c57565b606460405162461bcd60e51b815260206004820152602060248201527f4f776e61626c653a2063616c6c6572206973206e6f7420746865206f776e65726044820152fd5b609854906001600160a01b0380911691826001600160601b0360a01b821617609855167f8be0079c531659141344cd1fd0a4f28419497f9722a3daafe3b4186f6b6457e0600080a3565b90600182811c9216801561381a575b602083101461380457565b634e487b7160e01b600052602260045260246000fd5b91607f16916137f9565b634e487b7160e01b600052601160045260246000fd5b91908201809211610d8657565b1561384e57565b60405162461bcd60e51b815260206004820152602360248201527f45524332303a207472616e7366657220746f20746865207a65726f206164647260448201526265737360e81b6064820152608490fd5b156138a657565b60405162461bcd60e51b815260206004820152602660248201527f45524332303a207472616e7366657220616d6f756e7420657863656564732062604482015265616c616e636560d01b6064820152608490fd5b91906001600160a01b03908184169283156139cb576139a9827fddf252ad1be2c89b69c2b068fc378daa952ba7f163c4a11628f55a4df523b3ef946139c6941696613946881515613847565b61398f84613967836001600160a01b03166000526033602052604060002090565b546139748282101561389f565b03916001600160a01b03166000526033602052604060002090565b556001600160a01b03166000526033602052604060002090565b6139b482825461383a565b90556040519081529081906020820190565b0390a3565b60405162461bcd60e51b815260206004820152602560248201527f45524332303a207472616e736665722066726f6d20746865207a65726f206164604482015264647265737360d81b6064820152608490fd5b906001600160a01b0391828116928315613afa578216938415613aaa5780613a997f8c5be1e5ebec7d5bd14f71427d1e84f3dd0314c0f7b2291e5b200ac8c7c3b92594613a816139c6956001600160a01b03166000526034602052604060002090565b906001600160a01b0316600052602052604060002090565b556040519081529081906020820190565b60405162461bcd60e51b815260206004820152602260248201527f45524332303a20617070726f766520746f20746865207a65726f206164647265604482015261737360f01b6064820152608490fd5b60405162461bcd60e51b8152602060048201526024808201527f45524332303a20617070726f76652066726f6d20746865207a65726f206164646044820152637265737360e01b6064820152608490fd5b95939196949290966000549760ff8960081c16158099819a613c6f575b8115613c4f575b5015613bf357613b959789613b8c600160ff196000541617600055565b613bda57613e48565b613b9b57565b613bab61ff001960005416600055565b604051600181527f7f26b83ff96e1f2b6a682f133852f6798a09c465da95921460cefb384740249890602090a1565b613bee61010061ff00196000541617600055565b613e48565b60405162461bcd60e51b815260206004820152602e60248201527f496e697469616c697a61626c653a20636f6e747261637420697320616c72656160448201526d191e481a5b9a5d1a585b1a5e995960921b6064820152608490fd5b303b15915081613c61575b5038613b6f565b6001915060ff161438613c5a565b600160ff8216109150613b68565b60e43561063881610436565b60a43561063881610436565b60c43561063881610436565b6101043561063881610436565b51906107d682610436565b90816020910312610447575161063881610436565b6040513d6000823e3d90fd5b9190826020910312610447576040516020810181811067ffffffffffffffff8211176134915760405291518252565b51906107d68261109a565b519064ffffffffff8216820361044757565b51906107d68261044c565b6101e08183031261044757613d4e613d476134d4565b9282613cda565b8252613d5c60208201613d09565b6020830152613d6d60408201613d09565b6040830152613d7e60608201613d09565b6060830152613d8f60808201613d09565b6080830152613da060a08201613d09565b60a0830152613db160c08201613d14565b60c0830152613dc260e08201613d26565b60e0830152610100613dd5818301613cae565b90830152610120613de7818301613cae565b90830152610140613df9818301613cae565b90830152610160613e0b818301613cae565b90830152610180613e1d818301613d09565b908301526101a0613e2f818301613d09565b90830152613e416101c0809201613d09565b9082015290565b613f399491613fa096989794613e8d613f5a95613e85613e9395613e6a614552565b613e72614575565b613e7d610925613c7d565b953691613587565b923691613587565b91614596565b613ebe613e9e613c89565b6001600160a01b0361010c91166001600160601b0360a01b825416179055565b613ee9613ec9613c95565b6001600160a01b0361010d91166001600160601b0360a01b825416179055565b613f14613ef4613ca1565b6001600160a01b0361010b91166001600160601b0360a01b825416179055565b61011a80546001600160a01b0319166001600160a01b03928316179055958693849190565b166001600160a01b0361011891166001600160601b0360a01b825416179055565b1691613f80836001600160a01b0361011991166001600160601b0360a01b825416179055565b6001600160a01b0361011491166001600160601b0360a01b825416179055565b613fb86109256109256065546001600160a01b031690565b604092835192838093633c5103f760e11b8252602094859160049788915afa9182156108d15761401084879487946000916144d5575b50166001600160a01b0361010a91166001600160601b0360a01b825416179055565b8651633e9b6c6f60e21b815292839182905afa9081156108d15761405a9183916000916144b8575b50166001600160a01b0361011791166001600160601b0360a01b825416179055565b82826140746109256109256065546001600160a01b031690565b865162af394d60e81b815292839182905afa9081156108d1576140bd91839160009161449b575b50166001600160a01b0361010991166001600160601b0360a01b825416179055565b82826140d5610925610117546001600160a01b031690565b865163fbfa77cf60e01b815292839182905afa9081156108d15761411f91839160009161447e575b50166001600160a01b0361011591166001600160601b0360a01b825416179055565b826101148361413861092583546001600160a01b031690565b875163026b1d5f60e01b815293849182905afa80156108d157610925859261418a86614197948a97600091614461575b50166001600160a01b0361010e91166001600160601b0360a01b825416179055565b546001600160a01b031690565b8651631f94a27560e31b815292839182905afa9081156108d1576141e093600092614444575b5050166001600160a01b0361011291166001600160601b0360a01b825416179055565b61424261010e926141fb61092585546001600160a01b031690565b61421161092561010b546001600160a01b031690565b93825194856335ea6a7560e01b9384825281806101e09889958783019190916001600160a01b036020820193169052565b03915afa80156108d157614274610925610100614294936142e299600091614427575b5001516001600160a01b031690565b6001600160a01b0361010f91166001600160601b0360a01b825416179055565b836142a961092588546001600160a01b031690565b6142bf61092561010d546001600160a01b031690565b90855180809981948883528783019190916001600160a01b036020820193169052565b03915afa9485156108d1576000956143f6575b509083929161434161092561437a979861418a614321610925610140809d01516001600160a01b031690565b6001600160a01b0361011091166001600160601b0360a01b825416179055565b9161435861092561010c546001600160a01b031690565b935196879485938493845283019190916001600160a01b036020820193169052565b03915afa9283156108d1576107d6936143a993610925936000926143c9575b505001516001600160a01b031690565b6001600160a01b0361011191166001600160601b0360a01b825416179055565b6143e89250803d106143ef575b6143e081836134b2565b810190613d31565b3880614399565b503d6143d6565b61437a95509061434161092561441b87969594873d89116143ef576143e081836134b2565b975050509091926142f5565b61443e9150893d8b116143ef576143e081836134b2565b38614265565b61445a9250803d10610a3d57610a2d81836134b2565b38806141bd565b6144789150873d8911610a3d57610a2d81836134b2565b38614168565b6144959150853d8711610a3d57610a2d81836134b2565b386140fd565b6144b29150853d8711610a3d57610a2d81836134b2565b3861409b565b6144cf9150853d8711610a3d57610a2d81836134b2565b38614038565b6144ec9150853d8711610a3d57610a2d81836134b2565b38613fee565b156144f957565b60405162461bcd60e51b815260206004820152602b60248201527f496e697469616c697a61626c653a20636f6e7472616374206973206e6f74206960448201526a6e697469616c697a696e6760a81b6064820152608490fd5b61456c60ff60005460081c16614567816144f2565b6144f2565b6107d6336137a0565b61458a60ff60005460081c16614567816144f2565b60ff1960ca541660ca55565b9092916145ae60ff60005460081c16614567816144f2565b835167ffffffffffffffff8111613491576145d3816145ce6036546137ea565b6146cf565b602080601f83116001146146395750908061461093926107d6969760009261462e575b50508160011b916000199060031b1c1916176036556147b1565b6001600160a01b03166001600160601b0360a01b6065541617606555565b0151905038806145f6565b90601f1983169661466c60366000527f4a11f94e20a93c79f6ec743a1954ec4fc2c08429ae2122118bf234b2185c81b890565b926000905b8982106146b757505091839160019361461096956107d6999a1061469e575b505050811b016036556147b1565b015160001960f88460031b161c19169055388080614690565b80600185968294968601518155019501930190614671565b601f81116146db575050565b600090603682527f4a11f94e20a93c79f6ec743a1954ec4fc2c08429ae2122118bf234b2185c81b8906020601f850160051c83019410614736575b601f0160051c01915b82811061472b57505050565b81815560010161471f565b9092508290614716565b601f811161474c575050565b600090603782527f42a7b7dd785cd69714a189dffb3fd7d7174edc9ece837694ce50f7078f7c31ae906020601f850160051c830194106147a7575b601f0160051c01915b82811061479c57505050565b818155600101614790565b9092508290614787565b90815167ffffffffffffffff8111613491576147d7816147d26037546137ea565b614740565b602080601f83116001146148135750819293600092614808575b50508160011b916000199060031b1c191617603755565b0151905038806147f1565b90601f1983169461484660376000527f42a7b7dd785cd69714a189dffb3fd7d7174edc9ece837694ce50f7078f7c31ae90565b926000905b87821061488357505083600195961061486a575b505050811b01603755565b015160001960f88460031b161c1916905538808061485f565b8060018596829496860151815501950193019061484b565b90816020910312610447575161063881612a17565b6148b86148f1565b600160ff1960ca54161760ca557f62e78cea01bee320cd4e420270b5ea74000d11b0c9f74754ebdbfc544b05a2586020604051338152a1565b60ff60ca54166148fd57565b60405162461bcd60e51b815260206004820152601060248201526f14185d5cd8589b194e881c185d5cd95960821b6044820152606490fd5b60ca5460ff811615610edb5760ff191660ca557f5db9ee0a495bf2e6ff9c91a7834c1ba4fdd244a5e8aa4e537bd38aeae4b073aa6020604051338152a1565b90816020910312610447575190565b60405163a9059cbb60e01b60208201526001600160a01b039290921660248301526044808301939093529181526107d6916149bf6064836134b2565b614a23565b156149cb57565b60405162461bcd60e51b815260206004820152602a60248201527f5361666545524332303a204552433230206f7065726174696f6e20646964206e6044820152691bdd081cdd58d8d9595960b21b6064820152608490fd5b6001600160a01b03169060405190614a3a82613496565b6020928383527f5361666545524332303a206c6f772d6c6576656c2063616c6c206661696c656484840152803b15614ab15760008281928287614a8c9796519301915af1614a86614af6565b90614b26565b80519081614a9957505050565b826107d693614aac93830101910161489b565b6149c4565b60405162461bcd60e51b815260048101859052601d60248201527f416464726573733a2063616c6c20746f206e6f6e2d636f6e74726163740000006044820152606490fd5b3d15614b21573d90614b078261356b565b91614b1560405193846134b2565b82523d6000602084013e565b606090565b90919015614b32575090565b815115614b425750805190602001fd5b60405162461bcd60e51b815260206004820152908190614b669060248301906105e7565b0390fd5b9190826040910312610447576020825192015190565b6040516335c5382560e01b815260fc6004820152602073__$2af743edc7b1c16cb7d679fc921122aeb9$__8183602481845af49283156108d157600093614ccb575b508215614c79575b8215614c27575b8215614bdc57505090565b6040516368b47bdd60e01b815260fc60048201529192508290829060249082905af49182156108d157600092614c1157505090565b6106389250803d106110935761108481836134b2565b604051634ea6949160e01b815260fc60048201529092508181602481865af49081156108d157600091614c5c575b5091614bd1565b614c739150823d84116110935761108481836134b2565b38614c55565b60405163e01baf4f60e01b815260fc60048201529092508181602481865af49081156108d157600091614cae575b5091614bca565b614cc59150823d84116110935761108481836134b2565b38614ca7565b614ce3919350823d84116110935761108481836134b2565b9138614bc2565b519081600f0b820361044757565b9190826040910312610447576106386020614d1284614cea565b9301614cea565b906001600160a01b038216918215614d985760355490828201809211610d8657614d59916035556001600160a01b03166000526033602052604060002090565b805490828201809211610d86576000927fddf252ad1be2c89b69c2b068fc378daa952ba7f163c4a11628f55a4df523b3ef9260209255604051908152a3565b60405162461bcd60e51b815260206004820152601f60248201527f45524332303a206d696e7420746f20746865207a65726f2061646472657373006044820152606490fd5b9290604051926323b872dd60e01b60208501526001600160a01b03809216602485015216604483015260648201526064815260a081019181831067ffffffffffffffff841117613491576107d692604052614a23565b90612710918203918211610d8657565b91908203918211610d8657565b6001600160a01b038116908115614f3357614e7e816001600160a01b03166000526033602052604060002090565b54838110614ee357837fddf252ad1be2c89b69c2b068fc378daa952ba7f163c4a11628f55a4df523b3ef92614ece6000966139c69403916001600160a01b03166000526033602052604060002090565b55610e39614ede82603554614e43565b603555565b60405162461bcd60e51b815260206004820152602260248201527f45524332303a206275726e20616d6f756e7420657863656564732062616c616e604482015261636560f01b6064820152608490fd5b60405162461bcd60e51b815260206004820152602160248201527f45524332303a206275726e2066726f6d20746865207a65726f206164647265736044820152607360f81b6064820152608490fd5b15614f8957565b60405162461bcd60e51b815260206004820152600b60248201526a5a45524f5f41535345545360a81b6044820152606490fd5b926001600160a01b03928361011b541633036150d05760ff6101045416156150be5773__$2af743edc7b1c16cb7d679fc921122aeb9$__93843b1561044757929190604051958694628453fd60e51b865260a4860160fc600488015260a06024880152825180915260c48701926020809101926000905b8382106150a157505050505060009593859361507485946150646150839560031995868983030160448a01526150e2565b90848783030160648801526150e2565b918483030160848501526105e7565b03915af480156108d1576150945750565b806116d56107d69261347d565b8451811686528b9950948201949382019360019190910190615033565b604051637869c16160e11b8152600490fd5b60405163f4a8e62160e01b8152600490fd5b90815180825260208080930193019160005b828110615102575050505090565b8351855293810193928101926001016150f4565b60405163ab42ed5760e01b815260fc600482015260208160248173__$2af743edc7b1c16cb7d679fc921122aeb9$__5af49081156108d157600091615159575090565b610638915060203d8111610a7557610a6581836134b2565b9069d3c21bcecceda100000091828102928184041490151715610d8657565b9061271091828102928184041490151715610d8657565b81810292918115918404141715610d8657565b6c0c9f2c9cd04674edea400000009081810291818304149015178215151615610447570490565b81810291818304149015178215151615610447570490565b1561044757565b600160801b91600019838309928260801b9283808610950394808603951461527f579082916152308684116151f9565b0981806000031680920460028082600302188083028203028083028203028083028203028083028203028083028203028092029003029360018380600003040190848311900302920304170290565b5050915061528e8215156151f9565b0490565b604051631acd643160e11b815260fc6004820152600060248201529060208260448173__$2af743edc7b1c16cb7d679fc921122aeb9$__5af49182156108d157600092615301575b50818102918183041490151760011615610447576c0c9f2c9cd04674edea40000000900490565b61531a91925060203d8111610a7557610a6581836134b2565b90386152da565b91909160008382019384129112908015821691151617610d8657565b81810392916000138015828513169184121617610d8657565b600160ff1b8110156153655790565b60405162461bcd60e51b81526020600482015260086024820152674f766572666c6f7760c01b6044820152606490fd5b602460206001600160a01b0361010f5416604051928380926370a0823160e01b82523060048301525afa80156108d1576153de6153e791610638936000916153f2575b50615356565b60fe549061533d565b611f3860ff54615356565b61540a915060203d8111610a7557610a6581836134b2565b386153d8565b61010554604051631b22edb960e01b815260fc60048201526001602482015260208160448173__$2af743edc7b1c16cb7d679fc921122aeb9$__5af49081156108d157600091615479575b5060008183111561547357508103908111610d865790565b91505090565b615491915060203d8111610a7557610a6581836134b2565b3861545b565b60355460009190806154a95750905090565b604051631b22edb960e01b815260fc6004820152600160248201529160208360448173__$2af743edc7b1c16cb7d679fc921122aeb9$__5af49283156108d15761063894936154f9575b506151e1565b61551291935060203d8111610a7557610a6581836134b2565b91386154f3565b6035546000908061552957505090565b909160405190631b22edb960e01b825260fc600483015283602483015260208260448173__$2af743edc7b1c16cb7d679fc921122aeb9$__5af49182156108d157610638949261557957506151e1565b61559291925060203d8111610a7557610a6581836134b2565b90386154f3565b9060405163011e1eed60e71b815260fc60048201528260248201526001604482015260208160648173__$2af743edc7b1c16cb7d679fc921122aeb9$__5af49081156108d1576000916155ff575b506155f181615497565b908303928311610d86579190565b615617915060203d8111610a7557610a6581836134b2565b386155e7565b603554156156b35761562e90615519565b9060405163011e1eed60e71b815260fc60048201528260248201526001604482015260208160648173__$2af743edc7b1c16cb7d679fc921122aeb9$__5af49081156108d157600091615695575b50820391808311610d8657826156919161383a565b9190565b6156ad915060203d8111610a7557610a6581836134b2565b3861567c565b90600090565b9060355480156157da5760405163011e1eed60e71b815260fc6004820152602481018490526000604482015260209173__$2af743edc7b1c16cb7d679fc921122aeb9$__908383606481855af49283156108d1576000936157b7575b5061571f90615190565b604051631b22edb960e01b815260fc600482015260006024820152918490839060449082905af49384156108d157610638946157949361578d9260009261579a575b505061578761578261577b6101045461ffff9060481c1690565b61ffff1690565b614e33565b906151a7565b90836157e0565b93614e43565b6157b09250803d10610a7557610a6581836134b2565b3880615761565b61571f9193506157d390853d8711610a7557610a6581836134b2565b9290615715565b50600090565b9190918281029281840414901517811515161561044757600190600019830104019015150290565b603554156156b35761581990615519565b60405163011e1eed60e71b815260fc6004820152602481018290526000604482015290919060208160648173__$2af743edc7b1c16cb7d679fc921122aeb9$__5af49081156108d1576000916158a5575b5061587e61ffff6101045460481c16614e33565b92838202938285041482151760011615610447576127109161589f91614e43565b92049190565b6158bd915060203d8111610a7557610a6581836134b2565b3861586a565b73__$2af743edc7b1c16cb7d679fc921122aeb9$__803b1561044757600060449160405192838092638331458760e01b825260fc6004830152600160248301525af480156108d1576159125750565b6107d69061347d565b73__$2af743edc7b1c16cb7d679fc921122aeb9$__803b1561044757600060449160405192838092638331458760e01b825260fc60048301528460248301525af480156108d1576159125750565b604080516373c2549d60e11b815260fc600482015273__$2af743edc7b1c16cb7d679fc921122aeb9$__91908181602481865af49081156108d1576159e5916020916000908192615a95575b50845163199aa16760e21b815260fc60048201526024810191909152604481019190915291829081906064820190565b0381865af49081156108d157600091615a77575b50615a0261591b565b823b1561044757815163a07ae7bb60e01b815260fc6004820152600081602481875af480156108d157615a64575b50823b15610447579051635941106d60e01b815260fc60048201526024810191909152906000908290818060448101615083565b806116d5615a719261347d565b38615a30565b615a8f915060203d8111610a7557610a6581836134b2565b386159f9565b9050615aae9150843d8611611c2357611c1681836134b2565b90386159b5565b604080516373c2549d60e11b815260fc6004820152919073__$2af743edc7b1c16cb7d679fc921122aeb9$__908084602481855af49182156108d1576000948593615bc6575b508151633859f9b960e21b815260fc6004820152600060248201526020959093908685604481865af49485156108d157615b7e968896615b4392600091615ba9575b50614e43565b93519586948593849363a999987d60e01b855260048501608091949360009360a083019660fc84526020840152604083015260608201520152565b03915af480156108d157615b90575050565b81615ba692903d106110935761108481836134b2565b50565b615bc09150883d8a11610a7557610a6581836134b2565b38615b3d565b90925081615be19295503d8611611c2357611c1681836134b2565b9390939138615afb565b615bf3615116565b6101055410615cfa57604080516373c2549d60e11b815260fc60048201529073__$2af743edc7b1c16cb7d679fc921122aeb9$__8183602481845af49283156108d1576000908194615cd8575b508251633859f9b960e21b815260fc6004820152600060248201526020949092908584604481855af49283156108d157615b7e958795600095615cb9575b50519586948593849363a999987d60e01b855260048501608091949360009360a083019660fc84526020840152604083015260608201520152565b615cd1919550863d8811610a7557610a6581836134b2565b9338615c7e565b9050615cf2919350823d8411611c2357611c1681836134b2565b929038615c40565b6040516324d758c360e21b8152600490fdfea164736f6c6343000812000a",
  "libraries": {
    "DnGmxJuniorVaultManager": "0x67D1aB726403935814Ea0E3A0364BB739810f5D4"
  },
  "devdoc": {
    "author": "RageTrade*",
    "events": {
      "Approval(address,address,uint256)": {
        "details": "Emitted when the allowance of a `spender` for an `owner` is set by a call to {approve}. `value` is the new allowance."
      },
      "Initialized(uint8)": {
        "details": "Triggered when the contract has been initialized or reinitialized."
      },
      "Paused(address)": {
        "details": "Emitted when the pause is triggered by `account`."
      },
      "Transfer(address,address,uint256)": {
        "details": "Emitted when `value` tokens are moved from one account (`from`) to another (`to`). Note that `value` may be zero."
      },
      "Unpaused(address)": {
        "details": "Emitted when the pause is lifted by `account`."
      }
    },
    "kind": "dev",
    "methods": {
      "allowance(address,address)": {
        "details": "See {IERC20-allowance}."
      },
      "approve(address,uint256)": {
        "details": "See {IERC20-approve}. NOTE: If `amount` is the maximum `uint256`, the allowance is not updated on `transferFrom`. This is semantically equivalent to an infinite approval. Requirements: - `spender` cannot be the zero address."
      },
      "balanceOf(address)": {
        "details": "See {IERC20-balanceOf}."
      },
      "claimVestedGmx()": {
        "details": "vested esGmx gets converted to GMX every second, so whatever amount is vested gets claimed"
      },
      "convertToAssets(uint256)": {
        "params": {
          "shares": "asset amount to convert to assets"
        },
        "returns": {
          "_0": "asset amount corresponding to given share amount"
        }
      },
      "convertToShares(uint256)": {
        "params": {
          "assets": "asset amount to convert to shares"
        },
        "returns": {
          "_0": "share amount corresponding to given asset amount"
        }
      },
      "decimals()": {
        "details": "Returns the number of decimals used to get its user representation. For example, if `decimals` equals `2`, a balance of `505` tokens should be displayed to a user as `5.05` (`505 / 10 ** 2`). Tokens usually opt for a value of 18, imitating the relationship between Ether and Wei. This is the value {ERC20} uses, unless this function is overridden; NOTE: This information is only used for _display_ purposes: it in no way affects any of the arithmetic of the contract, including {IERC20-balanceOf} and {IERC20-transfer}."
      },
      "decreaseAllowance(address,uint256)": {
        "details": "Atomically decreases the allowance granted to `spender` by the caller. This is an alternative to {approve} that can be used as a mitigation for problems described in {IERC20-approve}. Emits an {Approval} event indicating the updated allowance. Requirements: - `spender` cannot be the zero address. - `spender` must have allowance for the caller of at least `subtractedValue`."
      },
      "deposit(uint256,address)": {
        "params": {
          "amount": "amount of sGlp (asset) tokens to deposit",
          "to": "receiver address for share allocation"
        },
        "returns": {
          "shares": "amount of shares allocated for deposit"
        }
      },
      "getCurrentBorrows()": {
        "returns": {
          "currentBtcBorrow": "amount of btc borrowed from AAVE",
          "currentEthBorrow": "amount of eth borrowed from AAVE"
        }
      },
      "getMarketValue(uint256)": {
        "details": "uses minimum price i.e. minimum AUM of glp tokens",
        "params": {
          "assetAmount": "amount of sGlp tokens"
        },
        "returns": {
          "marketValue": "of given amount of glp assets"
        }
      },
      "getOptimalBorrows(uint256,bool)": {
        "params": {
          "glpDeposited": "amount of glp for which optimal borrow needs to be calculated"
        },
        "returns": {
          "optimalBtcBorrow": "optimal amount of btc borrowed from AAVE",
          "optimalEthBorrow": "optimal amount of eth borrowed from AAVE"
        }
      },
      "getPrice(bool)": {
        "params": {
          "maximize": "specifies aum used is minimum(false) or maximum(true)"
        },
        "returns": {
          "_0": "price of glp token in PRICE_PRECISION"
        }
      },
      "getPriceX128()": {
        "returns": {
          "_0": "price of glp token in X128"
        }
      },
      "getUsdcBorrowed()": {
        "details": "all aUSDC yield from AAVE goes to the senior vaultdeducts junior vault usdc (swapped + unhedged glp) from overall balance",
        "returns": {
          "usdcAmount": "borrowed from senior tranche"
        }
      },
      "getVaultMarketValue()": {
        "details": "Part 1. adds value of glp tokens basis minimum glp aum from gmxPart 2. adds value of junior vault usdc deposit in AAVE (swap outputs + unhedged GLP)Part 3. subtracts value of WETH & WBTC borrows from AAVE",
        "returns": {
          "vaultMarketValue": ": market value of vault assets"
        }
      },
      "grantAllowances()": {
        "details": "to be called once the vault is deployed"
      },
      "increaseAllowance(address,uint256)": {
        "details": "Atomically increases the allowance granted to `spender` by the caller. This is an alternative to {approve} that can be used as a mitigation for problems described in {IERC20-approve}. Emits an {Approval} event indicating the updated allowance. Requirements: - `spender` cannot be the zero address."
      },
      "initialize(string,string,address,address,address,(address,address,address,address),address)": {
        "params": {
          "_name": "name of vault share token",
          "_poolAddressesProvider": "add",
          "_rewardRouter": "gmx reward router address",
          "_swapRouter": "uniswap swap router address",
          "_symbol": "symbol of vault share token",
          "_tokens": "addresses of tokens used"
        }
      },
      "maxDeposit(address)": {
        "returns": {
          "_0": "maximum asset amount"
        }
      },
      "maxMint(address)": {
        "params": {
          "receiver": "address of the user"
        },
        "returns": {
          "_0": "maximum share amount"
        }
      },
      "maxRedeem(address)": {
        "details": "Returns the maximum amount of Vault shares that can be redeemed from the owner balance in the Vault, through a redeem call. - MUST return a limited value if owner is subject to some withdrawal limit or timelock. - MUST return balanceOf(owner) if owner is not subject to any withdrawal limit or timelock. - MUST NOT revert."
      },
      "maxWithdraw(address)": {
        "details": "Returns the maximum amount of the underlying asset that can be withdrawn from the owner balance in the Vault, through a withdraw call. - MUST return a limited value if owner is subject to some withdrawal limit or timelock. - MUST NOT revert."
      },
      "mint(uint256,address)": {
        "params": {
          "shares": "amount of vault shares to mint",
          "to": "receiver address for share allocation"
        },
        "returns": {
          "amount": "amount of sGlp tokens required for given number of shares"
        }
      },
      "name()": {
        "details": "Returns the name of the token."
      },
      "owner()": {
        "details": "Returns the address of the current owner."
      },
      "paused()": {
        "details": "Returns true if the contract is paused, and false otherwise."
      },
      "previewDeposit(uint256)": {
        "params": {
          "assets": "number of assets to be deposited"
        },
        "returns": {
          "_0": "shares that would be minted to the user"
        }
      },
      "previewMint(uint256)": {
        "params": {
          "shares": "number of shares to mint"
        },
        "returns": {
          "_0": "assets that would be taken from the user"
        }
      },
      "previewRedeem(uint256)": {
        "params": {
          "shares": "that would be taken from the user"
        },
        "returns": {
          "_0": "assets that user would get"
        }
      },
      "previewWithdraw(uint256)": {
        "params": {
          "assets": "that would be given to the user"
        },
        "returns": {
          "_0": "shares that would be burnt"
        }
      },
      "receiveFlashLoan(address[],uint256[],uint256[],bytes)": {
        "details": "only allows balancer vault to call thisonly runs when _hasFlashloaned is set to true (prevents someone else from initiating flashloan to vault)",
        "params": {
          "amounts": "amounts of token flashloans in same order",
          "feeAmounts": "amounts of fee/premium charged for flashloan",
          "tokens": "list of tokens flashloaned",
          "userData": "data passed to balancer for flashloan (includes token amounts, token usdc value and swap direction)"
        }
      },
      "redeem(uint256,address,address)": {
        "params": {
          "owner": "owner address of the shares to be burnt",
          "receiver": "receiver address for the assets",
          "shares": "amount of shares to redeem"
        },
        "returns": {
          "assets": "number of assets sent"
        }
      },
      "renounceOwnership()": {
        "details": "Leaves the contract without owner. It will not be possible to call `onlyOwner` functions anymore. Can only be called by the current owner. NOTE: Renouncing ownership will leave the contract without an owner, thereby removing any functionality that is only available to the owner."
      },
      "setAdminParams(address,address,uint256,uint16,uint24)": {
        "params": {
          "dnGmxSeniorVault": "senior vault address",
          "newDepositCap": "deposit cap",
          "newKeeper": "keeper address",
          "withdrawFeeBps": "fees bps on withdrawals and redeems"
        }
      },
      "setFeeParams(uint16,address)": {
        "params": {
          "_feeBps": "the part of eth rewards earned from GMX earned deducted as protocol fees",
          "_feeRecipient": "recipient address for protocol fees and protocol esGmx"
        }
      },
      "setGmxParams(address)": {
        "params": {
          "_glpManager": "GMX glp manager"
        }
      },
      "setHedgeParams(address,address,uint256,address)": {
        "params": {
          "aaveRewardsController": "AAVE rewards controller for handling additional reward distribution on AAVE",
          "swapRouter": "uniswap swap router for swapping ETH/BTC to USDC and viceversa",
          "targetHealthFactor": "health factor to target on AAVE after every rebalance",
          "vault": "balancer vault for ETH and BTC flashloans"
        }
      },
      "setParamsV1(uint128,address)": {
        "params": {
          "dnGmxTraderHedgeStrategy": "(BPS) slippage threshold on btc swaps",
          "rebalanceProfitUsdcAmountThreshold": "(BPS) slippage threshold on btc swaps"
        }
      },
      "setRebalanceParams(uint32,uint16,uint16)": {
        "details": "a partial rebalance (rebalance where partial hedge gets taken) does not count.setHedgeParams should already have been called.",
        "params": {
          "rebalanceDeltaThresholdBps": "(BPS) threshold difference between optimal and current token hedges for triggering a rebalance",
          "rebalanceHfThresholdBps": "(BPS) threshold amount of health factor on AAVE below which a rebalance is triggered",
          "rebalanceTimeThreshold": "(seconds) minimum time difference required between two rebalance calls"
        }
      },
      "setThresholds(uint16,uint16,uint16,uint128,uint128,uint128,uint128,uint128)": {
        "params": {
          "hedgeUsdcAmountThreshold": "(usdc amount) threshold amount below which ETH/BTC hedges are not executed",
          "partialBtcHedgeUsdcAmountThreshold": "(usdc amount) threshold amount above which BTC hedge is not fully taken (gets executed in blocks over multiple rebalances)",
          "partialEthHedgeUsdcAmountThreshold": "(usdc amount) threshold amount above which ETH hedge is not fully taken (gets executed in blocks over multiple rebalances)",
          "slippageThresholdGmxBps": "(BPS) slippage threshold on sGlp mint and redeem",
          "slippageThresholdSwapBtcBps": "(BPS) slippage threshold on btc swaps",
          "slippageThresholdSwapEthBps": "(BPS) slippage threshold on eth swaps",
          "usdcConversionThreshold": "(usdc amount) threshold amount for conversion of usdc into sGlp",
          "wethConversionThreshold": "(weth amount) threshold amount for weth fees to be compounded into sGlp"
        }
      },
      "stopVestAndStakeEsGmx()": {
        "details": "when esGmx is vested some GlP tokens are locked on a pro-rata basis, in case that leads to issue in withdrawal this function can be called"
      },
      "symbol()": {
        "details": "Returns the symbol of the token, usually a shorter version of the name."
      },
      "totalAssets()": {
        "details": "some unhedged part of glp might be converted to USDC (its value in GLP is added to total glp assets)"
      },
      "totalSupply()": {
        "details": "See {IERC20-totalSupply}."
      },
      "transfer(address,uint256)": {
        "details": "See {IERC20-transfer}. Requirements: - `to` cannot be the zero address. - the caller must have a balance of at least `amount`."
      },
      "transferFrom(address,address,uint256)": {
        "details": "See {IERC20-transferFrom}. Emits an {Approval} event indicating the updated allowance. This is not required by the EIP. See the note at the beginning of {ERC20}. NOTE: Does not update the allowance if the current allowance is the maximum `uint256`. Requirements: - `from` and `to` cannot be the zero address. - `from` must have a balance of at least `amount`. - the caller must have allowance for ``from``'s tokens of at least `amount`."
      },
      "transferOwnership(address)": {
        "details": "Transfers ownership of the contract to a new account (`newOwner`). Can only be called by the current owner."
      },
      "withdraw(uint256,address,address)": {
        "params": {
          "assets": "amount of assets to withdraw",
          "owner": "owner address of the shares to be burnt",
          "receiver": "receiver address for the assets"
        },
        "returns": {
          "shares": "number of shares burnt"
        }
      }
    },
    "title": "Delta Neutral GMX Junior Tranche contract",
    "version": 1
  },
  "userdoc": {
    "kind": "user",
    "methods": {
      "claimVestedGmx()": {
        "notice": "claims vested gmx tokens to feeRecipient"
      },
      "convertToAssets(uint256)": {
        "notice": "converts share amount to asset amount"
      },
      "convertToShares(uint256)": {
        "notice": "converts asset amount to share amount"
      },
      "deposit(uint256,address)": {
        "notice": "deposits sGlp token and returns vault shares"
      },
      "depositCap()": {
        "notice": "returns deposit cap in terms of asset tokens"
      },
      "dnUsdcDeposited()": {
        "notice": "returns junior vault share of usdc deposited to AAVE"
      },
      "getCurrentBorrows()": {
        "notice": "returns current borrows for BTC and ETH respectively"
      },
      "getMarketValue(uint256)": {
        "notice": "returns the minimum market value of \"assetAmount\" of asset (sGlp) tokens"
      },
      "getOptimalBorrows(uint256,bool)": {
        "notice": "returns optimal borrows for BTC and ETH respectively basis glpDeposited amount"
      },
      "getPrice(bool)": {
        "notice": "returns price of glp token"
      },
      "getPriceX128()": {
        "notice": "returns price of glp token"
      },
      "getUsdcBorrowed()": {
        "notice": "returns total amount of usdc borrowed from senior vault"
      },
      "getVaultMarketValue()": {
        "notice": "returns vault market value (USD terms & 6 decimals) basis glp and usdc tokens in vault"
      },
      "grantAllowances()": {
        "notice": "grants allowances for tokens to relevant external contracts"
      },
      "initialize(string,string,address,address,address,(address,address,address,address),address)": {
        "notice": "initializer"
      },
      "isValidRebalance()": {
        "notice": "checks if the rebalance can be run (3 thresholds - time, hedge deviation and AAVE HF )"
      },
      "maxDeposit(address)": {
        "notice": "returns maximum amount of shares that a user can deposit"
      },
      "maxMint(address)": {
        "notice": "returns maximum amount of shares that can be minted for a given user"
      },
      "mint(uint256,address)": {
        "notice": "mints \"shares\" amount of vault shares and pull relevant amount of sGlp tokens"
      },
      "pause()": {
        "notice": "pause deposit, mint, withdraw and redeem"
      },
      "previewDeposit(uint256)": {
        "notice": "preview function for using assets to mint shares"
      },
      "previewMint(uint256)": {
        "notice": "preview function for minting of shares"
      },
      "previewRedeem(uint256)": {
        "notice": "preview function for redeeming shares"
      },
      "previewWithdraw(uint256)": {
        "notice": "preview function for withdrawal of assets"
      },
      "rebalance()": {
        "notice": "harvests glp rewards & rebalances the hedge positions, profits on AAVE and Gmx.run only if valid rebalance is true"
      },
      "receiveFlashLoan(address[],uint256[],uint256[],bytes)": {
        "notice": "flashloan receiver for balance vaultreceives flashloaned tokens(WETH or WBTC or USDC) from balancer, swaps on uniswap and borrows/repays on AAVE"
      },
      "redeem(uint256,address,address)": {
        "notice": "burns \"shares\" amount of vault shares and withdraws relevant amount of sGlp tokensdeducts some assets for the remaining shareholders to cover the cost of opening and closing of hedge"
      },
      "setAdminParams(address,address,uint256,uint16,uint24)": {
        "notice": "set admin paramters"
      },
      "setFeeParams(uint16,address)": {
        "notice": "sets feeBps and feeRecipient"
      },
      "setGmxParams(address)": {
        "notice": "set GMX parameters"
      },
      "setHedgeParams(address,address,uint256,address)": {
        "notice": "set hedge parameters"
      },
      "setParamsV1(uint128,address)": {
        "notice": "set thresholds"
      },
      "setRebalanceParams(uint32,uint16,uint16)": {
        "notice": "set rebalance paramters"
      },
      "setThresholds(uint16,uint16,uint16,uint128,uint128,uint128,uint128,uint128)": {
        "notice": "set thresholds"
      },
      "stopVestAndStakeEsGmx()": {
        "notice": "claims vested gmx tokens (i.e. stops vesting esGmx so that the relevant glp amount is unlocked)"
      },
      "totalAssets()": {
        "notice": "gives total asset tokens available in vault"
      },
      "unpause()": {
        "notice": "unpause deposit, mint, withdraw and redeem"
      },
      "unstakeAndVestEsGmx()": {
        "notice": "unstakes and vest protocol esGmx to convert it to Gmx"
      },
      "withdraw(uint256,address,address)": {
        "notice": "withdraws \"assets\" amount of sGlp tokens and burns relevant amount of vault sharesdeducts some assets for the remaining shareholders to cover the cost of opening and closing of hedge"
      },
      "withdrawFees()": {
        "notice": "withdraw accumulated WETH fees"
      }
    },
    "notice": "Implements the handling of junior tranche which maintains hedges for btc and eth basis the target weights on GMXIt is upgradable contract (via TransparentUpgradeableProxy proxy owned by ProxyAdmin)",
    "version": 1
  },
  "storageLayout": {
    "storage": [
      {
        "astId": 3990,
        "contract": "contracts/vaults/DnGmxJuniorVault.sol:DnGmxJuniorVault",
        "label": "_initialized",
        "offset": 0,
        "slot": "0",
        "type": "t_uint8"
      },
      {
        "astId": 3993,
        "contract": "contracts/vaults/DnGmxJuniorVault.sol:DnGmxJuniorVault",
        "label": "_initializing",
        "offset": 1,
        "slot": "0",
        "type": "t_bool"
      },
      {
        "astId": 5259,
        "contract": "contracts/vaults/DnGmxJuniorVault.sol:DnGmxJuniorVault",
        "label": "__gap",
        "offset": 0,
        "slot": "1",
        "type": "t_array(t_uint256)50_storage"
      },
      {
        "astId": 4280,
        "contract": "contracts/vaults/DnGmxJuniorVault.sol:DnGmxJuniorVault",
        "label": "_balances",
        "offset": 0,
        "slot": "51",
        "type": "t_mapping(t_address,t_uint256)"
      },
      {
        "astId": 4286,
        "contract": "contracts/vaults/DnGmxJuniorVault.sol:DnGmxJuniorVault",
        "label": "_allowances",
        "offset": 0,
        "slot": "52",
        "type": "t_mapping(t_address,t_mapping(t_address,t_uint256))"
      },
      {
        "astId": 4288,
        "contract": "contracts/vaults/DnGmxJuniorVault.sol:DnGmxJuniorVault",
        "label": "_totalSupply",
        "offset": 0,
        "slot": "53",
        "type": "t_uint256"
      },
      {
        "astId": 4290,
        "contract": "contracts/vaults/DnGmxJuniorVault.sol:DnGmxJuniorVault",
        "label": "_name",
        "offset": 0,
        "slot": "54",
        "type": "t_string_storage"
      },
      {
        "astId": 4292,
        "contract": "contracts/vaults/DnGmxJuniorVault.sol:DnGmxJuniorVault",
        "label": "_symbol",
        "offset": 0,
        "slot": "55",
        "type": "t_string_storage"
      },
      {
        "astId": 4871,
        "contract": "contracts/vaults/DnGmxJuniorVault.sol:DnGmxJuniorVault",
        "label": "__gap",
        "offset": 0,
        "slot": "56",
        "type": "t_array(t_uint256)45_storage"
      },
      {
        "astId": 15500,
        "contract": "contracts/vaults/DnGmxJuniorVault.sol:DnGmxJuniorVault",
        "label": "asset",
        "offset": 0,
        "slot": "101",
        "type": "t_address"
      },
      {
        "astId": 15504,
        "contract": "contracts/vaults/DnGmxJuniorVault.sol:DnGmxJuniorVault",
        "label": "__gaps",
        "offset": 0,
        "slot": "102",
        "type": "t_array(t_uint256)50_storage"
      },
      {
        "astId": 3862,
        "contract": "contracts/vaults/DnGmxJuniorVault.sol:DnGmxJuniorVault",
        "label": "_owner",
        "offset": 0,
        "slot": "152",
        "type": "t_address"
      },
      {
        "astId": 3982,
        "contract": "contracts/vaults/DnGmxJuniorVault.sol:DnGmxJuniorVault",
        "label": "__gap",
        "offset": 0,
        "slot": "153",
        "type": "t_array(t_uint256)49_storage"
      },
      {
        "astId": 4155,
        "contract": "contracts/vaults/DnGmxJuniorVault.sol:DnGmxJuniorVault",
        "label": "_paused",
        "offset": 0,
        "slot": "202",
        "type": "t_bool"
      },
      {
        "astId": 4260,
        "contract": "contracts/vaults/DnGmxJuniorVault.sol:DnGmxJuniorVault",
        "label": "__gap",
        "offset": 0,
        "slot": "203",
        "type": "t_array(t_uint256)49_storage"
      },
      {
        "astId": 30719,
        "contract": "contracts/vaults/DnGmxJuniorVault.sol:DnGmxJuniorVault",
        "label": "state",
        "offset": 0,
        "slot": "252",
        "type": "t_struct(State)18636_storage"
      },
      {
        "astId": 30723,
        "contract": "contracts/vaults/DnGmxJuniorVault.sol:DnGmxJuniorVault",
        "label": "__gaps",
        "offset": 0,
        "slot": "336",
        "type": "t_array(t_uint256)50_storage"
      }
    ],
    "types": {
      "t_address": {
        "encoding": "inplace",
        "label": "address",
        "numberOfBytes": "20"
      },
      "t_array(t_uint256)45_storage": {
        "base": "t_uint256",
        "encoding": "inplace",
        "label": "uint256[45]",
        "numberOfBytes": "1440"
      },
      "t_array(t_uint256)46_storage": {
        "base": "t_uint256",
        "encoding": "inplace",
        "label": "uint256[46]",
        "numberOfBytes": "1472"
      },
      "t_array(t_uint256)49_storage": {
        "base": "t_uint256",
        "encoding": "inplace",
        "label": "uint256[49]",
        "numberOfBytes": "1568"
      },
      "t_array(t_uint256)50_storage": {
        "base": "t_uint256",
        "encoding": "inplace",
        "label": "uint256[50]",
        "numberOfBytes": "1600"
      },
      "t_bool": {
        "encoding": "inplace",
        "label": "bool",
        "numberOfBytes": "1"
      },
      "t_contract(IAToken)220": {
        "encoding": "inplace",
        "label": "contract IAToken",
        "numberOfBytes": "20"
      },
      "t_contract(IBalancerVault)17003": {
        "encoding": "inplace",
        "label": "contract IBalancerVault",
        "numberOfBytes": "20"
      },
      "t_contract(IDebtToken)16098": {
        "encoding": "inplace",
        "label": "contract IDebtToken",
        "numberOfBytes": "20"
      },
      "t_contract(IDnGmxBatchingManager)16280": {
        "encoding": "inplace",
        "label": "contract IDnGmxBatchingManager",
        "numberOfBytes": "20"
      },
      "t_contract(IDnGmxSeniorVault)16764": {
        "encoding": "inplace",
        "label": "contract IDnGmxSeniorVault",
        "numberOfBytes": "20"
      },
      "t_contract(IDnGmxTraderHedgeStrategy)16794": {
        "encoding": "inplace",
        "label": "contract IDnGmxTraderHedgeStrategy",
        "numberOfBytes": "20"
      },
      "t_contract(IERC20)7612": {
        "encoding": "inplace",
        "label": "contract IERC20",
        "numberOfBytes": "20"
      },
      "t_contract(IERC20Metadata)7637": {
        "encoding": "inplace",
        "label": "contract IERC20Metadata",
        "numberOfBytes": "20"
      },
      "t_contract(IGlpManager)17317": {
        "encoding": "inplace",
        "label": "contract IGlpManager",
        "numberOfBytes": "20"
      },
      "t_contract(IPool)967": {
        "encoding": "inplace",
        "label": "contract IPool",
        "numberOfBytes": "20"
      },
      "t_contract(IPoolAddressesProvider)1176": {
        "encoding": "inplace",
        "label": "contract IPoolAddressesProvider",
        "numberOfBytes": "20"
      },
      "t_contract(IPriceOracle)1196": {
        "encoding": "inplace",
        "label": "contract IPriceOracle",
        "numberOfBytes": "20"
      },
      "t_contract(IRewardRouterV2)17524": {
        "encoding": "inplace",
        "label": "contract IRewardRouterV2",
        "numberOfBytes": "20"
      },
      "t_contract(IRewardTracker)17624": {
        "encoding": "inplace",
        "label": "contract IRewardTracker",
        "numberOfBytes": "20"
      },
      "t_contract(IRewardsController)3558": {
        "encoding": "inplace",
        "label": "contract IRewardsController",
        "numberOfBytes": "20"
      },
      "t_contract(ISwapRouter)14487": {
        "encoding": "inplace",
        "label": "contract ISwapRouter",
        "numberOfBytes": "20"
      },
      "t_contract(IVault)18190": {
        "encoding": "inplace",
        "label": "contract IVault",
        "numberOfBytes": "20"
      },
      "t_int128": {
        "encoding": "inplace",
        "label": "int128",
        "numberOfBytes": "16"
      },
      "t_int256": {
        "encoding": "inplace",
        "label": "int256",
        "numberOfBytes": "32"
      },
      "t_mapping(t_address,t_mapping(t_address,t_uint256))": {
        "encoding": "mapping",
        "key": "t_address",
        "label": "mapping(address => mapping(address => uint256))",
        "numberOfBytes": "32",
        "value": "t_mapping(t_address,t_uint256)"
      },
      "t_mapping(t_address,t_uint256)": {
        "encoding": "mapping",
        "key": "t_address",
        "label": "mapping(address => uint256)",
        "numberOfBytes": "32",
        "value": "t_uint256"
      },
      "t_string_storage": {
        "encoding": "bytes",
        "label": "string",
        "numberOfBytes": "32"
      },
      "t_struct(State)18636_storage": {
        "encoding": "inplace",
        "label": "struct DnGmxJuniorVaultManager.State",
        "members": [
          {
            "astId": 18503,
            "contract": "contracts/vaults/DnGmxJuniorVault.sol:DnGmxJuniorVault",
            "label": "keeper",
            "offset": 0,
            "slot": "0",
            "type": "t_address"
          },
          {
            "astId": 18505,
            "contract": "contracts/vaults/DnGmxJuniorVault.sol:DnGmxJuniorVault",
            "label": "feeRecipient",
            "offset": 0,
            "slot": "1",
            "type": "t_address"
          },
          {
            "astId": 18507,
            "contract": "contracts/vaults/DnGmxJuniorVault.sol:DnGmxJuniorVault",
            "label": "dnUsdcDeposited",
            "offset": 0,
            "slot": "2",
            "type": "t_int256"
          },
          {
            "astId": 18509,
            "contract": "contracts/vaults/DnGmxJuniorVault.sol:DnGmxJuniorVault",
            "label": "unhedgedGlpInUsdc",
            "offset": 0,
            "slot": "3",
            "type": "t_uint256"
          },
          {
            "astId": 18511,
            "contract": "contracts/vaults/DnGmxJuniorVault.sol:DnGmxJuniorVault",
            "label": "targetHealthFactor",
            "offset": 0,
            "slot": "4",
            "type": "t_uint256"
          },
          {
            "astId": 18513,
            "contract": "contracts/vaults/DnGmxJuniorVault.sol:DnGmxJuniorVault",
            "label": "protocolFee",
            "offset": 0,
            "slot": "5",
            "type": "t_uint256"
          },
          {
            "astId": 18515,
            "contract": "contracts/vaults/DnGmxJuniorVault.sol:DnGmxJuniorVault",
            "label": "protocolEsGmx",
            "offset": 0,
            "slot": "6",
            "type": "t_uint256"
          },
          {
            "astId": 18517,
            "contract": "contracts/vaults/DnGmxJuniorVault.sol:DnGmxJuniorVault",
            "label": "seniorVaultWethRewards",
            "offset": 0,
            "slot": "7",
            "type": "t_uint256"
          },
          {
            "astId": 18519,
            "contract": "contracts/vaults/DnGmxJuniorVault.sol:DnGmxJuniorVault",
            "label": "hasFlashloaned",
            "offset": 0,
            "slot": "8",
            "type": "t_bool"
          },
          {
            "astId": 18521,
            "contract": "contracts/vaults/DnGmxJuniorVault.sol:DnGmxJuniorVault",
            "label": "lastRebalanceTS",
            "offset": 1,
            "slot": "8",
            "type": "t_uint48"
          },
          {
            "astId": 18523,
            "contract": "contracts/vaults/DnGmxJuniorVault.sol:DnGmxJuniorVault",
            "label": "feeBps",
            "offset": 7,
            "slot": "8",
            "type": "t_uint16"
          },
          {
            "astId": 18525,
            "contract": "contracts/vaults/DnGmxJuniorVault.sol:DnGmxJuniorVault",
            "label": "withdrawFeeBps",
            "offset": 9,
            "slot": "8",
            "type": "t_uint16"
          },
          {
            "astId": 18527,
            "contract": "contracts/vaults/DnGmxJuniorVault.sol:DnGmxJuniorVault",
            "label": "feeTierWethWbtcPool",
            "offset": 11,
            "slot": "8",
            "type": "t_uint24"
          },
          {
            "astId": 18529,
            "contract": "contracts/vaults/DnGmxJuniorVault.sol:DnGmxJuniorVault",
            "label": "depositCap",
            "offset": 0,
            "slot": "9",
            "type": "t_uint256"
          },
          {
            "astId": 18531,
            "contract": "contracts/vaults/DnGmxJuniorVault.sol:DnGmxJuniorVault",
            "label": "slippageThresholdGmxBps",
            "offset": 0,
            "slot": "10",
            "type": "t_uint16"
          },
          {
            "astId": 18533,
            "contract": "contracts/vaults/DnGmxJuniorVault.sol:DnGmxJuniorVault",
            "label": "slippageThresholdSwapBtcBps",
            "offset": 2,
            "slot": "10",
            "type": "t_uint16"
          },
          {
            "astId": 18535,
            "contract": "contracts/vaults/DnGmxJuniorVault.sol:DnGmxJuniorVault",
            "label": "slippageThresholdSwapEthBps",
            "offset": 4,
            "slot": "10",
            "type": "t_uint16"
          },
          {
            "astId": 18537,
            "contract": "contracts/vaults/DnGmxJuniorVault.sol:DnGmxJuniorVault",
            "label": "rebalanceHfThresholdBps",
            "offset": 6,
            "slot": "10",
            "type": "t_uint16"
          },
          {
            "astId": 18539,
            "contract": "contracts/vaults/DnGmxJuniorVault.sol:DnGmxJuniorVault",
            "label": "rebalanceTimeThreshold",
            "offset": 8,
            "slot": "10",
            "type": "t_uint32"
          },
          {
            "astId": 18541,
            "contract": "contracts/vaults/DnGmxJuniorVault.sol:DnGmxJuniorVault",
            "label": "rebalanceDeltaThresholdBps",
            "offset": 12,
            "slot": "10",
            "type": "t_uint16"
          },
          {
            "astId": 18543,
            "contract": "contracts/vaults/DnGmxJuniorVault.sol:DnGmxJuniorVault",
            "label": "wethConversionThreshold",
            "offset": 14,
            "slot": "10",
            "type": "t_uint128"
          },
          {
            "astId": 18545,
            "contract": "contracts/vaults/DnGmxJuniorVault.sol:DnGmxJuniorVault",
            "label": "usdcConversionThreshold",
            "offset": 0,
            "slot": "11",
            "type": "t_uint128"
          },
          {
            "astId": 18547,
            "contract": "contracts/vaults/DnGmxJuniorVault.sol:DnGmxJuniorVault",
            "label": "hedgeUsdcAmountThreshold",
            "offset": 16,
            "slot": "11",
            "type": "t_uint128"
          },
          {
            "astId": 18549,
            "contract": "contracts/vaults/DnGmxJuniorVault.sol:DnGmxJuniorVault",
            "label": "partialBtcHedgeUsdcAmountThreshold",
            "offset": 0,
            "slot": "12",
            "type": "t_uint128"
          },
          {
            "astId": 18551,
            "contract": "contracts/vaults/DnGmxJuniorVault.sol:DnGmxJuniorVault",
            "label": "partialEthHedgeUsdcAmountThreshold",
            "offset": 16,
            "slot": "12",
            "type": "t_uint128"
          },
          {
            "astId": 18554,
            "contract": "contracts/vaults/DnGmxJuniorVault.sol:DnGmxJuniorVault",
            "label": "fsGlp",
            "offset": 0,
            "slot": "13",
            "type": "t_contract(IERC20)7612"
          },
          {
            "astId": 18557,
            "contract": "contracts/vaults/DnGmxJuniorVault.sol:DnGmxJuniorVault",
            "label": "glp",
            "offset": 0,
            "slot": "14",
            "type": "t_contract(IERC20Metadata)7637"
          },
          {
            "astId": 18560,
            "contract": "contracts/vaults/DnGmxJuniorVault.sol:DnGmxJuniorVault",
            "label": "usdc",
            "offset": 0,
            "slot": "15",
            "type": "t_contract(IERC20Metadata)7637"
          },
          {
            "astId": 18563,
            "contract": "contracts/vaults/DnGmxJuniorVault.sol:DnGmxJuniorVault",
            "label": "weth",
            "offset": 0,
            "slot": "16",
            "type": "t_contract(IERC20Metadata)7637"
          },
          {
            "astId": 18566,
            "contract": "contracts/vaults/DnGmxJuniorVault.sol:DnGmxJuniorVault",
            "label": "wbtc",
            "offset": 0,
            "slot": "17",
            "type": "t_contract(IERC20Metadata)7637"
          },
          {
            "astId": 18569,
            "contract": "contracts/vaults/DnGmxJuniorVault.sol:DnGmxJuniorVault",
            "label": "pool",
            "offset": 0,
            "slot": "18",
            "type": "t_contract(IPool)967"
          },
          {
            "astId": 18572,
            "contract": "contracts/vaults/DnGmxJuniorVault.sol:DnGmxJuniorVault",
            "label": "aUsdc",
            "offset": 0,
            "slot": "19",
            "type": "t_contract(IAToken)220"
          },
          {
            "astId": 18575,
            "contract": "contracts/vaults/DnGmxJuniorVault.sol:DnGmxJuniorVault",
            "label": "vWbtc",
            "offset": 0,
            "slot": "20",
            "type": "t_contract(IDebtToken)16098"
          },
          {
            "astId": 18578,
            "contract": "contracts/vaults/DnGmxJuniorVault.sol:DnGmxJuniorVault",
            "label": "vWeth",
            "offset": 0,
            "slot": "21",
            "type": "t_contract(IDebtToken)16098"
          },
          {
            "astId": 18581,
            "contract": "contracts/vaults/DnGmxJuniorVault.sol:DnGmxJuniorVault",
            "label": "oracle",
            "offset": 0,
            "slot": "22",
            "type": "t_contract(IPriceOracle)1196"
          },
          {
            "astId": 18584,
            "contract": "contracts/vaults/DnGmxJuniorVault.sol:DnGmxJuniorVault",
            "label": "aaveRewardsController",
            "offset": 0,
            "slot": "23",
            "type": "t_contract(IRewardsController)3558"
          },
          {
            "astId": 18587,
            "contract": "contracts/vaults/DnGmxJuniorVault.sol:DnGmxJuniorVault",
            "label": "poolAddressProvider",
            "offset": 0,
            "slot": "24",
            "type": "t_contract(IPoolAddressesProvider)1176"
          },
          {
            "astId": 18590,
            "contract": "contracts/vaults/DnGmxJuniorVault.sol:DnGmxJuniorVault",
            "label": "gmxVault",
            "offset": 0,
            "slot": "25",
            "type": "t_contract(IVault)18190"
          },
          {
            "astId": 18593,
            "contract": "contracts/vaults/DnGmxJuniorVault.sol:DnGmxJuniorVault",
            "label": "sGmx",
            "offset": 0,
            "slot": "26",
            "type": "t_contract(IRewardTracker)17624"
          },
          {
            "astId": 18596,
            "contract": "contracts/vaults/DnGmxJuniorVault.sol:DnGmxJuniorVault",
            "label": "glpManager",
            "offset": 0,
            "slot": "27",
            "type": "t_contract(IGlpManager)17317"
          },
          {
            "astId": 18599,
            "contract": "contracts/vaults/DnGmxJuniorVault.sol:DnGmxJuniorVault",
            "label": "rewardRouter",
            "offset": 0,
            "slot": "28",
            "type": "t_contract(IRewardRouterV2)17524"
          },
          {
            "astId": 18602,
            "contract": "contracts/vaults/DnGmxJuniorVault.sol:DnGmxJuniorVault",
            "label": "mintBurnRewardRouter",
            "offset": 0,
            "slot": "29",
            "type": "t_contract(IRewardRouterV2)17524"
          },
          {
            "astId": 18605,
            "contract": "contracts/vaults/DnGmxJuniorVault.sol:DnGmxJuniorVault",
            "label": "swapRouter",
            "offset": 0,
            "slot": "30",
            "type": "t_contract(ISwapRouter)14487"
          },
          {
            "astId": 18608,
            "contract": "contracts/vaults/DnGmxJuniorVault.sol:DnGmxJuniorVault",
            "label": "balancerVault",
            "offset": 0,
            "slot": "31",
            "type": "t_contract(IBalancerVault)17003"
          },
          {
            "astId": 18611,
            "contract": "contracts/vaults/DnGmxJuniorVault.sol:DnGmxJuniorVault",
            "label": "dnGmxSeniorVault",
            "offset": 0,
            "slot": "32",
            "type": "t_contract(IDnGmxSeniorVault)16764"
          },
          {
            "astId": 18614,
            "contract": "contracts/vaults/DnGmxJuniorVault.sol:DnGmxJuniorVault",
            "label": "batchingManager",
            "offset": 0,
            "slot": "33",
            "type": "t_contract(IDnGmxBatchingManager)16280"
          },
          {
            "astId": 18616,
            "contract": "contracts/vaults/DnGmxJuniorVault.sol:DnGmxJuniorVault",
            "label": "useDirectConversionBurn",
            "offset": 20,
            "slot": "33",
            "type": "t_bool"
          },
          {
            "astId": 18618,
            "contract": "contracts/vaults/DnGmxJuniorVault.sol:DnGmxJuniorVault",
            "label": "useDirectConversionMint",
            "offset": 21,
            "slot": "33",
            "type": "t_bool"
          },
          {
            "astId": 18620,
            "contract": "contracts/vaults/DnGmxJuniorVault.sol:DnGmxJuniorVault",
            "label": "btcPoolAmount",
            "offset": 0,
            "slot": "34",
            "type": "t_uint128"
          },
          {
            "astId": 18622,
            "contract": "contracts/vaults/DnGmxJuniorVault.sol:DnGmxJuniorVault",
            "label": "ethPoolAmount",
            "offset": 16,
            "slot": "34",
            "type": "t_uint128"
          },
          {
            "astId": 18624,
            "contract": "contracts/vaults/DnGmxJuniorVault.sol:DnGmxJuniorVault",
            "label": "btcTraderOIHedge",
            "offset": 0,
            "slot": "35",
            "type": "t_int128"
          },
          {
            "astId": 18626,
            "contract": "contracts/vaults/DnGmxJuniorVault.sol:DnGmxJuniorVault",
            "label": "ethTraderOIHedge",
            "offset": 16,
            "slot": "35",
            "type": "t_int128"
          },
          {
            "astId": 18629,
            "contract": "contracts/vaults/DnGmxJuniorVault.sol:DnGmxJuniorVault",
            "label": "dnGmxTraderHedgeStrategy",
            "offset": 0,
            "slot": "36",
            "type": "t_contract(IDnGmxTraderHedgeStrategy)16794"
          },
          {
            "astId": 18631,
            "contract": "contracts/vaults/DnGmxJuniorVault.sol:DnGmxJuniorVault",
            "label": "rebalanceProfitUsdcAmountThreshold",
            "offset": 0,
            "slot": "37",
            "type": "t_uint128"
          },
          {
            "astId": 18635,
            "contract": "contracts/vaults/DnGmxJuniorVault.sol:DnGmxJuniorVault",
            "label": "__gaps",
            "offset": 0,
            "slot": "38",
            "type": "t_array(t_uint256)46_storage"
          }
        ],
        "numberOfBytes": "2688"
      },
      "t_uint128": {
        "encoding": "inplace",
        "label": "uint128",
        "numberOfBytes": "16"
      },
      "t_uint16": {
        "encoding": "inplace",
        "label": "uint16",
        "numberOfBytes": "2"
      },
      "t_uint24": {
        "encoding": "inplace",
        "label": "uint24",
        "numberOfBytes": "3"
      },
      "t_uint256": {
        "encoding": "inplace",
        "label": "uint256",
        "numberOfBytes": "32"
      },
      "t_uint32": {
        "encoding": "inplace",
        "label": "uint32",
        "numberOfBytes": "4"
      },
      "t_uint48": {
        "encoding": "inplace",
        "label": "uint48",
        "numberOfBytes": "6"
      },
      "t_uint8": {
        "encoding": "inplace",
        "label": "uint8",
        "numberOfBytes": "1"
      }
    }
  }
}