{
  "address": "0x3E05cfbC39869c10b2406b57612810047Bd3E11F",
  "abi": [
    {
      "inputs": [],
      "name": "ArraysLengthMismatch",
      "type": "error"
    },
    {
      "inputs": [],
      "name": "DepositCapExceeded",
      "type": "error"
    },
    {
      "inputs": [],
      "name": "FlashloanNotInitiated",
      "type": "error"
    },
    {
      "inputs": [],
      "name": "InvalidFeeBps",
      "type": "error"
    },
    {
      "inputs": [],
      "name": "InvalidFeeRecipient",
      "type": "error"
    },
    {
      "inputs": [],
      "name": "InvalidRebalance",
      "type": "error"
    },
    {
      "inputs": [],
      "name": "InvalidRebalanceDeltaThresholdBps",
      "type": "error"
    },
    {
      "inputs": [],
      "name": "InvalidRebalanceHfThresholdBps",
      "type": "error"
    },
    {
      "inputs": [],
      "name": "InvalidRebalanceTimeThreshold",
      "type": "error"
    },
    {
      "inputs": [],
      "name": "InvalidSlippageThresholdGmx",
      "type": "error"
    },
    {
      "inputs": [],
      "name": "InvalidSlippageThresholdSwapBtc",
      "type": "error"
    },
    {
      "inputs": [],
      "name": "InvalidSlippageThresholdSwapEth",
      "type": "error"
    },
    {
      "inputs": [],
      "name": "InvalidTargetHealthFactor",
      "type": "error"
    },
    {
      "inputs": [],
      "name": "InvalidWithdrawFeeBps",
      "type": "error"
    },
    {
      "inputs": [],
      "name": "NotBalancerVault",
      "type": "error"
    },
    {
      "inputs": [],
      "name": "NotDnGmxSeniorVault",
      "type": "error"
    },
    {
      "inputs": [
        {
          "internalType": "address",
          "name": "msgSender",
          "type": "address"
        },
        {
          "internalType": "address",
          "name": "authorisedKeeperAddress",
          "type": "address"
        }
      ],
      "name": "OnlyKeeperAllowed",
      "type": "error"
    },
    {
      "anonymous": false,
      "inputs": [
        {
          "indexed": false,
          "internalType": "address",
          "name": "newKeeper",
          "type": "address"
        },
        {
          "indexed": false,
          "internalType": "address",
          "name": "dnGmxSeniorVault",
          "type": "address"
        },
        {
          "indexed": false,
          "internalType": "uint256",
          "name": "newDepositCap",
          "type": "uint256"
        },
        {
          "indexed": false,
          "internalType": "address",
          "name": "batchingManager",
          "type": "address"
        },
        {
          "indexed": false,
          "internalType": "uint16",
          "name": "withdrawFeeBps",
          "type": "uint16"
        }
      ],
      "name": "AdminParamsUpdated",
      "type": "event"
    },
    {
      "anonymous": false,
      "inputs": [],
      "name": "AllowancesGranted",
      "type": "event"
    },
    {
      "anonymous": false,
      "inputs": [
        {
          "indexed": true,
          "internalType": "address",
          "name": "owner",
          "type": "address"
        },
        {
          "indexed": true,
          "internalType": "address",
          "name": "spender",
          "type": "address"
        },
        {
          "indexed": false,
          "internalType": "uint256",
          "name": "value",
          "type": "uint256"
        }
      ],
      "name": "Approval",
      "type": "event"
    },
    {
      "anonymous": false,
      "inputs": [
        {
          "indexed": false,
          "internalType": "address",
          "name": "_batchingManager",
          "type": "address"
        }
      ],
      "name": "BatchingManagerUpdated",
      "type": "event"
    },
    {
      "anonymous": false,
      "inputs": [
        {
          "indexed": true,
          "internalType": "address",
          "name": "caller",
          "type": "address"
        },
        {
          "indexed": true,
          "internalType": "address",
          "name": "owner",
          "type": "address"
        },
        {
          "indexed": false,
          "internalType": "uint256",
          "name": "assets",
          "type": "uint256"
        },
        {
          "indexed": false,
          "internalType": "uint256",
          "name": "shares",
          "type": "uint256"
        }
      ],
      "name": "Deposit",
      "type": "event"
    },
    {
      "anonymous": false,
      "inputs": [
        {
          "indexed": false,
          "internalType": "uint256",
          "name": "_newDepositCap",
          "type": "uint256"
        }
      ],
      "name": "DepositCapUpdated",
      "type": "event"
    },
    {
      "anonymous": false,
      "inputs": [
        {
          "indexed": false,
          "internalType": "address",
          "name": "_dnGmxSeniorVault",
          "type": "address"
        }
      ],
      "name": "DnGmxSeniorVaultUpdated",
      "type": "event"
    },
    {
      "anonymous": false,
      "inputs": [
        {
          "indexed": false,
          "internalType": "uint256",
          "name": "feeBps",
          "type": "uint256"
        },
        {
          "indexed": false,
          "internalType": "address",
          "name": "_newFeeRecipient",
          "type": "address"
        }
      ],
      "name": "FeeParamsUpdated",
      "type": "event"
    },
    {
      "anonymous": false,
      "inputs": [
        {
          "indexed": false,
          "internalType": "uint256",
          "name": "feeAmount",
          "type": "uint256"
        }
      ],
      "name": "FeesWithdrawn",
      "type": "event"
    },
    {
      "anonymous": false,
      "inputs": [
        {
          "indexed": false,
          "internalType": "contract IBalancerVault",
          "name": "vault",
          "type": "address"
        },
        {
          "indexed": false,
          "internalType": "contract ISwapRouter",
          "name": "swapRouter",
          "type": "address"
        },
        {
          "indexed": false,
          "internalType": "uint256",
          "name": "targetHealthFactor",
          "type": "uint256"
        },
        {
          "indexed": false,
          "internalType": "contract IRewardsController",
          "name": "aaveRewardsController",
          "type": "address"
        },
        {
          "indexed": false,
          "internalType": "contract IPool",
          "name": "pool",
          "type": "address"
        },
        {
          "indexed": false,
          "internalType": "contract IPriceOracle",
          "name": "oracle",
          "type": "address"
        }
      ],
      "name": "HedgeParamsUpdated",
      "type": "event"
    },
    {
      "anonymous": false,
      "inputs": [
        {
          "indexed": false,
          "internalType": "uint8",
          "name": "version",
          "type": "uint8"
        }
      ],
      "name": "Initialized",
      "type": "event"
    },
    {
      "anonymous": false,
      "inputs": [
        {
          "indexed": false,
          "internalType": "address",
          "name": "_newKeeper",
          "type": "address"
        }
      ],
      "name": "KeeperUpdated",
      "type": "event"
    },
    {
      "anonymous": false,
      "inputs": [
        {
          "indexed": true,
          "internalType": "address",
          "name": "previousOwner",
          "type": "address"
        },
        {
          "indexed": true,
          "internalType": "address",
          "name": "newOwner",
          "type": "address"
        }
      ],
      "name": "OwnershipTransferred",
      "type": "event"
    },
    {
      "anonymous": false,
      "inputs": [
        {
          "indexed": false,
          "internalType": "address",
          "name": "account",
          "type": "address"
        }
      ],
      "name": "Paused",
      "type": "event"
    },
    {
      "anonymous": false,
      "inputs": [
        {
          "indexed": false,
          "internalType": "uint32",
          "name": "rebalanceTimeThreshold",
          "type": "uint32"
        },
        {
          "indexed": false,
          "internalType": "uint16",
          "name": "rebalanceDeltaThresholdBps",
          "type": "uint16"
        },
        {
          "indexed": false,
          "internalType": "uint16",
          "name": "rebalanceHfThresholdBps",
          "type": "uint16"
        }
      ],
      "name": "RebalanceParamsUpdated",
      "type": "event"
    },
    {
      "anonymous": false,
      "inputs": [],
      "name": "Rebalanced",
      "type": "event"
    },
    {
      "anonymous": false,
      "inputs": [
        {
          "indexed": false,
          "internalType": "uint16",
          "name": "slippageThresholdSwapBtcBps",
          "type": "uint16"
        },
        {
          "indexed": false,
          "internalType": "uint16",
          "name": "slippageThresholdSwapEthBps",
          "type": "uint16"
        },
        {
          "indexed": false,
          "internalType": "uint16",
          "name": "slippageThresholdGmxBps",
          "type": "uint16"
        },
        {
          "indexed": false,
          "internalType": "uint128",
          "name": "usdcConversionThreshold",
          "type": "uint128"
        },
        {
          "indexed": false,
          "internalType": "uint128",
          "name": "wethConversionThreshold",
          "type": "uint128"
        },
        {
          "indexed": false,
          "internalType": "uint128",
          "name": "hedgeUsdcAmountThreshold",
          "type": "uint128"
        },
        {
          "indexed": false,
          "internalType": "uint128",
          "name": "partialBtcHedgeUsdcAmountThreshold",
          "type": "uint128"
        },
        {
          "indexed": false,
          "internalType": "uint128",
          "name": "partialEthHedgeUsdcAmountThreshold",
          "type": "uint128"
        }
      ],
      "name": "ThresholdsUpdated",
      "type": "event"
    },
    {
      "anonymous": false,
      "inputs": [
        {
          "indexed": true,
          "internalType": "address",
          "name": "from",
          "type": "address"
        },
        {
          "indexed": true,
          "internalType": "address",
          "name": "to",
          "type": "address"
        },
        {
          "indexed": false,
          "internalType": "uint256",
          "name": "value",
          "type": "uint256"
        }
      ],
      "name": "Transfer",
      "type": "event"
    },
    {
      "anonymous": false,
      "inputs": [
        {
          "indexed": false,
          "internalType": "address",
          "name": "account",
          "type": "address"
        }
      ],
      "name": "Unpaused",
      "type": "event"
    },
    {
      "anonymous": false,
      "inputs": [
        {
          "indexed": true,
          "internalType": "address",
          "name": "caller",
          "type": "address"
        },
        {
          "indexed": true,
          "internalType": "address",
          "name": "receiver",
          "type": "address"
        },
        {
          "indexed": true,
          "internalType": "address",
          "name": "owner",
          "type": "address"
        },
        {
          "indexed": false,
          "internalType": "uint256",
          "name": "assets",
          "type": "uint256"
        },
        {
          "indexed": false,
          "internalType": "uint256",
          "name": "shares",
          "type": "uint256"
        }
      ],
      "name": "Withdraw",
      "type": "event"
    },
    {
      "anonymous": false,
      "inputs": [
        {
          "indexed": false,
          "internalType": "uint256",
          "name": "_withdrawFeeBps",
          "type": "uint256"
        }
      ],
      "name": "WithdrawFeeUpdated",
      "type": "event"
    },
    {
      "inputs": [
        {
          "internalType": "address",
          "name": "owner",
          "type": "address"
        },
        {
          "internalType": "address",
          "name": "spender",
          "type": "address"
        }
      ],
      "name": "allowance",
      "outputs": [
        {
          "internalType": "uint256",
          "name": "",
          "type": "uint256"
        }
      ],
      "stateMutability": "view",
      "type": "function"
    },
    {
      "inputs": [
        {
          "internalType": "address",
          "name": "spender",
          "type": "address"
        },
        {
          "internalType": "uint256",
          "name": "amount",
          "type": "uint256"
        }
      ],
      "name": "approve",
      "outputs": [
        {
          "internalType": "bool",
          "name": "",
          "type": "bool"
        }
      ],
      "stateMutability": "nonpayable",
      "type": "function"
    },
    {
      "inputs": [],
      "name": "asset",
      "outputs": [
        {
          "internalType": "address",
          "name": "",
          "type": "address"
        }
      ],
      "stateMutability": "view",
      "type": "function"
    },
    {
      "inputs": [
        {
          "internalType": "address",
          "name": "account",
          "type": "address"
        }
      ],
      "name": "balanceOf",
      "outputs": [
        {
          "internalType": "uint256",
          "name": "",
          "type": "uint256"
        }
      ],
      "stateMutability": "view",
      "type": "function"
    },
    {
      "inputs": [],
      "name": "claimVestedGmx",
      "outputs": [],
      "stateMutability": "nonpayable",
      "type": "function"
    },
    {
      "inputs": [
        {
          "internalType": "uint256",
          "name": "shares",
          "type": "uint256"
        }
      ],
      "name": "convertToAssets",
      "outputs": [
        {
          "internalType": "uint256",
          "name": "",
          "type": "uint256"
        }
      ],
      "stateMutability": "view",
      "type": "function"
    },
    {
      "inputs": [
        {
          "internalType": "uint256",
          "name": "assets",
          "type": "uint256"
        }
      ],
      "name": "convertToShares",
      "outputs": [
        {
          "internalType": "uint256",
          "name": "",
          "type": "uint256"
        }
      ],
      "stateMutability": "view",
      "type": "function"
    },
    {
      "inputs": [],
      "name": "decimals",
      "outputs": [
        {
          "internalType": "uint8",
          "name": "",
          "type": "uint8"
        }
      ],
      "stateMutability": "view",
      "type": "function"
    },
    {
      "inputs": [
        {
          "internalType": "address",
          "name": "spender",
          "type": "address"
        },
        {
          "internalType": "uint256",
          "name": "subtractedValue",
          "type": "uint256"
        }
      ],
      "name": "decreaseAllowance",
      "outputs": [
        {
          "internalType": "bool",
          "name": "",
          "type": "bool"
        }
      ],
      "stateMutability": "nonpayable",
      "type": "function"
    },
    {
      "inputs": [
        {
          "internalType": "uint256",
          "name": "amount",
          "type": "uint256"
        },
        {
          "internalType": "address",
          "name": "to",
          "type": "address"
        }
      ],
      "name": "deposit",
      "outputs": [
        {
          "internalType": "uint256",
          "name": "shares",
          "type": "uint256"
        }
      ],
      "stateMutability": "nonpayable",
      "type": "function"
    },
    {
      "inputs": [],
      "name": "depositCap",
      "outputs": [
        {
          "internalType": "uint256",
          "name": "",
          "type": "uint256"
        }
      ],
      "stateMutability": "view",
      "type": "function"
    },
    {
      "inputs": [],
      "name": "dnUsdcDeposited",
      "outputs": [
        {
          "internalType": "int256",
          "name": "",
          "type": "int256"
        }
      ],
      "stateMutability": "view",
      "type": "function"
    },
    {
      "inputs": [],
      "name": "getAdminParams",
      "outputs": [
        {
          "internalType": "address",
          "name": "keeper",
          "type": "address"
        },
        {
          "internalType": "contract IDnGmxSeniorVault",
          "name": "dnGmxSeniorVault",
          "type": "address"
        },
        {
          "internalType": "uint256",
          "name": "depositCap",
          "type": "uint256"
        },
        {
          "internalType": "contract IDnGmxBatchingManager",
          "name": "batchingManager",
          "type": "address"
        },
        {
          "internalType": "uint16",
          "name": "withdrawFeeBps",
          "type": "uint16"
        },
        {
          "internalType": "uint24",
          "name": "feeTierWethWbtcPool",
          "type": "uint24"
        }
      ],
      "stateMutability": "view",
      "type": "function"
    },
    {
      "inputs": [],
      "name": "getCurrentBorrows",
      "outputs": [
        {
          "internalType": "uint256",
          "name": "currentBtcBorrow",
          "type": "uint256"
        },
        {
          "internalType": "uint256",
          "name": "currentEthBorrow",
          "type": "uint256"
        }
      ],
      "stateMutability": "view",
      "type": "function"
    },
    {
      "inputs": [],
      "name": "getHedgeParams",
      "outputs": [
        {
          "internalType": "contract IBalancerVault",
          "name": "balancerVault",
          "type": "address"
        },
        {
          "internalType": "contract ISwapRouter",
          "name": "swapRouter",
          "type": "address"
        },
        {
          "internalType": "uint256",
          "name": "targetHealthFactor",
          "type": "uint256"
        },
        {
          "internalType": "contract IRewardsController",
          "name": "aaveRewardsController",
          "type": "address"
        }
      ],
      "stateMutability": "view",
      "type": "function"
    },
    {
      "inputs": [
        {
          "internalType": "uint256",
          "name": "assetAmount",
          "type": "uint256"
        }
      ],
      "name": "getMarketValue",
      "outputs": [
        {
          "internalType": "uint256",
          "name": "marketValue",
          "type": "uint256"
        }
      ],
      "stateMutability": "view",
      "type": "function"
    },
    {
      "inputs": [
        {
          "internalType": "uint256",
          "name": "glpDeposited",
          "type": "uint256"
        }
      ],
      "name": "getOptimalBorrows",
      "outputs": [
        {
          "internalType": "uint256",
          "name": "optimalBtcBorrow",
          "type": "uint256"
        },
        {
          "internalType": "uint256",
          "name": "optimalEthBorrow",
          "type": "uint256"
        }
      ],
      "stateMutability": "view",
      "type": "function"
    },
    {
      "inputs": [
        {
          "internalType": "bool",
          "name": "maximize",
          "type": "bool"
        }
      ],
      "name": "getPrice",
      "outputs": [
        {
          "internalType": "uint256",
          "name": "",
          "type": "uint256"
        }
      ],
      "stateMutability": "view",
      "type": "function"
    },
    {
      "inputs": [],
      "name": "getPriceX128",
      "outputs": [
        {
          "internalType": "uint256",
          "name": "",
          "type": "uint256"
        }
      ],
      "stateMutability": "view",
      "type": "function"
    },
    {
      "inputs": [],
      "name": "getRebalanceParams",
      "outputs": [
        {
          "internalType": "uint32",
          "name": "rebalanceTimeThreshold",
          "type": "uint32"
        },
        {
          "internalType": "uint16",
          "name": "rebalanceDeltaThresholdBps",
          "type": "uint16"
        },
        {
          "internalType": "uint16",
          "name": "rebalanceHfThresholdBps",
          "type": "uint16"
        }
      ],
      "stateMutability": "view",
      "type": "function"
    },
    {
      "inputs": [],
      "name": "getThresholds",
      "outputs": [
        {
          "internalType": "uint16",
          "name": "slippageThresholdSwapBtcBps",
          "type": "uint16"
        },
        {
          "internalType": "uint16",
          "name": "slippageThresholdSwapEthBps",
          "type": "uint16"
        },
        {
          "internalType": "uint16",
          "name": "slippageThresholdGmxBps",
          "type": "uint16"
        },
        {
          "internalType": "uint128",
          "name": "usdcConversionThreshold",
          "type": "uint128"
        },
        {
          "internalType": "uint128",
          "name": "wethConversionThreshold",
          "type": "uint128"
        },
        {
          "internalType": "uint128",
          "name": "hedgeUsdcAmountThreshold",
          "type": "uint128"
        },
        {
          "internalType": "uint128",
          "name": "partialBtcHedgeUsdcAmountThreshold",
          "type": "uint128"
        },
        {
          "internalType": "uint128",
          "name": "partialEthHedgeUsdcAmountThreshold",
          "type": "uint128"
        }
      ],
      "stateMutability": "view",
      "type": "function"
    },
    {
      "inputs": [],
      "name": "getUsdcBorrowed",
      "outputs": [
        {
          "internalType": "uint256",
          "name": "usdcAmount",
          "type": "uint256"
        }
      ],
      "stateMutability": "view",
      "type": "function"
    },
    {
      "inputs": [],
      "name": "getVaultMarketValue",
      "outputs": [
        {
          "internalType": "int256",
          "name": "vaultMarketValue",
          "type": "int256"
        }
      ],
      "stateMutability": "view",
      "type": "function"
    },
    {
      "inputs": [],
      "name": "grantAllowances",
      "outputs": [],
      "stateMutability": "nonpayable",
      "type": "function"
    },
    {
      "inputs": [],
      "name": "harvestFees",
      "outputs": [],
      "stateMutability": "nonpayable",
      "type": "function"
    },
    {
      "inputs": [
        {
          "internalType": "address",
          "name": "spender",
          "type": "address"
        },
        {
          "internalType": "uint256",
          "name": "addedValue",
          "type": "uint256"
        }
      ],
      "name": "increaseAllowance",
      "outputs": [
        {
          "internalType": "bool",
          "name": "",
          "type": "bool"
        }
      ],
      "stateMutability": "nonpayable",
      "type": "function"
    },
    {
      "inputs": [
        {
          "internalType": "string",
          "name": "_name",
          "type": "string"
        },
        {
          "internalType": "string",
          "name": "_symbol",
          "type": "string"
        },
        {
          "internalType": "address",
          "name": "_swapRouter",
          "type": "address"
        },
        {
          "internalType": "address",
          "name": "_rewardRouter",
          "type": "address"
        },
        {
          "internalType": "address",
          "name": "_mintBurnRewardRouter",
          "type": "address"
        },
        {
          "components": [
            {
              "internalType": "contract IERC20Metadata",
              "name": "weth",
              "type": "address"
            },
            {
              "internalType": "contract IERC20Metadata",
              "name": "wbtc",
              "type": "address"
            },
            {
              "internalType": "contract IERC20Metadata",
              "name": "sGlp",
              "type": "address"
            },
            {
              "internalType": "contract IERC20Metadata",
              "name": "usdc",
              "type": "address"
            }
          ],
          "internalType": "struct DnGmxJuniorVaultManager.Tokens",
          "name": "_tokens",
          "type": "tuple"
        },
        {
          "internalType": "contract IPoolAddressesProvider",
          "name": "_poolAddressesProvider",
          "type": "address"
        }
      ],
      "name": "initialize",
      "outputs": [],
      "stateMutability": "nonpayable",
      "type": "function"
    },
    {
      "inputs": [],
      "name": "isValidRebalance",
      "outputs": [
        {
          "internalType": "bool",
          "name": "",
          "type": "bool"
        }
      ],
      "stateMutability": "view",
      "type": "function"
    },
    {
      "inputs": [
        {
          "internalType": "address",
          "name": "",
          "type": "address"
        }
      ],
      "name": "maxDeposit",
      "outputs": [
        {
          "internalType": "uint256",
          "name": "",
          "type": "uint256"
        }
      ],
      "stateMutability": "view",
      "type": "function"
    },
    {
      "inputs": [
        {
          "internalType": "address",
          "name": "receiver",
          "type": "address"
        }
      ],
      "name": "maxMint",
      "outputs": [
        {
          "internalType": "uint256",
          "name": "",
          "type": "uint256"
        }
      ],
      "stateMutability": "view",
      "type": "function"
    },
    {
      "inputs": [
        {
          "internalType": "address",
          "name": "owner",
          "type": "address"
        }
      ],
      "name": "maxRedeem",
      "outputs": [
        {
          "internalType": "uint256",
          "name": "",
          "type": "uint256"
        }
      ],
      "stateMutability": "view",
      "type": "function"
    },
    {
      "inputs": [
        {
          "internalType": "address",
          "name": "owner",
          "type": "address"
        }
      ],
      "name": "maxWithdraw",
      "outputs": [
        {
          "internalType": "uint256",
          "name": "",
          "type": "uint256"
        }
      ],
      "stateMutability": "view",
      "type": "function"
    },
    {
      "inputs": [
        {
          "internalType": "uint256",
          "name": "shares",
          "type": "uint256"
        },
        {
          "internalType": "address",
          "name": "to",
          "type": "address"
        }
      ],
      "name": "mint",
      "outputs": [
        {
          "internalType": "uint256",
          "name": "amount",
          "type": "uint256"
        }
      ],
      "stateMutability": "nonpayable",
      "type": "function"
    },
    {
      "inputs": [],
      "name": "name",
      "outputs": [
        {
          "internalType": "string",
          "name": "",
          "type": "string"
        }
      ],
      "stateMutability": "view",
      "type": "function"
    },
    {
      "inputs": [],
      "name": "owner",
      "outputs": [
        {
          "internalType": "address",
          "name": "",
          "type": "address"
        }
      ],
      "stateMutability": "view",
      "type": "function"
    },
    {
      "inputs": [],
      "name": "pause",
      "outputs": [],
      "stateMutability": "nonpayable",
      "type": "function"
    },
    {
      "inputs": [],
      "name": "paused",
      "outputs": [
        {
          "internalType": "bool",
          "name": "",
          "type": "bool"
        }
      ],
      "stateMutability": "view",
      "type": "function"
    },
    {
      "inputs": [
        {
          "internalType": "uint256",
          "name": "assets",
          "type": "uint256"
        }
      ],
      "name": "previewDeposit",
      "outputs": [
        {
          "internalType": "uint256",
          "name": "",
          "type": "uint256"
        }
      ],
      "stateMutability": "view",
      "type": "function"
    },
    {
      "inputs": [
        {
          "internalType": "uint256",
          "name": "shares",
          "type": "uint256"
        }
      ],
      "name": "previewMint",
      "outputs": [
        {
          "internalType": "uint256",
          "name": "",
          "type": "uint256"
        }
      ],
      "stateMutability": "view",
      "type": "function"
    },
    {
      "inputs": [
        {
          "internalType": "uint256",
          "name": "shares",
          "type": "uint256"
        }
      ],
      "name": "previewRedeem",
      "outputs": [
        {
          "internalType": "uint256",
          "name": "",
          "type": "uint256"
        }
      ],
      "stateMutability": "view",
      "type": "function"
    },
    {
      "inputs": [
        {
          "internalType": "uint256",
          "name": "assets",
          "type": "uint256"
        }
      ],
      "name": "previewWithdraw",
      "outputs": [
        {
          "internalType": "uint256",
          "name": "",
          "type": "uint256"
        }
      ],
      "stateMutability": "view",
      "type": "function"
    },
    {
      "inputs": [],
      "name": "rebalance",
      "outputs": [],
      "stateMutability": "nonpayable",
      "type": "function"
    },
    {
      "inputs": [
        {
          "internalType": "contract IERC20[]",
          "name": "tokens",
          "type": "address[]"
        },
        {
          "internalType": "uint256[]",
          "name": "amounts",
          "type": "uint256[]"
        },
        {
          "internalType": "uint256[]",
          "name": "feeAmounts",
          "type": "uint256[]"
        },
        {
          "internalType": "bytes",
          "name": "userData",
          "type": "bytes"
        }
      ],
      "name": "receiveFlashLoan",
      "outputs": [],
      "stateMutability": "nonpayable",
      "type": "function"
    },
    {
      "inputs": [
        {
          "internalType": "uint256",
          "name": "shares",
          "type": "uint256"
        },
        {
          "internalType": "address",
          "name": "receiver",
          "type": "address"
        },
        {
          "internalType": "address",
          "name": "owner",
          "type": "address"
        }
      ],
      "name": "redeem",
      "outputs": [
        {
          "internalType": "uint256",
          "name": "assets",
          "type": "uint256"
        }
      ],
      "stateMutability": "nonpayable",
      "type": "function"
    },
    {
      "inputs": [],
      "name": "renounceOwnership",
      "outputs": [],
      "stateMutability": "nonpayable",
      "type": "function"
    },
    {
      "inputs": [
        {
          "internalType": "address",
          "name": "newKeeper",
          "type": "address"
        },
        {
          "internalType": "address",
          "name": "dnGmxSeniorVault",
          "type": "address"
        },
        {
          "internalType": "uint256",
          "name": "newDepositCap",
          "type": "uint256"
        },
        {
          "internalType": "address",
          "name": "batchingManager",
          "type": "address"
        },
        {
          "internalType": "uint16",
          "name": "withdrawFeeBps",
          "type": "uint16"
        },
        {
          "internalType": "uint24",
          "name": "feeTierWethWbtcPool",
          "type": "uint24"
        }
      ],
      "name": "setAdminParams",
      "outputs": [],
      "stateMutability": "nonpayable",
      "type": "function"
    },
    {
      "inputs": [
        {
          "internalType": "uint16",
          "name": "_feeBps",
          "type": "uint16"
        },
        {
          "internalType": "address",
          "name": "_feeRecipient",
          "type": "address"
        }
      ],
      "name": "setFeeParams",
      "outputs": [],
      "stateMutability": "nonpayable",
      "type": "function"
    },
    {
      "inputs": [
        {
          "internalType": "contract IGlpManager",
          "name": "_glpManager",
          "type": "address"
        }
      ],
      "name": "setGmxParams",
      "outputs": [],
      "stateMutability": "nonpayable",
      "type": "function"
    },
    {
      "inputs": [
        {
          "internalType": "contract IBalancerVault",
          "name": "vault",
          "type": "address"
        },
        {
          "internalType": "contract ISwapRouter",
          "name": "swapRouter",
          "type": "address"
        },
        {
          "internalType": "uint256",
          "name": "targetHealthFactor",
          "type": "uint256"
        },
        {
          "internalType": "contract IRewardsController",
          "name": "aaveRewardsController",
          "type": "address"
        }
      ],
      "name": "setHedgeParams",
      "outputs": [],
      "stateMutability": "nonpayable",
      "type": "function"
    },
    {
      "inputs": [
        {
          "internalType": "uint32",
          "name": "rebalanceTimeThreshold",
          "type": "uint32"
        },
        {
          "internalType": "uint16",
          "name": "rebalanceDeltaThresholdBps",
          "type": "uint16"
        },
        {
          "internalType": "uint16",
          "name": "rebalanceHfThresholdBps",
          "type": "uint16"
        }
      ],
      "name": "setRebalanceParams",
      "outputs": [],
      "stateMutability": "nonpayable",
      "type": "function"
    },
    {
      "inputs": [
        {
          "internalType": "uint16",
          "name": "slippageThresholdSwapBtcBps",
          "type": "uint16"
        },
        {
          "internalType": "uint16",
          "name": "slippageThresholdSwapEthBps",
          "type": "uint16"
        },
        {
          "internalType": "uint16",
          "name": "slippageThresholdGmxBps",
          "type": "uint16"
        },
        {
          "internalType": "uint128",
          "name": "usdcConversionThreshold",
          "type": "uint128"
        },
        {
          "internalType": "uint128",
          "name": "wethConversionThreshold",
          "type": "uint128"
        },
        {
          "internalType": "uint128",
          "name": "hedgeUsdcAmountThreshold",
          "type": "uint128"
        },
        {
          "internalType": "uint128",
          "name": "partialBtcHedgeUsdcAmountThreshold",
          "type": "uint128"
        },
        {
          "internalType": "uint128",
          "name": "partialEthHedgeUsdcAmountThreshold",
          "type": "uint128"
        }
      ],
      "name": "setThresholds",
      "outputs": [],
      "stateMutability": "nonpayable",
      "type": "function"
    },
    {
      "inputs": [],
      "name": "stopVestAndStakeEsGmx",
      "outputs": [],
      "stateMutability": "nonpayable",
      "type": "function"
    },
    {
      "inputs": [],
      "name": "symbol",
      "outputs": [
        {
          "internalType": "string",
          "name": "",
          "type": "string"
        }
      ],
      "stateMutability": "view",
      "type": "function"
    },
    {
      "inputs": [],
      "name": "totalAssets",
      "outputs": [
        {
          "internalType": "uint256",
          "name": "",
          "type": "uint256"
        }
      ],
      "stateMutability": "view",
      "type": "function"
    },
    {
      "inputs": [],
      "name": "totalSupply",
      "outputs": [
        {
          "internalType": "uint256",
          "name": "",
          "type": "uint256"
        }
      ],
      "stateMutability": "view",
      "type": "function"
    },
    {
      "inputs": [
        {
          "internalType": "address",
          "name": "to",
          "type": "address"
        },
        {
          "internalType": "uint256",
          "name": "amount",
          "type": "uint256"
        }
      ],
      "name": "transfer",
      "outputs": [
        {
          "internalType": "bool",
          "name": "",
          "type": "bool"
        }
      ],
      "stateMutability": "nonpayable",
      "type": "function"
    },
    {
      "inputs": [
        {
          "internalType": "address",
          "name": "from",
          "type": "address"
        },
        {
          "internalType": "address",
          "name": "to",
          "type": "address"
        },
        {
          "internalType": "uint256",
          "name": "amount",
          "type": "uint256"
        }
      ],
      "name": "transferFrom",
      "outputs": [
        {
          "internalType": "bool",
          "name": "",
          "type": "bool"
        }
      ],
      "stateMutability": "nonpayable",
      "type": "function"
    },
    {
      "inputs": [
        {
          "internalType": "address",
          "name": "newOwner",
          "type": "address"
        }
      ],
      "name": "transferOwnership",
      "outputs": [],
      "stateMutability": "nonpayable",
      "type": "function"
    },
    {
      "inputs": [],
      "name": "unpause",
      "outputs": [],
      "stateMutability": "nonpayable",
      "type": "function"
    },
    {
      "inputs": [],
      "name": "unstakeAndVestEsGmx",
      "outputs": [],
      "stateMutability": "nonpayable",
      "type": "function"
    },
    {
      "inputs": [
        {
          "internalType": "uint256",
          "name": "assets",
          "type": "uint256"
        },
        {
          "internalType": "address",
          "name": "receiver",
          "type": "address"
        },
        {
          "internalType": "address",
          "name": "owner",
          "type": "address"
        }
      ],
      "name": "withdraw",
      "outputs": [
        {
          "internalType": "uint256",
          "name": "shares",
          "type": "uint256"
        }
      ],
      "stateMutability": "nonpayable",
      "type": "function"
    },
    {
      "inputs": [],
      "name": "withdrawFees",
      "outputs": [],
      "stateMutability": "nonpayable",
      "type": "function"
    },
    {
      "anonymous": false,
      "inputs": [
        {
          "indexed": false,
          "internalType": "uint256",
          "name": "glpQuantity",
          "type": "uint256"
        },
        {
          "indexed": false,
          "internalType": "uint256",
          "name": "usdcQuantity",
          "type": "uint256"
        },
        {
          "indexed": false,
          "internalType": "bool",
          "name": "fromGlpToUsdc",
          "type": "bool"
        }
      ],
      "name": "GlpSwapped",
      "type": "event"
    },
    {
      "anonymous": false,
      "inputs": [
        {
          "indexed": false,
          "internalType": "uint256",
          "name": "wethHarvested",
          "type": "uint256"
        },
        {
          "indexed": false,
          "internalType": "uint256",
          "name": "esGmxStaked",
          "type": "uint256"
        },
        {
          "indexed": false,
          "internalType": "uint256",
          "name": "juniorVaultWeth",
          "type": "uint256"
        },
        {
          "indexed": false,
          "internalType": "uint256",
          "name": "seniorVaultWeth",
          "type": "uint256"
        },
        {
          "indexed": false,
          "internalType": "uint256",
          "name": "juniorVaultGlp",
          "type": "uint256"
        },
        {
          "indexed": false,
          "internalType": "uint256",
          "name": "seniorVaultAUsdc",
          "type": "uint256"
        }
      ],
      "name": "RewardsHarvested",
      "type": "event"
    },
    {
      "anonymous": false,
      "inputs": [
        {
          "indexed": true,
          "internalType": "address",
          "name": "fromToken",
          "type": "address"
        },
        {
          "indexed": true,
          "internalType": "address",
          "name": "toToken",
          "type": "address"
        },
        {
          "indexed": false,
          "internalType": "uint256",
          "name": "fromQuantity",
          "type": "uint256"
        },
        {
          "indexed": false,
          "internalType": "uint256",
          "name": "toQuantity",
          "type": "uint256"
        }
      ],
      "name": "TokenSwapped",
      "type": "event"
    }
  ],
  "transactionHash": "0xd48ed4774d0e8c71bbb193b0e4cdae7bb4f4c589a547faf60bd430dec96929e1",
  "args": [],
  "numDeployments": 1,
  "solcInputHash": "9f99c5031d1307c64809b6d7497edeab",
  "bytecode": "0x608060405234801561001057600080fd5b506156bf80620000216000396000f3fe608060405234801561001057600080fd5b50600436106103ba5760003560e01c806382100a50116101f4578063bf9571f11161011a578063e0120cf8116100ad578063ef2a3e1a1161007c578063ef2a3e1a146108e9578063ef8b30f7146108fc578063f04f27071461090f578063f2fde38b1461092257600080fd5b8063e0120cf81461085f578063e245b5af14610872578063ec279a1814610885578063edbcc5991461088d57600080fd5b8063d627b530116100e9578063d627b53014610802578063d905777e1461080a578063dbd5edc71461081d578063dd62ed3e1461082657600080fd5b8063bf9571f1146107c1578063c63d75b6146107c9578063c6e6f592146107dc578063ce96cb77146107ef57600080fd5b806395e2da7c11610192578063b3d7f6b911610161578063b3d7f6b914610780578063b460af9414610793578063ba087652146107a6578063ba7cc8d1146107b957600080fd5b806395e2da7c146106d25780639c3977b5146106da578063a457c2d71461075a578063a9059cbb1461076d57600080fd5b80638da5cb5b116101ce5780638da5cb5b1461069e57806394bf804d146106af57806395956cc1146106c257806395d89b41146106ca57600080fd5b806382100a501461064e5780638456cb591461068e5780638d315d7b1461069657600080fd5b80633d672a45116102e457806359f3fe22116102775780636e553f65116102465780636e553f651461060257806370a0823114610615578063715018a61461063e5780637d7c2a1c1461064657600080fd5b806359f3fe22146105775780635c975abb146105dc5780635c9a9b55146105e757806365eda557146105fa57600080fd5b806347f24f4b116102b357806347f24f4b1461052b5780634cdad5061461053e578063520c5fd914610551578063554070bc1461056457600080fd5b80633d672a45146105005780633f4ba83a14610508578063402d267d14610510578063476343ee1461052357600080fd5b8063138cc18f1161035c57806330af302d1161032b57806330af302d146104a0578063313ce567146104b357806338d52e0f146104c257806339509351146104ed57600080fd5b8063138cc18f1461047557806318160ddd1461047d5780631f5edd8d1461048557806323b872dd1461048d57600080fd5b8063095ea7b311610398578063095ea7b3146104025780630a28a477146104255780630ee31e941461043857806311a843841461044d57600080fd5b806301e1d114146103bf57806306fdde03146103da57806307a2d13a146103ef575b600080fd5b6103c7610935565b6040519081526020015b60405180910390f35b6103e26109b1565b6040516103d19190614b03565b6103c76103fd366004614b16565b610a43565b610415610410366004614b44565b610aec565b60405190151581526020016103d1565b6103c7610433366004614b16565b610b06565b61044b610446366004614bc9565b610bd1565b005b61046061045b366004614b16565b6112fa565b604080519283526020830191909152016103d1565b61044b611382565b6035546103c7565b61044b6113e7565b61041561049b366004614c9e565b611550565b61044b6104ae366004614cef565b611574565b604051601281526020016103d1565b6065546104d5906001600160a01b031681565b6040516001600160a01b0390911681526020016103d1565b6104156104fb366004614b44565b6116ba565b6103c76116f9565b61044b611817565b6103c761051e366004614d43565b611829565b61044b6118b5565b61044b610539366004614d75565b611970565b6103c761054c366004614b16565b611bb8565b61044b61055f366004614d43565b611c84565b6103c7610572366004614b16565b611caf565b60fc5461011c546101055461011d5461010454604080516001600160a01b0396871681529486166020860152840192909252929092166060820152600160481b820461ffff166080820152600160581b90910462ffffff1660a082015260c0016103d1565b60ca5460ff16610415565b61044b6105f5366004614e1e565b611cd3565b61044b611ec3565b6103c7610610366004614e71565b6120e4565b6103c7610623366004614d43565b6001600160a01b031660009081526033602052604090205490565b61044b612100565b61044b612112565b61011b5461011a546101005461011354604080516001600160a01b03958616815293851660208501528301919091529190911660608201526080016103d1565b61044b612442565b6103c7612452565b6098546001600160a01b03166104d5565b6103c76106bd366004614e71565b61269d565b61044b6126b9565b6103e2612807565b6103c7612816565b6101065461010754610108546040805161ffff620100008604811682526401000000008604811660208301528516918101919091526001600160801b038084166060830152600160701b90940484166080820152600160801b92839004841660a082015283821660c082015291900490911660e0820152610100016103d1565b610415610768366004614b44565b6128ac565b61041561077b366004614b44565b61293e565b6103c761078e366004614b16565b61294c565b6103c76107a1366004614ea1565b6129e7565b6103c76107b4366004614ea1565b612a0c565b610460612a29565b61044b612aa9565b6103c76107d7366004614d43565b612fbc565b6103c76107ea366004614b16565b612fca565b6103c76107fd366004614d43565b61305f565b610415613081565b6103c7610818366004614d43565b6131ec565b610105546103c7565b6103c7610834366004614ed8565b6001600160a01b03918216600090815260346020908152604080832093909416825291909152205490565b61044b61086d366004614f06565b61320a565b6103c7610880366004614f32565b6132f5565b60fe546103c7565b6108c26101065463ffffffff680100000000000000008204169161ffff600160601b8304811692660100000000000090041690565b6040805163ffffffff909416845261ffff92831660208501529116908201526060016103d1565b61044b6108f7366004614f4f565b613416565b6103c761090a366004614b16565b61352c565b61044b61091d366004615140565b613537565b61044b610930366004614d43565b6135fc565b60405163ab42ed5760e01b815260fc6004820152600090730A3B23862eF336DDAc4400935fa93F3090A197199063ab42ed5790602401602060405180830381865af4158015610988573d6000803e3d6000fd5b505050506040513d601f19601f820116820180604052508101906109ac919061524b565b905090565b6060603680546109c090615264565b80601f01602080910402602001604051908101604052809291908181526020018280546109ec90615264565b8015610a395780601f10610a0e57610100808354040283529160200191610a39565b820191906000526020600020905b815481529060010190602001808311610a1c57829003601f168201915b5050505050905090565b600080610a4f60355490565b90508015610ae357604051631b22edb960e01b815260fc600482015260006024820152610ade90730A3B23862eF336DDAc4400935fa93F3090A1971990631b22edb990604401602060405180830381865af4158015610ab2573d6000803e3d6000fd5b505050506040513d601f19601f82011682018060405250810190610ad6919061524b565b849083613672565b610ae5565b825b9392505050565b600033610afa818585613691565b60019150505b92915050565b600080610b1260355490565b90508015610ae357610ade610b29612710836152b5565b61010454610b4490600160481b900461ffff166127106152d4565b604051631b22edb960e01b815260fc600482015260006024820152730A3B23862eF336DDAc4400935fa93F3090A1971990631b22edb990604401602060405180830381865af4158015610b9b573d6000803e3d6000fd5b505050506040513d601f19601f82011682018060405250810190610bbf919061524b565b610bc991906152b5565b8591906137b5565b600054610100900460ff1615808015610bf15750600054600160ff909116105b80610c0b5750303b158015610c0b575060005460ff166001145b610c735760405162461bcd60e51b815260206004820152602e60248201527f496e697469616c697a61626c653a20636f6e747261637420697320616c72656160448201526d191e481a5b9a5d1a585b1a5e995960921b60648201526084015b60405180910390fd5b6000805460ff191660011790558015610c96576000805461ff0019166101001790555b610c9e6137e3565b610ca6613812565b610d29610cb96060850160408601614d43565b8b8b8080601f01602080910402602001604051908101604052809392919081815260200183838082843760009201919091525050604080516020601f8f018190048102820181019092528d815292508d91508c908190840183828082843760009201919091525061384192505050565b610d366020840184614d43565b61010c80546001600160a01b0319166001600160a01b0392909216919091179055610d676040840160208501614d43565b61010d80546001600160a01b0319166001600160a01b0392909216919091179055610d986080840160608501614d43565b61010b80546001600160a01b03199081166001600160a01b039384161790915561011a805482168984161790556101188054821688841617905561011980548216878416179055610114805490911684831617905560655460408051633c5103f760e11b8152905191909216916378a207ee9160048281019260209291908290030181865afa158015610e2f573d6000803e3d6000fd5b505050506040513d601f19601f82011682018060405250810190610e5391906152f6565b61010a80546001600160a01b0319166001600160a01b0392831617905560408051633e9b6c6f60e21b815290519186169163fa6db1bc916004808201926020929091908290030181865afa158015610eaf573d6000803e3d6000fd5b505050506040513d601f19601f82011682018060405250810190610ed391906152f6565b61011780546001600160a01b0319166001600160a01b039283161790556065546040805162af394d60e81b81529051919092169163af394d009160048083019260209291908290030181865afa158015610f31573d6000803e3d6000fd5b505050506040513d601f19601f82011682018060405250810190610f5591906152f6565b61010980546001600160a01b0319166001600160a01b03928316179055610117546040805163fbfa77cf60e01b81529051919092169163fbfa77cf9160048083019260209291908290030181865afa158015610fb5573d6000803e3d6000fd5b505050506040513d601f19601f82011682018060405250810190610fd991906152f6565b61011580546001600160a01b0319166001600160a01b03928316179055610114546040805163026b1d5f60e01b81529051919092169163026b1d5f9160048083019260209291908290030181865afa158015611039573d6000803e3d6000fd5b505050506040513d601f19601f8201168201806040525081019061105d91906152f6565b61010e80546001600160a01b0319166001600160a01b039283161790556101145460408051631f94a27560e31b81529051919092169163fca513a89160048083019260209291908290030181865afa1580156110bd573d6000803e3d6000fd5b505050506040513d601f19601f820116820180604052508101906110e191906152f6565b61011280546001600160a01b0319166001600160a01b0392831617905561010e5461010b546040516335ea6a7560e01b815290831660048201529116906335ea6a75906024016101e060405180830381865afa158015611145573d6000803e3d6000fd5b505050506040513d601f19601f820116820180604052508101906111699190615380565b610100015161010f80546001600160a01b0319166001600160a01b0392831617905561010e5461010d546040516335ea6a7560e01b815290831660048201529116906335ea6a75906024016101e060405180830381865afa1580156111d2573d6000803e3d6000fd5b505050506040513d601f19601f820116820180604052508101906111f69190615380565b610140015161011080546001600160a01b0319166001600160a01b0392831617905561010e5461010c546040516335ea6a7560e01b815290831660048201529116906335ea6a75906024016101e060405180830381865afa15801561125f573d6000803e3d6000fd5b505050506040513d601f19601f820116820180604052508101906112839190615380565b610140015161011180546001600160a01b0319166001600160a01b0390921691909117905580156112ee576000805461ff0019169055604051600181527f7f26b83ff96e1f2b6a682f133852f6798a09c465da95921460cefb38474024989060200160405180910390a15b50505050505050505050565b6040516318b7199960e11b815260fc6004820152602481018290526000908190730A3B23862eF336DDAc4400935fa93F3090A197199063316e3332906044016040805180830381865af4158015611355573d6000803e3d6000fd5b505050506040513d601f19601f8201168201806040525081019061137991906154a3565b91509150915091565b60405163a07ae7bb60e01b815260fc6004820152730A3B23862eF336DDAc4400935fa93F3090A197199063a07ae7bb9060240160006040518083038186803b1580156113cd57600080fd5b505af41580156113e1573d6000803e3d6000fd5b50505050565b6113ef61386f565b6101185460408051633671df2560e01b815290516000926001600160a01b031691633671df259160048083019260209291908290030181865afa15801561143a573d6000803e3d6000fd5b505050506040513d601f19601f8201168201806040525081019061145e91906152f6565b6001600160a01b0316634e71d92d6040518163ffffffff1660e01b81526004016020604051808303816000875af115801561149d573d6000803e3d6000fd5b505050506040513d601f19601f820116820180604052508101906114c1919061524b565b60fd5461011854604080516331e67c7160e01b8152905193945061154d936001600160a01b0393841693869316916331e67c719160048083019260209291908290030181865afa158015611519573d6000803e3d6000fd5b505050506040513d601f19601f8201168201806040525081019061153d91906152f6565b6001600160a01b031691906138c9565b50565b60003361155e858285613931565b6115698585856139bd565b506001949350505050565b61157c61386f565b6203f4808363ffffffff1611156115a5576040516228254960e21b815260040160405180910390fd5b6127108261ffff1611156115cc5760405163fd24448b60e01b815260040160405180910390fd5b6127108161ffff1610806115e657506101005461ffff8216115b156116045760405163149d3c7560e21b815260040160405180910390fd5b61010680546dffffffffffff000000000000000019166801000000000000000063ffffffff86169081026dffff000000000000000000000000191691909117600160601b61ffff8681169182029290921767ffff0000000000001916660100000000000092861692830217909355604080519283526020830193909352918101919091527f74666b2773815375e6daaf777fe5b0b6f04a4a15373485cfaf2cf48251b21d9e9060600160405180910390a1505050565b3360008181526034602090815260408083206001600160a01b0387168452909152812054909190610afa90829086906116f49087906154c7565b613691565b6101175460405163019c8a3b60e11b81526000600482018190529182916001600160a01b0390911690630339147690602401602060405180830381865afa158015611748573d6000803e3d6000fd5b505050506040513d601f19601f8201168201806040525081019061176c919061524b565b9050600060fc600e0160009054906101000a90046001600160a01b03166001600160a01b03166318160ddd6040518163ffffffff1660e01b8152600401602060405180830381865afa1580156117c6573d6000803e3d6000fd5b505050506040513d601f19601f820116820180604052508101906117ea919061524b565b9050611810600160801b6118088369d3c21bcecceda10000006152b5565b849190613b8b565b9250505090565b61181f61386f565b611827613c3e565b565b604051631b22edb960e01b815260fc600482015260016024820152600090730A3B23862eF336DDAc4400935fa93F3090A1971990631b22edb990604401602060405180830381865af4158015611883573d6000803e3d6000fd5b505050506040513d601f19601f820116820180604052508101906118a7919061524b565b61010554610b0091906152d4565b6101018054600090915561010c5460fd5460405163a9059cbb60e01b81526001600160a01b0391821660048201526024810184905291169063a9059cbb906044016020604051808303816000875af1158015611915573d6000803e3d6000fd5b505050506040513d601f19601f8201168201806040525081019061193991906154df565b506040518181527f9800e6f57aeb4360eaa72295a820a4293e1e66fbfcabcd8874ae141304a76deb9060200160405180910390a150565b61197861386f565b6127108861ffff16111561199f5760405163669169e560e01b815260040160405180910390fd5b6127108761ffff1611156119c657604051632722719960e21b815260040160405180910390fd5b6127108661ffff1611156119ed576040516378fd03f760e01b815260040160405180910390fd5b8760fc600a0160026101000a81548161ffff021916908361ffff1602179055508660fc600a0160046101000a81548161ffff021916908361ffff1602179055508560fc600a0160006101000a81548161ffff021916908361ffff1602179055508460fc600b0160006101000a8154816001600160801b0302191690836001600160801b031602179055508360fc600a01600e6101000a8154816001600160801b0302191690836001600160801b031602179055508260fc600b0160106101000a8154816001600160801b0302191690836001600160801b031602179055508160fc600c0160006101000a8154816001600160801b0302191690836001600160801b031602179055508060fc600c0160106101000a8154816001600160801b0302191690836001600160801b031602179055507f8405afe6e9767f91c282339dc75edd776ddeda3e9aad8e1bb15471db89f8d8678888888888888888604051611ba698979695949392919061ffff988916815296881660208801529490961660408601526001600160801b0392831660608601529082166080850152811660a084015292831660c083015290911660e08201526101000190565b60405180910390a15050505050505050565b600080611bc460355490565b90508015610ae35761010454610ade90611beb90600160481b900461ffff166127106152d4565b604051631b22edb960e01b815260fc600482015260006024820152730A3B23862eF336DDAc4400935fa93F3090A1971990631b22edb990604401602060405180830381865af4158015611c42573d6000803e3d6000fd5b505050506040513d601f19601f82011682018060405250810190611c66919061524b565b611c7091906152b5565b611c7c612710846152b5565b859190613672565b611c8c61386f565b61011780546001600160a01b0319166001600160a01b0392909216919091179055565b6000610b00611cbe60006132f5565b83906c0c9f2c9cd04674edea40000000613672565b611cdb61386f565b614e20821115611cfe5760405163361804a960e21b815260040160405180910390fd5b61011b80546001600160a01b038087166001600160a01b03199283161790925561011a805486841690831617905561010084905561011380548484169216919091179055610114546040805163026b1d5f60e01b815290519190921691600091839163026b1d5f9160048281019260209291908290030181865afa158015611d8a573d6000803e3d6000fd5b505050506040513d601f19601f82011682018060405250810190611dae91906152f6565b90508060fc60120160006101000a8154816001600160a01b0302191690836001600160a01b031602179055506000826001600160a01b031663fca513a86040518163ffffffff1660e01b8152600401602060405180830381865afa158015611e1a573d6000803e3d6000fd5b505050506040513d601f19601f82011682018060405250810190611e3e91906152f6565b61011280546001600160a01b0319166001600160a01b03838116918217909255604080518b841681528a841660208201529081018990528783166060820152918516608083015260a08201529091507f04a2e4917e8cf09fc5f74a42cb8b240cb288a69c78dbf02719e5c7bf9ca1561e9060c00160405180910390a150505050505050565b611ecb61386f565b6101185460408051633671df2560e01b815290516001600160a01b0390921691633671df25916004808201926020929091908290030181865afa158015611f16573d6000803e3d6000fd5b505050506040513d601f19601f82011682018060405250810190611f3a91906152f6565b6001600160a01b0316633ccfd60b6040518163ffffffff1660e01b8152600401600060405180830381600087803b158015611f7457600080fd5b505af1158015611f88573d6000803e3d6000fd5b50506101185460408051630d43254f60e31b81529051600094506001600160a01b039092169250636a192a789160048083019260209291908290030181865afa158015611fd9573d6000803e3d6000fd5b505050506040513d601f19601f82011682018060405250810190611ffd91906152f6565b6040516370a0823160e01b81523060048201526001600160a01b0391909116906370a0823190602401602060405180830381865afa158015612043573d6000803e3d6000fd5b505050506040513d601f19601f82011682018060405250810190612067919061524b565b61011854604051633be3166560e21b8152600481018390529192506001600160a01b03169063ef8c599490602401600060405180830381600087803b1580156120af57600080fd5b505af11580156120c3573d6000803e3d6000fd5b505050508060fc60060160008282546120dc91906154c7565b909155505050565b60006120ee613c90565b6120f6613cd6565b610ae58383613ead565b61210861386f565b6118276000613f68565b60fc546001600160a01b031633146121525760fc546040516329b7946d60e01b81523360048201526001600160a01b039091166024820152604401610c6a565b61215a613081565b6121775760405163a039e79960e01b815260040160405180910390fd5b60405163a07ae7bb60e01b815260fc6004820152730A3B23862eF336DDAc4400935fa93F3090A197199063a07ae7bb9060240160006040518083038186803b1580156121c257600080fd5b505af41580156121d6573d6000803e3d6000fd5b50506040516373c2549d60e11b815260fc600482015260009250829150730A3B23862eF336DDAc4400935fa93F3090A197199063e784a93a906024016040805180830381865af415801561222e573d6000803e3d6000fd5b505050506040513d601f19601f8201168201806040525081019061225291906154a3565b60405163199aa16760e21b815260fc600482015260248101839052604481018290529193509150600090730A3B23862eF336DDAc4400935fa93F3090A197199063666a859c90606401602060405180830381865af41580156122b8573d6000803e3d6000fd5b505050506040513d601f19601f820116820180604052508101906122dc919061524b565b604051635941106d60e01b815260fc600482015260248101829052909150730A3B23862eF336DDAc4400935fa93F3090A1971990635941106d9060440160006040518083038186803b15801561233157600080fd5b505af4158015612345573d6000803e3d6000fd5b50505050600060fc730A3B23862eF336DDAc4400935fa93F3090A1971963a999987d90918686612373610935565b6040516001600160e01b031960e087901b16815260048101949094526024840192909252604483015260648201526001608482015260a401602060405180830381865af41580156123c8573d6000803e3d6000fd5b505050506040513d601f19601f820116820180604052508101906123ec91906154df565b90508061241357610104805466ffffffffffff0019166101004265ffffffffffff16021790555b6040517fc741dbaad15a4f298fe8d80943fa8e005e7bcb2f5b0a0c8dec1fc35be457f14690600090a150505050565b61244a61386f565b611827613fba565b6040516373c2549d60e11b815260fc600482015260009081908190730A3B23862eF336DDAc4400935fa93F3090A197199063e784a93a906024016040805180830381865af41580156124a8573d6000803e3d6000fd5b505050506040513d601f19601f820116820180604052508101906124cc91906154a3565b60405163199aa16760e21b815260fc600482015260248101839052604481018290529193509150600090730A3B23862eF336DDAc4400935fa93F3090A197199063666a859c90606401602060405180830381865af4158015612532573d6000803e3d6000fd5b505050506040513d601f19601f82011682018060405250810190612556919061524b565b9050600060fc60210160009054906101000a90046001600160a01b03166001600160a01b031663584150756040518163ffffffff1660e01b8152600401602060405180830381865afa1580156125b0573d6000803e3d6000fd5b505050506040513d601f19601f820116820180604052508101906125d4919061524b565b610109546040516370a0823160e01b81523060048201526001600160a01b03909116906370a0823190602401602060405180830381865afa15801561261d573d6000803e3d6000fd5b505050506040513d601f19601f82011682018060405250810190612641919061524b565b61264b91906154c7565b905061265682613ff7565b60ff5461266290613ff7565b60fe5461267661267185611caf565b613ff7565b61268091906154fc565b61268a91906154fc565b612694919061553d565b94505050505090565b60006126a7613c90565b6126af613cd6565b610ae5838361403b565b6126c161386f565b61011854610102546040516364f6446760e01b81526001600160a01b03909216916364f64467916126f89160040190815260200190565b600060405180830381600087803b15801561271257600080fd5b505af1158015612726573d6000803e3d6000fd5b50506101185460408051633671df2560e01b815290516001600160a01b039092169350633671df2592506004808201926020929091908290030181865afa158015612775573d6000803e3d6000fd5b505050506040513d601f19601f8201168201806040525081019061279991906152f6565b6101025460405163b6b55f2560e01b81526001600160a01b03929092169163b6b55f25916127cd9160040190815260200190565b600060405180830381600087803b1580156127e757600080fd5b505af11580156127fb573d6000803e3d6000fd5b50506000610102555050565b6060603780546109c090615264565b600061282660fc60030154613ff7565b60fe5461010f546040516370a0823160e01b8152306004820152612898916001600160a01b0316906370a0823190602401602060405180830381865afa158015612874573d6000803e3d6000fd5b505050506040513d601f19601f82011682018060405250810190612671919061524b565b6128a2919061553d565b6109ac919061553d565b3360008181526034602090815260408083206001600160a01b0387168452909152812054909190838110156129315760405162461bcd60e51b815260206004820152602560248201527f45524332303a2064656372656173656420616c6c6f77616e63652062656c6f77604482015264207a65726f60d81b6064820152608401610c6a565b6115698286868403613691565b600033610afa8185856139bd565b60008061295860355490565b90508015610ae357604051631b22edb960e01b815260fc600482015260016024820152610ade90730A3B23862eF336DDAc4400935fa93F3090A1971990631b22edb990604401602060405180830381865af41580156129bb573d6000803e3d6000fd5b505050506040513d601f19601f820116820180604052508101906129df919061524b565b8490836137b5565b60006129f1613c90565b6129f9613cd6565b612a048484846140bc565b949350505050565b6000612a16613c90565b612a1e613cd6565b612a0484848461418e565b6040516373c2549d60e11b815260fc60048201526000908190730A3B23862eF336DDAc4400935fa93F3090A197199063e784a93a906024016040805180830381865af4158015612a7d573d6000803e3d6000fd5b505050506040513d601f19601f82011682018060405250810190612aa191906154a3565b915091509091565b612ab161386f565b61010e5461011a5461010d5460405163095ea7b360e01b81526001600160a01b0393841660048201819052600019602483015293928316929091169063095ea7b3906044016020604051808303816000875af1158015612b15573d6000803e3d6000fd5b505050506040513d601f19601f82011682018060405250810190612b3991906154df565b5061010d5460405163095ea7b360e01b81526001600160a01b03838116600483015260001960248301529091169063095ea7b3906044016020604051808303816000875af1158015612b8f573d6000803e3d6000fd5b505050506040513d601f19601f82011682018060405250810190612bb391906154df565b5061010c5460405163095ea7b360e01b81526001600160a01b03848116600483015260001960248301529091169063095ea7b3906044016020604051808303816000875af1158015612c09573d6000803e3d6000fd5b505050506040513d601f19601f82011682018060405250810190612c2d91906154df565b5061010c5460405163095ea7b360e01b81526001600160a01b03838116600483015260001960248301529091169063095ea7b3906044016020604051808303816000875af1158015612c83573d6000803e3d6000fd5b505050506040513d601f19601f82011682018060405250810190612ca791906154df565b5061010c5461011d5460405163095ea7b360e01b81526001600160a01b039182166004820152600019602482015291169063095ea7b3906044016020604051808303816000875af1158015612d00573d6000803e3d6000fd5b505050506040513d601f19601f82011682018060405250810190612d2491906154df565b5061010b5460405163095ea7b360e01b81526001600160a01b03848116600483015260001960248301529091169063095ea7b3906044016020604051808303816000875af1158015612d7a573d6000803e3d6000fd5b505050506040513d601f19601f82011682018060405250810190612d9e91906154df565b5061010b5460405163095ea7b360e01b81526001600160a01b03838116600483015260001960248301529091169063095ea7b3906044016020604051808303816000875af1158015612df4573d6000803e3d6000fd5b505050506040513d601f19601f82011682018060405250810190612e1891906154df565b5061010b5461011d5460405163095ea7b360e01b81526001600160a01b039182166004820152600019602482015291169063095ea7b3906044016020604051808303816000875af1158015612e71573d6000803e3d6000fd5b505050506040513d601f19601f82011682018060405250810190612e9591906154df565b5061010f5461011c5460405163095ea7b360e01b81526001600160a01b039182166004820152600019602482015291169063095ea7b3906044016020604051808303816000875af1158015612eee573d6000803e3d6000fd5b505050506040513d601f19601f82011682018060405250810190612f1291906154df565b506065546101175460405163095ea7b360e01b81526001600160a01b039182166004820152600019602482015291169063095ea7b3906044016020604051808303816000875af1158015612f6a573d6000803e3d6000fd5b505050506040513d601f19601f82011682018060405250810190612f8e91906154df565b506040517fba5bb3f899c7a3edcc9ff9d46c4e08449c6a608b6f8254132bc5af4898645cbc90600090a15050565b6000610b006107ea83611829565b600080612fd660355490565b90508015610ae357604051631b22edb960e01b815260fc600482015260016024820152610ade908290730A3B23862eF336DDAc4400935fa93F3090A1971990631b22edb990604401602060405180830381865af415801561303b573d6000803e3d6000fd5b505050506040513d601f19601f82011682018060405250810190611c7c919061524b565b6001600160a01b038116600090815260336020526040812054610b0090610a43565b60405163e01baf4f60e01b815260fc6004820152600090730A3B23862eF336DDAc4400935fa93F3090A197199063e01baf4f90602401602060405180830381865af41580156130d4573d6000803e3d6000fd5b505050506040513d601f19601f820116820180604052508101906130f891906154df565b806131725750604051634ea6949160e01b815260fc6004820152730A3B23862eF336DDAc4400935fa93F3090A1971990634ea6949190602401602060405180830381865af415801561314e573d6000803e3d6000fd5b505050506040513d601f19601f8201168201806040525081019061317291906154df565b806109ac57506040516335c5382560e01b815260fc6004820152730A3B23862eF336DDAc4400935fa93F3090A19719906335c5382590602401602060405180830381865af41580156131c8573d6000803e3d6000fd5b505050506040513d601f19601f820116820180604052508101906109ac91906154df565b6001600160a01b038116600090815260336020526040812054610b00565b61321261386f565b60fd546001600160a01b038281169116146132475760fd80546001600160a01b0319166001600160a01b038316179055613260565b604051630ed1b8b360e31b815260040160405180910390fd5b610bb88261ffff16111561328757604051638bff87cf60e01b815260040160405180910390fd5b610104805468ffff00000000000000191667010000000000000061ffff851690810291909117909155604080519182526001600160a01b03831660208301527feecc969cd8da3140016e16b0603215de782af59713abfc5055d917b88f4a7b91910160405180910390a15050565b6101175460405163019c8a3b60e11b8152821515600482015260009182916001600160a01b0390911690630339147690602401602060405180830381865afa158015613345573d6000803e3d6000fd5b505050506040513d601f19601f82011682018060405250810190613369919061524b565b9050600060fc600e0160009054906101000a90046001600160a01b03166001600160a01b03166318160ddd6040518163ffffffff1660e01b8152600401602060405180830381865afa1580156133c3573d6000803e3d6000fd5b505050506040513d601f19601f820116820180604052508101906133e7919061524b565b9050612a046c0c9f2c9cd04674edea4000000061340e8369d3c21bcecceda10000006152b5565b849190613672565b61341e61386f565b6127108261ffff161115613445576040516312ee160b60e11b815260040160405180910390fd5b60fc80546001600160a01b03199081166001600160a01b0389811691821790935561010587905561010480546dffffffffff0000000000000000001916600160481b61ffff88169081026dffffff0000000000000000000000191691909117600160581b62ffffff8816021790915561011c805484168a861690811790915561011d8054909416948816948517909355604080519283526020830193909352918101879052606081019290925260808201527fe15ba51cde2870a515ffc9834f5ac1bb010e259ba47eda16968c5bc5be83cbf69060a00160405180910390a1505050505050565b6000610b0082612fca565b61011b546001600160a01b031633146135635760405163f4a8e62160e01b815260040160405180910390fd5b6101045460ff1661358757604051637869c16160e11b815260040160405180910390fd5b604051628453fd60e51b8152730A3B23862eF336DDAc4400935fa93F3090A197199063108a7fa0906135c69060fc9088908890889088906004016155b7565b60006040518083038186803b1580156135de57600080fd5b505af41580156135f2573d6000803e3d6000fd5b5050505050505050565b61360461386f565b6001600160a01b0381166136695760405162461bcd60e51b815260206004820152602660248201527f4f776e61626c653a206e6577206f776e657220697320746865207a65726f206160448201526564647265737360d01b6064820152608401610c6a565b61154d81613f68565b82820281151584158583048514171661368a57600080fd5b0492915050565b6001600160a01b0383166136f35760405162461bcd60e51b8152602060048201526024808201527f45524332303a20617070726f76652066726f6d20746865207a65726f206164646044820152637265737360e01b6064820152608401610c6a565b6001600160a01b0382166137545760405162461bcd60e51b815260206004820152602260248201527f45524332303a20617070726f766520746f20746865207a65726f206164647265604482015261737360f01b6064820152608401610c6a565b6001600160a01b0383811660008181526034602090815260408083209487168084529482529182902085905590518481527f8c5be1e5ebec7d5bd14f71427d1e84f3dd0314c0f7b2291e5b200ac8c7c3b925910160405180910390a3505050565b8282028115158415858304851417166137cd57600080fd5b6001826001830304018115150290509392505050565b600054610100900460ff1661380a5760405162461bcd60e51b8152600401610c6a9061564b565b61182761429b565b600054610100900460ff166138395760405162461bcd60e51b8152600401610c6a9061564b565b6118276142cb565b61384b82826142fe565b5050606580546001600160a01b0319166001600160a01b0392909216919091179055565b6098546001600160a01b031633146118275760405162461bcd60e51b815260206004820181905260248201527f4f776e61626c653a2063616c6c6572206973206e6f7420746865206f776e65726044820152606401610c6a565b6040516001600160a01b03831660248201526044810182905261392c90849063a9059cbb60e01b906064015b60408051601f198184030181529190526020810180516001600160e01b03166001600160e01b031990931692909217909152614333565b505050565b6001600160a01b0383811660009081526034602090815260408083209386168352929052205460001981146113e157818110156139b05760405162461bcd60e51b815260206004820152601d60248201527f45524332303a20696e73756666696369656e7420616c6c6f77616e63650000006044820152606401610c6a565b6113e18484848403613691565b6001600160a01b038316613a215760405162461bcd60e51b815260206004820152602560248201527f45524332303a207472616e736665722066726f6d20746865207a65726f206164604482015264647265737360d81b6064820152608401610c6a565b6001600160a01b038216613a835760405162461bcd60e51b815260206004820152602360248201527f45524332303a207472616e7366657220746f20746865207a65726f206164647260448201526265737360e81b6064820152608401610c6a565b6001600160a01b03831660009081526033602052604090205481811015613afb5760405162461bcd60e51b815260206004820152602660248201527f45524332303a207472616e7366657220616d6f756e7420657863656564732062604482015265616c616e636560d01b6064820152608401610c6a565b6001600160a01b03808516600090815260336020526040808220858503905591851681529081208054849290613b329084906154c7565b92505081905550826001600160a01b0316846001600160a01b03167fddf252ad1be2c89b69c2b068fc378daa952ba7f163c4a11628f55a4df523b3ef84604051613b7e91815260200190565b60405180910390a36113e1565b600080806000198587098587029250828110838203039150508060001415613bc55760008411613bba57600080fd5b508290049050610ae5565b808411613bd157600080fd5b6000848688096000868103871696879004966002600389028118808a02820302808a02820302808a02820302808a02820302808a02820302808a02909103029181900381900460010186841190950394909402919094039290920491909117919091029150509392505050565b613c46614405565b60ca805460ff191690557f5db9ee0a495bf2e6ff9c91a7834c1ba4fdd244a5e8aa4e537bd38aeae4b073aa335b6040516001600160a01b03909116815260200160405180910390a1565b60ca5460ff16156118275760405162461bcd60e51b815260206004820152601060248201526f14185d5cd8589b194e881c185d5cd95960821b6044820152606401610c6a565b60405163a07ae7bb60e01b815260fc6004820152730A3B23862eF336DDAc4400935fa93F3090A197199063a07ae7bb9060240160006040518083038186803b158015613d2157600080fd5b505af4158015613d35573d6000803e3d6000fd5b50506040516373c2549d60e11b815260fc600482015260009250829150730A3B23862eF336DDAc4400935fa93F3090A197199063e784a93a906024016040805180830381865af4158015613d8d573d6000803e3d6000fd5b505050506040513d601f19601f82011682018060405250810190613db191906154a3565b60405163199aa16760e21b815260fc600482015260248101839052604481018290529193509150600090730A3B23862eF336DDAc4400935fa93F3090A197199063666a859c90606401602060405180830381865af4158015613e17573d6000803e3d6000fd5b505050506040513d601f19601f82011682018060405250810190613e3b919061524b565b604051635941106d60e01b815260fc600482015260248101829052909150730A3B23862eF336DDAc4400935fa93F3090A1971990635941106d9060440160006040518083038186803b158015613e9057600080fd5b505af4158015613ea4573d6000803e3d6000fd5b50505050505050565b6000613eb88361352c565b905080613ef55760405162461bcd60e51b815260206004820152600b60248201526a5a45524f5f53484152455360a81b6044820152606401610c6a565b606554613f0d906001600160a01b0316333086614457565b613f17828261448f565b60408051848152602081018390526001600160a01b0384169133917fdcbc1c05240f31ff3ad067ef1ee35ce4997762752e3a095284754544f4c709d7910160405180910390a3610b0083828461456e565b609880546001600160a01b038381166001600160a01b0319831681179093556040519116919082907f8be0079c531659141344cd1fd0a4f28419497f9722a3daafe3b4186f6b6457e090600090a35050565b613fc2613c90565b60ca805460ff191660011790557f62e78cea01bee320cd4e420270b5ea74000d11b0c9f74754ebdbfc544b05a258613c733390565b6000600160ff1b82106140375760405162461bcd60e51b81526020600482015260086024820152674f766572666c6f7760c01b6044820152606401610c6a565b5090565b60006140468361294c565b606554909150614061906001600160a01b0316333084614457565b61406b828461448f565b60408051828152602081018590526001600160a01b0384169133917fdcbc1c05240f31ff3ad067ef1ee35ce4997762752e3a095284754544f4c709d7910160405180910390a3610b0081848461456e565b60006140c784610b06565b9050336001600160a01b03831614614117576001600160a01b038216600090815260346020908152604080832033845290915290205460001981146141155761411583336116f485856152d4565b505b6141228482856146bd565b61412c828261476b565b60408051858152602081018390526001600160a01b03808516929086169133917ffbde797d201c681b91056529119e0b02407c7bb96a4a2c75c01fc9667232c8db910160405180910390a4606554610ae5906001600160a01b031684866138c9565b6000336001600160a01b038316146141de576001600160a01b038216600090815260346020908152604080832033845290915290205460001981146141dc576141dc83336116f488856152d4565b505b6141e784611bb8565b9050806142245760405162461bcd60e51b815260206004820152600b60248201526a5a45524f5f41535345545360a81b6044820152606401610c6a565b61422f8185856146bd565b614239828561476b565b60408051828152602081018690526001600160a01b03808516929086169133917ffbde797d201c681b91056529119e0b02407c7bb96a4a2c75c01fc9667232c8db910160405180910390a4606554610ae5906001600160a01b031684836138c9565b600054610100900460ff166142c25760405162461bcd60e51b8152600401610c6a9061564b565b61182733613f68565b600054610100900460ff166142f25760405162461bcd60e51b8152600401610c6a9061564b565b60ca805460ff19169055565b600054610100900460ff166143255760405162461bcd60e51b8152600401610c6a9061564b565b61432f82826148b9565b5050565b6000614388826040518060400160405280602081526020017f5361666545524332303a206c6f772d6c6576656c2063616c6c206661696c6564815250856001600160a01b03166149079092919063ffffffff16565b80519091501561392c57808060200190518101906143a691906154df565b61392c5760405162461bcd60e51b815260206004820152602a60248201527f5361666545524332303a204552433230206f7065726174696f6e20646964206e6044820152691bdd081cdd58d8d9595960b21b6064820152608401610c6a565b60ca5460ff166118275760405162461bcd60e51b815260206004820152601460248201527f5061757361626c653a206e6f74207061757365640000000000000000000000006044820152606401610c6a565b6040516001600160a01b03808516602483015283166044820152606481018290526113e19085906323b872dd60e01b906084016138f5565b6001600160a01b0382166144e55760405162461bcd60e51b815260206004820152601f60248201527f45524332303a206d696e7420746f20746865207a65726f2061646472657373006044820152606401610c6a565b80603560008282546144f791906154c7565b90915550506001600160a01b038216600090815260336020526040812080548392906145249084906154c7565b90915550506040518181526001600160a01b038316906000907fddf252ad1be2c89b69c2b068fc378daa952ba7f163c4a11628f55a4df523b3ef9060200160405180910390a35050565b6101055461457a610935565b1115614599576040516324d758c360e21b815260040160405180910390fd5b6040516373c2549d60e11b815260fc60048201526000908190730A3B23862eF336DDAc4400935fa93F3090A197199063e784a93a906024016040805180830381865af41580156145ed573d6000803e3d6000fd5b505050506040513d601f19601f8201168201806040525081019061461191906154a3565b9092509050730A3B23862eF336DDAc4400935fa93F3090A1971963a999987d60fc848461463c610935565b6040516001600160e01b031960e087901b16815260048101949094526024840192909252604483015260648201526000608482015260a401602060405180830381865af4158015614691573d6000803e3d6000fd5b505050506040513d601f19601f820116820180604052508101906146b591906154df565b505050505050565b6040516373c2549d60e11b815260fc60048201526000908190730A3B23862eF336DDAc4400935fa93F3090A197199063e784a93a906024016040805180830381865af4158015614711573d6000803e3d6000fd5b505050506040513d601f19601f8201168201806040525081019061473591906154a3565b9092509050730A3B23862eF336DDAc4400935fa93F3090A1971963a999987d60fc848489614761610935565b61463c91906152d4565b6001600160a01b0382166147cb5760405162461bcd60e51b815260206004820152602160248201527f45524332303a206275726e2066726f6d20746865207a65726f206164647265736044820152607360f81b6064820152608401610c6a565b6001600160a01b0382166000908152603360205260409020548181101561483f5760405162461bcd60e51b815260206004820152602260248201527f45524332303a206275726e20616d6f756e7420657863656564732062616c616e604482015261636560f01b6064820152608401610c6a565b6001600160a01b038316600090815260336020526040812083830390556035805484929061486e9084906152d4565b90915550506040518281526000906001600160a01b038516907fddf252ad1be2c89b69c2b068fc378daa952ba7f163c4a11628f55a4df523b3ef9060200160405180910390a3505050565b600054610100900460ff166148e05760405162461bcd60e51b8152600401610c6a9061564b565b81516148f3906036906020850190614a1b565b50805161392c906037906020840190614a1b565b6060612a048484600085856001600160a01b0385163b6149695760405162461bcd60e51b815260206004820152601d60248201527f416464726573733a2063616c6c20746f206e6f6e2d636f6e74726163740000006044820152606401610c6a565b600080866001600160a01b031685876040516149859190615696565b60006040518083038185875af1925050503d80600081146149c2576040519150601f19603f3d011682016040523d82523d6000602084013e6149c7565b606091505b50915091506149d78282866149e2565b979650505050505050565b606083156149f1575081610ae5565b825115614a015782518084602001fd5b8160405162461bcd60e51b8152600401610c6a9190614b03565b828054614a2790615264565b90600052602060002090601f016020900481019282614a495760008555614a8f565b82601f10614a6257805160ff1916838001178555614a8f565b82800160010185558215614a8f579182015b82811115614a8f578251825591602001919060010190614a74565b506140379291505b808211156140375760008155600101614a97565b60005b83811015614ac6578181015183820152602001614aae565b838111156113e15750506000910152565b60008151808452614aef816020860160208601614aab565b601f01601f19169290920160200192915050565b602081526000610ae56020830184614ad7565b600060208284031215614b2857600080fd5b5035919050565b6001600160a01b038116811461154d57600080fd5b60008060408385031215614b5757600080fd5b8235614b6281614b2f565b946020939093013593505050565b60008083601f840112614b8257600080fd5b50813567ffffffffffffffff811115614b9a57600080fd5b602083019150836020828501011115614bb257600080fd5b9250929050565b8035614bc481614b2f565b919050565b6000806000806000806000806000898b03610140811215614be957600080fd5b8a3567ffffffffffffffff80821115614c0157600080fd5b614c0d8e838f01614b70565b909c509a5060208d0135915080821115614c2657600080fd5b50614c338d828e01614b70565b90995097505060408b0135614c4781614b2f565b955060608b0135614c5781614b2f565b945060808b0135614c6781614b2f565b93506080609f1982011215614c7b57600080fd5b5060a08a019150614c8f6101208b01614bb9565b90509295985092959850929598565b600080600060608486031215614cb357600080fd5b8335614cbe81614b2f565b92506020840135614cce81614b2f565b929592945050506040919091013590565b61ffff8116811461154d57600080fd5b600080600060608486031215614d0457600080fd5b833563ffffffff81168114614d1857600080fd5b92506020840135614d2881614cdf565b91506040840135614d3881614cdf565b809150509250925092565b600060208284031215614d5557600080fd5b8135610ae581614b2f565b6001600160801b038116811461154d57600080fd5b600080600080600080600080610100898b031215614d9257600080fd5b8835614d9d81614cdf565b97506020890135614dad81614cdf565b96506040890135614dbd81614cdf565b95506060890135614dcd81614d60565b94506080890135614ddd81614d60565b935060a0890135614ded81614d60565b925060c0890135614dfd81614d60565b915060e0890135614e0d81614d60565b809150509295985092959890939650565b60008060008060808587031215614e3457600080fd5b8435614e3f81614b2f565b93506020850135614e4f81614b2f565b9250604085013591506060850135614e6681614b2f565b939692955090935050565b60008060408385031215614e8457600080fd5b823591506020830135614e9681614b2f565b809150509250929050565b600080600060608486031215614eb657600080fd5b833592506020840135614ec881614b2f565b91506040840135614d3881614b2f565b60008060408385031215614eeb57600080fd5b8235614ef681614b2f565b91506020830135614e9681614b2f565b60008060408385031215614f1957600080fd5b8235614ef681614cdf565b801515811461154d57600080fd5b600060208284031215614f4457600080fd5b8135610ae581614f24565b60008060008060008060c08789031215614f6857600080fd5b8635614f7381614b2f565b95506020870135614f8381614b2f565b9450604087013593506060870135614f9a81614b2f565b92506080870135614faa81614cdf565b915060a087013562ffffff81168114614fc257600080fd5b809150509295509295509295565b634e487b7160e01b600052604160045260246000fd5b6040516101e0810167ffffffffffffffff8111828210171561500a5761500a614fd0565b60405290565b604051601f8201601f1916810167ffffffffffffffff8111828210171561503957615039614fd0565b604052919050565b600067ffffffffffffffff82111561505b5761505b614fd0565b5060051b60200190565b600082601f83011261507657600080fd5b8135602061508b61508683615041565b615010565b82815260059290921b840181019181810190868411156150aa57600080fd5b8286015b848110156150c557803583529183019183016150ae565b509695505050505050565b600082601f8301126150e157600080fd5b813567ffffffffffffffff8111156150fb576150fb614fd0565b61510e601f8201601f1916602001615010565b81815284602083860101111561512357600080fd5b816020850160208301376000918101602001919091529392505050565b6000806000806080858703121561515657600080fd5b843567ffffffffffffffff8082111561516e57600080fd5b818701915087601f83011261518257600080fd5b8135602061519261508683615041565b82815260059290921b8401810191818101908b8411156151b157600080fd5b948201945b838610156151d85785356151c981614b2f565b825294820194908201906151b6565b985050880135925050808211156151ee57600080fd5b6151fa88838901615065565b9450604087013591508082111561521057600080fd5b61521c88838901615065565b9350606087013591508082111561523257600080fd5b5061523f878288016150d0565b91505092959194509250565b60006020828403121561525d57600080fd5b5051919050565b600181811c9082168061527857607f821691505b6020821081141561529957634e487b7160e01b600052602260045260246000fd5b50919050565b634e487b7160e01b600052601160045260246000fd5b60008160001904831182151516156152cf576152cf61529f565b500290565b6000828210156152e6576152e661529f565b500390565b8051614bc481614b2f565b60006020828403121561530857600080fd5b8151610ae581614b2f565b60006020828403121561532557600080fd5b6040516020810181811067ffffffffffffffff8211171561534857615348614fd0565b6040529151825250919050565b8051614bc481614d60565b805164ffffffffff81168114614bc457600080fd5b8051614bc481614cdf565b60006101e0828403121561539357600080fd5b61539b614fe6565b6153a58484615313565b81526153b360208401615355565b60208201526153c460408401615355565b60408201526153d560608401615355565b60608201526153e660808401615355565b60808201526153f760a08401615355565b60a082015261540860c08401615360565b60c082015261541960e08401615375565b60e082015261010061542c8185016152eb565b9082015261012061543e8482016152eb565b908201526101406154508482016152eb565b908201526101606154628482016152eb565b90820152610180615474848201615355565b908201526101a0615486848201615355565b908201526101c0615498848201615355565b908201529392505050565b600080604083850312156154b657600080fd5b505080516020909101519092909150565b600082198211156154da576154da61529f565b500190565b6000602082840312156154f157600080fd5b8151610ae581614f24565b600080821280156001600160ff1b038490038513161561551e5761551e61529f565b600160ff1b83900384128116156155375761553761529f565b50500190565b60008083128015600160ff1b85018412161561555b5761555b61529f565b6001600160ff1b03840183138116156155765761557661529f565b50500390565b600081518084526020808501945080840160005b838110156155ac57815187529582019590820190600101615590565b509495945050505050565b600060a08201878352602060a08185015281885180845260c086019150828a01935060005b818110156156015784516001600160a01b0316835293830193918301916001016155dc565b50508481036040860152615615818961557c565b92505050828103606084015261562b818661557c565b9050828103608084015261563f8185614ad7565b98975050505050505050565b6020808252602b908201527f496e697469616c697a61626c653a20636f6e7472616374206973206e6f74206960408201526a6e697469616c697a696e6760a81b606082015260800190565b600082516156a8818460208701614aab565b919091019291505056fea164736f6c634300080a000a",
  "deployedBytecode": "0x608060405234801561001057600080fd5b50600436106103ba5760003560e01c806382100a50116101f4578063bf9571f11161011a578063e0120cf8116100ad578063ef2a3e1a1161007c578063ef2a3e1a146108e9578063ef8b30f7146108fc578063f04f27071461090f578063f2fde38b1461092257600080fd5b8063e0120cf81461085f578063e245b5af14610872578063ec279a1814610885578063edbcc5991461088d57600080fd5b8063d627b530116100e9578063d627b53014610802578063d905777e1461080a578063dbd5edc71461081d578063dd62ed3e1461082657600080fd5b8063bf9571f1146107c1578063c63d75b6146107c9578063c6e6f592146107dc578063ce96cb77146107ef57600080fd5b806395e2da7c11610192578063b3d7f6b911610161578063b3d7f6b914610780578063b460af9414610793578063ba087652146107a6578063ba7cc8d1146107b957600080fd5b806395e2da7c146106d25780639c3977b5146106da578063a457c2d71461075a578063a9059cbb1461076d57600080fd5b80638da5cb5b116101ce5780638da5cb5b1461069e57806394bf804d146106af57806395956cc1146106c257806395d89b41146106ca57600080fd5b806382100a501461064e5780638456cb591461068e5780638d315d7b1461069657600080fd5b80633d672a45116102e457806359f3fe22116102775780636e553f65116102465780636e553f651461060257806370a0823114610615578063715018a61461063e5780637d7c2a1c1461064657600080fd5b806359f3fe22146105775780635c975abb146105dc5780635c9a9b55146105e757806365eda557146105fa57600080fd5b806347f24f4b116102b357806347f24f4b1461052b5780634cdad5061461053e578063520c5fd914610551578063554070bc1461056457600080fd5b80633d672a45146105005780633f4ba83a14610508578063402d267d14610510578063476343ee1461052357600080fd5b8063138cc18f1161035c57806330af302d1161032b57806330af302d146104a0578063313ce567146104b357806338d52e0f146104c257806339509351146104ed57600080fd5b8063138cc18f1461047557806318160ddd1461047d5780631f5edd8d1461048557806323b872dd1461048d57600080fd5b8063095ea7b311610398578063095ea7b3146104025780630a28a477146104255780630ee31e941461043857806311a843841461044d57600080fd5b806301e1d114146103bf57806306fdde03146103da57806307a2d13a146103ef575b600080fd5b6103c7610935565b6040519081526020015b60405180910390f35b6103e26109b1565b6040516103d19190614b03565b6103c76103fd366004614b16565b610a43565b610415610410366004614b44565b610aec565b60405190151581526020016103d1565b6103c7610433366004614b16565b610b06565b61044b610446366004614bc9565b610bd1565b005b61046061045b366004614b16565b6112fa565b604080519283526020830191909152016103d1565b61044b611382565b6035546103c7565b61044b6113e7565b61041561049b366004614c9e565b611550565b61044b6104ae366004614cef565b611574565b604051601281526020016103d1565b6065546104d5906001600160a01b031681565b6040516001600160a01b0390911681526020016103d1565b6104156104fb366004614b44565b6116ba565b6103c76116f9565b61044b611817565b6103c761051e366004614d43565b611829565b61044b6118b5565b61044b610539366004614d75565b611970565b6103c761054c366004614b16565b611bb8565b61044b61055f366004614d43565b611c84565b6103c7610572366004614b16565b611caf565b60fc5461011c546101055461011d5461010454604080516001600160a01b0396871681529486166020860152840192909252929092166060820152600160481b820461ffff166080820152600160581b90910462ffffff1660a082015260c0016103d1565b60ca5460ff16610415565b61044b6105f5366004614e1e565b611cd3565b61044b611ec3565b6103c7610610366004614e71565b6120e4565b6103c7610623366004614d43565b6001600160a01b031660009081526033602052604090205490565b61044b612100565b61044b612112565b61011b5461011a546101005461011354604080516001600160a01b03958616815293851660208501528301919091529190911660608201526080016103d1565b61044b612442565b6103c7612452565b6098546001600160a01b03166104d5565b6103c76106bd366004614e71565b61269d565b61044b6126b9565b6103e2612807565b6103c7612816565b6101065461010754610108546040805161ffff620100008604811682526401000000008604811660208301528516918101919091526001600160801b038084166060830152600160701b90940484166080820152600160801b92839004841660a082015283821660c082015291900490911660e0820152610100016103d1565b610415610768366004614b44565b6128ac565b61041561077b366004614b44565b61293e565b6103c761078e366004614b16565b61294c565b6103c76107a1366004614ea1565b6129e7565b6103c76107b4366004614ea1565b612a0c565b610460612a29565b61044b612aa9565b6103c76107d7366004614d43565b612fbc565b6103c76107ea366004614b16565b612fca565b6103c76107fd366004614d43565b61305f565b610415613081565b6103c7610818366004614d43565b6131ec565b610105546103c7565b6103c7610834366004614ed8565b6001600160a01b03918216600090815260346020908152604080832093909416825291909152205490565b61044b61086d366004614f06565b61320a565b6103c7610880366004614f32565b6132f5565b60fe546103c7565b6108c26101065463ffffffff680100000000000000008204169161ffff600160601b8304811692660100000000000090041690565b6040805163ffffffff909416845261ffff92831660208501529116908201526060016103d1565b61044b6108f7366004614f4f565b613416565b6103c761090a366004614b16565b61352c565b61044b61091d366004615140565b613537565b61044b610930366004614d43565b6135fc565b60405163ab42ed5760e01b815260fc600482015260009073__$2af743edc7b1c16cb7d679fc921122aeb9$__9063ab42ed5790602401602060405180830381865af4158015610988573d6000803e3d6000fd5b505050506040513d601f19601f820116820180604052508101906109ac919061524b565b905090565b6060603680546109c090615264565b80601f01602080910402602001604051908101604052809291908181526020018280546109ec90615264565b8015610a395780601f10610a0e57610100808354040283529160200191610a39565b820191906000526020600020905b815481529060010190602001808311610a1c57829003601f168201915b5050505050905090565b600080610a4f60355490565b90508015610ae357604051631b22edb960e01b815260fc600482015260006024820152610ade9073__$2af743edc7b1c16cb7d679fc921122aeb9$__90631b22edb990604401602060405180830381865af4158015610ab2573d6000803e3d6000fd5b505050506040513d601f19601f82011682018060405250810190610ad6919061524b565b849083613672565b610ae5565b825b9392505050565b600033610afa818585613691565b60019150505b92915050565b600080610b1260355490565b90508015610ae357610ade610b29612710836152b5565b61010454610b4490600160481b900461ffff166127106152d4565b604051631b22edb960e01b815260fc60048201526000602482015273__$2af743edc7b1c16cb7d679fc921122aeb9$__90631b22edb990604401602060405180830381865af4158015610b9b573d6000803e3d6000fd5b505050506040513d601f19601f82011682018060405250810190610bbf919061524b565b610bc991906152b5565b8591906137b5565b600054610100900460ff1615808015610bf15750600054600160ff909116105b80610c0b5750303b158015610c0b575060005460ff166001145b610c735760405162461bcd60e51b815260206004820152602e60248201527f496e697469616c697a61626c653a20636f6e747261637420697320616c72656160448201526d191e481a5b9a5d1a585b1a5e995960921b60648201526084015b60405180910390fd5b6000805460ff191660011790558015610c96576000805461ff0019166101001790555b610c9e6137e3565b610ca6613812565b610d29610cb96060850160408601614d43565b8b8b8080601f01602080910402602001604051908101604052809392919081815260200183838082843760009201919091525050604080516020601f8f018190048102820181019092528d815292508d91508c908190840183828082843760009201919091525061384192505050565b610d366020840184614d43565b61010c80546001600160a01b0319166001600160a01b0392909216919091179055610d676040840160208501614d43565b61010d80546001600160a01b0319166001600160a01b0392909216919091179055610d986080840160608501614d43565b61010b80546001600160a01b03199081166001600160a01b039384161790915561011a805482168984161790556101188054821688841617905561011980548216878416179055610114805490911684831617905560655460408051633c5103f760e11b8152905191909216916378a207ee9160048281019260209291908290030181865afa158015610e2f573d6000803e3d6000fd5b505050506040513d601f19601f82011682018060405250810190610e5391906152f6565b61010a80546001600160a01b0319166001600160a01b0392831617905560408051633e9b6c6f60e21b815290519186169163fa6db1bc916004808201926020929091908290030181865afa158015610eaf573d6000803e3d6000fd5b505050506040513d601f19601f82011682018060405250810190610ed391906152f6565b61011780546001600160a01b0319166001600160a01b039283161790556065546040805162af394d60e81b81529051919092169163af394d009160048083019260209291908290030181865afa158015610f31573d6000803e3d6000fd5b505050506040513d601f19601f82011682018060405250810190610f5591906152f6565b61010980546001600160a01b0319166001600160a01b03928316179055610117546040805163fbfa77cf60e01b81529051919092169163fbfa77cf9160048083019260209291908290030181865afa158015610fb5573d6000803e3d6000fd5b505050506040513d601f19601f82011682018060405250810190610fd991906152f6565b61011580546001600160a01b0319166001600160a01b03928316179055610114546040805163026b1d5f60e01b81529051919092169163026b1d5f9160048083019260209291908290030181865afa158015611039573d6000803e3d6000fd5b505050506040513d601f19601f8201168201806040525081019061105d91906152f6565b61010e80546001600160a01b0319166001600160a01b039283161790556101145460408051631f94a27560e31b81529051919092169163fca513a89160048083019260209291908290030181865afa1580156110bd573d6000803e3d6000fd5b505050506040513d601f19601f820116820180604052508101906110e191906152f6565b61011280546001600160a01b0319166001600160a01b0392831617905561010e5461010b546040516335ea6a7560e01b815290831660048201529116906335ea6a75906024016101e060405180830381865afa158015611145573d6000803e3d6000fd5b505050506040513d601f19601f820116820180604052508101906111699190615380565b610100015161010f80546001600160a01b0319166001600160a01b0392831617905561010e5461010d546040516335ea6a7560e01b815290831660048201529116906335ea6a75906024016101e060405180830381865afa1580156111d2573d6000803e3d6000fd5b505050506040513d601f19601f820116820180604052508101906111f69190615380565b610140015161011080546001600160a01b0319166001600160a01b0392831617905561010e5461010c546040516335ea6a7560e01b815290831660048201529116906335ea6a75906024016101e060405180830381865afa15801561125f573d6000803e3d6000fd5b505050506040513d601f19601f820116820180604052508101906112839190615380565b610140015161011180546001600160a01b0319166001600160a01b0390921691909117905580156112ee576000805461ff0019169055604051600181527f7f26b83ff96e1f2b6a682f133852f6798a09c465da95921460cefb38474024989060200160405180910390a15b50505050505050505050565b6040516318b7199960e11b815260fc600482015260248101829052600090819073__$2af743edc7b1c16cb7d679fc921122aeb9$__9063316e3332906044016040805180830381865af4158015611355573d6000803e3d6000fd5b505050506040513d601f19601f8201168201806040525081019061137991906154a3565b91509150915091565b60405163a07ae7bb60e01b815260fc600482015273__$2af743edc7b1c16cb7d679fc921122aeb9$__9063a07ae7bb9060240160006040518083038186803b1580156113cd57600080fd5b505af41580156113e1573d6000803e3d6000fd5b50505050565b6113ef61386f565b6101185460408051633671df2560e01b815290516000926001600160a01b031691633671df259160048083019260209291908290030181865afa15801561143a573d6000803e3d6000fd5b505050506040513d601f19601f8201168201806040525081019061145e91906152f6565b6001600160a01b0316634e71d92d6040518163ffffffff1660e01b81526004016020604051808303816000875af115801561149d573d6000803e3d6000fd5b505050506040513d601f19601f820116820180604052508101906114c1919061524b565b60fd5461011854604080516331e67c7160e01b8152905193945061154d936001600160a01b0393841693869316916331e67c719160048083019260209291908290030181865afa158015611519573d6000803e3d6000fd5b505050506040513d601f19601f8201168201806040525081019061153d91906152f6565b6001600160a01b031691906138c9565b50565b60003361155e858285613931565b6115698585856139bd565b506001949350505050565b61157c61386f565b6203f4808363ffffffff1611156115a5576040516228254960e21b815260040160405180910390fd5b6127108261ffff1611156115cc5760405163fd24448b60e01b815260040160405180910390fd5b6127108161ffff1610806115e657506101005461ffff8216115b156116045760405163149d3c7560e21b815260040160405180910390fd5b61010680546dffffffffffff000000000000000019166801000000000000000063ffffffff86169081026dffff000000000000000000000000191691909117600160601b61ffff8681169182029290921767ffff0000000000001916660100000000000092861692830217909355604080519283526020830193909352918101919091527f74666b2773815375e6daaf777fe5b0b6f04a4a15373485cfaf2cf48251b21d9e9060600160405180910390a1505050565b3360008181526034602090815260408083206001600160a01b0387168452909152812054909190610afa90829086906116f49087906154c7565b613691565b6101175460405163019c8a3b60e11b81526000600482018190529182916001600160a01b0390911690630339147690602401602060405180830381865afa158015611748573d6000803e3d6000fd5b505050506040513d601f19601f8201168201806040525081019061176c919061524b565b9050600060fc600e0160009054906101000a90046001600160a01b03166001600160a01b03166318160ddd6040518163ffffffff1660e01b8152600401602060405180830381865afa1580156117c6573d6000803e3d6000fd5b505050506040513d601f19601f820116820180604052508101906117ea919061524b565b9050611810600160801b6118088369d3c21bcecceda10000006152b5565b849190613b8b565b9250505090565b61181f61386f565b611827613c3e565b565b604051631b22edb960e01b815260fc60048201526001602482015260009073__$2af743edc7b1c16cb7d679fc921122aeb9$__90631b22edb990604401602060405180830381865af4158015611883573d6000803e3d6000fd5b505050506040513d601f19601f820116820180604052508101906118a7919061524b565b61010554610b0091906152d4565b6101018054600090915561010c5460fd5460405163a9059cbb60e01b81526001600160a01b0391821660048201526024810184905291169063a9059cbb906044016020604051808303816000875af1158015611915573d6000803e3d6000fd5b505050506040513d601f19601f8201168201806040525081019061193991906154df565b506040518181527f9800e6f57aeb4360eaa72295a820a4293e1e66fbfcabcd8874ae141304a76deb9060200160405180910390a150565b61197861386f565b6127108861ffff16111561199f5760405163669169e560e01b815260040160405180910390fd5b6127108761ffff1611156119c657604051632722719960e21b815260040160405180910390fd5b6127108661ffff1611156119ed576040516378fd03f760e01b815260040160405180910390fd5b8760fc600a0160026101000a81548161ffff021916908361ffff1602179055508660fc600a0160046101000a81548161ffff021916908361ffff1602179055508560fc600a0160006101000a81548161ffff021916908361ffff1602179055508460fc600b0160006101000a8154816001600160801b0302191690836001600160801b031602179055508360fc600a01600e6101000a8154816001600160801b0302191690836001600160801b031602179055508260fc600b0160106101000a8154816001600160801b0302191690836001600160801b031602179055508160fc600c0160006101000a8154816001600160801b0302191690836001600160801b031602179055508060fc600c0160106101000a8154816001600160801b0302191690836001600160801b031602179055507f8405afe6e9767f91c282339dc75edd776ddeda3e9aad8e1bb15471db89f8d8678888888888888888604051611ba698979695949392919061ffff988916815296881660208801529490961660408601526001600160801b0392831660608601529082166080850152811660a084015292831660c083015290911660e08201526101000190565b60405180910390a15050505050505050565b600080611bc460355490565b90508015610ae35761010454610ade90611beb90600160481b900461ffff166127106152d4565b604051631b22edb960e01b815260fc60048201526000602482015273__$2af743edc7b1c16cb7d679fc921122aeb9$__90631b22edb990604401602060405180830381865af4158015611c42573d6000803e3d6000fd5b505050506040513d601f19601f82011682018060405250810190611c66919061524b565b611c7091906152b5565b611c7c612710846152b5565b859190613672565b611c8c61386f565b61011780546001600160a01b0319166001600160a01b0392909216919091179055565b6000610b00611cbe60006132f5565b83906c0c9f2c9cd04674edea40000000613672565b611cdb61386f565b614e20821115611cfe5760405163361804a960e21b815260040160405180910390fd5b61011b80546001600160a01b038087166001600160a01b03199283161790925561011a805486841690831617905561010084905561011380548484169216919091179055610114546040805163026b1d5f60e01b815290519190921691600091839163026b1d5f9160048281019260209291908290030181865afa158015611d8a573d6000803e3d6000fd5b505050506040513d601f19601f82011682018060405250810190611dae91906152f6565b90508060fc60120160006101000a8154816001600160a01b0302191690836001600160a01b031602179055506000826001600160a01b031663fca513a86040518163ffffffff1660e01b8152600401602060405180830381865afa158015611e1a573d6000803e3d6000fd5b505050506040513d601f19601f82011682018060405250810190611e3e91906152f6565b61011280546001600160a01b0319166001600160a01b03838116918217909255604080518b841681528a841660208201529081018990528783166060820152918516608083015260a08201529091507f04a2e4917e8cf09fc5f74a42cb8b240cb288a69c78dbf02719e5c7bf9ca1561e9060c00160405180910390a150505050505050565b611ecb61386f565b6101185460408051633671df2560e01b815290516001600160a01b0390921691633671df25916004808201926020929091908290030181865afa158015611f16573d6000803e3d6000fd5b505050506040513d601f19601f82011682018060405250810190611f3a91906152f6565b6001600160a01b0316633ccfd60b6040518163ffffffff1660e01b8152600401600060405180830381600087803b158015611f7457600080fd5b505af1158015611f88573d6000803e3d6000fd5b50506101185460408051630d43254f60e31b81529051600094506001600160a01b039092169250636a192a789160048083019260209291908290030181865afa158015611fd9573d6000803e3d6000fd5b505050506040513d601f19601f82011682018060405250810190611ffd91906152f6565b6040516370a0823160e01b81523060048201526001600160a01b0391909116906370a0823190602401602060405180830381865afa158015612043573d6000803e3d6000fd5b505050506040513d601f19601f82011682018060405250810190612067919061524b565b61011854604051633be3166560e21b8152600481018390529192506001600160a01b03169063ef8c599490602401600060405180830381600087803b1580156120af57600080fd5b505af11580156120c3573d6000803e3d6000fd5b505050508060fc60060160008282546120dc91906154c7565b909155505050565b60006120ee613c90565b6120f6613cd6565b610ae58383613ead565b61210861386f565b6118276000613f68565b60fc546001600160a01b031633146121525760fc546040516329b7946d60e01b81523360048201526001600160a01b039091166024820152604401610c6a565b61215a613081565b6121775760405163a039e79960e01b815260040160405180910390fd5b60405163a07ae7bb60e01b815260fc600482015273__$2af743edc7b1c16cb7d679fc921122aeb9$__9063a07ae7bb9060240160006040518083038186803b1580156121c257600080fd5b505af41580156121d6573d6000803e3d6000fd5b50506040516373c2549d60e11b815260fc60048201526000925082915073__$2af743edc7b1c16cb7d679fc921122aeb9$__9063e784a93a906024016040805180830381865af415801561222e573d6000803e3d6000fd5b505050506040513d601f19601f8201168201806040525081019061225291906154a3565b60405163199aa16760e21b815260fc60048201526024810183905260448101829052919350915060009073__$2af743edc7b1c16cb7d679fc921122aeb9$__9063666a859c90606401602060405180830381865af41580156122b8573d6000803e3d6000fd5b505050506040513d601f19601f820116820180604052508101906122dc919061524b565b604051635941106d60e01b815260fc60048201526024810182905290915073__$2af743edc7b1c16cb7d679fc921122aeb9$__90635941106d9060440160006040518083038186803b15801561233157600080fd5b505af4158015612345573d6000803e3d6000fd5b50505050600060fc73__$2af743edc7b1c16cb7d679fc921122aeb9$__63a999987d90918686612373610935565b6040516001600160e01b031960e087901b16815260048101949094526024840192909252604483015260648201526001608482015260a401602060405180830381865af41580156123c8573d6000803e3d6000fd5b505050506040513d601f19601f820116820180604052508101906123ec91906154df565b90508061241357610104805466ffffffffffff0019166101004265ffffffffffff16021790555b6040517fc741dbaad15a4f298fe8d80943fa8e005e7bcb2f5b0a0c8dec1fc35be457f14690600090a150505050565b61244a61386f565b611827613fba565b6040516373c2549d60e11b815260fc60048201526000908190819073__$2af743edc7b1c16cb7d679fc921122aeb9$__9063e784a93a906024016040805180830381865af41580156124a8573d6000803e3d6000fd5b505050506040513d601f19601f820116820180604052508101906124cc91906154a3565b60405163199aa16760e21b815260fc60048201526024810183905260448101829052919350915060009073__$2af743edc7b1c16cb7d679fc921122aeb9$__9063666a859c90606401602060405180830381865af4158015612532573d6000803e3d6000fd5b505050506040513d601f19601f82011682018060405250810190612556919061524b565b9050600060fc60210160009054906101000a90046001600160a01b03166001600160a01b031663584150756040518163ffffffff1660e01b8152600401602060405180830381865afa1580156125b0573d6000803e3d6000fd5b505050506040513d601f19601f820116820180604052508101906125d4919061524b565b610109546040516370a0823160e01b81523060048201526001600160a01b03909116906370a0823190602401602060405180830381865afa15801561261d573d6000803e3d6000fd5b505050506040513d601f19601f82011682018060405250810190612641919061524b565b61264b91906154c7565b905061265682613ff7565b60ff5461266290613ff7565b60fe5461267661267185611caf565b613ff7565b61268091906154fc565b61268a91906154fc565b612694919061553d565b94505050505090565b60006126a7613c90565b6126af613cd6565b610ae5838361403b565b6126c161386f565b61011854610102546040516364f6446760e01b81526001600160a01b03909216916364f64467916126f89160040190815260200190565b600060405180830381600087803b15801561271257600080fd5b505af1158015612726573d6000803e3d6000fd5b50506101185460408051633671df2560e01b815290516001600160a01b039092169350633671df2592506004808201926020929091908290030181865afa158015612775573d6000803e3d6000fd5b505050506040513d601f19601f8201168201806040525081019061279991906152f6565b6101025460405163b6b55f2560e01b81526001600160a01b03929092169163b6b55f25916127cd9160040190815260200190565b600060405180830381600087803b1580156127e757600080fd5b505af11580156127fb573d6000803e3d6000fd5b50506000610102555050565b6060603780546109c090615264565b600061282660fc60030154613ff7565b60fe5461010f546040516370a0823160e01b8152306004820152612898916001600160a01b0316906370a0823190602401602060405180830381865afa158015612874573d6000803e3d6000fd5b505050506040513d601f19601f82011682018060405250810190612671919061524b565b6128a2919061553d565b6109ac919061553d565b3360008181526034602090815260408083206001600160a01b0387168452909152812054909190838110156129315760405162461bcd60e51b815260206004820152602560248201527f45524332303a2064656372656173656420616c6c6f77616e63652062656c6f77604482015264207a65726f60d81b6064820152608401610c6a565b6115698286868403613691565b600033610afa8185856139bd565b60008061295860355490565b90508015610ae357604051631b22edb960e01b815260fc600482015260016024820152610ade9073__$2af743edc7b1c16cb7d679fc921122aeb9$__90631b22edb990604401602060405180830381865af41580156129bb573d6000803e3d6000fd5b505050506040513d601f19601f820116820180604052508101906129df919061524b565b8490836137b5565b60006129f1613c90565b6129f9613cd6565b612a048484846140bc565b949350505050565b6000612a16613c90565b612a1e613cd6565b612a0484848461418e565b6040516373c2549d60e11b815260fc6004820152600090819073__$2af743edc7b1c16cb7d679fc921122aeb9$__9063e784a93a906024016040805180830381865af4158015612a7d573d6000803e3d6000fd5b505050506040513d601f19601f82011682018060405250810190612aa191906154a3565b915091509091565b612ab161386f565b61010e5461011a5461010d5460405163095ea7b360e01b81526001600160a01b0393841660048201819052600019602483015293928316929091169063095ea7b3906044016020604051808303816000875af1158015612b15573d6000803e3d6000fd5b505050506040513d601f19601f82011682018060405250810190612b3991906154df565b5061010d5460405163095ea7b360e01b81526001600160a01b03838116600483015260001960248301529091169063095ea7b3906044016020604051808303816000875af1158015612b8f573d6000803e3d6000fd5b505050506040513d601f19601f82011682018060405250810190612bb391906154df565b5061010c5460405163095ea7b360e01b81526001600160a01b03848116600483015260001960248301529091169063095ea7b3906044016020604051808303816000875af1158015612c09573d6000803e3d6000fd5b505050506040513d601f19601f82011682018060405250810190612c2d91906154df565b5061010c5460405163095ea7b360e01b81526001600160a01b03838116600483015260001960248301529091169063095ea7b3906044016020604051808303816000875af1158015612c83573d6000803e3d6000fd5b505050506040513d601f19601f82011682018060405250810190612ca791906154df565b5061010c5461011d5460405163095ea7b360e01b81526001600160a01b039182166004820152600019602482015291169063095ea7b3906044016020604051808303816000875af1158015612d00573d6000803e3d6000fd5b505050506040513d601f19601f82011682018060405250810190612d2491906154df565b5061010b5460405163095ea7b360e01b81526001600160a01b03848116600483015260001960248301529091169063095ea7b3906044016020604051808303816000875af1158015612d7a573d6000803e3d6000fd5b505050506040513d601f19601f82011682018060405250810190612d9e91906154df565b5061010b5460405163095ea7b360e01b81526001600160a01b03838116600483015260001960248301529091169063095ea7b3906044016020604051808303816000875af1158015612df4573d6000803e3d6000fd5b505050506040513d601f19601f82011682018060405250810190612e1891906154df565b5061010b5461011d5460405163095ea7b360e01b81526001600160a01b039182166004820152600019602482015291169063095ea7b3906044016020604051808303816000875af1158015612e71573d6000803e3d6000fd5b505050506040513d601f19601f82011682018060405250810190612e9591906154df565b5061010f5461011c5460405163095ea7b360e01b81526001600160a01b039182166004820152600019602482015291169063095ea7b3906044016020604051808303816000875af1158015612eee573d6000803e3d6000fd5b505050506040513d601f19601f82011682018060405250810190612f1291906154df565b506065546101175460405163095ea7b360e01b81526001600160a01b039182166004820152600019602482015291169063095ea7b3906044016020604051808303816000875af1158015612f6a573d6000803e3d6000fd5b505050506040513d601f19601f82011682018060405250810190612f8e91906154df565b506040517fba5bb3f899c7a3edcc9ff9d46c4e08449c6a608b6f8254132bc5af4898645cbc90600090a15050565b6000610b006107ea83611829565b600080612fd660355490565b90508015610ae357604051631b22edb960e01b815260fc600482015260016024820152610ade90829073__$2af743edc7b1c16cb7d679fc921122aeb9$__90631b22edb990604401602060405180830381865af415801561303b573d6000803e3d6000fd5b505050506040513d601f19601f82011682018060405250810190611c7c919061524b565b6001600160a01b038116600090815260336020526040812054610b0090610a43565b60405163e01baf4f60e01b815260fc600482015260009073__$2af743edc7b1c16cb7d679fc921122aeb9$__9063e01baf4f90602401602060405180830381865af41580156130d4573d6000803e3d6000fd5b505050506040513d601f19601f820116820180604052508101906130f891906154df565b806131725750604051634ea6949160e01b815260fc600482015273__$2af743edc7b1c16cb7d679fc921122aeb9$__90634ea6949190602401602060405180830381865af415801561314e573d6000803e3d6000fd5b505050506040513d601f19601f8201168201806040525081019061317291906154df565b806109ac57506040516335c5382560e01b815260fc600482015273__$2af743edc7b1c16cb7d679fc921122aeb9$__906335c5382590602401602060405180830381865af41580156131c8573d6000803e3d6000fd5b505050506040513d601f19601f820116820180604052508101906109ac91906154df565b6001600160a01b038116600090815260336020526040812054610b00565b61321261386f565b60fd546001600160a01b038281169116146132475760fd80546001600160a01b0319166001600160a01b038316179055613260565b604051630ed1b8b360e31b815260040160405180910390fd5b610bb88261ffff16111561328757604051638bff87cf60e01b815260040160405180910390fd5b610104805468ffff00000000000000191667010000000000000061ffff851690810291909117909155604080519182526001600160a01b03831660208301527feecc969cd8da3140016e16b0603215de782af59713abfc5055d917b88f4a7b91910160405180910390a15050565b6101175460405163019c8a3b60e11b8152821515600482015260009182916001600160a01b0390911690630339147690602401602060405180830381865afa158015613345573d6000803e3d6000fd5b505050506040513d601f19601f82011682018060405250810190613369919061524b565b9050600060fc600e0160009054906101000a90046001600160a01b03166001600160a01b03166318160ddd6040518163ffffffff1660e01b8152600401602060405180830381865afa1580156133c3573d6000803e3d6000fd5b505050506040513d601f19601f820116820180604052508101906133e7919061524b565b9050612a046c0c9f2c9cd04674edea4000000061340e8369d3c21bcecceda10000006152b5565b849190613672565b61341e61386f565b6127108261ffff161115613445576040516312ee160b60e11b815260040160405180910390fd5b60fc80546001600160a01b03199081166001600160a01b0389811691821790935561010587905561010480546dffffffffff0000000000000000001916600160481b61ffff88169081026dffffff0000000000000000000000191691909117600160581b62ffffff8816021790915561011c805484168a861690811790915561011d8054909416948816948517909355604080519283526020830193909352918101879052606081019290925260808201527fe15ba51cde2870a515ffc9834f5ac1bb010e259ba47eda16968c5bc5be83cbf69060a00160405180910390a1505050505050565b6000610b0082612fca565b61011b546001600160a01b031633146135635760405163f4a8e62160e01b815260040160405180910390fd5b6101045460ff1661358757604051637869c16160e11b815260040160405180910390fd5b604051628453fd60e51b815273__$2af743edc7b1c16cb7d679fc921122aeb9$__9063108a7fa0906135c69060fc9088908890889088906004016155b7565b60006040518083038186803b1580156135de57600080fd5b505af41580156135f2573d6000803e3d6000fd5b5050505050505050565b61360461386f565b6001600160a01b0381166136695760405162461bcd60e51b815260206004820152602660248201527f4f776e61626c653a206e6577206f776e657220697320746865207a65726f206160448201526564647265737360d01b6064820152608401610c6a565b61154d81613f68565b82820281151584158583048514171661368a57600080fd5b0492915050565b6001600160a01b0383166136f35760405162461bcd60e51b8152602060048201526024808201527f45524332303a20617070726f76652066726f6d20746865207a65726f206164646044820152637265737360e01b6064820152608401610c6a565b6001600160a01b0382166137545760405162461bcd60e51b815260206004820152602260248201527f45524332303a20617070726f766520746f20746865207a65726f206164647265604482015261737360f01b6064820152608401610c6a565b6001600160a01b0383811660008181526034602090815260408083209487168084529482529182902085905590518481527f8c5be1e5ebec7d5bd14f71427d1e84f3dd0314c0f7b2291e5b200ac8c7c3b925910160405180910390a3505050565b8282028115158415858304851417166137cd57600080fd5b6001826001830304018115150290509392505050565b600054610100900460ff1661380a5760405162461bcd60e51b8152600401610c6a9061564b565b61182761429b565b600054610100900460ff166138395760405162461bcd60e51b8152600401610c6a9061564b565b6118276142cb565b61384b82826142fe565b5050606580546001600160a01b0319166001600160a01b0392909216919091179055565b6098546001600160a01b031633146118275760405162461bcd60e51b815260206004820181905260248201527f4f776e61626c653a2063616c6c6572206973206e6f7420746865206f776e65726044820152606401610c6a565b6040516001600160a01b03831660248201526044810182905261392c90849063a9059cbb60e01b906064015b60408051601f198184030181529190526020810180516001600160e01b03166001600160e01b031990931692909217909152614333565b505050565b6001600160a01b0383811660009081526034602090815260408083209386168352929052205460001981146113e157818110156139b05760405162461bcd60e51b815260206004820152601d60248201527f45524332303a20696e73756666696369656e7420616c6c6f77616e63650000006044820152606401610c6a565b6113e18484848403613691565b6001600160a01b038316613a215760405162461bcd60e51b815260206004820152602560248201527f45524332303a207472616e736665722066726f6d20746865207a65726f206164604482015264647265737360d81b6064820152608401610c6a565b6001600160a01b038216613a835760405162461bcd60e51b815260206004820152602360248201527f45524332303a207472616e7366657220746f20746865207a65726f206164647260448201526265737360e81b6064820152608401610c6a565b6001600160a01b03831660009081526033602052604090205481811015613afb5760405162461bcd60e51b815260206004820152602660248201527f45524332303a207472616e7366657220616d6f756e7420657863656564732062604482015265616c616e636560d01b6064820152608401610c6a565b6001600160a01b03808516600090815260336020526040808220858503905591851681529081208054849290613b329084906154c7565b92505081905550826001600160a01b0316846001600160a01b03167fddf252ad1be2c89b69c2b068fc378daa952ba7f163c4a11628f55a4df523b3ef84604051613b7e91815260200190565b60405180910390a36113e1565b600080806000198587098587029250828110838203039150508060001415613bc55760008411613bba57600080fd5b508290049050610ae5565b808411613bd157600080fd5b6000848688096000868103871696879004966002600389028118808a02820302808a02820302808a02820302808a02820302808a02820302808a02909103029181900381900460010186841190950394909402919094039290920491909117919091029150509392505050565b613c46614405565b60ca805460ff191690557f5db9ee0a495bf2e6ff9c91a7834c1ba4fdd244a5e8aa4e537bd38aeae4b073aa335b6040516001600160a01b03909116815260200160405180910390a1565b60ca5460ff16156118275760405162461bcd60e51b815260206004820152601060248201526f14185d5cd8589b194e881c185d5cd95960821b6044820152606401610c6a565b60405163a07ae7bb60e01b815260fc600482015273__$2af743edc7b1c16cb7d679fc921122aeb9$__9063a07ae7bb9060240160006040518083038186803b158015613d2157600080fd5b505af4158015613d35573d6000803e3d6000fd5b50506040516373c2549d60e11b815260fc60048201526000925082915073__$2af743edc7b1c16cb7d679fc921122aeb9$__9063e784a93a906024016040805180830381865af4158015613d8d573d6000803e3d6000fd5b505050506040513d601f19601f82011682018060405250810190613db191906154a3565b60405163199aa16760e21b815260fc60048201526024810183905260448101829052919350915060009073__$2af743edc7b1c16cb7d679fc921122aeb9$__9063666a859c90606401602060405180830381865af4158015613e17573d6000803e3d6000fd5b505050506040513d601f19601f82011682018060405250810190613e3b919061524b565b604051635941106d60e01b815260fc60048201526024810182905290915073__$2af743edc7b1c16cb7d679fc921122aeb9$__90635941106d9060440160006040518083038186803b158015613e9057600080fd5b505af4158015613ea4573d6000803e3d6000fd5b50505050505050565b6000613eb88361352c565b905080613ef55760405162461bcd60e51b815260206004820152600b60248201526a5a45524f5f53484152455360a81b6044820152606401610c6a565b606554613f0d906001600160a01b0316333086614457565b613f17828261448f565b60408051848152602081018390526001600160a01b0384169133917fdcbc1c05240f31ff3ad067ef1ee35ce4997762752e3a095284754544f4c709d7910160405180910390a3610b0083828461456e565b609880546001600160a01b038381166001600160a01b0319831681179093556040519116919082907f8be0079c531659141344cd1fd0a4f28419497f9722a3daafe3b4186f6b6457e090600090a35050565b613fc2613c90565b60ca805460ff191660011790557f62e78cea01bee320cd4e420270b5ea74000d11b0c9f74754ebdbfc544b05a258613c733390565b6000600160ff1b82106140375760405162461bcd60e51b81526020600482015260086024820152674f766572666c6f7760c01b6044820152606401610c6a565b5090565b60006140468361294c565b606554909150614061906001600160a01b0316333084614457565b61406b828461448f565b60408051828152602081018590526001600160a01b0384169133917fdcbc1c05240f31ff3ad067ef1ee35ce4997762752e3a095284754544f4c709d7910160405180910390a3610b0081848461456e565b60006140c784610b06565b9050336001600160a01b03831614614117576001600160a01b038216600090815260346020908152604080832033845290915290205460001981146141155761411583336116f485856152d4565b505b6141228482856146bd565b61412c828261476b565b60408051858152602081018390526001600160a01b03808516929086169133917ffbde797d201c681b91056529119e0b02407c7bb96a4a2c75c01fc9667232c8db910160405180910390a4606554610ae5906001600160a01b031684866138c9565b6000336001600160a01b038316146141de576001600160a01b038216600090815260346020908152604080832033845290915290205460001981146141dc576141dc83336116f488856152d4565b505b6141e784611bb8565b9050806142245760405162461bcd60e51b815260206004820152600b60248201526a5a45524f5f41535345545360a81b6044820152606401610c6a565b61422f8185856146bd565b614239828561476b565b60408051828152602081018690526001600160a01b03808516929086169133917ffbde797d201c681b91056529119e0b02407c7bb96a4a2c75c01fc9667232c8db910160405180910390a4606554610ae5906001600160a01b031684836138c9565b600054610100900460ff166142c25760405162461bcd60e51b8152600401610c6a9061564b565b61182733613f68565b600054610100900460ff166142f25760405162461bcd60e51b8152600401610c6a9061564b565b60ca805460ff19169055565b600054610100900460ff166143255760405162461bcd60e51b8152600401610c6a9061564b565b61432f82826148b9565b5050565b6000614388826040518060400160405280602081526020017f5361666545524332303a206c6f772d6c6576656c2063616c6c206661696c6564815250856001600160a01b03166149079092919063ffffffff16565b80519091501561392c57808060200190518101906143a691906154df565b61392c5760405162461bcd60e51b815260206004820152602a60248201527f5361666545524332303a204552433230206f7065726174696f6e20646964206e6044820152691bdd081cdd58d8d9595960b21b6064820152608401610c6a565b60ca5460ff166118275760405162461bcd60e51b815260206004820152601460248201527f5061757361626c653a206e6f74207061757365640000000000000000000000006044820152606401610c6a565b6040516001600160a01b03808516602483015283166044820152606481018290526113e19085906323b872dd60e01b906084016138f5565b6001600160a01b0382166144e55760405162461bcd60e51b815260206004820152601f60248201527f45524332303a206d696e7420746f20746865207a65726f2061646472657373006044820152606401610c6a565b80603560008282546144f791906154c7565b90915550506001600160a01b038216600090815260336020526040812080548392906145249084906154c7565b90915550506040518181526001600160a01b038316906000907fddf252ad1be2c89b69c2b068fc378daa952ba7f163c4a11628f55a4df523b3ef9060200160405180910390a35050565b6101055461457a610935565b1115614599576040516324d758c360e21b815260040160405180910390fd5b6040516373c2549d60e11b815260fc6004820152600090819073__$2af743edc7b1c16cb7d679fc921122aeb9$__9063e784a93a906024016040805180830381865af41580156145ed573d6000803e3d6000fd5b505050506040513d601f19601f8201168201806040525081019061461191906154a3565b909250905073__$2af743edc7b1c16cb7d679fc921122aeb9$__63a999987d60fc848461463c610935565b6040516001600160e01b031960e087901b16815260048101949094526024840192909252604483015260648201526000608482015260a401602060405180830381865af4158015614691573d6000803e3d6000fd5b505050506040513d601f19601f820116820180604052508101906146b591906154df565b505050505050565b6040516373c2549d60e11b815260fc6004820152600090819073__$2af743edc7b1c16cb7d679fc921122aeb9$__9063e784a93a906024016040805180830381865af4158015614711573d6000803e3d6000fd5b505050506040513d601f19601f8201168201806040525081019061473591906154a3565b909250905073__$2af743edc7b1c16cb7d679fc921122aeb9$__63a999987d60fc848489614761610935565b61463c91906152d4565b6001600160a01b0382166147cb5760405162461bcd60e51b815260206004820152602160248201527f45524332303a206275726e2066726f6d20746865207a65726f206164647265736044820152607360f81b6064820152608401610c6a565b6001600160a01b0382166000908152603360205260409020548181101561483f5760405162461bcd60e51b815260206004820152602260248201527f45524332303a206275726e20616d6f756e7420657863656564732062616c616e604482015261636560f01b6064820152608401610c6a565b6001600160a01b038316600090815260336020526040812083830390556035805484929061486e9084906152d4565b90915550506040518281526000906001600160a01b038516907fddf252ad1be2c89b69c2b068fc378daa952ba7f163c4a11628f55a4df523b3ef9060200160405180910390a3505050565b600054610100900460ff166148e05760405162461bcd60e51b8152600401610c6a9061564b565b81516148f3906036906020850190614a1b565b50805161392c906037906020840190614a1b565b6060612a048484600085856001600160a01b0385163b6149695760405162461bcd60e51b815260206004820152601d60248201527f416464726573733a2063616c6c20746f206e6f6e2d636f6e74726163740000006044820152606401610c6a565b600080866001600160a01b031685876040516149859190615696565b60006040518083038185875af1925050503d80600081146149c2576040519150601f19603f3d011682016040523d82523d6000602084013e6149c7565b606091505b50915091506149d78282866149e2565b979650505050505050565b606083156149f1575081610ae5565b825115614a015782518084602001fd5b8160405162461bcd60e51b8152600401610c6a9190614b03565b828054614a2790615264565b90600052602060002090601f016020900481019282614a495760008555614a8f565b82601f10614a6257805160ff1916838001178555614a8f565b82800160010185558215614a8f579182015b82811115614a8f578251825591602001919060010190614a74565b506140379291505b808211156140375760008155600101614a97565b60005b83811015614ac6578181015183820152602001614aae565b838111156113e15750506000910152565b60008151808452614aef816020860160208601614aab565b601f01601f19169290920160200192915050565b602081526000610ae56020830184614ad7565b600060208284031215614b2857600080fd5b5035919050565b6001600160a01b038116811461154d57600080fd5b60008060408385031215614b5757600080fd5b8235614b6281614b2f565b946020939093013593505050565b60008083601f840112614b8257600080fd5b50813567ffffffffffffffff811115614b9a57600080fd5b602083019150836020828501011115614bb257600080fd5b9250929050565b8035614bc481614b2f565b919050565b6000806000806000806000806000898b03610140811215614be957600080fd5b8a3567ffffffffffffffff80821115614c0157600080fd5b614c0d8e838f01614b70565b909c509a5060208d0135915080821115614c2657600080fd5b50614c338d828e01614b70565b90995097505060408b0135614c4781614b2f565b955060608b0135614c5781614b2f565b945060808b0135614c6781614b2f565b93506080609f1982011215614c7b57600080fd5b5060a08a019150614c8f6101208b01614bb9565b90509295985092959850929598565b600080600060608486031215614cb357600080fd5b8335614cbe81614b2f565b92506020840135614cce81614b2f565b929592945050506040919091013590565b61ffff8116811461154d57600080fd5b600080600060608486031215614d0457600080fd5b833563ffffffff81168114614d1857600080fd5b92506020840135614d2881614cdf565b91506040840135614d3881614cdf565b809150509250925092565b600060208284031215614d5557600080fd5b8135610ae581614b2f565b6001600160801b038116811461154d57600080fd5b600080600080600080600080610100898b031215614d9257600080fd5b8835614d9d81614cdf565b97506020890135614dad81614cdf565b96506040890135614dbd81614cdf565b95506060890135614dcd81614d60565b94506080890135614ddd81614d60565b935060a0890135614ded81614d60565b925060c0890135614dfd81614d60565b915060e0890135614e0d81614d60565b809150509295985092959890939650565b60008060008060808587031215614e3457600080fd5b8435614e3f81614b2f565b93506020850135614e4f81614b2f565b9250604085013591506060850135614e6681614b2f565b939692955090935050565b60008060408385031215614e8457600080fd5b823591506020830135614e9681614b2f565b809150509250929050565b600080600060608486031215614eb657600080fd5b833592506020840135614ec881614b2f565b91506040840135614d3881614b2f565b60008060408385031215614eeb57600080fd5b8235614ef681614b2f565b91506020830135614e9681614b2f565b60008060408385031215614f1957600080fd5b8235614ef681614cdf565b801515811461154d57600080fd5b600060208284031215614f4457600080fd5b8135610ae581614f24565b60008060008060008060c08789031215614f6857600080fd5b8635614f7381614b2f565b95506020870135614f8381614b2f565b9450604087013593506060870135614f9a81614b2f565b92506080870135614faa81614cdf565b915060a087013562ffffff81168114614fc257600080fd5b809150509295509295509295565b634e487b7160e01b600052604160045260246000fd5b6040516101e0810167ffffffffffffffff8111828210171561500a5761500a614fd0565b60405290565b604051601f8201601f1916810167ffffffffffffffff8111828210171561503957615039614fd0565b604052919050565b600067ffffffffffffffff82111561505b5761505b614fd0565b5060051b60200190565b600082601f83011261507657600080fd5b8135602061508b61508683615041565b615010565b82815260059290921b840181019181810190868411156150aa57600080fd5b8286015b848110156150c557803583529183019183016150ae565b509695505050505050565b600082601f8301126150e157600080fd5b813567ffffffffffffffff8111156150fb576150fb614fd0565b61510e601f8201601f1916602001615010565b81815284602083860101111561512357600080fd5b816020850160208301376000918101602001919091529392505050565b6000806000806080858703121561515657600080fd5b843567ffffffffffffffff8082111561516e57600080fd5b818701915087601f83011261518257600080fd5b8135602061519261508683615041565b82815260059290921b8401810191818101908b8411156151b157600080fd5b948201945b838610156151d85785356151c981614b2f565b825294820194908201906151b6565b985050880135925050808211156151ee57600080fd5b6151fa88838901615065565b9450604087013591508082111561521057600080fd5b61521c88838901615065565b9350606087013591508082111561523257600080fd5b5061523f878288016150d0565b91505092959194509250565b60006020828403121561525d57600080fd5b5051919050565b600181811c9082168061527857607f821691505b6020821081141561529957634e487b7160e01b600052602260045260246000fd5b50919050565b634e487b7160e01b600052601160045260246000fd5b60008160001904831182151516156152cf576152cf61529f565b500290565b6000828210156152e6576152e661529f565b500390565b8051614bc481614b2f565b60006020828403121561530857600080fd5b8151610ae581614b2f565b60006020828403121561532557600080fd5b6040516020810181811067ffffffffffffffff8211171561534857615348614fd0565b6040529151825250919050565b8051614bc481614d60565b805164ffffffffff81168114614bc457600080fd5b8051614bc481614cdf565b60006101e0828403121561539357600080fd5b61539b614fe6565b6153a58484615313565b81526153b360208401615355565b60208201526153c460408401615355565b60408201526153d560608401615355565b60608201526153e660808401615355565b60808201526153f760a08401615355565b60a082015261540860c08401615360565b60c082015261541960e08401615375565b60e082015261010061542c8185016152eb565b9082015261012061543e8482016152eb565b908201526101406154508482016152eb565b908201526101606154628482016152eb565b90820152610180615474848201615355565b908201526101a0615486848201615355565b908201526101c0615498848201615355565b908201529392505050565b600080604083850312156154b657600080fd5b505080516020909101519092909150565b600082198211156154da576154da61529f565b500190565b6000602082840312156154f157600080fd5b8151610ae581614f24565b600080821280156001600160ff1b038490038513161561551e5761551e61529f565b600160ff1b83900384128116156155375761553761529f565b50500190565b60008083128015600160ff1b85018412161561555b5761555b61529f565b6001600160ff1b03840183138116156155765761557661529f565b50500390565b600081518084526020808501945080840160005b838110156155ac57815187529582019590820190600101615590565b509495945050505050565b600060a08201878352602060a08185015281885180845260c086019150828a01935060005b818110156156015784516001600160a01b0316835293830193918301916001016155dc565b50508481036040860152615615818961557c565b92505050828103606084015261562b818661557c565b9050828103608084015261563f8185614ad7565b98975050505050505050565b6020808252602b908201527f496e697469616c697a61626c653a20636f6e7472616374206973206e6f74206960408201526a6e697469616c697a696e6760a81b606082015260800190565b600082516156a8818460208701614aab565b919091019291505056fea164736f6c634300080a000a",
  "libraries": {
    "DnGmxJuniorVaultManager": "0x0A3B23862eF336DDAc4400935fa93F3090A19719"
  },
  "devdoc": {
    "author": "RageTrade*",
    "kind": "dev",
    "methods": {
      "allowance(address,address)": {
        "details": "See {IERC20-allowance}."
      },
      "approve(address,uint256)": {
        "details": "See {IERC20-approve}. NOTE: If `amount` is the maximum `uint256`, the allowance is not updated on `transferFrom`. This is semantically equivalent to an infinite approval. Requirements: - `spender` cannot be the zero address."
      },
      "balanceOf(address)": {
        "details": "See {IERC20-balanceOf}."
      },
      "claimVestedGmx()": {
        "details": "vested esGmx gets converted to GMX every second, so whatever amount is vested gets claimed"
      },
      "convertToAssets(uint256)": {
        "params": {
          "shares": "asset amount to convert to assets"
        },
        "returns": {
          "_0": "asset amount corresponding to given share amount"
        }
      },
      "convertToShares(uint256)": {
        "params": {
          "assets": "asset amount to convert to shares"
        },
        "returns": {
          "_0": "share amount corresponding to given asset amount"
        }
      },
      "decimals()": {
        "details": "Returns the number of decimals used to get its user representation. For example, if `decimals` equals `2`, a balance of `505` tokens should be displayed to a user as `5.05` (`505 / 10 ** 2`). Tokens usually opt for a value of 18, imitating the relationship between Ether and Wei. This is the value {ERC20} uses, unless this function is overridden; NOTE: This information is only used for _display_ purposes: it in no way affects any of the arithmetic of the contract, including {IERC20-balanceOf} and {IERC20-transfer}."
      },
      "decreaseAllowance(address,uint256)": {
        "details": "Atomically decreases the allowance granted to `spender` by the caller. This is an alternative to {approve} that can be used as a mitigation for problems described in {IERC20-approve}. Emits an {Approval} event indicating the updated allowance. Requirements: - `spender` cannot be the zero address. - `spender` must have allowance for the caller of at least `subtractedValue`."
      },
      "deposit(uint256,address)": {
        "params": {
          "amount": "amount of sGlp (asset) tokens to deposit",
          "to": "receiver address for share allocation"
        },
        "returns": {
          "shares": "amount of shares allocated for deposit"
        }
      },
      "getCurrentBorrows()": {
        "returns": {
          "currentBtcBorrow": "amount of btc borrowed from AAVE",
          "currentEthBorrow": "amount of eth borrowed from AAVE"
        }
      },
      "getMarketValue(uint256)": {
        "details": "uses minimum price i.e. minimum AUM of glp tokens",
        "params": {
          "assetAmount": "amount of sGlp tokens"
        },
        "returns": {
          "marketValue": "of given amount of glp assets"
        }
      },
      "getOptimalBorrows(uint256)": {
        "params": {
          "glpDeposited": "amount of glp for which optimal borrow needs to be calculated"
        },
        "returns": {
          "optimalBtcBorrow": "optimal amount of btc borrowed from AAVE",
          "optimalEthBorrow": "optimal amount of eth borrowed from AAVE"
        }
      },
      "getPrice(bool)": {
        "params": {
          "maximize": "specifies aum used is minimum(false) or maximum(true)"
        },
        "returns": {
          "_0": "price of glp token in PRICE_PRECISION"
        }
      },
      "getPriceX128()": {
        "returns": {
          "_0": "price of glp token in X128"
        }
      },
      "getUsdcBorrowed()": {
        "details": "all aUSDC yield from AAVE goes to the senior vaultdeducts junior vault usdc (swapped + unhedged glp) from overall balance",
        "returns": {
          "usdcAmount": "borrowed from senior tranche"
        }
      },
      "getVaultMarketValue()": {
        "details": "Part 1. adds value of glp tokens basis minimum glp aum from gmxPart 2. adds value of junior vault usdc deposit in AAVE (swap outputs + unhedged GLP)Part 3. subtracts value of WETH & WBTC borrows from AAVE",
        "returns": {
          "vaultMarketValue": ": market value of vault assets"
        }
      },
      "grantAllowances()": {
        "details": "to be called once the vault is deployed"
      },
      "increaseAllowance(address,uint256)": {
        "details": "Atomically increases the allowance granted to `spender` by the caller. This is an alternative to {approve} that can be used as a mitigation for problems described in {IERC20-approve}. Emits an {Approval} event indicating the updated allowance. Requirements: - `spender` cannot be the zero address."
      },
      "initialize(string,string,address,address,address,(address,address,address,address),address)": {
        "params": {
          "_name": "name of vault share token",
          "_poolAddressesProvider": "add",
          "_rewardRouter": "gmx reward router address",
          "_swapRouter": "uniswap swap router address",
          "_symbol": "symbol of vault share token",
          "_tokens": "addresses of tokens used"
        }
      },
      "maxDeposit(address)": {
        "returns": {
          "_0": "maximum asset amount"
        }
      },
      "maxMint(address)": {
        "params": {
          "receiver": "address of the user"
        },
        "returns": {
          "_0": "maximum share amount"
        }
      },
      "maxRedeem(address)": {
        "details": "Returns the maximum amount of Vault shares that can be redeemed from the owner balance in the Vault, through a redeem call. - MUST return a limited value if owner is subject to some withdrawal limit or timelock. - MUST return balanceOf(owner) if owner is not subject to any withdrawal limit or timelock. - MUST NOT revert."
      },
      "maxWithdraw(address)": {
        "details": "Returns the maximum amount of the underlying asset that can be withdrawn from the owner balance in the Vault, through a withdraw call. - MUST return a limited value if owner is subject to some withdrawal limit or timelock. - MUST NOT revert."
      },
      "mint(uint256,address)": {
        "params": {
          "shares": "amount of vault shares to mint",
          "to": "receiver address for share allocation"
        },
        "returns": {
          "amount": "amount of sGlp tokens required for given number of shares"
        }
      },
      "name()": {
        "details": "Returns the name of the token."
      },
      "owner()": {
        "details": "Returns the address of the current owner."
      },
      "paused()": {
        "details": "Returns true if the contract is paused, and false otherwise."
      },
      "previewDeposit(uint256)": {
        "details": "Allows an on-chain or off-chain user to simulate the effects of their deposit at the current block, given current on-chain conditions. - MUST return as close to and no more than the exact amount of Vault shares that would be minted in a deposit   call in the same transaction. I.e. deposit should return the same or more shares as previewDeposit if called   in the same transaction. - MUST NOT account for deposit limits like those returned from maxDeposit and should always act as though the   deposit would be accepted, regardless if the user has enough tokens approved, etc. - MUST be inclusive of deposit fees. Integrators should be aware of the existence of deposit fees. - MUST NOT revert. NOTE: any unfavorable discrepancy between convertToShares and previewDeposit SHOULD be considered slippage in share price or some other type of condition, meaning the depositor will lose assets by depositing."
      },
      "previewMint(uint256)": {
        "params": {
          "shares": "number of shares to mint"
        },
        "returns": {
          "_0": "assets that would be taken from the user"
        }
      },
      "previewRedeem(uint256)": {
        "params": {
          "shares": "that would be taken from the user"
        },
        "returns": {
          "_0": "assets that user would get"
        }
      },
      "previewWithdraw(uint256)": {
        "params": {
          "assets": "that would be given to the user"
        },
        "returns": {
          "_0": "shares that would be burnt"
        }
      },
      "receiveFlashLoan(address[],uint256[],uint256[],bytes)": {
        "details": "only allows balancer vault to call thisonly runs when _hasFlashloaned is set to true (prevents someone else from initiating flashloan to vault)",
        "params": {
          "amounts": "amounts of token flashloans in same order",
          "feeAmounts": "amounts of fee/premium charged for flashloan",
          "tokens": "list of tokens flashloaned",
          "userData": "data passed to balancer for flashloan (includes token amounts, token usdc value and swap direction)"
        }
      },
      "redeem(uint256,address,address)": {
        "params": {
          "owner": "owner address of the shares to be burnt",
          "receiver": "receiver address for the assets",
          "shares": "amount of shares to redeem"
        },
        "returns": {
          "assets": "number of assets sent"
        }
      },
      "renounceOwnership()": {
        "details": "Leaves the contract without owner. It will not be possible to call `onlyOwner` functions anymore. Can only be called by the current owner. NOTE: Renouncing ownership will leave the contract without an owner, thereby removing any functionality that is only available to the owner."
      },
      "setAdminParams(address,address,uint256,address,uint16,uint24)": {
        "params": {
          "batchingManager": "batching manager (responsible for staking tokens into GMX)",
          "dnGmxSeniorVault": "senior vault address",
          "newDepositCap": "deposit cap",
          "newKeeper": "keeper address",
          "withdrawFeeBps": "fees bps on withdrawals and redeems"
        }
      },
      "setFeeParams(uint16,address)": {
        "params": {
          "_feeBps": "the part of eth rewards earned from GMX earned deducted as protocol fees",
          "_feeRecipient": "recipient address for protocol fees and protocol esGmx"
        }
      },
      "setGmxParams(address)": {
        "params": {
          "_glpManager": "GMX glp manager"
        }
      },
      "setHedgeParams(address,address,uint256,address)": {
        "params": {
          "aaveRewardsController": "AAVE rewards controller for handling additional reward distribution on AAVE",
          "swapRouter": "uniswap swap router for swapping ETH/BTC to USDC and viceversa",
          "targetHealthFactor": "health factor to target on AAVE after every rebalance",
          "vault": "balancer vault for ETH and BTC flashloans"
        }
      },
      "setRebalanceParams(uint32,uint16,uint16)": {
        "details": "a partial rebalance (rebalance where partial hedge gets taken) does not count.setHedgeParams should already have been called.",
        "params": {
          "rebalanceDeltaThresholdBps": "(BPS) threshold difference between optimal and current token hedges for triggering a rebalance",
          "rebalanceHfThresholdBps": "(BPS) threshold amount of health factor on AAVE below which a rebalance is triggered",
          "rebalanceTimeThreshold": "(seconds) minimum time difference required between two rebalance calls"
        }
      },
      "setThresholds(uint16,uint16,uint16,uint128,uint128,uint128,uint128,uint128)": {
        "params": {
          "hedgeUsdcAmountThreshold": "(usdc amount) threshold amount below which ETH/BTC hedges are not executed",
          "partialBtcHedgeUsdcAmountThreshold": "(usdc amount) threshold amount above which BTC hedge is not fully taken (gets executed in blocks over multiple rebalances)",
          "partialEthHedgeUsdcAmountThreshold": "(usdc amount) threshold amount above which ETH hedge is not fully taken (gets executed in blocks over multiple rebalances)",
          "slippageThresholdGmxBps": "(BPS) slippage threshold on sGlp mint and redeem",
          "slippageThresholdSwapBtcBps": "(BPS) slippage threshold on btc swaps",
          "slippageThresholdSwapEthBps": "(BPS) slippage threshold on eth swaps",
          "usdcConversionThreshold": "(usdc amount) threshold amount for conversion of usdc into sGlp",
          "wethConversionThreshold": "(weth amount) threshold amount for weth fees to be compounded into sGlp"
        }
      },
      "stopVestAndStakeEsGmx()": {
        "details": "when esGmx is vested some GlP tokens are locked on a pro-rata basis, in case that leads to issue in withdrawal this function can be called"
      },
      "symbol()": {
        "details": "Returns the symbol of the token, usually a shorter version of the name."
      },
      "totalAssets()": {
        "details": "some unhedged part of glp might be converted to USDC (its value in GLP is added to total glp assets)"
      },
      "totalSupply()": {
        "details": "See {IERC20-totalSupply}."
      },
      "transfer(address,uint256)": {
        "details": "See {IERC20-transfer}. Requirements: - `to` cannot be the zero address. - the caller must have a balance of at least `amount`."
      },
      "transferFrom(address,address,uint256)": {
        "details": "See {IERC20-transferFrom}. Emits an {Approval} event indicating the updated allowance. This is not required by the EIP. See the note at the beginning of {ERC20}. NOTE: Does not update the allowance if the current allowance is the maximum `uint256`. Requirements: - `from` and `to` cannot be the zero address. - `from` must have a balance of at least `amount`. - the caller must have allowance for ``from``'s tokens of at least `amount`."
      },
      "transferOwnership(address)": {
        "details": "Transfers ownership of the contract to a new account (`newOwner`). Can only be called by the current owner."
      },
      "withdraw(uint256,address,address)": {
        "params": {
          "assets": "amount of assets to withdraw",
          "owner": "owner address of the shares to be burnt",
          "receiver": "receiver address for the assets"
        },
        "returns": {
          "shares": "number of shares burnt"
        }
      }
    },
    "title": "Delta Neutral GMX Junior Tranche contract",
    "version": 1
  },
  "userdoc": {
    "kind": "user",
    "methods": {
      "claimVestedGmx()": {
        "notice": "claims vested gmx tokens to feeRecipient"
      },
      "convertToAssets(uint256)": {
        "notice": "converts share amount to asset amount"
      },
      "convertToShares(uint256)": {
        "notice": "converts asset amount to share amount"
      },
      "deposit(uint256,address)": {
        "notice": "deposits sGlp token and returns vault shares"
      },
      "depositCap()": {
        "notice": "returns deposit cap in terms of asset tokens"
      },
      "dnUsdcDeposited()": {
        "notice": "returns junior vault share of usdc deposited to AAVE"
      },
      "getCurrentBorrows()": {
        "notice": "returns current borrows for BTC and ETH respectively"
      },
      "getMarketValue(uint256)": {
        "notice": "returns the minimum market value of \"assetAmount\" of asset (sGlp) tokens"
      },
      "getOptimalBorrows(uint256)": {
        "notice": "returns optimal borrows for BTC and ETH respectively basis glpDeposited amount"
      },
      "getPrice(bool)": {
        "notice": "returns price of glp token"
      },
      "getPriceX128()": {
        "notice": "returns price of glp token"
      },
      "getUsdcBorrowed()": {
        "notice": "returns total amount of usdc borrowed from senior vault"
      },
      "getVaultMarketValue()": {
        "notice": "returns vault market value (USD terms & 6 decimals) basis glp and usdc tokens in vault"
      },
      "grantAllowances()": {
        "notice": "grants allowances for tokens to relevant external contracts"
      },
      "initialize(string,string,address,address,address,(address,address,address,address),address)": {
        "notice": "initializer"
      },
      "isValidRebalance()": {
        "notice": "checks if the rebalance can be run (3 thresholds - time, hedge deviation and AAVE HF )"
      },
      "maxDeposit(address)": {
        "notice": "returns maximum amount of shares that a user can deposit"
      },
      "maxMint(address)": {
        "notice": "returns maximum amount of shares that can be minted for a given user"
      },
      "mint(uint256,address)": {
        "notice": "mints \"shares\" amount of vault shares and pull relevant amount of sGlp tokens"
      },
      "pause()": {
        "notice": "pause deposit, mint, withdraw and redeem"
      },
      "previewMint(uint256)": {
        "notice": "preview function for minting of shares"
      },
      "previewRedeem(uint256)": {
        "notice": "preview function for redeeming shares"
      },
      "previewWithdraw(uint256)": {
        "notice": "preview function for withdrawal of assets"
      },
      "rebalance()": {
        "notice": "harvests glp rewards & rebalances the hedge positions, profits on AAVE and Gmx.run only if valid rebalance is true"
      },
      "receiveFlashLoan(address[],uint256[],uint256[],bytes)": {
        "notice": "flashloan receiver for balance vaultreceives flashloaned tokens(WETH or WBTC or USDC) from balancer, swaps on uniswap and borrows/repays on AAVE"
      },
      "redeem(uint256,address,address)": {
        "notice": "burns \"shares\" amount of vault shares and withdraws relevant amount of sGlp tokensdeducts some assets for the remaining shareholders to cover the cost of opening and closing of hedge"
      },
      "setAdminParams(address,address,uint256,address,uint16,uint24)": {
        "notice": "set admin paramters"
      },
      "setFeeParams(uint16,address)": {
        "notice": "sets feeBps and feeRecipient"
      },
      "setGmxParams(address)": {
        "notice": "set GMX parameters"
      },
      "setHedgeParams(address,address,uint256,address)": {
        "notice": "set hedge parameters"
      },
      "setRebalanceParams(uint32,uint16,uint16)": {
        "notice": "set rebalance paramters"
      },
      "setThresholds(uint16,uint16,uint16,uint128,uint128,uint128,uint128,uint128)": {
        "notice": "set thresholds"
      },
      "stopVestAndStakeEsGmx()": {
        "notice": "claims vested gmx tokens (i.e. stops vesting esGmx so that the relevant glp amount is unlocked)"
      },
      "totalAssets()": {
        "notice": "gives total asset tokens available in vault"
      },
      "unpause()": {
        "notice": "unpause deposit, mint, withdraw and redeem"
      },
      "unstakeAndVestEsGmx()": {
        "notice": "unstakes and vest protocol esGmx to convert it to Gmx"
      },
      "withdraw(uint256,address,address)": {
        "notice": "withdraws \"assets\" amount of sGlp tokens and burns relevant amount of vault sharesdeducts some assets for the remaining shareholders to cover the cost of opening and closing of hedge"
      },
      "withdrawFees()": {
        "notice": "withdraw accumulated WETH fees"
      }
    },
    "notice": "Implements the handling of junior tranche which maintains hedges for btc and eth basis the target weights on GMXIt is upgradable contract (via TransparentUpgradeableProxy proxy owned by ProxyAdmin)",
    "version": 1
  },
  "storageLayout": {
    "storage": [
      {
        "astId": 4084,
        "contract": "contracts/vaults/DnGmxJuniorVault.sol:DnGmxJuniorVault",
        "label": "_initialized",
        "offset": 0,
        "slot": "0",
        "type": "t_uint8"
      },
      {
        "astId": 4087,
        "contract": "contracts/vaults/DnGmxJuniorVault.sol:DnGmxJuniorVault",
        "label": "_initializing",
        "offset": 1,
        "slot": "0",
        "type": "t_bool"
      },
      {
        "astId": 5353,
        "contract": "contracts/vaults/DnGmxJuniorVault.sol:DnGmxJuniorVault",
        "label": "__gap",
        "offset": 0,
        "slot": "1",
        "type": "t_array(t_uint256)50_storage"
      },
      {
        "astId": 4374,
        "contract": "contracts/vaults/DnGmxJuniorVault.sol:DnGmxJuniorVault",
        "label": "_balances",
        "offset": 0,
        "slot": "51",
        "type": "t_mapping(t_address,t_uint256)"
      },
      {
        "astId": 4380,
        "contract": "contracts/vaults/DnGmxJuniorVault.sol:DnGmxJuniorVault",
        "label": "_allowances",
        "offset": 0,
        "slot": "52",
        "type": "t_mapping(t_address,t_mapping(t_address,t_uint256))"
      },
      {
        "astId": 4382,
        "contract": "contracts/vaults/DnGmxJuniorVault.sol:DnGmxJuniorVault",
        "label": "_totalSupply",
        "offset": 0,
        "slot": "53",
        "type": "t_uint256"
      },
      {
        "astId": 4384,
        "contract": "contracts/vaults/DnGmxJuniorVault.sol:DnGmxJuniorVault",
        "label": "_name",
        "offset": 0,
        "slot": "54",
        "type": "t_string_storage"
      },
      {
        "astId": 4386,
        "contract": "contracts/vaults/DnGmxJuniorVault.sol:DnGmxJuniorVault",
        "label": "_symbol",
        "offset": 0,
        "slot": "55",
        "type": "t_string_storage"
      },
      {
        "astId": 4965,
        "contract": "contracts/vaults/DnGmxJuniorVault.sol:DnGmxJuniorVault",
        "label": "__gap",
        "offset": 0,
        "slot": "56",
        "type": "t_array(t_uint256)45_storage"
      },
      {
        "astId": 6647,
        "contract": "contracts/vaults/DnGmxJuniorVault.sol:DnGmxJuniorVault",
        "label": "asset",
        "offset": 0,
        "slot": "101",
        "type": "t_address"
      },
      {
        "astId": 6651,
        "contract": "contracts/vaults/DnGmxJuniorVault.sol:DnGmxJuniorVault",
        "label": "__gaps",
        "offset": 0,
        "slot": "102",
        "type": "t_array(t_uint256)50_storage"
      },
      {
        "astId": 3956,
        "contract": "contracts/vaults/DnGmxJuniorVault.sol:DnGmxJuniorVault",
        "label": "_owner",
        "offset": 0,
        "slot": "152",
        "type": "t_address"
      },
      {
        "astId": 4076,
        "contract": "contracts/vaults/DnGmxJuniorVault.sol:DnGmxJuniorVault",
        "label": "__gap",
        "offset": 0,
        "slot": "153",
        "type": "t_array(t_uint256)49_storage"
      },
      {
        "astId": 4249,
        "contract": "contracts/vaults/DnGmxJuniorVault.sol:DnGmxJuniorVault",
        "label": "_paused",
        "offset": 0,
        "slot": "202",
        "type": "t_bool"
      },
      {
        "astId": 4354,
        "contract": "contracts/vaults/DnGmxJuniorVault.sol:DnGmxJuniorVault",
        "label": "__gap",
        "offset": 0,
        "slot": "203",
        "type": "t_array(t_uint256)49_storage"
      },
      {
        "astId": 15474,
        "contract": "contracts/vaults/DnGmxJuniorVault.sol:DnGmxJuniorVault",
        "label": "state",
        "offset": 0,
        "slot": "252",
        "type": "t_struct(State)9166_storage"
      },
      {
        "astId": 15478,
        "contract": "contracts/vaults/DnGmxJuniorVault.sol:DnGmxJuniorVault",
        "label": "__gaps",
        "offset": 0,
        "slot": "336",
        "type": "t_array(t_uint256)50_storage"
      }
    ],
    "types": {
      "t_address": {
        "encoding": "inplace",
        "label": "address",
        "numberOfBytes": "20"
      },
      "t_array(t_uint256)45_storage": {
        "base": "t_uint256",
        "encoding": "inplace",
        "label": "uint256[45]",
        "numberOfBytes": "1440"
      },
      "t_array(t_uint256)49_storage": {
        "base": "t_uint256",
        "encoding": "inplace",
        "label": "uint256[49]",
        "numberOfBytes": "1568"
      },
      "t_array(t_uint256)50_storage": {
        "base": "t_uint256",
        "encoding": "inplace",
        "label": "uint256[50]",
        "numberOfBytes": "1600"
      },
      "t_bool": {
        "encoding": "inplace",
        "label": "bool",
        "numberOfBytes": "1"
      },
      "t_contract(IAToken)218": {
        "encoding": "inplace",
        "label": "contract IAToken",
        "numberOfBytes": "20"
      },
      "t_contract(IBalancerVault)7822": {
        "encoding": "inplace",
        "label": "contract IBalancerVault",
        "numberOfBytes": "20"
      },
      "t_contract(IDebtToken)7193": {
        "encoding": "inplace",
        "label": "contract IDebtToken",
        "numberOfBytes": "20"
      },
      "t_contract(IDnGmxBatchingManager)7365": {
        "encoding": "inplace",
        "label": "contract IDnGmxBatchingManager",
        "numberOfBytes": "20"
      },
      "t_contract(IDnGmxSeniorVault)7628": {
        "encoding": "inplace",
        "label": "contract IDnGmxSeniorVault",
        "numberOfBytes": "20"
      },
      "t_contract(IERC20)5551": {
        "encoding": "inplace",
        "label": "contract IERC20",
        "numberOfBytes": "20"
      },
      "t_contract(IERC20Metadata)5576": {
        "encoding": "inplace",
        "label": "contract IERC20Metadata",
        "numberOfBytes": "20"
      },
      "t_contract(IGlpManager)7930": {
        "encoding": "inplace",
        "label": "contract IGlpManager",
        "numberOfBytes": "20"
      },
      "t_contract(IPool)1121": {
        "encoding": "inplace",
        "label": "contract IPool",
        "numberOfBytes": "20"
      },
      "t_contract(IPoolAddressesProvider)1330": {
        "encoding": "inplace",
        "label": "contract IPoolAddressesProvider",
        "numberOfBytes": "20"
      },
      "t_contract(IPriceOracle)1350": {
        "encoding": "inplace",
        "label": "contract IPriceOracle",
        "numberOfBytes": "20"
      },
      "t_contract(IRewardRouterV2)8118": {
        "encoding": "inplace",
        "label": "contract IRewardRouterV2",
        "numberOfBytes": "20"
      },
      "t_contract(IRewardTracker)8218": {
        "encoding": "inplace",
        "label": "contract IRewardTracker",
        "numberOfBytes": "20"
      },
      "t_contract(IRewardsController)3657": {
        "encoding": "inplace",
        "label": "contract IRewardsController",
        "numberOfBytes": "20"
      },
      "t_contract(ISwapRouter)6620": {
        "encoding": "inplace",
        "label": "contract ISwapRouter",
        "numberOfBytes": "20"
      },
      "t_contract(IVault)8784": {
        "encoding": "inplace",
        "label": "contract IVault",
        "numberOfBytes": "20"
      },
      "t_int256": {
        "encoding": "inplace",
        "label": "int256",
        "numberOfBytes": "32"
      },
      "t_mapping(t_address,t_mapping(t_address,t_uint256))": {
        "encoding": "mapping",
        "key": "t_address",
        "label": "mapping(address => mapping(address => uint256))",
        "numberOfBytes": "32",
        "value": "t_mapping(t_address,t_uint256)"
      },
      "t_mapping(t_address,t_uint256)": {
        "encoding": "mapping",
        "key": "t_address",
        "label": "mapping(address => uint256)",
        "numberOfBytes": "32",
        "value": "t_uint256"
      },
      "t_string_storage": {
        "encoding": "bytes",
        "label": "string",
        "numberOfBytes": "32"
      },
      "t_struct(State)9166_storage": {
        "encoding": "inplace",
        "label": "struct DnGmxJuniorVaultManager.State",
        "members": [
          {
            "astId": 9050,
            "contract": "contracts/vaults/DnGmxJuniorVault.sol:DnGmxJuniorVault",
            "label": "keeper",
            "offset": 0,
            "slot": "0",
            "type": "t_address"
          },
          {
            "astId": 9052,
            "contract": "contracts/vaults/DnGmxJuniorVault.sol:DnGmxJuniorVault",
            "label": "feeRecipient",
            "offset": 0,
            "slot": "1",
            "type": "t_address"
          },
          {
            "astId": 9054,
            "contract": "contracts/vaults/DnGmxJuniorVault.sol:DnGmxJuniorVault",
            "label": "dnUsdcDeposited",
            "offset": 0,
            "slot": "2",
            "type": "t_int256"
          },
          {
            "astId": 9056,
            "contract": "contracts/vaults/DnGmxJuniorVault.sol:DnGmxJuniorVault",
            "label": "unhedgedGlpInUsdc",
            "offset": 0,
            "slot": "3",
            "type": "t_uint256"
          },
          {
            "astId": 9058,
            "contract": "contracts/vaults/DnGmxJuniorVault.sol:DnGmxJuniorVault",
            "label": "targetHealthFactor",
            "offset": 0,
            "slot": "4",
            "type": "t_uint256"
          },
          {
            "astId": 9060,
            "contract": "contracts/vaults/DnGmxJuniorVault.sol:DnGmxJuniorVault",
            "label": "protocolFee",
            "offset": 0,
            "slot": "5",
            "type": "t_uint256"
          },
          {
            "astId": 9062,
            "contract": "contracts/vaults/DnGmxJuniorVault.sol:DnGmxJuniorVault",
            "label": "protocolEsGmx",
            "offset": 0,
            "slot": "6",
            "type": "t_uint256"
          },
          {
            "astId": 9064,
            "contract": "contracts/vaults/DnGmxJuniorVault.sol:DnGmxJuniorVault",
            "label": "seniorVaultWethRewards",
            "offset": 0,
            "slot": "7",
            "type": "t_uint256"
          },
          {
            "astId": 9066,
            "contract": "contracts/vaults/DnGmxJuniorVault.sol:DnGmxJuniorVault",
            "label": "hasFlashloaned",
            "offset": 0,
            "slot": "8",
            "type": "t_bool"
          },
          {
            "astId": 9068,
            "contract": "contracts/vaults/DnGmxJuniorVault.sol:DnGmxJuniorVault",
            "label": "lastRebalanceTS",
            "offset": 1,
            "slot": "8",
            "type": "t_uint48"
          },
          {
            "astId": 9070,
            "contract": "contracts/vaults/DnGmxJuniorVault.sol:DnGmxJuniorVault",
            "label": "feeBps",
            "offset": 7,
            "slot": "8",
            "type": "t_uint16"
          },
          {
            "astId": 9072,
            "contract": "contracts/vaults/DnGmxJuniorVault.sol:DnGmxJuniorVault",
            "label": "withdrawFeeBps",
            "offset": 9,
            "slot": "8",
            "type": "t_uint16"
          },
          {
            "astId": 9074,
            "contract": "contracts/vaults/DnGmxJuniorVault.sol:DnGmxJuniorVault",
            "label": "feeTierWethWbtcPool",
            "offset": 11,
            "slot": "8",
            "type": "t_uint24"
          },
          {
            "astId": 9076,
            "contract": "contracts/vaults/DnGmxJuniorVault.sol:DnGmxJuniorVault",
            "label": "depositCap",
            "offset": 0,
            "slot": "9",
            "type": "t_uint256"
          },
          {
            "astId": 9078,
            "contract": "contracts/vaults/DnGmxJuniorVault.sol:DnGmxJuniorVault",
            "label": "slippageThresholdGmxBps",
            "offset": 0,
            "slot": "10",
            "type": "t_uint16"
          },
          {
            "astId": 9080,
            "contract": "contracts/vaults/DnGmxJuniorVault.sol:DnGmxJuniorVault",
            "label": "slippageThresholdSwapBtcBps",
            "offset": 2,
            "slot": "10",
            "type": "t_uint16"
          },
          {
            "astId": 9082,
            "contract": "contracts/vaults/DnGmxJuniorVault.sol:DnGmxJuniorVault",
            "label": "slippageThresholdSwapEthBps",
            "offset": 4,
            "slot": "10",
            "type": "t_uint16"
          },
          {
            "astId": 9084,
            "contract": "contracts/vaults/DnGmxJuniorVault.sol:DnGmxJuniorVault",
            "label": "rebalanceHfThresholdBps",
            "offset": 6,
            "slot": "10",
            "type": "t_uint16"
          },
          {
            "astId": 9086,
            "contract": "contracts/vaults/DnGmxJuniorVault.sol:DnGmxJuniorVault",
            "label": "rebalanceTimeThreshold",
            "offset": 8,
            "slot": "10",
            "type": "t_uint32"
          },
          {
            "astId": 9088,
            "contract": "contracts/vaults/DnGmxJuniorVault.sol:DnGmxJuniorVault",
            "label": "rebalanceDeltaThresholdBps",
            "offset": 12,
            "slot": "10",
            "type": "t_uint16"
          },
          {
            "astId": 9090,
            "contract": "contracts/vaults/DnGmxJuniorVault.sol:DnGmxJuniorVault",
            "label": "wethConversionThreshold",
            "offset": 14,
            "slot": "10",
            "type": "t_uint128"
          },
          {
            "astId": 9092,
            "contract": "contracts/vaults/DnGmxJuniorVault.sol:DnGmxJuniorVault",
            "label": "usdcConversionThreshold",
            "offset": 0,
            "slot": "11",
            "type": "t_uint128"
          },
          {
            "astId": 9094,
            "contract": "contracts/vaults/DnGmxJuniorVault.sol:DnGmxJuniorVault",
            "label": "hedgeUsdcAmountThreshold",
            "offset": 16,
            "slot": "11",
            "type": "t_uint128"
          },
          {
            "astId": 9096,
            "contract": "contracts/vaults/DnGmxJuniorVault.sol:DnGmxJuniorVault",
            "label": "partialBtcHedgeUsdcAmountThreshold",
            "offset": 0,
            "slot": "12",
            "type": "t_uint128"
          },
          {
            "astId": 9098,
            "contract": "contracts/vaults/DnGmxJuniorVault.sol:DnGmxJuniorVault",
            "label": "partialEthHedgeUsdcAmountThreshold",
            "offset": 16,
            "slot": "12",
            "type": "t_uint128"
          },
          {
            "astId": 9101,
            "contract": "contracts/vaults/DnGmxJuniorVault.sol:DnGmxJuniorVault",
            "label": "fsGlp",
            "offset": 0,
            "slot": "13",
            "type": "t_contract(IERC20)5551"
          },
          {
            "astId": 9104,
            "contract": "contracts/vaults/DnGmxJuniorVault.sol:DnGmxJuniorVault",
            "label": "glp",
            "offset": 0,
            "slot": "14",
            "type": "t_contract(IERC20Metadata)5576"
          },
          {
            "astId": 9107,
            "contract": "contracts/vaults/DnGmxJuniorVault.sol:DnGmxJuniorVault",
            "label": "usdc",
            "offset": 0,
            "slot": "15",
            "type": "t_contract(IERC20Metadata)5576"
          },
          {
            "astId": 9110,
            "contract": "contracts/vaults/DnGmxJuniorVault.sol:DnGmxJuniorVault",
            "label": "weth",
            "offset": 0,
            "slot": "16",
            "type": "t_contract(IERC20Metadata)5576"
          },
          {
            "astId": 9113,
            "contract": "contracts/vaults/DnGmxJuniorVault.sol:DnGmxJuniorVault",
            "label": "wbtc",
            "offset": 0,
            "slot": "17",
            "type": "t_contract(IERC20Metadata)5576"
          },
          {
            "astId": 9116,
            "contract": "contracts/vaults/DnGmxJuniorVault.sol:DnGmxJuniorVault",
            "label": "pool",
            "offset": 0,
            "slot": "18",
            "type": "t_contract(IPool)1121"
          },
          {
            "astId": 9119,
            "contract": "contracts/vaults/DnGmxJuniorVault.sol:DnGmxJuniorVault",
            "label": "aUsdc",
            "offset": 0,
            "slot": "19",
            "type": "t_contract(IAToken)218"
          },
          {
            "astId": 9122,
            "contract": "contracts/vaults/DnGmxJuniorVault.sol:DnGmxJuniorVault",
            "label": "vWbtc",
            "offset": 0,
            "slot": "20",
            "type": "t_contract(IDebtToken)7193"
          },
          {
            "astId": 9125,
            "contract": "contracts/vaults/DnGmxJuniorVault.sol:DnGmxJuniorVault",
            "label": "vWeth",
            "offset": 0,
            "slot": "21",
            "type": "t_contract(IDebtToken)7193"
          },
          {
            "astId": 9128,
            "contract": "contracts/vaults/DnGmxJuniorVault.sol:DnGmxJuniorVault",
            "label": "oracle",
            "offset": 0,
            "slot": "22",
            "type": "t_contract(IPriceOracle)1350"
          },
          {
            "astId": 9131,
            "contract": "contracts/vaults/DnGmxJuniorVault.sol:DnGmxJuniorVault",
            "label": "aaveRewardsController",
            "offset": 0,
            "slot": "23",
            "type": "t_contract(IRewardsController)3657"
          },
          {
            "astId": 9134,
            "contract": "contracts/vaults/DnGmxJuniorVault.sol:DnGmxJuniorVault",
            "label": "poolAddressProvider",
            "offset": 0,
            "slot": "24",
            "type": "t_contract(IPoolAddressesProvider)1330"
          },
          {
            "astId": 9137,
            "contract": "contracts/vaults/DnGmxJuniorVault.sol:DnGmxJuniorVault",
            "label": "gmxVault",
            "offset": 0,
            "slot": "25",
            "type": "t_contract(IVault)8784"
          },
          {
            "astId": 9140,
            "contract": "contracts/vaults/DnGmxJuniorVault.sol:DnGmxJuniorVault",
            "label": "sGmx",
            "offset": 0,
            "slot": "26",
            "type": "t_contract(IRewardTracker)8218"
          },
          {
            "astId": 9143,
            "contract": "contracts/vaults/DnGmxJuniorVault.sol:DnGmxJuniorVault",
            "label": "glpManager",
            "offset": 0,
            "slot": "27",
            "type": "t_contract(IGlpManager)7930"
          },
          {
            "astId": 9146,
            "contract": "contracts/vaults/DnGmxJuniorVault.sol:DnGmxJuniorVault",
            "label": "rewardRouter",
            "offset": 0,
            "slot": "28",
            "type": "t_contract(IRewardRouterV2)8118"
          },
          {
            "astId": 9149,
            "contract": "contracts/vaults/DnGmxJuniorVault.sol:DnGmxJuniorVault",
            "label": "mintBurnRewardRouter",
            "offset": 0,
            "slot": "29",
            "type": "t_contract(IRewardRouterV2)8118"
          },
          {
            "astId": 9152,
            "contract": "contracts/vaults/DnGmxJuniorVault.sol:DnGmxJuniorVault",
            "label": "swapRouter",
            "offset": 0,
            "slot": "30",
            "type": "t_contract(ISwapRouter)6620"
          },
          {
            "astId": 9155,
            "contract": "contracts/vaults/DnGmxJuniorVault.sol:DnGmxJuniorVault",
            "label": "balancerVault",
            "offset": 0,
            "slot": "31",
            "type": "t_contract(IBalancerVault)7822"
          },
          {
            "astId": 9158,
            "contract": "contracts/vaults/DnGmxJuniorVault.sol:DnGmxJuniorVault",
            "label": "dnGmxSeniorVault",
            "offset": 0,
            "slot": "32",
            "type": "t_contract(IDnGmxSeniorVault)7628"
          },
          {
            "astId": 9161,
            "contract": "contracts/vaults/DnGmxJuniorVault.sol:DnGmxJuniorVault",
            "label": "batchingManager",
            "offset": 0,
            "slot": "33",
            "type": "t_contract(IDnGmxBatchingManager)7365"
          },
          {
            "astId": 9165,
            "contract": "contracts/vaults/DnGmxJuniorVault.sol:DnGmxJuniorVault",
            "label": "__gaps",
            "offset": 0,
            "slot": "34",
            "type": "t_array(t_uint256)50_storage"
          }
        ],
        "numberOfBytes": "2688"
      },
      "t_uint128": {
        "encoding": "inplace",
        "label": "uint128",
        "numberOfBytes": "16"
      },
      "t_uint16": {
        "encoding": "inplace",
        "label": "uint16",
        "numberOfBytes": "2"
      },
      "t_uint24": {
        "encoding": "inplace",
        "label": "uint24",
        "numberOfBytes": "3"
      },
      "t_uint256": {
        "encoding": "inplace",
        "label": "uint256",
        "numberOfBytes": "32"
      },
      "t_uint32": {
        "encoding": "inplace",
        "label": "uint32",
        "numberOfBytes": "4"
      },
      "t_uint48": {
        "encoding": "inplace",
        "label": "uint48",
        "numberOfBytes": "6"
      },
      "t_uint8": {
        "encoding": "inplace",
        "label": "uint8",
        "numberOfBytes": "1"
      }
    }
  }
}