{
  "address": "0xADD8A97b3C9D80150D3621673c8621bdD5c64fcC",
  "abi": [
    {
      "inputs": [
        {
          "internalType": "uint256",
          "name": "minDelay",
          "type": "uint256"
        },
        {
          "internalType": "address[]",
          "name": "proposers",
          "type": "address[]"
        },
        {
          "internalType": "address[]",
          "name": "executors",
          "type": "address[]"
        }
      ],
      "stateMutability": "nonpayable",
      "type": "constructor"
    },
    {
      "anonymous": false,
      "inputs": [
        {
          "indexed": true,
          "internalType": "bytes32",
          "name": "id",
          "type": "bytes32"
        },
        {
          "indexed": true,
          "internalType": "uint256",
          "name": "index",
          "type": "uint256"
        },
        {
          "indexed": false,
          "internalType": "address",
          "name": "target",
          "type": "address"
        },
        {
          "indexed": false,
          "internalType": "uint256",
          "name": "value",
          "type": "uint256"
        },
        {
          "indexed": false,
          "internalType": "bytes",
          "name": "data",
          "type": "bytes"
        }
      ],
      "name": "CallExecuted",
      "type": "event"
    },
    {
      "anonymous": false,
      "inputs": [
        {
          "indexed": true,
          "internalType": "bytes32",
          "name": "id",
          "type": "bytes32"
        },
        {
          "indexed": true,
          "internalType": "uint256",
          "name": "index",
          "type": "uint256"
        },
        {
          "indexed": false,
          "internalType": "address",
          "name": "target",
          "type": "address"
        },
        {
          "indexed": false,
          "internalType": "uint256",
          "name": "value",
          "type": "uint256"
        },
        {
          "indexed": false,
          "internalType": "bytes",
          "name": "data",
          "type": "bytes"
        },
        {
          "indexed": false,
          "internalType": "bytes32",
          "name": "predecessor",
          "type": "bytes32"
        },
        {
          "indexed": false,
          "internalType": "uint256",
          "name": "delay",
          "type": "uint256"
        }
      ],
      "name": "CallScheduled",
      "type": "event"
    },
    {
      "anonymous": false,
      "inputs": [
        {
          "indexed": true,
          "internalType": "bytes32",
          "name": "id",
          "type": "bytes32"
        }
      ],
      "name": "Cancelled",
      "type": "event"
    },
    {
      "anonymous": false,
      "inputs": [
        {
          "indexed": false,
          "internalType": "uint256",
          "name": "oldDuration",
          "type": "uint256"
        },
        {
          "indexed": false,
          "internalType": "uint256",
          "name": "newDuration",
          "type": "uint256"
        }
      ],
      "name": "MinDelayChange",
      "type": "event"
    },
    {
      "anonymous": false,
      "inputs": [
        {
          "indexed": false,
          "internalType": "address",
          "name": "target",
          "type": "address"
        },
        {
          "indexed": false,
          "internalType": "bytes4",
          "name": "selector",
          "type": "bytes4"
        },
        {
          "indexed": false,
          "internalType": "uint256",
          "name": "newMinDelay",
          "type": "uint256"
        }
      ],
      "name": "MinDelayOverrideSet",
      "type": "event"
    },
    {
      "anonymous": false,
      "inputs": [
        {
          "indexed": false,
          "internalType": "address",
          "name": "target",
          "type": "address"
        },
        {
          "indexed": false,
          "internalType": "bytes4",
          "name": "selector",
          "type": "bytes4"
        }
      ],
      "name": "MinDelayOverrideUnset",
      "type": "event"
    },
    {
      "anonymous": false,
      "inputs": [
        {
          "indexed": true,
          "internalType": "bytes32",
          "name": "role",
          "type": "bytes32"
        },
        {
          "indexed": true,
          "internalType": "bytes32",
          "name": "previousAdminRole",
          "type": "bytes32"
        },
        {
          "indexed": true,
          "internalType": "bytes32",
          "name": "newAdminRole",
          "type": "bytes32"
        }
      ],
      "name": "RoleAdminChanged",
      "type": "event"
    },
    {
      "anonymous": false,
      "inputs": [
        {
          "indexed": true,
          "internalType": "bytes32",
          "name": "role",
          "type": "bytes32"
        },
        {
          "indexed": true,
          "internalType": "address",
          "name": "account",
          "type": "address"
        },
        {
          "indexed": true,
          "internalType": "address",
          "name": "sender",
          "type": "address"
        }
      ],
      "name": "RoleGranted",
      "type": "event"
    },
    {
      "anonymous": false,
      "inputs": [
        {
          "indexed": true,
          "internalType": "bytes32",
          "name": "role",
          "type": "bytes32"
        },
        {
          "indexed": true,
          "internalType": "address",
          "name": "account",
          "type": "address"
        },
        {
          "indexed": true,
          "internalType": "address",
          "name": "sender",
          "type": "address"
        }
      ],
      "name": "RoleRevoked",
      "type": "event"
    },
    {
      "inputs": [],
      "name": "CANCELLER_ROLE",
      "outputs": [
        {
          "internalType": "bytes32",
          "name": "",
          "type": "bytes32"
        }
      ],
      "stateMutability": "view",
      "type": "function"
    },
    {
      "inputs": [],
      "name": "DEFAULT_ADMIN_ROLE",
      "outputs": [
        {
          "internalType": "bytes32",
          "name": "",
          "type": "bytes32"
        }
      ],
      "stateMutability": "view",
      "type": "function"
    },
    {
      "inputs": [],
      "name": "EXECUTOR_ROLE",
      "outputs": [
        {
          "internalType": "bytes32",
          "name": "",
          "type": "bytes32"
        }
      ],
      "stateMutability": "view",
      "type": "function"
    },
    {
      "inputs": [],
      "name": "PROPOSER_ROLE",
      "outputs": [
        {
          "internalType": "bytes32",
          "name": "",
          "type": "bytes32"
        }
      ],
      "stateMutability": "view",
      "type": "function"
    },
    {
      "inputs": [],
      "name": "TIMELOCK_ADMIN_ROLE",
      "outputs": [
        {
          "internalType": "bytes32",
          "name": "",
          "type": "bytes32"
        }
      ],
      "stateMutability": "view",
      "type": "function"
    },
    {
      "inputs": [
        {
          "internalType": "bytes32",
          "name": "id",
          "type": "bytes32"
        }
      ],
      "name": "cancel",
      "outputs": [],
      "stateMutability": "nonpayable",
      "type": "function"
    },
    {
      "inputs": [
        {
          "internalType": "address",
          "name": "target",
          "type": "address"
        },
        {
          "internalType": "uint256",
          "name": "value",
          "type": "uint256"
        },
        {
          "internalType": "bytes",
          "name": "payload",
          "type": "bytes"
        },
        {
          "internalType": "bytes32",
          "name": "predecessor",
          "type": "bytes32"
        },
        {
          "internalType": "bytes32",
          "name": "salt",
          "type": "bytes32"
        }
      ],
      "name": "execute",
      "outputs": [],
      "stateMutability": "payable",
      "type": "function"
    },
    {
      "inputs": [
        {
          "internalType": "address[]",
          "name": "targets",
          "type": "address[]"
        },
        {
          "internalType": "uint256[]",
          "name": "values",
          "type": "uint256[]"
        },
        {
          "internalType": "bytes[]",
          "name": "payloads",
          "type": "bytes[]"
        },
        {
          "internalType": "bytes32",
          "name": "predecessor",
          "type": "bytes32"
        },
        {
          "internalType": "bytes32",
          "name": "salt",
          "type": "bytes32"
        }
      ],
      "name": "executeBatch",
      "outputs": [],
      "stateMutability": "payable",
      "type": "function"
    },
    {
      "inputs": [],
      "name": "getMinDelay",
      "outputs": [
        {
          "internalType": "uint256",
          "name": "duration",
          "type": "uint256"
        }
      ],
      "stateMutability": "view",
      "type": "function"
    },
    {
      "inputs": [
        {
          "internalType": "address",
          "name": "target",
          "type": "address"
        },
        {
          "internalType": "bytes4",
          "name": "selector",
          "type": "bytes4"
        }
      ],
      "name": "getMinDelayOverride",
      "outputs": [
        {
          "internalType": "uint256",
          "name": "minDelayOverride",
          "type": "uint256"
        }
      ],
      "stateMutability": "view",
      "type": "function"
    },
    {
      "inputs": [
        {
          "internalType": "bytes32",
          "name": "role",
          "type": "bytes32"
        }
      ],
      "name": "getRoleAdmin",
      "outputs": [
        {
          "internalType": "bytes32",
          "name": "",
          "type": "bytes32"
        }
      ],
      "stateMutability": "view",
      "type": "function"
    },
    {
      "inputs": [
        {
          "internalType": "bytes32",
          "name": "id",
          "type": "bytes32"
        }
      ],
      "name": "getTimestamp",
      "outputs": [
        {
          "internalType": "uint256",
          "name": "timestamp",
          "type": "uint256"
        }
      ],
      "stateMutability": "view",
      "type": "function"
    },
    {
      "inputs": [
        {
          "internalType": "bytes32",
          "name": "role",
          "type": "bytes32"
        },
        {
          "internalType": "address",
          "name": "account",
          "type": "address"
        }
      ],
      "name": "grantRole",
      "outputs": [],
      "stateMutability": "nonpayable",
      "type": "function"
    },
    {
      "inputs": [
        {
          "internalType": "bytes32",
          "name": "role",
          "type": "bytes32"
        },
        {
          "internalType": "address",
          "name": "account",
          "type": "address"
        }
      ],
      "name": "hasRole",
      "outputs": [
        {
          "internalType": "bool",
          "name": "",
          "type": "bool"
        }
      ],
      "stateMutability": "view",
      "type": "function"
    },
    {
      "inputs": [
        {
          "internalType": "address",
          "name": "target",
          "type": "address"
        },
        {
          "internalType": "uint256",
          "name": "value",
          "type": "uint256"
        },
        {
          "internalType": "bytes",
          "name": "data",
          "type": "bytes"
        },
        {
          "internalType": "bytes32",
          "name": "predecessor",
          "type": "bytes32"
        },
        {
          "internalType": "bytes32",
          "name": "salt",
          "type": "bytes32"
        }
      ],
      "name": "hashOperation",
      "outputs": [
        {
          "internalType": "bytes32",
          "name": "hash",
          "type": "bytes32"
        }
      ],
      "stateMutability": "pure",
      "type": "function"
    },
    {
      "inputs": [
        {
          "internalType": "address[]",
          "name": "targets",
          "type": "address[]"
        },
        {
          "internalType": "uint256[]",
          "name": "values",
          "type": "uint256[]"
        },
        {
          "internalType": "bytes[]",
          "name": "payloads",
          "type": "bytes[]"
        },
        {
          "internalType": "bytes32",
          "name": "predecessor",
          "type": "bytes32"
        },
        {
          "internalType": "bytes32",
          "name": "salt",
          "type": "bytes32"
        }
      ],
      "name": "hashOperationBatch",
      "outputs": [
        {
          "internalType": "bytes32",
          "name": "hash",
          "type": "bytes32"
        }
      ],
      "stateMutability": "pure",
      "type": "function"
    },
    {
      "inputs": [
        {
          "internalType": "bytes32",
          "name": "id",
          "type": "bytes32"
        }
      ],
      "name": "isOperation",
      "outputs": [
        {
          "internalType": "bool",
          "name": "registered",
          "type": "bool"
        }
      ],
      "stateMutability": "view",
      "type": "function"
    },
    {
      "inputs": [
        {
          "internalType": "bytes32",
          "name": "id",
          "type": "bytes32"
        }
      ],
      "name": "isOperationDone",
      "outputs": [
        {
          "internalType": "bool",
          "name": "done",
          "type": "bool"
        }
      ],
      "stateMutability": "view",
      "type": "function"
    },
    {
      "inputs": [
        {
          "internalType": "bytes32",
          "name": "id",
          "type": "bytes32"
        }
      ],
      "name": "isOperationPending",
      "outputs": [
        {
          "internalType": "bool",
          "name": "pending",
          "type": "bool"
        }
      ],
      "stateMutability": "view",
      "type": "function"
    },
    {
      "inputs": [
        {
          "internalType": "bytes32",
          "name": "id",
          "type": "bytes32"
        }
      ],
      "name": "isOperationReady",
      "outputs": [
        {
          "internalType": "bool",
          "name": "ready",
          "type": "bool"
        }
      ],
      "stateMutability": "view",
      "type": "function"
    },
    {
      "inputs": [
        {
          "internalType": "address",
          "name": "",
          "type": "address"
        },
        {
          "internalType": "address",
          "name": "",
          "type": "address"
        },
        {
          "internalType": "uint256[]",
          "name": "",
          "type": "uint256[]"
        },
        {
          "internalType": "uint256[]",
          "name": "",
          "type": "uint256[]"
        },
        {
          "internalType": "bytes",
          "name": "",
          "type": "bytes"
        }
      ],
      "name": "onERC1155BatchReceived",
      "outputs": [
        {
          "internalType": "bytes4",
          "name": "",
          "type": "bytes4"
        }
      ],
      "stateMutability": "nonpayable",
      "type": "function"
    },
    {
      "inputs": [
        {
          "internalType": "address",
          "name": "",
          "type": "address"
        },
        {
          "internalType": "address",
          "name": "",
          "type": "address"
        },
        {
          "internalType": "uint256",
          "name": "",
          "type": "uint256"
        },
        {
          "internalType": "uint256",
          "name": "",
          "type": "uint256"
        },
        {
          "internalType": "bytes",
          "name": "",
          "type": "bytes"
        }
      ],
      "name": "onERC1155Received",
      "outputs": [
        {
          "internalType": "bytes4",
          "name": "",
          "type": "bytes4"
        }
      ],
      "stateMutability": "nonpayable",
      "type": "function"
    },
    {
      "inputs": [
        {
          "internalType": "address",
          "name": "",
          "type": "address"
        },
        {
          "internalType": "address",
          "name": "",
          "type": "address"
        },
        {
          "internalType": "uint256",
          "name": "",
          "type": "uint256"
        },
        {
          "internalType": "bytes",
          "name": "",
          "type": "bytes"
        }
      ],
      "name": "onERC721Received",
      "outputs": [
        {
          "internalType": "bytes4",
          "name": "",
          "type": "bytes4"
        }
      ],
      "stateMutability": "nonpayable",
      "type": "function"
    },
    {
      "inputs": [
        {
          "internalType": "bytes32",
          "name": "role",
          "type": "bytes32"
        },
        {
          "internalType": "address",
          "name": "account",
          "type": "address"
        }
      ],
      "name": "renounceRole",
      "outputs": [],
      "stateMutability": "nonpayable",
      "type": "function"
    },
    {
      "inputs": [
        {
          "internalType": "bytes32",
          "name": "role",
          "type": "bytes32"
        },
        {
          "internalType": "address",
          "name": "account",
          "type": "address"
        }
      ],
      "name": "revokeRole",
      "outputs": [],
      "stateMutability": "nonpayable",
      "type": "function"
    },
    {
      "inputs": [
        {
          "internalType": "address",
          "name": "target",
          "type": "address"
        },
        {
          "internalType": "uint256",
          "name": "value",
          "type": "uint256"
        },
        {
          "internalType": "bytes",
          "name": "data",
          "type": "bytes"
        },
        {
          "internalType": "bytes32",
          "name": "predecessor",
          "type": "bytes32"
        },
        {
          "internalType": "bytes32",
          "name": "salt",
          "type": "bytes32"
        },
        {
          "internalType": "uint256",
          "name": "delay",
          "type": "uint256"
        }
      ],
      "name": "schedule",
      "outputs": [],
      "stateMutability": "nonpayable",
      "type": "function"
    },
    {
      "inputs": [
        {
          "internalType": "address[]",
          "name": "targets",
          "type": "address[]"
        },
        {
          "internalType": "uint256[]",
          "name": "values",
          "type": "uint256[]"
        },
        {
          "internalType": "bytes[]",
          "name": "payloads",
          "type": "bytes[]"
        },
        {
          "internalType": "bytes32",
          "name": "predecessor",
          "type": "bytes32"
        },
        {
          "internalType": "bytes32",
          "name": "salt",
          "type": "bytes32"
        },
        {
          "internalType": "uint256",
          "name": "delay",
          "type": "uint256"
        }
      ],
      "name": "scheduleBatch",
      "outputs": [],
      "stateMutability": "nonpayable",
      "type": "function"
    },
    {
      "inputs": [
        {
          "internalType": "address",
          "name": "target",
          "type": "address"
        },
        {
          "internalType": "bytes4",
          "name": "selector",
          "type": "bytes4"
        },
        {
          "internalType": "uint256",
          "name": "minDelayOverride",
          "type": "uint256"
        }
      ],
      "name": "setMinDelayOverride",
      "outputs": [],
      "stateMutability": "nonpayable",
      "type": "function"
    },
    {
      "inputs": [
        {
          "internalType": "bytes4",
          "name": "interfaceId",
          "type": "bytes4"
        }
      ],
      "name": "supportsInterface",
      "outputs": [
        {
          "internalType": "bool",
          "name": "",
          "type": "bool"
        }
      ],
      "stateMutability": "view",
      "type": "function"
    },
    {
      "inputs": [
        {
          "internalType": "address",
          "name": "target",
          "type": "address"
        },
        {
          "internalType": "bytes4",
          "name": "selector",
          "type": "bytes4"
        }
      ],
      "name": "unsetMinDelayOverride",
      "outputs": [],
      "stateMutability": "nonpayable",
      "type": "function"
    },
    {
      "inputs": [
        {
          "internalType": "uint256",
          "name": "newDelay",
          "type": "uint256"
        }
      ],
      "name": "updateDelay",
      "outputs": [],
      "stateMutability": "nonpayable",
      "type": "function"
    },
    {
      "stateMutability": "payable",
      "type": "receive"
    }
  ],
  "transactionHash": "0xc4f2cc385d255d5691ca2e5692babe9c932fd999076a914e5b0727c039caf074",
  "args": [
    172800,
    [
      "0x622441bc2112B3C1B39fCe04b33f0Effeb357CFa"
    ],
    [
      "0x622441bc2112B3C1B39fCe04b33f0Effeb357CFa",
      "0xb3a2A149abfa8F1AA05D63Db3F83afDfD73B3958",
      "0x6429602699fEC6D205e0b9531C7f33476BA11Fb0",
      "0x45e48668F090a3eD1C7961421c60Df4E66f693BD",
      "0xf16e2db1102e0067bab490ff1ef23da2b3d30964",
      "0x507c7777837b85ede1e67f5a4554ddd7e58b1f87",
      "0xc30603461Be4C49CF8076797C18F48292fFDe03A"
    ]
  ],
  "numDeployments": 1,
  "solcInputHash": "c6b042850800c612a6f6110d9c96562f",
  "bytecode": "0x604060808152346200040a576200259b90813803806200001f816200040f565b93843982016060838203126200040a57825192602090818101519260018060401b03938481116200040a5781620000589184016200044b565b93858301519081116200040a576200007192016200044b565b7f5f58e3a2316349923ce3780f8d587db2d72378aed66a8261c916544fa6846ca5926000938085528484526001918287872001549082848989200155827fbd79b86ffe0ab8e8776151514217cd7cacd52c909f66475c3af44e129f0b00ff9281848a80a47fb09aa5aeb3702cfd50b6b62bc4532604938f21248a27a1d5ca736082b6819cc1808852888820850180549085905585918291869082878d80a4858a8c7fd8aa0f3194971a2a116679f7c2090f6939c8d4e01a2a8d7e41d55e5351469e639788835283868385200154818885872001558a838680a4837ffd643c72710c63c0180259aba6b2d05451e3591a24e58b62239378085726f783968793848652818187200154952001558d80a4858a528a8a20338b52895260ff95868c8c20541615620003d2575b808b528a8a528b8b20308c528a52868c8c2054161562000399575b508a8a845b6200029d575b508a94505050505b6200020f575b877f11c24f4ead16507c69ac467fbd5e4eed5fb5c699626d2cc6d66421df253886d581898c8a816002558351928352820152a1516120659081620005168239f35b84518110156200029757839062000258906001600160a01b03620002348289620004ea565b5116848a528989528a8a20818b528952858b8b205416156200025f575b50620004c4565b90620001c8565b848a528989528a8a20818b5289528a8a20805460ff1916851790553390856000805160206200257b8339815191528c80a43862000251565b620001ce565b8b8b875183101562000391576200031693826001600160a01b0380620002c4878d620004ea565b511688835282855283832081845285528d84842054161562000359575b50620002ee868c620004ea565b511692888252528d81842090838552528d8b8285205416156200031f575b50505050620004c4565b8b9084620001ba565b8390888252528d818420908385525282208760ff19825416179055856000805160206200257b833981519152339380a48b388e8d6200030c565b8883528285528383208184528552838320805460ff19168c1790553390896000805160206200257b8339815191528580a438620002e1565b5050620001c0565b808b528a8a528b8b2030808d52908b528c8c20805460ff19168617905533916000805160206200257b8339815191528d80a438620001b5565b808b528a8a528b8b2033808d52908b528c8c20805460ff19168617905580826000805160206200257b8339815191528e80a46200019a565b600080fd5b6040519190601f01601f191682016001600160401b038111838210176200043557604052565b634e487b7160e01b600052604160045260246000fd5b81601f820112156200040a578051916001600160401b03831162000435578260051b60209283806200047f8185016200040f565b8097815201928201019283116200040a578301905b828210620004a3575050505090565b81516001600160a01b03811681036200040a57815290830190830162000494565b6000198114620004d45760010190565b634e487b7160e01b600052601160045260246000fd5b8051821015620004ff5760209160051b010190565b634e487b7160e01b600052603260045260246000fdfe6080604052600436101561001b575b361561001957600080fd5b005b60003560e01c806301d5062a1461028757806301ffc9a71461027e57806307bd0265146102755780630d3cf6fc1461026c578063134008d31461026357806313bc9f201461025a578063150b7a0214610251578063248a9ca3146102485780632ab0f5291461023f5780632c3b2c01146102365780632f2ff15d1461022d57806331d507501461022457806336568abe1461021b578063584b153e1461021257806364d62353146102095780638065657f146102005780638f2a0bb0146101f75780638f61f4f5146101ee57806391d14854146101e557806395e7f9b9146101dc578063a217fddf146101d3578063b08e51c0146101ca578063b1c5f427146101c1578063bc197c81146101b8578063c4d252f5146101af578063d45c4435146101a6578063d547741f1461019d578063e38335e514610194578063e86db08f1461018b578063f23a6e61146101825763f27a0c920361000e5761017d6112ac565b61000e565b5061017d611252565b5061017d61118f565b5061017d61105c565b5061017d611017565b5061017d610fea565b5061017d610f18565b5061017d610e87565b5061017d610df0565b5061017d610d53565b5061017d610d36565b5061017d610c8f565b5061017d610c37565b5061017d610bfb565b5061017d610ac9565b5061017d610a71565b5061017d610a1a565b5061017d6109ec565b5061017d610955565b5061017d610928565b5061017d61084f565b5061017d6107cb565b5061017d61079d565b5061017d61076d565b5061017d610713565b5061017d610634565b5061017d610556565b5061017d6104d3565b5061017d610497565b5061017d610426565b5061017d6102d3565b6001600160a01b038116036102a157565b600080fd5b9181601f840112156102a1578235916001600160401b0383116102a157602083818601950101116102a157565b50346102a15760c03660031901126102a157600480356102f281610290565b6024356044356001600160401b0381116102a15761031390369085016102a6565b60649391933560a435916103263361132e565b8681108015610399575b6000877f4cf4410cc57040e44862ef0f45f3dd5a5e02db8eb8add648d4b0e236f1d07dca888861038c8989896103653361132e565b61037560843583838b8a8a6116ac565b97610380848a6119ba565b6040519687968761196a565b0390a36100196000600355565b6103fa579161038c917f4cf4410cc57040e44862ef0f45f3dd5a5e02db8eb8add648d4b0e236f1d07dca95949360406000998a90818052808b83378151881882526020522054806103f1575b50919394955091610330565b600355386103e5565b600187634e487b7160e01b6000525260246000fd5b602435906001600160e01b0319821682036102a157565b50346102a15760203660031901126102a15760043563ffffffff60e01b81168091036102a157602090630271189760e51b811490811561046c575b506040519015158152f35b637965db0b60e01b811491508115610486575b5038610461565b6301ffc9a760e01b1490503861047f565b50346102a15760003660031901126102a15760206040517fd8aa0f3194971a2a116679f7c2090f6939c8d4e01a2a8d7e41d55e5351469e638152f35b50346102a15760003660031901126102a15760206040517f5f58e3a2316349923ce3780f8d587db2d72378aed66a8261c916544fa6846ca58152f35b60a06003198201126102a15760043561052781610290565b9160243591604435906001600160401b0382116102a15761054a916004016102a6565b90916064359060843590565b506105fa6106236106037fc2617efa69bab66782fa219543714338489c4e9e178271560a91b82c3f612b5861061b61058d3661050f565b60008080527fdae2aa361dfd1ca020a396615627d436107c35eff9fe7738a3512819782d70696020527f5ba6852781629bcdcd4bdaa6de76d786f1c64b16acdac474e55bebc0ea15795154909b8c99939893979593949392909160ff1615610626575b88848489896116ac565b98899788611bec565b61060f82828787611ade565b60405194859485611ab6565b0390a3611c82565b80f35b61062f33611423565b6105f0565b50346102a15760203660031901126102a1576020610653600435611667565b6040519015158152f35b50634e487b7160e01b600052604160045260246000fd5b90601f801991011681019081106001600160401b0382111761069557604052565b61069d61065d565b604052565b6020906001600160401b0381116106bf575b601f01601f19160190565b6106c761065d565b6106b4565b81601f820112156102a1578035906106e3826106a2565b926106f16040519485610674565b828452602083830101116102a157816000926020809301838601378301015290565b50346102a15760803660031901126102a157610730600435610290565b61073b602435610290565b6064356001600160401b0381116102a15761075a9036906004016106cc565b50604051630a85bd0160e11b8152602090f35b50346102a15760203660031901126102a15760043560005260006020526020600160406000200154604051908152f35b50346102a15760203660031901126102a1576020610653600435600052600160205260016040600020541490565b50346102a15760403660031901126102a1577f19a57c9d1534b323e9fe3746f31c9a6202ddedebb52f2b2a6cdb0d4905ddc5b3604060043561080c81610290565b61081461040f565b61081f303314611ca0565b80821860005260046020526000838120556001600160a01b0383519216825263ffffffff60e01b166020820152a1005b50346102a15760403660031901126102a15760043560243561087081610290565b6000918083528260205261088c600160408520015433906114f3565b8083528260205260ff6108b58360408620906001600160a01b0316600052602052604060002090565b5416156108c0578280f35b808352826020526108e78260408520906001600160a01b0316600052602052604060002090565b805460ff1916600117905533916001600160a01b0316907f2f8788117e7eff1d82e926ec794901d17c78024a50270940304540a733656f0d8480a438808280f35b50346102a15760203660031901126102a15760206106536004356000526001602052604060002054151590565b50346102a15760403660031901126102a15760243561097381610290565b336001600160a01b0382160361098f57610019906004356115d0565b60405162461bcd60e51b815260206004820152602f60248201527f416363657373436f6e74726f6c3a2063616e206f6e6c792072656e6f756e636560448201526e103937b632b9903337b91039b2b63360891b6064820152608490fd5b50346102a15760203660031901126102a1576020610653600435600052600160205260016040600020541190565b50346102a15760203660031901126102a157600435610a3a303314611ca0565b7f11c24f4ead16507c69ac467fbd5e4eed5fb5c699626d2cc6d66421df253886d560406002548151908152836020820152a1600255005b50346102a1576020610a91610a853661050f565b949390939291926116ac565b604051908152f35b9181601f840112156102a1578235916001600160401b0383116102a1576020808501948460051b0101116102a157565b50346102a15760c03660031901126102a1576001600160401b036004358181116102a157610afb903690600401610a99565b6024929192358281116102a157610b16903690600401610a99565b9190926044359081116102a157610b31903690600401610a99565b906064359460a43593610b433361132e565b610b4e86821461185f565b610b5984821461185f565b610b6b6084358886868a87878f6117a9565b94610b7681876119ba565b60005b828110610b8257005b8080887f4cf4410cc57040e44862ef0f45f3dd5a5e02db8eb8add648d4b0e236f1d07dca88888f8f8f90610be18f9a610bf69b610bda8f8f96610bca858093610bee9b6118fd565b3599610bd58b610290565b6118fd565b359761191b565b906040519687968761196a565b0390a36118ce565b610b79565b50346102a15760003660031901126102a15760206040517fb09aa5aeb3702cfd50b6b62bc4532604938f21248a27a1d5ca736082b6819cc18152f35b50346102a15760403660031901126102a157602060ff610c83602435610c5c81610290565b600435600052600084526040600020906001600160a01b0316600052602052604060002090565b54166040519015158152f35b50346102a15760603660031901126102a1577f2e5b50c2b84febe5b9f241a1394c287773688ea86f2abf46c1dc134fc69af6ef6060600435610cd081610290565b610cd861040f565b60443590610ce7303314611ca0565b60018201808311610d29575b81841860005260046020526040600020556001600160a01b036040519316835263ffffffff60e01b1660208301526040820152a1005b610d316118b7565b610cf3565b50346102a15760003660031901126102a157602060405160008152f35b50346102a15760003660031901126102a15760206040517ffd643c72710c63c0180259aba6b2d05451e3591a24e58b62239378085726f7838152f35b9060a06003198301126102a1576001600160401b036004358181116102a15783610dbb91600401610a99565b939093926024358381116102a15782610dd691600401610a99565b939093926044359182116102a15761054a91600401610a99565b50346102a1576020610a91610e0436610d8f565b969590959491949392936117a9565b9080601f830112156102a1578135906001600160401b038211610e7a575b8160051b60405193602093610e4885840187610674565b855283808601928201019283116102a1578301905b828210610e6b575050505090565b81358152908301908301610e5d565b610e8261065d565b610e31565b50346102a15760a03660031901126102a157610ea4600435610290565b610eaf602435610290565b6001600160401b036044358181116102a157610ecf903690600401610e13565b506064358181116102a157610ee8903690600401610e13565b506084359081116102a157610f019036906004016106cc565b5060405163bc197c8160e01b8152602090f35b0390f35b50346102a15760203660031901126102a157600435610f363361148b565b610f4e81600052600160205260016040600020541190565b15610f8b5760009080825260016020528160408120557fbaa1eb22f2a492ba1a5fea61b8df4d27c6c8b5f3971e63bb58fa14ff72eedb708280a280f35b60405162461bcd60e51b815260206004820152603160248201527f54696d656c6f636b436f6e74726f6c6c65723a206f7065726174696f6e2063616044820152701b9b9bdd0818994818d85b98d95b1b1959607a1b6064820152608490fd5b50346102a15760203660031901126102a15760043560005260016020526020604060002054604051908152f35b50346102a15760403660031901126102a15761001960243560043561103b82610290565b80600052600060205261105760016040600020015433906114f3565b6115d0565b5061106636610d8f565b60008080527fdae2aa361dfd1ca020a396615627d436107c35eff9fe7738a3512819782d706960205297919691959394604093929091819088908a868a878b7f5ba6852781629bcdcd4bdaa6de76d786f1c64b16acdac474e55bebc0ea1579515460ff1615976110f4976110fb99611181575b6110e484831461185f565b6110ef86831461185f565b6117a9565b9889611bec565b885b81811061110e57896106238a611c82565b80808a7fc2617efa69bab66782fa219543714338489c4e9e178271560a91b82c3f612b588a8a610bee6111648f988c61115d828e6111528f61117c9f9084916118fd565b3597610bd589610290565b359561191b565b9061117182828787611ade565b8d5194859485611ab6565b6110fd565b61118a33611423565b6110d9565b50346102a15760403660031901126102a1576004356111ad81610290565b6111b561040f565b18600052600460205260406000205480156111f857610f149060001981019081116111eb575b6040519081529081906020820190565b6111f36118b7565b6111db565b60405162461bcd60e51b815260206004820152602c60248201527f54696d656c6f636b436f6e74726f6c6c65723a206d696e44656c61794f76657260448201526b1c9a5919481b9bdd081cd95d60a21b6064820152608490fd5b50346102a15760a03660031901126102a15761126f600435610290565b61127a602435610290565b6084356001600160401b0381116102a1576112999036906004016106cc565b5060405163f23a6e6160e01b8152602090f35b50346102a15760003660031901126102a1576020610a91612032565b60005b8381106112db5750506000910152565b81810151838201526020016112cb565b906112fe602092828151948592016112c8565b0190565b6040916020825261132281518092816020860152602086860191016112c8565b601f01601f1916010190565b6001600160a01b03811660009081527f3412d5605ac6cd444957cedb533e5dacad6378b4bc819ebe3652188a665066d5602052604090205460ff16156113715750565b604861140761138b6001600160a01b0361141f9416611de5565b6113f9611396611e82565b6040519485937f416363657373436f6e74726f6c3a206163636f756e742000000000000000000060208601526113d68151809260206037890191016112c8565b84017001034b99036b4b9b9b4b733903937b6329607d1b603782015201906112eb565b03601f198101835282610674565b60405162461bcd60e51b815291829160048301611302565b0390fd5b6001600160a01b03811660009081527fdae2aa361dfd1ca020a396615627d436107c35eff9fe7738a3512819782d7069602052604090205460ff16156114665750565b60486114076114806001600160a01b0361141f9416611de5565b6113f9611396611f12565b6001600160a01b03811660009081527fc3ad33e20b0c56a223ad5104fff154aa010f8715b9c981fd38fdc60a4d1a52fb602052604090205460ff16156114ce5750565b60486114076114e86001600160a01b0361141f9416611de5565b6113f9611396611fa2565b9081600052600060205260ff611520826040600020906001600160a01b0316600052602052604060002090565b54161561152b575050565b6001600160a01b0361153d9116611de5565b90611546611d00565b90603061155283611d39565b53607861155e83611d4f565b5360415b600181116115815761141f6048611407866113f9876113968815611d9a565b9080600f6115be921660108110156115c3575b6f181899199a1a9b1b9c1cb0b131b232b360811b901a6115b48486611d60565b5360041c91611d7f565b611562565b6115cb6118e6565b611594565b6000908082528160205260ff6115fc8460408520906001600160a01b0316600052602052604060002090565b541661160757505050565b8082528160205261162e8360408420906001600160a01b0316600052602052604060002090565b60ff1981541690557ff6391f5c32d9c69d2a47ea670b442974b53935d1edc7fd64eb21e047a839171b6001600160a01b033394169280a4565b6000526001602052604060002054600181119081611683575090565b905042101590565b908060209392818452848401376000828201840152601f01601f1916010190565b946116e36116fc949592936040519687956001600160a01b03602088019a168a52604087015260a0606087015260c086019161168b565b91608084015260a083015203601f198101835282610674565b51902090565b81835290916001600160fb1b0383116102a15760209260051b809284830137010190565b90808352602080930192838260051b850194846000925b85841061174e575050505050505090565b9091929394959681810384528735601e19843603018112156102a15783018681019190356001600160401b0381116102a15780360383136102a1576117988892839260019561168b565b99019401940192959493919061173d565b9495919396909660405196879460208087019a808c60a060c08b0191525260e08801999160005b8281106118225750505050906117fb6116fc9861180b9493601f19998a8a84030160408b0152611702565b9187878403016060880152611726565b91608084015260a083015203908101835282610674565b919394969850919496989982806001926001600160a01b03893561184581610290565b1681520196019101918b9896949391929a9997959a6117d0565b1561186657565b60405162461bcd60e51b815260206004820152602360248201527f54696d656c6f636b436f6e74726f6c6c65723a206c656e677468206d69736d616044820152620e8c6d60eb1b6064820152608490fd5b50634e487b7160e01b600052601160045260246000fd5b60019060001981146118de570190565b6112fe6118b7565b50634e487b7160e01b600052603260045260246000fd5b919081101561190e575b60051b0190565b6119166118e6565b611907565b919081101561195d575b60051b81013590601e19813603018212156102a15701908135916001600160401b0383116102a15760200182360381136102a1579190565b6119656118e6565b611925565b929093611999926001600160a01b0360809699989799168552602085015260a0604085015260a084019161168b565b9460608201520152565b919082018092116119b057565b6119b86118b7565b565b906119d2826000526001602052604060002054151590565b611a59576119de612032565b8110611a05576119f1611a0291426119a3565b916000526001602052604060002090565b55565b60405162461bcd60e51b815260206004820152602660248201527f54696d656c6f636b436f6e74726f6c6c65723a20696e73756666696369656e746044820152652064656c617960d01b6064820152608490fd5b60405162461bcd60e51b815260206004820152602f60248201527f54696d656c6f636b436f6e74726f6c6c65723a206f7065726174696f6e20616c60448201526e1c9958591e481cd8da19591d5b1959608a1b6064820152608490fd5b611adb94926001600160a01b036060931682526020820152816040820152019161168b565b90565b90926000938493826040519384928337810185815203925af13d15611b88573d611b07816106a2565b90611b156040519283610674565b8152600060203d92013e5b15611b2757565b60405162461bcd60e51b815260206004820152603360248201527f54696d656c6f636b436f6e74726f6c6c65723a20756e6465726c79696e6720746044820152721c985b9cd858dd1a5bdb881c995d995c9d1959606a1b6064820152608490fd5b611b20565b15611b9457565b60405162461bcd60e51b815260206004820152602a60248201527f54696d656c6f636b436f6e74726f6c6c65723a206f7065726174696f6e206973604482015269206e6f7420726561647960b01b6064820152608490fd5b611bf8611bfd91611667565b611b8d565b8015908115611c63575b5015611c0f57565b60405162461bcd60e51b815260206004820152602660248201527f54696d656c6f636b436f6e74726f6c6c65723a206d697373696e6720646570656044820152656e64656e637960d01b6064820152608490fd5b611c7c9150600052600160205260016040600020541490565b38611c07565b611c8e611bf882611667565b60005260016020526001604060002055565b15611ca757565b60405162461bcd60e51b815260206004820152602b60248201527f54696d656c6f636b436f6e74726f6c6c65723a2063616c6c6572206d7573742060448201526a62652074696d656c6f636b60a81b6064820152608490fd5b60405190608082018281106001600160401b03821117611d2c575b604052604282526060366020840137565b611d3461065d565b611d1b565b602090805115611d47570190565b6112fe6118e6565b602190805160011015611d47570190565b906020918051821015611d7257010190565b611d7a6118e6565b010190565b8015611d8d575b6000190190565b611d956118b7565b611d86565b15611da157565b606460405162461bcd60e51b815260206004820152602060248201527f537472696e67733a20686578206c656e67746820696e73756666696369656e746044820152fd5b60405190606082018281106001600160401b03821117611e75575b604052602a825260403660208401376030611e1a83611d39565b536078611e2683611d4f565b536029905b60018211611e3e57611adb915015611d9a565b80600f611e6f921660108110156115c3576f181899199a1a9b1b9c1cb0b131b232b360811b901a6115b48486611d60565b90611e2b565b611e7d61065d565b611e00565b7fb09aa5aeb3702cfd50b6b62bc4532604938f21248a27a1d5ca736082b6819cc1611eab611d00565b906030611eb783611d39565b536078611ec383611d4f565b536041905b60018211611edb57611adb915015611d9a565b80600f611f0c921660108110156115c3576f181899199a1a9b1b9c1cb0b131b232b360811b901a6115b48486611d60565b90611ec8565b7fd8aa0f3194971a2a116679f7c2090f6939c8d4e01a2a8d7e41d55e5351469e63611f3b611d00565b906030611f4783611d39565b536078611f5383611d4f565b536041905b60018211611f6b57611adb915015611d9a565b80600f611f9c921660108110156115c3576f181899199a1a9b1b9c1cb0b131b232b360811b901a6115b48486611d60565b90611f58565b7ffd643c72710c63c0180259aba6b2d05451e3591a24e58b62239378085726f783611fcb611d00565b906030611fd783611d39565b536078611fe383611d4f565b536041905b60018211611ffb57611adb915015611d9a565b80600f61202c921660108110156115c3576f181899199a1a9b1b9c1cb0b131b232b360811b901a6115b48486611d60565b90611fe8565b60035480612041575060025490565b60001981019081116120505790565b611adb6118b756fea164736f6c6343000811000a2f8788117e7eff1d82e926ec794901d17c78024a50270940304540a733656f0d",
  "devdoc": {
    "kind": "dev",
    "methods": {
      "cancel(bytes32)": {
        "details": "Cancel an operation. Requirements: - the caller must have the 'canceller' role."
      },
      "execute(address,uint256,bytes,bytes32,bytes32)": {
        "details": "Execute an (ready) operation containing a single transaction. Emits a {CallExecuted} event. Requirements: - the caller must have the 'executor' role."
      },
      "executeBatch(address[],uint256[],bytes[],bytes32,bytes32)": {
        "details": "Execute an (ready) operation containing a batch of transactions. Emits one {CallExecuted} event per transaction in the batch. Requirements: - the caller must have the 'executor' role."
      },
      "getMinDelay()": {
        "details": "Returns the minimum delay for an operation to become valid. This value can be changed by executing an operation that calls `updateDelay`."
      },
      "getRoleAdmin(bytes32)": {
        "details": "Returns the admin role that controls `role`. See {grantRole} and {revokeRole}. To change a role's admin, use {_setRoleAdmin}."
      },
      "getTimestamp(bytes32)": {
        "details": "Returns the timestamp at with an operation becomes ready (0 for unset operations, 1 for done operations)."
      },
      "grantRole(bytes32,address)": {
        "details": "Grants `role` to `account`. If `account` had not been already granted `role`, emits a {RoleGranted} event. Requirements: - the caller must have ``role``'s admin role. May emit a {RoleGranted} event."
      },
      "hasRole(bytes32,address)": {
        "details": "Returns `true` if `account` has been granted `role`."
      },
      "hashOperation(address,uint256,bytes,bytes32,bytes32)": {
        "details": "Returns the identifier of an operation containing a single transaction."
      },
      "hashOperationBatch(address[],uint256[],bytes[],bytes32,bytes32)": {
        "details": "Returns the identifier of an operation containing a batch of transactions."
      },
      "isOperation(bytes32)": {
        "details": "Returns whether an id correspond to a registered operation. This includes both Pending, Ready and Done operations."
      },
      "isOperationDone(bytes32)": {
        "details": "Returns whether an operation is done or not."
      },
      "isOperationPending(bytes32)": {
        "details": "Returns whether an operation is pending or not."
      },
      "isOperationReady(bytes32)": {
        "details": "Returns whether an operation is ready or not."
      },
      "onERC1155BatchReceived(address,address,uint256[],uint256[],bytes)": {
        "details": "See {IERC1155Receiver-onERC1155BatchReceived}."
      },
      "onERC1155Received(address,address,uint256,uint256,bytes)": {
        "details": "See {IERC1155Receiver-onERC1155Received}."
      },
      "onERC721Received(address,address,uint256,bytes)": {
        "details": "See {IERC721Receiver-onERC721Received}."
      },
      "renounceRole(bytes32,address)": {
        "details": "Revokes `role` from the calling account. Roles are often managed via {grantRole} and {revokeRole}: this function's purpose is to provide a mechanism for accounts to lose their privileges if they are compromised (such as when a trusted device is misplaced). If the calling account had been revoked `role`, emits a {RoleRevoked} event. Requirements: - the caller must be `account`. May emit a {RoleRevoked} event."
      },
      "revokeRole(bytes32,address)": {
        "details": "Revokes `role` from `account`. If `account` had been granted `role`, emits a {RoleRevoked} event. Requirements: - the caller must have ``role``'s admin role. May emit a {RoleRevoked} event."
      },
      "schedule(address,uint256,bytes,bytes32,bytes32,uint256)": {
        "details": "Schedule an operation containing a single transaction. Emits a {CallScheduled} event. Requirements: - the caller must have the 'proposer' role."
      },
      "scheduleBatch(address[],uint256[],bytes[],bytes32,bytes32,uint256)": {
        "details": "Schedule an operation containing a batch of transactions. Emits one {CallScheduled} event per transaction in the batch. Requirements: - the caller must have the 'proposer' role."
      },
      "supportsInterface(bytes4)": {
        "details": "See {IERC165-supportsInterface}."
      },
      "updateDelay(uint256)": {
        "details": "Changes the minimum timelock duration for future operations. Emits a {MinDelayChange} event. Requirements: - the caller must be the timelock itself. This can only be achieved by scheduling and later executing an operation where the timelock is the target and the data is the ABI-encoded call to this function."
      }
    },
    "title": "Timelock controller with a minimum delay override for certain functions",
    "version": 1
  },
  "userdoc": {
    "kind": "user",
    "methods": {},
    "version": 1
  },
  "storageLayout": {
    "storage": [
      {
        "astId": 1896,
        "contract": "@ragetrade/core/contracts/utils/TimelockControllerWithMinDelayOverride.sol:TimelockControllerWithMinDelayOverride",
        "label": "_roles",
        "offset": 0,
        "slot": "0",
        "type": "t_mapping(t_bytes32,t_struct(RoleData)1891_storage)"
      },
      {
        "astId": 2420,
        "contract": "@ragetrade/core/contracts/utils/TimelockControllerWithMinDelayOverride.sol:TimelockControllerWithMinDelayOverride",
        "label": "_timestamps",
        "offset": 0,
        "slot": "1",
        "type": "t_mapping(t_bytes32,t_uint256)"
      },
      {
        "astId": 2422,
        "contract": "@ragetrade/core/contracts/utils/TimelockControllerWithMinDelayOverride.sol:TimelockControllerWithMinDelayOverride",
        "label": "_minDelay",
        "offset": 0,
        "slot": "2",
        "type": "t_uint256"
      },
      {
        "astId": 5126,
        "contract": "@ragetrade/core/contracts/utils/TimelockControllerWithMinDelayOverride.sol:TimelockControllerWithMinDelayOverride",
        "label": "_minDelayOverridePlusOne",
        "offset": 0,
        "slot": "3",
        "type": "t_uint256"
      },
      {
        "astId": 5130,
        "contract": "@ragetrade/core/contracts/utils/TimelockControllerWithMinDelayOverride.sol:TimelockControllerWithMinDelayOverride",
        "label": "_minDelayOverridePlusOneMapping",
        "offset": 0,
        "slot": "4",
        "type": "t_mapping(t_bytes32,t_uint256)"
      }
    ],
    "types": {
      "t_address": {
        "encoding": "inplace",
        "label": "address",
        "numberOfBytes": "20"
      },
      "t_bool": {
        "encoding": "inplace",
        "label": "bool",
        "numberOfBytes": "1"
      },
      "t_bytes32": {
        "encoding": "inplace",
        "label": "bytes32",
        "numberOfBytes": "32"
      },
      "t_mapping(t_address,t_bool)": {
        "encoding": "mapping",
        "key": "t_address",
        "label": "mapping(address => bool)",
        "numberOfBytes": "32",
        "value": "t_bool"
      },
      "t_mapping(t_bytes32,t_struct(RoleData)1891_storage)": {
        "encoding": "mapping",
        "key": "t_bytes32",
        "label": "mapping(bytes32 => struct AccessControl.RoleData)",
        "numberOfBytes": "32",
        "value": "t_struct(RoleData)1891_storage"
      },
      "t_mapping(t_bytes32,t_uint256)": {
        "encoding": "mapping",
        "key": "t_bytes32",
        "label": "mapping(bytes32 => uint256)",
        "numberOfBytes": "32",
        "value": "t_uint256"
      },
      "t_struct(RoleData)1891_storage": {
        "encoding": "inplace",
        "label": "struct AccessControl.RoleData",
        "members": [
          {
            "astId": 1888,
            "contract": "@ragetrade/core/contracts/utils/TimelockControllerWithMinDelayOverride.sol:TimelockControllerWithMinDelayOverride",
            "label": "members",
            "offset": 0,
            "slot": "0",
            "type": "t_mapping(t_address,t_bool)"
          },
          {
            "astId": 1890,
            "contract": "@ragetrade/core/contracts/utils/TimelockControllerWithMinDelayOverride.sol:TimelockControllerWithMinDelayOverride",
            "label": "adminRole",
            "offset": 0,
            "slot": "1",
            "type": "t_bytes32"
          }
        ],
        "numberOfBytes": "64"
      },
      "t_uint256": {
        "encoding": "inplace",
        "label": "uint256",
        "numberOfBytes": "32"
      }
    }
  }
}