{
  "address": "0x76c404a3B8b8b5D41421EAd8335549deA8aB2123",
  "abi": [
    {
      "inputs": [
        {
          "internalType": "uint256",
          "name": "traderOIHedgeBps",
          "type": "uint256"
        }
      ],
      "name": "InvalidTraderOIHedgeBps",
      "type": "error"
    },
    {
      "inputs": [
        {
          "internalType": "int128",
          "name": "btcTraderOIHedge",
          "type": "int128"
        },
        {
          "internalType": "int128",
          "name": "ethTraderOIHedge",
          "type": "int128"
        }
      ],
      "name": "InvalidTraderOIHedges",
      "type": "error"
    },
    {
      "inputs": [
        {
          "internalType": "address",
          "name": "msgSender",
          "type": "address"
        },
        {
          "internalType": "address",
          "name": "authorisedKeeperAddress",
          "type": "address"
        }
      ],
      "name": "OnlyKeeperAllowed",
      "type": "error"
    },
    {
      "anonymous": false,
      "inputs": [
        {
          "indexed": false,
          "internalType": "uint8",
          "name": "version",
          "type": "uint8"
        }
      ],
      "name": "Initialized",
      "type": "event"
    },
    {
      "anonymous": false,
      "inputs": [
        {
          "indexed": true,
          "internalType": "address",
          "name": "oldKeeper",
          "type": "address"
        },
        {
          "indexed": true,
          "internalType": "address",
          "name": "newKeeper",
          "type": "address"
        }
      ],
      "name": "KeeperUpdated",
      "type": "event"
    },
    {
      "anonymous": false,
      "inputs": [
        {
          "indexed": true,
          "internalType": "address",
          "name": "previousOwner",
          "type": "address"
        },
        {
          "indexed": true,
          "internalType": "address",
          "name": "newOwner",
          "type": "address"
        }
      ],
      "name": "OwnershipTransferred",
      "type": "event"
    },
    {
      "anonymous": false,
      "inputs": [
        {
          "indexed": false,
          "internalType": "uint256",
          "name": "traderOIHedgeBps",
          "type": "uint256"
        }
      ],
      "name": "TraderOIHedgeBpsUpdated",
      "type": "event"
    },
    {
      "anonymous": false,
      "inputs": [
        {
          "indexed": false,
          "internalType": "int256",
          "name": "btcTraderOIHedge",
          "type": "int256"
        },
        {
          "indexed": false,
          "internalType": "int256",
          "name": "ethTraderOIHedge",
          "type": "int256"
        }
      ],
      "name": "TraderOIHedgesUpdated",
      "type": "event"
    },
    {
      "inputs": [],
      "name": "btcTraderOIHedge",
      "outputs": [
        {
          "internalType": "int128",
          "name": "",
          "type": "int128"
        }
      ],
      "stateMutability": "view",
      "type": "function"
    },
    {
      "inputs": [],
      "name": "ethTraderOIHedge",
      "outputs": [
        {
          "internalType": "int128",
          "name": "",
          "type": "int128"
        }
      ],
      "stateMutability": "view",
      "type": "function"
    },
    {
      "inputs": [],
      "name": "glp",
      "outputs": [
        {
          "internalType": "contract IERC20Metadata",
          "name": "",
          "type": "address"
        }
      ],
      "stateMutability": "view",
      "type": "function"
    },
    {
      "inputs": [],
      "name": "glpManager",
      "outputs": [
        {
          "internalType": "contract IGlpManager",
          "name": "",
          "type": "address"
        }
      ],
      "stateMutability": "view",
      "type": "function"
    },
    {
      "inputs": [],
      "name": "gmxVault",
      "outputs": [
        {
          "internalType": "contract IVault",
          "name": "",
          "type": "address"
        }
      ],
      "stateMutability": "view",
      "type": "function"
    },
    {
      "inputs": [
        {
          "internalType": "address",
          "name": "_keeper",
          "type": "address"
        },
        {
          "internalType": "contract IVault",
          "name": "_gmxVault",
          "type": "address"
        },
        {
          "internalType": "contract IGlpManager",
          "name": "_glpManager",
          "type": "address"
        },
        {
          "internalType": "contract IDnGmxJuniorVault",
          "name": "_juniorVault",
          "type": "address"
        },
        {
          "internalType": "contract IERC20Metadata",
          "name": "_glp",
          "type": "address"
        },
        {
          "internalType": "contract IERC20Metadata",
          "name": "_weth",
          "type": "address"
        },
        {
          "internalType": "contract IERC20Metadata",
          "name": "_wbtc",
          "type": "address"
        }
      ],
      "name": "initialize",
      "outputs": [],
      "stateMutability": "nonpayable",
      "type": "function"
    },
    {
      "inputs": [],
      "name": "juniorVault",
      "outputs": [
        {
          "internalType": "contract IDnGmxJuniorVault",
          "name": "",
          "type": "address"
        }
      ],
      "stateMutability": "view",
      "type": "function"
    },
    {
      "inputs": [],
      "name": "keeper",
      "outputs": [
        {
          "internalType": "address",
          "name": "",
          "type": "address"
        }
      ],
      "stateMutability": "view",
      "type": "function"
    },
    {
      "inputs": [
        {
          "internalType": "int128",
          "name": "_btcTraderOIHedge",
          "type": "int128"
        },
        {
          "internalType": "int128",
          "name": "_ethTraderOIHedge",
          "type": "int128"
        }
      ],
      "name": "overrideTraderOIHedges",
      "outputs": [],
      "stateMutability": "nonpayable",
      "type": "function"
    },
    {
      "inputs": [],
      "name": "owner",
      "outputs": [
        {
          "internalType": "address",
          "name": "",
          "type": "address"
        }
      ],
      "stateMutability": "view",
      "type": "function"
    },
    {
      "inputs": [],
      "name": "renounceOwnership",
      "outputs": [],
      "stateMutability": "nonpayable",
      "type": "function"
    },
    {
      "inputs": [
        {
          "internalType": "address",
          "name": "_keeper",
          "type": "address"
        }
      ],
      "name": "setKeeper",
      "outputs": [],
      "stateMutability": "nonpayable",
      "type": "function"
    },
    {
      "inputs": [
        {
          "internalType": "uint16",
          "name": "_traderOIHedgeBps",
          "type": "uint16"
        }
      ],
      "name": "setTraderOIHedgeBps",
      "outputs": [],
      "stateMutability": "nonpayable",
      "type": "function"
    },
    {
      "inputs": [],
      "name": "setTraderOIHedges",
      "outputs": [],
      "stateMutability": "nonpayable",
      "type": "function"
    },
    {
      "inputs": [],
      "name": "traderOIHedgeBps",
      "outputs": [
        {
          "internalType": "uint16",
          "name": "",
          "type": "uint16"
        }
      ],
      "stateMutability": "view",
      "type": "function"
    },
    {
      "inputs": [
        {
          "internalType": "address",
          "name": "newOwner",
          "type": "address"
        }
      ],
      "name": "transferOwnership",
      "outputs": [],
      "stateMutability": "nonpayable",
      "type": "function"
    },
    {
      "inputs": [],
      "name": "wbtc",
      "outputs": [
        {
          "internalType": "contract IERC20Metadata",
          "name": "",
          "type": "address"
        }
      ],
      "stateMutability": "view",
      "type": "function"
    },
    {
      "inputs": [],
      "name": "weth",
      "outputs": [
        {
          "internalType": "contract IERC20Metadata",
          "name": "",
          "type": "address"
        }
      ],
      "stateMutability": "view",
      "type": "function"
    }
  ],
  "transactionHash": "0xfd7170aa4ee56a57540671d9ca21fac4f38583a2933f1bab08c85730e6e0dfa7",
  "args": [],
  "numDeployments": 1,
  "solcInputHash": "e2e56690b36de9cbdcef3eea4dae54e6",
  "bytecode": "0x608080604052346100165761103d908161001c8239f35b600080fdfe6080604052600436101561001257600080fd5b60003560e01c80633086cad31461013757806335876476146101325780633cdc53891461012d5780633fc8cef3146101285780634d539aa314610123578063715018a61461011e578063748747e61461011957806378a207ee14610114578063876886a81461010f5780638da5cb5b1461010a57806392c147f514610105578063a2245b4e14610100578063aced1661146100fb578063b3b3453e146100f6578063b926f74d146100f1578063bc43e17a146100ec578063f2fde38b146100e75763fa6db1bc146100e257600080fd5b610799565b610708565b6106e6565b6106bf565b610698565b61066e565b6105b5565b610594565b61056d565b610549565b610522565b61049b565b61043a565b6103b7565b610390565b610369565b61022d565b610161565b6004359081600f0b820361014c57565b600080fd5b6024359081600f0b820361014c57565b3461014c57604036600319011261014c5761017a61013c565b610182610151565b9061018b6107c0565b6101958282610e1c565b156101f957608082901b6001600160801b0319166001600160801b03821617606c557f823cafb11492bb86f26451ffaf919eb0e1002d2984d3d994174a3c1011b4b2af91905b60408051600f92830b81529290910b6020830152819081015b0390a1005b604491604051916337188aa760e01b8352600f0b6004830152600f0b6024820152fd5b6001600160a01b0381160361014c57565b3461014c5760e036600319011261014c5760043561024a8161021c565b6102d96024356102598161021c565b6044356102658161021c565b6064356102718161021c565b6084359061027e8261021c565b60a4359261028b8461021c565b60c435946102988661021c565b600054976102bd60ff8a60081c1615809a819b61035b575b811561033b575b50610862565b886102d0600160ff196000541617600055565b610322576108c5565b6102df57005b6102ef61ff001960005416600055565b604051600181527f7f26b83ff96e1f2b6a682f133852f6798a09c465da95921460cefb38474024989080602081016101f4565b61033661010061ff00196000541617600055565b6108c5565b303b1591508161034d575b50386102b7565b6001915060ff161438610346565b600160ff82161091506102b0565b3461014c57600036600319011261014c5760206001600160a01b03606b5416604051908152f35b3461014c57600036600319011261014c5760206001600160a01b03606a5416604051908152f35b3461014c57602036600319011261014c5760043561ffff811680910361014c576103df6107c0565b6127108111610422576020817fed08dd64ad7e43f05e109d5f63da2e35ef1703b12a2a8c564a747d7a5faefb4d9261ffff196065541617606555604051908152a1005b6024906040519063397aba5f60e11b82526004820152fd5b3461014c57600080600319360112610498576104546107c0565b806001600160a01b036033546001600160601b0360a01b8116603355167f8be0079c531659141344cd1fd0a4f28419497f9722a3daafe3b4186f6b6457e08280a380f35b80fd5b3461014c57602036600319011261014c576105206004356104bb8161021c565b6104c36107c0565b6065546001600160a01b038281169160101c167f53d3703fe259def57584466f32d1b94c30278008c683c21b04501c4966f13a69600080a362010000600160b01b036065549160101b169062010000600160b01b03191617606555565b005b3461014c57600036600319011261014c5760206001600160a01b0360695416604051908152f35b3461014c57600036600319011261014c576020606c5460801d60405190600f0b8152f35b3461014c57600036600319011261014c5760206001600160a01b0360335416604051908152f35b3461014c57600036600319011261014c576020606c54600f0b604051908152f35b3461014c57600036600319011261014c576065546001600160a01b03808260101c16803303610650575061062d61061e7f823cafb11492bb86f26451ffaf919eb0e1002d2984d3d994174a3c1011b4b2af9361062361061e61ffff86606b541693168093610ac8565b6109f6565b93606a5416610ac8565b608081901b6001600160801b0319166001600160801b03831617606c55906101db565b604490604051906329b7946d60e01b82523360048301526024820152fd5b3461014c57600036600319011261014c5760206001600160a01b0360655460101c16604051908152f35b3461014c57600036600319011261014c5760206001600160a01b0360665416604051908152f35b3461014c57600036600319011261014c5760206001600160a01b0360685416604051908152f35b3461014c57600036600319011261014c57602061ffff60655416604051908152f35b3461014c57602036600319011261014c576004356107258161021c565b61072d6107c0565b6001600160a01b038116156107455761052090610818565b60405162461bcd60e51b815260206004820152602660248201527f4f776e61626c653a206e6577206f776e657220697320746865207a65726f206160448201526564647265737360d01b6064820152608490fd5b3461014c57600036600319011261014c5760206001600160a01b0360675416604051908152f35b6001600160a01b036033541633036107d457565b606460405162461bcd60e51b815260206004820152602060248201527f4f776e61626c653a2063616c6c6572206973206e6f7420746865206f776e65726044820152fd5b603354906001600160a01b0380911691826001600160601b0360a01b821617603355167f8be0079c531659141344cd1fd0a4f28419497f9722a3daafe3b4186f6b6457e0600080a3565b1561086957565b60405162461bcd60e51b815260206004820152602e60248201527f496e697469616c697a61626c653a20636f6e747261637420697320616c72656160448201526d191e481a5b9a5d1a585b1a5e995960921b6064820152608490fd5b9361092a61099497969392956108eb60ff60005460081c166108e681610996565b610996565b6108f433610818565b61090560ff60005460081c16610996565b62010000600160b01b036065549160101b169062010000600160b01b03191617606555565b6001600160a01b038094818094816001600160601b0360a01b99168960665416176066551687606754161760675516856068541617606855168360695416176069551690606a541617606a556001600160a01b03166001600160601b0360a01b606b541617606b55565b565b1561099d57565b60405162461bcd60e51b815260206004820152602b60248201527f496e697469616c697a61626c653a20636f6e7472616374206973206e6f74206960448201526a6e697469616c697a696e6760a81b6064820152608490fd5b9081600f0b91820361014c57565b90601f8019910116810190811067ffffffffffffffff821117610a2657604052565b634e487b7160e01b600052604160045260246000fd5b9081602091031261014c575160ff8116810361014c5790565b6040513d6000823e3d90fd5b634e487b7160e01b600052601160045260246000fd5b60ff16604d8111610a8857600a0a90565b610a61565b9081602091031261014c575190565b81810392916000138015828513169184121617610a8857565b81810292918115918404141715610a8857565b9060405163313ce56760e01b815260209081816004816001600160a01b0388165afa8015610c5d57610b0291600091610c9e575b50610a77565b610b23610b176066546001600160a01b031690565b6001600160a01b031690565b60405163114f1b5560e31b81526001600160a01b03861660048201529094908381602481895afa908115610c5d57600091610c81575b50610b6f610b176067546001600160a01b031690565b604051632206c14560e11b81526001600160a01b0384166004820152908590829060249082905afa928315610c5d57610bd8978692600095610c62575b5060405180809a819463c3c7b9e960e01b8352600483019190916001600160a01b036020820193169052565b03915afa908115610c5d57610c1a610c0f61ffff94610c14610c0f88610c2097610c2d9d610c279c600092610c30575b5050610ccb565b610cf2565b93610ccb565b90610a9c565b9316610ab5565b90610db1565b90565b610c4f9250803d10610c56575b610c478183610a04565b810190610a8d565b3880610c08565b503d610c3d565b610a55565b610c7a919550833d8511610c5657610c478183610a04565b9338610bac565b610c989150843d8611610c5657610c478183610a04565b38610b59565b610cbe9150833d8511610cc4575b610cb68183610a04565b810190610a3c565b38610afc565b503d610cac565b6c0c9f2c9cd04674edea40000000908181029181830414901517821515161561014c570490565b600160ff1b811015610d015790565b60405162461bcd60e51b81526020600482015260086024820152674f766572666c6f7760c01b6044820152606490fd5b818102929160008212600160ff1b821416610a88578184051490151715610a8857565b9190610d68610d6284610e09565b93610def565b81810291818304149015176001161561014c57610d966c0c9f2c9cd04674edea400000006000920484610d31565b9212610d9e57565b90600160ff1b8114610a88576000190190565b9190610dbf610d6284610e09565b81810291818304149015176001161561014c57610d966e01ed09bead87c0378d8e64000000006000920484610d31565b6000811215610c2d57600160ff1b8114610a885760000390565b60001315610e175760001990565b600190565b610e4a6001600160a01b03610e41610e3782606b5416610ebb565b91606a5416610ebb565b92600f0b610e76565b9182610e62575b505015610e5d57600190565b600090565b610e6f9250600f0b610e76565b3880610e51565b6000610e93610e8483610e09565b610e8d85610e09565b90610d31565b12610eb457610ea4610eaa91610def565b91610def565b10610e5d57600190565b5050600090565b60405163313ce56760e01b815260209081816004816001600160a01b0387165afa8015610c5d57610ef391600091610c9e5750610a77565b90610f09610b176066546001600160a01b031690565b60405163114f1b5560e31b81526001600160a01b038516600482015290938282602481885afa918215610c5d57600092611011575b50610f54610b176067546001600160a01b031690565b604051632206c14560e11b81526001600160a01b038316600482015295908490879060249082905afa958615610c5d57600096610fea575b5060405163c3c7b9e960e01b81526001600160a01b039092166004830152839082908180602481015b03915afa928315610c5d57610c2d95610c14610c0f87610fe597610c1a96610c0f96600092610c30575050610ccb565b610d54565b8491965091611008610fb593833d8511610c5657610c478183610a04565b96915091610f8c565b611029919250833d8511610c5657610c478183610a04565b9038610f3e56fea164736f6c6343000812000a",
  "devdoc": {
    "events": {
      "Initialized(uint8)": {
        "details": "Triggered when the contract has been initialized or reinitialized."
      }
    },
    "kind": "dev",
    "methods": {
      "initialize(address,address,address,address,address,address,address)": {
        "params": {
          "_glp": "glp address",
          "_glpManager": "glpManager address",
          "_gmxVault": "gmxVault address",
          "_juniorVault": "juniorVault address",
          "_keeper": "keeper address",
          "_wbtc": "wbtc address",
          "_weth": "weth address"
        }
      },
      "overrideTraderOIHedges(int128,int128)": {
        "params": {
          "_btcTraderOIHedge": "btc trader OI hedge for whole glp supply",
          "_ethTraderOIHedge": "eth trader OI hedge for whole glp supply"
        }
      },
      "owner()": {
        "details": "Returns the address of the current owner."
      },
      "renounceOwnership()": {
        "details": "Leaves the contract without owner. It will not be possible to call `onlyOwner` functions anymore. Can only be called by the current owner. NOTE: Renouncing ownership will leave the contract without an owner, thereby removing any functionality that is only available to the owner."
      },
      "setKeeper(address)": {
        "params": {
          "_keeper": "keeper address"
        }
      },
      "setTraderOIHedgeBps(uint16)": {
        "params": {
          "_traderOIHedgeBps": "trader OI hedge bps"
        }
      },
      "transferOwnership(address)": {
        "details": "Transfers ownership of the contract to a new account (`newOwner`). Can only be called by the current owner."
      }
    },
    "version": 1
  },
  "userdoc": {
    "kind": "user",
    "methods": {
      "initialize(address,address,address,address,address,address,address)": {
        "notice": "initialize hedge strategy contract"
      },
      "overrideTraderOIHedges(int128,int128)": {
        "notice": "set hedge adjustments basis trader OIs for whole of glp supply (this is scaled to required by vault in juniorVaultManager)"
      },
      "setKeeper(address)": {
        "notice": "set keeper address"
      },
      "setTraderOIHedgeBps(uint16)": {
        "notice": "set trader OI hedge bps"
      },
      "setTraderOIHedges()": {
        "notice": "set hedge adjustments basis trader OIs"
      }
    },
    "version": 1
  },
  "storageLayout": {
    "storage": [
      {
        "astId": 3990,
        "contract": "contracts/vaults/DnGmxTraderHedgeStrategy.sol:DnGmxTraderHedgeStrategy",
        "label": "_initialized",
        "offset": 0,
        "slot": "0",
        "type": "t_uint8"
      },
      {
        "astId": 3993,
        "contract": "contracts/vaults/DnGmxTraderHedgeStrategy.sol:DnGmxTraderHedgeStrategy",
        "label": "_initializing",
        "offset": 1,
        "slot": "0",
        "type": "t_bool"
      },
      {
        "astId": 5259,
        "contract": "contracts/vaults/DnGmxTraderHedgeStrategy.sol:DnGmxTraderHedgeStrategy",
        "label": "__gap",
        "offset": 0,
        "slot": "1",
        "type": "t_array(t_uint256)50_storage"
      },
      {
        "astId": 3862,
        "contract": "contracts/vaults/DnGmxTraderHedgeStrategy.sol:DnGmxTraderHedgeStrategy",
        "label": "_owner",
        "offset": 0,
        "slot": "51",
        "type": "t_address"
      },
      {
        "astId": 3982,
        "contract": "contracts/vaults/DnGmxTraderHedgeStrategy.sol:DnGmxTraderHedgeStrategy",
        "label": "__gap",
        "offset": 0,
        "slot": "52",
        "type": "t_array(t_uint256)49_storage"
      },
      {
        "astId": 33129,
        "contract": "contracts/vaults/DnGmxTraderHedgeStrategy.sol:DnGmxTraderHedgeStrategy",
        "label": "traderOIHedgeBps",
        "offset": 0,
        "slot": "101",
        "type": "t_uint16"
      },
      {
        "astId": 33131,
        "contract": "contracts/vaults/DnGmxTraderHedgeStrategy.sol:DnGmxTraderHedgeStrategy",
        "label": "keeper",
        "offset": 2,
        "slot": "101",
        "type": "t_address"
      },
      {
        "astId": 33134,
        "contract": "contracts/vaults/DnGmxTraderHedgeStrategy.sol:DnGmxTraderHedgeStrategy",
        "label": "gmxVault",
        "offset": 0,
        "slot": "102",
        "type": "t_contract(IVault)18029"
      },
      {
        "astId": 33137,
        "contract": "contracts/vaults/DnGmxTraderHedgeStrategy.sol:DnGmxTraderHedgeStrategy",
        "label": "glpManager",
        "offset": 0,
        "slot": "103",
        "type": "t_contract(IGlpManager)17156"
      },
      {
        "astId": 33140,
        "contract": "contracts/vaults/DnGmxTraderHedgeStrategy.sol:DnGmxTraderHedgeStrategy",
        "label": "juniorVault",
        "offset": 0,
        "slot": "104",
        "type": "t_contract(IDnGmxJuniorVault)16504"
      },
      {
        "astId": 33143,
        "contract": "contracts/vaults/DnGmxTraderHedgeStrategy.sol:DnGmxTraderHedgeStrategy",
        "label": "glp",
        "offset": 0,
        "slot": "105",
        "type": "t_contract(IERC20Metadata)7532"
      },
      {
        "astId": 33146,
        "contract": "contracts/vaults/DnGmxTraderHedgeStrategy.sol:DnGmxTraderHedgeStrategy",
        "label": "weth",
        "offset": 0,
        "slot": "106",
        "type": "t_contract(IERC20Metadata)7532"
      },
      {
        "astId": 33149,
        "contract": "contracts/vaults/DnGmxTraderHedgeStrategy.sol:DnGmxTraderHedgeStrategy",
        "label": "wbtc",
        "offset": 0,
        "slot": "107",
        "type": "t_contract(IERC20Metadata)7532"
      },
      {
        "astId": 33151,
        "contract": "contracts/vaults/DnGmxTraderHedgeStrategy.sol:DnGmxTraderHedgeStrategy",
        "label": "btcTraderOIHedge",
        "offset": 0,
        "slot": "108",
        "type": "t_int128"
      },
      {
        "astId": 33153,
        "contract": "contracts/vaults/DnGmxTraderHedgeStrategy.sol:DnGmxTraderHedgeStrategy",
        "label": "ethTraderOIHedge",
        "offset": 16,
        "slot": "108",
        "type": "t_int128"
      },
      {
        "astId": 33157,
        "contract": "contracts/vaults/DnGmxTraderHedgeStrategy.sol:DnGmxTraderHedgeStrategy",
        "label": "__gaps",
        "offset": 0,
        "slot": "109",
        "type": "t_array(t_uint256)50_storage"
      }
    ],
    "types": {
      "t_address": {
        "encoding": "inplace",
        "label": "address",
        "numberOfBytes": "20"
      },
      "t_array(t_uint256)49_storage": {
        "base": "t_uint256",
        "encoding": "inplace",
        "label": "uint256[49]",
        "numberOfBytes": "1568"
      },
      "t_array(t_uint256)50_storage": {
        "base": "t_uint256",
        "encoding": "inplace",
        "label": "uint256[50]",
        "numberOfBytes": "1600"
      },
      "t_bool": {
        "encoding": "inplace",
        "label": "bool",
        "numberOfBytes": "1"
      },
      "t_contract(IDnGmxJuniorVault)16504": {
        "encoding": "inplace",
        "label": "contract IDnGmxJuniorVault",
        "numberOfBytes": "20"
      },
      "t_contract(IERC20Metadata)7532": {
        "encoding": "inplace",
        "label": "contract IERC20Metadata",
        "numberOfBytes": "20"
      },
      "t_contract(IGlpManager)17156": {
        "encoding": "inplace",
        "label": "contract IGlpManager",
        "numberOfBytes": "20"
      },
      "t_contract(IVault)18029": {
        "encoding": "inplace",
        "label": "contract IVault",
        "numberOfBytes": "20"
      },
      "t_int128": {
        "encoding": "inplace",
        "label": "int128",
        "numberOfBytes": "16"
      },
      "t_uint16": {
        "encoding": "inplace",
        "label": "uint16",
        "numberOfBytes": "2"
      },
      "t_uint256": {
        "encoding": "inplace",
        "label": "uint256",
        "numberOfBytes": "32"
      },
      "t_uint8": {
        "encoding": "inplace",
        "label": "uint8",
        "numberOfBytes": "1"
      }
    }
  }
}