{
  "address": "0x676F14450adb26296d8E4F0c2F3896fE40D6D2B5",
  "abi": [
    {
      "inputs": [],
      "name": "CallerNotBorrower",
      "type": "error"
    },
    {
      "inputs": [],
      "name": "DepositCapExceeded",
      "type": "error"
    },
    {
      "inputs": [],
      "name": "InvalidBorrowAmount",
      "type": "error"
    },
    {
      "inputs": [],
      "name": "InvalidBorrowerAddress",
      "type": "error"
    },
    {
      "inputs": [],
      "name": "InvalidCapUpdate",
      "type": "error"
    },
    {
      "inputs": [],
      "name": "InvalidMaxUtilizationBps",
      "type": "error"
    },
    {
      "inputs": [],
      "name": "MaxUtilizationBreached",
      "type": "error"
    },
    {
      "anonymous": false,
      "inputs": [],
      "name": "AllowancesGranted",
      "type": "event"
    },
    {
      "anonymous": false,
      "inputs": [
        {
          "indexed": true,
          "internalType": "address",
          "name": "owner",
          "type": "address"
        },
        {
          "indexed": true,
          "internalType": "address",
          "name": "spender",
          "type": "address"
        },
        {
          "indexed": false,
          "internalType": "uint256",
          "name": "value",
          "type": "uint256"
        }
      ],
      "name": "Approval",
      "type": "event"
    },
    {
      "anonymous": false,
      "inputs": [
        {
          "indexed": false,
          "internalType": "address",
          "name": "vault",
          "type": "address"
        },
        {
          "indexed": false,
          "internalType": "uint256",
          "name": "newCap",
          "type": "uint256"
        }
      ],
      "name": "BorrowCapUpdated",
      "type": "event"
    },
    {
      "anonymous": false,
      "inputs": [
        {
          "indexed": true,
          "internalType": "address",
          "name": "caller",
          "type": "address"
        },
        {
          "indexed": true,
          "internalType": "address",
          "name": "owner",
          "type": "address"
        },
        {
          "indexed": false,
          "internalType": "uint256",
          "name": "assets",
          "type": "uint256"
        },
        {
          "indexed": false,
          "internalType": "uint256",
          "name": "shares",
          "type": "uint256"
        }
      ],
      "name": "Deposit",
      "type": "event"
    },
    {
      "anonymous": false,
      "inputs": [
        {
          "indexed": false,
          "internalType": "uint256",
          "name": "_newDepositCap",
          "type": "uint256"
        }
      ],
      "name": "DepositCapUpdated",
      "type": "event"
    },
    {
      "anonymous": false,
      "inputs": [
        {
          "indexed": false,
          "internalType": "contract IBorrower",
          "name": "dnGmxJuniorVault",
          "type": "address"
        }
      ],
      "name": "DnGmxJuniorVaultUpdated",
      "type": "event"
    },
    {
      "anonymous": false,
      "inputs": [
        {
          "indexed": false,
          "internalType": "uint128",
          "name": "optimalUtilizationRate",
          "type": "uint128"
        },
        {
          "indexed": false,
          "internalType": "uint128",
          "name": "baseVariableBorrowRate",
          "type": "uint128"
        },
        {
          "indexed": false,
          "internalType": "uint128",
          "name": "variableRateSlope1",
          "type": "uint128"
        },
        {
          "indexed": false,
          "internalType": "uint128",
          "name": "variableRateSlope2",
          "type": "uint128"
        }
      ],
      "name": "FeeStrategyUpdated",
      "type": "event"
    },
    {
      "anonymous": false,
      "inputs": [
        {
          "indexed": false,
          "internalType": "uint8",
          "name": "version",
          "type": "uint8"
        }
      ],
      "name": "Initialized",
      "type": "event"
    },
    {
      "anonymous": false,
      "inputs": [
        {
          "indexed": false,
          "internalType": "contract IBorrower",
          "name": "leveragePool",
          "type": "address"
        }
      ],
      "name": "LeveragePoolUpdated",
      "type": "event"
    },
    {
      "anonymous": false,
      "inputs": [
        {
          "indexed": false,
          "internalType": "uint256",
          "name": "maxUtilizationBps",
          "type": "uint256"
        }
      ],
      "name": "MaxUtilizationBpsUpdated",
      "type": "event"
    },
    {
      "anonymous": false,
      "inputs": [
        {
          "indexed": true,
          "internalType": "address",
          "name": "previousOwner",
          "type": "address"
        },
        {
          "indexed": true,
          "internalType": "address",
          "name": "newOwner",
          "type": "address"
        }
      ],
      "name": "OwnershipTransferred",
      "type": "event"
    },
    {
      "anonymous": false,
      "inputs": [
        {
          "indexed": false,
          "internalType": "address",
          "name": "account",
          "type": "address"
        }
      ],
      "name": "Paused",
      "type": "event"
    },
    {
      "anonymous": false,
      "inputs": [
        {
          "indexed": true,
          "internalType": "address",
          "name": "from",
          "type": "address"
        },
        {
          "indexed": true,
          "internalType": "address",
          "name": "to",
          "type": "address"
        },
        {
          "indexed": false,
          "internalType": "uint256",
          "name": "value",
          "type": "uint256"
        }
      ],
      "name": "Transfer",
      "type": "event"
    },
    {
      "anonymous": false,
      "inputs": [
        {
          "indexed": false,
          "internalType": "address",
          "name": "account",
          "type": "address"
        }
      ],
      "name": "Unpaused",
      "type": "event"
    },
    {
      "anonymous": false,
      "inputs": [
        {
          "indexed": true,
          "internalType": "uint256",
          "name": "eventType",
          "type": "uint256"
        },
        {
          "indexed": false,
          "internalType": "uint256",
          "name": "juniorVaultAusdc",
          "type": "uint256"
        },
        {
          "indexed": false,
          "internalType": "uint256",
          "name": "seniorVaultAusdc",
          "type": "uint256"
        }
      ],
      "name": "VaultState",
      "type": "event"
    },
    {
      "anonymous": false,
      "inputs": [
        {
          "indexed": true,
          "internalType": "address",
          "name": "caller",
          "type": "address"
        },
        {
          "indexed": true,
          "internalType": "address",
          "name": "receiver",
          "type": "address"
        },
        {
          "indexed": true,
          "internalType": "address",
          "name": "owner",
          "type": "address"
        },
        {
          "indexed": false,
          "internalType": "uint256",
          "name": "assets",
          "type": "uint256"
        },
        {
          "indexed": false,
          "internalType": "uint256",
          "name": "shares",
          "type": "uint256"
        }
      ],
      "name": "Withdraw",
      "type": "event"
    },
    {
      "inputs": [
        {
          "internalType": "address",
          "name": "owner",
          "type": "address"
        },
        {
          "internalType": "address",
          "name": "spender",
          "type": "address"
        }
      ],
      "name": "allowance",
      "outputs": [
        {
          "internalType": "uint256",
          "name": "",
          "type": "uint256"
        }
      ],
      "stateMutability": "view",
      "type": "function"
    },
    {
      "inputs": [
        {
          "internalType": "address",
          "name": "spender",
          "type": "address"
        },
        {
          "internalType": "uint256",
          "name": "amount",
          "type": "uint256"
        }
      ],
      "name": "approve",
      "outputs": [
        {
          "internalType": "bool",
          "name": "",
          "type": "bool"
        }
      ],
      "stateMutability": "nonpayable",
      "type": "function"
    },
    {
      "inputs": [],
      "name": "asset",
      "outputs": [
        {
          "internalType": "address",
          "name": "",
          "type": "address"
        }
      ],
      "stateMutability": "view",
      "type": "function"
    },
    {
      "inputs": [
        {
          "internalType": "address",
          "name": "borrower",
          "type": "address"
        }
      ],
      "name": "availableBorrow",
      "outputs": [
        {
          "internalType": "uint256",
          "name": "availableAUsdc",
          "type": "uint256"
        }
      ],
      "stateMutability": "view",
      "type": "function"
    },
    {
      "inputs": [
        {
          "internalType": "address",
          "name": "account",
          "type": "address"
        }
      ],
      "name": "balanceOf",
      "outputs": [
        {
          "internalType": "uint256",
          "name": "",
          "type": "uint256"
        }
      ],
      "stateMutability": "view",
      "type": "function"
    },
    {
      "inputs": [
        {
          "internalType": "uint256",
          "name": "amount",
          "type": "uint256"
        }
      ],
      "name": "borrow",
      "outputs": [],
      "stateMutability": "nonpayable",
      "type": "function"
    },
    {
      "inputs": [
        {
          "internalType": "address",
          "name": "borrower",
          "type": "address"
        }
      ],
      "name": "borrowCaps",
      "outputs": [
        {
          "internalType": "uint256",
          "name": "cap",
          "type": "uint256"
        }
      ],
      "stateMutability": "view",
      "type": "function"
    },
    {
      "inputs": [
        {
          "internalType": "uint256",
          "name": "shares",
          "type": "uint256"
        }
      ],
      "name": "convertToAssets",
      "outputs": [
        {
          "internalType": "uint256",
          "name": "",
          "type": "uint256"
        }
      ],
      "stateMutability": "view",
      "type": "function"
    },
    {
      "inputs": [
        {
          "internalType": "uint256",
          "name": "assets",
          "type": "uint256"
        }
      ],
      "name": "convertToShares",
      "outputs": [
        {
          "internalType": "uint256",
          "name": "",
          "type": "uint256"
        }
      ],
      "stateMutability": "view",
      "type": "function"
    },
    {
      "inputs": [],
      "name": "decimals",
      "outputs": [
        {
          "internalType": "uint8",
          "name": "",
          "type": "uint8"
        }
      ],
      "stateMutability": "pure",
      "type": "function"
    },
    {
      "inputs": [
        {
          "internalType": "address",
          "name": "spender",
          "type": "address"
        },
        {
          "internalType": "uint256",
          "name": "subtractedValue",
          "type": "uint256"
        }
      ],
      "name": "decreaseAllowance",
      "outputs": [
        {
          "internalType": "bool",
          "name": "",
          "type": "bool"
        }
      ],
      "stateMutability": "nonpayable",
      "type": "function"
    },
    {
      "inputs": [
        {
          "internalType": "uint256",
          "name": "amount",
          "type": "uint256"
        },
        {
          "internalType": "address",
          "name": "to",
          "type": "address"
        }
      ],
      "name": "deposit",
      "outputs": [
        {
          "internalType": "uint256",
          "name": "shares",
          "type": "uint256"
        }
      ],
      "stateMutability": "nonpayable",
      "type": "function"
    },
    {
      "inputs": [],
      "name": "depositCap",
      "outputs": [
        {
          "internalType": "uint256",
          "name": "",
          "type": "uint256"
        }
      ],
      "stateMutability": "view",
      "type": "function"
    },
    {
      "inputs": [],
      "name": "dnGmxJuniorVault",
      "outputs": [
        {
          "internalType": "contract IBorrower",
          "name": "",
          "type": "address"
        }
      ],
      "stateMutability": "view",
      "type": "function"
    },
    {
      "inputs": [],
      "name": "feeStrategy",
      "outputs": [
        {
          "internalType": "uint128",
          "name": "optimalUtilizationRate",
          "type": "uint128"
        },
        {
          "internalType": "uint128",
          "name": "baseVariableBorrowRate",
          "type": "uint128"
        },
        {
          "internalType": "uint128",
          "name": "variableRateSlope1",
          "type": "uint128"
        },
        {
          "internalType": "uint128",
          "name": "variableRateSlope2",
          "type": "uint128"
        }
      ],
      "stateMutability": "view",
      "type": "function"
    },
    {
      "inputs": [],
      "name": "getEthRewardsSplitRate",
      "outputs": [
        {
          "internalType": "uint256",
          "name": "feeSplitRate",
          "type": "uint256"
        }
      ],
      "stateMutability": "view",
      "type": "function"
    },
    {
      "inputs": [],
      "name": "getPriceX128",
      "outputs": [
        {
          "internalType": "uint256",
          "name": "",
          "type": "uint256"
        }
      ],
      "stateMutability": "view",
      "type": "function"
    },
    {
      "inputs": [],
      "name": "getVaultMarketValue",
      "outputs": [
        {
          "internalType": "uint256",
          "name": "",
          "type": "uint256"
        }
      ],
      "stateMutability": "view",
      "type": "function"
    },
    {
      "inputs": [],
      "name": "grantAllowances",
      "outputs": [],
      "stateMutability": "nonpayable",
      "type": "function"
    },
    {
      "inputs": [
        {
          "internalType": "address",
          "name": "spender",
          "type": "address"
        },
        {
          "internalType": "uint256",
          "name": "addedValue",
          "type": "uint256"
        }
      ],
      "name": "increaseAllowance",
      "outputs": [
        {
          "internalType": "bool",
          "name": "",
          "type": "bool"
        }
      ],
      "stateMutability": "nonpayable",
      "type": "function"
    },
    {
      "inputs": [
        {
          "internalType": "address",
          "name": "_usdc",
          "type": "address"
        },
        {
          "internalType": "string",
          "name": "_name",
          "type": "string"
        },
        {
          "internalType": "string",
          "name": "_symbol",
          "type": "string"
        },
        {
          "internalType": "address",
          "name": "_poolAddressesProvider",
          "type": "address"
        }
      ],
      "name": "initialize",
      "outputs": [],
      "stateMutability": "nonpayable",
      "type": "function"
    },
    {
      "inputs": [],
      "name": "leveragePool",
      "outputs": [
        {
          "internalType": "contract IBorrower",
          "name": "",
          "type": "address"
        }
      ],
      "stateMutability": "view",
      "type": "function"
    },
    {
      "inputs": [
        {
          "internalType": "address",
          "name": "",
          "type": "address"
        }
      ],
      "name": "maxDeposit",
      "outputs": [
        {
          "internalType": "uint256",
          "name": "",
          "type": "uint256"
        }
      ],
      "stateMutability": "view",
      "type": "function"
    },
    {
      "inputs": [
        {
          "internalType": "address",
          "name": "",
          "type": "address"
        }
      ],
      "name": "maxMint",
      "outputs": [
        {
          "internalType": "uint256",
          "name": "",
          "type": "uint256"
        }
      ],
      "stateMutability": "view",
      "type": "function"
    },
    {
      "inputs": [
        {
          "internalType": "address",
          "name": "owner",
          "type": "address"
        }
      ],
      "name": "maxRedeem",
      "outputs": [
        {
          "internalType": "uint256",
          "name": "",
          "type": "uint256"
        }
      ],
      "stateMutability": "view",
      "type": "function"
    },
    {
      "inputs": [],
      "name": "maxUtilizationBps",
      "outputs": [
        {
          "internalType": "uint256",
          "name": "",
          "type": "uint256"
        }
      ],
      "stateMutability": "view",
      "type": "function"
    },
    {
      "inputs": [
        {
          "internalType": "address",
          "name": "owner",
          "type": "address"
        }
      ],
      "name": "maxWithdraw",
      "outputs": [
        {
          "internalType": "uint256",
          "name": "",
          "type": "uint256"
        }
      ],
      "stateMutability": "view",
      "type": "function"
    },
    {
      "inputs": [
        {
          "internalType": "uint256",
          "name": "shares",
          "type": "uint256"
        },
        {
          "internalType": "address",
          "name": "to",
          "type": "address"
        }
      ],
      "name": "mint",
      "outputs": [
        {
          "internalType": "uint256",
          "name": "amount",
          "type": "uint256"
        }
      ],
      "stateMutability": "nonpayable",
      "type": "function"
    },
    {
      "inputs": [],
      "name": "name",
      "outputs": [
        {
          "internalType": "string",
          "name": "",
          "type": "string"
        }
      ],
      "stateMutability": "view",
      "type": "function"
    },
    {
      "inputs": [],
      "name": "owner",
      "outputs": [
        {
          "internalType": "address",
          "name": "",
          "type": "address"
        }
      ],
      "stateMutability": "view",
      "type": "function"
    },
    {
      "inputs": [],
      "name": "pause",
      "outputs": [],
      "stateMutability": "nonpayable",
      "type": "function"
    },
    {
      "inputs": [],
      "name": "paused",
      "outputs": [
        {
          "internalType": "bool",
          "name": "",
          "type": "bool"
        }
      ],
      "stateMutability": "view",
      "type": "function"
    },
    {
      "inputs": [
        {
          "internalType": "uint256",
          "name": "assets",
          "type": "uint256"
        }
      ],
      "name": "previewDeposit",
      "outputs": [
        {
          "internalType": "uint256",
          "name": "",
          "type": "uint256"
        }
      ],
      "stateMutability": "view",
      "type": "function"
    },
    {
      "inputs": [
        {
          "internalType": "uint256",
          "name": "shares",
          "type": "uint256"
        }
      ],
      "name": "previewMint",
      "outputs": [
        {
          "internalType": "uint256",
          "name": "",
          "type": "uint256"
        }
      ],
      "stateMutability": "view",
      "type": "function"
    },
    {
      "inputs": [
        {
          "internalType": "uint256",
          "name": "shares",
          "type": "uint256"
        }
      ],
      "name": "previewRedeem",
      "outputs": [
        {
          "internalType": "uint256",
          "name": "",
          "type": "uint256"
        }
      ],
      "stateMutability": "view",
      "type": "function"
    },
    {
      "inputs": [
        {
          "internalType": "uint256",
          "name": "assets",
          "type": "uint256"
        }
      ],
      "name": "previewWithdraw",
      "outputs": [
        {
          "internalType": "uint256",
          "name": "",
          "type": "uint256"
        }
      ],
      "stateMutability": "view",
      "type": "function"
    },
    {
      "inputs": [
        {
          "internalType": "uint256",
          "name": "shares",
          "type": "uint256"
        },
        {
          "internalType": "address",
          "name": "receiver",
          "type": "address"
        },
        {
          "internalType": "address",
          "name": "owner",
          "type": "address"
        }
      ],
      "name": "redeem",
      "outputs": [
        {
          "internalType": "uint256",
          "name": "assets",
          "type": "uint256"
        }
      ],
      "stateMutability": "nonpayable",
      "type": "function"
    },
    {
      "inputs": [],
      "name": "renounceOwnership",
      "outputs": [],
      "stateMutability": "nonpayable",
      "type": "function"
    },
    {
      "inputs": [
        {
          "internalType": "uint256",
          "name": "amount",
          "type": "uint256"
        }
      ],
      "name": "repay",
      "outputs": [],
      "stateMutability": "nonpayable",
      "type": "function"
    },
    {
      "inputs": [
        {
          "internalType": "uint256",
          "name": "_newDepositCap",
          "type": "uint256"
        }
      ],
      "name": "setDepositCap",
      "outputs": [],
      "stateMutability": "nonpayable",
      "type": "function"
    },
    {
      "inputs": [
        {
          "internalType": "contract IBorrower",
          "name": "_dnGmxJuniorVault",
          "type": "address"
        }
      ],
      "name": "setDnGmxJuniorVault",
      "outputs": [],
      "stateMutability": "nonpayable",
      "type": "function"
    },
    {
      "inputs": [
        {
          "internalType": "contract IBorrower",
          "name": "_leveragePool",
          "type": "address"
        }
      ],
      "name": "setLeveragePool",
      "outputs": [],
      "stateMutability": "nonpayable",
      "type": "function"
    },
    {
      "inputs": [
        {
          "internalType": "uint256",
          "name": "_maxUtilizationBps",
          "type": "uint256"
        }
      ],
      "name": "setMaxUtilizationBps",
      "outputs": [],
      "stateMutability": "nonpayable",
      "type": "function"
    },
    {
      "inputs": [],
      "name": "symbol",
      "outputs": [
        {
          "internalType": "string",
          "name": "",
          "type": "string"
        }
      ],
      "stateMutability": "view",
      "type": "function"
    },
    {
      "inputs": [],
      "name": "totalAssets",
      "outputs": [
        {
          "internalType": "uint256",
          "name": "amount",
          "type": "uint256"
        }
      ],
      "stateMutability": "view",
      "type": "function"
    },
    {
      "inputs": [],
      "name": "totalSupply",
      "outputs": [
        {
          "internalType": "uint256",
          "name": "",
          "type": "uint256"
        }
      ],
      "stateMutability": "view",
      "type": "function"
    },
    {
      "inputs": [],
      "name": "totalUsdcBorrowed",
      "outputs": [
        {
          "internalType": "uint256",
          "name": "usdcBorrowed",
          "type": "uint256"
        }
      ],
      "stateMutability": "view",
      "type": "function"
    },
    {
      "inputs": [
        {
          "internalType": "address",
          "name": "to",
          "type": "address"
        },
        {
          "internalType": "uint256",
          "name": "amount",
          "type": "uint256"
        }
      ],
      "name": "transfer",
      "outputs": [
        {
          "internalType": "bool",
          "name": "",
          "type": "bool"
        }
      ],
      "stateMutability": "nonpayable",
      "type": "function"
    },
    {
      "inputs": [
        {
          "internalType": "address",
          "name": "from",
          "type": "address"
        },
        {
          "internalType": "address",
          "name": "to",
          "type": "address"
        },
        {
          "internalType": "uint256",
          "name": "amount",
          "type": "uint256"
        }
      ],
      "name": "transferFrom",
      "outputs": [
        {
          "internalType": "bool",
          "name": "",
          "type": "bool"
        }
      ],
      "stateMutability": "nonpayable",
      "type": "function"
    },
    {
      "inputs": [
        {
          "internalType": "address",
          "name": "newOwner",
          "type": "address"
        }
      ],
      "name": "transferOwnership",
      "outputs": [],
      "stateMutability": "nonpayable",
      "type": "function"
    },
    {
      "inputs": [],
      "name": "unpause",
      "outputs": [],
      "stateMutability": "nonpayable",
      "type": "function"
    },
    {
      "inputs": [
        {
          "internalType": "address",
          "name": "borrowerAddress",
          "type": "address"
        },
        {
          "internalType": "uint256",
          "name": "cap",
          "type": "uint256"
        }
      ],
      "name": "updateBorrowCap",
      "outputs": [],
      "stateMutability": "nonpayable",
      "type": "function"
    },
    {
      "inputs": [
        {
          "components": [
            {
              "internalType": "uint128",
              "name": "optimalUtilizationRate",
              "type": "uint128"
            },
            {
              "internalType": "uint128",
              "name": "baseVariableBorrowRate",
              "type": "uint128"
            },
            {
              "internalType": "uint128",
              "name": "variableRateSlope1",
              "type": "uint128"
            },
            {
              "internalType": "uint128",
              "name": "variableRateSlope2",
              "type": "uint128"
            }
          ],
          "internalType": "struct FeeSplitStrategy.Info",
          "name": "_feeStrategy",
          "type": "tuple"
        }
      ],
      "name": "updateFeeStrategyParams",
      "outputs": [],
      "stateMutability": "nonpayable",
      "type": "function"
    },
    {
      "inputs": [
        {
          "internalType": "uint256",
          "name": "assets",
          "type": "uint256"
        },
        {
          "internalType": "address",
          "name": "receiver",
          "type": "address"
        },
        {
          "internalType": "address",
          "name": "owner",
          "type": "address"
        }
      ],
      "name": "withdraw",
      "outputs": [
        {
          "internalType": "uint256",
          "name": "shares",
          "type": "uint256"
        }
      ],
      "stateMutability": "nonpayable",
      "type": "function"
    }
  ],
  "transactionHash": "0xcce6124961f60aacaf2d08af72ffaf71bd365fae609e0f63020d7129fb371a9b",
  "args": [],
  "numDeployments": 1,
  "solcInputHash": "bccae2bf9f6442edbbfffade2941124d",
  "bytecode": "0x6080806040523461001657613adc908161001c8239f35b600080fdfe6080604052600436101561001257600080fd5b60003560e01c806301e1d1141461036d57806306fdde031461036857806307a2d13a14610322578063095ea7b3146103635780630a28a4771461035e57806318160ddd1461035957806323b872dd14610354578063304ea9cb1461034f578063313ce5671461034a578063371fd8e61461034557806338d52e0f14610340578063395093511461033b5780633d672a45146103365780633f4ba83a14610331578063402d267d1461032c5780634a584432146103275780634cdad50614610322578063543bc9841461031d57806356ab92b3146103185780635c975abb14610313578063613d25bb1461030e5780636e553f651461030957806370a0823114610304578063715018a6146102ff578063768e66d3146102fa57806377c718ae146102f55780638224f4e8146102f05780638456cb59146102eb57806386651203146102e65780638d315d7b146102e15780638da5cb5b146102dc578063949b22ae146102d757806394bf804d146102d257806395d89b41146102cd578063964f7be2146102c8578063a457c2d7146102c3578063a9059cbb146102be578063aa88fdc3146102b9578063b3d7f6b9146102b4578063b460af94146102af578063ba087652146102aa578063bf9571f1146102a5578063c5ebeaec146102a0578063c63d75b61461029b578063c6e6f59214610273578063ce96cb7714610296578063d026c12314610291578063d905777e1461028c578063db2d9c3a14610287578063dbd5edc714610282578063dd62ed3e1461027d578063e3696edd14610278578063ef8b30f7146102735763f2fde38b1461026e57600080fd5b611d5a565b611b12565b611cdb565b611c76565b611c58565b611bea565b611bc5565b611b57565b611b30565b611ae4565b6119e9565b61189e565b61177a565b61163d565b6115f3565b6115cc565b6115a2565b6114ef565b6113b3565b61130c565b61115c565b611115565b6110ee565b61106b565b61101f565b610fc5565b610f9e565b610f83565b610dc0565b610d62565b610d24565b610bed565b610ab4565b610a63565b6109fb565b6109d4565b6104d3565b610995565b61096f565b6108db565b610840565b6107dd565b6107b6565b61068f565b610673565b610655565b610573565b610555565b610537565b610502565b6103ee565b610382565b600091031261037d57565b600080fd5b3461037d57600036600319011261037d57602061039d6137c3565b604051908152f35b6020808252825181830181905290939260005b8281106103da57505060409293506000838284010152601f8019910116010190565b8181018601518482016040015285016103b8565b3461037d576000806003193601126104d057604051908060365461041181611e8d565b808552916001918083169081156104a6575060011461044b575b6104478561043b81870382611f12565b604051918291826103a5565b0390f35b9250603683527f4a11f94e20a93c79f6ec743a1954ec4fc2c08429ae2122118bf234b2185c81b85b82841061048e57505050810160200161043b8261044761042b565b80546020858701810191909152909301928101610473565b8695506104479693506020925061043b94915060ff191682840152151560051b820101929361042b565b80fd5b3461037d57602036600319011261037d57602061039d60043561228e565b6001600160a01b0381160361037d57565b3461037d57604036600319011261037d5761052c600435610522816104f1565b602435903361212e565b602060405160018152f35b3461037d57602036600319011261037d57602061039d6004356122ee565b3461037d57600036600319011261037d576020603554604051908152f35b3461037d57606036600319011261037d57600435610590816104f1565b60243561059c816104f1565b604435906001600160a01b03831660005260346020526105d3336040600020906001600160a01b0316600052602052604060002090565b5492600184016105f4575b6105e8935061200a565b60405160018152602090f35b8284106106105761060b836105e89503338361212e565b6105de565b60405162461bcd60e51b815260206004820152601d60248201527f45524332303a20696e73756666696369656e7420616c6c6f77616e63650000006044820152606490fd5b3461037d57600036600319011261037d57602060fd54604051908152f35b3461037d57600036600319011261037d57602060405160068152f35b3461037d57602036600319011261037d576001600160a01b038060ff5416908133141590816107a7575b5061079557803b1561037d576000809160046040518094819363138cc18f60e01b83525af180156107775761077c575b5061070c610700610103546001600160a01b031690565b6001600160a01b031690565b6040516323b872dd60e01b81523360048083019190915230602483015235604482015290602090829081600081606481015b03925af180156107775761074e57005b61076e9060203d8111610770575b6107668183611f12565b810190612595565b005b503d61075c565b612406565b8061078961078f92611edd565b80610372565b386106e9565b604051633c698d7960e01b8152600490fd5b905060fe5416331415386106b9565b3461037d57600036600319011261037d5760206001600160a01b0360655416604051908152f35b3461037d57604036600319011261037d576004356107fa816104f1565b336000526034602052610824816040600020906001600160a01b0316600052602052604060002090565b54602435810180911161083b5761052c913361212e565b611f34565b3461037d57600036600319011261037d576001600160a01b036020816101045416916065541660246040518094819363b3596f0760e01b835260048301525afa908115610777576104479161089d916000916108ad575b506132f0565b6040519081529081906020820190565b6108ce915060203d81116108d4575b6108c68183611f12565b810190612cde565b38610897565b503d6108bc565b3461037d57600036600319011261037d576108f4611deb565b60ca5460ff8116156109335760ff191660ca557f5db9ee0a495bf2e6ff9c91a7834c1ba4fdd244a5e8aa4e537bd38aeae4b073aa6020604051338152a1005b60405162461bcd60e51b815260206004820152601460248201527314185d5cd8589b194e881b9bdd081c185d5cd95960621b6044820152606490fd5b3461037d57602036600319011261037d5761098b6004356104f1565b602061039d61382f565b3461037d57602036600319011261037d576001600160a01b036004356109ba816104f1565b166000526101066020526020604060002054604051908152f35b3461037d57602036600319011261037d57602061039d6004356109f6816104f1565b6136c6565b3461037d57602036600319011261037d57600435610a17611deb565b6127108111610a51576020817f17eb3ea543d479a0358f9f15a48526b973a5b7f30243301da7d83f4720e243c29260fd55604051908152a1005b60405163221d6b1360e01b8152600490fd5b3461037d57600036600319011261037d57602060ff60ca54166040519015158152f35b9181601f8401121561037d5782359167ffffffffffffffff831161037d576020838186019501011161037d57565b3461037d57608036600319011261037d57600435610ad1816104f1565b67ffffffffffffffff60243581811161037d57610af2903690600401610a86565b60443592831161037d57610b0d610b5c933690600401610a86565b9160643593610b1b856104f1565b60005496610b4060ff8960081c16158099819a610bdf575b8115610bbf575b5061230d565b87610b53600160ff196000541617600055565b610ba6576125ad565b610b6257005b610b7261ff001960005416600055565b604051600181527f7f26b83ff96e1f2b6a682f133852f6798a09c465da95921460cefb38474024989080602081015b0390a1005b610bba61010061ff00196000541617600055565b6125ad565b303b15915081610bd1575b5038610b3a565b6001915060ff161438610bca565b600160ff8216109150610b33565b3461037d57604036600319011261037d57602435600435610c0d826104f1565b610c15612c9a565b610c1d6138f1565b6001600160a01b038060ff5416803b1561037d576000809160046040518094819363138cc18f60e01b83525af1801561077757610d15575b50610c5f8261225b565b918215610ce25761044793610cda92610c9383610c8a6107006107006065546001600160a01b031690565b30903390612db1565b610c9d8583612ced565b6040805184815260208101879052929091169133917fdcbc1c05240f31ff3ad067ef1ee35ce4997762752e3a095284754544f4c709d791a3613231565b61089d613a07565b60405162461bcd60e51b815260206004820152600b60248201526a5a45524f5f53484152455360a81b6044820152606490fd5b610d1e90611edd565b38610c55565b3461037d57602036600319011261037d576001600160a01b03600435610d49816104f1565b1660005260336020526020604060002054604051908152f35b3461037d576000806003193601126104d057610d7c611deb565b806001600160a01b036098546001600160601b0360a01b8116609855167f8be0079c531659141344cd1fd0a4f28419497f9722a3daafe3b4186f6b6457e08280a380f35b3461037d5760408060031936011261037d57600435610dde816104f1565b60243590610dea611deb565b610e0261070061070060ff546001600160a01b031690565b6001600160a01b0382169081141580610f62575b610f515783518091632578b69f60e21b825281600460209485935afa8015610777578491600091610f34575b501015610f235782610e68836001600160a01b0316600052610106602052604060002090565b55610e7f610700610103546001600160a01b031690565b845163095ea7b360e01b81526001600160a01b03841660048201526024810185905294908290869060449082906000905af1918215610777577f84d2db42497fc6f1882756be420935d982025ad8a2a903dfb83638a09e49a77595610ba193610f05575b50505192839283602090939291936001600160a01b0360408201951681520152565b81610f1b92903d10610770576107668183611f12565b503880610ee3565b8351633a020d0160e11b8152600490fd5b610f4b9150833d85116108d4576108c68183611f12565b38610e42565b83516348b905b160e01b8152600490fd5b50610f7b61070061070060fe546001600160a01b031690565b811415610e16565b3461037d57600036600319011261037d57602061039d613503565b3461037d57600036600319011261037d5760206001600160a01b0360fe5416604051908152f35b3461037d57600036600319011261037d57610fde611deb565b610fe6612c9a565b600160ff1960ca54161760ca557f62e78cea01bee320cd4e420270b5ea74000d11b0c9f74754ebdbfc544b05a2586020604051338152a1005b3461037d57602036600319011261037d577f333b26cca69716ad4680ddb07663f5bfb4f06045671f336af9a83690a3ae00f9602060043561105e611deb565b8060fc55604051908152a1005b3461037d57600036600319011261037d576001600160a01b036020816101045416916065541660246040518094819363b3596f0760e01b835260048301525afa908115610777576104479161089d916000916110d0575b506110cb6137c3565b613361565b6110e8915060203d81116108d4576108c68183611f12565b386110c2565b3461037d57600036600319011261037d5760206001600160a01b0360985416604051908152f35b3461037d57600036600319011261037d576101005461010154604080516001600160801b038085168252608094851c602083015283169181019190915290821c6060820152f35b3461037d5760006040806003193601126113085760043590602435611180816104f1565b611188612c9a565b6111906138f1565b6001600160a01b0392848460ff5416803b15611308578190600486518094819363138cc18f60e01b83525af18015610777576112f5575b507fdcbc1c05240f31ff3ad067ef1ee35ce4997762752e3a095284754544f4c709d76111f2826122ac565b9461120586826065541630903390612db1565b61120f8385612ced565b8451868152602081019390935292909216913391604090a3611238826112336137c3565b611f4a565b60fc54106112e55782611257610700610102546001600160a01b031690565b6065546001600160a01b031690803b156112e157835163617ba03760e01b81526001600160a01b0392909216600483015260248201859052306044830152600060648301529094859160849183915af192831561077757610447936112ce575b506112c0613a07565b519081529081906020820190565b806107896112db92611edd565b386112b7565b8280fd5b516324d758c360e21b8152600490fd5b61130190959195611edd565b93386111c7565b5080fd5b3461037d576000806003193601126104d057604051908060375461132f81611e8d565b808552916001918083169081156104a65750600114611358576104478561043b81870382611f12565b9250603783527f42a7b7dd785cd69714a189dffb3fd7d7174edc9ece837694ce50f7078f7c31ae5b82841061139b57505050810160200161043b8261044761042b565b80546020858701810191909152909301928101611380565b3461037d57608036600319011261037d576113cc611deb565b7f37f0489f29f6e60f68be54709fc0686e4fbf0ff44b70be0b5be1eebb17c9953f6004356113f981612441565b61010080546001600160801b0319166001600160801b0383161790556024359061142282612441565b61010080546001600160801b0316608084901b6001600160801b031916179055610ba160443561145181612441565b61010180546001600160801b0319166001600160801b0383161790556064359061147a82612441565b61010180546001600160801b0316608084901b6001600160801b0319161790556114a384612441565b6114ac85612441565b6114b581612441565b6114be82612441565b604080516001600160801b039586168152958516602087015290841690850152909116606083015281906080820190565b3461037d57604036600319011261037d5760043561150c816104f1565b6024359033600052603460205261153a816040600020906001600160a01b0316600052602052604060002090565b549180831061154f576105e89203903361212e565b60405162461bcd60e51b815260206004820152602560248201527f45524332303a2064656372656173656420616c6c6f77616e63652062656c6f77604482015264207a65726f60d81b6064820152608490fd5b3461037d57604036600319011261037d5761052c6004356115c2816104f1565b602435903361200a565b3461037d57600036600319011261037d5760206001600160a01b0360ff5416604051908152f35b3461037d57602036600319011261037d57602061039d6004356122ac565b606090600319011261037d576004359060243561162d816104f1565b9060443561163a816104f1565b90565b3461037d5761164b36611611565b906000928391611659612c9a565b6116616138f1565b6001600160a01b038060ff5416803b1561177657849060046040518099819363138cc18f60e01b83525af19384156107775761044796610cda95611767575b50906116cd6116ae856122ee565b878184819a1695863303611729575b50506116c887613165565b612fad565b60408051858152602081018890529184169133917ffbde797d201c681b91056529119e0b02407c7bb96a4a2c75c01fc9667232c8db9190819081015b0390a46117246107006107006065546001600160a01b031690565b6130df565b868152603460209081526040918290203360009081529152205460018101156116bd576117609161175991612fa0565b338361212e565b81386116bd565b61177090611edd565b386116a0565b8480fd5b3461037d5761178836611611565b91906000928391611797612c9a565b61179f6138f1565b6001600160a01b038060ff5416803b1561177657849060046040518099819363138cc18f60e01b83525af19384156107775761044796610cda9561188f575b50908581851692833303611851575b506118116117fa8261228e565b978896611808881515613118565b6116c888613165565b6040805186815260208101929092529184169133917ffbde797d201c681b91056529119e0b02407c7bb96a4a2c75c01fc9667232c8db9181908101611709565b838152603460209081526040918290203360009081529152205460018101156117ed576118889161188191612fa0565b338661212e565b85386117ed565b61189890611edd565b386117de565b3461037d576000806003193601126104d0576118b8611deb565b6118ce610700610102546001600160a01b031690565b6118e66107006107006065546001600160a01b031690565b60405163095ea7b360e01b8082526001600160a01b03841660048301526000196024830152602093919290919084908490604490829089905af1918215610777576119779385936119cc575b50611949610700610103546001600160a01b031690565b90866040518096819582948352600483019190916001600160a01b0360408201931681526020600019910152565b03925af18015610777576119ae575b827fba5bb3f899c7a3edcc9ff9d46c4e08449c6a608b6f8254132bc5af4898645cbc8180a180f35b816119c492903d10610770576107668183611f12565b503880611986565b6119e290843d8611610770576107668183611f12565b5038611932565b3461037d57602036600319011261037d576004356001600160a01b038060ff541690813314159081611ad5575b506107955781158015611ac4575b611ab257803b1561037d576000809160046040518094819363138cc18f60e01b83525af180156107775760009260209261073e92611a9f575b50611a74610700610103546001600160a01b031690565b60405163a9059cbb60e01b815233600482015260248101929092529093849283919082906044820190565b80610789611aac92611edd565b38611a5d565b604051630e25379960e21b8152600490fd5b50611ace336136c6565b8211611a24565b905060fe541633141538611a16565b3461037d57602036600319011261037d57611b006004356104f1565b602061039d611b0d61382f565b61225b565b3461037d57602036600319011261037d57602061039d60043561225b565b3461037d57602036600319011261037d57602061039d600435611b52816104f1565b613857565b3461037d57602036600319011261037d577f52d81611b2e2e74037271caa673fe82efa363a106c27d6373566a950d2be73fc60206001600160a01b03600435611b9f816104f1565b611ba7611deb565b16806001600160601b0360a01b60ff54161760ff55604051908152a1005b3461037d57602036600319011261037d57602061039d611b0d600435611b52816104f1565b3461037d57602036600319011261037d577fbd325305afd7728b65bc6a18a2ad623494a5ee4e3f31aad475ddb77d8e70717b60206001600160a01b03600435611c32816104f1565b611c3a611deb565b16806001600160601b0360a01b60fe54161760fe55604051908152a1005b3461037d57600036600319011261037d57602060fc54604051908152f35b3461037d57604036600319011261037d576020611cd2600435611c98816104f1565b6001600160a01b0360243591611cad836104f1565b16600052603483526040600020906001600160a01b0316600052602052604060002090565b54604051908152f35b3461037d57600036600319011261037d57602460206001600160a01b036101035416604051928380926370a0823160e01b82523060048301525afa908115610777576104479161089d91600091611d3c575b50611d36613503565b9061360b565b611d54915060203d81116108d4576108c68183611f12565b38611d2d565b3461037d57602036600319011261037d57600435611d77816104f1565b611d7f611deb565b6001600160a01b03811615611d975761076e90611e43565b60405162461bcd60e51b815260206004820152602660248201527f4f776e61626c653a206e6577206f776e657220697320746865207a65726f206160448201526564647265737360d01b6064820152608490fd5b6001600160a01b03609854163303611dff57565b606460405162461bcd60e51b815260206004820152602060248201527f4f776e61626c653a2063616c6c6572206973206e6f7420746865206f776e65726044820152fd5b609854906001600160a01b0380911691826001600160601b0360a01b821617609855167f8be0079c531659141344cd1fd0a4f28419497f9722a3daafe3b4186f6b6457e0600080a3565b90600182811c92168015611ebd575b6020831014611ea757565b634e487b7160e01b600052602260045260246000fd5b91607f1691611e9c565b634e487b7160e01b600052604160045260246000fd5b67ffffffffffffffff8111611ef157604052565b611ec7565b6040810190811067ffffffffffffffff821117611ef157604052565b90601f8019910116810190811067ffffffffffffffff821117611ef157604052565b634e487b7160e01b600052601160045260246000fd5b9190820180921161083b57565b15611f5e57565b60405162461bcd60e51b815260206004820152602360248201527f45524332303a207472616e7366657220746f20746865207a65726f206164647260448201526265737360e81b6064820152608490fd5b15611fb657565b60405162461bcd60e51b815260206004820152602660248201527f45524332303a207472616e7366657220616d6f756e7420657863656564732062604482015265616c616e636560d01b6064820152608490fd5b91906001600160a01b03908184169283156120db576120b9827fddf252ad1be2c89b69c2b068fc378daa952ba7f163c4a11628f55a4df523b3ef946120d6941696612056881515611f57565b61209f84612077836001600160a01b03166000526033602052604060002090565b5461208482821015611faf565b03916001600160a01b03166000526033602052604060002090565b556001600160a01b03166000526033602052604060002090565b6120c4828254611f4a565b90556040519081529081906020820190565b0390a3565b60405162461bcd60e51b815260206004820152602560248201527f45524332303a207472616e736665722066726f6d20746865207a65726f206164604482015264647265737360d81b6064820152608490fd5b906001600160a01b039182811692831561220a5782169384156121ba57806121a97f8c5be1e5ebec7d5bd14f71427d1e84f3dd0314c0f7b2291e5b200ac8c7c3b925946121916120d6956001600160a01b03166000526034602052604060002090565b906001600160a01b0316600052602052604060002090565b556040519081529081906020820190565b60405162461bcd60e51b815260206004820152602260248201527f45524332303a20617070726f766520746f20746865207a65726f206164647265604482015261737360f01b6064820152608490fd5b60405162461bcd60e51b8152602060048201526024808201527f45524332303a20617070726f76652066726f6d20746865207a65726f206164646044820152637265737360e01b6064820152608490fd5b60355480612267575090565b9061163a916122746137c3565b915b8181029181830414901517821515161561037d570490565b6035548061229a575090565b61163a916122a66137c3565b90612276565b603554806122b8575090565b61163a916122c46137c3565b905b9190918281029281840414901517811515161561037d57600190600019830104019015150290565b603554806122fa575090565b9061163a916123076137c3565b916122c6565b1561231457565b60405162461bcd60e51b815260206004820152602e60248201527f496e697469616c697a61626c653a20636f6e747261637420697320616c72656160448201526d191e481a5b9a5d1a585b1a5e995960921b6064820152608490fd5b604051906101e0820182811067ffffffffffffffff821117611ef157604052565b67ffffffffffffffff8111611ef157601f01601f191660200190565b9291926123b982612391565b916123c76040519384611f12565b82948184528183011161037d578281602093846000960137010152565b51906123ef826104f1565b565b9081602091031261037d575161163a816104f1565b6040513d6000823e3d90fd5b919082602091031261037d576040516020810181811067ffffffffffffffff821117611ef15760405291518252565b6001600160801b0381160361037d57565b51906123ef82612441565b519064ffffffffff8216820361037d57565b519061ffff8216820361037d57565b6101e08183031261037d5761249b612494612370565b9282612412565b82526124a960208201612452565b60208301526124ba60408201612452565b60408301526124cb60608201612452565b60608301526124dc60808201612452565b60808301526124ed60a08201612452565b60a08301526124fe60c0820161245d565b60c083015261250f60e0820161246f565b60e08301526101006125228183016123e4565b908301526101206125348183016123e4565b908301526101406125468183016123e4565b908301526101606125588183016123e4565b9083015261018061256a818301612452565b908301526101a061257c818301612452565b9083015261258e6101c0809201612452565b9082015290565b9081602091031261037d5751801515810361037d5790565b9391926125d26125da926125e1956125c3612951565b6125cb612974565b36916123ad565b9236916123ad565b9083612995565b610105805473ffffffffffffffffffffffffffffffffffffffff19166001600160a01b03938416908117825561261690610700565b92604051809463026b1d5f60e01b825281600460209788935afa908115610777576126679183916000916128d4575b50166001600160a01b0361010291166001600160601b0360a01b825416179055565b6126b26101029361268261070086546001600160a01b031690565b6040516335ea6a7560e01b81526001600160a01b0390921660048301526101e09283918391829081906024820190565b03915afa9081156107775760049461270e6126ee61070061010061271b96610700968d996000926128a7575b505001516001600160a01b031690565b6001600160a01b0361010391166001600160601b0360a01b825416179055565b546001600160a01b031690565b604051631f94a27560e31b815293849182905afa8015610777576127639260009161287a575b50166001600160a01b0361010491166001600160601b0360a01b825416179055565b612779610700610103546001600160a01b031690565b9061278e61070082546001600160a01b031690565b60405163095ea7b360e01b8082526001600160a01b039290921660048201526000196024820152928490849060449082906000905af19182156107775761283293859361285d575b506128036107006127f56107006107006065546001600160a01b031690565b92546001600160a01b031690565b6040519283526001600160a01b0316600483015260001960248301529092839190829060009082906044820190565b03925af1801561077757612844575050565b8161285a92903d10610770576107668183611f12565b50565b61287390843d8611610770576107668183611f12565b50386127d6565b61289a9150853d87116128a0575b6128928183611f12565b8101906123f1565b38612741565b503d612888565b6128c69250803d106128cd575b6128be8183611f12565b81019061247e565b38806126de565b503d6128b4565b6128eb9150873d89116128a0576128928183611f12565b38612645565b156128f857565b60405162461bcd60e51b815260206004820152602b60248201527f496e697469616c697a61626c653a20636f6e7472616374206973206e6f74206960448201526a6e697469616c697a696e6760a81b6064820152608490fd5b61296b60ff60005460081c16612966816128f1565b6128f1565b6123ef33611e43565b61298960ff60005460081c16612966816128f1565b60ff1960ca541660ca55565b9092916129ad60ff60005460081c16612966816128f1565b835167ffffffffffffffff8111611ef1576129d2816129cd603654611e8d565b612ace565b602080601f8311600114612a3857509080612a0f93926123ef9697600092612a2d575b50508160011b916000199060031b1c191617603655612bb0565b6001600160a01b03166001600160601b0360a01b6065541617606555565b0151905038806129f5565b90601f19831696612a6b60366000527f4a11f94e20a93c79f6ec743a1954ec4fc2c08429ae2122118bf234b2185c81b890565b926000905b898210612ab6575050918391600193612a0f96956123ef999a10612a9d575b505050811b01603655612bb0565b015160001960f88460031b161c19169055388080612a8f565b80600185968294968601518155019501930190612a70565b601f8111612ada575050565b600090603682527f4a11f94e20a93c79f6ec743a1954ec4fc2c08429ae2122118bf234b2185c81b8906020601f850160051c83019410612b35575b601f0160051c01915b828110612b2a57505050565b818155600101612b1e565b9092508290612b15565b601f8111612b4b575050565b600090603782527f42a7b7dd785cd69714a189dffb3fd7d7174edc9ece837694ce50f7078f7c31ae906020601f850160051c83019410612ba6575b601f0160051c01915b828110612b9b57505050565b818155600101612b8f565b9092508290612b86565b90815167ffffffffffffffff8111611ef157612bd681612bd1603754611e8d565b612b3f565b602080601f8311600114612c125750819293600092612c07575b50508160011b916000199060031b1c191617603755565b015190503880612bf0565b90601f19831694612c4560376000527f42a7b7dd785cd69714a189dffb3fd7d7174edc9ece837694ce50f7078f7c31ae90565b926000905b878210612c82575050836001959610612c69575b505050811b01603755565b015160001960f88460031b161c19169055388080612c5e565b80600185968294968601518155019501930190612c4a565b60ff60ca5416612ca657565b60405162461bcd60e51b815260206004820152601060248201526f14185d5cd8589b194e881c185d5cd95960821b6044820152606490fd5b9081602091031261037d575190565b906001600160a01b038216918215612d6c576035549082820180921161083b57612d2d916035556001600160a01b03166000526033602052604060002090565b80549082820180921161083b576000927fddf252ad1be2c89b69c2b068fc378daa952ba7f163c4a11628f55a4df523b3ef9260209255604051908152a3565b60405162461bcd60e51b815260206004820152601f60248201527f45524332303a206d696e7420746f20746865207a65726f2061646472657373006044820152606490fd5b6040516323b872dd60e01b60208201526001600160a01b03928316602482015292909116604483015260648201929092526123ef91612dfd82608481015b03601f198101845283611f12565b612e61565b15612e0957565b60405162461bcd60e51b815260206004820152602a60248201527f5361666545524332303a204552433230206f7065726174696f6e20646964206e6044820152691bdd081cdd58d8d9595960b21b6064820152608490fd5b6001600160a01b03169060405190612e7882611ef6565b6020928383527f5361666545524332303a206c6f772d6c6576656c2063616c6c206661696c656484840152803b15612eef5760008281928287612eca9796519301915af1612ec4612f34565b90612f64565b80519081612ed757505050565b826123ef93612eea938301019101612595565b612e02565b60405162461bcd60e51b815260048101859052601d60248201527f416464726573733a2063616c6c20746f206e6f6e2d636f6e74726163740000006044820152606490fd5b3d15612f5f573d90612f4582612391565b91612f536040519384611f12565b82523d6000602084013e565b606090565b90919015612f70575090565b815115612f805750805190602001fd5b60405162461bcd60e51b8152908190612f9c90600483016103a5565b0390fd5b9190820391821161083b57565b6001600160a01b03811690811561309057612fdb816001600160a01b03166000526033602052604060002090565b5483811061304057837fddf252ad1be2c89b69c2b068fc378daa952ba7f163c4a11628f55a4df523b3ef9261302b6000966120d69403916001600160a01b03166000526033602052604060002090565b5561089d61303b82603554612fa0565b603555565b60405162461bcd60e51b815260206004820152602260248201527f45524332303a206275726e20616d6f756e7420657863656564732062616c616e604482015261636560f01b6064820152608490fd5b60405162461bcd60e51b815260206004820152602160248201527f45524332303a206275726e2066726f6d20746865207a65726f206164647265736044820152607360f81b6064820152608490fd5b60405163a9059cbb60e01b60208201526001600160a01b03909216602483015260448201929092526123ef91612dfd8260648101612def565b1561311f57565b60405162461bcd60e51b815260206004820152600b60248201526a5a45524f5f41535345545360a81b6044820152606490fd5b8181029291811591840414171561083b57565b61316d613503565b61319561318d6131848461317f6137c3565b612fa0565b60fd5490613152565b612710900490565b1061321f5760206131f7916131b6610700610102546001600160a01b031690565b606554604051631a4ca37b60e21b81526001600160a01b03909116600482015260248101929092523060448301529092839190829060009082906064820190565b03925af18015610777576132085750565b61285a9060203d81116108d4576108c68183611f12565b604051635276dbb960e01b8152600490fd5b6132396137c3565b81810180911161083b5760fc54106132d757613261610700610102546001600160a01b031690565b906132746065546001600160a01b031690565b823b1561037d5760405163617ba03760e01b81526001600160a01b03919091166004820152602481019190915230604482015260006064820181905290918290608490829084905af18015610777576132ca5750565b806107896123ef92611edd565b6040516324d758c360e21b8152600490fd5b1561037d57565b600160801b6000198183098260801b91828083109203918083039214613354576305f5e100908282111561037d577facbe0e98f503f8881186e60dbb7f727bf36b7213ee9f5a78c767074b22e90e21940990828211900360f81b910360081c170290565b50506305f5e10091500490565b9060001981830981830291828083109203918083039214613354576305f5e100908282111561037d577facbe0e98f503f8881186e60dbb7f727bf36b7213ee9f5a78c767074b22e90e21940990828211900360f81b910360081c170290565b6c0c9f2c9cd04674edea40000000916000198383099280830292838086109503948086039514613447579082916133f88684116132e9565b0981806000031680920460028082600302188083028203028083028203028083028203028083028203028083028203028092029003029360018380600003040190848311900302920304170290565b505091506134568215156132e9565b0490565b90600019818309818302918280831092039180830392146134c2576c0c9f2c9cd04674edea40000000908282111561037d577f7d33c22789773a07feda8b6f0930e26fa397c439f1d5cf4b2eb27d7306d2dc99940990828211900360e21b9103601e1c170290565b50506c0c9f2c9cd04674edea4000000091500490565b90916000198383099280830292838086109503948086039514613447579082916133f88684116132e9565b60009061351b61070060fe546001600160a01b031690565b6001600160a01b039081811661359f575b5061354261070060ff546001600160a01b031690565b90811661354c5750565b9160206004929360405193848092632578b69f60e21b82525afa9081156107775761163a9260009261357f575b50611f4a565b61359891925060203d81116108d4576108c68183611f12565b9038613579565b604051632578b69f60e21b8152919350602090829060049082905afa908115610777576000916135d2575b50913861352c565b6135ea915060203d81116108d4576108c68183611f12565b386135ca565b9190916001600160801b038080941691160191821161083b57565b816136ae57505060005b610100546001600160801b038082166c0c9f2c9cd04674edea400000009381850394851161083b57818111156136825761163a9461365961367b9361365e93612fa0565b6133c0565b61367261010154948486169060801c6135f0565b9360801c61345a565b9116611f4a565b61163a94506136a59261369e610101546001600160801b031690565b16906134d8565b9060801c611f4a565b81810180911161083b576136c1916133c0565b613615565b6001600160a01b03906136ed816001600160a01b0316600052610106602052604060002090565b549060405190632578b69f60e21b8252816004816020968794165afa908115610777576000916137a6575b5081811161379e5761372991612fa0565b90613740610700610103546001600160a01b031690565b6040516370a0823160e01b8152306004820152908290829060249082905afa91821561077757600092613781575b50508082101561377c575090565b905090565b6137979250803d106108d4576108c68183611f12565b388061376e565b505050600090565b6137bd9150833d85116108d4576108c68183611f12565b38613718565b602460206001600160a01b036101035416604051928380926370a0823160e01b82523060048301525afa90811561077757600091613811575b50613805613503565b810180911161083b5790565b613829915060203d81116108d4576108c68183611f12565b386137fc565b60fc5461383a6137c3565b6000828210156138515750810390811161083b5790565b91505090565b61385f6137c3565b613867613503565b6127109081810291818304149015171561083b5760fd549081156138db57046000818311156138c95750810390811161083b576001600160a01b0390915b1660005260336020526138bc60406000205461228e565b908082101561377c575090565b90506001600160a01b039150916138a5565b634e487b7160e01b600052601260045260246000fd5b613907610700610103546001600160a01b031690565b61394d61391f61070060ff546001600160a01b031690565b6040516370a0823160e01b8082526001600160a01b0390921660048201526020928390829081906024820190565b0381875afa9182156107775783916000936139e8575b5060405190815230600482015293849060249082905afa908115610777576000937f6398cf9a29f8130777c54d3d2c061f37c691879a0c04755d9e5e6eb66705ee769385936139c9575b505060408051918252602082019290925290819081015b0390a2565b6139e0929350803d106108d4576108c68183611f12565b9038806139ad565b613a00919350823d84116108d4576108c68183611f12565b9138613963565b613a1d610700610103546001600160a01b031690565b613a3561391f61070060ff546001600160a01b031690565b0381875afa918215610777578391600093613ab0575b5060405190815230600482015293849060249082905afa908115610777576001937f6398cf9a29f8130777c54d3d2c061f37c691879a0c04755d9e5e6eb66705ee76936000936139c957505060408051918252602082019290925290819081016139c4565b613ac8919350823d84116108d4576108c68183611f12565b9138613a4b56fea164736f6c6343000812000a",
  "devdoc": {
    "author": "RageTrade*",
    "events": {
      "Approval(address,address,uint256)": {
        "details": "Emitted when the allowance of a `spender` for an `owner` is set by a call to {approve}. `value` is the new allowance."
      },
      "Initialized(uint8)": {
        "details": "Triggered when the contract has been initialized or reinitialized."
      },
      "Paused(address)": {
        "details": "Emitted when the pause is triggered by `account`."
      },
      "Transfer(address,address,uint256)": {
        "details": "Emitted when `value` tokens are moved from one account (`from`) to another (`to`). Note that `value` may be zero."
      },
      "Unpaused(address)": {
        "details": "Emitted when the pause is lifted by `account`."
      }
    },
    "kind": "dev",
    "methods": {
      "allowance(address,address)": {
        "details": "See {IERC20-allowance}."
      },
      "approve(address,uint256)": {
        "details": "See {IERC20-approve}. NOTE: If `amount` is the maximum `uint256`, the allowance is not updated on `transferFrom`. This is semantically equivalent to an infinite approval. Requirements: - `spender` cannot be the zero address."
      },
      "availableBorrow(address)": {
        "params": {
          "borrower": "allowed borrower address"
        },
        "returns": {
          "availableAUsdc": "max aUsdc which given borrower can borrow"
        }
      },
      "balanceOf(address)": {
        "details": "See {IERC20-balanceOf}."
      },
      "borrow(uint256)": {
        "details": "harvests fees from junior tranche since utilization changes",
        "params": {
          "amount": "amount of aUSDC to transfer from senior tranche to borrower"
        }
      },
      "convertToAssets(uint256)": {
        "details": "Returns the amount of assets that the Vault would exchange for the amount of shares provided, in an ideal scenario where all the conditions are met. - MUST NOT be inclusive of any fees that are charged against assets in the Vault. - MUST NOT show any variations depending on the caller. - MUST NOT reflect slippage or other on-chain conditions, when performing the actual exchange. - MUST NOT revert. NOTE: This calculation MAY NOT reflect the per-user price-per-share, and instead should reflect the average-users price-per-share, meaning what the average user should expect to see when exchanging to and from."
      },
      "convertToShares(uint256)": {
        "details": "Returns the amount of shares that the Vault would exchange for the amount of assets provided, in an ideal scenario where all the conditions are met. - MUST NOT be inclusive of any fees that are charged against assets in the Vault. - MUST NOT show any variations depending on the caller. - MUST NOT reflect slippage or other on-chain conditions, when performing the actual exchange. - MUST NOT revert. NOTE: This calculation MAY NOT reflect the per-user price-per-share, and instead should reflect the average-users price-per-share, meaning what the average user should expect to see when exchanging to and from."
      },
      "decimals()": {
        "details": "overriding because default decimals are 18",
        "returns": {
          "_0": "decimals (6)"
        }
      },
      "decreaseAllowance(address,uint256)": {
        "details": "Atomically decreases the allowance granted to `spender` by the caller. This is an alternative to {approve} that can be used as a mitigation for problems described in {IERC20-approve}. Emits an {Approval} event indicating the updated allowance. Requirements: - `spender` cannot be the zero address. - `spender` must have allowance for the caller of at least `subtractedValue`."
      },
      "deposit(uint256,address)": {
        "details": "harvests fees from junior tranche since utilization changes",
        "params": {
          "amount": "amount of usdc to be deposited",
          "to": "receiver of shares"
        },
        "returns": {
          "shares": "minted to receiver"
        }
      },
      "getEthRewardsSplitRate()": {
        "returns": {
          "feeSplitRate": "part that should go to the senior tranche and remaining to junior tranche"
        }
      },
      "getPriceX128()": {
        "details": "only for external / frontend use, not used within contract",
        "returns": {
          "_0": "Q128 price of asset"
        }
      },
      "getVaultMarketValue()": {
        "returns": {
          "_0": "Q128 price of asset"
        }
      },
      "grantAllowances()": {
        "details": "to be called once the vault is deployed"
      },
      "increaseAllowance(address,uint256)": {
        "details": "Atomically increases the allowance granted to `spender` by the caller. This is an alternative to {approve} that can be used as a mitigation for problems described in {IERC20-approve}. Emits an {Approval} event indicating the updated allowance. Requirements: - `spender` cannot be the zero address."
      },
      "initialize(address,string,string,address)": {
        "params": {
          "_name": "name of vault share token",
          "_poolAddressesProvider": "add",
          "_symbol": "symbol of vault share token",
          "_usdc": "address of usdc token"
        }
      },
      "maxDeposit(address)": {
        "returns": {
          "_0": "max no. of assets"
        }
      },
      "maxMint(address)": {
        "returns": {
          "_0": "max no. of shares"
        }
      },
      "maxRedeem(address)": {
        "params": {
          "owner": "address whose maximum redeemable shares needs to be computed"
        },
        "returns": {
          "_0": "max no. of shares"
        }
      },
      "maxWithdraw(address)": {
        "details": "checks the max amount basis user balance and maxUtilizationBps and gives the minimum of the two",
        "params": {
          "owner": "address whose maximum withdrawable assets needs to be computed"
        },
        "returns": {
          "_0": "max no. of assets"
        }
      },
      "mint(uint256,address)": {
        "details": "harvests fees from junior tranche since utilization changes",
        "params": {
          "shares": "amount of shares to be minted",
          "to": "receiver of shares"
        },
        "returns": {
          "amount": "of asset used to mint shares"
        }
      },
      "name()": {
        "details": "Returns the name of the token."
      },
      "owner()": {
        "details": "Returns the address of the current owner."
      },
      "paused()": {
        "details": "Returns true if the contract is paused, and false otherwise."
      },
      "previewDeposit(uint256)": {
        "details": "Allows an on-chain or off-chain user to simulate the effects of their deposit at the current block, given current on-chain conditions. - MUST return as close to and no more than the exact amount of Vault shares that would be minted in a deposit   call in the same transaction. I.e. deposit should return the same or more shares as previewDeposit if called   in the same transaction. - MUST NOT account for deposit limits like those returned from maxDeposit and should always act as though the   deposit would be accepted, regardless if the user has enough tokens approved, etc. - MUST be inclusive of deposit fees. Integrators should be aware of the existence of deposit fees. - MUST NOT revert. NOTE: any unfavorable discrepancy between convertToShares and previewDeposit SHOULD be considered slippage in share price or some other type of condition, meaning the depositor will lose assets by depositing."
      },
      "previewMint(uint256)": {
        "details": "Allows an on-chain or off-chain user to simulate the effects of their mint at the current block, given current on-chain conditions. - MUST return as close to and no fewer than the exact amount of assets that would be deposited in a mint call   in the same transaction. I.e. mint should return the same or fewer assets as previewMint if called in the   same transaction. - MUST NOT account for mint limits like those returned from maxMint and should always act as though the mint   would be accepted, regardless if the user has enough tokens approved, etc. - MUST be inclusive of deposit fees. Integrators should be aware of the existence of deposit fees. - MUST NOT revert. NOTE: any unfavorable discrepancy between convertToAssets and previewMint SHOULD be considered slippage in share price or some other type of condition, meaning the depositor will lose assets by minting."
      },
      "previewRedeem(uint256)": {
        "details": "Allows an on-chain or off-chain user to simulate the effects of their redeemption at the current block, given current on-chain conditions. - MUST return as close to and no more than the exact amount of assets that would be withdrawn in a redeem call   in the same transaction. I.e. redeem should return the same or more assets as previewRedeem if called in the   same transaction. - MUST NOT account for redemption limits like those returned from maxRedeem and should always act as though the   redemption would be accepted, regardless if the user has enough shares, etc. - MUST be inclusive of withdrawal fees. Integrators should be aware of the existence of withdrawal fees. - MUST NOT revert. NOTE: any unfavorable discrepancy between convertToAssets and previewRedeem SHOULD be considered slippage in share price or some other type of condition, meaning the depositor will lose assets by redeeming."
      },
      "previewWithdraw(uint256)": {
        "details": "Allows an on-chain or off-chain user to simulate the effects of their withdrawal at the current block, given current on-chain conditions. - MUST return as close to and no fewer than the exact amount of Vault shares that would be burned in a withdraw   call in the same transaction. I.e. withdraw should return the same or fewer shares as previewWithdraw if   called   in the same transaction. - MUST NOT account for withdrawal limits like those returned from maxWithdraw and should always act as though   the withdrawal would be accepted, regardless if the user has enough shares, etc. - MUST be inclusive of withdrawal fees. Integrators should be aware of the existence of withdrawal fees. - MUST NOT revert. NOTE: any unfavorable discrepancy between convertToShares and previewWithdraw SHOULD be considered slippage in share price or some other type of condition, meaning the depositor will lose assets by depositing."
      },
      "redeem(uint256,address,address)": {
        "details": "harvests fees from junior tranche since utilization changes",
        "params": {
          "owner": "owner of the shares to be burnt",
          "receiver": "receiver of assets",
          "shares": "amount of shares to be burnt"
        },
        "returns": {
          "assets": "amount of assets received by receiver"
        }
      },
      "renounceOwnership()": {
        "details": "Leaves the contract without owner. It will not be possible to call `onlyOwner` functions anymore. Can only be called by the current owner. NOTE: Renouncing ownership will leave the contract without an owner, thereby removing any functionality that is only available to the owner."
      },
      "repay(uint256)": {
        "details": "harvests fees from junior tranche since utilization changes",
        "params": {
          "amount": "amount of aUSDC to transfer from borrower to senior tranche"
        }
      },
      "setDepositCap(uint256)": {
        "details": "depositCap = limit on the asset amount (usdc) that can be deposited into the vault",
        "params": {
          "_newDepositCap": ": updated deposit cap"
        }
      },
      "setDnGmxJuniorVault(address)": {
        "params": {
          "_dnGmxJuniorVault": ": updated deposit cap"
        }
      },
      "setLeveragePool(address)": {
        "params": {
          "_leveragePool": ": updated deposit cap"
        }
      },
      "setMaxUtilizationBps(uint256)": {
        "details": "maximum utilization that vault is allowed to go upto on withdrawals (beyond this withdrawals would fail)",
        "params": {
          "_maxUtilizationBps": ": updated max utilization bps"
        }
      },
      "symbol()": {
        "details": "Returns the symbol of the token, usually a shorter version of the name."
      },
      "totalAssets()": {
        "returns": {
          "amount": "total usdc under management"
        }
      },
      "totalSupply()": {
        "details": "See {IERC20-totalSupply}."
      },
      "totalUsdcBorrowed()": {
        "returns": {
          "usdcBorrowed": "total usdc borrowed"
        }
      },
      "transfer(address,uint256)": {
        "details": "See {IERC20-transfer}. Requirements: - `to` cannot be the zero address. - the caller must have a balance of at least `amount`."
      },
      "transferFrom(address,address,uint256)": {
        "details": "See {IERC20-transferFrom}. Emits an {Approval} event indicating the updated allowance. This is not required by the EIP. See the note at the beginning of {ERC20}. NOTE: Does not update the allowance if the current allowance is the maximum `uint256`. Requirements: - `from` and `to` cannot be the zero address. - `from` must have a balance of at least `amount`. - the caller must have allowance for ``from``'s tokens of at least `amount`."
      },
      "transferOwnership(address)": {
        "details": "Transfers ownership of the contract to a new account (`newOwner`). Can only be called by the current owner."
      },
      "updateBorrowCap(address,uint256)": {
        "params": {
          "borrowerAddress": ": address of borrower for whom cap needs to be updated",
          "cap": ": new cap for the borrower"
        }
      },
      "updateFeeStrategyParams((uint128,uint128,uint128,uint128))": {
        "params": {
          "_feeStrategy": ": new fee strategy"
        }
      },
      "withdraw(uint256,address,address)": {
        "details": "harvests fees from junior tranche since utilization changes",
        "params": {
          "assets": "amount of usdc to be transferred",
          "owner": "owner of the shares to be burnt",
          "receiver": "receiver of assets"
        },
        "returns": {
          "shares": "amount of shares burned"
        }
      }
    },
    "title": "Delta Neutral GMX Senior Tranche contract",
    "version": 1
  },
  "userdoc": {
    "kind": "user",
    "methods": {
      "availableBorrow(address)": {
        "notice": "return the available borrow amount for a given borrower address"
      },
      "borrow(uint256)": {
        "notice": "borrow aUSDC"
      },
      "decimals()": {
        "notice": "decimals of vault shares (= usdc decimals)"
      },
      "deposit(uint256,address)": {
        "notice": "deposit usdc"
      },
      "getEthRewardsSplitRate()": {
        "notice": "returns eth reward split rate basis utilization in E30"
      },
      "getPriceX128()": {
        "notice": "returns price of a single asset token in X128"
      },
      "getVaultMarketValue()": {
        "notice": "returns overall vault market value for the vault by valueing the underlying assets"
      },
      "grantAllowances()": {
        "notice": "grants allowances for tokens to relevant external contracts"
      },
      "initialize(address,string,string,address)": {
        "notice": "initializer"
      },
      "maxDeposit(address)": {
        "notice": "max no. of assets which a user can deposit in single call"
      },
      "maxMint(address)": {
        "notice": "max no. of shares which a user can mint in single call"
      },
      "maxRedeem(address)": {
        "notice": "max no. of shares which a user can burn in single call"
      },
      "maxWithdraw(address)": {
        "notice": "max no. of assets which a user can withdraw in single call"
      },
      "mint(uint256,address)": {
        "notice": "deposit usdc"
      },
      "pause()": {
        "notice": "pause deposit, mint, withdraw and redeem"
      },
      "redeem(uint256,address,address)": {
        "notice": "withdraw usdc"
      },
      "repay(uint256)": {
        "notice": "repay aUSDC"
      },
      "setDepositCap(uint256)": {
        "notice": "sets deposit cap (6 decimals)"
      },
      "setDnGmxJuniorVault(address)": {
        "notice": "sets junior tranche address"
      },
      "setLeveragePool(address)": {
        "notice": "sets leverage pool address"
      },
      "setMaxUtilizationBps(uint256)": {
        "notice": "sets max utilization bps"
      },
      "totalAssets()": {
        "notice": "derive total assets managed by senior vault"
      },
      "totalUsdcBorrowed()": {
        "notice": "query amount of assset borrwed by all borrowers combined"
      },
      "unpause()": {
        "notice": "unpause deposit, mint, withdraw and redeem"
      },
      "updateBorrowCap(address,uint256)": {
        "notice": "updates borrow cap for junior tranche or leverage poolborrowCap = max amount a borrower can take from senior tranche"
      },
      "updateFeeStrategyParams((uint128,uint128,uint128,uint128))": {
        "notice": "updates fee split strategythis determines how eth rewards should be split between junior and senior tranchebasis the utilization of senior tranche"
      },
      "withdraw(uint256,address,address)": {
        "notice": "withdraw usdc"
      }
    },
    "notice": "Implements the handling of senior tranche which acts as a lender of aUSDC for junior tranche to borrow and hedge tokens using AAVEIt is upgradable contract (via TransparentUpgradeableProxy proxy owned by ProxyAdmin)",
    "version": 1
  },
  "storageLayout": {
    "storage": [
      {
        "astId": 3990,
        "contract": "contracts/vaults/DnGmxSeniorVault.sol:DnGmxSeniorVault",
        "label": "_initialized",
        "offset": 0,
        "slot": "0",
        "type": "t_uint8"
      },
      {
        "astId": 3993,
        "contract": "contracts/vaults/DnGmxSeniorVault.sol:DnGmxSeniorVault",
        "label": "_initializing",
        "offset": 1,
        "slot": "0",
        "type": "t_bool"
      },
      {
        "astId": 5259,
        "contract": "contracts/vaults/DnGmxSeniorVault.sol:DnGmxSeniorVault",
        "label": "__gap",
        "offset": 0,
        "slot": "1",
        "type": "t_array(t_uint256)50_storage"
      },
      {
        "astId": 4280,
        "contract": "contracts/vaults/DnGmxSeniorVault.sol:DnGmxSeniorVault",
        "label": "_balances",
        "offset": 0,
        "slot": "51",
        "type": "t_mapping(t_address,t_uint256)"
      },
      {
        "astId": 4286,
        "contract": "contracts/vaults/DnGmxSeniorVault.sol:DnGmxSeniorVault",
        "label": "_allowances",
        "offset": 0,
        "slot": "52",
        "type": "t_mapping(t_address,t_mapping(t_address,t_uint256))"
      },
      {
        "astId": 4288,
        "contract": "contracts/vaults/DnGmxSeniorVault.sol:DnGmxSeniorVault",
        "label": "_totalSupply",
        "offset": 0,
        "slot": "53",
        "type": "t_uint256"
      },
      {
        "astId": 4290,
        "contract": "contracts/vaults/DnGmxSeniorVault.sol:DnGmxSeniorVault",
        "label": "_name",
        "offset": 0,
        "slot": "54",
        "type": "t_string_storage"
      },
      {
        "astId": 4292,
        "contract": "contracts/vaults/DnGmxSeniorVault.sol:DnGmxSeniorVault",
        "label": "_symbol",
        "offset": 0,
        "slot": "55",
        "type": "t_string_storage"
      },
      {
        "astId": 4871,
        "contract": "contracts/vaults/DnGmxSeniorVault.sol:DnGmxSeniorVault",
        "label": "__gap",
        "offset": 0,
        "slot": "56",
        "type": "t_array(t_uint256)45_storage"
      },
      {
        "astId": 15500,
        "contract": "contracts/vaults/DnGmxSeniorVault.sol:DnGmxSeniorVault",
        "label": "asset",
        "offset": 0,
        "slot": "101",
        "type": "t_address"
      },
      {
        "astId": 15504,
        "contract": "contracts/vaults/DnGmxSeniorVault.sol:DnGmxSeniorVault",
        "label": "__gaps",
        "offset": 0,
        "slot": "102",
        "type": "t_array(t_uint256)50_storage"
      },
      {
        "astId": 3862,
        "contract": "contracts/vaults/DnGmxSeniorVault.sol:DnGmxSeniorVault",
        "label": "_owner",
        "offset": 0,
        "slot": "152",
        "type": "t_address"
      },
      {
        "astId": 3982,
        "contract": "contracts/vaults/DnGmxSeniorVault.sol:DnGmxSeniorVault",
        "label": "__gap",
        "offset": 0,
        "slot": "153",
        "type": "t_array(t_uint256)49_storage"
      },
      {
        "astId": 4155,
        "contract": "contracts/vaults/DnGmxSeniorVault.sol:DnGmxSeniorVault",
        "label": "_paused",
        "offset": 0,
        "slot": "202",
        "type": "t_bool"
      },
      {
        "astId": 4260,
        "contract": "contracts/vaults/DnGmxSeniorVault.sol:DnGmxSeniorVault",
        "label": "__gap",
        "offset": 0,
        "slot": "203",
        "type": "t_array(t_uint256)49_storage"
      },
      {
        "astId": 32965,
        "contract": "contracts/vaults/DnGmxSeniorVault.sol:DnGmxSeniorVault",
        "label": "depositCap",
        "offset": 0,
        "slot": "252",
        "type": "t_uint256"
      },
      {
        "astId": 32967,
        "contract": "contracts/vaults/DnGmxSeniorVault.sol:DnGmxSeniorVault",
        "label": "maxUtilizationBps",
        "offset": 0,
        "slot": "253",
        "type": "t_uint256"
      },
      {
        "astId": 32970,
        "contract": "contracts/vaults/DnGmxSeniorVault.sol:DnGmxSeniorVault",
        "label": "leveragePool",
        "offset": 0,
        "slot": "254",
        "type": "t_contract(IBorrower)16079"
      },
      {
        "astId": 32973,
        "contract": "contracts/vaults/DnGmxSeniorVault.sol:DnGmxSeniorVault",
        "label": "dnGmxJuniorVault",
        "offset": 0,
        "slot": "255",
        "type": "t_contract(IBorrower)16079"
      },
      {
        "astId": 32976,
        "contract": "contracts/vaults/DnGmxSeniorVault.sol:DnGmxSeniorVault",
        "label": "feeStrategy",
        "offset": 0,
        "slot": "256",
        "type": "t_struct(Info)22878_storage"
      },
      {
        "astId": 32979,
        "contract": "contracts/vaults/DnGmxSeniorVault.sol:DnGmxSeniorVault",
        "label": "pool",
        "offset": 0,
        "slot": "258",
        "type": "t_contract(IPool)967"
      },
      {
        "astId": 32982,
        "contract": "contracts/vaults/DnGmxSeniorVault.sol:DnGmxSeniorVault",
        "label": "aUsdc",
        "offset": 0,
        "slot": "259",
        "type": "t_contract(IAToken)220"
      },
      {
        "astId": 32985,
        "contract": "contracts/vaults/DnGmxSeniorVault.sol:DnGmxSeniorVault",
        "label": "oracle",
        "offset": 0,
        "slot": "260",
        "type": "t_contract(IPriceOracle)1196"
      },
      {
        "astId": 32988,
        "contract": "contracts/vaults/DnGmxSeniorVault.sol:DnGmxSeniorVault",
        "label": "poolAddressProvider",
        "offset": 0,
        "slot": "261",
        "type": "t_contract(IPoolAddressesProvider)1176"
      },
      {
        "astId": 32992,
        "contract": "contracts/vaults/DnGmxSeniorVault.sol:DnGmxSeniorVault",
        "label": "borrowCaps",
        "offset": 0,
        "slot": "262",
        "type": "t_mapping(t_address,t_uint256)"
      },
      {
        "astId": 32996,
        "contract": "contracts/vaults/DnGmxSeniorVault.sol:DnGmxSeniorVault",
        "label": "__gaps",
        "offset": 0,
        "slot": "263",
        "type": "t_array(t_uint256)50_storage"
      }
    ],
    "types": {
      "t_address": {
        "encoding": "inplace",
        "label": "address",
        "numberOfBytes": "20"
      },
      "t_array(t_uint256)45_storage": {
        "base": "t_uint256",
        "encoding": "inplace",
        "label": "uint256[45]",
        "numberOfBytes": "1440"
      },
      "t_array(t_uint256)49_storage": {
        "base": "t_uint256",
        "encoding": "inplace",
        "label": "uint256[49]",
        "numberOfBytes": "1568"
      },
      "t_array(t_uint256)50_storage": {
        "base": "t_uint256",
        "encoding": "inplace",
        "label": "uint256[50]",
        "numberOfBytes": "1600"
      },
      "t_bool": {
        "encoding": "inplace",
        "label": "bool",
        "numberOfBytes": "1"
      },
      "t_contract(IAToken)220": {
        "encoding": "inplace",
        "label": "contract IAToken",
        "numberOfBytes": "20"
      },
      "t_contract(IBorrower)16079": {
        "encoding": "inplace",
        "label": "contract IBorrower",
        "numberOfBytes": "20"
      },
      "t_contract(IPool)967": {
        "encoding": "inplace",
        "label": "contract IPool",
        "numberOfBytes": "20"
      },
      "t_contract(IPoolAddressesProvider)1176": {
        "encoding": "inplace",
        "label": "contract IPoolAddressesProvider",
        "numberOfBytes": "20"
      },
      "t_contract(IPriceOracle)1196": {
        "encoding": "inplace",
        "label": "contract IPriceOracle",
        "numberOfBytes": "20"
      },
      "t_mapping(t_address,t_mapping(t_address,t_uint256))": {
        "encoding": "mapping",
        "key": "t_address",
        "label": "mapping(address => mapping(address => uint256))",
        "numberOfBytes": "32",
        "value": "t_mapping(t_address,t_uint256)"
      },
      "t_mapping(t_address,t_uint256)": {
        "encoding": "mapping",
        "key": "t_address",
        "label": "mapping(address => uint256)",
        "numberOfBytes": "32",
        "value": "t_uint256"
      },
      "t_string_storage": {
        "encoding": "bytes",
        "label": "string",
        "numberOfBytes": "32"
      },
      "t_struct(Info)22878_storage": {
        "encoding": "inplace",
        "label": "struct FeeSplitStrategy.Info",
        "members": [
          {
            "astId": 22871,
            "contract": "contracts/vaults/DnGmxSeniorVault.sol:DnGmxSeniorVault",
            "label": "optimalUtilizationRate",
            "offset": 0,
            "slot": "0",
            "type": "t_uint128"
          },
          {
            "astId": 22873,
            "contract": "contracts/vaults/DnGmxSeniorVault.sol:DnGmxSeniorVault",
            "label": "baseVariableBorrowRate",
            "offset": 16,
            "slot": "0",
            "type": "t_uint128"
          },
          {
            "astId": 22875,
            "contract": "contracts/vaults/DnGmxSeniorVault.sol:DnGmxSeniorVault",
            "label": "variableRateSlope1",
            "offset": 0,
            "slot": "1",
            "type": "t_uint128"
          },
          {
            "astId": 22877,
            "contract": "contracts/vaults/DnGmxSeniorVault.sol:DnGmxSeniorVault",
            "label": "variableRateSlope2",
            "offset": 16,
            "slot": "1",
            "type": "t_uint128"
          }
        ],
        "numberOfBytes": "64"
      },
      "t_uint128": {
        "encoding": "inplace",
        "label": "uint128",
        "numberOfBytes": "16"
      },
      "t_uint256": {
        "encoding": "inplace",
        "label": "uint256",
        "numberOfBytes": "32"
      },
      "t_uint8": {
        "encoding": "inplace",
        "label": "uint8",
        "numberOfBytes": "1"
      }
    }
  }
}