{
  "address": "0xF25415E546560B0E9Cf21945282Be7a9E74c0fF3",
  "abi": [
    {
      "inputs": [],
      "name": "R",
      "type": "error"
    },
    {
      "inputs": [],
      "name": "T",
      "type": "error"
    },
    {
      "inputs": [
        {
          "internalType": "int256",
          "name": "btcAmountInBtcSwap",
          "type": "int256"
        },
        {
          "internalType": "int256",
          "name": "ethAmountInEthSwap",
          "type": "int256"
        },
        {
          "internalType": "bytes",
          "name": "btcSellPath",
          "type": "bytes"
        },
        {
          "internalType": "bytes",
          "name": "ethSellPath",
          "type": "bytes"
        }
      ],
      "name": "quoteCombinedSwap",
      "outputs": [
        {
          "internalType": "int256",
          "name": "usdcAmountInBtcSwap",
          "type": "int256"
        },
        {
          "internalType": "int256",
          "name": "usdcAmountInEthSwap",
          "type": "int256"
        }
      ],
      "stateMutability": "view",
      "type": "function"
    }
  ],
  "transactionHash": "0x860edf0d3f61cbd13eba379d91523ffc0b29e7ce1c0f542006e92b203cdceff8",
  "args": [],
  "numDeployments": 1,
  "solcInputHash": "e2e56690b36de9cbdcef3eea4dae54e6",
  "bytecode": "0x6080806040523461001a576126a09081610020823930815050f35b600080fdfe6080604052600436101561001257600080fd5b6000803560e01c63f940ac551461002857600080fd5b608036600319011261011f576024359067ffffffffffffffff60443581811161011b576100599036906004016101c2565b9060643590811161011b5761007561007e9136906004016101c2565b9160043561039c565b610089949294610236565b916100e4575b5061009e906100b9938661051c565b50509380159182156100db575b82156100ca575b5050610353565b604080519182526020820192909252f35b8091925085139113141538806100b2565b851592506100ab565b805115610116576020015190805115610116576100b99361009e92602083015261010d82610322565b5093509061008f565b61030c565b8280fd5b80fd5b634e487b7160e01b600052604160045260246000fd5b60a0810190811067ffffffffffffffff82111761015457604052565b610122565b6060810190811067ffffffffffffffff82111761015457604052565b6040810190811067ffffffffffffffff82111761015457604052565b90601f8019910116810190811067ffffffffffffffff82111761015457604052565b604051906101c082610175565b565b81601f820112156102195780359067ffffffffffffffff821161015457604051926101f7601f8401601f191660200185610191565b8284526020838301011161021957816000926020809301838601378301015290565b600080fd5b67ffffffffffffffff81116101545760051b60200190565b60409081519161024583610175565b60018352829160005b6020808210156102905783516020929161026782610138565b60008252600081830152600086830152600060608301526000608083015282880101520161024e565b505091925050565b906102a28261021e565b6040906102b182519182610191565b83815280936102c2601f199161021e565b019160005b8381106102d45750505050565b60209082516102e281610138565b600081528260008183015260008583015260006060830152600060808301528286010152016102c7565b634e487b7160e01b600052603260045260246000fd5b8051156101165760200190565b8051600110156101165760400190565b80518210156101165760209160051b010190565b1561035a57565b634e487b7160e01b600052600160045260246000fd5b634e487b7160e01b600052601160045260246000fd5b600160ff1b81146103975760000390565b610370565b600091828213156103d3576103b1925061067e565b90916103ce6103c86103c285610322565b51610386565b9361032f565b519190565b9082811215610512576103e590610386565b9281926103f360609361084a565b906001918281018082116103975761040a9061063f565b968551156104fe575b928192936104238298938a61033f565b525b61044a575b5050509091506104466103c261043f85610322565b519461032f565b9190565b61045e6104568261097c565b919093610671565b9287840190818511610397576104776104a8928b61033f565b5190610495610490610489888c61033f565b5193610bfa565b610386565b84156104e257846401000276a492610eb4565b9091156104db57505b6104bb838961033f565b5281156104d657906104ce86939261085e565b909192610425565b61042a565b90506104b1565b8473fffd8963efd1fc6a506488495d951d5263988d2592610eb4565b94508261050a82610298565b959050610413565b5050908190606090565b600093929184821315610534576103b193945061075f565b919392908381121561060c5761054990610386565b8293610555869461084a565b6001928382018083116103975761056b9061063f565b9751156105f8575b928192936105838298938a61033f565b525b61059e575050509091506104466103c261043f85610322565b6105aa6104568261097c565b9287840190818511610397576104776105c3928b61033f565b9091156105f157505b6105d6838961033f565b5281156104d657906105e986939261085e565b909192610585565b90506105cc565b94508261060482610298565b959050610573565b5091928392909150565b90601f820180921161039757565b601701908160171161039757565b9190820180921161039757565b906106498261021e565b6106566040519182610191565b8281528092610667601f199161021e565b0190602036910137565b8015610397576000190190565b909160609261068c8361084a565b600190818101808211610397576106a29061063f565b9286511561074b575b9181926106ba8297938661033f565b525b6106c9575b509093925050565b6106d5610456826109c0565b9286840190818511610397576106ee610704928761033f565b51906104956106fd878c61033f565b5192610bfa565b911561073c575061071490610386565b61071e838561033f565b5281156107375790610730859261085e565b90916106bc565b6106c1565b6107469150610386565b610714565b95508161075782610298565b9690506106ab565b91929061076b8361084a565b600190818101808211610397576107819061063f565b9286511561080e575b9181926107998297938661033f565b525b6107a757509093925050565b6107b3610456826109c0565b9286840190818511610397576106ee6107cc928761033f565b91156107ff57506107dc90610386565b6107e6838561033f565b52811561073757906107f8859261085e565b909161079b565b6108099150610386565b6107dc565b95508161081a82610298565b96905061078a565b634e487b7160e01b600052601260045260246000fd5b8015610845576000190490565b610822565b516013198101908111610397576017900490565b80516016199182820190828211610397576108838261087c81610616565b10156108ff565b610898815161089184610624565b111561093c565b601783036108b55750505050604051600081526020810160405290565b601760405194601f8416801560051b9182828901019687010193010101905b8084106108ec5750508252601f01601f191660405290565b90928351815260208091019301906108d4565b1561090657565b60405162461bcd60e51b815260206004820152600e60248201526d736c6963655f6f766572666c6f7760901b6044820152606490fd5b1561094357565b60405162461bcd60e51b8152602060048201526011602482015270736c6963655f6f75744f66426f756e647360781b6044820152606490fd5b90610986826109fe565b610994601784511015610a61565b6109ad6109a5601785015194610a4e565b938483610aa4565b926001600160a01b038091169116101590565b906109ca826109fe565b6109d8601784511015610a61565b6109e96109a5601785015194610a4e565b926001600160a01b0380911691161060011490565b6014815110610a11576020015160601c90565b60405162461bcd60e51b8152602060048201526015602482015274746f416464726573735f6f75744f66426f756e647360581b6044820152606490fd5b602b815110610a11576037015160601c90565b15610a6857565b60405162461bcd60e51b8152602060048201526014602482015273746f55696e7432345f6f75744f66426f756e647360601b6044820152606490fd5b91908290809160409485926000848051610abd81610159565b82815282602082015201526001600160a01b039182821683821611610be5575b50508062ffffff91845193610af185610159565b16948584521694856020840152169485910152828210156102195780516001600160a01b039283166020820190815293909216604083015262ffffff939093166060808301919091528152610be292610bd6928392601f1991610bc791610b59608082610191565b51902092516001600160f81b0319602082019081527307e610c722b66148d8c6b92967c99cd1ba8c7e6160621b602183015260358201949094527fe34f199b19b2b4f47f68442619d555527d244f78a3297ea89325f843f87b8b546055820152607592830181529182610191565b5190206001600160a01b031690565b6001600160a01b031690565b90565b9450915062ffffff38610add565b1561021957565b600160ff1b8110156102195790565b15610c1057565b60405162461bcd60e51b8152602060048201526002602482015261415360f01b6044820152606490fd5b51906001600160a01b038216820361021957565b51908160020b820361021957565b519061ffff8216820361021957565b5190811515820361021957565b908160e091031261021957610c8c81610c3a565b91610c9960208301610c4e565b91610ca660408201610c5c565b91610cb360608301610c5c565b91610cc060808201610c5c565b9160a082015160ff811681036102195760c0610be2919301610c6b565b6040513d6000823e3d90fd5b51906001600160801b038216820361021957565b9081602091031261021957610be290610ce9565b15610d1857565b60405162461bcd60e51b815260206004820152600360248201526214d41360ea1b6044820152606490fd5b90816020910312610219575162ffffff811681036102195790565b9081602091031261021957610be290610c4e565b6040519060e0820182811067ffffffffffffffff821117610154576040528160c06000918281528260208201528260408201528260608201528260808201528260a08201520152565b9190916000838201938412911290801582169115161761039757565b8181039291600013801582851316918412161761039757565b91908261010091031261021957610e0682610ce9565b91602081015180600f0b8103610219579160408201519160608101519160808201518060060b81036102195791610e3f60a08201610c3a565b9160c082015163ffffffff811681036102195760e0610be2919301610c6b565b9190916001600160801b038080941691160191821161039757565b600f0b6f7fffffffffffffffffffffffffffffff1981146103975760000390565b6001600160801b03918216908216039190821161039757565b929192610ec2841515610c09565b6001600160a01b03610ede60408701516001600160a01b031690565b16156114bf575b811561146e57610f1f610f05610bd660408801516001600160a01b031690565b6001600160a01b038516908110908161145f575b50610d11565b6040519363ddca3f4360e01b855260049660208689816001600160a01b0387165afa9586156112d95760009661142e575b506040516334324e9f60e21b81526020818a816001600160a01b0388165afa80156112d957610fa2916000916113ff575b50610f98610f8d6101b3565b62ffffff9099168952565b60020b6020880152565b818752600060208801525b86511515806113e5575b156113a9578587610fc6610d72565b610fea610fdd60408401516001600160a01b031690565b6001600160a01b03168252565b61102d6110188861100060608096015160020b90565b602087015160020b906001600160a01b038b1661229a565b151560408401908152919060020b6020840152565b602082015160020b620d89e7198112156113915750620d89e71960208301525b61106361105e602084015160020b90565b611c38565b6001600160a01b03168284019081528b61108760408201516001600160a01b031690565b8a1561136c578b6001600160a01b03806110a886516001600160a01b031690565b92169116105b1561135b578b905b6080918284019889516110cf906001600160801b031690565b8551915162ffffff16926110e2946115b5565b60c0890190815260a089019182529388019182526001600160a01b03909216604085015290919061116d93610bd69361115f9360409360008f131561131f57916111366111419261114b9451905101610bfa565b845103845251610bfa565b6020830151610dd7565b60208201525b01516001600160a01b031690565b92516001600160a01b031690565b6001600160a01b0382169081036112de575050516111be575b6111ac925086156111b157602001516000199060020b0160020b905b89019060020b9052565b610fad565b6020015160020b906111a2565b602081015160020b60405163f30dba9360e01b815260029190910b8c8201908152610100949085908390819060200103816001600160a01b038c165afa9485156112d9576111ac9561126c938b926000926112a4575b50508091611296575b50600081600f0b126000146112715761125f9061125961124d61124785516001600160801b031690565b92610e7a565b6001600160801b031690565b90610e9b565b6001600160801b03169052565b611186565b61125f9061128683516001600160801b031690565b906001600160801b031690610e5f565b9050600003600f0b3861121d565b6112c39250803d106112d2575b6112bb8183610191565b810190610df0565b50505050505090503880611214565b503d6112b1565b610cdd565b92519094506112f691506001600160a01b0316610bd6565b03611303575b5050610fad565b61130f61131892611fa6565b60020b90890152565b38806112fc565b61134791611342916113346113519551610bfa565b865101865251905190610632565b610bfa565b6020830151610dbb565b6020820152611151565b82516001600160a01b0316906110b6565b8b6001600160a01b038061138786516001600160a01b031690565b92169116116110ae565b620d89e8121561104d57620d89e8602083015261104d565b9650935050151560008313141590506113d1576113ca602091835190610dd7565b9101519091565b602082015191516113e191610dd7565b9091565b5060408701516001600160a01b0386811691161415610fb7565b611421915060203d602011611427575b6114198183610191565b810190610d5e565b38610f81565b503d61140f565b61145191965060203d602011611458575b6114498183610191565b810190610d43565b9438610f50565b503d61143f565b6401000276a391501138610f19565b610f1f611488610bd660408801516001600160a01b031690565b6001600160a01b03851690811190816114a15750610d11565b73fffd8963efd1fc6a506488495d951d5263988d2691501038610f19565b604051633850c7bd60e01b81526001600160a01b03821660e082600481845afa9081156112d957611513602092600494600090819261157d575b506001600160a01b031660408b01525b60020b60608a0152565b604051630d34328160e11b815292839182905afa80156112d95761154a9160009161154f575b506001600160801b03166080870152565b610ee5565b611570915060203d8111611576575b6115688183610191565b810190610cfd565b38611539565b503d61155e565b61150992506115a3915060e03d81116115ae575b61159b8183610191565b810190610c78565b5050505050916114f9565b503d611591565b949190928594600080806001600160a01b03908189169283838c161015978b8389129b898d15988c8a600014611756579050849291506115ff62ffffff8c620f424003168d6117a7565b81156117445783611611818786611b61565b955b86831061173257505050509e8f965b8716968789149c6000146116da578c806116d3575b156116c4575050505b9b8c99806116bd575b156116ad5750505b985b806116a2575b611697575b508261168c575b50501561167157500390565b9050610be2915062ffffff8082620f42400316911685611913565b141590503880611665565b85900397503861165e565b508581038911611659565b6116b892508d611bb4565b611651565b508b611649565b6116ce9350611b61565b611640565b5089611637565b809392918d8061172b575b1561171c575050505b9c8d9a80611715575b15611706575050505b98611653565b6117109350611b1a565b611700565b508c6116f7565b6117269350611be6565b6116ee565b508a6116e5565b61173c9450611940565b9e8f96611622565b83611750818588611be6565b95611613565b90938593929650816000146117955783611771818386611bb4565b915b919789039188831061178b57505050509e8f96611622565b61173c9450611a82565b836117a1818584611b1a565b91611773565b906000198183098183029182808310920391808303921461180557620f42409082821115610219577fde8f6cefed634549b62c77574f722e1ac57e23f24d8fd5cb790fb65668c26139940990828211900360fa1b910360061c170290565b5050620f424091500490565b600160601b91600019838309928260601b9283808610950394808603951461189057908291611841868411610bf3565b0981806000031680920460028082600302188083028203028083028203028083028203028083028203028083028203028092029003029360018380600003040190848311900302920304170290565b5050915061189f821515610bf3565b0490565b60001982820990828102928380841093039280840393146118df57600160601b9183831115610219570990828211900360a01b910360601c1790565b50505060601c90565b9091600019838309928083029283808610950394808603951461189057908291611841868411610bf3565b9291906119218282866118e8565b938215610845570961192f57565b906000198110156102195760010190565b6001600160a01b0393848216948515610219576001600160801b038416918215610219576000901561197957505050610be293506119ac565b50909392508211905061199d5760601b045b810180911161039757610be290611a6e565b906119a791611811565b61198b565b91908115611a14576001600160801b0360601b9060601b16906001600160a01b0380931680820281838204146119fc575b5080156108455782049081018091116103975780820615159104011690565b83018381106119dd579150611a1092611913565b1690565b505090565b91908115611a14576001600160a01b03906001600160801b0360601b9060601b16921691828083029283041480611a65575b1561021957610be292611a6092820391611913565b611a6e565b50818111611a4b565b906001600160a01b03821691820361021957565b919290926001600160a01b0393848416938415610219576001600160801b0382169384156102195715611b0b575060009050848211611ad7575060601b908082061515910401905b8181111561021957031690565b9091611ae38184611811565b92600160601b9009611af7575b5090611aca565b60001982101561011f575060010138611af0565b9193509150610be29350611a19565b906001600160a01b039283821684841611611b59575b8383169384156102195761189f938382169303169060601b600160601b600160e01b03166118e8565b919091611b30565b906001600160a01b039283821684841611611bac575b83831693841561021957611ba0938382169303169060601b600160601b600160e01b0316611913565b90808206151591040190565b919091611b77565b610be292916001600160801b03916001600160a01b039182811683831611611be0575b031691166118a3565b90611bd7565b906001600160801b03916001600160a01b039182811683831611611c32575b03169116611c1382826118a3565b91600160601b9109611c225790565b6000198110156102195760010190565b90611c05565b60020b6000811215611fa057806000035b620d89e88111611f8e576001600160a01b03916001821615611f7c576001600160881b036ffffcb933bd6fad37aa2d162d1a5940015b169160028116611f60575b60048116611f44575b60088116611f28575b60108116611f0c575b60208116611ef0575b60408116611ed4575b608090818116611eb9575b6101008116611e9e575b6102008116611e83575b6104008116611e68575b6108008116611e4d575b6110008116611e32575b6120008116611e17575b6140008116611dfc575b6180008116611de1575b620100008116611dc6575b620200008116611dac575b620400008116611d92575b6208000016611d77575b50600012611d69575b63ffffffff8116611d605760ff60005b169060201c011690565b60ff6001611d56565b611d7290610838565b611d46565b6b048a170391f7dc42444e8fa26000929302901c9190611d3d565b6d2216e584f5fa1ea926041bedfe98909302811c92611d33565b926e5d6af8dedb81196699c329225ee60402811c92611d28565b926f09aa508b5b7a84e1c677de54f3e99bc902811c92611d1d565b926f31be135f97d08fd981231505542fcfa602811c92611d12565b926f70d869a156d2a1b890bb3df62baf32f702811c92611d08565b926fa9f746462d870fdf8a65dc1f90e061e502811c92611cfe565b926fd097f3bdfd2022b8845ad8f792aa582502811c92611cf4565b926fe7159475a2c29b7443b29c7fa6e889d902811c92611cea565b926ff3392b0822b70005940c7a398e4b70f302811c92611ce0565b926ff987a7253ac413176f2b074cf7815e5402811c92611cd6565b926ffcbe86c7900a88aedcffc83b479aa3a402811c92611ccc565b926ffe5dee046a99a2a811c461f1969c305302811c92611cc2565b916fff2ea16466c96a3843ec78b326b528610260801c91611cb7565b916fff973b41fa98c081472e6896dfb254c00260801c91611cae565b916fffcb9843d60f6159c9db58835c9266440260801c91611ca5565b916fffe5caca7e10e4e61c3624eaa0941cd00260801c91611c9c565b916ffff2e50f5f656932ef12357cf3c7fdcc0260801c91611c93565b916ffff97272373d413259a46990580e213a0260801c91611c8a565b6001600160881b03600160801b611c7f565b6040516315e4079d60e11b8152600490fd5b80611c49565b6001600160a01b038116906401000276a38210158061224a575b156122385777ffffffffffffffffffffffffffffffffffffffff000000009060201b16806001600160801b03811160071b9181831c9267ffffffffffffffff841160061b93841c9363ffffffff851160051b94851c9461ffff861160041b95861c60ff9687821160031b91821c92600f841160021b93841c94600160038711811b96871c11961717171717171791608083101560001461222c5750607e1982011c5b8002607f928392828493841c81841c1c800280851c81851c1c800280861c81861c1c800280871c81871c1c80029081881c82881c1c80029283891c84891c1c800294858a1c868a1c1c800296878b1c888b1c1c800298898c1c8a8c1c1c80029a8b8d1c8c821c1c8002809d1c8d821c1c8002809e81901c90821c1c80029e8f80911c911c1c800260cd1c6604000000000000169d60cc1c6608000000000000169c60cb1c6610000000000000169b60ca1c6620000000000000169a60c91c6640000000000000169960c81c6680000000000000169860c71c670100000000000000169760c61c670200000000000000169660c51c670400000000000000169560c41c670800000000000000169460c31c671000000000000000169360c21c672000000000000000169260c11c674000000000000000169160c01c6780000000000000001690607f190160401b1717171717171717171717171717693627a301d71055774c85026f028f6481ab7f045a5af012a19d003aa919810160801d60020b906fdb2df09e81959a81455e260799a0632f0160801d60020b91600090838314600014612210575050905090565b61221c610bd685611c38565b119050612227575090565b905090565b905081607f031b612062565b6040516324c070df60e11b8152600490fd5b5073fffd8963efd1fc6a506488495d951d5263988d268210611fc0565b9060020b9081156108455760020b0590565b9060020b9081156108455760020b0790565b90816020910312610219575190565b9190926122a78285612267565b9060029483600082880b1291826124a3575b5050612496575b156123c75761231892936122e48260020b906101008260081d60010b920760ff1690565b60405163299ce14b60e11b8152600192830b600482015260ff82169791969092881b91602091849190829081906024820190565b03915afa9182156112d957600092612397575b50800160001901168015801596919291906123875750509061237561236a6123646123849661235c61237d966124c1565b60ff91031690565b60ff1690565b62ffffff1660020b90565b900360020b90565b0260020b90565b91565b91508094500b9003820b02900b91565b6123b991925060203d81116123c0575b6123b18183610191565b81019061228b565b903861232b565b503d6123a7565b600101830b61241160206123eb8360020b906101008260081d60010b920760ff1690565b95604051808095819463299ce14b60e11b835260048301919091602081019260010b9052565b03915afa9081156112d957600091612478575b50600160ff85161b60001901191680158015959061246557509061245e61236a6123646123849661245761237d966125a2565b0360ff1690565b0160020b90565b9360ff8092500316830b01820b02900b91565b612490915060203d81116123c0576123b18183610191565b38612424565b9060001901840b906122c0565b6124b89250906124b291612279565b60020b90565b151583386122b9565b906000916124d0811515610bf3565b600160801b811015612597575b80680100000000000000006002921015612588575b640100000000811015612579575b6201000081101561256a575b61010081101561255b575b601081101561254c575b600481101561253e575b101561253357565b90600160ff91011690565b92810160ff1692811c61252b565b600493840160ff16931c612521565b600893840160ff16931c612517565b601093840160ff16931c61250c565b602093840160ff16931c612500565b604093840160ff16931c6124f2565b60809250821c6124dd565b906125ae821515610bf3565b60ff6001600160801b038316156126895750607f5b67ffffffffffffffff83161561267f57603f190160ff165b63ffffffff83161561267557601f190160ff165b61ffff83161561266b57600f190160ff165b60ff831615612661576007190160ff165b600f831615612657576003190160ff165b600383161561264b576001190160ff16916001905b1661263f57565b60001990910160ff1690565b9160019060021c612638565b9160041c91612623565b9160081c91612612565b9160101c91612601565b9160201c916125ef565b9160401c916125db565b9160801c916125c356fea164736f6c6343000812000a",
  "devdoc": {
    "details": "These functions are not gas efficient and should _not_ be called on chain. Instead, optimistically execute the swap and check the amounts in the callback.",
    "kind": "dev",
    "methods": {},
    "title": "Provides quotes for swaps",
    "version": 1
  },
  "userdoc": {
    "kind": "user",
    "methods": {},
    "notice": "Allows getting the expected amount out or amount in for a given swap without executing the swap",
    "version": 1
  },
  "storageLayout": {
    "storage": [],
    "types": null
  }
}